{
	"data": {
		"bytecode": {
			"linkReferences": {},
			"object": "608060405234801561001057600080fd5b5061028a806100206000396000f3fe608060405234801561001057600080fd5b50600436106100365760003560e01c8063c8a4ac9c1461003b578063e91cac2d1461006b575b600080fd5b610055600480360381019061005091906100e8565b61009b565b604051610062919061018a565b60405180910390f35b61008560048036038101906100809190610128565b6100b1565b604051610092919061018a565b60405180910390f35b600081836100a991906101a5565b905092915050565b60008183856100c091906101a5565b6100ca91906101a5565b90509392505050565b6000813590506100e28161023d565b92915050565b600080604083850312156100ff576100fe610238565b5b600061010d858286016100d3565b925050602061011e858286016100d3565b9150509250929050565b60008060006060848603121561014157610140610238565b5b600061014f868287016100d3565b9350506020610160868287016100d3565b9250506040610171868287016100d3565b9150509250925092565b610184816101ff565b82525050565b600060208201905061019f600083018461017b565b92915050565b60006101b0826101ff565b91506101bb836101ff565b9250817fffffffffffffffffffffffffffffffffffffffffffffffffffffffffffffffff04831182151516156101f4576101f3610209565b5b828202905092915050565b6000819050919050565b7f4e487b7100000000000000000000000000000000000000000000000000000000600052601160045260246000fd5b600080fd5b610246816101ff565b811461025157600080fd5b5056fea2646970667358221220a7335d836e77b409a850208cf8dacc1c8dfa6fd2c65a20304548986856d1765164736f6c63430008070033",
			"opcodes": "PUSH1 0x80 PUSH1 0x40 MSTORE CALLVALUE DUP1 ISZERO PUSH2 0x10 JUMPI PUSH1 0x0 DUP1 REVERT JUMPDEST POP PUSH2 0x28A DUP1 PUSH2 0x20 PUSH1 0x0 CODECOPY PUSH1 0x0 RETURN INVALID PUSH1 0x80 PUSH1 0x40 MSTORE CALLVALUE DUP1 ISZERO PUSH2 0x10 JUMPI PUSH1 0x0 DUP1 REVERT JUMPDEST POP PUSH1 0x4 CALLDATASIZE LT PUSH2 0x36 JUMPI PUSH1 0x0 CALLDATALOAD PUSH1 0xE0 SHR DUP1 PUSH4 0xC8A4AC9C EQ PUSH2 0x3B JUMPI DUP1 PUSH4 0xE91CAC2D EQ PUSH2 0x6B JUMPI JUMPDEST PUSH1 0x0 DUP1 REVERT JUMPDEST PUSH2 0x55 PUSH1 0x4 DUP1 CALLDATASIZE SUB DUP2 ADD SWAP1 PUSH2 0x50 SWAP2 SWAP1 PUSH2 0xE8 JUMP JUMPDEST PUSH2 0x9B JUMP JUMPDEST PUSH1 0x40 MLOAD PUSH2 0x62 SWAP2 SWAP1 PUSH2 0x18A JUMP JUMPDEST PUSH1 0x40 MLOAD DUP1 SWAP2 SUB SWAP1 RETURN JUMPDEST PUSH2 0x85 PUSH1 0x4 DUP1 CALLDATASIZE SUB DUP2 ADD SWAP1 PUSH2 0x80 SWAP2 SWAP1 PUSH2 0x128 JUMP JUMPDEST PUSH2 0xB1 JUMP JUMPDEST PUSH1 0x40 MLOAD PUSH2 0x92 SWAP2 SWAP1 PUSH2 0x18A JUMP JUMPDEST PUSH1 0x40 MLOAD DUP1 SWAP2 SUB SWAP1 RETURN JUMPDEST PUSH1 0x0 DUP2 DUP4 PUSH2 0xA9 SWAP2 SWAP1 PUSH2 0x1A5 JUMP JUMPDEST SWAP1 POP SWAP3 SWAP2 POP POP JUMP JUMPDEST PUSH1 0x0 DUP2 DUP4 DUP6 PUSH2 0xC0 SWAP2 SWAP1 PUSH2 0x1A5 JUMP JUMPDEST PUSH2 0xCA SWAP2 SWAP1 PUSH2 0x1A5 JUMP JUMPDEST SWAP1 POP SWAP4 SWAP3 POP POP POP JUMP JUMPDEST PUSH1 0x0 DUP2 CALLDATALOAD SWAP1 POP PUSH2 0xE2 DUP2 PUSH2 0x23D JUMP JUMPDEST SWAP3 SWAP2 POP POP JUMP JUMPDEST PUSH1 0x0 DUP1 PUSH1 0x40 DUP4 DUP6 SUB SLT ISZERO PUSH2 0xFF JUMPI PUSH2 0xFE PUSH2 0x238 JUMP JUMPDEST JUMPDEST PUSH1 0x0 PUSH2 0x10D DUP6 DUP3 DUP7 ADD PUSH2 0xD3 JUMP JUMPDEST SWAP3 POP POP PUSH1 0x20 PUSH2 0x11E DUP6 DUP3 DUP7 ADD PUSH2 0xD3 JUMP JUMPDEST SWAP2 POP POP SWAP3 POP SWAP3 SWAP1 POP JUMP JUMPDEST PUSH1 0x0 DUP1 PUSH1 0x0 PUSH1 0x60 DUP5 DUP7 SUB SLT ISZERO PUSH2 0x141 JUMPI PUSH2 0x140 PUSH2 0x238 JUMP JUMPDEST JUMPDEST PUSH1 0x0 PUSH2 0x14F DUP7 DUP3 DUP8 ADD PUSH2 0xD3 JUMP JUMPDEST SWAP4 POP POP PUSH1 0x20 PUSH2 0x160 DUP7 DUP3 DUP8 ADD PUSH2 0xD3 JUMP JUMPDEST SWAP3 POP POP PUSH1 0x40 PUSH2 0x171 DUP7 DUP3 DUP8 ADD PUSH2 0xD3 JUMP JUMPDEST SWAP2 POP POP SWAP3 POP SWAP3 POP SWAP3 JUMP JUMPDEST PUSH2 0x184 DUP2 PUSH2 0x1FF JUMP JUMPDEST DUP3 MSTORE POP POP JUMP JUMPDEST PUSH1 0x0 PUSH1 0x20 DUP3 ADD SWAP1 POP PUSH2 0x19F PUSH1 0x0 DUP4 ADD DUP5 PUSH2 0x17B JUMP JUMPDEST SWAP3 SWAP2 POP POP JUMP JUMPDEST PUSH1 0x0 PUSH2 0x1B0 DUP3 PUSH2 0x1FF JUMP JUMPDEST SWAP2 POP PUSH2 0x1BB DUP4 PUSH2 0x1FF JUMP JUMPDEST SWAP3 POP DUP2 PUSH32 0xFFFFFFFFFFFFFFFFFFFFFFFFFFFFFFFFFFFFFFFFFFFFFFFFFFFFFFFFFFFFFFFF DIV DUP4 GT DUP3 ISZERO ISZERO AND ISZERO PUSH2 0x1F4 JUMPI PUSH2 0x1F3 PUSH2 0x209 JUMP JUMPDEST JUMPDEST DUP3 DUP3 MUL SWAP1 POP SWAP3 SWAP2 POP POP JUMP JUMPDEST PUSH1 0x0 DUP2 SWAP1 POP SWAP2 SWAP1 POP JUMP JUMPDEST PUSH32 0x4E487B7100000000000000000000000000000000000000000000000000000000 PUSH1 0x0 MSTORE PUSH1 0x11 PUSH1 0x4 MSTORE PUSH1 0x24 PUSH1 0x0 REVERT JUMPDEST PUSH1 0x0 DUP1 REVERT JUMPDEST PUSH2 0x246 DUP2 PUSH2 0x1FF JUMP JUMPDEST DUP2 EQ PUSH2 0x251 JUMPI PUSH1 0x0 DUP1 REVERT JUMPDEST POP JUMP INVALID LOG2 PUSH5 0x6970667358 0x22 SLT KECCAK256 0xA7 CALLER 0x5D DUP4 PUSH15 0x77B409A850208CF8DACC1C8DFA6FD2 0xC6 GAS KECCAK256 ADDRESS GASLIMIT BASEFEE SWAP9 PUSH9 0x56D1765164736F6C63 NUMBER STOP ADDMOD SMOD STOP CALLER "
		},
		"gasEstimates": {
			"creation": {
				"codeDepositCost": "130000",
				"executionCost": "177",
				"totalCost": "130177"
			},
			"external": {
				"mul(uint256,uint256)": "infinite",
				"mul(uint256,uint256,uint256)": "infinite"
			}
		},
		"methodIdentifiers": {
			"mul(uint256,uint256)": "c8a4ac9c",
			"mul(uint256,uint256,uint256)": "e91cac2d"
		}
	},
	"abi": [
		{
			"inputs": [
				{
					"internalType": "uint256",
					"name": "_num1",
					"type": "uint256"
				},
				{
					"internalType": "uint256",
					"name": "_num2",
					"type": "uint256"
				}
			],
			"name": "mul",
			"outputs": [
				{
					"internalType": "uint256",
					"name": "",
					"type": "uint256"
				}
			],
			"stateMutability": "pure",
			"type": "function"
		},
		{
			"inputs": [
				{
					"internalType": "uint256",
					"name": "_num1",
					"type": "uint256"
				},
				{
					"internalType": "uint256",
					"name": "_num2",
					"type": "uint256"
				},
				{
					"internalType": "uint256",
					"name": "_num3",
					"type": "uint256"
				}
			],
			"name": "mul",
			"outputs": [
				{
					"internalType": "uint256",
					"name": "",
					"type": "uint256"
				}
			],
			"stateMutability": "pure",
			"type": "function"
		}
	]
}