{
	"data": {
		"bytecode": {
			"linkReferences": {},
			"object": "608060405234801561001057600080fd5b50610117806100206000396000f3fe6080604052348015600f57600080fd5b506004361060285760003560e01c8063d6d21dfd14602d575b600080fd5b60336035565b005b7f5657acc33fa9dbb926b6b6a1479e21e5e99a97b612f5d7f3ddfb47197d2148cc6040516060906089565b60405180910390a1565b6000607560078360a7565b9150607e8260b8565b602082019050919050565b6000602082019050818103600083015260a081606a565b9050919050565b600082825260208201905092915050565b7f4368616e42616b0000000000000000000000000000000000000000000000000060008201525056fea2646970667358221220cbab3650f119b21a8871ffa4d3eacace9643239b09692acd32e014b08ae6376b64736f6c63430008070033",
			"opcodes": "PUSH1 0x80 PUSH1 0x40 MSTORE CALLVALUE DUP1 ISZERO PUSH2 0x10 JUMPI PUSH1 0x0 DUP1 REVERT JUMPDEST POP PUSH2 0x117 DUP1 PUSH2 0x20 PUSH1 0x0 CODECOPY PUSH1 0x0 RETURN INVALID PUSH1 0x80 PUSH1 0x40 MSTORE CALLVALUE DUP1 ISZERO PUSH1 0xF JUMPI PUSH1 0x0 DUP1 REVERT JUMPDEST POP PUSH1 0x4 CALLDATASIZE LT PUSH1 0x28 JUMPI PUSH1 0x0 CALLDATALOAD PUSH1 0xE0 SHR DUP1 PUSH4 0xD6D21DFD EQ PUSH1 0x2D JUMPI JUMPDEST PUSH1 0x0 DUP1 REVERT JUMPDEST PUSH1 0x33 PUSH1 0x35 JUMP JUMPDEST STOP JUMPDEST PUSH32 0x5657ACC33FA9DBB926B6B6A1479E21E5E99A97B612F5D7F3DDFB47197D2148CC PUSH1 0x40 MLOAD PUSH1 0x60 SWAP1 PUSH1 0x89 JUMP JUMPDEST PUSH1 0x40 MLOAD DUP1 SWAP2 SUB SWAP1 LOG1 JUMP JUMPDEST PUSH1 0x0 PUSH1 0x75 PUSH1 0x7 DUP4 PUSH1 0xA7 JUMP JUMPDEST SWAP2 POP PUSH1 0x7E DUP3 PUSH1 0xB8 JUMP JUMPDEST PUSH1 0x20 DUP3 ADD SWAP1 POP SWAP2 SWAP1 POP JUMP JUMPDEST PUSH1 0x0 PUSH1 0x20 DUP3 ADD SWAP1 POP DUP2 DUP2 SUB PUSH1 0x0 DUP4 ADD MSTORE PUSH1 0xA0 DUP2 PUSH1 0x6A JUMP JUMPDEST SWAP1 POP SWAP2 SWAP1 POP JUMP JUMPDEST PUSH1 0x0 DUP3 DUP3 MSTORE PUSH1 0x20 DUP3 ADD SWAP1 POP SWAP3 SWAP2 POP POP JUMP JUMPDEST PUSH32 0x4368616E42616B00000000000000000000000000000000000000000000000000 PUSH1 0x0 DUP3 ADD MSTORE POP JUMP INVALID LOG2 PUSH5 0x6970667358 0x22 SLT KECCAK256 0xCB 0xAB CALLDATASIZE POP CALL NOT 0xB2 BYTE DUP9 PUSH18 0xFFA4D3EACACE9643239B09692ACD32E014B0 DUP11 0xE6 CALLDATACOPY PUSH12 0x64736F6C6343000807003300 "
		},
		"gasEstimates": {
			"creation": {
				"codeDepositCost": "55800",
				"executionCost": "105",
				"totalCost": "55905"
			},
			"external": {
				"who()": "1924"
			}
		},
		"methodIdentifiers": {
			"who()": "d6d21dfd"
		}
	},
	"abi": [
		{
			"anonymous": false,
			"inputs": [
				{
					"indexed": false,
					"internalType": "string",
					"name": "name",
					"type": "string"
				}
			],
			"name": "FatherName",
			"type": "event"
		},
		{
			"inputs": [],
			"name": "who",
			"outputs": [],
			"stateMutability": "nonpayable",
			"type": "function"
		}
	]
}