{
	"github.com/provable-things/ethereum-api/blob/master/contracts/solc-v0.4.25/provableAPI.sol": {
		"usingProvable": {
			"abi": [
				{
					"constant": false,
					"inputs": [
						{
							"name": "myid",
							"type": "bytes32"
						},
						{
							"name": "result",
							"type": "string"
						}
					],
					"name": "__callback",
					"outputs": [],
					"payable": false,
					"stateMutability": "nonpayable",
					"type": "function"
				},
				{
					"constant": false,
					"inputs": [
						{
							"name": "myid",
							"type": "bytes32"
						},
						{
							"name": "result",
							"type": "string"
						},
						{
							"name": "proof",
							"type": "bytes"
						}
					],
					"name": "__callback",
					"outputs": [],
					"payable": false,
					"stateMutability": "nonpayable",
					"type": "function"
				}
			],
			"devdoc": {
				"methods": {
					"__callback(bytes32,string)": {
						"details": "The following `__callback` functions are just placeholders ideally     meant to be defined in child contract when proofs are used.     The function bodies simply silence compiler warnings."
					}
				}
			},
			"evm": {
				"assembly": "    /* \"github.com/provable-things/ethereum-api/blob/master/contracts/solc-v0.4.25/provableAPI.sol\":10559:53273  contract usingProvable {... */\n  mstore(0x40, 0x80)\n  callvalue\n    /* \"--CODEGEN--\":8:17   */\n  dup1\n    /* \"--CODEGEN--\":5:7   */\n  iszero\n  tag_1\n  jumpi\n    /* \"--CODEGEN--\":30:31   */\n  0x0\n    /* \"--CODEGEN--\":27:28   */\n  dup1\n    /* \"--CODEGEN--\":20:32   */\n  revert\n    /* \"--CODEGEN--\":5:7   */\ntag_1:\n    /* \"github.com/provable-things/ethereum-api/blob/master/contracts/solc-v0.4.25/provableAPI.sol\":10559:53273  contract usingProvable {... */\n  pop\n  dataSize(sub_0)\n  dup1\n  dataOffset(sub_0)\n  0x0\n  codecopy\n  0x0\n  return\nstop\n\nsub_0: assembly {\n        /* \"github.com/provable-things/ethereum-api/blob/master/contracts/solc-v0.4.25/provableAPI.sol\":10559:53273  contract usingProvable {... */\n      mstore(0x40, 0x80)\n      jumpi(tag_1, lt(calldatasize, 0x4))\n      calldataload(0x0)\n      0x100000000000000000000000000000000000000000000000000000000\n      swap1\n      div\n      0xffffffff\n      and\n      dup1\n      0x27dc297e\n      eq\n      tag_2\n      jumpi\n      dup1\n      0x38bbfa50\n      eq\n      tag_3\n      jumpi\n    tag_1:\n      0x0\n      dup1\n      revert\n        /* \"github.com/provable-things/ethereum-api/blob/master/contracts/solc-v0.4.25/provableAPI.sol\":14522:14633  function __callback(bytes32 myid, string result) public {... */\n    tag_2:\n      callvalue\n        /* \"--CODEGEN--\":8:17   */\n      dup1\n        /* \"--CODEGEN--\":5:7   */\n      iszero\n      tag_4\n      jumpi\n        /* \"--CODEGEN--\":30:31   */\n      0x0\n        /* \"--CODEGEN--\":27:28   */\n      dup1\n        /* \"--CODEGEN--\":20:32   */\n      revert\n        /* \"--CODEGEN--\":5:7   */\n    tag_4:\n        /* \"github.com/provable-things/ethereum-api/blob/master/contracts/solc-v0.4.25/provableAPI.sol\":14522:14633  function __callback(bytes32 myid, string result) public {... */\n      pop\n      tag_5\n      0x4\n      dup1\n      calldatasize\n      sub\n      dup2\n      add\n      swap1\n      dup1\n      dup1\n      calldataload\n      not(0x0)\n      and\n      swap1\n      0x20\n      add\n      swap1\n      swap3\n      swap2\n      swap1\n      dup1\n      calldataload\n      swap1\n      0x20\n      add\n      swap1\n      dup3\n      add\n      dup1\n      calldataload\n      swap1\n      0x20\n      add\n      swap1\n      dup1\n      dup1\n      0x1f\n      add\n      0x20\n      dup1\n      swap2\n      div\n      mul\n      0x20\n      add\n      mload(0x40)\n      swap1\n      dup2\n      add\n      0x40\n      mstore\n      dup1\n      swap4\n      swap3\n      swap2\n      swap1\n      dup2\n      dup2\n      mstore\n      0x20\n      add\n      dup4\n      dup4\n      dup1\n      dup3\n      dup5\n      calldatacopy\n      dup3\n      add\n      swap2\n      pop\n      pop\n      pop\n      pop\n      pop\n      pop\n      swap2\n      swap3\n      swap2\n      swap3\n      swap1\n      pop\n      pop\n      pop\n      jump(tag_6)\n    tag_5:\n      stop\n        /* \"github.com/provable-things/ethereum-api/blob/master/contracts/solc-v0.4.25/provableAPI.sol\":14639:14811  function __callback(bytes32 myid, string result, bytes proof) public {... */\n    tag_3:\n      callvalue\n        /* \"--CODEGEN--\":8:17   */\n      dup1\n        /* \"--CODEGEN--\":5:7   */\n      iszero\n      tag_7\n      jumpi\n        /* \"--CODEGEN--\":30:31   */\n      0x0\n        /* \"--CODEGEN--\":27:28   */\n      dup1\n        /* \"--CODEGEN--\":20:32   */\n      revert\n        /* \"--CODEGEN--\":5:7   */\n    tag_7:\n        /* \"github.com/provable-things/ethereum-api/blob/master/contracts/solc-v0.4.25/provableAPI.sol\":14639:14811  function __callback(bytes32 myid, string result, bytes proof) public {... */\n      pop\n      tag_8\n      0x4\n      dup1\n      calldatasize\n      sub\n      dup2\n      add\n      swap1\n      dup1\n      dup1\n      calldataload\n      not(0x0)\n      and\n      swap1\n      0x20\n      add\n      swap1\n      swap3\n      swap2\n      swap1\n      dup1\n      calldataload\n      swap1\n      0x20\n      add\n      swap1\n      dup3\n      add\n      dup1\n      calldataload\n      swap1\n      0x20\n      add\n      swap1\n      dup1\n      dup1\n      0x1f\n      add\n      0x20\n      dup1\n      swap2\n      div\n      mul\n      0x20\n      add\n      mload(0x40)\n      swap1\n      dup2\n      add\n      0x40\n      mstore\n      dup1\n      swap4\n      swap3\n      swap2\n      swap1\n      dup2\n      dup2\n      mstore\n      0x20\n      add\n      dup4\n      dup4\n      dup1\n      dup3\n      dup5\n      calldatacopy\n      dup3\n      add\n      swap2\n      pop\n      pop\n      pop\n      pop\n      pop\n      pop\n      swap2\n      swap3\n      swap2\n      swap3\n      swap1\n      dup1\n      calldataload\n      swap1\n      0x20\n      add\n      swap1\n      dup3\n      add\n      dup1\n      calldataload\n      swap1\n      0x20\n      add\n      swap1\n      dup1\n      dup1\n      0x1f\n      add\n      0x20\n      dup1\n      swap2\n      div\n      mul\n      0x20\n      add\n      mload(0x40)\n      swap1\n      dup2\n      add\n      0x40\n      mstore\n      dup1\n      swap4\n      swap3\n      swap2\n      swap1\n      dup2\n      dup2\n      mstore\n      0x20\n      add\n      dup4\n      dup4\n      dup1\n      dup3\n      dup5\n      calldatacopy\n      dup3\n      add\n      swap2\n      pop\n      pop\n      pop\n      pop\n      pop\n      pop\n      swap2\n      swap3\n      swap2\n      swap3\n      swap1\n      pop\n      pop\n      pop\n      jump(tag_9)\n    tag_8:\n      stop\n        /* \"github.com/provable-things/ethereum-api/blob/master/contracts/solc-v0.4.25/provableAPI.sol\":14522:14633  function __callback(bytes32 myid, string result) public {... */\n    tag_6:\n        /* \"github.com/provable-things/ethereum-api/blob/master/contracts/solc-v0.4.25/provableAPI.sol\":14588:14626  __callback(myid, result, new bytes(0)) */\n      tag_11\n        /* \"github.com/provable-things/ethereum-api/blob/master/contracts/solc-v0.4.25/provableAPI.sol\":14599:14603  myid */\n      dup3\n        /* \"github.com/provable-things/ethereum-api/blob/master/contracts/solc-v0.4.25/provableAPI.sol\":14605:14611  result */\n      dup3\n        /* \"github.com/provable-things/ethereum-api/blob/master/contracts/solc-v0.4.25/provableAPI.sol\":14623:14624  0 */\n      0x0\n        /* \"github.com/provable-things/ethereum-api/blob/master/contracts/solc-v0.4.25/provableAPI.sol\":14613:14625  new bytes(0) */\n      mload(0x40)\n      swap1\n      dup1\n      dup3\n      mstore\n      dup1\n      0x1f\n      add\n      not(0x1f)\n      and\n      0x20\n      add\n      dup3\n      add\n      0x40\n      mstore\n      dup1\n      iszero\n      tag_12\n      jumpi\n      dup2\n      0x20\n      add\n        /* \"--CODEGEN--\":29:31   */\n      0x20\n        /* \"--CODEGEN--\":21:27   */\n      dup3\n        /* \"--CODEGEN--\":17:32   */\n      mul\n        /* \"--CODEGEN--\":117:121   */\n      dup1\n        /* \"--CODEGEN--\":105:115   */\n      codesize\n        /* \"--CODEGEN--\":97:103   */\n      dup4\n        /* \"--CODEGEN--\":88:122   */\n      codecopy\n        /* \"--CODEGEN--\":148:152   */\n      dup1\n        /* \"--CODEGEN--\":140:146   */\n      dup3\n        /* \"--CODEGEN--\":136:153   */\n      add\n        /* \"--CODEGEN--\":126:153   */\n      swap2\n      pop\n        /* \"--CODEGEN--\":0:157   */\n      pop\n        /* \"github.com/provable-things/ethereum-api/blob/master/contracts/solc-v0.4.25/provableAPI.sol\":14613:14625  new bytes(0) */\n      swap1\n      pop\n    tag_12:\n      pop\n        /* \"github.com/provable-things/ethereum-api/blob/master/contracts/solc-v0.4.25/provableAPI.sol\":14588:14598  __callback */\n      tag_9\n        /* \"github.com/provable-things/ethereum-api/blob/master/contracts/solc-v0.4.25/provableAPI.sol\":14588:14626  __callback(myid, result, new bytes(0)) */\n      jump\t// in\n    tag_11:\n        /* \"github.com/provable-things/ethereum-api/blob/master/contracts/solc-v0.4.25/provableAPI.sol\":14522:14633  function __callback(bytes32 myid, string result) public {... */\n      pop\n      pop\n      jump\t// out\n        /* \"github.com/provable-things/ethereum-api/blob/master/contracts/solc-v0.4.25/provableAPI.sol\":14639:14811  function __callback(bytes32 myid, string result, bytes proof) public {... */\n    tag_9:\n      pop\n      pop\n      pop\n      jump\t// out\n\n    auxdata: 0xa165627a7a72305820ee44735e88e6350d068390508579a5d15e85cc8ee01ffb17722c464f45207d000029\n}\n",
				"bytecode": {
					"linkReferences": {},
					"object": "608060405234801561001057600080fd5b506101f9806100206000396000f30060806040526004361061004c576000357c0100000000000000000000000000000000000000000000000000000000900463ffffffff16806327dc297e1461005157806338bbfa50146100c8575b600080fd5b34801561005d57600080fd5b506100c66004803603810190808035600019169060200190929190803590602001908201803590602001908080601f0160208091040260200160405190810160405280939291908181526020018383808284378201915050505050509192919290505050610185565b005b3480156100d457600080fd5b506101836004803603810190808035600019169060200190929190803590602001908201803590602001908080601f0160208091040260200160405190810160405280939291908181526020018383808284378201915050505050509192919290803590602001908201803590602001908080601f01602080910402602001604051908101604052809392919081815260200183838082843782019150505050505091929192905050506101c8565b005b6101c4828260006040519080825280601f01601f1916602001820160405280156101be5781602001602082028038833980820191505090505b506101c8565b5050565b5050505600a165627a7a72305820ee44735e88e6350d068390508579a5d15e85cc8ee01ffb17722c464f45207d000029",
					"opcodes": "PUSH1 0x80 PUSH1 0x40 MSTORE CALLVALUE DUP1 ISZERO PUSH2 0x10 JUMPI PUSH1 0x0 DUP1 REVERT JUMPDEST POP PUSH2 0x1F9 DUP1 PUSH2 0x20 PUSH1 0x0 CODECOPY PUSH1 0x0 RETURN STOP PUSH1 0x80 PUSH1 0x40 MSTORE PUSH1 0x4 CALLDATASIZE LT PUSH2 0x4C JUMPI PUSH1 0x0 CALLDATALOAD PUSH29 0x100000000000000000000000000000000000000000000000000000000 SWAP1 DIV PUSH4 0xFFFFFFFF AND DUP1 PUSH4 0x27DC297E EQ PUSH2 0x51 JUMPI DUP1 PUSH4 0x38BBFA50 EQ PUSH2 0xC8 JUMPI JUMPDEST PUSH1 0x0 DUP1 REVERT JUMPDEST CALLVALUE DUP1 ISZERO PUSH2 0x5D JUMPI PUSH1 0x0 DUP1 REVERT JUMPDEST POP PUSH2 0xC6 PUSH1 0x4 DUP1 CALLDATASIZE SUB DUP2 ADD SWAP1 DUP1 DUP1 CALLDATALOAD PUSH1 0x0 NOT AND SWAP1 PUSH1 0x20 ADD SWAP1 SWAP3 SWAP2 SWAP1 DUP1 CALLDATALOAD SWAP1 PUSH1 0x20 ADD SWAP1 DUP3 ADD DUP1 CALLDATALOAD SWAP1 PUSH1 0x20 ADD SWAP1 DUP1 DUP1 PUSH1 0x1F ADD PUSH1 0x20 DUP1 SWAP2 DIV MUL PUSH1 0x20 ADD PUSH1 0x40 MLOAD SWAP1 DUP2 ADD PUSH1 0x40 MSTORE DUP1 SWAP4 SWAP3 SWAP2 SWAP1 DUP2 DUP2 MSTORE PUSH1 0x20 ADD DUP4 DUP4 DUP1 DUP3 DUP5 CALLDATACOPY DUP3 ADD SWAP2 POP POP POP POP POP POP SWAP2 SWAP3 SWAP2 SWAP3 SWAP1 POP POP POP PUSH2 0x185 JUMP JUMPDEST STOP JUMPDEST CALLVALUE DUP1 ISZERO PUSH2 0xD4 JUMPI PUSH1 0x0 DUP1 REVERT JUMPDEST POP PUSH2 0x183 PUSH1 0x4 DUP1 CALLDATASIZE SUB DUP2 ADD SWAP1 DUP1 DUP1 CALLDATALOAD PUSH1 0x0 NOT AND SWAP1 PUSH1 0x20 ADD SWAP1 SWAP3 SWAP2 SWAP1 DUP1 CALLDATALOAD SWAP1 PUSH1 0x20 ADD SWAP1 DUP3 ADD DUP1 CALLDATALOAD SWAP1 PUSH1 0x20 ADD SWAP1 DUP1 DUP1 PUSH1 0x1F ADD PUSH1 0x20 DUP1 SWAP2 DIV MUL PUSH1 0x20 ADD PUSH1 0x40 MLOAD SWAP1 DUP2 ADD PUSH1 0x40 MSTORE DUP1 SWAP4 SWAP3 SWAP2 SWAP1 DUP2 DUP2 MSTORE PUSH1 0x20 ADD DUP4 DUP4 DUP1 DUP3 DUP5 CALLDATACOPY DUP3 ADD SWAP2 POP POP POP POP POP POP SWAP2 SWAP3 SWAP2 SWAP3 SWAP1 DUP1 CALLDATALOAD SWAP1 PUSH1 0x20 ADD SWAP1 DUP3 ADD DUP1 CALLDATALOAD SWAP1 PUSH1 0x20 ADD SWAP1 DUP1 DUP1 PUSH1 0x1F ADD PUSH1 0x20 DUP1 SWAP2 DIV MUL PUSH1 0x20 ADD PUSH1 0x40 MLOAD SWAP1 DUP2 ADD PUSH1 0x40 MSTORE DUP1 SWAP4 SWAP3 SWAP2 SWAP1 DUP2 DUP2 MSTORE PUSH1 0x20 ADD DUP4 DUP4 DUP1 DUP3 DUP5 CALLDATACOPY DUP3 ADD SWAP2 POP POP POP POP POP POP SWAP2 SWAP3 SWAP2 SWAP3 SWAP1 POP POP POP PUSH2 0x1C8 JUMP JUMPDEST STOP JUMPDEST PUSH2 0x1C4 DUP3 DUP3 PUSH1 0x0 PUSH1 0x40 MLOAD SWAP1 DUP1 DUP3 MSTORE DUP1 PUSH1 0x1F ADD PUSH1 0x1F NOT AND PUSH1 0x20 ADD DUP3 ADD PUSH1 0x40 MSTORE DUP1 ISZERO PUSH2 0x1BE JUMPI DUP2 PUSH1 0x20 ADD PUSH1 0x20 DUP3 MUL DUP1 CODESIZE DUP4 CODECOPY DUP1 DUP3 ADD SWAP2 POP POP SWAP1 POP JUMPDEST POP PUSH2 0x1C8 JUMP JUMPDEST POP POP JUMP JUMPDEST POP POP POP JUMP STOP LOG1 PUSH6 0x627A7A723058 KECCAK256 0xee DIFFICULTY PUSH20 0x5E88E6350D068390508579A5D15E85CC8EE01FFB OR PUSH19 0x2C464F45207D00002900000000000000000000 "
				},
				"gasEstimates": {
					"creation": {
						"codeDepositCost": "101000",
						"executionCost": "147",
						"totalCost": "101147"
					},
					"external": {
						"__callback(bytes32,string)": "infinite",
						"__callback(bytes32,string,bytes)": "infinite"
					},
					"internal": {
						"ba2cbor(bytes memory[] memory)": "infinite",
						"copyBytes(bytes memory,uint256,uint256,bytes memory,uint256)": "infinite",
						"ecrecovery(bytes32,bytes memory)": "infinite",
						"getCodeSize(address)": "infinite",
						"indexOf(string memory,string memory)": "infinite",
						"matchBytes32Prefix(bytes32,bytes memory,uint256)": "infinite",
						"parseAddr(string memory)": "infinite",
						"parseInt(string memory)": "infinite",
						"parseInt(string memory,uint256)": "infinite",
						"provable_cbAddress()": "infinite",
						"provable_getNetworkName()": "infinite",
						"provable_getPrice(string memory)": "infinite",
						"provable_getPrice(string memory,uint256)": "infinite",
						"provable_newRandomDSQuery(uint256,uint256,uint256)": "infinite",
						"provable_query(string memory,bytes memory[1] memory)": "infinite",
						"provable_query(string memory,bytes memory[1] memory,uint256)": "infinite",
						"provable_query(string memory,bytes memory[2] memory)": "infinite",
						"provable_query(string memory,bytes memory[2] memory,uint256)": "infinite",
						"provable_query(string memory,bytes memory[3] memory)": "infinite",
						"provable_query(string memory,bytes memory[3] memory,uint256)": "infinite",
						"provable_query(string memory,bytes memory[4] memory)": "infinite",
						"provable_query(string memory,bytes memory[4] memory,uint256)": "infinite",
						"provable_query(string memory,bytes memory[5] memory)": "infinite",
						"provable_query(string memory,bytes memory[5] memory,uint256)": "infinite",
						"provable_query(string memory,bytes memory[] memory)": "infinite",
						"provable_query(string memory,bytes memory[] memory,uint256)": "infinite",
						"provable_query(string memory,string memory)": "infinite",
						"provable_query(string memory,string memory,string memory)": "infinite",
						"provable_query(string memory,string memory,string memory,uint256)": "infinite",
						"provable_query(string memory,string memory,uint256)": "infinite",
						"provable_query(string memory,string memory[1] memory)": "infinite",
						"provable_query(string memory,string memory[1] memory,uint256)": "infinite",
						"provable_query(string memory,string memory[2] memory)": "infinite",
						"provable_query(string memory,string memory[2] memory,uint256)": "infinite",
						"provable_query(string memory,string memory[3] memory)": "infinite",
						"provable_query(string memory,string memory[3] memory,uint256)": "infinite",
						"provable_query(string memory,string memory[4] memory)": "infinite",
						"provable_query(string memory,string memory[4] memory,uint256)": "infinite",
						"provable_query(string memory,string memory[5] memory)": "infinite",
						"provable_query(string memory,string memory[5] memory,uint256)": "infinite",
						"provable_query(string memory,string memory[] memory)": "infinite",
						"provable_query(string memory,string memory[] memory,uint256)": "infinite",
						"provable_query(uint256,string memory,bytes memory[1] memory)": "infinite",
						"provable_query(uint256,string memory,bytes memory[1] memory,uint256)": "infinite",
						"provable_query(uint256,string memory,bytes memory[2] memory)": "infinite",
						"provable_query(uint256,string memory,bytes memory[2] memory,uint256)": "infinite",
						"provable_query(uint256,string memory,bytes memory[3] memory)": "infinite",
						"provable_query(uint256,string memory,bytes memory[3] memory,uint256)": "infinite",
						"provable_query(uint256,string memory,bytes memory[4] memory)": "infinite",
						"provable_query(uint256,string memory,bytes memory[4] memory,uint256)": "infinite",
						"provable_query(uint256,string memory,bytes memory[5] memory)": "infinite",
						"provable_query(uint256,string memory,bytes memory[5] memory,uint256)": "infinite",
						"provable_query(uint256,string memory,bytes memory[] memory)": "infinite",
						"provable_query(uint256,string memory,bytes memory[] memory,uint256)": "infinite",
						"provable_query(uint256,string memory,string memory)": "infinite",
						"provable_query(uint256,string memory,string memory,string memory)": "infinite",
						"provable_query(uint256,string memory,string memory,string memory,uint256)": "infinite",
						"provable_query(uint256,string memory,string memory,uint256)": "infinite",
						"provable_query(uint256,string memory,string memory[1] memory)": "infinite",
						"provable_query(uint256,string memory,string memory[1] memory,uint256)": "infinite",
						"provable_query(uint256,string memory,string memory[2] memory)": "infinite",
						"provable_query(uint256,string memory,string memory[2] memory,uint256)": "infinite",
						"provable_query(uint256,string memory,string memory[3] memory)": "infinite",
						"provable_query(uint256,string memory,string memory[3] memory,uint256)": "infinite",
						"provable_query(uint256,string memory,string memory[4] memory)": "infinite",
						"provable_query(uint256,string memory,string memory[4] memory,uint256)": "infinite",
						"provable_query(uint256,string memory,string memory[5] memory)": "infinite",
						"provable_query(uint256,string memory,string memory[5] memory,uint256)": "infinite",
						"provable_query(uint256,string memory,string memory[] memory)": "infinite",
						"provable_query(uint256,string memory,string memory[] memory,uint256)": "infinite",
						"provable_randomDS_getSessionPubKeyHash()": "infinite",
						"provable_randomDS_proofVerify__main(bytes memory,bytes32,bytes memory,string memory)": "infinite",
						"provable_randomDS_proofVerify__returnCode(bytes32,string memory,bytes memory)": "infinite",
						"provable_randomDS_proofVerify__sessionKeyValidity(bytes memory,uint256)": "infinite",
						"provable_randomDS_setCommitment(bytes32,bytes32)": "infinite",
						"provable_setCustomGasPrice(uint256)": "infinite",
						"provable_setNetwork()": "infinite",
						"provable_setNetwork(uint8)": "infinite",
						"provable_setNetworkName(string memory)": "infinite",
						"provable_setProof(bytes1)": "infinite",
						"safeMemoryCleaner()": "infinite",
						"safer_ecrecover(bytes32,uint8,bytes32,bytes32)": "infinite",
						"strCompare(string memory,string memory)": "infinite",
						"strConcat(string memory,string memory)": "infinite",
						"strConcat(string memory,string memory,string memory)": "infinite",
						"strConcat(string memory,string memory,string memory,string memory)": "infinite",
						"strConcat(string memory,string memory,string memory,string memory,string memory)": "infinite",
						"stra2cbor(string memory[] memory)": "infinite",
						"uint2str(uint256)": "infinite",
						"verifySig(bytes32,bytes memory,bytes memory)": "infinite"
					}
				},
				"methodIdentifiers": {
					"__callback(bytes32,string)": "27dc297e",
					"__callback(bytes32,string,bytes)": "38bbfa50"
				}
			},
			"userdoc": {
				"methods": {}
			}
		}
	}
}