{
	"PatternOracles/ExampleContract.sol": {
		"ExampleContract": {
			"abi": [
				{
					"constant": false,
					"inputs": [
						{
							"name": "myid",
							"type": "bytes32"
						},
						{
							"name": "result",
							"type": "string"
						}
					],
					"name": "__callback",
					"outputs": [],
					"payable": false,
					"stateMutability": "nonpayable",
					"type": "function"
				},
				{
					"constant": false,
					"inputs": [
						{
							"name": "myid",
							"type": "bytes32"
						},
						{
							"name": "result",
							"type": "string"
						},
						{
							"name": "proof",
							"type": "bytes"
						}
					],
					"name": "__callback",
					"outputs": [],
					"payable": false,
					"stateMutability": "nonpayable",
					"type": "function"
				},
				{
					"constant": false,
					"inputs": [],
					"name": "updatePrice",
					"outputs": [],
					"payable": true,
					"stateMutability": "payable",
					"type": "function"
				},
				{
					"constant": true,
					"inputs": [],
					"name": "ETHUSD",
					"outputs": [
						{
							"name": "",
							"type": "string"
						}
					],
					"payable": false,
					"stateMutability": "view",
					"type": "function"
				},
				{
					"inputs": [],
					"payable": true,
					"stateMutability": "payable",
					"type": "constructor"
				},
				{
					"anonymous": false,
					"inputs": [
						{
							"indexed": false,
							"name": "nextStep",
							"type": "string"
						}
					],
					"name": "LogConstructorInitiated",
					"type": "event"
				},
				{
					"anonymous": false,
					"inputs": [
						{
							"indexed": false,
							"name": "price",
							"type": "string"
						}
					],
					"name": "LogPriceUpdated",
					"type": "event"
				},
				{
					"anonymous": false,
					"inputs": [
						{
							"indexed": false,
							"name": "description",
							"type": "string"
						}
					],
					"name": "LogNewProvableQuery",
					"type": "event"
				}
			],
			"devdoc": {
				"methods": {}
			},
			"evm": {
				"assembly": "    /* \"PatternOracles/ExampleContract.sol\":128:1433  contract ExampleContract is usingProvable {... */\n  mstore(0x40, 0x80)\n    /* \"PatternOracles/ExampleContract.sol\":387:489  LogConstructorInitiated(\"Constructor was initiated. Call 'updatePrice()' to send the Provable Query.\") */\n  0x11a3fca63f87bd67d7f9f72b744acc8be2193705e7a734ac3a773d35d259e87b\n  mload(0x40)\n  dup1\n  dup1\n  0x20\n  add\n  dup3\n  dup2\n  sub\n  dup3\n  mstore\n  0x4b\n  dup2\n  mstore\n  0x20\n  add\n  dup1\n  0x436f6e7374727563746f722077617320696e697469617465642e2043616c6c20\n  dup2\n  mstore\n  0x20\n  add\n  0x27757064617465507269636528292720746f2073656e64207468652050726f76\n  dup2\n  mstore\n  0x20\n  add\n  0x61626c652051756572792e000000000000000000000000000000000000000000\n  dup2\n  mstore\n  pop\n  0x60\n  add\n  swap2\n  pop\n  pop\n  mload(0x40)\n  dup1\n  swap2\n  sub\n  swap1\n  log1\n    /* \"PatternOracles/ExampleContract.sol\":128:1433  contract ExampleContract is usingProvable {... */\n  dataSize(sub_0)\n  dup1\n  dataOffset(sub_0)\n  0x0\n  codecopy\n  0x0\n  return\nstop\n\nsub_0: assembly {\n        /* \"PatternOracles/ExampleContract.sol\":128:1433  contract ExampleContract is usingProvable {... */\n      mstore(0x40, 0x80)\n      jumpi(tag_1, lt(calldatasize, 0x4))\n      calldataload(0x0)\n      0x100000000000000000000000000000000000000000000000000000000\n      swap1\n      div\n      0xffffffff\n      and\n      dup1\n      0x27dc297e\n      eq\n      tag_2\n      jumpi\n      dup1\n      0x38bbfa50\n      eq\n      tag_3\n      jumpi\n      dup1\n      0x673a7e28\n      eq\n      tag_4\n      jumpi\n      dup1\n      0x73db0844\n      eq\n      tag_5\n      jumpi\n    tag_1:\n      0x0\n      dup1\n      revert\n        /* \"PatternOracles/ExampleContract.sol\":667:891  function __callback(bytes32 myid, string result) {... */\n    tag_2:\n      callvalue\n        /* \"--CODEGEN--\":8:17   */\n      dup1\n        /* \"--CODEGEN--\":5:7   */\n      iszero\n      tag_6\n      jumpi\n        /* \"--CODEGEN--\":30:31   */\n      0x0\n        /* \"--CODEGEN--\":27:28   */\n      dup1\n        /* \"--CODEGEN--\":20:32   */\n      revert\n        /* \"--CODEGEN--\":5:7   */\n    tag_6:\n        /* \"PatternOracles/ExampleContract.sol\":667:891  function __callback(bytes32 myid, string result) {... */\n      pop\n      tag_7\n      0x4\n      dup1\n      calldatasize\n      sub\n      dup2\n      add\n      swap1\n      dup1\n      dup1\n      calldataload\n      not(0x0)\n      and\n      swap1\n      0x20\n      add\n      swap1\n      swap3\n      swap2\n      swap1\n      dup1\n      calldataload\n      swap1\n      0x20\n      add\n      swap1\n      dup3\n      add\n      dup1\n      calldataload\n      swap1\n      0x20\n      add\n      swap1\n      dup1\n      dup1\n      0x1f\n      add\n      0x20\n      dup1\n      swap2\n      div\n      mul\n      0x20\n      add\n      mload(0x40)\n      swap1\n      dup2\n      add\n      0x40\n      mstore\n      dup1\n      swap4\n      swap3\n      swap2\n      swap1\n      dup2\n      dup2\n      mstore\n      0x20\n      add\n      dup4\n      dup4\n      dup1\n      dup3\n      dup5\n      calldatacopy\n      dup3\n      add\n      swap2\n      pop\n      pop\n      pop\n      pop\n      pop\n      pop\n      swap2\n      swap3\n      swap2\n      swap3\n      swap1\n      pop\n      pop\n      pop\n      jump(tag_8)\n    tag_7:\n      stop\n        /* \"github.com/provable-things/ethereum-api/blob/master/contracts/solc-v0.4.25/provableAPI.sol\":14639:14811  function __callback(bytes32 myid, string result, bytes proof) public {... */\n    tag_3:\n      callvalue\n        /* \"--CODEGEN--\":8:17   */\n      dup1\n        /* \"--CODEGEN--\":5:7   */\n      iszero\n      tag_9\n      jumpi\n        /* \"--CODEGEN--\":30:31   */\n      0x0\n        /* \"--CODEGEN--\":27:28   */\n      dup1\n        /* \"--CODEGEN--\":20:32   */\n      revert\n        /* \"--CODEGEN--\":5:7   */\n    tag_9:\n        /* \"github.com/provable-things/ethereum-api/blob/master/contracts/solc-v0.4.25/provableAPI.sol\":14639:14811  function __callback(bytes32 myid, string result, bytes proof) public {... */\n      pop\n      tag_10\n      0x4\n      dup1\n      calldatasize\n      sub\n      dup2\n      add\n      swap1\n      dup1\n      dup1\n      calldataload\n      not(0x0)\n      and\n      swap1\n      0x20\n      add\n      swap1\n      swap3\n      swap2\n      swap1\n      dup1\n      calldataload\n      swap1\n      0x20\n      add\n      swap1\n      dup3\n      add\n      dup1\n      calldataload\n      swap1\n      0x20\n      add\n      swap1\n      dup1\n      dup1\n      0x1f\n      add\n      0x20\n      dup1\n      swap2\n      div\n      mul\n      0x20\n      add\n      mload(0x40)\n      swap1\n      dup2\n      add\n      0x40\n      mstore\n      dup1\n      swap4\n      swap3\n      swap2\n      swap1\n      dup2\n      dup2\n      mstore\n      0x20\n      add\n      dup4\n      dup4\n      dup1\n      dup3\n      dup5\n      calldatacopy\n      dup3\n      add\n      swap2\n      pop\n      pop\n      pop\n      pop\n      pop\n      pop\n      swap2\n      swap3\n      swap2\n      swap3\n      swap1\n      dup1\n      calldataload\n      swap1\n      0x20\n      add\n      swap1\n      dup3\n      add\n      dup1\n      calldataload\n      swap1\n      0x20\n      add\n      swap1\n      dup1\n      dup1\n      0x1f\n      add\n      0x20\n      dup1\n      swap2\n      div\n      mul\n      0x20\n      add\n      mload(0x40)\n      swap1\n      dup2\n      add\n      0x40\n      mstore\n      dup1\n      swap4\n      swap3\n      swap2\n      swap1\n      dup2\n      dup2\n      mstore\n      0x20\n      add\n      dup4\n      dup4\n      dup1\n      dup3\n      dup5\n      calldatacopy\n      dup3\n      add\n      swap2\n      pop\n      pop\n      pop\n      pop\n      pop\n      pop\n      swap2\n      swap3\n      swap2\n      swap3\n      swap1\n      pop\n      pop\n      pop\n      jump(tag_11)\n    tag_10:\n      stop\n        /* \"PatternOracles/ExampleContract.sol\":897:1431  function updatePrice() payable {... */\n    tag_4:\n      tag_12\n      jump(tag_13)\n    tag_12:\n      stop\n        /* \"PatternOracles/ExampleContract.sol\":176:196  string public ETHUSD */\n    tag_5:\n      callvalue\n        /* \"--CODEGEN--\":8:17   */\n      dup1\n        /* \"--CODEGEN--\":5:7   */\n      iszero\n      tag_14\n      jumpi\n        /* \"--CODEGEN--\":30:31   */\n      0x0\n        /* \"--CODEGEN--\":27:28   */\n      dup1\n        /* \"--CODEGEN--\":20:32   */\n      revert\n        /* \"--CODEGEN--\":5:7   */\n    tag_14:\n        /* \"PatternOracles/ExampleContract.sol\":176:196  string public ETHUSD */\n      pop\n      tag_15\n      jump(tag_16)\n    tag_15:\n      mload(0x40)\n      dup1\n      dup1\n      0x20\n      add\n      dup3\n      dup2\n      sub\n      dup3\n      mstore\n      dup4\n      dup2\n      dup2\n      mload\n      dup2\n      mstore\n      0x20\n      add\n      swap2\n      pop\n      dup1\n      mload\n      swap1\n      0x20\n      add\n      swap1\n      dup1\n      dup4\n      dup4\n        /* \"--CODEGEN--\":23:24   */\n      0x0\n        /* \"--CODEGEN--\":8:108   */\n    tag_17:\n        /* \"--CODEGEN--\":33:36   */\n      dup4\n        /* \"--CODEGEN--\":30:31   */\n      dup2\n        /* \"--CODEGEN--\":27:37   */\n      lt\n        /* \"--CODEGEN--\":8:108   */\n      iszero\n      tag_18\n      jumpi\n        /* \"--CODEGEN--\":99:100   */\n      dup1\n        /* \"--CODEGEN--\":94:97   */\n      dup3\n        /* \"--CODEGEN--\":90:101   */\n      add\n        /* \"--CODEGEN--\":84:102   */\n      mload\n        /* \"--CODEGEN--\":80:81   */\n      dup2\n        /* \"--CODEGEN--\":75:78   */\n      dup5\n        /* \"--CODEGEN--\":71:82   */\n      add\n        /* \"--CODEGEN--\":64:103   */\n      mstore\n        /* \"--CODEGEN--\":52:54   */\n      0x20\n        /* \"--CODEGEN--\":49:50   */\n      dup2\n        /* \"--CODEGEN--\":45:55   */\n      add\n        /* \"--CODEGEN--\":40:55   */\n      swap1\n      pop\n        /* \"--CODEGEN--\":8:108   */\n      jump(tag_17)\n    tag_18:\n        /* \"--CODEGEN--\":12:26   */\n      pop\n        /* \"PatternOracles/ExampleContract.sol\":176:196  string public ETHUSD */\n      pop\n      pop\n      pop\n      swap1\n      pop\n      swap1\n      dup2\n      add\n      swap1\n      0x1f\n      and\n      dup1\n      iszero\n      tag_20\n      jumpi\n      dup1\n      dup3\n      sub\n      dup1\n      mload\n      0x1\n      dup4\n      0x20\n      sub\n      0x100\n      exp\n      sub\n      not\n      and\n      dup2\n      mstore\n      0x20\n      add\n      swap2\n      pop\n    tag_20:\n      pop\n      swap3\n      pop\n      pop\n      pop\n      mload(0x40)\n      dup1\n      swap2\n      sub\n      swap1\n      return\n        /* \"PatternOracles/ExampleContract.sol\":667:891  function __callback(bytes32 myid, string result) {... */\n    tag_8:\n        /* \"PatternOracles/ExampleContract.sol\":847:853  result */\n      dup1\n        /* \"PatternOracles/ExampleContract.sol\":838:844  ETHUSD */\n      0x5\n        /* \"PatternOracles/ExampleContract.sol\":838:853  ETHUSD = result */\n      swap1\n      dup1\n      mload\n      swap1\n      0x20\n      add\n      swap1\n      tag_22\n      swap3\n      swap2\n      swap1\n      jump\t// in(tag_23)\n    tag_22:\n      pop\n        /* \"PatternOracles/ExampleContract.sol\":862:885  LogPriceUpdated(result) */\n      0x71f1a5645e51a2da828ffcf79cc17da88eb25e1bca8b9dced23210847a4769c1\n        /* \"PatternOracles/ExampleContract.sol\":878:884  result */\n      dup2\n        /* \"PatternOracles/ExampleContract.sol\":862:885  LogPriceUpdated(result) */\n      mload(0x40)\n      dup1\n      dup1\n      0x20\n      add\n      dup3\n      dup2\n      sub\n      dup3\n      mstore\n      dup4\n      dup2\n      dup2\n      mload\n      dup2\n      mstore\n      0x20\n      add\n      swap2\n      pop\n      dup1\n      mload\n      swap1\n      0x20\n      add\n      swap1\n      dup1\n      dup4\n      dup4\n        /* \"--CODEGEN--\":23:24   */\n      0x0\n        /* \"--CODEGEN--\":8:108   */\n    tag_24:\n        /* \"--CODEGEN--\":33:36   */\n      dup4\n        /* \"--CODEGEN--\":30:31   */\n      dup2\n        /* \"--CODEGEN--\":27:37   */\n      lt\n        /* \"--CODEGEN--\":8:108   */\n      iszero\n      tag_25\n      jumpi\n        /* \"--CODEGEN--\":99:100   */\n      dup1\n        /* \"--CODEGEN--\":94:97   */\n      dup3\n        /* \"--CODEGEN--\":90:101   */\n      add\n        /* \"--CODEGEN--\":84:102   */\n      mload\n        /* \"--CODEGEN--\":80:81   */\n      dup2\n        /* \"--CODEGEN--\":75:78   */\n      dup5\n        /* \"--CODEGEN--\":71:82   */\n      add\n        /* \"--CODEGEN--\":64:103   */\n      mstore\n        /* \"--CODEGEN--\":52:54   */\n      0x20\n        /* \"--CODEGEN--\":49:50   */\n      dup2\n        /* \"--CODEGEN--\":45:55   */\n      add\n        /* \"--CODEGEN--\":40:55   */\n      swap1\n      pop\n        /* \"--CODEGEN--\":8:108   */\n      jump(tag_24)\n    tag_25:\n        /* \"--CODEGEN--\":12:26   */\n      pop\n        /* \"PatternOracles/ExampleContract.sol\":862:885  LogPriceUpdated(result) */\n      pop\n      pop\n      pop\n      swap1\n      pop\n      swap1\n      dup2\n      add\n      swap1\n      0x1f\n      and\n      dup1\n      iszero\n      tag_27\n      jumpi\n      dup1\n      dup3\n      sub\n      dup1\n      mload\n      0x1\n      dup4\n      0x20\n      sub\n      0x100\n      exp\n      sub\n      not\n      and\n      dup2\n      mstore\n      0x20\n      add\n      swap2\n      pop\n    tag_27:\n      pop\n      swap3\n      pop\n      pop\n      pop\n      mload(0x40)\n      dup1\n      swap2\n      sub\n      swap1\n      log1\n        /* \"PatternOracles/ExampleContract.sol\":667:891  function __callback(bytes32 myid, string result) {... */\n      pop\n      pop\n      jump\t// out\n        /* \"github.com/provable-things/ethereum-api/blob/master/contracts/solc-v0.4.25/provableAPI.sol\":14639:14811  function __callback(bytes32 myid, string result, bytes proof) public {... */\n    tag_11:\n      pop\n      pop\n      pop\n      jump\t// out\n        /* \"PatternOracles/ExampleContract.sol\":897:1431  function updatePrice() payable {... */\n    tag_13:\n        /* \"PatternOracles/ExampleContract.sol\":937:1026  provable_query(\"URL\", \"json(https://api.pro.coinbase.com/products/ETH-USD/ticker).price\") */\n      tag_30\n      0x40\n      dup1\n      mload\n      swap1\n      dup2\n      add\n      0x40\n      mstore\n      dup1\n      0x3\n      dup2\n      mstore\n      0x20\n      add\n      0x55524c0000000000000000000000000000000000000000000000000000000000\n      dup2\n      mstore\n      pop\n      0x60\n      mload(0x40)\n      swap1\n      dup2\n      add\n      0x40\n      mstore\n      dup1\n      0x40\n      dup2\n      mstore\n      0x20\n      add\n      0x6a736f6e2868747470733a2f2f6170692e70726f2e636f696e626173652e636f\n      dup2\n      mstore\n      0x20\n      add\n      0x6d2f70726f64756374732f4554482d5553442f7469636b6572292e7072696365\n      dup2\n      mstore\n      pop\n        /* \"PatternOracles/ExampleContract.sol\":937:951  provable_query */\n      tag_31\n        /* \"PatternOracles/ExampleContract.sol\":937:1026  provable_query(\"URL\", \"json(https://api.pro.coinbase.com/products/ETH-USD/ticker).price\") */\n      jump\t// in\n    tag_30:\n      pop\n        /* \"PatternOracles/ExampleContract.sol\":897:1431  function updatePrice() payable {... */\n      jump\t// out\n        /* \"PatternOracles/ExampleContract.sol\":176:196  string public ETHUSD */\n    tag_16:\n      0x5\n      dup1\n      sload\n      0x1\n      dup2\n      0x1\n      and\n      iszero\n      0x100\n      mul\n      sub\n      and\n      0x2\n      swap1\n      div\n      dup1\n      0x1f\n      add\n      0x20\n      dup1\n      swap2\n      div\n      mul\n      0x20\n      add\n      mload(0x40)\n      swap1\n      dup2\n      add\n      0x40\n      mstore\n      dup1\n      swap3\n      swap2\n      swap1\n      dup2\n      dup2\n      mstore\n      0x20\n      add\n      dup3\n      dup1\n      sload\n      0x1\n      dup2\n      0x1\n      and\n      iszero\n      0x100\n      mul\n      sub\n      and\n      0x2\n      swap1\n      div\n      dup1\n      iszero\n      tag_32\n      jumpi\n      dup1\n      0x1f\n      lt\n      tag_33\n      jumpi\n      0x100\n      dup1\n      dup4\n      sload\n      div\n      mul\n      dup4\n      mstore\n      swap2\n      0x20\n      add\n      swap2\n      jump(tag_32)\n    tag_33:\n      dup3\n      add\n      swap2\n      swap1\n      0x0\n      mstore\n      keccak256(0x0, 0x20)\n      swap1\n    tag_34:\n      dup2\n      sload\n      dup2\n      mstore\n      swap1\n      0x1\n      add\n      swap1\n      0x20\n      add\n      dup1\n      dup4\n      gt\n      tag_34\n      jumpi\n      dup3\n      swap1\n      sub\n      0x1f\n      and\n      dup3\n      add\n      swap2\n    tag_32:\n      pop\n      pop\n      pop\n      pop\n      pop\n      dup2\n      jump\t// out\n        /* \"github.com/provable-things/ethereum-api/blob/master/contracts/solc-v0.4.25/provableAPI.sol\":15122:15428  function provable_query(string datasource, string arg) provableAPI internal returns (bytes32 id){... */\n    tag_31:\n        /* \"github.com/provable-things/ethereum-api/blob/master/contracts/solc-v0.4.25/provableAPI.sol\":15207:15217  bytes32 id */\n      0x0\n        /* \"github.com/provable-things/ethereum-api/blob/master/contracts/solc-v0.4.25/provableAPI.sol\":15228:15238  uint price */\n      dup1\n        /* \"github.com/provable-things/ethereum-api/blob/master/contracts/solc-v0.4.25/provableAPI.sol\":11273:11274  0 */\n      0x0\n        /* \"github.com/provable-things/ethereum-api/blob/master/contracts/solc-v0.4.25/provableAPI.sol\":11267:11270  OAR */\n      dup1\n      0x0\n      swap1\n      sload\n      swap1\n      0x100\n      exp\n      swap1\n      div\n      0xffffffffffffffffffffffffffffffffffffffff\n      and\n        /* \"github.com/provable-things/ethereum-api/blob/master/contracts/solc-v0.4.25/provableAPI.sol\":11259:11274  address(OAR)==0 */\n      0xffffffffffffffffffffffffffffffffffffffff\n      and\n      eq\n        /* \"github.com/provable-things/ethereum-api/blob/master/contracts/solc-v0.4.25/provableAPI.sol\":11258:11307  (address(OAR)==0)||(getCodeSize(address(OAR))==0) */\n      dup1\n      tag_36\n      jumpi\n      pop\n        /* \"github.com/provable-things/ethereum-api/blob/master/contracts/solc-v0.4.25/provableAPI.sol\":11305:11306  0 */\n      0x0\n        /* \"github.com/provable-things/ethereum-api/blob/master/contracts/solc-v0.4.25/provableAPI.sol\":11278:11303  getCodeSize(address(OAR)) */\n      tag_37\n        /* \"github.com/provable-things/ethereum-api/blob/master/contracts/solc-v0.4.25/provableAPI.sol\":11298:11301  OAR */\n      0x0\n      dup1\n      swap1\n      sload\n      swap1\n      0x100\n      exp\n      swap1\n      div\n      0xffffffffffffffffffffffffffffffffffffffff\n      and\n        /* \"github.com/provable-things/ethereum-api/blob/master/contracts/solc-v0.4.25/provableAPI.sol\":11278:11289  getCodeSize */\n      tag_38\n        /* \"github.com/provable-things/ethereum-api/blob/master/contracts/solc-v0.4.25/provableAPI.sol\":11278:11303  getCodeSize(address(OAR)) */\n      jump\t// in\n    tag_37:\n        /* \"github.com/provable-things/ethereum-api/blob/master/contracts/solc-v0.4.25/provableAPI.sol\":11278:11306  getCodeSize(address(OAR))==0 */\n      eq\n        /* \"github.com/provable-things/ethereum-api/blob/master/contracts/solc-v0.4.25/provableAPI.sol\":11258:11307  (address(OAR)==0)||(getCodeSize(address(OAR))==0) */\n    tag_36:\n        /* \"github.com/provable-things/ethereum-api/blob/master/contracts/solc-v0.4.25/provableAPI.sol\":11255:11356  if((address(OAR)==0)||(getCodeSize(address(OAR))==0))... */\n      iszero\n      tag_39\n      jumpi\n        /* \"github.com/provable-things/ethereum-api/blob/master/contracts/solc-v0.4.25/provableAPI.sol\":11321:11356  provable_setNetwork(networkID_auto) */\n      tag_40\n        /* \"github.com/provable-things/ethereum-api/blob/master/contracts/solc-v0.4.25/provableAPI.sol\":10991:10992  0 */\n      0x0\n        /* \"github.com/provable-things/ethereum-api/blob/master/contracts/solc-v0.4.25/provableAPI.sol\":11321:11340  provable_setNetwork */\n      tag_41\n        /* \"github.com/provable-things/ethereum-api/blob/master/contracts/solc-v0.4.25/provableAPI.sol\":11321:11356  provable_setNetwork(networkID_auto) */\n      jump\t// in\n    tag_40:\n      pop\n        /* \"github.com/provable-things/ethereum-api/blob/master/contracts/solc-v0.4.25/provableAPI.sol\":11255:11356  if((address(OAR)==0)||(getCodeSize(address(OAR))==0))... */\n    tag_39:\n        /* \"github.com/provable-things/ethereum-api/blob/master/contracts/solc-v0.4.25/provableAPI.sol\":11391:11394  OAR */\n      0x0\n      dup1\n      swap1\n      sload\n      swap1\n      0x100\n      exp\n      swap1\n      div\n      0xffffffffffffffffffffffffffffffffffffffff\n      and\n        /* \"github.com/provable-things/ethereum-api/blob/master/contracts/solc-v0.4.25/provableAPI.sol\":11391:11405  OAR.getAddress */\n      0xffffffffffffffffffffffffffffffffffffffff\n      and\n      0x38cc4831\n        /* \"github.com/provable-things/ethereum-api/blob/master/contracts/solc-v0.4.25/provableAPI.sol\":11391:11407  OAR.getAddress() */\n      mload(0x40)\n      dup2\n      0xffffffff\n      and\n      0x100000000000000000000000000000000000000000000000000000000\n      mul\n      dup2\n      mstore\n      0x4\n      add\n      0x20\n      mload(0x40)\n      dup1\n      dup4\n      sub\n      dup2\n      0x0\n      dup8\n      dup1\n      extcodesize\n      iszero\n        /* \"--CODEGEN--\":8:17   */\n      dup1\n        /* \"--CODEGEN--\":5:7   */\n      iszero\n      tag_42\n      jumpi\n        /* \"--CODEGEN--\":30:31   */\n      0x0\n        /* \"--CODEGEN--\":27:28   */\n      dup1\n        /* \"--CODEGEN--\":20:32   */\n      revert\n        /* \"--CODEGEN--\":5:7   */\n    tag_42:\n        /* \"github.com/provable-things/ethereum-api/blob/master/contracts/solc-v0.4.25/provableAPI.sol\":11391:11407  OAR.getAddress() */\n      pop\n      gas\n      call\n      iszero\n        /* \"--CODEGEN--\":8:17   */\n      dup1\n        /* \"--CODEGEN--\":5:7   */\n      iszero\n      tag_43\n      jumpi\n        /* \"--CODEGEN--\":45:61   */\n      returndatasize\n        /* \"--CODEGEN--\":42:43   */\n      0x0\n        /* \"--CODEGEN--\":39:40   */\n      dup1\n        /* \"--CODEGEN--\":24:62   */\n      returndatacopy\n        /* \"--CODEGEN--\":77:93   */\n      returndatasize\n        /* \"--CODEGEN--\":74:75   */\n      0x0\n        /* \"--CODEGEN--\":67:94   */\n      revert\n        /* \"--CODEGEN--\":5:7   */\n    tag_43:\n        /* \"github.com/provable-things/ethereum-api/blob/master/contracts/solc-v0.4.25/provableAPI.sol\":11391:11407  OAR.getAddress() */\n      pop\n      pop\n      pop\n      pop\n      mload(0x40)\n      returndatasize\n        /* \"--CODEGEN--\":13:15   */\n      0x20\n        /* \"--CODEGEN--\":8:11   */\n      dup2\n        /* \"--CODEGEN--\":5:16   */\n      lt\n        /* \"--CODEGEN--\":2:4   */\n      iszero\n      tag_44\n      jumpi\n        /* \"--CODEGEN--\":29:30   */\n      0x0\n        /* \"--CODEGEN--\":26:27   */\n      dup1\n        /* \"--CODEGEN--\":19:31   */\n      revert\n        /* \"--CODEGEN--\":2:4   */\n    tag_44:\n        /* \"github.com/provable-things/ethereum-api/blob/master/contracts/solc-v0.4.25/provableAPI.sol\":11391:11407  OAR.getAddress() */\n      dup2\n      add\n      swap1\n      dup1\n      dup1\n      mload\n      swap1\n      0x20\n      add\n      swap1\n      swap3\n      swap2\n      swap1\n      pop\n      pop\n      pop\n        /* \"github.com/provable-things/ethereum-api/blob/master/contracts/solc-v0.4.25/provableAPI.sol\":11370:11407  address(provable) != OAR.getAddress() */\n      0xffffffffffffffffffffffffffffffffffffffff\n      and\n        /* \"github.com/provable-things/ethereum-api/blob/master/contracts/solc-v0.4.25/provableAPI.sol\":11378:11386  provable */\n      0x1\n      0x0\n      swap1\n      sload\n      swap1\n      0x100\n      exp\n      swap1\n      div\n      0xffffffffffffffffffffffffffffffffffffffff\n      and\n        /* \"github.com/provable-things/ethereum-api/blob/master/contracts/solc-v0.4.25/provableAPI.sol\":11370:11407  address(provable) != OAR.getAddress() */\n      0xffffffffffffffffffffffffffffffffffffffff\n      and\n      eq\n      iszero\n        /* \"github.com/provable-things/ethereum-api/blob/master/contracts/solc-v0.4.25/provableAPI.sol\":11367:11459  if(address(provable) != OAR.getAddress())... */\n      iszero\n      tag_45\n      jumpi\n        /* \"github.com/provable-things/ethereum-api/blob/master/contracts/solc-v0.4.25/provableAPI.sol\":11442:11445  OAR */\n      0x0\n      dup1\n      swap1\n      sload\n      swap1\n      0x100\n      exp\n      swap1\n      div\n      0xffffffffffffffffffffffffffffffffffffffff\n      and\n        /* \"github.com/provable-things/ethereum-api/blob/master/contracts/solc-v0.4.25/provableAPI.sol\":11442:11456  OAR.getAddress */\n      0xffffffffffffffffffffffffffffffffffffffff\n      and\n      0x38cc4831\n        /* \"github.com/provable-things/ethereum-api/blob/master/contracts/solc-v0.4.25/provableAPI.sol\":11442:11458  OAR.getAddress() */\n      mload(0x40)\n      dup2\n      0xffffffff\n      and\n      0x100000000000000000000000000000000000000000000000000000000\n      mul\n      dup2\n      mstore\n      0x4\n      add\n      0x20\n      mload(0x40)\n      dup1\n      dup4\n      sub\n      dup2\n      0x0\n      dup8\n      dup1\n      extcodesize\n      iszero\n        /* \"--CODEGEN--\":8:17   */\n      dup1\n        /* \"--CODEGEN--\":5:7   */\n      iszero\n      tag_46\n      jumpi\n        /* \"--CODEGEN--\":30:31   */\n      0x0\n        /* \"--CODEGEN--\":27:28   */\n      dup1\n        /* \"--CODEGEN--\":20:32   */\n      revert\n        /* \"--CODEGEN--\":5:7   */\n    tag_46:\n        /* \"github.com/provable-things/ethereum-api/blob/master/contracts/solc-v0.4.25/provableAPI.sol\":11442:11458  OAR.getAddress() */\n      pop\n      gas\n      call\n      iszero\n        /* \"--CODEGEN--\":8:17   */\n      dup1\n        /* \"--CODEGEN--\":5:7   */\n      iszero\n      tag_47\n      jumpi\n        /* \"--CODEGEN--\":45:61   */\n      returndatasize\n        /* \"--CODEGEN--\":42:43   */\n      0x0\n        /* \"--CODEGEN--\":39:40   */\n      dup1\n        /* \"--CODEGEN--\":24:62   */\n      returndatacopy\n        /* \"--CODEGEN--\":77:93   */\n      returndatasize\n        /* \"--CODEGEN--\":74:75   */\n      0x0\n        /* \"--CODEGEN--\":67:94   */\n      revert\n        /* \"--CODEGEN--\":5:7   */\n    tag_47:\n        /* \"github.com/provable-things/ethereum-api/blob/master/contracts/solc-v0.4.25/provableAPI.sol\":11442:11458  OAR.getAddress() */\n      pop\n      pop\n      pop\n      pop\n      mload(0x40)\n      returndatasize\n        /* \"--CODEGEN--\":13:15   */\n      0x20\n        /* \"--CODEGEN--\":8:11   */\n      dup2\n        /* \"--CODEGEN--\":5:16   */\n      lt\n        /* \"--CODEGEN--\":2:4   */\n      iszero\n      tag_48\n      jumpi\n        /* \"--CODEGEN--\":29:30   */\n      0x0\n        /* \"--CODEGEN--\":26:27   */\n      dup1\n        /* \"--CODEGEN--\":19:31   */\n      revert\n        /* \"--CODEGEN--\":2:4   */\n    tag_48:\n        /* \"github.com/provable-things/ethereum-api/blob/master/contracts/solc-v0.4.25/provableAPI.sol\":11442:11458  OAR.getAddress() */\n      dup2\n      add\n      swap1\n      dup1\n      dup1\n      mload\n      swap1\n      0x20\n      add\n      swap1\n      swap3\n      swap2\n      swap1\n      pop\n      pop\n      pop\n        /* \"github.com/provable-things/ethereum-api/blob/master/contracts/solc-v0.4.25/provableAPI.sol\":11421:11429  provable */\n      0x1\n      0x0\n        /* \"github.com/provable-things/ethereum-api/blob/master/contracts/solc-v0.4.25/provableAPI.sol\":11421:11459  provable = ProvableI(OAR.getAddress()) */\n      0x100\n      exp\n      dup2\n      sload\n      dup2\n      0xffffffffffffffffffffffffffffffffffffffff\n      mul\n      not\n      and\n      swap1\n      dup4\n      0xffffffffffffffffffffffffffffffffffffffff\n      and\n      mul\n      or\n      swap1\n      sstore\n      pop\n        /* \"github.com/provable-things/ethereum-api/blob/master/contracts/solc-v0.4.25/provableAPI.sol\":11367:11459  if(address(provable) != OAR.getAddress())... */\n    tag_45:\n        /* \"github.com/provable-things/ethereum-api/blob/master/contracts/solc-v0.4.25/provableAPI.sol\":15241:15249  provable */\n      0x1\n      0x0\n      swap1\n      sload\n      swap1\n      0x100\n      exp\n      swap1\n      div\n      0xffffffffffffffffffffffffffffffffffffffff\n      and\n        /* \"github.com/provable-things/ethereum-api/blob/master/contracts/solc-v0.4.25/provableAPI.sol\":15241:15258  provable.getPrice */\n      0xffffffffffffffffffffffffffffffffffffffff\n      and\n      0x524f3889\n        /* \"github.com/provable-things/ethereum-api/blob/master/contracts/solc-v0.4.25/provableAPI.sol\":15259:15269  datasource */\n      dup6\n        /* \"github.com/provable-things/ethereum-api/blob/master/contracts/solc-v0.4.25/provableAPI.sol\":15241:15270  provable.getPrice(datasource) */\n      mload(0x40)\n      dup3\n      0xffffffff\n      and\n      0x100000000000000000000000000000000000000000000000000000000\n      mul\n      dup2\n      mstore\n      0x4\n      add\n      dup1\n      dup1\n      0x20\n      add\n      dup3\n      dup2\n      sub\n      dup3\n      mstore\n      dup4\n      dup2\n      dup2\n      mload\n      dup2\n      mstore\n      0x20\n      add\n      swap2\n      pop\n      dup1\n      mload\n      swap1\n      0x20\n      add\n      swap1\n      dup1\n      dup4\n      dup4\n        /* \"--CODEGEN--\":23:24   */\n      0x0\n        /* \"--CODEGEN--\":8:108   */\n    tag_50:\n        /* \"--CODEGEN--\":33:36   */\n      dup4\n        /* \"--CODEGEN--\":30:31   */\n      dup2\n        /* \"--CODEGEN--\":27:37   */\n      lt\n        /* \"--CODEGEN--\":8:108   */\n      iszero\n      tag_51\n      jumpi\n        /* \"--CODEGEN--\":99:100   */\n      dup1\n        /* \"--CODEGEN--\":94:97   */\n      dup3\n        /* \"--CODEGEN--\":90:101   */\n      add\n        /* \"--CODEGEN--\":84:102   */\n      mload\n        /* \"--CODEGEN--\":80:81   */\n      dup2\n        /* \"--CODEGEN--\":75:78   */\n      dup5\n        /* \"--CODEGEN--\":71:82   */\n      add\n        /* \"--CODEGEN--\":64:103   */\n      mstore\n        /* \"--CODEGEN--\":52:54   */\n      0x20\n        /* \"--CODEGEN--\":49:50   */\n      dup2\n        /* \"--CODEGEN--\":45:55   */\n      add\n        /* \"--CODEGEN--\":40:55   */\n      swap1\n      pop\n        /* \"--CODEGEN--\":8:108   */\n      jump(tag_50)\n    tag_51:\n        /* \"--CODEGEN--\":12:26   */\n      pop\n        /* \"github.com/provable-things/ethereum-api/blob/master/contracts/solc-v0.4.25/provableAPI.sol\":15241:15270  provable.getPrice(datasource) */\n      pop\n      pop\n      pop\n      swap1\n      pop\n      swap1\n      dup2\n      add\n      swap1\n      0x1f\n      and\n      dup1\n      iszero\n      tag_53\n      jumpi\n      dup1\n      dup3\n      sub\n      dup1\n      mload\n      0x1\n      dup4\n      0x20\n      sub\n      0x100\n      exp\n      sub\n      not\n      and\n      dup2\n      mstore\n      0x20\n      add\n      swap2\n      pop\n    tag_53:\n      pop\n      swap3\n      pop\n      pop\n      pop\n      0x20\n      mload(0x40)\n      dup1\n      dup4\n      sub\n      dup2\n      0x0\n      dup8\n      dup1\n      extcodesize\n      iszero\n        /* \"--CODEGEN--\":8:17   */\n      dup1\n        /* \"--CODEGEN--\":5:7   */\n      iszero\n      tag_54\n      jumpi\n        /* \"--CODEGEN--\":30:31   */\n      0x0\n        /* \"--CODEGEN--\":27:28   */\n      dup1\n        /* \"--CODEGEN--\":20:32   */\n      revert\n        /* \"--CODEGEN--\":5:7   */\n    tag_54:\n        /* \"github.com/provable-things/ethereum-api/blob/master/contracts/solc-v0.4.25/provableAPI.sol\":15241:15270  provable.getPrice(datasource) */\n      pop\n      gas\n      call\n      iszero\n        /* \"--CODEGEN--\":8:17   */\n      dup1\n        /* \"--CODEGEN--\":5:7   */\n      iszero\n      tag_55\n      jumpi\n        /* \"--CODEGEN--\":45:61   */\n      returndatasize\n        /* \"--CODEGEN--\":42:43   */\n      0x0\n        /* \"--CODEGEN--\":39:40   */\n      dup1\n        /* \"--CODEGEN--\":24:62   */\n      returndatacopy\n        /* \"--CODEGEN--\":77:93   */\n      returndatasize\n        /* \"--CODEGEN--\":74:75   */\n      0x0\n        /* \"--CODEGEN--\":67:94   */\n      revert\n        /* \"--CODEGEN--\":5:7   */\n    tag_55:\n        /* \"github.com/provable-things/ethereum-api/blob/master/contracts/solc-v0.4.25/provableAPI.sol\":15241:15270  provable.getPrice(datasource) */\n      pop\n      pop\n      pop\n      pop\n      mload(0x40)\n      returndatasize\n        /* \"--CODEGEN--\":13:15   */\n      0x20\n        /* \"--CODEGEN--\":8:11   */\n      dup2\n        /* \"--CODEGEN--\":5:16   */\n      lt\n        /* \"--CODEGEN--\":2:4   */\n      iszero\n      tag_56\n      jumpi\n        /* \"--CODEGEN--\":29:30   */\n      0x0\n        /* \"--CODEGEN--\":26:27   */\n      dup1\n        /* \"--CODEGEN--\":19:31   */\n      revert\n        /* \"--CODEGEN--\":2:4   */\n    tag_56:\n        /* \"github.com/provable-things/ethereum-api/blob/master/contracts/solc-v0.4.25/provableAPI.sol\":15241:15270  provable.getPrice(datasource) */\n      dup2\n      add\n      swap1\n      dup1\n      dup1\n      mload\n      swap1\n      0x20\n      add\n      swap1\n      swap3\n      swap2\n      swap1\n      pop\n      pop\n      pop\n        /* \"github.com/provable-things/ethereum-api/blob/master/contracts/solc-v0.4.25/provableAPI.sol\":15228:15270  uint price = provable.getPrice(datasource) */\n      swap1\n      pop\n        /* \"github.com/provable-things/ethereum-api/blob/master/contracts/solc-v0.4.25/provableAPI.sol\":15314:15320  200000 */\n      0x30d40\n        /* \"github.com/provable-things/ethereum-api/blob/master/contracts/solc-v0.4.25/provableAPI.sol\":15302:15313  tx.gasprice */\n      gasprice\n        /* \"github.com/provable-things/ethereum-api/blob/master/contracts/solc-v0.4.25/provableAPI.sol\":15302:15320  tx.gasprice*200000 */\n      mul\n        /* \"github.com/provable-things/ethereum-api/blob/master/contracts/solc-v0.4.25/provableAPI.sol\":15292:15299  1 ether */\n      0xde0b6b3a7640000\n        /* \"github.com/provable-things/ethereum-api/blob/master/contracts/solc-v0.4.25/provableAPI.sol\":15292:15320  1 ether + tx.gasprice*200000 */\n      add\n        /* \"github.com/provable-things/ethereum-api/blob/master/contracts/solc-v0.4.25/provableAPI.sol\":15284:15289  price */\n      dup2\n        /* \"github.com/provable-things/ethereum-api/blob/master/contracts/solc-v0.4.25/provableAPI.sol\":15284:15320  price > 1 ether + tx.gasprice*200000 */\n      gt\n        /* \"github.com/provable-things/ethereum-api/blob/master/contracts/solc-v0.4.25/provableAPI.sol\":15280:15330  if (price > 1 ether + tx.gasprice*200000) return 0 */\n      iszero\n      tag_57\n      jumpi\n        /* \"github.com/provable-things/ethereum-api/blob/master/contracts/solc-v0.4.25/provableAPI.sol\":15329:15330  0 */\n      0x0\n        /* \"github.com/provable-things/ethereum-api/blob/master/contracts/solc-v0.4.25/provableAPI.sol\":15322:15330  return 0 */\n      0x1\n      mul\n      swap2\n      pop\n      jump(tag_49)\n        /* \"github.com/provable-things/ethereum-api/blob/master/contracts/solc-v0.4.25/provableAPI.sol\":15280:15330  if (price > 1 ether + tx.gasprice*200000) return 0 */\n    tag_57:\n        /* \"github.com/provable-things/ethereum-api/blob/master/contracts/solc-v0.4.25/provableAPI.sol\":15374:15382  provable */\n      0x1\n      0x0\n      swap1\n      sload\n      swap1\n      0x100\n      exp\n      swap1\n      div\n      0xffffffffffffffffffffffffffffffffffffffff\n      and\n        /* \"github.com/provable-things/ethereum-api/blob/master/contracts/solc-v0.4.25/provableAPI.sol\":15374:15388  provable.query */\n      0xffffffffffffffffffffffffffffffffffffffff\n      and\n      0xadf59f99\n        /* \"github.com/provable-things/ethereum-api/blob/master/contracts/solc-v0.4.25/provableAPI.sol\":15395:15400  price */\n      dup3\n        /* \"github.com/provable-things/ethereum-api/blob/master/contracts/solc-v0.4.25/provableAPI.sol\":15402:15403  0 */\n      0x0\n        /* \"github.com/provable-things/ethereum-api/blob/master/contracts/solc-v0.4.25/provableAPI.sol\":15405:15415  datasource */\n      dup8\n        /* \"github.com/provable-things/ethereum-api/blob/master/contracts/solc-v0.4.25/provableAPI.sol\":15417:15420  arg */\n      dup8\n        /* \"github.com/provable-things/ethereum-api/blob/master/contracts/solc-v0.4.25/provableAPI.sol\":15374:15421  provable.query.value(price)(0, datasource, arg) */\n      mload(0x40)\n      dup6\n      0xffffffff\n      and\n      0x100000000000000000000000000000000000000000000000000000000\n      mul\n      dup2\n      mstore\n      0x4\n      add\n      dup1\n      dup5\n      dup2\n      mstore\n      0x20\n      add\n      dup1\n      0x20\n      add\n      dup1\n      0x20\n      add\n      dup4\n      dup2\n      sub\n      dup4\n      mstore\n      dup6\n      dup2\n      dup2\n      mload\n      dup2\n      mstore\n      0x20\n      add\n      swap2\n      pop\n      dup1\n      mload\n      swap1\n      0x20\n      add\n      swap1\n      dup1\n      dup4\n      dup4\n        /* \"--CODEGEN--\":23:24   */\n      0x0\n        /* \"--CODEGEN--\":8:108   */\n    tag_58:\n        /* \"--CODEGEN--\":33:36   */\n      dup4\n        /* \"--CODEGEN--\":30:31   */\n      dup2\n        /* \"--CODEGEN--\":27:37   */\n      lt\n        /* \"--CODEGEN--\":8:108   */\n      iszero\n      tag_59\n      jumpi\n        /* \"--CODEGEN--\":99:100   */\n      dup1\n        /* \"--CODEGEN--\":94:97   */\n      dup3\n        /* \"--CODEGEN--\":90:101   */\n      add\n        /* \"--CODEGEN--\":84:102   */\n      mload\n        /* \"--CODEGEN--\":80:81   */\n      dup2\n        /* \"--CODEGEN--\":75:78   */\n      dup5\n        /* \"--CODEGEN--\":71:82   */\n      add\n        /* \"--CODEGEN--\":64:103   */\n      mstore\n        /* \"--CODEGEN--\":52:54   */\n      0x20\n        /* \"--CODEGEN--\":49:50   */\n      dup2\n        /* \"--CODEGEN--\":45:55   */\n      add\n        /* \"--CODEGEN--\":40:55   */\n      swap1\n      pop\n        /* \"--CODEGEN--\":8:108   */\n      jump(tag_58)\n    tag_59:\n        /* \"--CODEGEN--\":12:26   */\n      pop\n        /* \"github.com/provable-things/ethereum-api/blob/master/contracts/solc-v0.4.25/provableAPI.sol\":15374:15421  provable.query.value(price)(0, datasource, arg) */\n      pop\n      pop\n      pop\n      swap1\n      pop\n      swap1\n      dup2\n      add\n      swap1\n      0x1f\n      and\n      dup1\n      iszero\n      tag_61\n      jumpi\n      dup1\n      dup3\n      sub\n      dup1\n      mload\n      0x1\n      dup4\n      0x20\n      sub\n      0x100\n      exp\n      sub\n      not\n      and\n      dup2\n      mstore\n      0x20\n      add\n      swap2\n      pop\n    tag_61:\n      pop\n      dup4\n      dup2\n      sub\n      dup3\n      mstore\n      dup5\n      dup2\n      dup2\n      mload\n      dup2\n      mstore\n      0x20\n      add\n      swap2\n      pop\n      dup1\n      mload\n      swap1\n      0x20\n      add\n      swap1\n      dup1\n      dup4\n      dup4\n        /* \"--CODEGEN--\":23:24   */\n      0x0\n        /* \"--CODEGEN--\":8:108   */\n    tag_62:\n        /* \"--CODEGEN--\":33:36   */\n      dup4\n        /* \"--CODEGEN--\":30:31   */\n      dup2\n        /* \"--CODEGEN--\":27:37   */\n      lt\n        /* \"--CODEGEN--\":8:108   */\n      iszero\n      tag_63\n      jumpi\n        /* \"--CODEGEN--\":99:100   */\n      dup1\n        /* \"--CODEGEN--\":94:97   */\n      dup3\n        /* \"--CODEGEN--\":90:101   */\n      add\n        /* \"--CODEGEN--\":84:102   */\n      mload\n        /* \"--CODEGEN--\":80:81   */\n      dup2\n        /* \"--CODEGEN--\":75:78   */\n      dup5\n        /* \"--CODEGEN--\":71:82   */\n      add\n        /* \"--CODEGEN--\":64:103   */\n      mstore\n        /* \"--CODEGEN--\":52:54   */\n      0x20\n        /* \"--CODEGEN--\":49:50   */\n      dup2\n        /* \"--CODEGEN--\":45:55   */\n      add\n        /* \"--CODEGEN--\":40:55   */\n      swap1\n      pop\n        /* \"--CODEGEN--\":8:108   */\n      jump(tag_62)\n    tag_63:\n        /* \"--CODEGEN--\":12:26   */\n      pop\n        /* \"github.com/provable-things/ethereum-api/blob/master/contracts/solc-v0.4.25/provableAPI.sol\":15374:15421  provable.query.value(price)(0, datasource, arg) */\n      pop\n      pop\n      pop\n      swap1\n      pop\n      swap1\n      dup2\n      add\n      swap1\n      0x1f\n      and\n      dup1\n      iszero\n      tag_65\n      jumpi\n      dup1\n      dup3\n      sub\n      dup1\n      mload\n      0x1\n      dup4\n      0x20\n      sub\n      0x100\n      exp\n      sub\n      not\n      and\n      dup2\n      mstore\n      0x20\n      add\n      swap2\n      pop\n    tag_65:\n      pop\n      swap6\n      pop\n      pop\n      pop\n      pop\n      pop\n      pop\n      0x20\n      mload(0x40)\n      dup1\n      dup4\n      sub\n      dup2\n      dup6\n      dup9\n      dup1\n      extcodesize\n      iszero\n        /* \"--CODEGEN--\":8:17   */\n      dup1\n        /* \"--CODEGEN--\":5:7   */\n      iszero\n      tag_66\n      jumpi\n        /* \"--CODEGEN--\":30:31   */\n      0x0\n        /* \"--CODEGEN--\":27:28   */\n      dup1\n        /* \"--CODEGEN--\":20:32   */\n      revert\n        /* \"--CODEGEN--\":5:7   */\n    tag_66:\n        /* \"github.com/provable-things/ethereum-api/blob/master/contracts/solc-v0.4.25/provableAPI.sol\":15374:15421  provable.query.value(price)(0, datasource, arg) */\n      pop\n      gas\n      call\n      iszero\n        /* \"--CODEGEN--\":8:17   */\n      dup1\n        /* \"--CODEGEN--\":5:7   */\n      iszero\n      tag_67\n      jumpi\n        /* \"--CODEGEN--\":45:61   */\n      returndatasize\n        /* \"--CODEGEN--\":42:43   */\n      0x0\n        /* \"--CODEGEN--\":39:40   */\n      dup1\n        /* \"--CODEGEN--\":24:62   */\n      returndatacopy\n        /* \"--CODEGEN--\":77:93   */\n      returndatasize\n        /* \"--CODEGEN--\":74:75   */\n      0x0\n        /* \"--CODEGEN--\":67:94   */\n      revert\n        /* \"--CODEGEN--\":5:7   */\n    tag_67:\n        /* \"github.com/provable-things/ethereum-api/blob/master/contracts/solc-v0.4.25/provableAPI.sol\":15374:15421  provable.query.value(price)(0, datasource, arg) */\n      pop\n      pop\n      pop\n      pop\n      pop\n      mload(0x40)\n      returndatasize\n        /* \"--CODEGEN--\":13:15   */\n      0x20\n        /* \"--CODEGEN--\":8:11   */\n      dup2\n        /* \"--CODEGEN--\":5:16   */\n      lt\n        /* \"--CODEGEN--\":2:4   */\n      iszero\n      tag_68\n      jumpi\n        /* \"--CODEGEN--\":29:30   */\n      0x0\n        /* \"--CODEGEN--\":26:27   */\n      dup1\n        /* \"--CODEGEN--\":19:31   */\n      revert\n        /* \"--CODEGEN--\":2:4   */\n    tag_68:\n        /* \"github.com/provable-things/ethereum-api/blob/master/contracts/solc-v0.4.25/provableAPI.sol\":15374:15421  provable.query.value(price)(0, datasource, arg) */\n      dup2\n      add\n      swap1\n      dup1\n      dup1\n      mload\n      swap1\n      0x20\n      add\n      swap1\n      swap3\n      swap2\n      swap1\n      pop\n      pop\n      pop\n        /* \"github.com/provable-things/ethereum-api/blob/master/contracts/solc-v0.4.25/provableAPI.sol\":15367:15421  return provable.query.value(price)(0, datasource, arg) */\n      swap2\n      pop\n        /* \"github.com/provable-things/ethereum-api/blob/master/contracts/solc-v0.4.25/provableAPI.sol\":11470:11471  _ */\n    tag_49:\n        /* \"github.com/provable-things/ethereum-api/blob/master/contracts/solc-v0.4.25/provableAPI.sol\":15122:15428  function provable_query(string datasource, string arg) provableAPI internal returns (bytes32 id){... */\n      pop\n      swap3\n      swap2\n      pop\n      pop\n      jump\t// out\n        /* \"github.com/provable-things/ethereum-api/blob/master/contracts/solc-v0.4.25/provableAPI.sol\":34923:35069  function getCodeSize(address _addr) view internal returns(uint _size) {... */\n    tag_38:\n        /* \"github.com/provable-things/ethereum-api/blob/master/contracts/solc-v0.4.25/provableAPI.sol\":34981:34991  uint _size */\n      0x0\n        /* \"github.com/provable-things/ethereum-api/blob/master/contracts/solc-v0.4.25/provableAPI.sol\":35047:35052  _addr */\n      dup2\n        /* \"github.com/provable-things/ethereum-api/blob/master/contracts/solc-v0.4.25/provableAPI.sol\":35035:35053  extcodesize(_addr) */\n      extcodesize\n        /* \"github.com/provable-things/ethereum-api/blob/master/contracts/solc-v0.4.25/provableAPI.sol\":35026:35053  _size := extcodesize(_addr) */\n      swap1\n      pop\n        /* \"github.com/provable-things/ethereum-api/blob/master/contracts/solc-v0.4.25/provableAPI.sol\":35012:35063  {... */\n      swap2\n      swap1\n      pop\n      jump\t// out\n        /* \"github.com/provable-things/ethereum-api/blob/master/contracts/solc-v0.4.25/provableAPI.sol\":11583:11766  function provable_setNetwork(uint8 networkID) internal returns(bool){... */\n    tag_41:\n        /* \"github.com/provable-things/ethereum-api/blob/master/contracts/solc-v0.4.25/provableAPI.sol\":11646:11650  bool */\n      0x0\n        /* \"github.com/provable-things/ethereum-api/blob/master/contracts/solc-v0.4.25/provableAPI.sol\":11666:11687  provable_setNetwork() */\n      tag_71\n        /* \"github.com/provable-things/ethereum-api/blob/master/contracts/solc-v0.4.25/provableAPI.sol\":11666:11685  provable_setNetwork */\n      tag_72\n        /* \"github.com/provable-things/ethereum-api/blob/master/contracts/solc-v0.4.25/provableAPI.sol\":11666:11687  provable_setNetwork() */\n      jump\t// in\n    tag_71:\n        /* \"github.com/provable-things/ethereum-api/blob/master/contracts/solc-v0.4.25/provableAPI.sol\":11659:11687  return provable_setNetwork() */\n      swap1\n      pop\n        /* \"github.com/provable-things/ethereum-api/blob/master/contracts/solc-v0.4.25/provableAPI.sol\":11583:11766  function provable_setNetwork(uint8 networkID) internal returns(bool){... */\n      swap2\n      swap1\n      pop\n      jump\t// out\n        /* \"github.com/provable-things/ethereum-api/blob/master/contracts/solc-v0.4.25/provableAPI.sol\":11771:14284  function provable_setNetwork() internal returns(bool){... */\n    tag_72:\n        /* \"github.com/provable-things/ethereum-api/blob/master/contracts/solc-v0.4.25/provableAPI.sol\":11819:11823  bool */\n      0x0\n        /* \"github.com/provable-things/ethereum-api/blob/master/contracts/solc-v0.4.25/provableAPI.sol\":11894:11895  0 */\n      dup1\n        /* \"github.com/provable-things/ethereum-api/blob/master/contracts/solc-v0.4.25/provableAPI.sol\":11838:11893  getCodeSize(0x1d3B2638a7cC9f2CB3D298A3DA7a90B67E5506ed) */\n      tag_74\n        /* \"github.com/provable-things/ethereum-api/blob/master/contracts/solc-v0.4.25/provableAPI.sol\":11850:11892  0x1d3B2638a7cC9f2CB3D298A3DA7a90B67E5506ed */\n      0x1d3b2638a7cc9f2cb3d298a3da7a90b67e5506ed\n        /* \"github.com/provable-things/ethereum-api/blob/master/contracts/solc-v0.4.25/provableAPI.sol\":11838:11849  getCodeSize */\n      tag_38\n        /* \"github.com/provable-things/ethereum-api/blob/master/contracts/solc-v0.4.25/provableAPI.sol\":11838:11893  getCodeSize(0x1d3B2638a7cC9f2CB3D298A3DA7a90B67E5506ed) */\n      jump\t// in\n    tag_74:\n        /* \"github.com/provable-things/ethereum-api/blob/master/contracts/solc-v0.4.25/provableAPI.sol\":11838:11895  getCodeSize(0x1d3B2638a7cC9f2CB3D298A3DA7a90B67E5506ed)>0 */\n      gt\n        /* \"github.com/provable-things/ethereum-api/blob/master/contracts/solc-v0.4.25/provableAPI.sol\":11834:12077  if (getCodeSize(0x1d3B2638a7cC9f2CB3D298A3DA7a90B67E5506ed)>0){ //mainnet... */\n      iszero\n      tag_75\n      jumpi\n        /* \"github.com/provable-things/ethereum-api/blob/master/contracts/solc-v0.4.25/provableAPI.sol\":11946:11988  0x1d3B2638a7cC9f2CB3D298A3DA7a90B67E5506ed */\n      0x1d3b2638a7cc9f2cb3d298a3da7a90b67e5506ed\n        /* \"github.com/provable-things/ethereum-api/blob/master/contracts/solc-v0.4.25/provableAPI.sol\":11920:11923  OAR */\n      0x0\n      dup1\n        /* \"github.com/provable-things/ethereum-api/blob/master/contracts/solc-v0.4.25/provableAPI.sol\":11920:11989  OAR = OracleAddrResolverI(0x1d3B2638a7cC9f2CB3D298A3DA7a90B67E5506ed) */\n      0x100\n      exp\n      dup2\n      sload\n      dup2\n      0xffffffffffffffffffffffffffffffffffffffff\n      mul\n      not\n      and\n      swap1\n      dup4\n      0xffffffffffffffffffffffffffffffffffffffff\n      and\n      mul\n      or\n      swap1\n      sstore\n      pop\n        /* \"github.com/provable-things/ethereum-api/blob/master/contracts/solc-v0.4.25/provableAPI.sol\":12003:12041  provable_setNetworkName(\"eth_mainnet\") */\n      tag_76\n      0x40\n      dup1\n      mload\n      swap1\n      dup2\n      add\n      0x40\n      mstore\n      dup1\n      0xb\n      dup2\n      mstore\n      0x20\n      add\n      0x6574685f6d61696e6e6574000000000000000000000000000000000000000000\n      dup2\n      mstore\n      pop\n        /* \"github.com/provable-things/ethereum-api/blob/master/contracts/solc-v0.4.25/provableAPI.sol\":12003:12026  provable_setNetworkName */\n      tag_77\n        /* \"github.com/provable-things/ethereum-api/blob/master/contracts/solc-v0.4.25/provableAPI.sol\":12003:12041  provable_setNetworkName(\"eth_mainnet\") */\n      jump\t// in\n    tag_76:\n        /* \"github.com/provable-things/ethereum-api/blob/master/contracts/solc-v0.4.25/provableAPI.sol\":12062:12066  true */\n      0x1\n        /* \"github.com/provable-things/ethereum-api/blob/master/contracts/solc-v0.4.25/provableAPI.sol\":12055:12066  return true */\n      swap1\n      pop\n      jump(tag_73)\n        /* \"github.com/provable-things/ethereum-api/blob/master/contracts/solc-v0.4.25/provableAPI.sol\":11834:12077  if (getCodeSize(0x1d3B2638a7cC9f2CB3D298A3DA7a90B67E5506ed)>0){ //mainnet... */\n    tag_75:\n        /* \"github.com/provable-things/ethereum-api/blob/master/contracts/solc-v0.4.25/provableAPI.sol\":12146:12147  0 */\n      0x0\n        /* \"github.com/provable-things/ethereum-api/blob/master/contracts/solc-v0.4.25/provableAPI.sol\":12090:12145  getCodeSize(0xc03A2615D5efaf5F49F60B7BB6583eaec212fdf1) */\n      tag_78\n        /* \"github.com/provable-things/ethereum-api/blob/master/contracts/solc-v0.4.25/provableAPI.sol\":12102:12144  0xc03A2615D5efaf5F49F60B7BB6583eaec212fdf1 */\n      0xc03a2615d5efaf5f49f60b7bb6583eaec212fdf1\n        /* \"github.com/provable-things/ethereum-api/blob/master/contracts/solc-v0.4.25/provableAPI.sol\":12090:12101  getCodeSize */\n      tag_38\n        /* \"github.com/provable-things/ethereum-api/blob/master/contracts/solc-v0.4.25/provableAPI.sol\":12090:12145  getCodeSize(0xc03A2615D5efaf5F49F60B7BB6583eaec212fdf1) */\n      jump\t// in\n    tag_78:\n        /* \"github.com/provable-things/ethereum-api/blob/master/contracts/solc-v0.4.25/provableAPI.sol\":12090:12147  getCodeSize(0xc03A2615D5efaf5F49F60B7BB6583eaec212fdf1)>0 */\n      gt\n        /* \"github.com/provable-things/ethereum-api/blob/master/contracts/solc-v0.4.25/provableAPI.sol\":12086:12338  if (getCodeSize(0xc03A2615D5efaf5F49F60B7BB6583eaec212fdf1)>0){ //ropsten testnet... */\n      iszero\n      tag_79\n      jumpi\n        /* \"github.com/provable-things/ethereum-api/blob/master/contracts/solc-v0.4.25/provableAPI.sol\":12206:12248  0xc03A2615D5efaf5F49F60B7BB6583eaec212fdf1 */\n      0xc03a2615d5efaf5f49f60b7bb6583eaec212fdf1\n        /* \"github.com/provable-things/ethereum-api/blob/master/contracts/solc-v0.4.25/provableAPI.sol\":12180:12183  OAR */\n      0x0\n      dup1\n        /* \"github.com/provable-things/ethereum-api/blob/master/contracts/solc-v0.4.25/provableAPI.sol\":12180:12249  OAR = OracleAddrResolverI(0xc03A2615D5efaf5F49F60B7BB6583eaec212fdf1) */\n      0x100\n      exp\n      dup2\n      sload\n      dup2\n      0xffffffffffffffffffffffffffffffffffffffff\n      mul\n      not\n      and\n      swap1\n      dup4\n      0xffffffffffffffffffffffffffffffffffffffff\n      and\n      mul\n      or\n      swap1\n      sstore\n      pop\n        /* \"github.com/provable-things/ethereum-api/blob/master/contracts/solc-v0.4.25/provableAPI.sol\":12263:12302  provable_setNetworkName(\"eth_ropsten3\") */\n      tag_80\n      0x40\n      dup1\n      mload\n      swap1\n      dup2\n      add\n      0x40\n      mstore\n      dup1\n      0xc\n      dup2\n      mstore\n      0x20\n      add\n      0x6574685f726f707374656e330000000000000000000000000000000000000000\n      dup2\n      mstore\n      pop\n        /* \"github.com/provable-things/ethereum-api/blob/master/contracts/solc-v0.4.25/provableAPI.sol\":12263:12286  provable_setNetworkName */\n      tag_77\n        /* \"github.com/provable-things/ethereum-api/blob/master/contracts/solc-v0.4.25/provableAPI.sol\":12263:12302  provable_setNetworkName(\"eth_ropsten3\") */\n      jump\t// in\n    tag_80:\n        /* \"github.com/provable-things/ethereum-api/blob/master/contracts/solc-v0.4.25/provableAPI.sol\":12323:12327  true */\n      0x1\n        /* \"github.com/provable-things/ethereum-api/blob/master/contracts/solc-v0.4.25/provableAPI.sol\":12316:12327  return true */\n      swap1\n      pop\n      jump(tag_73)\n        /* \"github.com/provable-things/ethereum-api/blob/master/contracts/solc-v0.4.25/provableAPI.sol\":12086:12338  if (getCodeSize(0xc03A2615D5efaf5F49F60B7BB6583eaec212fdf1)>0){ //ropsten testnet... */\n    tag_79:\n        /* \"github.com/provable-things/ethereum-api/blob/master/contracts/solc-v0.4.25/provableAPI.sol\":12407:12408  0 */\n      0x0\n        /* \"github.com/provable-things/ethereum-api/blob/master/contracts/solc-v0.4.25/provableAPI.sol\":12351:12406  getCodeSize(0xB7A07BcF2Ba2f2703b24C0691b5278999C59AC7e) */\n      tag_81\n        /* \"github.com/provable-things/ethereum-api/blob/master/contracts/solc-v0.4.25/provableAPI.sol\":12363:12405  0xB7A07BcF2Ba2f2703b24C0691b5278999C59AC7e */\n      0xb7a07bcf2ba2f2703b24c0691b5278999c59ac7e\n        /* \"github.com/provable-things/ethereum-api/blob/master/contracts/solc-v0.4.25/provableAPI.sol\":12351:12362  getCodeSize */\n      tag_38\n        /* \"github.com/provable-things/ethereum-api/blob/master/contracts/solc-v0.4.25/provableAPI.sol\":12351:12406  getCodeSize(0xB7A07BcF2Ba2f2703b24C0691b5278999C59AC7e) */\n      jump\t// in\n    tag_81:\n        /* \"github.com/provable-things/ethereum-api/blob/master/contracts/solc-v0.4.25/provableAPI.sol\":12351:12408  getCodeSize(0xB7A07BcF2Ba2f2703b24C0691b5278999C59AC7e)>0 */\n      gt\n        /* \"github.com/provable-things/ethereum-api/blob/master/contracts/solc-v0.4.25/provableAPI.sol\":12347:12594  if (getCodeSize(0xB7A07BcF2Ba2f2703b24C0691b5278999C59AC7e)>0){ //kovan testnet... */\n      iszero\n      tag_82\n      jumpi\n        /* \"github.com/provable-things/ethereum-api/blob/master/contracts/solc-v0.4.25/provableAPI.sol\":12465:12507  0xB7A07BcF2Ba2f2703b24C0691b5278999C59AC7e */\n      0xb7a07bcf2ba2f2703b24c0691b5278999c59ac7e\n        /* \"github.com/provable-things/ethereum-api/blob/master/contracts/solc-v0.4.25/provableAPI.sol\":12439:12442  OAR */\n      0x0\n      dup1\n        /* \"github.com/provable-things/ethereum-api/blob/master/contracts/solc-v0.4.25/provableAPI.sol\":12439:12508  OAR = OracleAddrResolverI(0xB7A07BcF2Ba2f2703b24C0691b5278999C59AC7e) */\n      0x100\n      exp\n      dup2\n      sload\n      dup2\n      0xffffffffffffffffffffffffffffffffffffffff\n      mul\n      not\n      and\n      swap1\n      dup4\n      0xffffffffffffffffffffffffffffffffffffffff\n      and\n      mul\n      or\n      swap1\n      sstore\n      pop\n        /* \"github.com/provable-things/ethereum-api/blob/master/contracts/solc-v0.4.25/provableAPI.sol\":12522:12558  provable_setNetworkName(\"eth_kovan\") */\n      tag_83\n      0x40\n      dup1\n      mload\n      swap1\n      dup2\n      add\n      0x40\n      mstore\n      dup1\n      0x9\n      dup2\n      mstore\n      0x20\n      add\n      0x6574685f6b6f76616e0000000000000000000000000000000000000000000000\n      dup2\n      mstore\n      pop\n        /* \"github.com/provable-things/ethereum-api/blob/master/contracts/solc-v0.4.25/provableAPI.sol\":12522:12545  provable_setNetworkName */\n      tag_77\n        /* \"github.com/provable-things/ethereum-api/blob/master/contracts/solc-v0.4.25/provableAPI.sol\":12522:12558  provable_setNetworkName(\"eth_kovan\") */\n      jump\t// in\n    tag_83:\n        /* \"github.com/provable-things/ethereum-api/blob/master/contracts/solc-v0.4.25/provableAPI.sol\":12579:12583  true */\n      0x1\n        /* \"github.com/provable-things/ethereum-api/blob/master/contracts/solc-v0.4.25/provableAPI.sol\":12572:12583  return true */\n      swap1\n      pop\n      jump(tag_73)\n        /* \"github.com/provable-things/ethereum-api/blob/master/contracts/solc-v0.4.25/provableAPI.sol\":12347:12594  if (getCodeSize(0xB7A07BcF2Ba2f2703b24C0691b5278999C59AC7e)>0){ //kovan testnet... */\n    tag_82:\n        /* \"github.com/provable-things/ethereum-api/blob/master/contracts/solc-v0.4.25/provableAPI.sol\":12663:12664  0 */\n      0x0\n        /* \"github.com/provable-things/ethereum-api/blob/master/contracts/solc-v0.4.25/provableAPI.sol\":12607:12662  getCodeSize(0x146500cfd35B22E4A392Fe0aDc06De1a1368Ed48) */\n      tag_84\n        /* \"github.com/provable-things/ethereum-api/blob/master/contracts/solc-v0.4.25/provableAPI.sol\":12619:12661  0x146500cfd35B22E4A392Fe0aDc06De1a1368Ed48 */\n      0x146500cfd35b22e4a392fe0adc06de1a1368ed48\n        /* \"github.com/provable-things/ethereum-api/blob/master/contracts/solc-v0.4.25/provableAPI.sol\":12607:12618  getCodeSize */\n      tag_38\n        /* \"github.com/provable-things/ethereum-api/blob/master/contracts/solc-v0.4.25/provableAPI.sol\":12607:12662  getCodeSize(0x146500cfd35B22E4A392Fe0aDc06De1a1368Ed48) */\n      jump\t// in\n    tag_84:\n        /* \"github.com/provable-things/ethereum-api/blob/master/contracts/solc-v0.4.25/provableAPI.sol\":12607:12664  getCodeSize(0x146500cfd35B22E4A392Fe0aDc06De1a1368Ed48)>0 */\n      gt\n        /* \"github.com/provable-things/ethereum-api/blob/master/contracts/solc-v0.4.25/provableAPI.sol\":12603:12854  if (getCodeSize(0x146500cfd35B22E4A392Fe0aDc06De1a1368Ed48)>0){ //rinkeby testnet... */\n      iszero\n      tag_85\n      jumpi\n        /* \"github.com/provable-things/ethereum-api/blob/master/contracts/solc-v0.4.25/provableAPI.sol\":12723:12765  0x146500cfd35B22E4A392Fe0aDc06De1a1368Ed48 */\n      0x146500cfd35b22e4a392fe0adc06de1a1368ed48\n        /* \"github.com/provable-things/ethereum-api/blob/master/contracts/solc-v0.4.25/provableAPI.sol\":12697:12700  OAR */\n      0x0\n      dup1\n        /* \"github.com/provable-things/ethereum-api/blob/master/contracts/solc-v0.4.25/provableAPI.sol\":12697:12766  OAR = OracleAddrResolverI(0x146500cfd35B22E4A392Fe0aDc06De1a1368Ed48) */\n      0x100\n      exp\n      dup2\n      sload\n      dup2\n      0xffffffffffffffffffffffffffffffffffffffff\n      mul\n      not\n      and\n      swap1\n      dup4\n      0xffffffffffffffffffffffffffffffffffffffff\n      and\n      mul\n      or\n      swap1\n      sstore\n      pop\n        /* \"github.com/provable-things/ethereum-api/blob/master/contracts/solc-v0.4.25/provableAPI.sol\":12780:12818  provable_setNetworkName(\"eth_rinkeby\") */\n      tag_86\n      0x40\n      dup1\n      mload\n      swap1\n      dup2\n      add\n      0x40\n      mstore\n      dup1\n      0xb\n      dup2\n      mstore\n      0x20\n      add\n      0x6574685f72696e6b656279000000000000000000000000000000000000000000\n      dup2\n      mstore\n      pop\n        /* \"github.com/provable-things/ethereum-api/blob/master/contracts/solc-v0.4.25/provableAPI.sol\":12780:12803  provable_setNetworkName */\n      tag_77\n        /* \"github.com/provable-things/ethereum-api/blob/master/contracts/solc-v0.4.25/provableAPI.sol\":12780:12818  provable_setNetworkName(\"eth_rinkeby\") */\n      jump\t// in\n    tag_86:\n        /* \"github.com/provable-things/ethereum-api/blob/master/contracts/solc-v0.4.25/provableAPI.sol\":12839:12843  true */\n      0x1\n        /* \"github.com/provable-things/ethereum-api/blob/master/contracts/solc-v0.4.25/provableAPI.sol\":12832:12843  return true */\n      swap1\n      pop\n      jump(tag_73)\n        /* \"github.com/provable-things/ethereum-api/blob/master/contracts/solc-v0.4.25/provableAPI.sol\":12603:12854  if (getCodeSize(0x146500cfd35B22E4A392Fe0aDc06De1a1368Ed48)>0){ //rinkeby testnet... */\n    tag_85:\n        /* \"github.com/provable-things/ethereum-api/blob/master/contracts/solc-v0.4.25/provableAPI.sol\":12923:12924  0 */\n      0x0\n        /* \"github.com/provable-things/ethereum-api/blob/master/contracts/solc-v0.4.25/provableAPI.sol\":12867:12922  getCodeSize(0xa2998EFD205FB9D4B4963aFb70778D6354ad3A41) */\n      tag_87\n        /* \"github.com/provable-things/ethereum-api/blob/master/contracts/solc-v0.4.25/provableAPI.sol\":12879:12921  0xa2998EFD205FB9D4B4963aFb70778D6354ad3A41 */\n      0xa2998efd205fb9d4b4963afb70778d6354ad3a41\n        /* \"github.com/provable-things/ethereum-api/blob/master/contracts/solc-v0.4.25/provableAPI.sol\":12867:12878  getCodeSize */\n      tag_38\n        /* \"github.com/provable-things/ethereum-api/blob/master/contracts/solc-v0.4.25/provableAPI.sol\":12867:12922  getCodeSize(0xa2998EFD205FB9D4B4963aFb70778D6354ad3A41) */\n      jump\t// in\n    tag_87:\n        /* \"github.com/provable-things/ethereum-api/blob/master/contracts/solc-v0.4.25/provableAPI.sol\":12867:12924  getCodeSize(0xa2998EFD205FB9D4B4963aFb70778D6354ad3A41)>0 */\n      gt\n        /* \"github.com/provable-things/ethereum-api/blob/master/contracts/solc-v0.4.25/provableAPI.sol\":12863:13112  if (getCodeSize(0xa2998EFD205FB9D4B4963aFb70778D6354ad3A41)>0){ //goerli testnet... */\n      iszero\n      tag_88\n      jumpi\n        /* \"github.com/provable-things/ethereum-api/blob/master/contracts/solc-v0.4.25/provableAPI.sol\":12982:13024  0xa2998EFD205FB9D4B4963aFb70778D6354ad3A41 */\n      0xa2998efd205fb9d4b4963afb70778d6354ad3a41\n        /* \"github.com/provable-things/ethereum-api/blob/master/contracts/solc-v0.4.25/provableAPI.sol\":12956:12959  OAR */\n      0x0\n      dup1\n        /* \"github.com/provable-things/ethereum-api/blob/master/contracts/solc-v0.4.25/provableAPI.sol\":12956:13025  OAR = OracleAddrResolverI(0xa2998EFD205FB9D4B4963aFb70778D6354ad3A41) */\n      0x100\n      exp\n      dup2\n      sload\n      dup2\n      0xffffffffffffffffffffffffffffffffffffffff\n      mul\n      not\n      and\n      swap1\n      dup4\n      0xffffffffffffffffffffffffffffffffffffffff\n      and\n      mul\n      or\n      swap1\n      sstore\n      pop\n        /* \"github.com/provable-things/ethereum-api/blob/master/contracts/solc-v0.4.25/provableAPI.sol\":13039:13076  provable_setNetworkName(\"eth_goerli\") */\n      tag_89\n      0x40\n      dup1\n      mload\n      swap1\n      dup2\n      add\n      0x40\n      mstore\n      dup1\n      0xa\n      dup2\n      mstore\n      0x20\n      add\n      0x6574685f676f65726c6900000000000000000000000000000000000000000000\n      dup2\n      mstore\n      pop\n        /* \"github.com/provable-things/ethereum-api/blob/master/contracts/solc-v0.4.25/provableAPI.sol\":13039:13062  provable_setNetworkName */\n      tag_77\n        /* \"github.com/provable-things/ethereum-api/blob/master/contracts/solc-v0.4.25/provableAPI.sol\":13039:13076  provable_setNetworkName(\"eth_goerli\") */\n      jump\t// in\n    tag_89:\n        /* \"github.com/provable-things/ethereum-api/blob/master/contracts/solc-v0.4.25/provableAPI.sol\":13097:13101  true */\n      0x1\n        /* \"github.com/provable-things/ethereum-api/blob/master/contracts/solc-v0.4.25/provableAPI.sol\":13090:13101  return true */\n      swap1\n      pop\n      jump(tag_73)\n        /* \"github.com/provable-things/ethereum-api/blob/master/contracts/solc-v0.4.25/provableAPI.sol\":12863:13112  if (getCodeSize(0xa2998EFD205FB9D4B4963aFb70778D6354ad3A41)>0){ //goerli testnet... */\n    tag_88:\n        /* \"github.com/provable-things/ethereum-api/blob/master/contracts/solc-v0.4.25/provableAPI.sol\":13181:13182  0 */\n      0x0\n        /* \"github.com/provable-things/ethereum-api/blob/master/contracts/solc-v0.4.25/provableAPI.sol\":13125:13180  getCodeSize(0x90A0F94702c9630036FB9846B52bf31A1C991a84) */\n      tag_90\n        /* \"github.com/provable-things/ethereum-api/blob/master/contracts/solc-v0.4.25/provableAPI.sol\":13137:13179  0x90A0F94702c9630036FB9846B52bf31A1C991a84 */\n      0x90a0f94702c9630036fb9846b52bf31a1c991a84\n        /* \"github.com/provable-things/ethereum-api/blob/master/contracts/solc-v0.4.25/provableAPI.sol\":13125:13136  getCodeSize */\n      tag_38\n        /* \"github.com/provable-things/ethereum-api/blob/master/contracts/solc-v0.4.25/provableAPI.sol\":13125:13180  getCodeSize(0x90A0F94702c9630036FB9846B52bf31A1C991a84) */\n      jump\t// in\n    tag_90:\n        /* \"github.com/provable-things/ethereum-api/blob/master/contracts/solc-v0.4.25/provableAPI.sol\":13125:13182  getCodeSize(0x90A0F94702c9630036FB9846B52bf31A1C991a84)>0 */\n      gt\n        /* \"github.com/provable-things/ethereum-api/blob/master/contracts/solc-v0.4.25/provableAPI.sol\":13121:13368  if (getCodeSize(0x90A0F94702c9630036FB9846B52bf31A1C991a84)>0){ //bsc mainnet... */\n      iszero\n      tag_91\n      jumpi\n        /* \"github.com/provable-things/ethereum-api/blob/master/contracts/solc-v0.4.25/provableAPI.sol\":13237:13279  0x90A0F94702c9630036FB9846B52bf31A1C991a84 */\n      0x90a0f94702c9630036fb9846b52bf31a1c991a84\n        /* \"github.com/provable-things/ethereum-api/blob/master/contracts/solc-v0.4.25/provableAPI.sol\":13211:13214  OAR */\n      0x0\n      dup1\n        /* \"github.com/provable-things/ethereum-api/blob/master/contracts/solc-v0.4.25/provableAPI.sol\":13211:13280  OAR = OracleAddrResolverI(0x90A0F94702c9630036FB9846B52bf31A1C991a84) */\n      0x100\n      exp\n      dup2\n      sload\n      dup2\n      0xffffffffffffffffffffffffffffffffffffffff\n      mul\n      not\n      and\n      swap1\n      dup4\n      0xffffffffffffffffffffffffffffffffffffffff\n      and\n      mul\n      or\n      swap1\n      sstore\n      pop\n        /* \"github.com/provable-things/ethereum-api/blob/master/contracts/solc-v0.4.25/provableAPI.sol\":13294:13332  provable_setNetworkName(\"bsc_mainnet\") */\n      tag_92\n      0x40\n      dup1\n      mload\n      swap1\n      dup2\n      add\n      0x40\n      mstore\n      dup1\n      0xb\n      dup2\n      mstore\n      0x20\n      add\n      0x6273635f6d61696e6e6574000000000000000000000000000000000000000000\n      dup2\n      mstore\n      pop\n        /* \"github.com/provable-things/ethereum-api/blob/master/contracts/solc-v0.4.25/provableAPI.sol\":13294:13317  provable_setNetworkName */\n      tag_77\n        /* \"github.com/provable-things/ethereum-api/blob/master/contracts/solc-v0.4.25/provableAPI.sol\":13294:13332  provable_setNetworkName(\"bsc_mainnet\") */\n      jump\t// in\n    tag_92:\n        /* \"github.com/provable-things/ethereum-api/blob/master/contracts/solc-v0.4.25/provableAPI.sol\":13353:13357  true */\n      0x1\n        /* \"github.com/provable-things/ethereum-api/blob/master/contracts/solc-v0.4.25/provableAPI.sol\":13346:13357  return true */\n      swap1\n      pop\n      jump(tag_73)\n        /* \"github.com/provable-things/ethereum-api/blob/master/contracts/solc-v0.4.25/provableAPI.sol\":13121:13368  if (getCodeSize(0x90A0F94702c9630036FB9846B52bf31A1C991a84)>0){ //bsc mainnet... */\n    tag_91:\n        /* \"github.com/provable-things/ethereum-api/blob/master/contracts/solc-v0.4.25/provableAPI.sol\":13437:13438  0 */\n      0x0\n        /* \"github.com/provable-things/ethereum-api/blob/master/contracts/solc-v0.4.25/provableAPI.sol\":13381:13436  getCodeSize(0x816ec2AF1b56183F82f8C05759E99FEc3c3De609) */\n      tag_93\n        /* \"github.com/provable-things/ethereum-api/blob/master/contracts/solc-v0.4.25/provableAPI.sol\":13393:13435  0x816ec2AF1b56183F82f8C05759E99FEc3c3De609 */\n      0x816ec2af1b56183f82f8c05759e99fec3c3de609\n        /* \"github.com/provable-things/ethereum-api/blob/master/contracts/solc-v0.4.25/provableAPI.sol\":13381:13392  getCodeSize */\n      tag_38\n        /* \"github.com/provable-things/ethereum-api/blob/master/contracts/solc-v0.4.25/provableAPI.sol\":13381:13436  getCodeSize(0x816ec2AF1b56183F82f8C05759E99FEc3c3De609) */\n      jump\t// in\n    tag_93:\n        /* \"github.com/provable-things/ethereum-api/blob/master/contracts/solc-v0.4.25/provableAPI.sol\":13381:13438  getCodeSize(0x816ec2AF1b56183F82f8C05759E99FEc3c3De609)>0 */\n      gt\n        /* \"github.com/provable-things/ethereum-api/blob/master/contracts/solc-v0.4.25/provableAPI.sol\":13377:13632  if (getCodeSize(0x816ec2AF1b56183F82f8C05759E99FEc3c3De609)>0){ //polygon mainnet... */\n      iszero\n      tag_94\n      jumpi\n        /* \"github.com/provable-things/ethereum-api/blob/master/contracts/solc-v0.4.25/provableAPI.sol\":13497:13539  0x816ec2AF1b56183F82f8C05759E99FEc3c3De609 */\n      0x816ec2af1b56183f82f8c05759e99fec3c3de609\n        /* \"github.com/provable-things/ethereum-api/blob/master/contracts/solc-v0.4.25/provableAPI.sol\":13471:13474  OAR */\n      0x0\n      dup1\n        /* \"github.com/provable-things/ethereum-api/blob/master/contracts/solc-v0.4.25/provableAPI.sol\":13471:13540  OAR = OracleAddrResolverI(0x816ec2AF1b56183F82f8C05759E99FEc3c3De609) */\n      0x100\n      exp\n      dup2\n      sload\n      dup2\n      0xffffffffffffffffffffffffffffffffffffffff\n      mul\n      not\n      and\n      swap1\n      dup4\n      0xffffffffffffffffffffffffffffffffffffffff\n      and\n      mul\n      or\n      swap1\n      sstore\n      pop\n        /* \"github.com/provable-things/ethereum-api/blob/master/contracts/solc-v0.4.25/provableAPI.sol\":13554:13596  provable_setNetworkName(\"polygon_mainnet\") */\n      tag_95\n      0x40\n      dup1\n      mload\n      swap1\n      dup2\n      add\n      0x40\n      mstore\n      dup1\n      0xf\n      dup2\n      mstore\n      0x20\n      add\n      0x706f6c79676f6e5f6d61696e6e65740000000000000000000000000000000000\n      dup2\n      mstore\n      pop\n        /* \"github.com/provable-things/ethereum-api/blob/master/contracts/solc-v0.4.25/provableAPI.sol\":13554:13577  provable_setNetworkName */\n      tag_77\n        /* \"github.com/provable-things/ethereum-api/blob/master/contracts/solc-v0.4.25/provableAPI.sol\":13554:13596  provable_setNetworkName(\"polygon_mainnet\") */\n      jump\t// in\n    tag_95:\n        /* \"github.com/provable-things/ethereum-api/blob/master/contracts/solc-v0.4.25/provableAPI.sol\":13617:13621  true */\n      0x1\n        /* \"github.com/provable-things/ethereum-api/blob/master/contracts/solc-v0.4.25/provableAPI.sol\":13610:13621  return true */\n      swap1\n      pop\n      jump(tag_73)\n        /* \"github.com/provable-things/ethereum-api/blob/master/contracts/solc-v0.4.25/provableAPI.sol\":13377:13632  if (getCodeSize(0x816ec2AF1b56183F82f8C05759E99FEc3c3De609)>0){ //polygon mainnet... */\n    tag_94:\n        /* \"github.com/provable-things/ethereum-api/blob/master/contracts/solc-v0.4.25/provableAPI.sol\":13701:13702  0 */\n      0x0\n        /* \"github.com/provable-things/ethereum-api/blob/master/contracts/solc-v0.4.25/provableAPI.sol\":13645:13700  getCodeSize(0x6f485C8BF6fc43eA212E93BBF8ce046C7f1cb475) */\n      tag_96\n        /* \"github.com/provable-things/ethereum-api/blob/master/contracts/solc-v0.4.25/provableAPI.sol\":13657:13699  0x6f485C8BF6fc43eA212E93BBF8ce046C7f1cb475 */\n      0x6f485c8bf6fc43ea212e93bbf8ce046c7f1cb475\n        /* \"github.com/provable-things/ethereum-api/blob/master/contracts/solc-v0.4.25/provableAPI.sol\":13645:13656  getCodeSize */\n      tag_38\n        /* \"github.com/provable-things/ethereum-api/blob/master/contracts/solc-v0.4.25/provableAPI.sol\":13645:13700  getCodeSize(0x6f485C8BF6fc43eA212E93BBF8ce046C7f1cb475) */\n      jump\t// in\n    tag_96:\n        /* \"github.com/provable-things/ethereum-api/blob/master/contracts/solc-v0.4.25/provableAPI.sol\":13645:13702  getCodeSize(0x6f485C8BF6fc43eA212E93BBF8ce046C7f1cb475)>0 */\n      gt\n        /* \"github.com/provable-things/ethereum-api/blob/master/contracts/solc-v0.4.25/provableAPI.sol\":13641:13840  if (getCodeSize(0x6f485C8BF6fc43eA212E93BBF8ce046C7f1cb475)>0){ //ethereum-bridge... */\n      iszero\n      tag_97\n      jumpi\n        /* \"github.com/provable-things/ethereum-api/blob/master/contracts/solc-v0.4.25/provableAPI.sol\":13761:13803  0x6f485C8BF6fc43eA212E93BBF8ce046C7f1cb475 */\n      0x6f485c8bf6fc43ea212e93bbf8ce046c7f1cb475\n        /* \"github.com/provable-things/ethereum-api/blob/master/contracts/solc-v0.4.25/provableAPI.sol\":13735:13738  OAR */\n      0x0\n      dup1\n        /* \"github.com/provable-things/ethereum-api/blob/master/contracts/solc-v0.4.25/provableAPI.sol\":13735:13804  OAR = OracleAddrResolverI(0x6f485C8BF6fc43eA212E93BBF8ce046C7f1cb475) */\n      0x100\n      exp\n      dup2\n      sload\n      dup2\n      0xffffffffffffffffffffffffffffffffffffffff\n      mul\n      not\n      and\n      swap1\n      dup4\n      0xffffffffffffffffffffffffffffffffffffffff\n      and\n      mul\n      or\n      swap1\n      sstore\n      pop\n        /* \"github.com/provable-things/ethereum-api/blob/master/contracts/solc-v0.4.25/provableAPI.sol\":13825:13829  true */\n      0x1\n        /* \"github.com/provable-things/ethereum-api/blob/master/contracts/solc-v0.4.25/provableAPI.sol\":13818:13829  return true */\n      swap1\n      pop\n      jump(tag_73)\n        /* \"github.com/provable-things/ethereum-api/blob/master/contracts/solc-v0.4.25/provableAPI.sol\":13641:13840  if (getCodeSize(0x6f485C8BF6fc43eA212E93BBF8ce046C7f1cb475)>0){ //ethereum-bridge... */\n    tag_97:\n        /* \"github.com/provable-things/ethereum-api/blob/master/contracts/solc-v0.4.25/provableAPI.sol\":13909:13910  0 */\n      0x0\n        /* \"github.com/provable-things/ethereum-api/blob/master/contracts/solc-v0.4.25/provableAPI.sol\":13853:13908  getCodeSize(0x20e12A1F859B3FeaE5Fb2A0A32C18F5a65555bBF) */\n      tag_98\n        /* \"github.com/provable-things/ethereum-api/blob/master/contracts/solc-v0.4.25/provableAPI.sol\":13865:13907  0x20e12A1F859B3FeaE5Fb2A0A32C18F5a65555bBF */\n      0x20e12a1f859b3feae5fb2a0a32c18f5a65555bbf\n        /* \"github.com/provable-things/ethereum-api/blob/master/contracts/solc-v0.4.25/provableAPI.sol\":13853:13864  getCodeSize */\n      tag_38\n        /* \"github.com/provable-things/ethereum-api/blob/master/contracts/solc-v0.4.25/provableAPI.sol\":13853:13908  getCodeSize(0x20e12A1F859B3FeaE5Fb2A0A32C18F5a65555bBF) */\n      jump\t// in\n    tag_98:\n        /* \"github.com/provable-things/ethereum-api/blob/master/contracts/solc-v0.4.25/provableAPI.sol\":13853:13910  getCodeSize(0x20e12A1F859B3FeaE5Fb2A0A32C18F5a65555bBF)>0 */\n      gt\n        /* \"github.com/provable-things/ethereum-api/blob/master/contracts/solc-v0.4.25/provableAPI.sol\":13849:14047  if (getCodeSize(0x20e12A1F859B3FeaE5Fb2A0A32C18F5a65555bBF)>0){ //ether.camp ide... */\n      iszero\n      tag_99\n      jumpi\n        /* \"github.com/provable-things/ethereum-api/blob/master/contracts/solc-v0.4.25/provableAPI.sol\":13968:14010  0x20e12A1F859B3FeaE5Fb2A0A32C18F5a65555bBF */\n      0x20e12a1f859b3feae5fb2a0a32c18f5a65555bbf\n        /* \"github.com/provable-things/ethereum-api/blob/master/contracts/solc-v0.4.25/provableAPI.sol\":13942:13945  OAR */\n      0x0\n      dup1\n        /* \"github.com/provable-things/ethereum-api/blob/master/contracts/solc-v0.4.25/provableAPI.sol\":13942:14011  OAR = OracleAddrResolverI(0x20e12A1F859B3FeaE5Fb2A0A32C18F5a65555bBF) */\n      0x100\n      exp\n      dup2\n      sload\n      dup2\n      0xffffffffffffffffffffffffffffffffffffffff\n      mul\n      not\n      and\n      swap1\n      dup4\n      0xffffffffffffffffffffffffffffffffffffffff\n      and\n      mul\n      or\n      swap1\n      sstore\n      pop\n        /* \"github.com/provable-things/ethereum-api/blob/master/contracts/solc-v0.4.25/provableAPI.sol\":14032:14036  true */\n      0x1\n        /* \"github.com/provable-things/ethereum-api/blob/master/contracts/solc-v0.4.25/provableAPI.sol\":14025:14036  return true */\n      swap1\n      pop\n      jump(tag_73)\n        /* \"github.com/provable-things/ethereum-api/blob/master/contracts/solc-v0.4.25/provableAPI.sol\":13849:14047  if (getCodeSize(0x20e12A1F859B3FeaE5Fb2A0A32C18F5a65555bBF)>0){ //ether.camp ide... */\n    tag_99:\n        /* \"github.com/provable-things/ethereum-api/blob/master/contracts/solc-v0.4.25/provableAPI.sol\":14116:14117  0 */\n      0x0\n        /* \"github.com/provable-things/ethereum-api/blob/master/contracts/solc-v0.4.25/provableAPI.sol\":14060:14115  getCodeSize(0x51efaF4c8B3C9AfBD5aB9F4bbC82784Ab6ef8fAA) */\n      tag_100\n        /* \"github.com/provable-things/ethereum-api/blob/master/contracts/solc-v0.4.25/provableAPI.sol\":14072:14114  0x51efaF4c8B3C9AfBD5aB9F4bbC82784Ab6ef8fAA */\n      0x51efaf4c8b3c9afbd5ab9f4bbc82784ab6ef8faa\n        /* \"github.com/provable-things/ethereum-api/blob/master/contracts/solc-v0.4.25/provableAPI.sol\":14060:14071  getCodeSize */\n      tag_38\n        /* \"github.com/provable-things/ethereum-api/blob/master/contracts/solc-v0.4.25/provableAPI.sol\":14060:14115  getCodeSize(0x51efaF4c8B3C9AfBD5aB9F4bbC82784Ab6ef8fAA) */\n      jump\t// in\n    tag_100:\n        /* \"github.com/provable-things/ethereum-api/blob/master/contracts/solc-v0.4.25/provableAPI.sol\":14060:14117  getCodeSize(0x51efaF4c8B3C9AfBD5aB9F4bbC82784Ab6ef8fAA)>0 */\n      gt\n        /* \"github.com/provable-things/ethereum-api/blob/master/contracts/solc-v0.4.25/provableAPI.sol\":14056:14256  if (getCodeSize(0x51efaF4c8B3C9AfBD5aB9F4bbC82784Ab6ef8fAA)>0){ //browser-solidity... */\n      iszero\n      tag_101\n      jumpi\n        /* \"github.com/provable-things/ethereum-api/blob/master/contracts/solc-v0.4.25/provableAPI.sol\":14177:14219  0x51efaF4c8B3C9AfBD5aB9F4bbC82784Ab6ef8fAA */\n      0x51efaf4c8b3c9afbd5ab9f4bbc82784ab6ef8faa\n        /* \"github.com/provable-things/ethereum-api/blob/master/contracts/solc-v0.4.25/provableAPI.sol\":14151:14154  OAR */\n      0x0\n      dup1\n        /* \"github.com/provable-things/ethereum-api/blob/master/contracts/solc-v0.4.25/provableAPI.sol\":14151:14220  OAR = OracleAddrResolverI(0x51efaF4c8B3C9AfBD5aB9F4bbC82784Ab6ef8fAA) */\n      0x100\n      exp\n      dup2\n      sload\n      dup2\n      0xffffffffffffffffffffffffffffffffffffffff\n      mul\n      not\n      and\n      swap1\n      dup4\n      0xffffffffffffffffffffffffffffffffffffffff\n      and\n      mul\n      or\n      swap1\n      sstore\n      pop\n        /* \"github.com/provable-things/ethereum-api/blob/master/contracts/solc-v0.4.25/provableAPI.sol\":14241:14245  true */\n      0x1\n        /* \"github.com/provable-things/ethereum-api/blob/master/contracts/solc-v0.4.25/provableAPI.sol\":14234:14245  return true */\n      swap1\n      pop\n      jump(tag_73)\n        /* \"github.com/provable-things/ethereum-api/blob/master/contracts/solc-v0.4.25/provableAPI.sol\":14056:14256  if (getCodeSize(0x51efaF4c8B3C9AfBD5aB9F4bbC82784Ab6ef8fAA)>0){ //browser-solidity... */\n    tag_101:\n        /* \"github.com/provable-things/ethereum-api/blob/master/contracts/solc-v0.4.25/provableAPI.sol\":14272:14277  false */\n      0x0\n        /* \"github.com/provable-things/ethereum-api/blob/master/contracts/solc-v0.4.25/provableAPI.sol\":14265:14277  return false */\n      swap1\n      pop\n        /* \"github.com/provable-things/ethereum-api/blob/master/contracts/solc-v0.4.25/provableAPI.sol\":11771:14284  function provable_setNetwork() internal returns(bool){... */\n    tag_73:\n      swap1\n      jump\t// out\n        /* \"github.com/provable-things/ethereum-api/blob/master/contracts/solc-v0.4.25/provableAPI.sol\":40384:40502  function provable_setNetworkName(string _network_name) internal {... */\n    tag_77:\n        /* \"github.com/provable-things/ethereum-api/blob/master/contracts/solc-v0.4.25/provableAPI.sol\":40482:40495  _network_name */\n      dup1\n        /* \"github.com/provable-things/ethereum-api/blob/master/contracts/solc-v0.4.25/provableAPI.sol\":40458:40479  provable_network_name */\n      0x2\n        /* \"github.com/provable-things/ethereum-api/blob/master/contracts/solc-v0.4.25/provableAPI.sol\":40458:40495  provable_network_name = _network_name */\n      swap1\n      dup1\n      mload\n      swap1\n      0x20\n      add\n      swap1\n      tag_103\n      swap3\n      swap2\n      swap1\n      jump\t// in(tag_23)\n    tag_103:\n      pop\n        /* \"github.com/provable-things/ethereum-api/blob/master/contracts/solc-v0.4.25/provableAPI.sol\":40384:40502  function provable_setNetworkName(string _network_name) internal {... */\n      pop\n      jump\t// out\n        /* \"PatternOracles/ExampleContract.sol\":128:1433  contract ExampleContract is usingProvable {... */\n    tag_23:\n      dup3\n      dup1\n      sload\n      0x1\n      dup2\n      0x1\n      and\n      iszero\n      0x100\n      mul\n      sub\n      and\n      0x2\n      swap1\n      div\n      swap1\n      0x0\n      mstore\n      keccak256(0x0, 0x20)\n      swap1\n      0x1f\n      add\n      0x20\n      swap1\n      div\n      dup2\n      add\n      swap3\n      dup3\n      0x1f\n      lt\n      tag_105\n      jumpi\n      dup1\n      mload\n      not(0xff)\n      and\n      dup4\n      dup1\n      add\n      or\n      dup6\n      sstore\n      jump(tag_104)\n    tag_105:\n      dup3\n      dup1\n      add\n      0x1\n      add\n      dup6\n      sstore\n      dup3\n      iszero\n      tag_104\n      jumpi\n      swap2\n      dup3\n      add\n    tag_106:\n      dup3\n      dup2\n      gt\n      iszero\n      tag_107\n      jumpi\n      dup3\n      mload\n      dup3\n      sstore\n      swap2\n      0x20\n      add\n      swap2\n      swap1\n      0x1\n      add\n      swap1\n      jump(tag_106)\n    tag_107:\n    tag_104:\n      pop\n      swap1\n      pop\n      tag_108\n      swap2\n      swap1\n      jump\t// in(tag_109)\n    tag_108:\n      pop\n      swap1\n      jump\t// out\n    tag_109:\n      tag_110\n      swap2\n      swap1\n    tag_111:\n      dup1\n      dup3\n      gt\n      iszero\n      tag_112\n      jumpi\n      0x0\n      dup2\n      0x0\n      swap1\n      sstore\n      pop\n      0x1\n      add\n      jump(tag_111)\n    tag_112:\n      pop\n      swap1\n      jump\n    tag_110:\n      swap1\n      jump\t// out\n\n    auxdata: 0xa165627a7a72305820cb5f2826c3e2c1c7cee2b4e77994277789bdb4c4ebe41fc3875a6d72638ef3ca0029\n}\n",
				"bytecode": {
					"linkReferences": {},
					"object": "60806040527f11a3fca63f87bd67d7f9f72b744acc8be2193705e7a734ac3a773d35d259e87b60405180806020018281038252604b8152602001807f436f6e7374727563746f722077617320696e697469617465642e2043616c6c2081526020017f27757064617465507269636528292720746f2073656e64207468652050726f7681526020017f61626c652051756572792e00000000000000000000000000000000000000000081525060600191505060405180910390a16111a5806100c76000396000f300608060405260043610610062576000357c0100000000000000000000000000000000000000000000000000000000900463ffffffff16806327dc297e1461006757806338bbfa50146100de578063673a7e281461019b57806373db0844146101a5575b600080fd5b34801561007357600080fd5b506100dc6004803603810190808035600019169060200190929190803590602001908201803590602001908080601f0160208091040260200160405190810160405280939291908181526020018383808284378201915050505050509192919290505050610235565b005b3480156100ea57600080fd5b506101996004803603810190808035600019169060200190929190803590602001908201803590602001908080601f0160208091040260200160405190810160405280939291908181526020018383808284378201915050505050509192919290803590602001908201803590602001908080601f01602080910402602001604051908101604052809392919081815260200183838082843782019150505050505091929192905050506102ec565b005b6101a36102f1565b005b3480156101b157600080fd5b506101ba61038f565b6040518080602001828103825283818151815260200191508051906020019080838360005b838110156101fa5780820151818401526020810190506101df565b50505050905090810190601f1680156102275780820380516001836020036101000a031916815260200191505b509250505060405180910390f35b806005908051906020019061024b9291906110d4565b507f71f1a5645e51a2da828ffcf79cc17da88eb25e1bca8b9dced23210847a4769c1816040518080602001828103825283818151815260200191508051906020019080838360005b838110156102ae578082015181840152602081019050610293565b50505050905090810190601f1680156102db5780820380516001836020036101000a031916815260200191505b509250505060405180910390a15050565b505050565b61038c6040805190810160405280600381526020017f55524c0000000000000000000000000000000000000000000000000000000000815250606060405190810160405280604081526020017f6a736f6e2868747470733a2f2f6170692e70726f2e636f696e626173652e636f81526020017f6d2f70726f64756374732f4554482d5553442f7469636b6572292e707269636581525061042d565b50565b60058054600181600116156101000203166002900480601f0160208091040260200160405190810160405280929190818152602001828054600181600116156101000203166002900480156104255780601f106103fa57610100808354040283529160200191610425565b820191906000526020600020905b81548152906001019060200180831161040857829003601f168201915b505050505081565b60008060008060009054906101000a900473ffffffffffffffffffffffffffffffffffffffff1673ffffffffffffffffffffffffffffffffffffffff16148061049f5750600061049d6000809054906101000a900473ffffffffffffffffffffffffffffffffffffffff166109cf565b145b156104b0576104ae60006109da565b505b6000809054906101000a900473ffffffffffffffffffffffffffffffffffffffff1673ffffffffffffffffffffffffffffffffffffffff166338cc48316040518163ffffffff167c0100000000000000000000000000000000000000000000000000000000028152600401602060405180830381600087803b15801561053557600080fd5b505af1158015610549573d6000803e3d6000fd5b505050506040513d602081101561055f57600080fd5b810190808051906020019092919050505073ffffffffffffffffffffffffffffffffffffffff16600160009054906101000a900473ffffffffffffffffffffffffffffffffffffffff1673ffffffffffffffffffffffffffffffffffffffff161415156106c7576000809054906101000a900473ffffffffffffffffffffffffffffffffffffffff1673ffffffffffffffffffffffffffffffffffffffff166338cc48316040518163ffffffff167c0100000000000000000000000000000000000000000000000000000000028152600401602060405180830381600087803b15801561064b57600080fd5b505af115801561065f573d6000803e3d6000fd5b505050506040513d602081101561067557600080fd5b8101908080519060200190929190505050600160006101000a81548173ffffffffffffffffffffffffffffffffffffffff021916908373ffffffffffffffffffffffffffffffffffffffff1602179055505b600160009054906101000a900473ffffffffffffffffffffffffffffffffffffffff1673ffffffffffffffffffffffffffffffffffffffff1663524f3889856040518263ffffffff167c01000000000000000000000000000000000000000000000000000000000281526004018080602001828103825283818151815260200191508051906020019080838360005b83811015610771578082015181840152602081019050610756565b50505050905090810190601f16801561079e5780820380516001836020036101000a031916815260200191505b5092505050602060405180830381600087803b1580156107bd57600080fd5b505af11580156107d1573d6000803e3d6000fd5b505050506040513d60208110156107e757600080fd5b8101908080519060200190929190505050905062030d403a02670de0b6b3a76400000181111561081d57600060010291506109c8565b600160009054906101000a900473ffffffffffffffffffffffffffffffffffffffff1673ffffffffffffffffffffffffffffffffffffffff1663adf59f9982600087876040518563ffffffff167c0100000000000000000000000000000000000000000000000000000000028152600401808481526020018060200180602001838103835285818151815260200191508051906020019080838360005b838110156108d55780820151818401526020810190506108ba565b50505050905090810190601f1680156109025780820380516001836020036101000a031916815260200191505b50838103825284818151815260200191508051906020019080838360005b8381101561093b578082015181840152602081019050610920565b50505050905090810190601f1680156109685780820380516001836020036101000a031916815260200191505b50955050505050506020604051808303818588803b15801561098957600080fd5b505af115801561099d573d6000803e3d6000fd5b50505050506040513d60208110156109b457600080fd5b810190808051906020019092919050505091505b5092915050565b6000813b9050919050565b60006109e46109eb565b9050919050565b600080610a0b731d3b2638a7cc9f2cb3d298a3da7a90b67e5506ed6109cf565b1115610aac57731d3b2638a7cc9f2cb3d298a3da7a90b67e5506ed6000806101000a81548173ffffffffffffffffffffffffffffffffffffffff021916908373ffffffffffffffffffffffffffffffffffffffff160217905550610aa36040805190810160405280600b81526020017f6574685f6d61696e6e65740000000000000000000000000000000000000000008152506110ba565b600190506110b7565b6000610acb73c03a2615d5efaf5f49f60b7bb6583eaec212fdf16109cf565b1115610b6c5773c03a2615d5efaf5f49f60b7bb6583eaec212fdf16000806101000a81548173ffffffffffffffffffffffffffffffffffffffff021916908373ffffffffffffffffffffffffffffffffffffffff160217905550610b636040805190810160405280600c81526020017f6574685f726f707374656e3300000000000000000000000000000000000000008152506110ba565b600190506110b7565b6000610b8b73b7a07bcf2ba2f2703b24c0691b5278999c59ac7e6109cf565b1115610c2c5773b7a07bcf2ba2f2703b24c0691b5278999c59ac7e6000806101000a81548173ffffffffffffffffffffffffffffffffffffffff021916908373ffffffffffffffffffffffffffffffffffffffff160217905550610c236040805190810160405280600981526020017f6574685f6b6f76616e00000000000000000000000000000000000000000000008152506110ba565b600190506110b7565b6000610c4b73146500cfd35b22e4a392fe0adc06de1a1368ed486109cf565b1115610cec5773146500cfd35b22e4a392fe0adc06de1a1368ed486000806101000a81548173ffffffffffffffffffffffffffffffffffffffff021916908373ffffffffffffffffffffffffffffffffffffffff160217905550610ce36040805190810160405280600b81526020017f6574685f72696e6b6562790000000000000000000000000000000000000000008152506110ba565b600190506110b7565b6000610d0b73a2998efd205fb9d4b4963afb70778d6354ad3a416109cf565b1115610dac5773a2998efd205fb9d4b4963afb70778d6354ad3a416000806101000a81548173ffffffffffffffffffffffffffffffffffffffff021916908373ffffffffffffffffffffffffffffffffffffffff160217905550610da36040805190810160405280600a81526020017f6574685f676f65726c69000000000000000000000000000000000000000000008152506110ba565b600190506110b7565b6000610dcb7390a0f94702c9630036fb9846b52bf31a1c991a846109cf565b1115610e6c577390a0f94702c9630036fb9846b52bf31a1c991a846000806101000a81548173ffffffffffffffffffffffffffffffffffffffff021916908373ffffffffffffffffffffffffffffffffffffffff160217905550610e636040805190810160405280600b81526020017f6273635f6d61696e6e65740000000000000000000000000000000000000000008152506110ba565b600190506110b7565b6000610e8b73816ec2af1b56183f82f8c05759e99fec3c3de6096109cf565b1115610f2c5773816ec2af1b56183f82f8c05759e99fec3c3de6096000806101000a81548173ffffffffffffffffffffffffffffffffffffffff021916908373ffffffffffffffffffffffffffffffffffffffff160217905550610f236040805190810160405280600f81526020017f706f6c79676f6e5f6d61696e6e657400000000000000000000000000000000008152506110ba565b600190506110b7565b6000610f4b736f485c8bf6fc43ea212e93bbf8ce046c7f1cb4756109cf565b1115610fae57736f485c8bf6fc43ea212e93bbf8ce046c7f1cb4756000806101000a81548173ffffffffffffffffffffffffffffffffffffffff021916908373ffffffffffffffffffffffffffffffffffffffff160217905550600190506110b7565b6000610fcd7320e12a1f859b3feae5fb2a0a32c18f5a65555bbf6109cf565b1115611030577320e12a1f859b3feae5fb2a0a32c18f5a65555bbf6000806101000a81548173ffffffffffffffffffffffffffffffffffffffff021916908373ffffffffffffffffffffffffffffffffffffffff160217905550600190506110b7565b600061104f7351efaf4c8b3c9afbd5ab9f4bbc82784ab6ef8faa6109cf565b11156110b2577351efaf4c8b3c9afbd5ab9f4bbc82784ab6ef8faa6000806101000a81548173ffffffffffffffffffffffffffffffffffffffff021916908373ffffffffffffffffffffffffffffffffffffffff160217905550600190506110b7565b600090505b90565b80600290805190602001906110d09291906110d4565b5050565b828054600181600116156101000203166002900490600052602060002090601f016020900481019282601f1061111557805160ff1916838001178555611143565b82800160010185558215611143579182015b82811115611142578251825591602001919060010190611127565b5b5090506111509190611154565b5090565b61117691905b8082111561117257600081600090555060010161115a565b5090565b905600a165627a7a72305820cb5f2826c3e2c1c7cee2b4e77994277789bdb4c4ebe41fc3875a6d72638ef3ca0029",
					"opcodes": "PUSH1 0x80 PUSH1 0x40 MSTORE PUSH32 0x11A3FCA63F87BD67D7F9F72B744ACC8BE2193705E7A734AC3A773D35D259E87B PUSH1 0x40 MLOAD DUP1 DUP1 PUSH1 0x20 ADD DUP3 DUP2 SUB DUP3 MSTORE PUSH1 0x4B DUP2 MSTORE PUSH1 0x20 ADD DUP1 PUSH32 0x436F6E7374727563746F722077617320696E697469617465642E2043616C6C20 DUP2 MSTORE PUSH1 0x20 ADD PUSH32 0x27757064617465507269636528292720746F2073656E64207468652050726F76 DUP2 MSTORE PUSH1 0x20 ADD PUSH32 0x61626C652051756572792E000000000000000000000000000000000000000000 DUP2 MSTORE POP PUSH1 0x60 ADD SWAP2 POP POP PUSH1 0x40 MLOAD DUP1 SWAP2 SUB SWAP1 LOG1 PUSH2 0x11A5 DUP1 PUSH2 0xC7 PUSH1 0x0 CODECOPY PUSH1 0x0 RETURN STOP PUSH1 0x80 PUSH1 0x40 MSTORE PUSH1 0x4 CALLDATASIZE LT PUSH2 0x62 JUMPI PUSH1 0x0 CALLDATALOAD PUSH29 0x100000000000000000000000000000000000000000000000000000000 SWAP1 DIV PUSH4 0xFFFFFFFF AND DUP1 PUSH4 0x27DC297E EQ PUSH2 0x67 JUMPI DUP1 PUSH4 0x38BBFA50 EQ PUSH2 0xDE JUMPI DUP1 PUSH4 0x673A7E28 EQ PUSH2 0x19B JUMPI DUP1 PUSH4 0x73DB0844 EQ PUSH2 0x1A5 JUMPI JUMPDEST PUSH1 0x0 DUP1 REVERT JUMPDEST CALLVALUE DUP1 ISZERO PUSH2 0x73 JUMPI PUSH1 0x0 DUP1 REVERT JUMPDEST POP PUSH2 0xDC PUSH1 0x4 DUP1 CALLDATASIZE SUB DUP2 ADD SWAP1 DUP1 DUP1 CALLDATALOAD PUSH1 0x0 NOT AND SWAP1 PUSH1 0x20 ADD SWAP1 SWAP3 SWAP2 SWAP1 DUP1 CALLDATALOAD SWAP1 PUSH1 0x20 ADD SWAP1 DUP3 ADD DUP1 CALLDATALOAD SWAP1 PUSH1 0x20 ADD SWAP1 DUP1 DUP1 PUSH1 0x1F ADD PUSH1 0x20 DUP1 SWAP2 DIV MUL PUSH1 0x20 ADD PUSH1 0x40 MLOAD SWAP1 DUP2 ADD PUSH1 0x40 MSTORE DUP1 SWAP4 SWAP3 SWAP2 SWAP1 DUP2 DUP2 MSTORE PUSH1 0x20 ADD DUP4 DUP4 DUP1 DUP3 DUP5 CALLDATACOPY DUP3 ADD SWAP2 POP POP POP POP POP POP SWAP2 SWAP3 SWAP2 SWAP3 SWAP1 POP POP POP PUSH2 0x235 JUMP JUMPDEST STOP JUMPDEST CALLVALUE DUP1 ISZERO PUSH2 0xEA JUMPI PUSH1 0x0 DUP1 REVERT JUMPDEST POP PUSH2 0x199 PUSH1 0x4 DUP1 CALLDATASIZE SUB DUP2 ADD SWAP1 DUP1 DUP1 CALLDATALOAD PUSH1 0x0 NOT AND SWAP1 PUSH1 0x20 ADD SWAP1 SWAP3 SWAP2 SWAP1 DUP1 CALLDATALOAD SWAP1 PUSH1 0x20 ADD SWAP1 DUP3 ADD DUP1 CALLDATALOAD SWAP1 PUSH1 0x20 ADD SWAP1 DUP1 DUP1 PUSH1 0x1F ADD PUSH1 0x20 DUP1 SWAP2 DIV MUL PUSH1 0x20 ADD PUSH1 0x40 MLOAD SWAP1 DUP2 ADD PUSH1 0x40 MSTORE DUP1 SWAP4 SWAP3 SWAP2 SWAP1 DUP2 DUP2 MSTORE PUSH1 0x20 ADD DUP4 DUP4 DUP1 DUP3 DUP5 CALLDATACOPY DUP3 ADD SWAP2 POP POP POP POP POP POP SWAP2 SWAP3 SWAP2 SWAP3 SWAP1 DUP1 CALLDATALOAD SWAP1 PUSH1 0x20 ADD SWAP1 DUP3 ADD DUP1 CALLDATALOAD SWAP1 PUSH1 0x20 ADD SWAP1 DUP1 DUP1 PUSH1 0x1F ADD PUSH1 0x20 DUP1 SWAP2 DIV MUL PUSH1 0x20 ADD PUSH1 0x40 MLOAD SWAP1 DUP2 ADD PUSH1 0x40 MSTORE DUP1 SWAP4 SWAP3 SWAP2 SWAP1 DUP2 DUP2 MSTORE PUSH1 0x20 ADD DUP4 DUP4 DUP1 DUP3 DUP5 CALLDATACOPY DUP3 ADD SWAP2 POP POP POP POP POP POP SWAP2 SWAP3 SWAP2 SWAP3 SWAP1 POP POP POP PUSH2 0x2EC JUMP JUMPDEST STOP JUMPDEST PUSH2 0x1A3 PUSH2 0x2F1 JUMP JUMPDEST STOP JUMPDEST CALLVALUE DUP1 ISZERO PUSH2 0x1B1 JUMPI PUSH1 0x0 DUP1 REVERT JUMPDEST POP PUSH2 0x1BA PUSH2 0x38F JUMP JUMPDEST PUSH1 0x40 MLOAD DUP1 DUP1 PUSH1 0x20 ADD DUP3 DUP2 SUB DUP3 MSTORE DUP4 DUP2 DUP2 MLOAD DUP2 MSTORE PUSH1 0x20 ADD SWAP2 POP DUP1 MLOAD SWAP1 PUSH1 0x20 ADD SWAP1 DUP1 DUP4 DUP4 PUSH1 0x0 JUMPDEST DUP4 DUP2 LT ISZERO PUSH2 0x1FA JUMPI DUP1 DUP3 ADD MLOAD DUP2 DUP5 ADD MSTORE PUSH1 0x20 DUP2 ADD SWAP1 POP PUSH2 0x1DF JUMP JUMPDEST POP POP POP POP SWAP1 POP SWAP1 DUP2 ADD SWAP1 PUSH1 0x1F AND DUP1 ISZERO PUSH2 0x227 JUMPI DUP1 DUP3 SUB DUP1 MLOAD PUSH1 0x1 DUP4 PUSH1 0x20 SUB PUSH2 0x100 EXP SUB NOT AND DUP2 MSTORE PUSH1 0x20 ADD SWAP2 POP JUMPDEST POP SWAP3 POP POP POP PUSH1 0x40 MLOAD DUP1 SWAP2 SUB SWAP1 RETURN JUMPDEST DUP1 PUSH1 0x5 SWAP1 DUP1 MLOAD SWAP1 PUSH1 0x20 ADD SWAP1 PUSH2 0x24B SWAP3 SWAP2 SWAP1 PUSH2 0x10D4 JUMP JUMPDEST POP PUSH32 0x71F1A5645E51A2DA828FFCF79CC17DA88EB25E1BCA8B9DCED23210847A4769C1 DUP2 PUSH1 0x40 MLOAD DUP1 DUP1 PUSH1 0x20 ADD DUP3 DUP2 SUB DUP3 MSTORE DUP4 DUP2 DUP2 MLOAD DUP2 MSTORE PUSH1 0x20 ADD SWAP2 POP DUP1 MLOAD SWAP1 PUSH1 0x20 ADD SWAP1 DUP1 DUP4 DUP4 PUSH1 0x0 JUMPDEST DUP4 DUP2 LT ISZERO PUSH2 0x2AE JUMPI DUP1 DUP3 ADD MLOAD DUP2 DUP5 ADD MSTORE PUSH1 0x20 DUP2 ADD SWAP1 POP PUSH2 0x293 JUMP JUMPDEST POP POP POP POP SWAP1 POP SWAP1 DUP2 ADD SWAP1 PUSH1 0x1F AND DUP1 ISZERO PUSH2 0x2DB JUMPI DUP1 DUP3 SUB DUP1 MLOAD PUSH1 0x1 DUP4 PUSH1 0x20 SUB PUSH2 0x100 EXP SUB NOT AND DUP2 MSTORE PUSH1 0x20 ADD SWAP2 POP JUMPDEST POP SWAP3 POP POP POP PUSH1 0x40 MLOAD DUP1 SWAP2 SUB SWAP1 LOG1 POP POP JUMP JUMPDEST POP POP POP JUMP JUMPDEST PUSH2 0x38C PUSH1 0x40 DUP1 MLOAD SWAP1 DUP2 ADD PUSH1 0x40 MSTORE DUP1 PUSH1 0x3 DUP2 MSTORE PUSH1 0x20 ADD PUSH32 0x55524C0000000000000000000000000000000000000000000000000000000000 DUP2 MSTORE POP PUSH1 0x60 PUSH1 0x40 MLOAD SWAP1 DUP2 ADD PUSH1 0x40 MSTORE DUP1 PUSH1 0x40 DUP2 MSTORE PUSH1 0x20 ADD PUSH32 0x6A736F6E2868747470733A2F2F6170692E70726F2E636F696E626173652E636F DUP2 MSTORE PUSH1 0x20 ADD PUSH32 0x6D2F70726F64756374732F4554482D5553442F7469636B6572292E7072696365 DUP2 MSTORE POP PUSH2 0x42D JUMP JUMPDEST POP JUMP JUMPDEST PUSH1 0x5 DUP1 SLOAD PUSH1 0x1 DUP2 PUSH1 0x1 AND ISZERO PUSH2 0x100 MUL SUB AND PUSH1 0x2 SWAP1 DIV DUP1 PUSH1 0x1F ADD PUSH1 0x20 DUP1 SWAP2 DIV MUL PUSH1 0x20 ADD PUSH1 0x40 MLOAD SWAP1 DUP2 ADD PUSH1 0x40 MSTORE DUP1 SWAP3 SWAP2 SWAP1 DUP2 DUP2 MSTORE PUSH1 0x20 ADD DUP3 DUP1 SLOAD PUSH1 0x1 DUP2 PUSH1 0x1 AND ISZERO PUSH2 0x100 MUL SUB AND PUSH1 0x2 SWAP1 DIV DUP1 ISZERO PUSH2 0x425 JUMPI DUP1 PUSH1 0x1F LT PUSH2 0x3FA JUMPI PUSH2 0x100 DUP1 DUP4 SLOAD DIV MUL DUP4 MSTORE SWAP2 PUSH1 0x20 ADD SWAP2 PUSH2 0x425 JUMP JUMPDEST DUP3 ADD SWAP2 SWAP1 PUSH1 0x0 MSTORE PUSH1 0x20 PUSH1 0x0 KECCAK256 SWAP1 JUMPDEST DUP2 SLOAD DUP2 MSTORE SWAP1 PUSH1 0x1 ADD SWAP1 PUSH1 0x20 ADD DUP1 DUP4 GT PUSH2 0x408 JUMPI DUP3 SWAP1 SUB PUSH1 0x1F AND DUP3 ADD SWAP2 JUMPDEST POP POP POP POP POP DUP2 JUMP JUMPDEST PUSH1 0x0 DUP1 PUSH1 0x0 DUP1 PUSH1 0x0 SWAP1 SLOAD SWAP1 PUSH2 0x100 EXP SWAP1 DIV PUSH20 0xFFFFFFFFFFFFFFFFFFFFFFFFFFFFFFFFFFFFFFFF AND PUSH20 0xFFFFFFFFFFFFFFFFFFFFFFFFFFFFFFFFFFFFFFFF AND EQ DUP1 PUSH2 0x49F JUMPI POP PUSH1 0x0 PUSH2 0x49D PUSH1 0x0 DUP1 SWAP1 SLOAD SWAP1 PUSH2 0x100 EXP SWAP1 DIV PUSH20 0xFFFFFFFFFFFFFFFFFFFFFFFFFFFFFFFFFFFFFFFF AND PUSH2 0x9CF JUMP JUMPDEST EQ JUMPDEST ISZERO PUSH2 0x4B0 JUMPI PUSH2 0x4AE PUSH1 0x0 PUSH2 0x9DA JUMP JUMPDEST POP JUMPDEST PUSH1 0x0 DUP1 SWAP1 SLOAD SWAP1 PUSH2 0x100 EXP SWAP1 DIV PUSH20 0xFFFFFFFFFFFFFFFFFFFFFFFFFFFFFFFFFFFFFFFF AND PUSH20 0xFFFFFFFFFFFFFFFFFFFFFFFFFFFFFFFFFFFFFFFF AND PUSH4 0x38CC4831 PUSH1 0x40 MLOAD DUP2 PUSH4 0xFFFFFFFF AND PUSH29 0x100000000000000000000000000000000000000000000000000000000 MUL DUP2 MSTORE PUSH1 0x4 ADD PUSH1 0x20 PUSH1 0x40 MLOAD DUP1 DUP4 SUB DUP2 PUSH1 0x0 DUP8 DUP1 EXTCODESIZE ISZERO DUP1 ISZERO PUSH2 0x535 JUMPI PUSH1 0x0 DUP1 REVERT JUMPDEST POP GAS CALL ISZERO DUP1 ISZERO PUSH2 0x549 JUMPI RETURNDATASIZE PUSH1 0x0 DUP1 RETURNDATACOPY RETURNDATASIZE PUSH1 0x0 REVERT JUMPDEST POP POP POP POP PUSH1 0x40 MLOAD RETURNDATASIZE PUSH1 0x20 DUP2 LT ISZERO PUSH2 0x55F JUMPI PUSH1 0x0 DUP1 REVERT JUMPDEST DUP2 ADD SWAP1 DUP1 DUP1 MLOAD SWAP1 PUSH1 0x20 ADD SWAP1 SWAP3 SWAP2 SWAP1 POP POP POP PUSH20 0xFFFFFFFFFFFFFFFFFFFFFFFFFFFFFFFFFFFFFFFF AND PUSH1 0x1 PUSH1 0x0 SWAP1 SLOAD SWAP1 PUSH2 0x100 EXP SWAP1 DIV PUSH20 0xFFFFFFFFFFFFFFFFFFFFFFFFFFFFFFFFFFFFFFFF AND PUSH20 0xFFFFFFFFFFFFFFFFFFFFFFFFFFFFFFFFFFFFFFFF AND EQ ISZERO ISZERO PUSH2 0x6C7 JUMPI PUSH1 0x0 DUP1 SWAP1 SLOAD SWAP1 PUSH2 0x100 EXP SWAP1 DIV PUSH20 0xFFFFFFFFFFFFFFFFFFFFFFFFFFFFFFFFFFFFFFFF AND PUSH20 0xFFFFFFFFFFFFFFFFFFFFFFFFFFFFFFFFFFFFFFFF AND PUSH4 0x38CC4831 PUSH1 0x40 MLOAD DUP2 PUSH4 0xFFFFFFFF AND PUSH29 0x100000000000000000000000000000000000000000000000000000000 MUL DUP2 MSTORE PUSH1 0x4 ADD PUSH1 0x20 PUSH1 0x40 MLOAD DUP1 DUP4 SUB DUP2 PUSH1 0x0 DUP8 DUP1 EXTCODESIZE ISZERO DUP1 ISZERO PUSH2 0x64B JUMPI PUSH1 0x0 DUP1 REVERT JUMPDEST POP GAS CALL ISZERO DUP1 ISZERO PUSH2 0x65F JUMPI RETURNDATASIZE PUSH1 0x0 DUP1 RETURNDATACOPY RETURNDATASIZE PUSH1 0x0 REVERT JUMPDEST POP POP POP POP PUSH1 0x40 MLOAD RETURNDATASIZE PUSH1 0x20 DUP2 LT ISZERO PUSH2 0x675 JUMPI PUSH1 0x0 DUP1 REVERT JUMPDEST DUP2 ADD SWAP1 DUP1 DUP1 MLOAD SWAP1 PUSH1 0x20 ADD SWAP1 SWAP3 SWAP2 SWAP1 POP POP POP PUSH1 0x1 PUSH1 0x0 PUSH2 0x100 EXP DUP2 SLOAD DUP2 PUSH20 0xFFFFFFFFFFFFFFFFFFFFFFFFFFFFFFFFFFFFFFFF MUL NOT AND SWAP1 DUP4 PUSH20 0xFFFFFFFFFFFFFFFFFFFFFFFFFFFFFFFFFFFFFFFF AND MUL OR SWAP1 SSTORE POP JUMPDEST PUSH1 0x1 PUSH1 0x0 SWAP1 SLOAD SWAP1 PUSH2 0x100 EXP SWAP1 DIV PUSH20 0xFFFFFFFFFFFFFFFFFFFFFFFFFFFFFFFFFFFFFFFF AND PUSH20 0xFFFFFFFFFFFFFFFFFFFFFFFFFFFFFFFFFFFFFFFF AND PUSH4 0x524F3889 DUP6 PUSH1 0x40 MLOAD DUP3 PUSH4 0xFFFFFFFF AND PUSH29 0x100000000000000000000000000000000000000000000000000000000 MUL DUP2 MSTORE PUSH1 0x4 ADD DUP1 DUP1 PUSH1 0x20 ADD DUP3 DUP2 SUB DUP3 MSTORE DUP4 DUP2 DUP2 MLOAD DUP2 MSTORE PUSH1 0x20 ADD SWAP2 POP DUP1 MLOAD SWAP1 PUSH1 0x20 ADD SWAP1 DUP1 DUP4 DUP4 PUSH1 0x0 JUMPDEST DUP4 DUP2 LT ISZERO PUSH2 0x771 JUMPI DUP1 DUP3 ADD MLOAD DUP2 DUP5 ADD MSTORE PUSH1 0x20 DUP2 ADD SWAP1 POP PUSH2 0x756 JUMP JUMPDEST POP POP POP POP SWAP1 POP SWAP1 DUP2 ADD SWAP1 PUSH1 0x1F AND DUP1 ISZERO PUSH2 0x79E JUMPI DUP1 DUP3 SUB DUP1 MLOAD PUSH1 0x1 DUP4 PUSH1 0x20 SUB PUSH2 0x100 EXP SUB NOT AND DUP2 MSTORE PUSH1 0x20 ADD SWAP2 POP JUMPDEST POP SWAP3 POP POP POP PUSH1 0x20 PUSH1 0x40 MLOAD DUP1 DUP4 SUB DUP2 PUSH1 0x0 DUP8 DUP1 EXTCODESIZE ISZERO DUP1 ISZERO PUSH2 0x7BD JUMPI PUSH1 0x0 DUP1 REVERT JUMPDEST POP GAS CALL ISZERO DUP1 ISZERO PUSH2 0x7D1 JUMPI RETURNDATASIZE PUSH1 0x0 DUP1 RETURNDATACOPY RETURNDATASIZE PUSH1 0x0 REVERT JUMPDEST POP POP POP POP PUSH1 0x40 MLOAD RETURNDATASIZE PUSH1 0x20 DUP2 LT ISZERO PUSH2 0x7E7 JUMPI PUSH1 0x0 DUP1 REVERT JUMPDEST DUP2 ADD SWAP1 DUP1 DUP1 MLOAD SWAP1 PUSH1 0x20 ADD SWAP1 SWAP3 SWAP2 SWAP1 POP POP POP SWAP1 POP PUSH3 0x30D40 GASPRICE MUL PUSH8 0xDE0B6B3A7640000 ADD DUP2 GT ISZERO PUSH2 0x81D JUMPI PUSH1 0x0 PUSH1 0x1 MUL SWAP2 POP PUSH2 0x9C8 JUMP JUMPDEST PUSH1 0x1 PUSH1 0x0 SWAP1 SLOAD SWAP1 PUSH2 0x100 EXP SWAP1 DIV PUSH20 0xFFFFFFFFFFFFFFFFFFFFFFFFFFFFFFFFFFFFFFFF AND PUSH20 0xFFFFFFFFFFFFFFFFFFFFFFFFFFFFFFFFFFFFFFFF AND PUSH4 0xADF59F99 DUP3 PUSH1 0x0 DUP8 DUP8 PUSH1 0x40 MLOAD DUP6 PUSH4 0xFFFFFFFF AND PUSH29 0x100000000000000000000000000000000000000000000000000000000 MUL DUP2 MSTORE PUSH1 0x4 ADD DUP1 DUP5 DUP2 MSTORE PUSH1 0x20 ADD DUP1 PUSH1 0x20 ADD DUP1 PUSH1 0x20 ADD DUP4 DUP2 SUB DUP4 MSTORE DUP6 DUP2 DUP2 MLOAD DUP2 MSTORE PUSH1 0x20 ADD SWAP2 POP DUP1 MLOAD SWAP1 PUSH1 0x20 ADD SWAP1 DUP1 DUP4 DUP4 PUSH1 0x0 JUMPDEST DUP4 DUP2 LT ISZERO PUSH2 0x8D5 JUMPI DUP1 DUP3 ADD MLOAD DUP2 DUP5 ADD MSTORE PUSH1 0x20 DUP2 ADD SWAP1 POP PUSH2 0x8BA JUMP JUMPDEST POP POP POP POP SWAP1 POP SWAP1 DUP2 ADD SWAP1 PUSH1 0x1F AND DUP1 ISZERO PUSH2 0x902 JUMPI DUP1 DUP3 SUB DUP1 MLOAD PUSH1 0x1 DUP4 PUSH1 0x20 SUB PUSH2 0x100 EXP SUB NOT AND DUP2 MSTORE PUSH1 0x20 ADD SWAP2 POP JUMPDEST POP DUP4 DUP2 SUB DUP3 MSTORE DUP5 DUP2 DUP2 MLOAD DUP2 MSTORE PUSH1 0x20 ADD SWAP2 POP DUP1 MLOAD SWAP1 PUSH1 0x20 ADD SWAP1 DUP1 DUP4 DUP4 PUSH1 0x0 JUMPDEST DUP4 DUP2 LT ISZERO PUSH2 0x93B JUMPI DUP1 DUP3 ADD MLOAD DUP2 DUP5 ADD MSTORE PUSH1 0x20 DUP2 ADD SWAP1 POP PUSH2 0x920 JUMP JUMPDEST POP POP POP POP SWAP1 POP SWAP1 DUP2 ADD SWAP1 PUSH1 0x1F AND DUP1 ISZERO PUSH2 0x968 JUMPI DUP1 DUP3 SUB DUP1 MLOAD PUSH1 0x1 DUP4 PUSH1 0x20 SUB PUSH2 0x100 EXP SUB NOT AND DUP2 MSTORE PUSH1 0x20 ADD SWAP2 POP JUMPDEST POP SWAP6 POP POP POP POP POP POP PUSH1 0x20 PUSH1 0x40 MLOAD DUP1 DUP4 SUB DUP2 DUP6 DUP9 DUP1 EXTCODESIZE ISZERO DUP1 ISZERO PUSH2 0x989 JUMPI PUSH1 0x0 DUP1 REVERT JUMPDEST POP GAS CALL ISZERO DUP1 ISZERO PUSH2 0x99D JUMPI RETURNDATASIZE PUSH1 0x0 DUP1 RETURNDATACOPY RETURNDATASIZE PUSH1 0x0 REVERT JUMPDEST POP POP POP POP POP PUSH1 0x40 MLOAD RETURNDATASIZE PUSH1 0x20 DUP2 LT ISZERO PUSH2 0x9B4 JUMPI PUSH1 0x0 DUP1 REVERT JUMPDEST DUP2 ADD SWAP1 DUP1 DUP1 MLOAD SWAP1 PUSH1 0x20 ADD SWAP1 SWAP3 SWAP2 SWAP1 POP POP POP SWAP2 POP JUMPDEST POP SWAP3 SWAP2 POP POP JUMP JUMPDEST PUSH1 0x0 DUP2 EXTCODESIZE SWAP1 POP SWAP2 SWAP1 POP JUMP JUMPDEST PUSH1 0x0 PUSH2 0x9E4 PUSH2 0x9EB JUMP JUMPDEST SWAP1 POP SWAP2 SWAP1 POP JUMP JUMPDEST PUSH1 0x0 DUP1 PUSH2 0xA0B PUSH20 0x1D3B2638A7CC9F2CB3D298A3DA7A90B67E5506ED PUSH2 0x9CF JUMP JUMPDEST GT ISZERO PUSH2 0xAAC JUMPI PUSH20 0x1D3B2638A7CC9F2CB3D298A3DA7A90B67E5506ED PUSH1 0x0 DUP1 PUSH2 0x100 EXP DUP2 SLOAD DUP2 PUSH20 0xFFFFFFFFFFFFFFFFFFFFFFFFFFFFFFFFFFFFFFFF MUL NOT AND SWAP1 DUP4 PUSH20 0xFFFFFFFFFFFFFFFFFFFFFFFFFFFFFFFFFFFFFFFF AND MUL OR SWAP1 SSTORE POP PUSH2 0xAA3 PUSH1 0x40 DUP1 MLOAD SWAP1 DUP2 ADD PUSH1 0x40 MSTORE DUP1 PUSH1 0xB DUP2 MSTORE PUSH1 0x20 ADD PUSH32 0x6574685F6D61696E6E6574000000000000000000000000000000000000000000 DUP2 MSTORE POP PUSH2 0x10BA JUMP JUMPDEST PUSH1 0x1 SWAP1 POP PUSH2 0x10B7 JUMP JUMPDEST PUSH1 0x0 PUSH2 0xACB PUSH20 0xC03A2615D5EFAF5F49F60B7BB6583EAEC212FDF1 PUSH2 0x9CF JUMP JUMPDEST GT ISZERO PUSH2 0xB6C JUMPI PUSH20 0xC03A2615D5EFAF5F49F60B7BB6583EAEC212FDF1 PUSH1 0x0 DUP1 PUSH2 0x100 EXP DUP2 SLOAD DUP2 PUSH20 0xFFFFFFFFFFFFFFFFFFFFFFFFFFFFFFFFFFFFFFFF MUL NOT AND SWAP1 DUP4 PUSH20 0xFFFFFFFFFFFFFFFFFFFFFFFFFFFFFFFFFFFFFFFF AND MUL OR SWAP1 SSTORE POP PUSH2 0xB63 PUSH1 0x40 DUP1 MLOAD SWAP1 DUP2 ADD PUSH1 0x40 MSTORE DUP1 PUSH1 0xC DUP2 MSTORE PUSH1 0x20 ADD PUSH32 0x6574685F726F707374656E330000000000000000000000000000000000000000 DUP2 MSTORE POP PUSH2 0x10BA JUMP JUMPDEST PUSH1 0x1 SWAP1 POP PUSH2 0x10B7 JUMP JUMPDEST PUSH1 0x0 PUSH2 0xB8B PUSH20 0xB7A07BCF2BA2F2703B24C0691B5278999C59AC7E PUSH2 0x9CF JUMP JUMPDEST GT ISZERO PUSH2 0xC2C JUMPI PUSH20 0xB7A07BCF2BA2F2703B24C0691B5278999C59AC7E PUSH1 0x0 DUP1 PUSH2 0x100 EXP DUP2 SLOAD DUP2 PUSH20 0xFFFFFFFFFFFFFFFFFFFFFFFFFFFFFFFFFFFFFFFF MUL NOT AND SWAP1 DUP4 PUSH20 0xFFFFFFFFFFFFFFFFFFFFFFFFFFFFFFFFFFFFFFFF AND MUL OR SWAP1 SSTORE POP PUSH2 0xC23 PUSH1 0x40 DUP1 MLOAD SWAP1 DUP2 ADD PUSH1 0x40 MSTORE DUP1 PUSH1 0x9 DUP2 MSTORE PUSH1 0x20 ADD PUSH32 0x6574685F6B6F76616E0000000000000000000000000000000000000000000000 DUP2 MSTORE POP PUSH2 0x10BA JUMP JUMPDEST PUSH1 0x1 SWAP1 POP PUSH2 0x10B7 JUMP JUMPDEST PUSH1 0x0 PUSH2 0xC4B PUSH20 0x146500CFD35B22E4A392FE0ADC06DE1A1368ED48 PUSH2 0x9CF JUMP JUMPDEST GT ISZERO PUSH2 0xCEC JUMPI PUSH20 0x146500CFD35B22E4A392FE0ADC06DE1A1368ED48 PUSH1 0x0 DUP1 PUSH2 0x100 EXP DUP2 SLOAD DUP2 PUSH20 0xFFFFFFFFFFFFFFFFFFFFFFFFFFFFFFFFFFFFFFFF MUL NOT AND SWAP1 DUP4 PUSH20 0xFFFFFFFFFFFFFFFFFFFFFFFFFFFFFFFFFFFFFFFF AND MUL OR SWAP1 SSTORE POP PUSH2 0xCE3 PUSH1 0x40 DUP1 MLOAD SWAP1 DUP2 ADD PUSH1 0x40 MSTORE DUP1 PUSH1 0xB DUP2 MSTORE PUSH1 0x20 ADD PUSH32 0x6574685F72696E6B656279000000000000000000000000000000000000000000 DUP2 MSTORE POP PUSH2 0x10BA JUMP JUMPDEST PUSH1 0x1 SWAP1 POP PUSH2 0x10B7 JUMP JUMPDEST PUSH1 0x0 PUSH2 0xD0B PUSH20 0xA2998EFD205FB9D4B4963AFB70778D6354AD3A41 PUSH2 0x9CF JUMP JUMPDEST GT ISZERO PUSH2 0xDAC JUMPI PUSH20 0xA2998EFD205FB9D4B4963AFB70778D6354AD3A41 PUSH1 0x0 DUP1 PUSH2 0x100 EXP DUP2 SLOAD DUP2 PUSH20 0xFFFFFFFFFFFFFFFFFFFFFFFFFFFFFFFFFFFFFFFF MUL NOT AND SWAP1 DUP4 PUSH20 0xFFFFFFFFFFFFFFFFFFFFFFFFFFFFFFFFFFFFFFFF AND MUL OR SWAP1 SSTORE POP PUSH2 0xDA3 PUSH1 0x40 DUP1 MLOAD SWAP1 DUP2 ADD PUSH1 0x40 MSTORE DUP1 PUSH1 0xA DUP2 MSTORE PUSH1 0x20 ADD PUSH32 0x6574685F676F65726C6900000000000000000000000000000000000000000000 DUP2 MSTORE POP PUSH2 0x10BA JUMP JUMPDEST PUSH1 0x1 SWAP1 POP PUSH2 0x10B7 JUMP JUMPDEST PUSH1 0x0 PUSH2 0xDCB PUSH20 0x90A0F94702C9630036FB9846B52BF31A1C991A84 PUSH2 0x9CF JUMP JUMPDEST GT ISZERO PUSH2 0xE6C JUMPI PUSH20 0x90A0F94702C9630036FB9846B52BF31A1C991A84 PUSH1 0x0 DUP1 PUSH2 0x100 EXP DUP2 SLOAD DUP2 PUSH20 0xFFFFFFFFFFFFFFFFFFFFFFFFFFFFFFFFFFFFFFFF MUL NOT AND SWAP1 DUP4 PUSH20 0xFFFFFFFFFFFFFFFFFFFFFFFFFFFFFFFFFFFFFFFF AND MUL OR SWAP1 SSTORE POP PUSH2 0xE63 PUSH1 0x40 DUP1 MLOAD SWAP1 DUP2 ADD PUSH1 0x40 MSTORE DUP1 PUSH1 0xB DUP2 MSTORE PUSH1 0x20 ADD PUSH32 0x6273635F6D61696E6E6574000000000000000000000000000000000000000000 DUP2 MSTORE POP PUSH2 0x10BA JUMP JUMPDEST PUSH1 0x1 SWAP1 POP PUSH2 0x10B7 JUMP JUMPDEST PUSH1 0x0 PUSH2 0xE8B PUSH20 0x816EC2AF1B56183F82F8C05759E99FEC3C3DE609 PUSH2 0x9CF JUMP JUMPDEST GT ISZERO PUSH2 0xF2C JUMPI PUSH20 0x816EC2AF1B56183F82F8C05759E99FEC3C3DE609 PUSH1 0x0 DUP1 PUSH2 0x100 EXP DUP2 SLOAD DUP2 PUSH20 0xFFFFFFFFFFFFFFFFFFFFFFFFFFFFFFFFFFFFFFFF MUL NOT AND SWAP1 DUP4 PUSH20 0xFFFFFFFFFFFFFFFFFFFFFFFFFFFFFFFFFFFFFFFF AND MUL OR SWAP1 SSTORE POP PUSH2 0xF23 PUSH1 0x40 DUP1 MLOAD SWAP1 DUP2 ADD PUSH1 0x40 MSTORE DUP1 PUSH1 0xF DUP2 MSTORE PUSH1 0x20 ADD PUSH32 0x706F6C79676F6E5F6D61696E6E65740000000000000000000000000000000000 DUP2 MSTORE POP PUSH2 0x10BA JUMP JUMPDEST PUSH1 0x1 SWAP1 POP PUSH2 0x10B7 JUMP JUMPDEST PUSH1 0x0 PUSH2 0xF4B PUSH20 0x6F485C8BF6FC43EA212E93BBF8CE046C7F1CB475 PUSH2 0x9CF JUMP JUMPDEST GT ISZERO PUSH2 0xFAE JUMPI PUSH20 0x6F485C8BF6FC43EA212E93BBF8CE046C7F1CB475 PUSH1 0x0 DUP1 PUSH2 0x100 EXP DUP2 SLOAD DUP2 PUSH20 0xFFFFFFFFFFFFFFFFFFFFFFFFFFFFFFFFFFFFFFFF MUL NOT AND SWAP1 DUP4 PUSH20 0xFFFFFFFFFFFFFFFFFFFFFFFFFFFFFFFFFFFFFFFF AND MUL OR SWAP1 SSTORE POP PUSH1 0x1 SWAP1 POP PUSH2 0x10B7 JUMP JUMPDEST PUSH1 0x0 PUSH2 0xFCD PUSH20 0x20E12A1F859B3FEAE5FB2A0A32C18F5A65555BBF PUSH2 0x9CF JUMP JUMPDEST GT ISZERO PUSH2 0x1030 JUMPI PUSH20 0x20E12A1F859B3FEAE5FB2A0A32C18F5A65555BBF PUSH1 0x0 DUP1 PUSH2 0x100 EXP DUP2 SLOAD DUP2 PUSH20 0xFFFFFFFFFFFFFFFFFFFFFFFFFFFFFFFFFFFFFFFF MUL NOT AND SWAP1 DUP4 PUSH20 0xFFFFFFFFFFFFFFFFFFFFFFFFFFFFFFFFFFFFFFFF AND MUL OR SWAP1 SSTORE POP PUSH1 0x1 SWAP1 POP PUSH2 0x10B7 JUMP JUMPDEST PUSH1 0x0 PUSH2 0x104F PUSH20 0x51EFAF4C8B3C9AFBD5AB9F4BBC82784AB6EF8FAA PUSH2 0x9CF JUMP JUMPDEST GT ISZERO PUSH2 0x10B2 JUMPI PUSH20 0x51EFAF4C8B3C9AFBD5AB9F4BBC82784AB6EF8FAA PUSH1 0x0 DUP1 PUSH2 0x100 EXP DUP2 SLOAD DUP2 PUSH20 0xFFFFFFFFFFFFFFFFFFFFFFFFFFFFFFFFFFFFFFFF MUL NOT AND SWAP1 DUP4 PUSH20 0xFFFFFFFFFFFFFFFFFFFFFFFFFFFFFFFFFFFFFFFF AND MUL OR SWAP1 SSTORE POP PUSH1 0x1 SWAP1 POP PUSH2 0x10B7 JUMP JUMPDEST PUSH1 0x0 SWAP1 POP JUMPDEST SWAP1 JUMP JUMPDEST DUP1 PUSH1 0x2 SWAP1 DUP1 MLOAD SWAP1 PUSH1 0x20 ADD SWAP1 PUSH2 0x10D0 SWAP3 SWAP2 SWAP1 PUSH2 0x10D4 JUMP JUMPDEST POP POP JUMP JUMPDEST DUP3 DUP1 SLOAD PUSH1 0x1 DUP2 PUSH1 0x1 AND ISZERO PUSH2 0x100 MUL SUB AND PUSH1 0x2 SWAP1 DIV SWAP1 PUSH1 0x0 MSTORE PUSH1 0x20 PUSH1 0x0 KECCAK256 SWAP1 PUSH1 0x1F ADD PUSH1 0x20 SWAP1 DIV DUP2 ADD SWAP3 DUP3 PUSH1 0x1F LT PUSH2 0x1115 JUMPI DUP1 MLOAD PUSH1 0xFF NOT AND DUP4 DUP1 ADD OR DUP6 SSTORE PUSH2 0x1143 JUMP JUMPDEST DUP3 DUP1 ADD PUSH1 0x1 ADD DUP6 SSTORE DUP3 ISZERO PUSH2 0x1143 JUMPI SWAP2 DUP3 ADD JUMPDEST DUP3 DUP2 GT ISZERO PUSH2 0x1142 JUMPI DUP3 MLOAD DUP3 SSTORE SWAP2 PUSH1 0x20 ADD SWAP2 SWAP1 PUSH1 0x1 ADD SWAP1 PUSH2 0x1127 JUMP JUMPDEST JUMPDEST POP SWAP1 POP PUSH2 0x1150 SWAP2 SWAP1 PUSH2 0x1154 JUMP JUMPDEST POP SWAP1 JUMP JUMPDEST PUSH2 0x1176 SWAP2 SWAP1 JUMPDEST DUP1 DUP3 GT ISZERO PUSH2 0x1172 JUMPI PUSH1 0x0 DUP2 PUSH1 0x0 SWAP1 SSTORE POP PUSH1 0x1 ADD PUSH2 0x115A JUMP JUMPDEST POP SWAP1 JUMP JUMPDEST SWAP1 JUMP STOP LOG1 PUSH6 0x627A7A723058 KECCAK256 0xcb 0x5f 0x28 0x26 0xc3 0xe2 0xc1 0xc7 0xce 0xe2 0xb4 0xe7 PUSH26 0x94277789BDB4C4EBE41FC3875A6D72638EF3CA00290000000000 "
				},
				"gasEstimates": {
					"creation": {
						"codeDepositCost": "903400",
						"executionCost": "3074",
						"totalCost": "906474"
					},
					"external": {
						"ETHUSD()": "infinite",
						"__callback(bytes32,string)": "infinite",
						"__callback(bytes32,string,bytes)": "infinite",
						"updatePrice()": "infinite"
					}
				},
				"methodIdentifiers": {
					"ETHUSD()": "73db0844",
					"__callback(bytes32,string)": "27dc297e",
					"__callback(bytes32,string,bytes)": "38bbfa50",
					"updatePrice()": "673a7e28"
				}
			},
			"userdoc": {
				"methods": {}
			}
		}
	}
}