{
	"web3oj/erc-20/erc-20-pausable.sol": {
		"Web3OJTPausable": {
			"abi": [
				{
					"inputs": [
						{
							"internalType": "address",
							"name": "_player",
							"type": "address"
						}
					],
					"stateMutability": "nonpayable",
					"type": "constructor"
				},
				{
					"anonymous": false,
					"inputs": [
						{
							"indexed": true,
							"internalType": "address",
							"name": "owner",
							"type": "address"
						},
						{
							"indexed": true,
							"internalType": "address",
							"name": "spender",
							"type": "address"
						},
						{
							"indexed": false,
							"internalType": "uint256",
							"name": "value",
							"type": "uint256"
						}
					],
					"name": "Approval",
					"type": "event"
				},
				{
					"anonymous": false,
					"inputs": [
						{
							"indexed": false,
							"internalType": "address",
							"name": "account",
							"type": "address"
						}
					],
					"name": "Paused",
					"type": "event"
				},
				{
					"anonymous": false,
					"inputs": [
						{
							"indexed": true,
							"internalType": "bytes32",
							"name": "role",
							"type": "bytes32"
						},
						{
							"indexed": true,
							"internalType": "bytes32",
							"name": "previousAdminRole",
							"type": "bytes32"
						},
						{
							"indexed": true,
							"internalType": "bytes32",
							"name": "newAdminRole",
							"type": "bytes32"
						}
					],
					"name": "RoleAdminChanged",
					"type": "event"
				},
				{
					"anonymous": false,
					"inputs": [
						{
							"indexed": true,
							"internalType": "bytes32",
							"name": "role",
							"type": "bytes32"
						},
						{
							"indexed": true,
							"internalType": "address",
							"name": "account",
							"type": "address"
						},
						{
							"indexed": true,
							"internalType": "address",
							"name": "sender",
							"type": "address"
						}
					],
					"name": "RoleGranted",
					"type": "event"
				},
				{
					"anonymous": false,
					"inputs": [
						{
							"indexed": true,
							"internalType": "bytes32",
							"name": "role",
							"type": "bytes32"
						},
						{
							"indexed": true,
							"internalType": "address",
							"name": "account",
							"type": "address"
						},
						{
							"indexed": true,
							"internalType": "address",
							"name": "sender",
							"type": "address"
						}
					],
					"name": "RoleRevoked",
					"type": "event"
				},
				{
					"anonymous": false,
					"inputs": [
						{
							"indexed": true,
							"internalType": "address",
							"name": "from",
							"type": "address"
						},
						{
							"indexed": true,
							"internalType": "address",
							"name": "to",
							"type": "address"
						},
						{
							"indexed": false,
							"internalType": "uint256",
							"name": "value",
							"type": "uint256"
						}
					],
					"name": "Transfer",
					"type": "event"
				},
				{
					"anonymous": false,
					"inputs": [
						{
							"indexed": false,
							"internalType": "address",
							"name": "account",
							"type": "address"
						}
					],
					"name": "Unpaused",
					"type": "event"
				},
				{
					"inputs": [],
					"name": "DEFAULT_ADMIN_ROLE",
					"outputs": [
						{
							"internalType": "bytes32",
							"name": "",
							"type": "bytes32"
						}
					],
					"stateMutability": "view",
					"type": "function"
				},
				{
					"inputs": [],
					"name": "PAUSER_ROLE",
					"outputs": [
						{
							"internalType": "bytes32",
							"name": "",
							"type": "bytes32"
						}
					],
					"stateMutability": "view",
					"type": "function"
				},
				{
					"inputs": [
						{
							"internalType": "address",
							"name": "owner",
							"type": "address"
						},
						{
							"internalType": "address",
							"name": "spender",
							"type": "address"
						}
					],
					"name": "allowance",
					"outputs": [
						{
							"internalType": "uint256",
							"name": "",
							"type": "uint256"
						}
					],
					"stateMutability": "view",
					"type": "function"
				},
				{
					"inputs": [
						{
							"internalType": "address",
							"name": "spender",
							"type": "address"
						},
						{
							"internalType": "uint256",
							"name": "amount",
							"type": "uint256"
						}
					],
					"name": "approve",
					"outputs": [
						{
							"internalType": "bool",
							"name": "",
							"type": "bool"
						}
					],
					"stateMutability": "nonpayable",
					"type": "function"
				},
				{
					"inputs": [
						{
							"internalType": "address",
							"name": "account",
							"type": "address"
						}
					],
					"name": "balanceOf",
					"outputs": [
						{
							"internalType": "uint256",
							"name": "",
							"type": "uint256"
						}
					],
					"stateMutability": "view",
					"type": "function"
				},
				{
					"inputs": [],
					"name": "decimals",
					"outputs": [
						{
							"internalType": "uint8",
							"name": "",
							"type": "uint8"
						}
					],
					"stateMutability": "view",
					"type": "function"
				},
				{
					"inputs": [
						{
							"internalType": "address",
							"name": "spender",
							"type": "address"
						},
						{
							"internalType": "uint256",
							"name": "subtractedValue",
							"type": "uint256"
						}
					],
					"name": "decreaseAllowance",
					"outputs": [
						{
							"internalType": "bool",
							"name": "",
							"type": "bool"
						}
					],
					"stateMutability": "nonpayable",
					"type": "function"
				},
				{
					"inputs": [
						{
							"internalType": "bytes32",
							"name": "role",
							"type": "bytes32"
						}
					],
					"name": "getRoleAdmin",
					"outputs": [
						{
							"internalType": "bytes32",
							"name": "",
							"type": "bytes32"
						}
					],
					"stateMutability": "view",
					"type": "function"
				},
				{
					"inputs": [
						{
							"internalType": "bytes32",
							"name": "role",
							"type": "bytes32"
						},
						{
							"internalType": "address",
							"name": "account",
							"type": "address"
						}
					],
					"name": "grantRole",
					"outputs": [],
					"stateMutability": "nonpayable",
					"type": "function"
				},
				{
					"inputs": [
						{
							"internalType": "bytes32",
							"name": "role",
							"type": "bytes32"
						},
						{
							"internalType": "address",
							"name": "account",
							"type": "address"
						}
					],
					"name": "hasRole",
					"outputs": [
						{
							"internalType": "bool",
							"name": "",
							"type": "bool"
						}
					],
					"stateMutability": "view",
					"type": "function"
				},
				{
					"inputs": [
						{
							"internalType": "address",
							"name": "spender",
							"type": "address"
						},
						{
							"internalType": "uint256",
							"name": "addedValue",
							"type": "uint256"
						}
					],
					"name": "increaseAllowance",
					"outputs": [
						{
							"internalType": "bool",
							"name": "",
							"type": "bool"
						}
					],
					"stateMutability": "nonpayable",
					"type": "function"
				},
				{
					"inputs": [],
					"name": "name",
					"outputs": [
						{
							"internalType": "string",
							"name": "",
							"type": "string"
						}
					],
					"stateMutability": "view",
					"type": "function"
				},
				{
					"inputs": [],
					"name": "pause",
					"outputs": [],
					"stateMutability": "nonpayable",
					"type": "function"
				},
				{
					"inputs": [],
					"name": "paused",
					"outputs": [
						{
							"internalType": "bool",
							"name": "",
							"type": "bool"
						}
					],
					"stateMutability": "view",
					"type": "function"
				},
				{
					"inputs": [
						{
							"internalType": "bytes32",
							"name": "role",
							"type": "bytes32"
						},
						{
							"internalType": "address",
							"name": "account",
							"type": "address"
						}
					],
					"name": "renounceRole",
					"outputs": [],
					"stateMutability": "nonpayable",
					"type": "function"
				},
				{
					"inputs": [
						{
							"internalType": "bytes32",
							"name": "role",
							"type": "bytes32"
						},
						{
							"internalType": "address",
							"name": "account",
							"type": "address"
						}
					],
					"name": "revokeRole",
					"outputs": [],
					"stateMutability": "nonpayable",
					"type": "function"
				},
				{
					"inputs": [
						{
							"internalType": "bytes4",
							"name": "interfaceId",
							"type": "bytes4"
						}
					],
					"name": "supportsInterface",
					"outputs": [
						{
							"internalType": "bool",
							"name": "",
							"type": "bool"
						}
					],
					"stateMutability": "view",
					"type": "function"
				},
				{
					"inputs": [],
					"name": "symbol",
					"outputs": [
						{
							"internalType": "string",
							"name": "",
							"type": "string"
						}
					],
					"stateMutability": "view",
					"type": "function"
				},
				{
					"inputs": [],
					"name": "totalSupply",
					"outputs": [
						{
							"internalType": "uint256",
							"name": "",
							"type": "uint256"
						}
					],
					"stateMutability": "view",
					"type": "function"
				},
				{
					"inputs": [
						{
							"internalType": "address",
							"name": "to",
							"type": "address"
						},
						{
							"internalType": "uint256",
							"name": "amount",
							"type": "uint256"
						}
					],
					"name": "transfer",
					"outputs": [
						{
							"internalType": "bool",
							"name": "",
							"type": "bool"
						}
					],
					"stateMutability": "nonpayable",
					"type": "function"
				},
				{
					"inputs": [
						{
							"internalType": "address",
							"name": "from",
							"type": "address"
						},
						{
							"internalType": "address",
							"name": "to",
							"type": "address"
						},
						{
							"internalType": "uint256",
							"name": "amount",
							"type": "uint256"
						}
					],
					"name": "transferFrom",
					"outputs": [
						{
							"internalType": "bool",
							"name": "",
							"type": "bool"
						}
					],
					"stateMutability": "nonpayable",
					"type": "function"
				},
				{
					"inputs": [],
					"name": "unpause",
					"outputs": [],
					"stateMutability": "nonpayable",
					"type": "function"
				}
			],
			"devdoc": {
				"kind": "dev",
				"methods": {
					"allowance(address,address)": {
						"details": "See {IERC20-allowance}."
					},
					"approve(address,uint256)": {
						"details": "See {IERC20-approve}. NOTE: If `amount` is the maximum `uint256`, the allowance is not updated on `transferFrom`. This is semantically equivalent to an infinite approval. Requirements: - `spender` cannot be the zero address."
					},
					"balanceOf(address)": {
						"details": "See {IERC20-balanceOf}."
					},
					"decimals()": {
						"details": "Returns the number of decimals used to get its user representation. For example, if `decimals` equals `2`, a balance of `505` tokens should be displayed to a user as `5.05` (`505 / 10 ** 2`). Tokens usually opt for a value of 18, imitating the relationship between Ether and Wei. This is the value {ERC20} uses, unless this function is overridden; NOTE: This information is only used for _display_ purposes: it in no way affects any of the arithmetic of the contract, including {IERC20-balanceOf} and {IERC20-transfer}."
					},
					"decreaseAllowance(address,uint256)": {
						"details": "Atomically decreases the allowance granted to `spender` by the caller. This is an alternative to {approve} that can be used as a mitigation for problems described in {IERC20-approve}. Emits an {Approval} event indicating the updated allowance. Requirements: - `spender` cannot be the zero address. - `spender` must have allowance for the caller of at least `subtractedValue`."
					},
					"getRoleAdmin(bytes32)": {
						"details": "Returns the admin role that controls `role`. See {grantRole} and {revokeRole}. To change a role's admin, use {_setRoleAdmin}."
					},
					"grantRole(bytes32,address)": {
						"details": "Grants `role` to `account`. If `account` had not been already granted `role`, emits a {RoleGranted} event. Requirements: - the caller must have ``role``'s admin role. May emit a {RoleGranted} event."
					},
					"hasRole(bytes32,address)": {
						"details": "Returns `true` if `account` has been granted `role`."
					},
					"increaseAllowance(address,uint256)": {
						"details": "Atomically increases the allowance granted to `spender` by the caller. This is an alternative to {approve} that can be used as a mitigation for problems described in {IERC20-approve}. Emits an {Approval} event indicating the updated allowance. Requirements: - `spender` cannot be the zero address."
					},
					"name()": {
						"details": "Returns the name of the token."
					},
					"paused()": {
						"details": "Returns true if the contract is paused, and false otherwise."
					},
					"renounceRole(bytes32,address)": {
						"details": "Revokes `role` from the calling account. Roles are often managed via {grantRole} and {revokeRole}: this function's purpose is to provide a mechanism for accounts to lose their privileges if they are compromised (such as when a trusted device is misplaced). If the calling account had been revoked `role`, emits a {RoleRevoked} event. Requirements: - the caller must be `account`. May emit a {RoleRevoked} event."
					},
					"revokeRole(bytes32,address)": {
						"details": "Revokes `role` from `account`. If `account` had been granted `role`, emits a {RoleRevoked} event. Requirements: - the caller must have ``role``'s admin role. May emit a {RoleRevoked} event."
					},
					"supportsInterface(bytes4)": {
						"details": "See {IERC165-supportsInterface}."
					},
					"symbol()": {
						"details": "Returns the symbol of the token, usually a shorter version of the name."
					},
					"totalSupply()": {
						"details": "See {IERC20-totalSupply}."
					},
					"transfer(address,uint256)": {
						"details": "See {IERC20-transfer}. Requirements: - `to` cannot be the zero address. - the caller must have a balance of at least `amount`."
					},
					"transferFrom(address,address,uint256)": {
						"details": "See {IERC20-transferFrom}. Emits an {Approval} event indicating the updated allowance. This is not required by the EIP. See the note at the beginning of {ERC20}. NOTE: Does not update the allowance if the current allowance is the maximum `uint256`. Requirements: - `from` and `to` cannot be the zero address. - `from` must have a balance of at least `amount`. - the caller must have allowance for ``from``'s tokens of at least `amount`."
					}
				},
				"version": 1
			},
			"evm": {
				"assembly": "    /* \"web3oj/erc-20/erc-20-pausable.sol\":229:954  contract Web3OJTPausable is ERC20, Pausable, AccessControl {... */\n  mstore(0x40, 0x80)\n    /* \"web3oj/erc-20/erc-20-pausable.sol\":363:595  constructor(address _player) ERC20(\"Web3 Online Judge Token\", \"WEB3OJT\") {... */\n  callvalue\n  dup1\n  iszero\n  tag_1\n  jumpi\n  0x00\n  dup1\n  revert\ntag_1:\n  pop\n  mload(0x40)\n  sub(codesize, bytecodeSize)\n  dup1\n  bytecodeSize\n  dup4\n  codecopy\n  dup2\n  dup2\n  add\n  0x40\n  mstore\n  dup2\n  add\n  swap1\n  tag_2\n  swap2\n  swap1\n  tag_3\n  jump\t// in\ntag_2:\n    /* \"@openzeppelin/contracts/token/ERC20/ERC20.sol\":1978:2091  constructor(string memory name_, string memory symbol_) {... */\n  mload(0x40)\n  dup1\n  0x40\n  add\n  0x40\n  mstore\n  dup1\n  0x17\n  dup2\n  mstore\n  0x20\n  add\n  0x57656233204f6e6c696e65204a7564676520546f6b656e000000000000000000\n  dup2\n  mstore\n  pop\n  mload(0x40)\n  dup1\n  0x40\n  add\n  0x40\n  mstore\n  dup1\n  0x07\n  dup2\n  mstore\n  0x20\n  add\n  0x574542334f4a5400000000000000000000000000000000000000000000000000\n  dup2\n  mstore\n  pop\n    /* \"@openzeppelin/contracts/token/ERC20/ERC20.sol\":2052:2057  name_ */\n  dup2\n    /* \"@openzeppelin/contracts/token/ERC20/ERC20.sol\":2044:2049  _name */\n  0x03\n    /* \"@openzeppelin/contracts/token/ERC20/ERC20.sol\":2044:2057  _name = name_ */\n  swap1\n  dup1\n  mload\n  swap1\n  0x20\n  add\n  swap1\n  tag_8\n  swap3\n  swap2\n  swap1\n  tag_9\n  jump\t// in\ntag_8:\n  pop\n    /* \"@openzeppelin/contracts/token/ERC20/ERC20.sol\":2077:2084  symbol_ */\n  dup1\n    /* \"@openzeppelin/contracts/token/ERC20/ERC20.sol\":2067:2074  _symbol */\n  0x04\n    /* \"@openzeppelin/contracts/token/ERC20/ERC20.sol\":2067:2084  _symbol = symbol_ */\n  swap1\n  dup1\n  mload\n  swap1\n  0x20\n  add\n  swap1\n  tag_10\n  swap3\n  swap2\n  swap1\n  tag_9\n  jump\t// in\ntag_10:\n  pop\n    /* \"@openzeppelin/contracts/token/ERC20/ERC20.sol\":1978:2091  constructor(string memory name_, string memory symbol_) {... */\n  pop\n  pop\n    /* \"@openzeppelin/contracts/security/Pausable.sol\":1006:1011  false */\n  0x00\n    /* \"@openzeppelin/contracts/security/Pausable.sol\":996:1003  _paused */\n  0x05\n  0x00\n    /* \"@openzeppelin/contracts/security/Pausable.sol\":996:1011  _paused = false */\n  0x0100\n  exp\n  dup2\n  sload\n  dup2\n  0xff\n  mul\n  not\n  and\n  swap1\n  dup4\n  iszero\n  iszero\n  mul\n  or\n  swap1\n  sstore\n  pop\n    /* \"web3oj/erc-20/erc-20-pausable.sol\":446:488  _grantRole(DEFAULT_ADMIN_ROLE, msg.sender) */\n  tag_13\n    /* \"@openzeppelin/contracts/access/AccessControl.sol\":2072:2076  0x00 */\n  0x00\n    /* \"web3oj/erc-20/erc-20-pausable.sol\":457:475  DEFAULT_ADMIN_ROLE */\n  dup1\n  shl\n    /* \"web3oj/erc-20/erc-20-pausable.sol\":477:487  msg.sender */\n  caller\n    /* \"web3oj/erc-20/erc-20-pausable.sol\":446:456  _grantRole */\n  shl(0x20, tag_14)\n    /* \"web3oj/erc-20/erc-20-pausable.sol\":446:488  _grantRole(DEFAULT_ADMIN_ROLE, msg.sender) */\n  0x20\n  shr\n  jump\t// in\ntag_13:\n    /* \"web3oj/erc-20/erc-20-pausable.sol\":498:530  _grantRole(PAUSER_ROLE, _player) */\n  tag_15\n    /* \"web3oj/erc-20/erc-20-pausable.sol\":332:356  keccak256(\"PAUSER_ROLE\") */\n  0x65d7a28e3265b37a6474929f336521b332c1681b933f6cb9f3376673440d862a\n    /* \"web3oj/erc-20/erc-20-pausable.sol\":522:529  _player */\n  dup3\n    /* \"web3oj/erc-20/erc-20-pausable.sol\":498:508  _grantRole */\n  shl(0x20, tag_14)\n    /* \"web3oj/erc-20/erc-20-pausable.sol\":498:530  _grantRole(PAUSER_ROLE, _player) */\n  0x20\n  shr\n  jump\t// in\ntag_15:\n    /* \"web3oj/erc-20/erc-20-pausable.sol\":540:588  _mint(msg.sender, 2000000000 * 10 ** decimals()) */\n  tag_16\n    /* \"web3oj/erc-20/erc-20-pausable.sol\":546:556  msg.sender */\n  caller\n    /* \"web3oj/erc-20/erc-20-pausable.sol\":577:587  decimals() */\n  tag_17\n    /* \"web3oj/erc-20/erc-20-pausable.sol\":577:585  decimals */\n  shl(0x20, tag_18)\n    /* \"web3oj/erc-20/erc-20-pausable.sol\":577:587  decimals() */\n  0x20\n  shr\n  jump\t// in\ntag_17:\n    /* \"web3oj/erc-20/erc-20-pausable.sol\":571:573  10 */\n  0x0a\n    /* \"web3oj/erc-20/erc-20-pausable.sol\":571:587  10 ** decimals() */\n  tag_19\n  swap2\n  swap1\n  tag_20\n  jump\t// in\ntag_19:\n    /* \"web3oj/erc-20/erc-20-pausable.sol\":558:568  2000000000 */\n  0x77359400\n    /* \"web3oj/erc-20/erc-20-pausable.sol\":558:587  2000000000 * 10 ** decimals() */\n  tag_21\n  swap2\n  swap1\n  tag_22\n  jump\t// in\ntag_21:\n    /* \"web3oj/erc-20/erc-20-pausable.sol\":540:545  _mint */\n  shl(0x20, tag_23)\n    /* \"web3oj/erc-20/erc-20-pausable.sol\":540:588  _mint(msg.sender, 2000000000 * 10 ** decimals()) */\n  0x20\n  shr\n  jump\t// in\ntag_16:\n    /* \"web3oj/erc-20/erc-20-pausable.sol\":363:595  constructor(address _player) ERC20(\"Web3 Online Judge Token\", \"WEB3OJT\") {... */\n  pop\n    /* \"web3oj/erc-20/erc-20-pausable.sol\":229:954  contract Web3OJTPausable is ERC20, Pausable, AccessControl {... */\n  jump(tag_24)\n    /* \"@openzeppelin/contracts/access/AccessControl.sol\":7474:7707  function _grantRole(bytes32 role, address account) internal virtual {... */\ntag_14:\n    /* \"@openzeppelin/contracts/access/AccessControl.sol\":7557:7579  hasRole(role, account) */\n  tag_26\n    /* \"@openzeppelin/contracts/access/AccessControl.sol\":7565:7569  role */\n  dup3\n    /* \"@openzeppelin/contracts/access/AccessControl.sol\":7571:7578  account */\n  dup3\n    /* \"@openzeppelin/contracts/access/AccessControl.sol\":7557:7564  hasRole */\n  shl(0x20, tag_27)\n    /* \"@openzeppelin/contracts/access/AccessControl.sol\":7557:7579  hasRole(role, account) */\n  0x20\n  shr\n  jump\t// in\ntag_26:\n    /* \"@openzeppelin/contracts/access/AccessControl.sol\":7552:7701  if (!hasRole(role, account)) {... */\n  tag_28\n  jumpi\n    /* \"@openzeppelin/contracts/access/AccessControl.sol\":7627:7631  true */\n  0x01\n    /* \"@openzeppelin/contracts/access/AccessControl.sol\":7595:7601  _roles */\n  0x06\n    /* \"@openzeppelin/contracts/access/AccessControl.sol\":7595:7607  _roles[role] */\n  0x00\n    /* \"@openzeppelin/contracts/access/AccessControl.sol\":7602:7606  role */\n  dup5\n    /* \"@openzeppelin/contracts/access/AccessControl.sol\":7595:7607  _roles[role] */\n  dup2\n  mstore\n  0x20\n  add\n  swap1\n  dup2\n  mstore\n  0x20\n  add\n  0x00\n  keccak256\n    /* \"@openzeppelin/contracts/access/AccessControl.sol\":7595:7615  _roles[role].members */\n  0x00\n  add\n    /* \"@openzeppelin/contracts/access/AccessControl.sol\":7595:7624  _roles[role].members[account] */\n  0x00\n    /* \"@openzeppelin/contracts/access/AccessControl.sol\":7616:7623  account */\n  dup4\n    /* \"@openzeppelin/contracts/access/AccessControl.sol\":7595:7624  _roles[role].members[account] */\n  0xffffffffffffffffffffffffffffffffffffffff\n  and\n  0xffffffffffffffffffffffffffffffffffffffff\n  and\n  dup2\n  mstore\n  0x20\n  add\n  swap1\n  dup2\n  mstore\n  0x20\n  add\n  0x00\n  keccak256\n  0x00\n    /* \"@openzeppelin/contracts/access/AccessControl.sol\":7595:7631  _roles[role].members[account] = true */\n  0x0100\n  exp\n  dup2\n  sload\n  dup2\n  0xff\n  mul\n  not\n  and\n  swap1\n  dup4\n  iszero\n  iszero\n  mul\n  or\n  swap1\n  sstore\n  pop\n    /* \"@openzeppelin/contracts/access/AccessControl.sol\":7677:7689  _msgSender() */\n  tag_29\n    /* \"@openzeppelin/contracts/access/AccessControl.sol\":7677:7687  _msgSender */\n  shl(0x20, tag_30)\n    /* \"@openzeppelin/contracts/access/AccessControl.sol\":7677:7689  _msgSender() */\n  0x20\n  shr\n  jump\t// in\ntag_29:\n    /* \"@openzeppelin/contracts/access/AccessControl.sol\":7650:7690  RoleGranted(role, account, _msgSender()) */\n  0xffffffffffffffffffffffffffffffffffffffff\n  and\n    /* \"@openzeppelin/contracts/access/AccessControl.sol\":7668:7675  account */\n  dup2\n    /* \"@openzeppelin/contracts/access/AccessControl.sol\":7650:7690  RoleGranted(role, account, _msgSender()) */\n  0xffffffffffffffffffffffffffffffffffffffff\n  and\n    /* \"@openzeppelin/contracts/access/AccessControl.sol\":7662:7666  role */\n  dup4\n    /* \"@openzeppelin/contracts/access/AccessControl.sol\":7650:7690  RoleGranted(role, account, _msgSender()) */\n  0x2f8788117e7eff1d82e926ec794901d17c78024a50270940304540a733656f0d\n  mload(0x40)\n  mload(0x40)\n  dup1\n  swap2\n  sub\n  swap1\n  log4\n    /* \"@openzeppelin/contracts/access/AccessControl.sol\":7552:7701  if (!hasRole(role, account)) {... */\ntag_28:\n    /* \"@openzeppelin/contracts/access/AccessControl.sol\":7474:7707  function _grantRole(bytes32 role, address account) internal virtual {... */\n  pop\n  pop\n  jump\t// out\n    /* \"@openzeppelin/contracts/token/ERC20/ERC20.sol\":3093:3184  function decimals() public view virtual override returns (uint8) {... */\ntag_18:\n    /* \"@openzeppelin/contracts/token/ERC20/ERC20.sol\":3151:3156  uint8 */\n  0x00\n    /* \"@openzeppelin/contracts/token/ERC20/ERC20.sol\":3175:3177  18 */\n  0x12\n    /* \"@openzeppelin/contracts/token/ERC20/ERC20.sol\":3168:3177  return 18 */\n  swap1\n  pop\n    /* \"@openzeppelin/contracts/token/ERC20/ERC20.sol\":3093:3184  function decimals() public view virtual override returns (uint8) {... */\n  swap1\n  jump\t// out\n    /* \"@openzeppelin/contracts/token/ERC20/ERC20.sol\":8402:8791  function _mint(address account, uint256 amount) internal virtual {... */\ntag_23:\n    /* \"@openzeppelin/contracts/token/ERC20/ERC20.sol\":8504:8505  0 */\n  0x00\n    /* \"@openzeppelin/contracts/token/ERC20/ERC20.sol\":8485:8506  account != address(0) */\n  0xffffffffffffffffffffffffffffffffffffffff\n  and\n    /* \"@openzeppelin/contracts/token/ERC20/ERC20.sol\":8485:8492  account */\n  dup3\n    /* \"@openzeppelin/contracts/token/ERC20/ERC20.sol\":8485:8506  account != address(0) */\n  0xffffffffffffffffffffffffffffffffffffffff\n  and\n  eq\n  iszero\n    /* \"@openzeppelin/contracts/token/ERC20/ERC20.sol\":8477:8542  require(account != address(0), \"ERC20: mint to the zero address\") */\n  tag_33\n  jumpi\n  mload(0x40)\n  0x08c379a000000000000000000000000000000000000000000000000000000000\n  dup2\n  mstore\n  0x04\n  add\n  tag_34\n  swap1\n  tag_35\n  jump\t// in\ntag_34:\n  mload(0x40)\n  dup1\n  swap2\n  sub\n  swap1\n  revert\ntag_33:\n    /* \"@openzeppelin/contracts/token/ERC20/ERC20.sol\":8553:8602  _beforeTokenTransfer(address(0), account, amount) */\n  tag_36\n    /* \"@openzeppelin/contracts/token/ERC20/ERC20.sol\":8582:8583  0 */\n  0x00\n    /* \"@openzeppelin/contracts/token/ERC20/ERC20.sol\":8586:8593  account */\n  dup4\n    /* \"@openzeppelin/contracts/token/ERC20/ERC20.sol\":8595:8601  amount */\n  dup4\n    /* \"@openzeppelin/contracts/token/ERC20/ERC20.sol\":8553:8573  _beforeTokenTransfer */\n  shl(0x20, tag_37)\n    /* \"@openzeppelin/contracts/token/ERC20/ERC20.sol\":8553:8602  _beforeTokenTransfer(address(0), account, amount) */\n  0x20\n  shr\n  jump\t// in\ntag_36:\n    /* \"@openzeppelin/contracts/token/ERC20/ERC20.sol\":8629:8635  amount */\n  dup1\n    /* \"@openzeppelin/contracts/token/ERC20/ERC20.sol\":8613:8625  _totalSupply */\n  0x02\n  0x00\n    /* \"@openzeppelin/contracts/token/ERC20/ERC20.sol\":8613:8635  _totalSupply += amount */\n  dup3\n  dup3\n  sload\n  tag_38\n  swap2\n  swap1\n  tag_39\n  jump\t// in\ntag_38:\n  swap3\n  pop\n  pop\n  dup2\n  swap1\n  sstore\n  pop\n    /* \"@openzeppelin/contracts/token/ERC20/ERC20.sol\":8667:8673  amount */\n  dup1\n    /* \"@openzeppelin/contracts/token/ERC20/ERC20.sol\":8645:8654  _balances */\n  0x00\n    /* \"@openzeppelin/contracts/token/ERC20/ERC20.sol\":8645:8663  _balances[account] */\n  dup1\n    /* \"@openzeppelin/contracts/token/ERC20/ERC20.sol\":8655:8662  account */\n  dup5\n    /* \"@openzeppelin/contracts/token/ERC20/ERC20.sol\":8645:8663  _balances[account] */\n  0xffffffffffffffffffffffffffffffffffffffff\n  and\n  0xffffffffffffffffffffffffffffffffffffffff\n  and\n  dup2\n  mstore\n  0x20\n  add\n  swap1\n  dup2\n  mstore\n  0x20\n  add\n  0x00\n  keccak256\n  0x00\n    /* \"@openzeppelin/contracts/token/ERC20/ERC20.sol\":8645:8673  _balances[account] += amount */\n  dup3\n  dup3\n  sload\n  tag_40\n  swap2\n  swap1\n  tag_39\n  jump\t// in\ntag_40:\n  swap3\n  pop\n  pop\n  dup2\n  swap1\n  sstore\n  pop\n    /* \"@openzeppelin/contracts/token/ERC20/ERC20.sol\":8709:8716  account */\n  dup2\n    /* \"@openzeppelin/contracts/token/ERC20/ERC20.sol\":8688:8725  Transfer(address(0), account, amount) */\n  0xffffffffffffffffffffffffffffffffffffffff\n  and\n    /* \"@openzeppelin/contracts/token/ERC20/ERC20.sol\":8705:8706  0 */\n  0x00\n    /* \"@openzeppelin/contracts/token/ERC20/ERC20.sol\":8688:8725  Transfer(address(0), account, amount) */\n  0xffffffffffffffffffffffffffffffffffffffff\n  and\n  0xddf252ad1be2c89b69c2b068fc378daa952ba7f163c4a11628f55a4df523b3ef\n    /* \"@openzeppelin/contracts/token/ERC20/ERC20.sol\":8718:8724  amount */\n  dup4\n    /* \"@openzeppelin/contracts/token/ERC20/ERC20.sol\":8688:8725  Transfer(address(0), account, amount) */\n  mload(0x40)\n  tag_41\n  swap2\n  swap1\n  tag_42\n  jump\t// in\ntag_41:\n  mload(0x40)\n  dup1\n  swap2\n  sub\n  swap1\n  log3\n    /* \"@openzeppelin/contracts/token/ERC20/ERC20.sol\":8736:8784  _afterTokenTransfer(address(0), account, amount) */\n  tag_43\n    /* \"@openzeppelin/contracts/token/ERC20/ERC20.sol\":8764:8765  0 */\n  0x00\n    /* \"@openzeppelin/contracts/token/ERC20/ERC20.sol\":8768:8775  account */\n  dup4\n    /* \"@openzeppelin/contracts/token/ERC20/ERC20.sol\":8777:8783  amount */\n  dup4\n    /* \"@openzeppelin/contracts/token/ERC20/ERC20.sol\":8736:8755  _afterTokenTransfer */\n  shl(0x20, tag_44)\n    /* \"@openzeppelin/contracts/token/ERC20/ERC20.sol\":8736:8784  _afterTokenTransfer(address(0), account, amount) */\n  0x20\n  shr\n  jump\t// in\ntag_43:\n    /* \"@openzeppelin/contracts/token/ERC20/ERC20.sol\":8402:8791  function _mint(address account, uint256 amount) internal virtual {... */\n  pop\n  pop\n  jump\t// out\n    /* \"@openzeppelin/contracts/access/AccessControl.sol\":2895:3040  function hasRole(bytes32 role, address account) public view virtual override returns (bool) {... */\ntag_27:\n    /* \"@openzeppelin/contracts/access/AccessControl.sol\":2981:2985  bool */\n  0x00\n    /* \"@openzeppelin/contracts/access/AccessControl.sol\":3004:3010  _roles */\n  0x06\n    /* \"@openzeppelin/contracts/access/AccessControl.sol\":3004:3016  _roles[role] */\n  0x00\n    /* \"@openzeppelin/contracts/access/AccessControl.sol\":3011:3015  role */\n  dup5\n    /* \"@openzeppelin/contracts/access/AccessControl.sol\":3004:3016  _roles[role] */\n  dup2\n  mstore\n  0x20\n  add\n  swap1\n  dup2\n  mstore\n  0x20\n  add\n  0x00\n  keccak256\n    /* \"@openzeppelin/contracts/access/AccessControl.sol\":3004:3024  _roles[role].members */\n  0x00\n  add\n    /* \"@openzeppelin/contracts/access/AccessControl.sol\":3004:3033  _roles[role].members[account] */\n  0x00\n    /* \"@openzeppelin/contracts/access/AccessControl.sol\":3025:3032  account */\n  dup4\n    /* \"@openzeppelin/contracts/access/AccessControl.sol\":3004:3033  _roles[role].members[account] */\n  0xffffffffffffffffffffffffffffffffffffffff\n  and\n  0xffffffffffffffffffffffffffffffffffffffff\n  and\n  dup2\n  mstore\n  0x20\n  add\n  swap1\n  dup2\n  mstore\n  0x20\n  add\n  0x00\n  keccak256\n  0x00\n  swap1\n  sload\n  swap1\n  0x0100\n  exp\n  swap1\n  div\n  0xff\n  and\n    /* \"@openzeppelin/contracts/access/AccessControl.sol\":2997:3033  return _roles[role].members[account] */\n  swap1\n  pop\n    /* \"@openzeppelin/contracts/access/AccessControl.sol\":2895:3040  function hasRole(bytes32 role, address account) public view virtual override returns (bool) {... */\n  swap3\n  swap2\n  pop\n  pop\n  jump\t// out\n    /* \"@openzeppelin/contracts/utils/Context.sol\":640:736  function _msgSender() internal view virtual returns (address) {... */\ntag_30:\n    /* \"@openzeppelin/contracts/utils/Context.sol\":693:700  address */\n  0x00\n    /* \"@openzeppelin/contracts/utils/Context.sol\":719:729  msg.sender */\n  caller\n    /* \"@openzeppelin/contracts/utils/Context.sol\":712:729  return msg.sender */\n  swap1\n  pop\n    /* \"@openzeppelin/contracts/utils/Context.sol\":640:736  function _msgSender() internal view virtual returns (address) {... */\n  swap1\n  jump\t// out\n    /* \"web3oj/erc-20/erc-20-pausable.sol\":759:952  function _beforeTokenTransfer(address from, address to, uint256 amount)... */\ntag_37:\n    /* \"@openzeppelin/contracts/security/Pausable.sol\":1239:1258  _requireNotPaused() */\n  tag_48\n    /* \"@openzeppelin/contracts/security/Pausable.sol\":1239:1256  _requireNotPaused */\n  shl(0x20, tag_49)\n    /* \"@openzeppelin/contracts/security/Pausable.sol\":1239:1258  _requireNotPaused() */\n  0x20\n  shr\n  jump\t// in\ntag_48:\n    /* \"web3oj/erc-20/erc-20-pausable.sol\":901:945  super._beforeTokenTransfer(from, to, amount) */\n  tag_51\n    /* \"web3oj/erc-20/erc-20-pausable.sol\":928:932  from */\n  dup4\n    /* \"web3oj/erc-20/erc-20-pausable.sol\":934:936  to */\n  dup4\n    /* \"web3oj/erc-20/erc-20-pausable.sol\":938:944  amount */\n  dup4\n    /* \"web3oj/erc-20/erc-20-pausable.sol\":901:927  super._beforeTokenTransfer */\n  or(tag_0_114, shl(0x20, tag_52))\n    /* \"web3oj/erc-20/erc-20-pausable.sol\":901:945  super._beforeTokenTransfer(from, to, amount) */\n  0x20\n  shr\n  jump\t// in\ntag_51:\n    /* \"web3oj/erc-20/erc-20-pausable.sol\":759:952  function _beforeTokenTransfer(address from, address to, uint256 amount)... */\n  pop\n  pop\n  pop\n  jump\t// out\n    /* \"@openzeppelin/contracts/token/ERC20/ERC20.sol\":12495:12615  function _afterTokenTransfer(... */\ntag_44:\n  pop\n  pop\n  pop\n  jump\t// out\n    /* \"@openzeppelin/contracts/security/Pausable.sol\":1767:1873  function _requireNotPaused() internal view virtual {... */\ntag_49:\n    /* \"@openzeppelin/contracts/security/Pausable.sol\":1837:1845  paused() */\n  tag_55\n    /* \"@openzeppelin/contracts/security/Pausable.sol\":1837:1843  paused */\n  shl(0x20, tag_56)\n    /* \"@openzeppelin/contracts/security/Pausable.sol\":1837:1845  paused() */\n  0x20\n  shr\n  jump\t// in\ntag_55:\n    /* \"@openzeppelin/contracts/security/Pausable.sol\":1836:1845  !paused() */\n  iszero\n    /* \"@openzeppelin/contracts/security/Pausable.sol\":1828:1866  require(!paused(), \"Pausable: paused\") */\n  tag_57\n  jumpi\n  mload(0x40)\n  0x08c379a000000000000000000000000000000000000000000000000000000000\n  dup2\n  mstore\n  0x04\n  add\n  tag_58\n  swap1\n  tag_59\n  jump\t// in\ntag_58:\n  mload(0x40)\n  dup1\n  swap2\n  sub\n  swap1\n  revert\ntag_57:\n    /* \"@openzeppelin/contracts/security/Pausable.sol\":1767:1873  function _requireNotPaused() internal view virtual {... */\n  jump\t// out\n    /* \"@openzeppelin/contracts/token/ERC20/ERC20.sol\":11786:11907  function _beforeTokenTransfer(... */\ntag_52:\n  pop\n  pop\n  pop\n  jump\t// out\n    /* \"@openzeppelin/contracts/security/Pausable.sol\":1615:1699  function paused() public view virtual returns (bool) {... */\ntag_56:\n    /* \"@openzeppelin/contracts/security/Pausable.sol\":1662:1666  bool */\n  0x00\n    /* \"@openzeppelin/contracts/security/Pausable.sol\":1685:1692  _paused */\n  0x05\n  0x00\n  swap1\n  sload\n  swap1\n  0x0100\n  exp\n  swap1\n  div\n  0xff\n  and\n    /* \"@openzeppelin/contracts/security/Pausable.sol\":1678:1692  return _paused */\n  swap1\n  pop\n    /* \"@openzeppelin/contracts/security/Pausable.sol\":1615:1699  function paused() public view virtual returns (bool) {... */\n  swap1\n  jump\t// out\n    /* \"web3oj/erc-20/erc-20-pausable.sol\":229:954  contract Web3OJTPausable is ERC20, Pausable, AccessControl {... */\ntag_9:\n  dup3\n  dup1\n  sload\n  tag_62\n  swap1\n  tag_63\n  jump\t// in\ntag_62:\n  swap1\n  0x00\n  mstore\n  keccak256(0x00, 0x20)\n  swap1\n  0x1f\n  add\n  0x20\n  swap1\n  div\n  dup2\n  add\n  swap3\n  dup3\n  tag_65\n  jumpi\n  0x00\n  dup6\n  sstore\n  jump(tag_64)\ntag_65:\n  dup3\n  0x1f\n  lt\n  tag_66\n  jumpi\n  dup1\n  mload\n  not(0xff)\n  and\n  dup4\n  dup1\n  add\n  or\n  dup6\n  sstore\n  jump(tag_64)\ntag_66:\n  dup3\n  dup1\n  add\n  0x01\n  add\n  dup6\n  sstore\n  dup3\n  iszero\n  tag_64\n  jumpi\n  swap2\n  dup3\n  add\ntag_67:\n  dup3\n  dup2\n  gt\n  iszero\n  tag_68\n  jumpi\n  dup3\n  mload\n  dup3\n  sstore\n  swap2\n  0x20\n  add\n  swap2\n  swap1\n  0x01\n  add\n  swap1\n  jump(tag_67)\ntag_68:\ntag_64:\n  pop\n  swap1\n  pop\n  tag_69\n  swap2\n  swap1\n  tag_70\n  jump\t// in\ntag_69:\n  pop\n  swap1\n  jump\t// out\ntag_70:\ntag_71:\n  dup1\n  dup3\n  gt\n  iszero\n  tag_72\n  jumpi\n  0x00\n  dup2\n  0x00\n  swap1\n  sstore\n  pop\n  0x01\n  add\n  jump(tag_71)\ntag_72:\n  pop\n  swap1\n  jump\t// out\n    /* \"#utility.yul\":7:150   */\ntag_74:\n    /* \"#utility.yul\":64:69   */\n  0x00\n    /* \"#utility.yul\":95:101   */\n  dup2\n    /* \"#utility.yul\":89:102   */\n  mload\n    /* \"#utility.yul\":80:102   */\n  swap1\n  pop\n    /* \"#utility.yul\":111:144   */\n  tag_76\n    /* \"#utility.yul\":138:143   */\n  dup2\n    /* \"#utility.yul\":111:144   */\n  tag_77\n  jump\t// in\ntag_76:\n    /* \"#utility.yul\":7:150   */\n  swap3\n  swap2\n  pop\n  pop\n  jump\t// out\n    /* \"#utility.yul\":156:507   */\ntag_3:\n    /* \"#utility.yul\":226:232   */\n  0x00\n    /* \"#utility.yul\":275:277   */\n  0x20\n    /* \"#utility.yul\":263:272   */\n  dup3\n    /* \"#utility.yul\":254:261   */\n  dup5\n    /* \"#utility.yul\":250:273   */\n  sub\n    /* \"#utility.yul\":246:278   */\n  slt\n    /* \"#utility.yul\":243:362   */\n  iszero\n  tag_79\n  jumpi\n    /* \"#utility.yul\":281:360   */\n  tag_80\n  tag_81\n  jump\t// in\ntag_80:\n    /* \"#utility.yul\":243:362   */\ntag_79:\n    /* \"#utility.yul\":401:402   */\n  0x00\n    /* \"#utility.yul\":426:490   */\n  tag_82\n    /* \"#utility.yul\":482:489   */\n  dup5\n    /* \"#utility.yul\":473:479   */\n  dup3\n    /* \"#utility.yul\":462:471   */\n  dup6\n    /* \"#utility.yul\":458:480   */\n  add\n    /* \"#utility.yul\":426:490   */\n  tag_74\n  jump\t// in\ntag_82:\n    /* \"#utility.yul\":416:490   */\n  swap2\n  pop\n    /* \"#utility.yul\":372:500   */\n  pop\n    /* \"#utility.yul\":156:507   */\n  swap3\n  swap2\n  pop\n  pop\n  jump\t// out\n    /* \"#utility.yul\":513:879   */\ntag_83:\n    /* \"#utility.yul\":655:658   */\n  0x00\n    /* \"#utility.yul\":676:743   */\n  tag_85\n    /* \"#utility.yul\":740:742   */\n  0x10\n    /* \"#utility.yul\":735:738   */\n  dup4\n    /* \"#utility.yul\":676:743   */\n  tag_86\n  jump\t// in\ntag_85:\n    /* \"#utility.yul\":669:743   */\n  swap2\n  pop\n    /* \"#utility.yul\":752:845   */\n  tag_87\n    /* \"#utility.yul\":841:844   */\n  dup3\n    /* \"#utility.yul\":752:845   */\n  tag_88\n  jump\t// in\ntag_87:\n    /* \"#utility.yul\":870:872   */\n  0x20\n    /* \"#utility.yul\":865:868   */\n  dup3\n    /* \"#utility.yul\":861:873   */\n  add\n    /* \"#utility.yul\":854:873   */\n  swap1\n  pop\n    /* \"#utility.yul\":513:879   */\n  swap2\n  swap1\n  pop\n  jump\t// out\n    /* \"#utility.yul\":885:1251   */\ntag_89:\n    /* \"#utility.yul\":1027:1030   */\n  0x00\n    /* \"#utility.yul\":1048:1115   */\n  tag_91\n    /* \"#utility.yul\":1112:1114   */\n  0x1f\n    /* \"#utility.yul\":1107:1110   */\n  dup4\n    /* \"#utility.yul\":1048:1115   */\n  tag_86\n  jump\t// in\ntag_91:\n    /* \"#utility.yul\":1041:1115   */\n  swap2\n  pop\n    /* \"#utility.yul\":1124:1217   */\n  tag_92\n    /* \"#utility.yul\":1213:1216   */\n  dup3\n    /* \"#utility.yul\":1124:1217   */\n  tag_93\n  jump\t// in\ntag_92:\n    /* \"#utility.yul\":1242:1244   */\n  0x20\n    /* \"#utility.yul\":1237:1240   */\n  dup3\n    /* \"#utility.yul\":1233:1245   */\n  add\n    /* \"#utility.yul\":1226:1245   */\n  swap1\n  pop\n    /* \"#utility.yul\":885:1251   */\n  swap2\n  swap1\n  pop\n  jump\t// out\n    /* \"#utility.yul\":1257:1375   */\ntag_94:\n    /* \"#utility.yul\":1344:1368   */\n  tag_96\n    /* \"#utility.yul\":1362:1367   */\n  dup2\n    /* \"#utility.yul\":1344:1368   */\n  tag_97\n  jump\t// in\ntag_96:\n    /* \"#utility.yul\":1339:1342   */\n  dup3\n    /* \"#utility.yul\":1332:1369   */\n  mstore\n    /* \"#utility.yul\":1257:1375   */\n  pop\n  pop\n  jump\t// out\n    /* \"#utility.yul\":1381:1800   */\ntag_59:\n    /* \"#utility.yul\":1547:1551   */\n  0x00\n    /* \"#utility.yul\":1585:1587   */\n  0x20\n    /* \"#utility.yul\":1574:1583   */\n  dup3\n    /* \"#utility.yul\":1570:1588   */\n  add\n    /* \"#utility.yul\":1562:1588   */\n  swap1\n  pop\n    /* \"#utility.yul\":1634:1643   */\n  dup2\n    /* \"#utility.yul\":1628:1632   */\n  dup2\n    /* \"#utility.yul\":1624:1644   */\n  sub\n    /* \"#utility.yul\":1620:1621   */\n  0x00\n    /* \"#utility.yul\":1609:1618   */\n  dup4\n    /* \"#utility.yul\":1605:1622   */\n  add\n    /* \"#utility.yul\":1598:1645   */\n  mstore\n    /* \"#utility.yul\":1662:1793   */\n  tag_99\n    /* \"#utility.yul\":1788:1792   */\n  dup2\n    /* \"#utility.yul\":1662:1793   */\n  tag_83\n  jump\t// in\ntag_99:\n    /* \"#utility.yul\":1654:1793   */\n  swap1\n  pop\n    /* \"#utility.yul\":1381:1800   */\n  swap2\n  swap1\n  pop\n  jump\t// out\n    /* \"#utility.yul\":1806:2225   */\ntag_35:\n    /* \"#utility.yul\":1972:1976   */\n  0x00\n    /* \"#utility.yul\":2010:2012   */\n  0x20\n    /* \"#utility.yul\":1999:2008   */\n  dup3\n    /* \"#utility.yul\":1995:2013   */\n  add\n    /* \"#utility.yul\":1987:2013   */\n  swap1\n  pop\n    /* \"#utility.yul\":2059:2068   */\n  dup2\n    /* \"#utility.yul\":2053:2057   */\n  dup2\n    /* \"#utility.yul\":2049:2069   */\n  sub\n    /* \"#utility.yul\":2045:2046   */\n  0x00\n    /* \"#utility.yul\":2034:2043   */\n  dup4\n    /* \"#utility.yul\":2030:2047   */\n  add\n    /* \"#utility.yul\":2023:2070   */\n  mstore\n    /* \"#utility.yul\":2087:2218   */\n  tag_101\n    /* \"#utility.yul\":2213:2217   */\n  dup2\n    /* \"#utility.yul\":2087:2218   */\n  tag_89\n  jump\t// in\ntag_101:\n    /* \"#utility.yul\":2079:2218   */\n  swap1\n  pop\n    /* \"#utility.yul\":1806:2225   */\n  swap2\n  swap1\n  pop\n  jump\t// out\n    /* \"#utility.yul\":2231:2453   */\ntag_42:\n    /* \"#utility.yul\":2324:2328   */\n  0x00\n    /* \"#utility.yul\":2362:2364   */\n  0x20\n    /* \"#utility.yul\":2351:2360   */\n  dup3\n    /* \"#utility.yul\":2347:2365   */\n  add\n    /* \"#utility.yul\":2339:2365   */\n  swap1\n  pop\n    /* \"#utility.yul\":2375:2446   */\n  tag_103\n    /* \"#utility.yul\":2443:2444   */\n  0x00\n    /* \"#utility.yul\":2432:2441   */\n  dup4\n    /* \"#utility.yul\":2428:2445   */\n  add\n    /* \"#utility.yul\":2419:2425   */\n  dup5\n    /* \"#utility.yul\":2375:2446   */\n  tag_94\n  jump\t// in\ntag_103:\n    /* \"#utility.yul\":2231:2453   */\n  swap3\n  swap2\n  pop\n  pop\n  jump\t// out\n    /* \"#utility.yul\":2540:2709   */\ntag_86:\n    /* \"#utility.yul\":2624:2635   */\n  0x00\n    /* \"#utility.yul\":2658:2664   */\n  dup3\n    /* \"#utility.yul\":2653:2656   */\n  dup3\n    /* \"#utility.yul\":2646:2665   */\n  mstore\n    /* \"#utility.yul\":2698:2702   */\n  0x20\n    /* \"#utility.yul\":2693:2696   */\n  dup3\n    /* \"#utility.yul\":2689:2703   */\n  add\n    /* \"#utility.yul\":2674:2703   */\n  swap1\n  pop\n    /* \"#utility.yul\":2540:2709   */\n  swap3\n  swap2\n  pop\n  pop\n  jump\t// out\n    /* \"#utility.yul\":2715:3020   */\ntag_39:\n    /* \"#utility.yul\":2755:2758   */\n  0x00\n    /* \"#utility.yul\":2774:2794   */\n  tag_108\n    /* \"#utility.yul\":2792:2793   */\n  dup3\n    /* \"#utility.yul\":2774:2794   */\n  tag_97\n  jump\t// in\ntag_108:\n    /* \"#utility.yul\":2769:2794   */\n  swap2\n  pop\n    /* \"#utility.yul\":2808:2828   */\n  tag_109\n    /* \"#utility.yul\":2826:2827   */\n  dup4\n    /* \"#utility.yul\":2808:2828   */\n  tag_97\n  jump\t// in\ntag_109:\n    /* \"#utility.yul\":2803:2828   */\n  swap3\n  pop\n    /* \"#utility.yul\":2962:2963   */\n  dup3\n    /* \"#utility.yul\":2894:2960   */\n  0xffffffffffffffffffffffffffffffffffffffffffffffffffffffffffffffff\n    /* \"#utility.yul\":2890:2964   */\n  sub\n    /* \"#utility.yul\":2887:2888   */\n  dup3\n    /* \"#utility.yul\":2884:2965   */\n  gt\n    /* \"#utility.yul\":2881:2988   */\n  iszero\n  tag_110\n  jumpi\n    /* \"#utility.yul\":2968:2986   */\n  tag_111\n  tag_112\n  jump\t// in\ntag_111:\n    /* \"#utility.yul\":2881:2988   */\ntag_110:\n    /* \"#utility.yul\":3012:3013   */\n  dup3\n    /* \"#utility.yul\":3009:3010   */\n  dup3\n    /* \"#utility.yul\":3005:3014   */\n  add\n    /* \"#utility.yul\":2998:3014   */\n  swap1\n  pop\n    /* \"#utility.yul\":2715:3020   */\n  swap3\n  swap2\n  pop\n  pop\n  jump\t// out\n    /* \"#utility.yul\":3026:3874   */\ntag_113:\n    /* \"#utility.yul\":3087:3092   */\n  0x00\n    /* \"#utility.yul\":3094:3098   */\n  dup1\n    /* \"#utility.yul\":3118:3124   */\n  dup3\n    /* \"#utility.yul\":3109:3124   */\n  swap2\n  pop\n    /* \"#utility.yul\":3142:3147   */\n  dup4\n    /* \"#utility.yul\":3133:3147   */\n  swap1\n  pop\n    /* \"#utility.yul\":3156:3868   */\ntag_115:\n    /* \"#utility.yul\":3177:3178   */\n  0x01\n    /* \"#utility.yul\":3167:3175   */\n  dup6\n    /* \"#utility.yul\":3164:3179   */\n  gt\n    /* \"#utility.yul\":3156:3868   */\n  iszero\n  tag_117\n  jumpi\n    /* \"#utility.yul\":3272:3276   */\n  dup1\n    /* \"#utility.yul\":3267:3270   */\n  dup7\n    /* \"#utility.yul\":3263:3277   */\n  div\n    /* \"#utility.yul\":3257:3261   */\n  dup2\n    /* \"#utility.yul\":3254:3278   */\n  gt\n    /* \"#utility.yul\":3251:3301   */\n  iszero\n  tag_118\n  jumpi\n    /* \"#utility.yul\":3281:3299   */\n  tag_119\n  tag_112\n  jump\t// in\ntag_119:\n    /* \"#utility.yul\":3251:3301   */\ntag_118:\n    /* \"#utility.yul\":3331:3332   */\n  0x01\n    /* \"#utility.yul\":3321:3329   */\n  dup6\n    /* \"#utility.yul\":3317:3333   */\n  and\n    /* \"#utility.yul\":3314:3765   */\n  iszero\n  tag_120\n  jumpi\n    /* \"#utility.yul\":3746:3750   */\n  dup1\n    /* \"#utility.yul\":3739:3744   */\n  dup3\n    /* \"#utility.yul\":3735:3751   */\n  mul\n    /* \"#utility.yul\":3726:3751   */\n  swap2\n  pop\n    /* \"#utility.yul\":3314:3765   */\ntag_120:\n    /* \"#utility.yul\":3796:3800   */\n  dup1\n    /* \"#utility.yul\":3790:3794   */\n  dup2\n    /* \"#utility.yul\":3786:3801   */\n  mul\n    /* \"#utility.yul\":3778:3801   */\n  swap1\n  pop\n    /* \"#utility.yul\":3826:3858   */\n  tag_121\n    /* \"#utility.yul\":3849:3857   */\n  dup6\n    /* \"#utility.yul\":3826:3858   */\n  tag_122\n  jump\t// in\ntag_121:\n    /* \"#utility.yul\":3814:3858   */\n  swap5\n  pop\n    /* \"#utility.yul\":3156:3868   */\n  jump(tag_115)\ntag_117:\n    /* \"#utility.yul\":3026:3874   */\n  swap5\n  pop\n  swap5\n  swap3\n  pop\n  pop\n  pop\n  jump\t// out\n    /* \"#utility.yul\":3880:4161   */\ntag_20:\n    /* \"#utility.yul\":3938:3943   */\n  0x00\n    /* \"#utility.yul\":3962:3985   */\n  tag_124\n    /* \"#utility.yul\":3980:3984   */\n  dup3\n    /* \"#utility.yul\":3962:3985   */\n  tag_97\n  jump\t// in\ntag_124:\n    /* \"#utility.yul\":3954:3985   */\n  swap2\n  pop\n    /* \"#utility.yul\":4006:4031   */\n  tag_125\n    /* \"#utility.yul\":4022:4030   */\n  dup4\n    /* \"#utility.yul\":4006:4031   */\n  tag_126\n  jump\t// in\ntag_125:\n    /* \"#utility.yul\":3994:4031   */\n  swap3\n  pop\n    /* \"#utility.yul\":4050:4154   */\n  tag_127\n    /* \"#utility.yul\":4087:4153   */\n  0xffffffffffffffffffffffffffffffffffffffffffffffffffffffffffffffff\n    /* \"#utility.yul\":4077:4085   */\n  dup5\n    /* \"#utility.yul\":4071:4075   */\n  dup5\n    /* \"#utility.yul\":4050:4154   */\n  tag_128\n  jump\t// in\ntag_127:\n    /* \"#utility.yul\":4041:4154   */\n  swap1\n  pop\n    /* \"#utility.yul\":3880:4161   */\n  swap3\n  swap2\n  pop\n  pop\n  jump\t// out\n    /* \"#utility.yul\":4167:5240   */\ntag_128:\n    /* \"#utility.yul\":4221:4226   */\n  0x00\n    /* \"#utility.yul\":4412:4420   */\n  dup3\n    /* \"#utility.yul\":4402:4442   */\n  tag_130\n  jumpi\n    /* \"#utility.yul\":4433:4434   */\n  0x01\n    /* \"#utility.yul\":4424:4434   */\n  swap1\n  pop\n    /* \"#utility.yul\":4435:4440   */\n  jump(tag_129)\n    /* \"#utility.yul\":4402:4442   */\ntag_130:\n    /* \"#utility.yul\":4461:4465   */\n  dup2\n    /* \"#utility.yul\":4451:4487   */\n  tag_131\n  jumpi\n    /* \"#utility.yul\":4478:4479   */\n  0x00\n    /* \"#utility.yul\":4469:4479   */\n  swap1\n  pop\n    /* \"#utility.yul\":4480:4485   */\n  jump(tag_129)\n    /* \"#utility.yul\":4451:4487   */\ntag_131:\n    /* \"#utility.yul\":4547:4551   */\n  dup2\n    /* \"#utility.yul\":4595:4596   */\n  0x01\n    /* \"#utility.yul\":4590:4617   */\n  dup2\n  eq\n  tag_133\n  jumpi\n    /* \"#utility.yul\":4631:4632   */\n  0x02\n    /* \"#utility.yul\":4626:4817   */\n  dup2\n  eq\n  tag_134\n  jumpi\n    /* \"#utility.yul\":4540:4817   */\n  jump(tag_132)\n    /* \"#utility.yul\":4590:4617   */\ntag_133:\n    /* \"#utility.yul\":4608:4609   */\n  0x01\n    /* \"#utility.yul\":4599:4609   */\n  swap2\n  pop\n    /* \"#utility.yul\":4610:4615   */\n  pop\n  jump(tag_129)\n    /* \"#utility.yul\":4626:4817   */\ntag_134:\n    /* \"#utility.yul\":4671:4674   */\n  0xff\n    /* \"#utility.yul\":4661:4669   */\n  dup5\n    /* \"#utility.yul\":4658:4675   */\n  gt\n    /* \"#utility.yul\":4655:4698   */\n  iszero\n  tag_135\n  jumpi\n    /* \"#utility.yul\":4678:4696   */\n  tag_136\n  tag_112\n  jump\t// in\ntag_136:\n    /* \"#utility.yul\":4655:4698   */\ntag_135:\n    /* \"#utility.yul\":4727:4735   */\n  dup4\n    /* \"#utility.yul\":4724:4725   */\n  0x02\n    /* \"#utility.yul\":4720:4736   */\n  exp\n    /* \"#utility.yul\":4711:4736   */\n  swap2\n  pop\n    /* \"#utility.yul\":4762:4765   */\n  dup5\n    /* \"#utility.yul\":4755:4760   */\n  dup3\n    /* \"#utility.yul\":4752:4766   */\n  gt\n    /* \"#utility.yul\":4749:4789   */\n  iszero\n  tag_137\n  jumpi\n    /* \"#utility.yul\":4769:4787   */\n  tag_138\n  tag_112\n  jump\t// in\ntag_138:\n    /* \"#utility.yul\":4749:4789   */\ntag_137:\n    /* \"#utility.yul\":4802:4807   */\n  pop\n  jump(tag_129)\n    /* \"#utility.yul\":4540:4817   */\ntag_132:\n  pop\n    /* \"#utility.yul\":4926:4928   */\n  0x20\n    /* \"#utility.yul\":4916:4924   */\n  dup4\n    /* \"#utility.yul\":4913:4929   */\n  lt\n    /* \"#utility.yul\":4907:4910   */\n  0x0133\n    /* \"#utility.yul\":4901:4905   */\n  dup4\n    /* \"#utility.yul\":4898:4911   */\n  lt\n    /* \"#utility.yul\":4894:4930   */\n  and\n    /* \"#utility.yul\":4876:4878   */\n  0x4e\n    /* \"#utility.yul\":4866:4874   */\n  dup5\n    /* \"#utility.yul\":4863:4879   */\n  lt\n    /* \"#utility.yul\":4858:4860   */\n  0x0b\n    /* \"#utility.yul\":4852:4856   */\n  dup5\n    /* \"#utility.yul\":4849:4861   */\n  lt\n    /* \"#utility.yul\":4845:4880   */\n  and\n    /* \"#utility.yul\":4829:4940   */\n  or\n    /* \"#utility.yul\":4826:5072   */\n  iszero\n  tag_139\n  jumpi\n    /* \"#utility.yul\":4982:4990   */\n  dup3\n    /* \"#utility.yul\":4976:4980   */\n  dup3\n    /* \"#utility.yul\":4972:4991   */\n  exp\n    /* \"#utility.yul\":4963:4991   */\n  swap1\n  pop\n    /* \"#utility.yul\":5017:5020   */\n  dup4\n    /* \"#utility.yul\":5010:5015   */\n  dup2\n    /* \"#utility.yul\":5007:5021   */\n  gt\n    /* \"#utility.yul\":5004:5044   */\n  iszero\n  tag_140\n  jumpi\n    /* \"#utility.yul\":5024:5042   */\n  tag_141\n  tag_112\n  jump\t// in\ntag_141:\n    /* \"#utility.yul\":5004:5044   */\ntag_140:\n    /* \"#utility.yul\":5057:5062   */\n  jump(tag_129)\n    /* \"#utility.yul\":4826:5072   */\ntag_139:\n    /* \"#utility.yul\":5097:5139   */\n  tag_142\n    /* \"#utility.yul\":5135:5138   */\n  dup5\n    /* \"#utility.yul\":5125:5133   */\n  dup5\n    /* \"#utility.yul\":5119:5123   */\n  dup5\n    /* \"#utility.yul\":5116:5117   */\n  0x01\n    /* \"#utility.yul\":5097:5139   */\n  tag_113\n  jump\t// in\ntag_142:\n    /* \"#utility.yul\":5082:5139   */\n  swap3\n  pop\n  swap1\n  pop\n    /* \"#utility.yul\":5171:5175   */\n  dup2\n    /* \"#utility.yul\":5166:5169   */\n  dup5\n    /* \"#utility.yul\":5162:5176   */\n  div\n    /* \"#utility.yul\":5155:5160   */\n  dup2\n    /* \"#utility.yul\":5152:5177   */\n  gt\n    /* \"#utility.yul\":5149:5200   */\n  iszero\n  tag_143\n  jumpi\n    /* \"#utility.yul\":5180:5198   */\n  tag_144\n  tag_112\n  jump\t// in\ntag_144:\n    /* \"#utility.yul\":5149:5200   */\ntag_143:\n    /* \"#utility.yul\":5229:5233   */\n  dup2\n    /* \"#utility.yul\":5222:5227   */\n  dup2\n    /* \"#utility.yul\":5218:5234   */\n  mul\n    /* \"#utility.yul\":5209:5234   */\n  swap1\n  pop\n    /* \"#utility.yul\":4167:5240   */\ntag_129:\n  swap4\n  swap3\n  pop\n  pop\n  pop\n  jump\t// out\n    /* \"#utility.yul\":5246:5594   */\ntag_22:\n    /* \"#utility.yul\":5286:5293   */\n  0x00\n    /* \"#utility.yul\":5309:5329   */\n  tag_146\n    /* \"#utility.yul\":5327:5328   */\n  dup3\n    /* \"#utility.yul\":5309:5329   */\n  tag_97\n  jump\t// in\ntag_146:\n    /* \"#utility.yul\":5304:5329   */\n  swap2\n  pop\n    /* \"#utility.yul\":5343:5363   */\n  tag_147\n    /* \"#utility.yul\":5361:5362   */\n  dup4\n    /* \"#utility.yul\":5343:5363   */\n  tag_97\n  jump\t// in\ntag_147:\n    /* \"#utility.yul\":5338:5363   */\n  swap3\n  pop\n    /* \"#utility.yul\":5531:5532   */\n  dup2\n    /* \"#utility.yul\":5463:5529   */\n  0xffffffffffffffffffffffffffffffffffffffffffffffffffffffffffffffff\n    /* \"#utility.yul\":5459:5533   */\n  div\n    /* \"#utility.yul\":5456:5457   */\n  dup4\n    /* \"#utility.yul\":5453:5534   */\n  gt\n    /* \"#utility.yul\":5448:5449   */\n  dup3\n    /* \"#utility.yul\":5441:5450   */\n  iszero\n    /* \"#utility.yul\":5434:5451   */\n  iszero\n    /* \"#utility.yul\":5430:5535   */\n  and\n    /* \"#utility.yul\":5427:5558   */\n  iszero\n  tag_148\n  jumpi\n    /* \"#utility.yul\":5538:5556   */\n  tag_149\n  tag_112\n  jump\t// in\ntag_149:\n    /* \"#utility.yul\":5427:5558   */\ntag_148:\n    /* \"#utility.yul\":5586:5587   */\n  dup3\n    /* \"#utility.yul\":5583:5584   */\n  dup3\n    /* \"#utility.yul\":5579:5588   */\n  mul\n    /* \"#utility.yul\":5568:5588   */\n  swap1\n  pop\n    /* \"#utility.yul\":5246:5594   */\n  swap3\n  swap2\n  pop\n  pop\n  jump\t// out\n    /* \"#utility.yul\":5600:5696   */\ntag_150:\n    /* \"#utility.yul\":5637:5644   */\n  0x00\n    /* \"#utility.yul\":5666:5690   */\n  tag_152\n    /* \"#utility.yul\":5684:5689   */\n  dup3\n    /* \"#utility.yul\":5666:5690   */\n  tag_153\n  jump\t// in\ntag_152:\n    /* \"#utility.yul\":5655:5690   */\n  swap1\n  pop\n    /* \"#utility.yul\":5600:5696   */\n  swap2\n  swap1\n  pop\n  jump\t// out\n    /* \"#utility.yul\":5702:5828   */\ntag_153:\n    /* \"#utility.yul\":5739:5746   */\n  0x00\n    /* \"#utility.yul\":5779:5821   */\n  0xffffffffffffffffffffffffffffffffffffffff\n    /* \"#utility.yul\":5772:5777   */\n  dup3\n    /* \"#utility.yul\":5768:5822   */\n  and\n    /* \"#utility.yul\":5757:5822   */\n  swap1\n  pop\n    /* \"#utility.yul\":5702:5828   */\n  swap2\n  swap1\n  pop\n  jump\t// out\n    /* \"#utility.yul\":5834:5911   */\ntag_97:\n    /* \"#utility.yul\":5871:5878   */\n  0x00\n    /* \"#utility.yul\":5900:5905   */\n  dup2\n    /* \"#utility.yul\":5889:5905   */\n  swap1\n  pop\n    /* \"#utility.yul\":5834:5911   */\n  swap2\n  swap1\n  pop\n  jump\t// out\n    /* \"#utility.yul\":5917:6003   */\ntag_126:\n    /* \"#utility.yul\":5952:5959   */\n  0x00\n    /* \"#utility.yul\":5992:5996   */\n  0xff\n    /* \"#utility.yul\":5985:5990   */\n  dup3\n    /* \"#utility.yul\":5981:5997   */\n  and\n    /* \"#utility.yul\":5970:5997   */\n  swap1\n  pop\n    /* \"#utility.yul\":5917:6003   */\n  swap2\n  swap1\n  pop\n  jump\t// out\n    /* \"#utility.yul\":6009:6329   */\ntag_63:\n    /* \"#utility.yul\":6053:6059   */\n  0x00\n    /* \"#utility.yul\":6090:6091   */\n  0x02\n    /* \"#utility.yul\":6084:6088   */\n  dup3\n    /* \"#utility.yul\":6080:6092   */\n  div\n    /* \"#utility.yul\":6070:6092   */\n  swap1\n  pop\n    /* \"#utility.yul\":6137:6138   */\n  0x01\n    /* \"#utility.yul\":6131:6135   */\n  dup3\n    /* \"#utility.yul\":6127:6139   */\n  and\n    /* \"#utility.yul\":6158:6176   */\n  dup1\n    /* \"#utility.yul\":6148:6229   */\n  tag_158\n  jumpi\n    /* \"#utility.yul\":6214:6218   */\n  0x7f\n    /* \"#utility.yul\":6206:6212   */\n  dup3\n    /* \"#utility.yul\":6202:6219   */\n  and\n    /* \"#utility.yul\":6192:6219   */\n  swap2\n  pop\n    /* \"#utility.yul\":6148:6229   */\ntag_158:\n    /* \"#utility.yul\":6276:6278   */\n  0x20\n    /* \"#utility.yul\":6268:6274   */\n  dup3\n    /* \"#utility.yul\":6265:6279   */\n  lt\n    /* \"#utility.yul\":6245:6263   */\n  dup2\n    /* \"#utility.yul\":6242:6280   */\n  eq\n    /* \"#utility.yul\":6239:6323   */\n  iszero\n  tag_159\n  jumpi\n    /* \"#utility.yul\":6295:6313   */\n  tag_160\n  tag_161\n  jump\t// in\ntag_160:\n    /* \"#utility.yul\":6239:6323   */\ntag_159:\n    /* \"#utility.yul\":6060:6329   */\n  pop\n    /* \"#utility.yul\":6009:6329   */\n  swap2\n  swap1\n  pop\n  jump\t// out\n    /* \"#utility.yul\":6335:6515   */\ntag_112:\n    /* \"#utility.yul\":6383:6460   */\n  0x4e487b7100000000000000000000000000000000000000000000000000000000\n    /* \"#utility.yul\":6380:6381   */\n  0x00\n    /* \"#utility.yul\":6373:6461   */\n  mstore\n    /* \"#utility.yul\":6480:6484   */\n  0x11\n    /* \"#utility.yul\":6477:6478   */\n  0x04\n    /* \"#utility.yul\":6470:6485   */\n  mstore\n    /* \"#utility.yul\":6504:6508   */\n  0x24\n    /* \"#utility.yul\":6501:6502   */\n  0x00\n    /* \"#utility.yul\":6494:6509   */\n  revert\n    /* \"#utility.yul\":6521:6701   */\ntag_161:\n    /* \"#utility.yul\":6569:6646   */\n  0x4e487b7100000000000000000000000000000000000000000000000000000000\n    /* \"#utility.yul\":6566:6567   */\n  0x00\n    /* \"#utility.yul\":6559:6647   */\n  mstore\n    /* \"#utility.yul\":6666:6670   */\n  0x22\n    /* \"#utility.yul\":6663:6664   */\n  0x04\n    /* \"#utility.yul\":6656:6671   */\n  mstore\n    /* \"#utility.yul\":6690:6694   */\n  0x24\n    /* \"#utility.yul\":6687:6688   */\n  0x00\n    /* \"#utility.yul\":6680:6695   */\n  revert\n    /* \"#utility.yul\":6830:6947   */\ntag_81:\n    /* \"#utility.yul\":6939:6940   */\n  0x00\n    /* \"#utility.yul\":6936:6937   */\n  dup1\n    /* \"#utility.yul\":6929:6941   */\n  revert\n    /* \"#utility.yul\":6953:7055   */\ntag_122:\n    /* \"#utility.yul\":6995:7003   */\n  0x00\n    /* \"#utility.yul\":7042:7047   */\n  dup2\n    /* \"#utility.yul\":7039:7040   */\n  0x01\n    /* \"#utility.yul\":7035:7048   */\n  shr\n    /* \"#utility.yul\":7014:7048   */\n  swap1\n  pop\n    /* \"#utility.yul\":6953:7055   */\n  swap2\n  swap1\n  pop\n  jump\t// out\n    /* \"#utility.yul\":7061:7227   */\ntag_88:\n    /* \"#utility.yul\":7201:7219   */\n  0x5061757361626c653a2070617573656400000000000000000000000000000000\n    /* \"#utility.yul\":7197:7198   */\n  0x00\n    /* \"#utility.yul\":7189:7195   */\n  dup3\n    /* \"#utility.yul\":7185:7199   */\n  add\n    /* \"#utility.yul\":7178:7220   */\n  mstore\n    /* \"#utility.yul\":7061:7227   */\n  pop\n  jump\t// out\n    /* \"#utility.yul\":7233:7414   */\ntag_93:\n    /* \"#utility.yul\":7373:7406   */\n  0x45524332303a206d696e7420746f20746865207a65726f206164647265737300\n    /* \"#utility.yul\":7369:7370   */\n  0x00\n    /* \"#utility.yul\":7361:7367   */\n  dup3\n    /* \"#utility.yul\":7357:7371   */\n  add\n    /* \"#utility.yul\":7350:7407   */\n  mstore\n    /* \"#utility.yul\":7233:7414   */\n  pop\n  jump\t// out\n    /* \"#utility.yul\":7420:7542   */\ntag_77:\n    /* \"#utility.yul\":7493:7517   */\n  tag_171\n    /* \"#utility.yul\":7511:7516   */\n  dup2\n    /* \"#utility.yul\":7493:7517   */\n  tag_150\n  jump\t// in\ntag_171:\n    /* \"#utility.yul\":7486:7491   */\n  dup2\n    /* \"#utility.yul\":7483:7518   */\n  eq\n    /* \"#utility.yul\":7473:7536   */\n  tag_172\n  jumpi\n    /* \"#utility.yul\":7532:7533   */\n  0x00\n    /* \"#utility.yul\":7529:7530   */\n  dup1\n    /* \"#utility.yul\":7522:7534   */\n  revert\n    /* \"#utility.yul\":7473:7536   */\ntag_172:\n    /* \"#utility.yul\":7420:7542   */\n  pop\n  jump\t// out\n    /* \"web3oj/erc-20/erc-20-pausable.sol\":229:954  contract Web3OJTPausable is ERC20, Pausable, AccessControl {... */\ntag_24:\n  dataSize(sub_0)\n  dup1\n  dataOffset(sub_0)\n  0x00\n  codecopy\n  0x00\n  return\nstop\n\nsub_0: assembly {\n        /* \"web3oj/erc-20/erc-20-pausable.sol\":229:954  contract Web3OJTPausable is ERC20, Pausable, AccessControl {... */\n      mstore(0x40, 0x80)\n      callvalue\n      dup1\n      iszero\n      tag_1\n      jumpi\n      0x00\n      dup1\n      revert\n    tag_1:\n      pop\n      jumpi(tag_2, lt(calldatasize, 0x04))\n      shr(0xe0, calldataload(0x00))\n      dup1\n      0x5c975abb\n      gt\n      tag_25\n      jumpi\n      dup1\n      0xa217fddf\n      gt\n      tag_26\n      jumpi\n      dup1\n      0xa217fddf\n      eq\n      tag_19\n      jumpi\n      dup1\n      0xa457c2d7\n      eq\n      tag_20\n      jumpi\n      dup1\n      0xa9059cbb\n      eq\n      tag_21\n      jumpi\n      dup1\n      0xd547741f\n      eq\n      tag_22\n      jumpi\n      dup1\n      0xdd62ed3e\n      eq\n      tag_23\n      jumpi\n      dup1\n      0xe63ab1e9\n      eq\n      tag_24\n      jumpi\n      jump(tag_2)\n    tag_26:\n      dup1\n      0x5c975abb\n      eq\n      tag_14\n      jumpi\n      dup1\n      0x70a08231\n      eq\n      tag_15\n      jumpi\n      dup1\n      0x8456cb59\n      eq\n      tag_16\n      jumpi\n      dup1\n      0x91d14854\n      eq\n      tag_17\n      jumpi\n      dup1\n      0x95d89b41\n      eq\n      tag_18\n      jumpi\n      jump(tag_2)\n    tag_25:\n      dup1\n      0x248a9ca3\n      gt\n      tag_27\n      jumpi\n      dup1\n      0x248a9ca3\n      eq\n      tag_8\n      jumpi\n      dup1\n      0x2f2ff15d\n      eq\n      tag_9\n      jumpi\n      dup1\n      0x313ce567\n      eq\n      tag_10\n      jumpi\n      dup1\n      0x36568abe\n      eq\n      tag_11\n      jumpi\n      dup1\n      0x39509351\n      eq\n      tag_12\n      jumpi\n      dup1\n      0x3f4ba83a\n      eq\n      tag_13\n      jumpi\n      jump(tag_2)\n    tag_27:\n      dup1\n      0x01ffc9a7\n      eq\n      tag_3\n      jumpi\n      dup1\n      0x06fdde03\n      eq\n      tag_4\n      jumpi\n      dup1\n      0x095ea7b3\n      eq\n      tag_5\n      jumpi\n      dup1\n      0x18160ddd\n      eq\n      tag_6\n      jumpi\n      dup1\n      0x23b872dd\n      eq\n      tag_7\n      jumpi\n    tag_2:\n      0x00\n      dup1\n      revert\n        /* \"@openzeppelin/contracts/access/AccessControl.sol\":2606:2808  function supportsInterface(bytes4 interfaceId) public view virtual override returns (bool) {... */\n    tag_3:\n      tag_28\n      0x04\n      dup1\n      calldatasize\n      sub\n      dup2\n      add\n      swap1\n      tag_29\n      swap2\n      swap1\n      tag_30\n      jump\t// in\n    tag_29:\n      tag_31\n      jump\t// in\n    tag_28:\n      mload(0x40)\n      tag_32\n      swap2\n      swap1\n      tag_33\n      jump\t// in\n    tag_32:\n      mload(0x40)\n      dup1\n      swap2\n      sub\n      swap1\n      return\n        /* \"@openzeppelin/contracts/token/ERC20/ERC20.sol\":2156:2254  function name() public view virtual override returns (string memory) {... */\n    tag_4:\n      tag_34\n      tag_35\n      jump\t// in\n    tag_34:\n      mload(0x40)\n      tag_36\n      swap2\n      swap1\n      tag_37\n      jump\t// in\n    tag_36:\n      mload(0x40)\n      dup1\n      swap2\n      sub\n      swap1\n      return\n        /* \"@openzeppelin/contracts/token/ERC20/ERC20.sol\":4433:4630  function approve(address spender, uint256 amount) public virtual override returns (bool) {... */\n    tag_5:\n      tag_38\n      0x04\n      dup1\n      calldatasize\n      sub\n      dup2\n      add\n      swap1\n      tag_39\n      swap2\n      swap1\n      tag_40\n      jump\t// in\n    tag_39:\n      tag_41\n      jump\t// in\n    tag_38:\n      mload(0x40)\n      tag_42\n      swap2\n      swap1\n      tag_33\n      jump\t// in\n    tag_42:\n      mload(0x40)\n      dup1\n      swap2\n      sub\n      swap1\n      return\n        /* \"@openzeppelin/contracts/token/ERC20/ERC20.sol\":3244:3350  function totalSupply() public view virtual override returns (uint256) {... */\n    tag_6:\n      tag_43\n      tag_44\n      jump\t// in\n    tag_43:\n      mload(0x40)\n      tag_45\n      swap2\n      swap1\n      tag_46\n      jump\t// in\n    tag_45:\n      mload(0x40)\n      dup1\n      swap2\n      sub\n      swap1\n      return\n        /* \"@openzeppelin/contracts/token/ERC20/ERC20.sol\":5192:5478  function transferFrom(... */\n    tag_7:\n      tag_47\n      0x04\n      dup1\n      calldatasize\n      sub\n      dup2\n      add\n      swap1\n      tag_48\n      swap2\n      swap1\n      tag_49\n      jump\t// in\n    tag_48:\n      tag_50\n      jump\t// in\n    tag_47:\n      mload(0x40)\n      tag_51\n      swap2\n      swap1\n      tag_33\n      jump\t// in\n    tag_51:\n      mload(0x40)\n      dup1\n      swap2\n      sub\n      swap1\n      return\n        /* \"@openzeppelin/contracts/access/AccessControl.sol\":4391:4520  function getRoleAdmin(bytes32 role) public view virtual override returns (bytes32) {... */\n    tag_8:\n      tag_52\n      0x04\n      dup1\n      calldatasize\n      sub\n      dup2\n      add\n      swap1\n      tag_53\n      swap2\n      swap1\n      tag_54\n      jump\t// in\n    tag_53:\n      tag_55\n      jump\t// in\n    tag_52:\n      mload(0x40)\n      tag_56\n      swap2\n      swap1\n      tag_57\n      jump\t// in\n    tag_56:\n      mload(0x40)\n      dup1\n      swap2\n      sub\n      swap1\n      return\n        /* \"@openzeppelin/contracts/access/AccessControl.sol\":4816:4961  function grantRole(bytes32 role, address account) public virtual override onlyRole(getRoleAdmin(role)) {... */\n    tag_9:\n      tag_58\n      0x04\n      dup1\n      calldatasize\n      sub\n      dup2\n      add\n      swap1\n      tag_59\n      swap2\n      swap1\n      tag_60\n      jump\t// in\n    tag_59:\n      tag_61\n      jump\t// in\n    tag_58:\n      stop\n        /* \"@openzeppelin/contracts/token/ERC20/ERC20.sol\":3093:3184  function decimals() public view virtual override returns (uint8) {... */\n    tag_10:\n      tag_62\n      tag_63\n      jump\t// in\n    tag_62:\n      mload(0x40)\n      tag_64\n      swap2\n      swap1\n      tag_65\n      jump\t// in\n    tag_64:\n      mload(0x40)\n      dup1\n      swap2\n      sub\n      swap1\n      return\n        /* \"@openzeppelin/contracts/access/AccessControl.sol\":5925:6139  function renounceRole(bytes32 role, address account) public virtual override {... */\n    tag_11:\n      tag_66\n      0x04\n      dup1\n      calldatasize\n      sub\n      dup2\n      add\n      swap1\n      tag_67\n      swap2\n      swap1\n      tag_60\n      jump\t// in\n    tag_67:\n      tag_68\n      jump\t// in\n    tag_66:\n      stop\n        /* \"@openzeppelin/contracts/token/ERC20/ERC20.sol\":5873:6107  function increaseAllowance(address spender, uint256 addedValue) public virtual returns (bool) {... */\n    tag_12:\n      tag_69\n      0x04\n      dup1\n      calldatasize\n      sub\n      dup2\n      add\n      swap1\n      tag_70\n      swap2\n      swap1\n      tag_40\n      jump\t// in\n    tag_70:\n      tag_71\n      jump\t// in\n    tag_69:\n      mload(0x40)\n      tag_72\n      swap2\n      swap1\n      tag_33\n      jump\t// in\n    tag_72:\n      mload(0x40)\n      dup1\n      swap2\n      sub\n      swap1\n      return\n        /* \"web3oj/erc-20/erc-20-pausable.sol\":678:753  function unpause() public onlyRole(PAUSER_ROLE) {... */\n    tag_13:\n      tag_73\n      tag_74\n      jump\t// in\n    tag_73:\n      stop\n        /* \"@openzeppelin/contracts/security/Pausable.sol\":1615:1699  function paused() public view virtual returns (bool) {... */\n    tag_14:\n      tag_75\n      tag_76\n      jump\t// in\n    tag_75:\n      mload(0x40)\n      tag_77\n      swap2\n      swap1\n      tag_33\n      jump\t// in\n    tag_77:\n      mload(0x40)\n      dup1\n      swap2\n      sub\n      swap1\n      return\n        /* \"@openzeppelin/contracts/token/ERC20/ERC20.sol\":3408:3533  function balanceOf(address account) public view virtual override returns (uint256) {... */\n    tag_15:\n      tag_78\n      0x04\n      dup1\n      calldatasize\n      sub\n      dup2\n      add\n      swap1\n      tag_79\n      swap2\n      swap1\n      tag_80\n      jump\t// in\n    tag_79:\n      tag_81\n      jump\t// in\n    tag_78:\n      mload(0x40)\n      tag_82\n      swap2\n      swap1\n      tag_46\n      jump\t// in\n    tag_82:\n      mload(0x40)\n      dup1\n      swap2\n      sub\n      swap1\n      return\n        /* \"web3oj/erc-20/erc-20-pausable.sol\":601:672  function pause() public onlyRole(PAUSER_ROLE) {... */\n    tag_16:\n      tag_83\n      tag_84\n      jump\t// in\n    tag_83:\n      stop\n        /* \"@openzeppelin/contracts/access/AccessControl.sol\":2895:3040  function hasRole(bytes32 role, address account) public view virtual override returns (bool) {... */\n    tag_17:\n      tag_85\n      0x04\n      dup1\n      calldatasize\n      sub\n      dup2\n      add\n      swap1\n      tag_86\n      swap2\n      swap1\n      tag_60\n      jump\t// in\n    tag_86:\n      tag_87\n      jump\t// in\n    tag_85:\n      mload(0x40)\n      tag_88\n      swap2\n      swap1\n      tag_33\n      jump\t// in\n    tag_88:\n      mload(0x40)\n      dup1\n      swap2\n      sub\n      swap1\n      return\n        /* \"@openzeppelin/contracts/token/ERC20/ERC20.sol\":2367:2469  function symbol() public view virtual override returns (string memory) {... */\n    tag_18:\n      tag_89\n      tag_90\n      jump\t// in\n    tag_89:\n      mload(0x40)\n      tag_91\n      swap2\n      swap1\n      tag_37\n      jump\t// in\n    tag_91:\n      mload(0x40)\n      dup1\n      swap2\n      sub\n      swap1\n      return\n        /* \"@openzeppelin/contracts/access/AccessControl.sol\":2027:2076  bytes32 public constant DEFAULT_ADMIN_ROLE = 0x00 */\n    tag_19:\n      tag_92\n      tag_93\n      jump\t// in\n    tag_92:\n      mload(0x40)\n      tag_94\n      swap2\n      swap1\n      tag_57\n      jump\t// in\n    tag_94:\n      mload(0x40)\n      dup1\n      swap2\n      sub\n      swap1\n      return\n        /* \"@openzeppelin/contracts/token/ERC20/ERC20.sol\":6594:7021  function decreaseAllowance(address spender, uint256 subtractedValue) public virtual returns (bool) {... */\n    tag_20:\n      tag_95\n      0x04\n      dup1\n      calldatasize\n      sub\n      dup2\n      add\n      swap1\n      tag_96\n      swap2\n      swap1\n      tag_40\n      jump\t// in\n    tag_96:\n      tag_97\n      jump\t// in\n    tag_95:\n      mload(0x40)\n      tag_98\n      swap2\n      swap1\n      tag_33\n      jump\t// in\n    tag_98:\n      mload(0x40)\n      dup1\n      swap2\n      sub\n      swap1\n      return\n        /* \"@openzeppelin/contracts/token/ERC20/ERC20.sol\":3729:3918  function transfer(address to, uint256 amount) public virtual override returns (bool) {... */\n    tag_21:\n      tag_99\n      0x04\n      dup1\n      calldatasize\n      sub\n      dup2\n      add\n      swap1\n      tag_100\n      swap2\n      swap1\n      tag_40\n      jump\t// in\n    tag_100:\n      tag_101\n      jump\t// in\n    tag_99:\n      mload(0x40)\n      tag_102\n      swap2\n      swap1\n      tag_33\n      jump\t// in\n    tag_102:\n      mload(0x40)\n      dup1\n      swap2\n      sub\n      swap1\n      return\n        /* \"@openzeppelin/contracts/access/AccessControl.sol\":5241:5388  function revokeRole(bytes32 role, address account) public virtual override onlyRole(getRoleAdmin(role)) {... */\n    tag_22:\n      tag_103\n      0x04\n      dup1\n      calldatasize\n      sub\n      dup2\n      add\n      swap1\n      tag_104\n      swap2\n      swap1\n      tag_60\n      jump\t// in\n    tag_104:\n      tag_105\n      jump\t// in\n    tag_103:\n      stop\n        /* \"@openzeppelin/contracts/token/ERC20/ERC20.sol\":3976:4125  function allowance(address owner, address spender) public view virtual override returns (uint256) {... */\n    tag_23:\n      tag_106\n      0x04\n      dup1\n      calldatasize\n      sub\n      dup2\n      add\n      swap1\n      tag_107\n      swap2\n      swap1\n      tag_108\n      jump\t// in\n    tag_107:\n      tag_109\n      jump\t// in\n    tag_106:\n      mload(0x40)\n      tag_110\n      swap2\n      swap1\n      tag_46\n      jump\t// in\n    tag_110:\n      mload(0x40)\n      dup1\n      swap2\n      sub\n      swap1\n      return\n        /* \"web3oj/erc-20/erc-20-pausable.sol\":294:356  bytes32 public constant PAUSER_ROLE = keccak256(\"PAUSER_ROLE\") */\n    tag_24:\n      tag_111\n      tag_112\n      jump\t// in\n    tag_111:\n      mload(0x40)\n      tag_113\n      swap2\n      swap1\n      tag_57\n      jump\t// in\n    tag_113:\n      mload(0x40)\n      dup1\n      swap2\n      sub\n      swap1\n      return\n        /* \"@openzeppelin/contracts/access/AccessControl.sol\":2606:2808  function supportsInterface(bytes4 interfaceId) public view virtual override returns (bool) {... */\n    tag_31:\n        /* \"@openzeppelin/contracts/access/AccessControl.sol\":2691:2695  bool */\n      0x00\n        /* \"@openzeppelin/contracts/access/AccessControl.sol\":2729:2761  type(IAccessControl).interfaceId */\n      0x7965db0b00000000000000000000000000000000000000000000000000000000\n        /* \"@openzeppelin/contracts/access/AccessControl.sol\":2714:2761  interfaceId == type(IAccessControl).interfaceId */\n      not(0xffffffffffffffffffffffffffffffffffffffffffffffffffffffff)\n      and\n        /* \"@openzeppelin/contracts/access/AccessControl.sol\":2714:2725  interfaceId */\n      dup3\n        /* \"@openzeppelin/contracts/access/AccessControl.sol\":2714:2761  interfaceId == type(IAccessControl).interfaceId */\n      not(0xffffffffffffffffffffffffffffffffffffffffffffffffffffffff)\n      and\n      eq\n        /* \"@openzeppelin/contracts/access/AccessControl.sol\":2714:2801  interfaceId == type(IAccessControl).interfaceId || super.supportsInterface(interfaceId) */\n      dup1\n      tag_116\n      jumpi\n      pop\n        /* \"@openzeppelin/contracts/access/AccessControl.sol\":2765:2801  super.supportsInterface(interfaceId) */\n      tag_117\n        /* \"@openzeppelin/contracts/access/AccessControl.sol\":2789:2800  interfaceId */\n      dup3\n        /* \"@openzeppelin/contracts/access/AccessControl.sol\":2765:2788  super.supportsInterface */\n      tag_118\n        /* \"@openzeppelin/contracts/access/AccessControl.sol\":2765:2801  super.supportsInterface(interfaceId) */\n      jump\t// in\n    tag_117:\n        /* \"@openzeppelin/contracts/access/AccessControl.sol\":2714:2801  interfaceId == type(IAccessControl).interfaceId || super.supportsInterface(interfaceId) */\n    tag_116:\n        /* \"@openzeppelin/contracts/access/AccessControl.sol\":2707:2801  return interfaceId == type(IAccessControl).interfaceId || super.supportsInterface(interfaceId) */\n      swap1\n      pop\n        /* \"@openzeppelin/contracts/access/AccessControl.sol\":2606:2808  function supportsInterface(bytes4 interfaceId) public view virtual override returns (bool) {... */\n      swap2\n      swap1\n      pop\n      jump\t// out\n        /* \"@openzeppelin/contracts/token/ERC20/ERC20.sol\":2156:2254  function name() public view virtual override returns (string memory) {... */\n    tag_35:\n        /* \"@openzeppelin/contracts/token/ERC20/ERC20.sol\":2210:2223  string memory */\n      0x60\n        /* \"@openzeppelin/contracts/token/ERC20/ERC20.sol\":2242:2247  _name */\n      0x03\n        /* \"@openzeppelin/contracts/token/ERC20/ERC20.sol\":2235:2247  return _name */\n      dup1\n      sload\n      tag_120\n      swap1\n      tag_121\n      jump\t// in\n    tag_120:\n      dup1\n      0x1f\n      add\n      0x20\n      dup1\n      swap2\n      div\n      mul\n      0x20\n      add\n      mload(0x40)\n      swap1\n      dup2\n      add\n      0x40\n      mstore\n      dup1\n      swap3\n      swap2\n      swap1\n      dup2\n      dup2\n      mstore\n      0x20\n      add\n      dup3\n      dup1\n      sload\n      tag_122\n      swap1\n      tag_121\n      jump\t// in\n    tag_122:\n      dup1\n      iszero\n      tag_123\n      jumpi\n      dup1\n      0x1f\n      lt\n      tag_124\n      jumpi\n      0x0100\n      dup1\n      dup4\n      sload\n      div\n      mul\n      dup4\n      mstore\n      swap2\n      0x20\n      add\n      swap2\n      jump(tag_123)\n    tag_124:\n      dup3\n      add\n      swap2\n      swap1\n      0x00\n      mstore\n      keccak256(0x00, 0x20)\n      swap1\n    tag_125:\n      dup2\n      sload\n      dup2\n      mstore\n      swap1\n      0x01\n      add\n      swap1\n      0x20\n      add\n      dup1\n      dup4\n      gt\n      tag_125\n      jumpi\n      dup3\n      swap1\n      sub\n      0x1f\n      and\n      dup3\n      add\n      swap2\n    tag_123:\n      pop\n      pop\n      pop\n      pop\n      pop\n      swap1\n      pop\n        /* \"@openzeppelin/contracts/token/ERC20/ERC20.sol\":2156:2254  function name() public view virtual override returns (string memory) {... */\n      swap1\n      jump\t// out\n        /* \"@openzeppelin/contracts/token/ERC20/ERC20.sol\":4433:4630  function approve(address spender, uint256 amount) public virtual override returns (bool) {... */\n    tag_41:\n        /* \"@openzeppelin/contracts/token/ERC20/ERC20.sol\":4516:4520  bool */\n      0x00\n        /* \"@openzeppelin/contracts/token/ERC20/ERC20.sol\":4532:4545  address owner */\n      dup1\n        /* \"@openzeppelin/contracts/token/ERC20/ERC20.sol\":4548:4560  _msgSender() */\n      tag_127\n        /* \"@openzeppelin/contracts/token/ERC20/ERC20.sol\":4548:4558  _msgSender */\n      tag_128\n        /* \"@openzeppelin/contracts/token/ERC20/ERC20.sol\":4548:4560  _msgSender() */\n      jump\t// in\n    tag_127:\n        /* \"@openzeppelin/contracts/token/ERC20/ERC20.sol\":4532:4560  address owner = _msgSender() */\n      swap1\n      pop\n        /* \"@openzeppelin/contracts/token/ERC20/ERC20.sol\":4570:4602  _approve(owner, spender, amount) */\n      tag_129\n        /* \"@openzeppelin/contracts/token/ERC20/ERC20.sol\":4579:4584  owner */\n      dup2\n        /* \"@openzeppelin/contracts/token/ERC20/ERC20.sol\":4586:4593  spender */\n      dup6\n        /* \"@openzeppelin/contracts/token/ERC20/ERC20.sol\":4595:4601  amount */\n      dup6\n        /* \"@openzeppelin/contracts/token/ERC20/ERC20.sol\":4570:4578  _approve */\n      tag_130\n        /* \"@openzeppelin/contracts/token/ERC20/ERC20.sol\":4570:4602  _approve(owner, spender, amount) */\n      jump\t// in\n    tag_129:\n        /* \"@openzeppelin/contracts/token/ERC20/ERC20.sol\":4619:4623  true */\n      0x01\n        /* \"@openzeppelin/contracts/token/ERC20/ERC20.sol\":4612:4623  return true */\n      swap2\n      pop\n      pop\n        /* \"@openzeppelin/contracts/token/ERC20/ERC20.sol\":4433:4630  function approve(address spender, uint256 amount) public virtual override returns (bool) {... */\n      swap3\n      swap2\n      pop\n      pop\n      jump\t// out\n        /* \"@openzeppelin/contracts/token/ERC20/ERC20.sol\":3244:3350  function totalSupply() public view virtual override returns (uint256) {... */\n    tag_44:\n        /* \"@openzeppelin/contracts/token/ERC20/ERC20.sol\":3305:3312  uint256 */\n      0x00\n        /* \"@openzeppelin/contracts/token/ERC20/ERC20.sol\":3331:3343  _totalSupply */\n      sload(0x02)\n        /* \"@openzeppelin/contracts/token/ERC20/ERC20.sol\":3324:3343  return _totalSupply */\n      swap1\n      pop\n        /* \"@openzeppelin/contracts/token/ERC20/ERC20.sol\":3244:3350  function totalSupply() public view virtual override returns (uint256) {... */\n      swap1\n      jump\t// out\n        /* \"@openzeppelin/contracts/token/ERC20/ERC20.sol\":5192:5478  function transferFrom(... */\n    tag_50:\n        /* \"@openzeppelin/contracts/token/ERC20/ERC20.sol\":5319:5323  bool */\n      0x00\n        /* \"@openzeppelin/contracts/token/ERC20/ERC20.sol\":5335:5350  address spender */\n      dup1\n        /* \"@openzeppelin/contracts/token/ERC20/ERC20.sol\":5353:5365  _msgSender() */\n      tag_133\n        /* \"@openzeppelin/contracts/token/ERC20/ERC20.sol\":5353:5363  _msgSender */\n      tag_128\n        /* \"@openzeppelin/contracts/token/ERC20/ERC20.sol\":5353:5365  _msgSender() */\n      jump\t// in\n    tag_133:\n        /* \"@openzeppelin/contracts/token/ERC20/ERC20.sol\":5335:5365  address spender = _msgSender() */\n      swap1\n      pop\n        /* \"@openzeppelin/contracts/token/ERC20/ERC20.sol\":5375:5413  _spendAllowance(from, spender, amount) */\n      tag_134\n        /* \"@openzeppelin/contracts/token/ERC20/ERC20.sol\":5391:5395  from */\n      dup6\n        /* \"@openzeppelin/contracts/token/ERC20/ERC20.sol\":5397:5404  spender */\n      dup3\n        /* \"@openzeppelin/contracts/token/ERC20/ERC20.sol\":5406:5412  amount */\n      dup6\n        /* \"@openzeppelin/contracts/token/ERC20/ERC20.sol\":5375:5390  _spendAllowance */\n      tag_135\n        /* \"@openzeppelin/contracts/token/ERC20/ERC20.sol\":5375:5413  _spendAllowance(from, spender, amount) */\n      jump\t// in\n    tag_134:\n        /* \"@openzeppelin/contracts/token/ERC20/ERC20.sol\":5423:5450  _transfer(from, to, amount) */\n      tag_136\n        /* \"@openzeppelin/contracts/token/ERC20/ERC20.sol\":5433:5437  from */\n      dup6\n        /* \"@openzeppelin/contracts/token/ERC20/ERC20.sol\":5439:5441  to */\n      dup6\n        /* \"@openzeppelin/contracts/token/ERC20/ERC20.sol\":5443:5449  amount */\n      dup6\n        /* \"@openzeppelin/contracts/token/ERC20/ERC20.sol\":5423:5432  _transfer */\n      tag_137\n        /* \"@openzeppelin/contracts/token/ERC20/ERC20.sol\":5423:5450  _transfer(from, to, amount) */\n      jump\t// in\n    tag_136:\n        /* \"@openzeppelin/contracts/token/ERC20/ERC20.sol\":5467:5471  true */\n      0x01\n        /* \"@openzeppelin/contracts/token/ERC20/ERC20.sol\":5460:5471  return true */\n      swap2\n      pop\n      pop\n        /* \"@openzeppelin/contracts/token/ERC20/ERC20.sol\":5192:5478  function transferFrom(... */\n      swap4\n      swap3\n      pop\n      pop\n      pop\n      jump\t// out\n        /* \"@openzeppelin/contracts/access/AccessControl.sol\":4391:4520  function getRoleAdmin(bytes32 role) public view virtual override returns (bytes32) {... */\n    tag_55:\n        /* \"@openzeppelin/contracts/access/AccessControl.sol\":4465:4472  bytes32 */\n      0x00\n        /* \"@openzeppelin/contracts/access/AccessControl.sol\":4491:4497  _roles */\n      0x06\n        /* \"@openzeppelin/contracts/access/AccessControl.sol\":4491:4503  _roles[role] */\n      0x00\n        /* \"@openzeppelin/contracts/access/AccessControl.sol\":4498:4502  role */\n      dup4\n        /* \"@openzeppelin/contracts/access/AccessControl.sol\":4491:4503  _roles[role] */\n      dup2\n      mstore\n      0x20\n      add\n      swap1\n      dup2\n      mstore\n      0x20\n      add\n      0x00\n      keccak256\n        /* \"@openzeppelin/contracts/access/AccessControl.sol\":4491:4513  _roles[role].adminRole */\n      0x01\n      add\n      sload\n        /* \"@openzeppelin/contracts/access/AccessControl.sol\":4484:4513  return _roles[role].adminRole */\n      swap1\n      pop\n        /* \"@openzeppelin/contracts/access/AccessControl.sol\":4391:4520  function getRoleAdmin(bytes32 role) public view virtual override returns (bytes32) {... */\n      swap2\n      swap1\n      pop\n      jump\t// out\n        /* \"@openzeppelin/contracts/access/AccessControl.sol\":4816:4961  function grantRole(bytes32 role, address account) public virtual override onlyRole(getRoleAdmin(role)) {... */\n    tag_61:\n        /* \"@openzeppelin/contracts/access/AccessControl.sol\":4899:4917  getRoleAdmin(role) */\n      tag_139\n        /* \"@openzeppelin/contracts/access/AccessControl.sol\":4912:4916  role */\n      dup3\n        /* \"@openzeppelin/contracts/access/AccessControl.sol\":4899:4911  getRoleAdmin */\n      tag_55\n        /* \"@openzeppelin/contracts/access/AccessControl.sol\":4899:4917  getRoleAdmin(role) */\n      jump\t// in\n    tag_139:\n        /* \"@openzeppelin/contracts/access/AccessControl.sol\":2505:2521  _checkRole(role) */\n      tag_141\n        /* \"@openzeppelin/contracts/access/AccessControl.sol\":2516:2520  role */\n      dup2\n        /* \"@openzeppelin/contracts/access/AccessControl.sol\":2505:2515  _checkRole */\n      tag_142\n        /* \"@openzeppelin/contracts/access/AccessControl.sol\":2505:2521  _checkRole(role) */\n      jump\t// in\n    tag_141:\n        /* \"@openzeppelin/contracts/access/AccessControl.sol\":4929:4954  _grantRole(role, account) */\n      tag_144\n        /* \"@openzeppelin/contracts/access/AccessControl.sol\":4940:4944  role */\n      dup4\n        /* \"@openzeppelin/contracts/access/AccessControl.sol\":4946:4953  account */\n      dup4\n        /* \"@openzeppelin/contracts/access/AccessControl.sol\":4929:4939  _grantRole */\n      tag_145\n        /* \"@openzeppelin/contracts/access/AccessControl.sol\":4929:4954  _grantRole(role, account) */\n      jump\t// in\n    tag_144:\n        /* \"@openzeppelin/contracts/access/AccessControl.sol\":4816:4961  function grantRole(bytes32 role, address account) public virtual override onlyRole(getRoleAdmin(role)) {... */\n      pop\n      pop\n      pop\n      jump\t// out\n        /* \"@openzeppelin/contracts/token/ERC20/ERC20.sol\":3093:3184  function decimals() public view virtual override returns (uint8) {... */\n    tag_63:\n        /* \"@openzeppelin/contracts/token/ERC20/ERC20.sol\":3151:3156  uint8 */\n      0x00\n        /* \"@openzeppelin/contracts/token/ERC20/ERC20.sol\":3175:3177  18 */\n      0x12\n        /* \"@openzeppelin/contracts/token/ERC20/ERC20.sol\":3168:3177  return 18 */\n      swap1\n      pop\n        /* \"@openzeppelin/contracts/token/ERC20/ERC20.sol\":3093:3184  function decimals() public view virtual override returns (uint8) {... */\n      swap1\n      jump\t// out\n        /* \"@openzeppelin/contracts/access/AccessControl.sol\":5925:6139  function renounceRole(bytes32 role, address account) public virtual override {... */\n    tag_68:\n        /* \"@openzeppelin/contracts/access/AccessControl.sol\":6031:6043  _msgSender() */\n      tag_148\n        /* \"@openzeppelin/contracts/access/AccessControl.sol\":6031:6041  _msgSender */\n      tag_128\n        /* \"@openzeppelin/contracts/access/AccessControl.sol\":6031:6043  _msgSender() */\n      jump\t// in\n    tag_148:\n        /* \"@openzeppelin/contracts/access/AccessControl.sol\":6020:6043  account == _msgSender() */\n      0xffffffffffffffffffffffffffffffffffffffff\n      and\n        /* \"@openzeppelin/contracts/access/AccessControl.sol\":6020:6027  account */\n      dup2\n        /* \"@openzeppelin/contracts/access/AccessControl.sol\":6020:6043  account == _msgSender() */\n      0xffffffffffffffffffffffffffffffffffffffff\n      and\n      eq\n        /* \"@openzeppelin/contracts/access/AccessControl.sol\":6012:6095  require(account == _msgSender(), \"AccessControl: can only renounce roles for self\") */\n      tag_149\n      jumpi\n      mload(0x40)\n      0x08c379a000000000000000000000000000000000000000000000000000000000\n      dup2\n      mstore\n      0x04\n      add\n      tag_150\n      swap1\n      tag_151\n      jump\t// in\n    tag_150:\n      mload(0x40)\n      dup1\n      swap2\n      sub\n      swap1\n      revert\n    tag_149:\n        /* \"@openzeppelin/contracts/access/AccessControl.sol\":6106:6132  _revokeRole(role, account) */\n      tag_152\n        /* \"@openzeppelin/contracts/access/AccessControl.sol\":6118:6122  role */\n      dup3\n        /* \"@openzeppelin/contracts/access/AccessControl.sol\":6124:6131  account */\n      dup3\n        /* \"@openzeppelin/contracts/access/AccessControl.sol\":6106:6117  _revokeRole */\n      tag_153\n        /* \"@openzeppelin/contracts/access/AccessControl.sol\":6106:6132  _revokeRole(role, account) */\n      jump\t// in\n    tag_152:\n        /* \"@openzeppelin/contracts/access/AccessControl.sol\":5925:6139  function renounceRole(bytes32 role, address account) public virtual override {... */\n      pop\n      pop\n      jump\t// out\n        /* \"@openzeppelin/contracts/token/ERC20/ERC20.sol\":5873:6107  function increaseAllowance(address spender, uint256 addedValue) public virtual returns (bool) {... */\n    tag_71:\n        /* \"@openzeppelin/contracts/token/ERC20/ERC20.sol\":5961:5965  bool */\n      0x00\n        /* \"@openzeppelin/contracts/token/ERC20/ERC20.sol\":5977:5990  address owner */\n      dup1\n        /* \"@openzeppelin/contracts/token/ERC20/ERC20.sol\":5993:6005  _msgSender() */\n      tag_155\n        /* \"@openzeppelin/contracts/token/ERC20/ERC20.sol\":5993:6003  _msgSender */\n      tag_128\n        /* \"@openzeppelin/contracts/token/ERC20/ERC20.sol\":5993:6005  _msgSender() */\n      jump\t// in\n    tag_155:\n        /* \"@openzeppelin/contracts/token/ERC20/ERC20.sol\":5977:6005  address owner = _msgSender() */\n      swap1\n      pop\n        /* \"@openzeppelin/contracts/token/ERC20/ERC20.sol\":6015:6079  _approve(owner, spender, allowance(owner, spender) + addedValue) */\n      tag_156\n        /* \"@openzeppelin/contracts/token/ERC20/ERC20.sol\":6024:6029  owner */\n      dup2\n        /* \"@openzeppelin/contracts/token/ERC20/ERC20.sol\":6031:6038  spender */\n      dup6\n        /* \"@openzeppelin/contracts/token/ERC20/ERC20.sol\":6068:6078  addedValue */\n      dup6\n        /* \"@openzeppelin/contracts/token/ERC20/ERC20.sol\":6040:6065  allowance(owner, spender) */\n      tag_157\n        /* \"@openzeppelin/contracts/token/ERC20/ERC20.sol\":6050:6055  owner */\n      dup6\n        /* \"@openzeppelin/contracts/token/ERC20/ERC20.sol\":6057:6064  spender */\n      dup10\n        /* \"@openzeppelin/contracts/token/ERC20/ERC20.sol\":6040:6049  allowance */\n      tag_109\n        /* \"@openzeppelin/contracts/token/ERC20/ERC20.sol\":6040:6065  allowance(owner, spender) */\n      jump\t// in\n    tag_157:\n        /* \"@openzeppelin/contracts/token/ERC20/ERC20.sol\":6040:6078  allowance(owner, spender) + addedValue */\n      tag_158\n      swap2\n      swap1\n      tag_159\n      jump\t// in\n    tag_158:\n        /* \"@openzeppelin/contracts/token/ERC20/ERC20.sol\":6015:6023  _approve */\n      tag_130\n        /* \"@openzeppelin/contracts/token/ERC20/ERC20.sol\":6015:6079  _approve(owner, spender, allowance(owner, spender) + addedValue) */\n      jump\t// in\n    tag_156:\n        /* \"@openzeppelin/contracts/token/ERC20/ERC20.sol\":6096:6100  true */\n      0x01\n        /* \"@openzeppelin/contracts/token/ERC20/ERC20.sol\":6089:6100  return true */\n      swap2\n      pop\n      pop\n        /* \"@openzeppelin/contracts/token/ERC20/ERC20.sol\":5873:6107  function increaseAllowance(address spender, uint256 addedValue) public virtual returns (bool) {... */\n      swap3\n      swap2\n      pop\n      pop\n      jump\t// out\n        /* \"web3oj/erc-20/erc-20-pausable.sol\":678:753  function unpause() public onlyRole(PAUSER_ROLE) {... */\n    tag_74:\n        /* \"web3oj/erc-20/erc-20-pausable.sol\":332:356  keccak256(\"PAUSER_ROLE\") */\n      0x65d7a28e3265b37a6474929f336521b332c1681b933f6cb9f3376673440d862a\n        /* \"@openzeppelin/contracts/access/AccessControl.sol\":2505:2521  _checkRole(role) */\n      tag_161\n        /* \"@openzeppelin/contracts/access/AccessControl.sol\":2516:2520  role */\n      dup2\n        /* \"@openzeppelin/contracts/access/AccessControl.sol\":2505:2515  _checkRole */\n      tag_142\n        /* \"@openzeppelin/contracts/access/AccessControl.sol\":2505:2521  _checkRole(role) */\n      jump\t// in\n    tag_161:\n        /* \"web3oj/erc-20/erc-20-pausable.sol\":736:746  _unpause() */\n      tag_163\n        /* \"web3oj/erc-20/erc-20-pausable.sol\":736:744  _unpause */\n      tag_164\n        /* \"web3oj/erc-20/erc-20-pausable.sol\":736:746  _unpause() */\n      jump\t// in\n    tag_163:\n        /* \"web3oj/erc-20/erc-20-pausable.sol\":678:753  function unpause() public onlyRole(PAUSER_ROLE) {... */\n      pop\n      jump\t// out\n        /* \"@openzeppelin/contracts/security/Pausable.sol\":1615:1699  function paused() public view virtual returns (bool) {... */\n    tag_76:\n        /* \"@openzeppelin/contracts/security/Pausable.sol\":1662:1666  bool */\n      0x00\n        /* \"@openzeppelin/contracts/security/Pausable.sol\":1685:1692  _paused */\n      0x05\n      0x00\n      swap1\n      sload\n      swap1\n      0x0100\n      exp\n      swap1\n      div\n      0xff\n      and\n        /* \"@openzeppelin/contracts/security/Pausable.sol\":1678:1692  return _paused */\n      swap1\n      pop\n        /* \"@openzeppelin/contracts/security/Pausable.sol\":1615:1699  function paused() public view virtual returns (bool) {... */\n      swap1\n      jump\t// out\n        /* \"@openzeppelin/contracts/token/ERC20/ERC20.sol\":3408:3533  function balanceOf(address account) public view virtual override returns (uint256) {... */\n    tag_81:\n        /* \"@openzeppelin/contracts/token/ERC20/ERC20.sol\":3482:3489  uint256 */\n      0x00\n        /* \"@openzeppelin/contracts/token/ERC20/ERC20.sol\":3508:3517  _balances */\n      dup1\n        /* \"@openzeppelin/contracts/token/ERC20/ERC20.sol\":3508:3526  _balances[account] */\n      0x00\n        /* \"@openzeppelin/contracts/token/ERC20/ERC20.sol\":3518:3525  account */\n      dup4\n        /* \"@openzeppelin/contracts/token/ERC20/ERC20.sol\":3508:3526  _balances[account] */\n      0xffffffffffffffffffffffffffffffffffffffff\n      and\n      0xffffffffffffffffffffffffffffffffffffffff\n      and\n      dup2\n      mstore\n      0x20\n      add\n      swap1\n      dup2\n      mstore\n      0x20\n      add\n      0x00\n      keccak256\n      sload\n        /* \"@openzeppelin/contracts/token/ERC20/ERC20.sol\":3501:3526  return _balances[account] */\n      swap1\n      pop\n        /* \"@openzeppelin/contracts/token/ERC20/ERC20.sol\":3408:3533  function balanceOf(address account) public view virtual override returns (uint256) {... */\n      swap2\n      swap1\n      pop\n      jump\t// out\n        /* \"web3oj/erc-20/erc-20-pausable.sol\":601:672  function pause() public onlyRole(PAUSER_ROLE) {... */\n    tag_84:\n        /* \"web3oj/erc-20/erc-20-pausable.sol\":332:356  keccak256(\"PAUSER_ROLE\") */\n      0x65d7a28e3265b37a6474929f336521b332c1681b933f6cb9f3376673440d862a\n        /* \"@openzeppelin/contracts/access/AccessControl.sol\":2505:2521  _checkRole(role) */\n      tag_168\n        /* \"@openzeppelin/contracts/access/AccessControl.sol\":2516:2520  role */\n      dup2\n        /* \"@openzeppelin/contracts/access/AccessControl.sol\":2505:2515  _checkRole */\n      tag_142\n        /* \"@openzeppelin/contracts/access/AccessControl.sol\":2505:2521  _checkRole(role) */\n      jump\t// in\n    tag_168:\n        /* \"web3oj/erc-20/erc-20-pausable.sol\":657:665  _pause() */\n      tag_170\n        /* \"web3oj/erc-20/erc-20-pausable.sol\":657:663  _pause */\n      tag_171\n        /* \"web3oj/erc-20/erc-20-pausable.sol\":657:665  _pause() */\n      jump\t// in\n    tag_170:\n        /* \"web3oj/erc-20/erc-20-pausable.sol\":601:672  function pause() public onlyRole(PAUSER_ROLE) {... */\n      pop\n      jump\t// out\n        /* \"@openzeppelin/contracts/access/AccessControl.sol\":2895:3040  function hasRole(bytes32 role, address account) public view virtual override returns (bool) {... */\n    tag_87:\n        /* \"@openzeppelin/contracts/access/AccessControl.sol\":2981:2985  bool */\n      0x00\n        /* \"@openzeppelin/contracts/access/AccessControl.sol\":3004:3010  _roles */\n      0x06\n        /* \"@openzeppelin/contracts/access/AccessControl.sol\":3004:3016  _roles[role] */\n      0x00\n        /* \"@openzeppelin/contracts/access/AccessControl.sol\":3011:3015  role */\n      dup5\n        /* \"@openzeppelin/contracts/access/AccessControl.sol\":3004:3016  _roles[role] */\n      dup2\n      mstore\n      0x20\n      add\n      swap1\n      dup2\n      mstore\n      0x20\n      add\n      0x00\n      keccak256\n        /* \"@openzeppelin/contracts/access/AccessControl.sol\":3004:3024  _roles[role].members */\n      0x00\n      add\n        /* \"@openzeppelin/contracts/access/AccessControl.sol\":3004:3033  _roles[role].members[account] */\n      0x00\n        /* \"@openzeppelin/contracts/access/AccessControl.sol\":3025:3032  account */\n      dup4\n        /* \"@openzeppelin/contracts/access/AccessControl.sol\":3004:3033  _roles[role].members[account] */\n      0xffffffffffffffffffffffffffffffffffffffff\n      and\n      0xffffffffffffffffffffffffffffffffffffffff\n      and\n      dup2\n      mstore\n      0x20\n      add\n      swap1\n      dup2\n      mstore\n      0x20\n      add\n      0x00\n      keccak256\n      0x00\n      swap1\n      sload\n      swap1\n      0x0100\n      exp\n      swap1\n      div\n      0xff\n      and\n        /* \"@openzeppelin/contracts/access/AccessControl.sol\":2997:3033  return _roles[role].members[account] */\n      swap1\n      pop\n        /* \"@openzeppelin/contracts/access/AccessControl.sol\":2895:3040  function hasRole(bytes32 role, address account) public view virtual override returns (bool) {... */\n      swap3\n      swap2\n      pop\n      pop\n      jump\t// out\n        /* \"@openzeppelin/contracts/token/ERC20/ERC20.sol\":2367:2469  function symbol() public view virtual override returns (string memory) {... */\n    tag_90:\n        /* \"@openzeppelin/contracts/token/ERC20/ERC20.sol\":2423:2436  string memory */\n      0x60\n        /* \"@openzeppelin/contracts/token/ERC20/ERC20.sol\":2455:2462  _symbol */\n      0x04\n        /* \"@openzeppelin/contracts/token/ERC20/ERC20.sol\":2448:2462  return _symbol */\n      dup1\n      sload\n      tag_174\n      swap1\n      tag_121\n      jump\t// in\n    tag_174:\n      dup1\n      0x1f\n      add\n      0x20\n      dup1\n      swap2\n      div\n      mul\n      0x20\n      add\n      mload(0x40)\n      swap1\n      dup2\n      add\n      0x40\n      mstore\n      dup1\n      swap3\n      swap2\n      swap1\n      dup2\n      dup2\n      mstore\n      0x20\n      add\n      dup3\n      dup1\n      sload\n      tag_175\n      swap1\n      tag_121\n      jump\t// in\n    tag_175:\n      dup1\n      iszero\n      tag_176\n      jumpi\n      dup1\n      0x1f\n      lt\n      tag_177\n      jumpi\n      0x0100\n      dup1\n      dup4\n      sload\n      div\n      mul\n      dup4\n      mstore\n      swap2\n      0x20\n      add\n      swap2\n      jump(tag_176)\n    tag_177:\n      dup3\n      add\n      swap2\n      swap1\n      0x00\n      mstore\n      keccak256(0x00, 0x20)\n      swap1\n    tag_178:\n      dup2\n      sload\n      dup2\n      mstore\n      swap1\n      0x01\n      add\n      swap1\n      0x20\n      add\n      dup1\n      dup4\n      gt\n      tag_178\n      jumpi\n      dup3\n      swap1\n      sub\n      0x1f\n      and\n      dup3\n      add\n      swap2\n    tag_176:\n      pop\n      pop\n      pop\n      pop\n      pop\n      swap1\n      pop\n        /* \"@openzeppelin/contracts/token/ERC20/ERC20.sol\":2367:2469  function symbol() public view virtual override returns (string memory) {... */\n      swap1\n      jump\t// out\n        /* \"@openzeppelin/contracts/access/AccessControl.sol\":2027:2076  bytes32 public constant DEFAULT_ADMIN_ROLE = 0x00 */\n    tag_93:\n        /* \"@openzeppelin/contracts/access/AccessControl.sol\":2072:2076  0x00 */\n      0x00\n        /* \"@openzeppelin/contracts/access/AccessControl.sol\":2027:2076  bytes32 public constant DEFAULT_ADMIN_ROLE = 0x00 */\n      dup1\n      shl\n      dup2\n      jump\t// out\n        /* \"@openzeppelin/contracts/token/ERC20/ERC20.sol\":6594:7021  function decreaseAllowance(address spender, uint256 subtractedValue) public virtual returns (bool) {... */\n    tag_97:\n        /* \"@openzeppelin/contracts/token/ERC20/ERC20.sol\":6687:6691  bool */\n      0x00\n        /* \"@openzeppelin/contracts/token/ERC20/ERC20.sol\":6703:6716  address owner */\n      dup1\n        /* \"@openzeppelin/contracts/token/ERC20/ERC20.sol\":6719:6731  _msgSender() */\n      tag_180\n        /* \"@openzeppelin/contracts/token/ERC20/ERC20.sol\":6719:6729  _msgSender */\n      tag_128\n        /* \"@openzeppelin/contracts/token/ERC20/ERC20.sol\":6719:6731  _msgSender() */\n      jump\t// in\n    tag_180:\n        /* \"@openzeppelin/contracts/token/ERC20/ERC20.sol\":6703:6731  address owner = _msgSender() */\n      swap1\n      pop\n        /* \"@openzeppelin/contracts/token/ERC20/ERC20.sol\":6741:6765  uint256 currentAllowance */\n      0x00\n        /* \"@openzeppelin/contracts/token/ERC20/ERC20.sol\":6768:6793  allowance(owner, spender) */\n      tag_181\n        /* \"@openzeppelin/contracts/token/ERC20/ERC20.sol\":6778:6783  owner */\n      dup3\n        /* \"@openzeppelin/contracts/token/ERC20/ERC20.sol\":6785:6792  spender */\n      dup7\n        /* \"@openzeppelin/contracts/token/ERC20/ERC20.sol\":6768:6777  allowance */\n      tag_109\n        /* \"@openzeppelin/contracts/token/ERC20/ERC20.sol\":6768:6793  allowance(owner, spender) */\n      jump\t// in\n    tag_181:\n        /* \"@openzeppelin/contracts/token/ERC20/ERC20.sol\":6741:6793  uint256 currentAllowance = allowance(owner, spender) */\n      swap1\n      pop\n        /* \"@openzeppelin/contracts/token/ERC20/ERC20.sol\":6831:6846  subtractedValue */\n      dup4\n        /* \"@openzeppelin/contracts/token/ERC20/ERC20.sol\":6811:6827  currentAllowance */\n      dup2\n        /* \"@openzeppelin/contracts/token/ERC20/ERC20.sol\":6811:6846  currentAllowance >= subtractedValue */\n      lt\n      iszero\n        /* \"@openzeppelin/contracts/token/ERC20/ERC20.sol\":6803:6888  require(currentAllowance >= subtractedValue, \"ERC20: decreased allowance below zero\") */\n      tag_182\n      jumpi\n      mload(0x40)\n      0x08c379a000000000000000000000000000000000000000000000000000000000\n      dup2\n      mstore\n      0x04\n      add\n      tag_183\n      swap1\n      tag_184\n      jump\t// in\n    tag_183:\n      mload(0x40)\n      dup1\n      swap2\n      sub\n      swap1\n      revert\n    tag_182:\n        /* \"@openzeppelin/contracts/token/ERC20/ERC20.sol\":6922:6982  _approve(owner, spender, currentAllowance - subtractedValue) */\n      tag_185\n        /* \"@openzeppelin/contracts/token/ERC20/ERC20.sol\":6931:6936  owner */\n      dup3\n        /* \"@openzeppelin/contracts/token/ERC20/ERC20.sol\":6938:6945  spender */\n      dup7\n        /* \"@openzeppelin/contracts/token/ERC20/ERC20.sol\":6966:6981  subtractedValue */\n      dup7\n        /* \"@openzeppelin/contracts/token/ERC20/ERC20.sol\":6947:6963  currentAllowance */\n      dup5\n        /* \"@openzeppelin/contracts/token/ERC20/ERC20.sol\":6947:6981  currentAllowance - subtractedValue */\n      sub\n        /* \"@openzeppelin/contracts/token/ERC20/ERC20.sol\":6922:6930  _approve */\n      tag_130\n        /* \"@openzeppelin/contracts/token/ERC20/ERC20.sol\":6922:6982  _approve(owner, spender, currentAllowance - subtractedValue) */\n      jump\t// in\n    tag_185:\n        /* \"@openzeppelin/contracts/token/ERC20/ERC20.sol\":7010:7014  true */\n      0x01\n        /* \"@openzeppelin/contracts/token/ERC20/ERC20.sol\":7003:7014  return true */\n      swap3\n      pop\n      pop\n      pop\n        /* \"@openzeppelin/contracts/token/ERC20/ERC20.sol\":6594:7021  function decreaseAllowance(address spender, uint256 subtractedValue) public virtual returns (bool) {... */\n      swap3\n      swap2\n      pop\n      pop\n      jump\t// out\n        /* \"@openzeppelin/contracts/token/ERC20/ERC20.sol\":3729:3918  function transfer(address to, uint256 amount) public virtual override returns (bool) {... */\n    tag_101:\n        /* \"@openzeppelin/contracts/token/ERC20/ERC20.sol\":3808:3812  bool */\n      0x00\n        /* \"@openzeppelin/contracts/token/ERC20/ERC20.sol\":3824:3837  address owner */\n      dup1\n        /* \"@openzeppelin/contracts/token/ERC20/ERC20.sol\":3840:3852  _msgSender() */\n      tag_187\n        /* \"@openzeppelin/contracts/token/ERC20/ERC20.sol\":3840:3850  _msgSender */\n      tag_128\n        /* \"@openzeppelin/contracts/token/ERC20/ERC20.sol\":3840:3852  _msgSender() */\n      jump\t// in\n    tag_187:\n        /* \"@openzeppelin/contracts/token/ERC20/ERC20.sol\":3824:3852  address owner = _msgSender() */\n      swap1\n      pop\n        /* \"@openzeppelin/contracts/token/ERC20/ERC20.sol\":3862:3890  _transfer(owner, to, amount) */\n      tag_188\n        /* \"@openzeppelin/contracts/token/ERC20/ERC20.sol\":3872:3877  owner */\n      dup2\n        /* \"@openzeppelin/contracts/token/ERC20/ERC20.sol\":3879:3881  to */\n      dup6\n        /* \"@openzeppelin/contracts/token/ERC20/ERC20.sol\":3883:3889  amount */\n      dup6\n        /* \"@openzeppelin/contracts/token/ERC20/ERC20.sol\":3862:3871  _transfer */\n      tag_137\n        /* \"@openzeppelin/contracts/token/ERC20/ERC20.sol\":3862:3890  _transfer(owner, to, amount) */\n      jump\t// in\n    tag_188:\n        /* \"@openzeppelin/contracts/token/ERC20/ERC20.sol\":3907:3911  true */\n      0x01\n        /* \"@openzeppelin/contracts/token/ERC20/ERC20.sol\":3900:3911  return true */\n      swap2\n      pop\n      pop\n        /* \"@openzeppelin/contracts/token/ERC20/ERC20.sol\":3729:3918  function transfer(address to, uint256 amount) public virtual override returns (bool) {... */\n      swap3\n      swap2\n      pop\n      pop\n      jump\t// out\n        /* \"@openzeppelin/contracts/access/AccessControl.sol\":5241:5388  function revokeRole(bytes32 role, address account) public virtual override onlyRole(getRoleAdmin(role)) {... */\n    tag_105:\n        /* \"@openzeppelin/contracts/access/AccessControl.sol\":5325:5343  getRoleAdmin(role) */\n      tag_189\n        /* \"@openzeppelin/contracts/access/AccessControl.sol\":5338:5342  role */\n      dup3\n        /* \"@openzeppelin/contracts/access/AccessControl.sol\":5325:5337  getRoleAdmin */\n      tag_55\n        /* \"@openzeppelin/contracts/access/AccessControl.sol\":5325:5343  getRoleAdmin(role) */\n      jump\t// in\n    tag_189:\n        /* \"@openzeppelin/contracts/access/AccessControl.sol\":2505:2521  _checkRole(role) */\n      tag_191\n        /* \"@openzeppelin/contracts/access/AccessControl.sol\":2516:2520  role */\n      dup2\n        /* \"@openzeppelin/contracts/access/AccessControl.sol\":2505:2515  _checkRole */\n      tag_142\n        /* \"@openzeppelin/contracts/access/AccessControl.sol\":2505:2521  _checkRole(role) */\n      jump\t// in\n    tag_191:\n        /* \"@openzeppelin/contracts/access/AccessControl.sol\":5355:5381  _revokeRole(role, account) */\n      tag_193\n        /* \"@openzeppelin/contracts/access/AccessControl.sol\":5367:5371  role */\n      dup4\n        /* \"@openzeppelin/contracts/access/AccessControl.sol\":5373:5380  account */\n      dup4\n        /* \"@openzeppelin/contracts/access/AccessControl.sol\":5355:5366  _revokeRole */\n      tag_153\n        /* \"@openzeppelin/contracts/access/AccessControl.sol\":5355:5381  _revokeRole(role, account) */\n      jump\t// in\n    tag_193:\n        /* \"@openzeppelin/contracts/access/AccessControl.sol\":5241:5388  function revokeRole(bytes32 role, address account) public virtual override onlyRole(getRoleAdmin(role)) {... */\n      pop\n      pop\n      pop\n      jump\t// out\n        /* \"@openzeppelin/contracts/token/ERC20/ERC20.sol\":3976:4125  function allowance(address owner, address spender) public view virtual override returns (uint256) {... */\n    tag_109:\n        /* \"@openzeppelin/contracts/token/ERC20/ERC20.sol\":4065:4072  uint256 */\n      0x00\n        /* \"@openzeppelin/contracts/token/ERC20/ERC20.sol\":4091:4102  _allowances */\n      0x01\n        /* \"@openzeppelin/contracts/token/ERC20/ERC20.sol\":4091:4109  _allowances[owner] */\n      0x00\n        /* \"@openzeppelin/contracts/token/ERC20/ERC20.sol\":4103:4108  owner */\n      dup5\n        /* \"@openzeppelin/contracts/token/ERC20/ERC20.sol\":4091:4109  _allowances[owner] */\n      0xffffffffffffffffffffffffffffffffffffffff\n      and\n      0xffffffffffffffffffffffffffffffffffffffff\n      and\n      dup2\n      mstore\n      0x20\n      add\n      swap1\n      dup2\n      mstore\n      0x20\n      add\n      0x00\n      keccak256\n        /* \"@openzeppelin/contracts/token/ERC20/ERC20.sol\":4091:4118  _allowances[owner][spender] */\n      0x00\n        /* \"@openzeppelin/contracts/token/ERC20/ERC20.sol\":4110:4117  spender */\n      dup4\n        /* \"@openzeppelin/contracts/token/ERC20/ERC20.sol\":4091:4118  _allowances[owner][spender] */\n      0xffffffffffffffffffffffffffffffffffffffff\n      and\n      0xffffffffffffffffffffffffffffffffffffffff\n      and\n      dup2\n      mstore\n      0x20\n      add\n      swap1\n      dup2\n      mstore\n      0x20\n      add\n      0x00\n      keccak256\n      sload\n        /* \"@openzeppelin/contracts/token/ERC20/ERC20.sol\":4084:4118  return _allowances[owner][spender] */\n      swap1\n      pop\n        /* \"@openzeppelin/contracts/token/ERC20/ERC20.sol\":3976:4125  function allowance(address owner, address spender) public view virtual override returns (uint256) {... */\n      swap3\n      swap2\n      pop\n      pop\n      jump\t// out\n        /* \"web3oj/erc-20/erc-20-pausable.sol\":294:356  bytes32 public constant PAUSER_ROLE = keccak256(\"PAUSER_ROLE\") */\n    tag_112:\n        /* \"web3oj/erc-20/erc-20-pausable.sol\":332:356  keccak256(\"PAUSER_ROLE\") */\n      0x65d7a28e3265b37a6474929f336521b332c1681b933f6cb9f3376673440d862a\n        /* \"web3oj/erc-20/erc-20-pausable.sol\":294:356  bytes32 public constant PAUSER_ROLE = keccak256(\"PAUSER_ROLE\") */\n      dup2\n      jump\t// out\n        /* \"@openzeppelin/contracts/token/ERC20/ERC20.sol\":11786:11907  function _beforeTokenTransfer(... */\n    tag_114:\n      pop\n      pop\n      pop\n      jump\t// out\n        /* \"@openzeppelin/contracts/utils/introspection/ERC165.sol\":829:984  function supportsInterface(bytes4 interfaceId) public view virtual override returns (bool) {... */\n    tag_118:\n        /* \"@openzeppelin/contracts/utils/introspection/ERC165.sol\":914:918  bool */\n      0x00\n        /* \"@openzeppelin/contracts/utils/introspection/ERC165.sol\":952:977  type(IERC165).interfaceId */\n      0x01ffc9a700000000000000000000000000000000000000000000000000000000\n        /* \"@openzeppelin/contracts/utils/introspection/ERC165.sol\":937:977  interfaceId == type(IERC165).interfaceId */\n      not(0xffffffffffffffffffffffffffffffffffffffffffffffffffffffff)\n      and\n        /* \"@openzeppelin/contracts/utils/introspection/ERC165.sol\":937:948  interfaceId */\n      dup3\n        /* \"@openzeppelin/contracts/utils/introspection/ERC165.sol\":937:977  interfaceId == type(IERC165).interfaceId */\n      not(0xffffffffffffffffffffffffffffffffffffffffffffffffffffffff)\n      and\n      eq\n        /* \"@openzeppelin/contracts/utils/introspection/ERC165.sol\":930:977  return interfaceId == type(IERC165).interfaceId */\n      swap1\n      pop\n        /* \"@openzeppelin/contracts/utils/introspection/ERC165.sol\":829:984  function supportsInterface(bytes4 interfaceId) public view virtual override returns (bool) {... */\n      swap2\n      swap1\n      pop\n      jump\t// out\n        /* \"@openzeppelin/contracts/utils/Context.sol\":640:736  function _msgSender() internal view virtual returns (address) {... */\n    tag_128:\n        /* \"@openzeppelin/contracts/utils/Context.sol\":693:700  address */\n      0x00\n        /* \"@openzeppelin/contracts/utils/Context.sol\":719:729  msg.sender */\n      caller\n        /* \"@openzeppelin/contracts/utils/Context.sol\":712:729  return msg.sender */\n      swap1\n      pop\n        /* \"@openzeppelin/contracts/utils/Context.sol\":640:736  function _msgSender() internal view virtual returns (address) {... */\n      swap1\n      jump\t// out\n        /* \"@openzeppelin/contracts/token/ERC20/ERC20.sol\":10110:10480  function _approve(... */\n    tag_130:\n        /* \"@openzeppelin/contracts/token/ERC20/ERC20.sol\":10258:10259  0 */\n      0x00\n        /* \"@openzeppelin/contracts/token/ERC20/ERC20.sol\":10241:10260  owner != address(0) */\n      0xffffffffffffffffffffffffffffffffffffffff\n      and\n        /* \"@openzeppelin/contracts/token/ERC20/ERC20.sol\":10241:10246  owner */\n      dup4\n        /* \"@openzeppelin/contracts/token/ERC20/ERC20.sol\":10241:10260  owner != address(0) */\n      0xffffffffffffffffffffffffffffffffffffffff\n      and\n      eq\n      iszero\n        /* \"@openzeppelin/contracts/token/ERC20/ERC20.sol\":10233:10301  require(owner != address(0), \"ERC20: approve from the zero address\") */\n      tag_199\n      jumpi\n      mload(0x40)\n      0x08c379a000000000000000000000000000000000000000000000000000000000\n      dup2\n      mstore\n      0x04\n      add\n      tag_200\n      swap1\n      tag_201\n      jump\t// in\n    tag_200:\n      mload(0x40)\n      dup1\n      swap2\n      sub\n      swap1\n      revert\n    tag_199:\n        /* \"@openzeppelin/contracts/token/ERC20/ERC20.sol\":10338:10339  0 */\n      0x00\n        /* \"@openzeppelin/contracts/token/ERC20/ERC20.sol\":10319:10340  spender != address(0) */\n      0xffffffffffffffffffffffffffffffffffffffff\n      and\n        /* \"@openzeppelin/contracts/token/ERC20/ERC20.sol\":10319:10326  spender */\n      dup3\n        /* \"@openzeppelin/contracts/token/ERC20/ERC20.sol\":10319:10340  spender != address(0) */\n      0xffffffffffffffffffffffffffffffffffffffff\n      and\n      eq\n      iszero\n        /* \"@openzeppelin/contracts/token/ERC20/ERC20.sol\":10311:10379  require(spender != address(0), \"ERC20: approve to the zero address\") */\n      tag_202\n      jumpi\n      mload(0x40)\n      0x08c379a000000000000000000000000000000000000000000000000000000000\n      dup2\n      mstore\n      0x04\n      add\n      tag_203\n      swap1\n      tag_204\n      jump\t// in\n    tag_203:\n      mload(0x40)\n      dup1\n      swap2\n      sub\n      swap1\n      revert\n    tag_202:\n        /* \"@openzeppelin/contracts/token/ERC20/ERC20.sol\":10420:10426  amount */\n      dup1\n        /* \"@openzeppelin/contracts/token/ERC20/ERC20.sol\":10390:10401  _allowances */\n      0x01\n        /* \"@openzeppelin/contracts/token/ERC20/ERC20.sol\":10390:10408  _allowances[owner] */\n      0x00\n        /* \"@openzeppelin/contracts/token/ERC20/ERC20.sol\":10402:10407  owner */\n      dup6\n        /* \"@openzeppelin/contracts/token/ERC20/ERC20.sol\":10390:10408  _allowances[owner] */\n      0xffffffffffffffffffffffffffffffffffffffff\n      and\n      0xffffffffffffffffffffffffffffffffffffffff\n      and\n      dup2\n      mstore\n      0x20\n      add\n      swap1\n      dup2\n      mstore\n      0x20\n      add\n      0x00\n      keccak256\n        /* \"@openzeppelin/contracts/token/ERC20/ERC20.sol\":10390:10417  _allowances[owner][spender] */\n      0x00\n        /* \"@openzeppelin/contracts/token/ERC20/ERC20.sol\":10409:10416  spender */\n      dup5\n        /* \"@openzeppelin/contracts/token/ERC20/ERC20.sol\":10390:10417  _allowances[owner][spender] */\n      0xffffffffffffffffffffffffffffffffffffffff\n      and\n      0xffffffffffffffffffffffffffffffffffffffff\n      and\n      dup2\n      mstore\n      0x20\n      add\n      swap1\n      dup2\n      mstore\n      0x20\n      add\n      0x00\n      keccak256\n        /* \"@openzeppelin/contracts/token/ERC20/ERC20.sol\":10390:10426  _allowances[owner][spender] = amount */\n      dup2\n      swap1\n      sstore\n      pop\n        /* \"@openzeppelin/contracts/token/ERC20/ERC20.sol\":10457:10464  spender */\n      dup2\n        /* \"@openzeppelin/contracts/token/ERC20/ERC20.sol\":10441:10473  Approval(owner, spender, amount) */\n      0xffffffffffffffffffffffffffffffffffffffff\n      and\n        /* \"@openzeppelin/contracts/token/ERC20/ERC20.sol\":10450:10455  owner */\n      dup4\n        /* \"@openzeppelin/contracts/token/ERC20/ERC20.sol\":10441:10473  Approval(owner, spender, amount) */\n      0xffffffffffffffffffffffffffffffffffffffff\n      and\n      0x8c5be1e5ebec7d5bd14f71427d1e84f3dd0314c0f7b2291e5b200ac8c7c3b925\n        /* \"@openzeppelin/contracts/token/ERC20/ERC20.sol\":10466:10472  amount */\n      dup4\n        /* \"@openzeppelin/contracts/token/ERC20/ERC20.sol\":10441:10473  Approval(owner, spender, amount) */\n      mload(0x40)\n      tag_205\n      swap2\n      swap1\n      tag_46\n      jump\t// in\n    tag_205:\n      mload(0x40)\n      dup1\n      swap2\n      sub\n      swap1\n      log3\n        /* \"@openzeppelin/contracts/token/ERC20/ERC20.sol\":10110:10480  function _approve(... */\n      pop\n      pop\n      pop\n      jump\t// out\n        /* \"@openzeppelin/contracts/token/ERC20/ERC20.sol\":10761:11202  function _spendAllowance(... */\n    tag_135:\n        /* \"@openzeppelin/contracts/token/ERC20/ERC20.sol\":10891:10915  uint256 currentAllowance */\n      0x00\n        /* \"@openzeppelin/contracts/token/ERC20/ERC20.sol\":10918:10943  allowance(owner, spender) */\n      tag_207\n        /* \"@openzeppelin/contracts/token/ERC20/ERC20.sol\":10928:10933  owner */\n      dup5\n        /* \"@openzeppelin/contracts/token/ERC20/ERC20.sol\":10935:10942  spender */\n      dup5\n        /* \"@openzeppelin/contracts/token/ERC20/ERC20.sol\":10918:10927  allowance */\n      tag_109\n        /* \"@openzeppelin/contracts/token/ERC20/ERC20.sol\":10918:10943  allowance(owner, spender) */\n      jump\t// in\n    tag_207:\n        /* \"@openzeppelin/contracts/token/ERC20/ERC20.sol\":10891:10943  uint256 currentAllowance = allowance(owner, spender) */\n      swap1\n      pop\n        /* \"@openzeppelin/contracts/token/ERC20/ERC20.sol\":10977:10994  type(uint256).max */\n      0xffffffffffffffffffffffffffffffffffffffffffffffffffffffffffffffff\n        /* \"@openzeppelin/contracts/token/ERC20/ERC20.sol\":10957:10973  currentAllowance */\n      dup2\n        /* \"@openzeppelin/contracts/token/ERC20/ERC20.sol\":10957:10994  currentAllowance != type(uint256).max */\n      eq\n        /* \"@openzeppelin/contracts/token/ERC20/ERC20.sol\":10953:11196  if (currentAllowance != type(uint256).max) {... */\n      tag_208\n      jumpi\n        /* \"@openzeppelin/contracts/token/ERC20/ERC20.sol\":11038:11044  amount */\n      dup2\n        /* \"@openzeppelin/contracts/token/ERC20/ERC20.sol\":11018:11034  currentAllowance */\n      dup2\n        /* \"@openzeppelin/contracts/token/ERC20/ERC20.sol\":11018:11044  currentAllowance >= amount */\n      lt\n      iszero\n        /* \"@openzeppelin/contracts/token/ERC20/ERC20.sol\":11010:11078  require(currentAllowance >= amount, \"ERC20: insufficient allowance\") */\n      tag_209\n      jumpi\n      mload(0x40)\n      0x08c379a000000000000000000000000000000000000000000000000000000000\n      dup2\n      mstore\n      0x04\n      add\n      tag_210\n      swap1\n      tag_211\n      jump\t// in\n    tag_210:\n      mload(0x40)\n      dup1\n      swap2\n      sub\n      swap1\n      revert\n    tag_209:\n        /* \"@openzeppelin/contracts/token/ERC20/ERC20.sol\":11120:11171  _approve(owner, spender, currentAllowance - amount) */\n      tag_212\n        /* \"@openzeppelin/contracts/token/ERC20/ERC20.sol\":11129:11134  owner */\n      dup5\n        /* \"@openzeppelin/contracts/token/ERC20/ERC20.sol\":11136:11143  spender */\n      dup5\n        /* \"@openzeppelin/contracts/token/ERC20/ERC20.sol\":11164:11170  amount */\n      dup5\n        /* \"@openzeppelin/contracts/token/ERC20/ERC20.sol\":11145:11161  currentAllowance */\n      dup5\n        /* \"@openzeppelin/contracts/token/ERC20/ERC20.sol\":11145:11170  currentAllowance - amount */\n      sub\n        /* \"@openzeppelin/contracts/token/ERC20/ERC20.sol\":11120:11128  _approve */\n      tag_130\n        /* \"@openzeppelin/contracts/token/ERC20/ERC20.sol\":11120:11171  _approve(owner, spender, currentAllowance - amount) */\n      jump\t// in\n    tag_212:\n        /* \"@openzeppelin/contracts/token/ERC20/ERC20.sol\":10953:11196  if (currentAllowance != type(uint256).max) {... */\n    tag_208:\n        /* \"@openzeppelin/contracts/token/ERC20/ERC20.sol\":10881:11202  {... */\n      pop\n        /* \"@openzeppelin/contracts/token/ERC20/ERC20.sol\":10761:11202  function _spendAllowance(... */\n      pop\n      pop\n      pop\n      jump\t// out\n        /* \"@openzeppelin/contracts/token/ERC20/ERC20.sol\":7475:8126  function _transfer(... */\n    tag_137:\n        /* \"@openzeppelin/contracts/token/ERC20/ERC20.sol\":7617:7618  0 */\n      0x00\n        /* \"@openzeppelin/contracts/token/ERC20/ERC20.sol\":7601:7619  from != address(0) */\n      0xffffffffffffffffffffffffffffffffffffffff\n      and\n        /* \"@openzeppelin/contracts/token/ERC20/ERC20.sol\":7601:7605  from */\n      dup4\n        /* \"@openzeppelin/contracts/token/ERC20/ERC20.sol\":7601:7619  from != address(0) */\n      0xffffffffffffffffffffffffffffffffffffffff\n      and\n      eq\n      iszero\n        /* \"@openzeppelin/contracts/token/ERC20/ERC20.sol\":7593:7661  require(from != address(0), \"ERC20: transfer from the zero address\") */\n      tag_214\n      jumpi\n      mload(0x40)\n      0x08c379a000000000000000000000000000000000000000000000000000000000\n      dup2\n      mstore\n      0x04\n      add\n      tag_215\n      swap1\n      tag_216\n      jump\t// in\n    tag_215:\n      mload(0x40)\n      dup1\n      swap2\n      sub\n      swap1\n      revert\n    tag_214:\n        /* \"@openzeppelin/contracts/token/ERC20/ERC20.sol\":7693:7694  0 */\n      0x00\n        /* \"@openzeppelin/contracts/token/ERC20/ERC20.sol\":7679:7695  to != address(0) */\n      0xffffffffffffffffffffffffffffffffffffffff\n      and\n        /* \"@openzeppelin/contracts/token/ERC20/ERC20.sol\":7679:7681  to */\n      dup3\n        /* \"@openzeppelin/contracts/token/ERC20/ERC20.sol\":7679:7695  to != address(0) */\n      0xffffffffffffffffffffffffffffffffffffffff\n      and\n      eq\n      iszero\n        /* \"@openzeppelin/contracts/token/ERC20/ERC20.sol\":7671:7735  require(to != address(0), \"ERC20: transfer to the zero address\") */\n      tag_217\n      jumpi\n      mload(0x40)\n      0x08c379a000000000000000000000000000000000000000000000000000000000\n      dup2\n      mstore\n      0x04\n      add\n      tag_218\n      swap1\n      tag_219\n      jump\t// in\n    tag_218:\n      mload(0x40)\n      dup1\n      swap2\n      sub\n      swap1\n      revert\n    tag_217:\n        /* \"@openzeppelin/contracts/token/ERC20/ERC20.sol\":7746:7784  _beforeTokenTransfer(from, to, amount) */\n      tag_220\n        /* \"@openzeppelin/contracts/token/ERC20/ERC20.sol\":7767:7771  from */\n      dup4\n        /* \"@openzeppelin/contracts/token/ERC20/ERC20.sol\":7773:7775  to */\n      dup4\n        /* \"@openzeppelin/contracts/token/ERC20/ERC20.sol\":7777:7783  amount */\n      dup4\n        /* \"@openzeppelin/contracts/token/ERC20/ERC20.sol\":7746:7766  _beforeTokenTransfer */\n      tag_221\n        /* \"@openzeppelin/contracts/token/ERC20/ERC20.sol\":7746:7784  _beforeTokenTransfer(from, to, amount) */\n      jump\t// in\n    tag_220:\n        /* \"@openzeppelin/contracts/token/ERC20/ERC20.sol\":7795:7814  uint256 fromBalance */\n      0x00\n        /* \"@openzeppelin/contracts/token/ERC20/ERC20.sol\":7817:7826  _balances */\n      dup1\n        /* \"@openzeppelin/contracts/token/ERC20/ERC20.sol\":7817:7832  _balances[from] */\n      0x00\n        /* \"@openzeppelin/contracts/token/ERC20/ERC20.sol\":7827:7831  from */\n      dup6\n        /* \"@openzeppelin/contracts/token/ERC20/ERC20.sol\":7817:7832  _balances[from] */\n      0xffffffffffffffffffffffffffffffffffffffff\n      and\n      0xffffffffffffffffffffffffffffffffffffffff\n      and\n      dup2\n      mstore\n      0x20\n      add\n      swap1\n      dup2\n      mstore\n      0x20\n      add\n      0x00\n      keccak256\n      sload\n        /* \"@openzeppelin/contracts/token/ERC20/ERC20.sol\":7795:7832  uint256 fromBalance = _balances[from] */\n      swap1\n      pop\n        /* \"@openzeppelin/contracts/token/ERC20/ERC20.sol\":7865:7871  amount */\n      dup2\n        /* \"@openzeppelin/contracts/token/ERC20/ERC20.sol\":7850:7861  fromBalance */\n      dup2\n        /* \"@openzeppelin/contracts/token/ERC20/ERC20.sol\":7850:7871  fromBalance >= amount */\n      lt\n      iszero\n        /* \"@openzeppelin/contracts/token/ERC20/ERC20.sol\":7842:7914  require(fromBalance >= amount, \"ERC20: transfer amount exceeds balance\") */\n      tag_222\n      jumpi\n      mload(0x40)\n      0x08c379a000000000000000000000000000000000000000000000000000000000\n      dup2\n      mstore\n      0x04\n      add\n      tag_223\n      swap1\n      tag_224\n      jump\t// in\n    tag_223:\n      mload(0x40)\n      dup1\n      swap2\n      sub\n      swap1\n      revert\n    tag_222:\n        /* \"@openzeppelin/contracts/token/ERC20/ERC20.sol\":7980:7986  amount */\n      dup2\n        /* \"@openzeppelin/contracts/token/ERC20/ERC20.sol\":7966:7977  fromBalance */\n      dup2\n        /* \"@openzeppelin/contracts/token/ERC20/ERC20.sol\":7966:7986  fromBalance - amount */\n      sub\n        /* \"@openzeppelin/contracts/token/ERC20/ERC20.sol\":7948:7957  _balances */\n      0x00\n        /* \"@openzeppelin/contracts/token/ERC20/ERC20.sol\":7948:7963  _balances[from] */\n      dup1\n        /* \"@openzeppelin/contracts/token/ERC20/ERC20.sol\":7958:7962  from */\n      dup7\n        /* \"@openzeppelin/contracts/token/ERC20/ERC20.sol\":7948:7963  _balances[from] */\n      0xffffffffffffffffffffffffffffffffffffffff\n      and\n      0xffffffffffffffffffffffffffffffffffffffff\n      and\n      dup2\n      mstore\n      0x20\n      add\n      swap1\n      dup2\n      mstore\n      0x20\n      add\n      0x00\n      keccak256\n        /* \"@openzeppelin/contracts/token/ERC20/ERC20.sol\":7948:7986  _balances[from] = fromBalance - amount */\n      dup2\n      swap1\n      sstore\n      pop\n        /* \"@openzeppelin/contracts/token/ERC20/ERC20.sol\":8023:8029  amount */\n      dup2\n        /* \"@openzeppelin/contracts/token/ERC20/ERC20.sol\":8006:8015  _balances */\n      0x00\n        /* \"@openzeppelin/contracts/token/ERC20/ERC20.sol\":8006:8019  _balances[to] */\n      dup1\n        /* \"@openzeppelin/contracts/token/ERC20/ERC20.sol\":8016:8018  to */\n      dup6\n        /* \"@openzeppelin/contracts/token/ERC20/ERC20.sol\":8006:8019  _balances[to] */\n      0xffffffffffffffffffffffffffffffffffffffff\n      and\n      0xffffffffffffffffffffffffffffffffffffffff\n      and\n      dup2\n      mstore\n      0x20\n      add\n      swap1\n      dup2\n      mstore\n      0x20\n      add\n      0x00\n      keccak256\n      0x00\n        /* \"@openzeppelin/contracts/token/ERC20/ERC20.sol\":8006:8029  _balances[to] += amount */\n      dup3\n      dup3\n      sload\n      tag_225\n      swap2\n      swap1\n      tag_159\n      jump\t// in\n    tag_225:\n      swap3\n      pop\n      pop\n      dup2\n      swap1\n      sstore\n      pop\n        /* \"@openzeppelin/contracts/token/ERC20/ERC20.sol\":8060:8062  to */\n      dup3\n        /* \"@openzeppelin/contracts/token/ERC20/ERC20.sol\":8045:8071  Transfer(from, to, amount) */\n      0xffffffffffffffffffffffffffffffffffffffff\n      and\n        /* \"@openzeppelin/contracts/token/ERC20/ERC20.sol\":8054:8058  from */\n      dup5\n        /* \"@openzeppelin/contracts/token/ERC20/ERC20.sol\":8045:8071  Transfer(from, to, amount) */\n      0xffffffffffffffffffffffffffffffffffffffff\n      and\n      0xddf252ad1be2c89b69c2b068fc378daa952ba7f163c4a11628f55a4df523b3ef\n        /* \"@openzeppelin/contracts/token/ERC20/ERC20.sol\":8064:8070  amount */\n      dup5\n        /* \"@openzeppelin/contracts/token/ERC20/ERC20.sol\":8045:8071  Transfer(from, to, amount) */\n      mload(0x40)\n      tag_226\n      swap2\n      swap1\n      tag_46\n      jump\t// in\n    tag_226:\n      mload(0x40)\n      dup1\n      swap2\n      sub\n      swap1\n      log3\n        /* \"@openzeppelin/contracts/token/ERC20/ERC20.sol\":8082:8119  _afterTokenTransfer(from, to, amount) */\n      tag_227\n        /* \"@openzeppelin/contracts/token/ERC20/ERC20.sol\":8102:8106  from */\n      dup5\n        /* \"@openzeppelin/contracts/token/ERC20/ERC20.sol\":8108:8110  to */\n      dup5\n        /* \"@openzeppelin/contracts/token/ERC20/ERC20.sol\":8112:8118  amount */\n      dup5\n        /* \"@openzeppelin/contracts/token/ERC20/ERC20.sol\":8082:8101  _afterTokenTransfer */\n      tag_228\n        /* \"@openzeppelin/contracts/token/ERC20/ERC20.sol\":8082:8119  _afterTokenTransfer(from, to, amount) */\n      jump\t// in\n    tag_227:\n        /* \"@openzeppelin/contracts/token/ERC20/ERC20.sol\":7583:8126  {... */\n      pop\n        /* \"@openzeppelin/contracts/token/ERC20/ERC20.sol\":7475:8126  function _transfer(... */\n      pop\n      pop\n      pop\n      jump\t// out\n        /* \"@openzeppelin/contracts/access/AccessControl.sol\":3334:3437  function _checkRole(bytes32 role) internal view virtual {... */\n    tag_142:\n        /* \"@openzeppelin/contracts/access/AccessControl.sol\":3400:3430  _checkRole(role, _msgSender()) */\n      tag_230\n        /* \"@openzeppelin/contracts/access/AccessControl.sol\":3411:3415  role */\n      dup2\n        /* \"@openzeppelin/contracts/access/AccessControl.sol\":3417:3429  _msgSender() */\n      tag_231\n        /* \"@openzeppelin/contracts/access/AccessControl.sol\":3417:3427  _msgSender */\n      tag_128\n        /* \"@openzeppelin/contracts/access/AccessControl.sol\":3417:3429  _msgSender() */\n      jump\t// in\n    tag_231:\n        /* \"@openzeppelin/contracts/access/AccessControl.sol\":3400:3410  _checkRole */\n      tag_232\n        /* \"@openzeppelin/contracts/access/AccessControl.sol\":3400:3430  _checkRole(role, _msgSender()) */\n      jump\t// in\n    tag_230:\n        /* \"@openzeppelin/contracts/access/AccessControl.sol\":3334:3437  function _checkRole(bytes32 role) internal view virtual {... */\n      pop\n      jump\t// out\n        /* \"@openzeppelin/contracts/access/AccessControl.sol\":7474:7707  function _grantRole(bytes32 role, address account) internal virtual {... */\n    tag_145:\n        /* \"@openzeppelin/contracts/access/AccessControl.sol\":7557:7579  hasRole(role, account) */\n      tag_234\n        /* \"@openzeppelin/contracts/access/AccessControl.sol\":7565:7569  role */\n      dup3\n        /* \"@openzeppelin/contracts/access/AccessControl.sol\":7571:7578  account */\n      dup3\n        /* \"@openzeppelin/contracts/access/AccessControl.sol\":7557:7564  hasRole */\n      tag_87\n        /* \"@openzeppelin/contracts/access/AccessControl.sol\":7557:7579  hasRole(role, account) */\n      jump\t// in\n    tag_234:\n        /* \"@openzeppelin/contracts/access/AccessControl.sol\":7552:7701  if (!hasRole(role, account)) {... */\n      tag_235\n      jumpi\n        /* \"@openzeppelin/contracts/access/AccessControl.sol\":7627:7631  true */\n      0x01\n        /* \"@openzeppelin/contracts/access/AccessControl.sol\":7595:7601  _roles */\n      0x06\n        /* \"@openzeppelin/contracts/access/AccessControl.sol\":7595:7607  _roles[role] */\n      0x00\n        /* \"@openzeppelin/contracts/access/AccessControl.sol\":7602:7606  role */\n      dup5\n        /* \"@openzeppelin/contracts/access/AccessControl.sol\":7595:7607  _roles[role] */\n      dup2\n      mstore\n      0x20\n      add\n      swap1\n      dup2\n      mstore\n      0x20\n      add\n      0x00\n      keccak256\n        /* \"@openzeppelin/contracts/access/AccessControl.sol\":7595:7615  _roles[role].members */\n      0x00\n      add\n        /* \"@openzeppelin/contracts/access/AccessControl.sol\":7595:7624  _roles[role].members[account] */\n      0x00\n        /* \"@openzeppelin/contracts/access/AccessControl.sol\":7616:7623  account */\n      dup4\n        /* \"@openzeppelin/contracts/access/AccessControl.sol\":7595:7624  _roles[role].members[account] */\n      0xffffffffffffffffffffffffffffffffffffffff\n      and\n      0xffffffffffffffffffffffffffffffffffffffff\n      and\n      dup2\n      mstore\n      0x20\n      add\n      swap1\n      dup2\n      mstore\n      0x20\n      add\n      0x00\n      keccak256\n      0x00\n        /* \"@openzeppelin/contracts/access/AccessControl.sol\":7595:7631  _roles[role].members[account] = true */\n      0x0100\n      exp\n      dup2\n      sload\n      dup2\n      0xff\n      mul\n      not\n      and\n      swap1\n      dup4\n      iszero\n      iszero\n      mul\n      or\n      swap1\n      sstore\n      pop\n        /* \"@openzeppelin/contracts/access/AccessControl.sol\":7677:7689  _msgSender() */\n      tag_236\n        /* \"@openzeppelin/contracts/access/AccessControl.sol\":7677:7687  _msgSender */\n      tag_128\n        /* \"@openzeppelin/contracts/access/AccessControl.sol\":7677:7689  _msgSender() */\n      jump\t// in\n    tag_236:\n        /* \"@openzeppelin/contracts/access/AccessControl.sol\":7650:7690  RoleGranted(role, account, _msgSender()) */\n      0xffffffffffffffffffffffffffffffffffffffff\n      and\n        /* \"@openzeppelin/contracts/access/AccessControl.sol\":7668:7675  account */\n      dup2\n        /* \"@openzeppelin/contracts/access/AccessControl.sol\":7650:7690  RoleGranted(role, account, _msgSender()) */\n      0xffffffffffffffffffffffffffffffffffffffff\n      and\n        /* \"@openzeppelin/contracts/access/AccessControl.sol\":7662:7666  role */\n      dup4\n        /* \"@openzeppelin/contracts/access/AccessControl.sol\":7650:7690  RoleGranted(role, account, _msgSender()) */\n      0x2f8788117e7eff1d82e926ec794901d17c78024a50270940304540a733656f0d\n      mload(0x40)\n      mload(0x40)\n      dup1\n      swap2\n      sub\n      swap1\n      log4\n        /* \"@openzeppelin/contracts/access/AccessControl.sol\":7552:7701  if (!hasRole(role, account)) {... */\n    tag_235:\n        /* \"@openzeppelin/contracts/access/AccessControl.sol\":7474:7707  function _grantRole(bytes32 role, address account) internal virtual {... */\n      pop\n      pop\n      jump\t// out\n        /* \"@openzeppelin/contracts/access/AccessControl.sol\":7878:8112  function _revokeRole(bytes32 role, address account) internal virtual {... */\n    tag_153:\n        /* \"@openzeppelin/contracts/access/AccessControl.sol\":7961:7983  hasRole(role, account) */\n      tag_238\n        /* \"@openzeppelin/contracts/access/AccessControl.sol\":7969:7973  role */\n      dup3\n        /* \"@openzeppelin/contracts/access/AccessControl.sol\":7975:7982  account */\n      dup3\n        /* \"@openzeppelin/contracts/access/AccessControl.sol\":7961:7968  hasRole */\n      tag_87\n        /* \"@openzeppelin/contracts/access/AccessControl.sol\":7961:7983  hasRole(role, account) */\n      jump\t// in\n    tag_238:\n        /* \"@openzeppelin/contracts/access/AccessControl.sol\":7957:8106  if (hasRole(role, account)) {... */\n      iszero\n      tag_239\n      jumpi\n        /* \"@openzeppelin/contracts/access/AccessControl.sol\":8031:8036  false */\n      0x00\n        /* \"@openzeppelin/contracts/access/AccessControl.sol\":7999:8005  _roles */\n      0x06\n        /* \"@openzeppelin/contracts/access/AccessControl.sol\":7999:8011  _roles[role] */\n      0x00\n        /* \"@openzeppelin/contracts/access/AccessControl.sol\":8006:8010  role */\n      dup5\n        /* \"@openzeppelin/contracts/access/AccessControl.sol\":7999:8011  _roles[role] */\n      dup2\n      mstore\n      0x20\n      add\n      swap1\n      dup2\n      mstore\n      0x20\n      add\n      0x00\n      keccak256\n        /* \"@openzeppelin/contracts/access/AccessControl.sol\":7999:8019  _roles[role].members */\n      0x00\n      add\n        /* \"@openzeppelin/contracts/access/AccessControl.sol\":7999:8028  _roles[role].members[account] */\n      0x00\n        /* \"@openzeppelin/contracts/access/AccessControl.sol\":8020:8027  account */\n      dup4\n        /* \"@openzeppelin/contracts/access/AccessControl.sol\":7999:8028  _roles[role].members[account] */\n      0xffffffffffffffffffffffffffffffffffffffff\n      and\n      0xffffffffffffffffffffffffffffffffffffffff\n      and\n      dup2\n      mstore\n      0x20\n      add\n      swap1\n      dup2\n      mstore\n      0x20\n      add\n      0x00\n      keccak256\n      0x00\n        /* \"@openzeppelin/contracts/access/AccessControl.sol\":7999:8036  _roles[role].members[account] = false */\n      0x0100\n      exp\n      dup2\n      sload\n      dup2\n      0xff\n      mul\n      not\n      and\n      swap1\n      dup4\n      iszero\n      iszero\n      mul\n      or\n      swap1\n      sstore\n      pop\n        /* \"@openzeppelin/contracts/access/AccessControl.sol\":8082:8094  _msgSender() */\n      tag_240\n        /* \"@openzeppelin/contracts/access/AccessControl.sol\":8082:8092  _msgSender */\n      tag_128\n        /* \"@openzeppelin/contracts/access/AccessControl.sol\":8082:8094  _msgSender() */\n      jump\t// in\n    tag_240:\n        /* \"@openzeppelin/contracts/access/AccessControl.sol\":8055:8095  RoleRevoked(role, account, _msgSender()) */\n      0xffffffffffffffffffffffffffffffffffffffff\n      and\n        /* \"@openzeppelin/contracts/access/AccessControl.sol\":8073:8080  account */\n      dup2\n        /* \"@openzeppelin/contracts/access/AccessControl.sol\":8055:8095  RoleRevoked(role, account, _msgSender()) */\n      0xffffffffffffffffffffffffffffffffffffffff\n      and\n        /* \"@openzeppelin/contracts/access/AccessControl.sol\":8067:8071  role */\n      dup4\n        /* \"@openzeppelin/contracts/access/AccessControl.sol\":8055:8095  RoleRevoked(role, account, _msgSender()) */\n      0xf6391f5c32d9c69d2a47ea670b442974b53935d1edc7fd64eb21e047a839171b\n      mload(0x40)\n      mload(0x40)\n      dup1\n      swap2\n      sub\n      swap1\n      log4\n        /* \"@openzeppelin/contracts/access/AccessControl.sol\":7957:8106  if (hasRole(role, account)) {... */\n    tag_239:\n        /* \"@openzeppelin/contracts/access/AccessControl.sol\":7878:8112  function _revokeRole(bytes32 role, address account) internal virtual {... */\n      pop\n      pop\n      jump\t// out\n        /* \"@openzeppelin/contracts/security/Pausable.sol\":2433:2550  function _unpause() internal virtual whenPaused {... */\n    tag_164:\n        /* \"@openzeppelin/contracts/security/Pausable.sol\":1486:1502  _requirePaused() */\n      tag_242\n        /* \"@openzeppelin/contracts/security/Pausable.sol\":1486:1500  _requirePaused */\n      tag_243\n        /* \"@openzeppelin/contracts/security/Pausable.sol\":1486:1502  _requirePaused() */\n      jump\t// in\n    tag_242:\n        /* \"@openzeppelin/contracts/security/Pausable.sol\":2501:2506  false */\n      0x00\n        /* \"@openzeppelin/contracts/security/Pausable.sol\":2491:2498  _paused */\n      0x05\n      0x00\n        /* \"@openzeppelin/contracts/security/Pausable.sol\":2491:2506  _paused = false */\n      0x0100\n      exp\n      dup2\n      sload\n      dup2\n      0xff\n      mul\n      not\n      and\n      swap1\n      dup4\n      iszero\n      iszero\n      mul\n      or\n      swap1\n      sstore\n      pop\n        /* \"@openzeppelin/contracts/security/Pausable.sol\":2521:2543  Unpaused(_msgSender()) */\n      0x5db9ee0a495bf2e6ff9c91a7834c1ba4fdd244a5e8aa4e537bd38aeae4b073aa\n        /* \"@openzeppelin/contracts/security/Pausable.sol\":2530:2542  _msgSender() */\n      tag_245\n        /* \"@openzeppelin/contracts/security/Pausable.sol\":2530:2540  _msgSender */\n      tag_128\n        /* \"@openzeppelin/contracts/security/Pausable.sol\":2530:2542  _msgSender() */\n      jump\t// in\n    tag_245:\n        /* \"@openzeppelin/contracts/security/Pausable.sol\":2521:2543  Unpaused(_msgSender()) */\n      mload(0x40)\n      tag_246\n      swap2\n      swap1\n      tag_247\n      jump\t// in\n    tag_246:\n      mload(0x40)\n      dup1\n      swap2\n      sub\n      swap1\n      log1\n        /* \"@openzeppelin/contracts/security/Pausable.sol\":2433:2550  function _unpause() internal virtual whenPaused {... */\n      jump\t// out\n        /* \"@openzeppelin/contracts/security/Pausable.sol\":2186:2301  function _pause() internal virtual whenNotPaused {... */\n    tag_171:\n        /* \"@openzeppelin/contracts/security/Pausable.sol\":1239:1258  _requireNotPaused() */\n      tag_249\n        /* \"@openzeppelin/contracts/security/Pausable.sol\":1239:1256  _requireNotPaused */\n      tag_250\n        /* \"@openzeppelin/contracts/security/Pausable.sol\":1239:1258  _requireNotPaused() */\n      jump\t// in\n    tag_249:\n        /* \"@openzeppelin/contracts/security/Pausable.sol\":2255:2259  true */\n      0x01\n        /* \"@openzeppelin/contracts/security/Pausable.sol\":2245:2252  _paused */\n      0x05\n      0x00\n        /* \"@openzeppelin/contracts/security/Pausable.sol\":2245:2259  _paused = true */\n      0x0100\n      exp\n      dup2\n      sload\n      dup2\n      0xff\n      mul\n      not\n      and\n      swap1\n      dup4\n      iszero\n      iszero\n      mul\n      or\n      swap1\n      sstore\n      pop\n        /* \"@openzeppelin/contracts/security/Pausable.sol\":2274:2294  Paused(_msgSender()) */\n      0x62e78cea01bee320cd4e420270b5ea74000d11b0c9f74754ebdbfc544b05a258\n        /* \"@openzeppelin/contracts/security/Pausable.sol\":2281:2293  _msgSender() */\n      tag_252\n        /* \"@openzeppelin/contracts/security/Pausable.sol\":2281:2291  _msgSender */\n      tag_128\n        /* \"@openzeppelin/contracts/security/Pausable.sol\":2281:2293  _msgSender() */\n      jump\t// in\n    tag_252:\n        /* \"@openzeppelin/contracts/security/Pausable.sol\":2274:2294  Paused(_msgSender()) */\n      mload(0x40)\n      tag_253\n      swap2\n      swap1\n      tag_247\n      jump\t// in\n    tag_253:\n      mload(0x40)\n      dup1\n      swap2\n      sub\n      swap1\n      log1\n        /* \"@openzeppelin/contracts/security/Pausable.sol\":2186:2301  function _pause() internal virtual whenNotPaused {... */\n      jump\t// out\n        /* \"web3oj/erc-20/erc-20-pausable.sol\":759:952  function _beforeTokenTransfer(address from, address to, uint256 amount)... */\n    tag_221:\n        /* \"@openzeppelin/contracts/security/Pausable.sol\":1239:1258  _requireNotPaused() */\n      tag_255\n        /* \"@openzeppelin/contracts/security/Pausable.sol\":1239:1256  _requireNotPaused */\n      tag_250\n        /* \"@openzeppelin/contracts/security/Pausable.sol\":1239:1258  _requireNotPaused() */\n      jump\t// in\n    tag_255:\n        /* \"web3oj/erc-20/erc-20-pausable.sol\":901:945  super._beforeTokenTransfer(from, to, amount) */\n      tag_257\n        /* \"web3oj/erc-20/erc-20-pausable.sol\":928:932  from */\n      dup4\n        /* \"web3oj/erc-20/erc-20-pausable.sol\":934:936  to */\n      dup4\n        /* \"web3oj/erc-20/erc-20-pausable.sol\":938:944  amount */\n      dup4\n        /* \"web3oj/erc-20/erc-20-pausable.sol\":901:927  super._beforeTokenTransfer */\n      tag_114\n        /* \"web3oj/erc-20/erc-20-pausable.sol\":901:945  super._beforeTokenTransfer(from, to, amount) */\n      jump\t// in\n    tag_257:\n        /* \"web3oj/erc-20/erc-20-pausable.sol\":759:952  function _beforeTokenTransfer(address from, address to, uint256 amount)... */\n      pop\n      pop\n      pop\n      jump\t// out\n        /* \"@openzeppelin/contracts/token/ERC20/ERC20.sol\":12495:12615  function _afterTokenTransfer(... */\n    tag_228:\n      pop\n      pop\n      pop\n      jump\t// out\n        /* \"@openzeppelin/contracts/access/AccessControl.sol\":3718:4210  function _checkRole(bytes32 role, address account) internal view virtual {... */\n    tag_232:\n        /* \"@openzeppelin/contracts/access/AccessControl.sol\":3806:3828  hasRole(role, account) */\n      tag_260\n        /* \"@openzeppelin/contracts/access/AccessControl.sol\":3814:3818  role */\n      dup3\n        /* \"@openzeppelin/contracts/access/AccessControl.sol\":3820:3827  account */\n      dup3\n        /* \"@openzeppelin/contracts/access/AccessControl.sol\":3806:3813  hasRole */\n      tag_87\n        /* \"@openzeppelin/contracts/access/AccessControl.sol\":3806:3828  hasRole(role, account) */\n      jump\t// in\n    tag_260:\n        /* \"@openzeppelin/contracts/access/AccessControl.sol\":3801:4204  if (!hasRole(role, account)) {... */\n      tag_261\n      jumpi\n        /* \"@openzeppelin/contracts/access/AccessControl.sol\":3989:4030  Strings.toHexString(uint160(account), 20) */\n      tag_262\n        /* \"@openzeppelin/contracts/access/AccessControl.sol\":4017:4024  account */\n      dup2\n        /* \"@openzeppelin/contracts/access/AccessControl.sol\":3989:4030  Strings.toHexString(uint160(account), 20) */\n      0xffffffffffffffffffffffffffffffffffffffff\n      and\n        /* \"@openzeppelin/contracts/access/AccessControl.sol\":4027:4029  20 */\n      0x14\n        /* \"@openzeppelin/contracts/access/AccessControl.sol\":3989:4008  Strings.toHexString */\n      tag_263\n        /* \"@openzeppelin/contracts/access/AccessControl.sol\":3989:4030  Strings.toHexString(uint160(account), 20) */\n      jump\t// in\n    tag_262:\n        /* \"@openzeppelin/contracts/access/AccessControl.sol\":4101:4139  Strings.toHexString(uint256(role), 32) */\n      tag_264\n        /* \"@openzeppelin/contracts/access/AccessControl.sol\":4129:4133  role */\n      dup4\n        /* \"@openzeppelin/contracts/access/AccessControl.sol\":4121:4134  uint256(role) */\n      0x00\n      shr\n        /* \"@openzeppelin/contracts/access/AccessControl.sol\":4136:4138  32 */\n      0x20\n        /* \"@openzeppelin/contracts/access/AccessControl.sol\":4101:4120  Strings.toHexString */\n      tag_263\n        /* \"@openzeppelin/contracts/access/AccessControl.sol\":4101:4139  Strings.toHexString(uint256(role), 32) */\n      jump\t// in\n    tag_264:\n        /* \"@openzeppelin/contracts/access/AccessControl.sol\":3896:4161  abi.encodePacked(... */\n      add(0x20, mload(0x40))\n      tag_265\n      swap3\n      swap2\n      swap1\n      tag_266\n      jump\t// in\n    tag_265:\n      mload(0x40)\n      0x20\n      dup2\n      dup4\n      sub\n      sub\n      dup2\n      mstore\n      swap1\n      0x40\n      mstore\n        /* \"@openzeppelin/contracts/access/AccessControl.sol\":3844:4193  revert(... */\n      mload(0x40)\n      0x08c379a000000000000000000000000000000000000000000000000000000000\n      dup2\n      mstore\n      0x04\n      add\n      tag_267\n      swap2\n      swap1\n      tag_37\n      jump\t// in\n    tag_267:\n      mload(0x40)\n      dup1\n      swap2\n      sub\n      swap1\n      revert\n        /* \"@openzeppelin/contracts/access/AccessControl.sol\":3801:4204  if (!hasRole(role, account)) {... */\n    tag_261:\n        /* \"@openzeppelin/contracts/access/AccessControl.sol\":3718:4210  function _checkRole(bytes32 role, address account) internal view virtual {... */\n      pop\n      pop\n      jump\t// out\n        /* \"@openzeppelin/contracts/security/Pausable.sol\":1945:2051  function _requirePaused() internal view virtual {... */\n    tag_243:\n        /* \"@openzeppelin/contracts/security/Pausable.sol\":2011:2019  paused() */\n      tag_269\n        /* \"@openzeppelin/contracts/security/Pausable.sol\":2011:2017  paused */\n      tag_76\n        /* \"@openzeppelin/contracts/security/Pausable.sol\":2011:2019  paused() */\n      jump\t// in\n    tag_269:\n        /* \"@openzeppelin/contracts/security/Pausable.sol\":2003:2044  require(paused(), \"Pausable: not paused\") */\n      tag_270\n      jumpi\n      mload(0x40)\n      0x08c379a000000000000000000000000000000000000000000000000000000000\n      dup2\n      mstore\n      0x04\n      add\n      tag_271\n      swap1\n      tag_272\n      jump\t// in\n    tag_271:\n      mload(0x40)\n      dup1\n      swap2\n      sub\n      swap1\n      revert\n    tag_270:\n        /* \"@openzeppelin/contracts/security/Pausable.sol\":1945:2051  function _requirePaused() internal view virtual {... */\n      jump\t// out\n        /* \"@openzeppelin/contracts/security/Pausable.sol\":1767:1873  function _requireNotPaused() internal view virtual {... */\n    tag_250:\n        /* \"@openzeppelin/contracts/security/Pausable.sol\":1837:1845  paused() */\n      tag_274\n        /* \"@openzeppelin/contracts/security/Pausable.sol\":1837:1843  paused */\n      tag_76\n        /* \"@openzeppelin/contracts/security/Pausable.sol\":1837:1845  paused() */\n      jump\t// in\n    tag_274:\n        /* \"@openzeppelin/contracts/security/Pausable.sol\":1836:1845  !paused() */\n      iszero\n        /* \"@openzeppelin/contracts/security/Pausable.sol\":1828:1866  require(!paused(), \"Pausable: paused\") */\n      tag_275\n      jumpi\n      mload(0x40)\n      0x08c379a000000000000000000000000000000000000000000000000000000000\n      dup2\n      mstore\n      0x04\n      add\n      tag_276\n      swap1\n      tag_277\n      jump\t// in\n    tag_276:\n      mload(0x40)\n      dup1\n      swap2\n      sub\n      swap1\n      revert\n    tag_275:\n        /* \"@openzeppelin/contracts/security/Pausable.sol\":1767:1873  function _requireNotPaused() internal view virtual {... */\n      jump\t// out\n        /* \"@openzeppelin/contracts/utils/Strings.sol\":1652:2093  function toHexString(uint256 value, uint256 length) internal pure returns (string memory) {... */\n    tag_263:\n        /* \"@openzeppelin/contracts/utils/Strings.sol\":1727:1740  string memory */\n      0x60\n        /* \"@openzeppelin/contracts/utils/Strings.sol\":1752:1771  bytes memory buffer */\n      0x00\n        /* \"@openzeppelin/contracts/utils/Strings.sol\":1797:1798  2 */\n      0x02\n        /* \"@openzeppelin/contracts/utils/Strings.sol\":1788:1794  length */\n      dup4\n        /* \"@openzeppelin/contracts/utils/Strings.sol\":1784:1785  2 */\n      0x02\n        /* \"@openzeppelin/contracts/utils/Strings.sol\":1784:1794  2 * length */\n      tag_279\n      swap2\n      swap1\n      tag_280\n      jump\t// in\n    tag_279:\n        /* \"@openzeppelin/contracts/utils/Strings.sol\":1784:1798  2 * length + 2 */\n      tag_281\n      swap2\n      swap1\n      tag_159\n      jump\t// in\n    tag_281:\n        /* \"@openzeppelin/contracts/utils/Strings.sol\":1774:1799  new bytes(2 * length + 2) */\n      0xffffffffffffffff\n      dup2\n      gt\n      iszero\n      tag_282\n      jumpi\n      tag_283\n      tag_284\n      jump\t// in\n    tag_283:\n    tag_282:\n      mload(0x40)\n      swap1\n      dup1\n      dup3\n      mstore\n      dup1\n      0x1f\n      add\n      not(0x1f)\n      and\n      0x20\n      add\n      dup3\n      add\n      0x40\n      mstore\n      dup1\n      iszero\n      tag_285\n      jumpi\n      dup2\n      0x20\n      add\n      0x01\n      dup3\n      mul\n      dup1\n      calldatasize\n      dup4\n      calldatacopy\n      dup1\n      dup3\n      add\n      swap2\n      pop\n      pop\n      swap1\n      pop\n    tag_285:\n      pop\n        /* \"@openzeppelin/contracts/utils/Strings.sol\":1752:1799  bytes memory buffer = new bytes(2 * length + 2) */\n      swap1\n      pop\n        /* \"@openzeppelin/contracts/utils/Strings.sol\":1809:1824  buffer[0] = \"0\" */\n      0x3000000000000000000000000000000000000000000000000000000000000000\n        /* \"@openzeppelin/contracts/utils/Strings.sol\":1809:1815  buffer */\n      dup2\n        /* \"@openzeppelin/contracts/utils/Strings.sol\":1816:1817  0 */\n      0x00\n        /* \"@openzeppelin/contracts/utils/Strings.sol\":1809:1818  buffer[0] */\n      dup2\n      mload\n      dup2\n      lt\n      tag_286\n      jumpi\n      tag_287\n      tag_288\n      jump\t// in\n    tag_287:\n    tag_286:\n      0x20\n      add\n      add\n        /* \"@openzeppelin/contracts/utils/Strings.sol\":1809:1824  buffer[0] = \"0\" */\n      swap1\n      not(0xffffffffffffffffffffffffffffffffffffffffffffffffffffffffffffff)\n      and\n      swap1\n      dup2\n      0x00\n      byte\n      swap1\n      mstore8\n      pop\n        /* \"@openzeppelin/contracts/utils/Strings.sol\":1834:1849  buffer[1] = \"x\" */\n      0x7800000000000000000000000000000000000000000000000000000000000000\n        /* \"@openzeppelin/contracts/utils/Strings.sol\":1834:1840  buffer */\n      dup2\n        /* \"@openzeppelin/contracts/utils/Strings.sol\":1841:1842  1 */\n      0x01\n        /* \"@openzeppelin/contracts/utils/Strings.sol\":1834:1843  buffer[1] */\n      dup2\n      mload\n      dup2\n      lt\n      tag_289\n      jumpi\n      tag_290\n      tag_288\n      jump\t// in\n    tag_290:\n    tag_289:\n      0x20\n      add\n      add\n        /* \"@openzeppelin/contracts/utils/Strings.sol\":1834:1849  buffer[1] = \"x\" */\n      swap1\n      not(0xffffffffffffffffffffffffffffffffffffffffffffffffffffffffffffff)\n      and\n      swap1\n      dup2\n      0x00\n      byte\n      swap1\n      mstore8\n      pop\n        /* \"@openzeppelin/contracts/utils/Strings.sol\":1864:1873  uint256 i */\n      0x00\n        /* \"@openzeppelin/contracts/utils/Strings.sol\":1889:1890  1 */\n      0x01\n        /* \"@openzeppelin/contracts/utils/Strings.sol\":1880:1886  length */\n      dup5\n        /* \"@openzeppelin/contracts/utils/Strings.sol\":1876:1877  2 */\n      0x02\n        /* \"@openzeppelin/contracts/utils/Strings.sol\":1876:1886  2 * length */\n      tag_294\n      swap2\n      swap1\n      tag_280\n      jump\t// in\n    tag_294:\n        /* \"@openzeppelin/contracts/utils/Strings.sol\":1876:1890  2 * length + 1 */\n      tag_295\n      swap2\n      swap1\n      tag_159\n      jump\t// in\n    tag_295:\n        /* \"@openzeppelin/contracts/utils/Strings.sol\":1864:1890  uint256 i = 2 * length + 1 */\n      swap1\n      pop\n        /* \"@openzeppelin/contracts/utils/Strings.sol\":1859:1991  for (uint256 i = 2 * length + 1; i > 1; --i) {... */\n    tag_291:\n        /* \"@openzeppelin/contracts/utils/Strings.sol\":1896:1897  1 */\n      0x01\n        /* \"@openzeppelin/contracts/utils/Strings.sol\":1892:1893  i */\n      dup2\n        /* \"@openzeppelin/contracts/utils/Strings.sol\":1892:1897  i > 1 */\n      gt\n        /* \"@openzeppelin/contracts/utils/Strings.sol\":1859:1991  for (uint256 i = 2 * length + 1; i > 1; --i) {... */\n      iszero\n      tag_292\n      jumpi\n        /* \"@openzeppelin/contracts/utils/Strings.sol\":1930:1942  _HEX_SYMBOLS */\n      0x3031323334353637383961626364656600000000000000000000000000000000\n        /* \"@openzeppelin/contracts/utils/Strings.sol\":1951:1954  0xf */\n      0x0f\n        /* \"@openzeppelin/contracts/utils/Strings.sol\":1943:1948  value */\n      dup7\n        /* \"@openzeppelin/contracts/utils/Strings.sol\":1943:1954  value & 0xf */\n      and\n        /* \"@openzeppelin/contracts/utils/Strings.sol\":1930:1955  _HEX_SYMBOLS[value & 0xf] */\n      0x10\n      dup2\n      lt\n      tag_296\n      jumpi\n      tag_297\n      tag_288\n      jump\t// in\n    tag_297:\n    tag_296:\n      byte\n      0xf8\n      shl\n        /* \"@openzeppelin/contracts/utils/Strings.sol\":1918:1924  buffer */\n      dup3\n        /* \"@openzeppelin/contracts/utils/Strings.sol\":1925:1926  i */\n      dup3\n        /* \"@openzeppelin/contracts/utils/Strings.sol\":1918:1927  buffer[i] */\n      dup2\n      mload\n      dup2\n      lt\n      tag_298\n      jumpi\n      tag_299\n      tag_288\n      jump\t// in\n    tag_299:\n    tag_298:\n      0x20\n      add\n      add\n        /* \"@openzeppelin/contracts/utils/Strings.sol\":1918:1955  buffer[i] = _HEX_SYMBOLS[value & 0xf] */\n      swap1\n      not(0xffffffffffffffffffffffffffffffffffffffffffffffffffffffffffffff)\n      and\n      swap1\n      dup2\n      0x00\n      byte\n      swap1\n      mstore8\n      pop\n        /* \"@openzeppelin/contracts/utils/Strings.sol\":1979:1980  4 */\n      0x04\n        /* \"@openzeppelin/contracts/utils/Strings.sol\":1969:1980  value >>= 4 */\n      dup6\n      swap1\n      shr\n      swap5\n      pop\n        /* \"@openzeppelin/contracts/utils/Strings.sol\":1899:1902  --i */\n      dup1\n      tag_300\n      swap1\n      tag_301\n      jump\t// in\n    tag_300:\n      swap1\n      pop\n        /* \"@openzeppelin/contracts/utils/Strings.sol\":1859:1991  for (uint256 i = 2 * length + 1; i > 1; --i) {... */\n      jump(tag_291)\n    tag_292:\n      pop\n        /* \"@openzeppelin/contracts/utils/Strings.sol\":2017:2018  0 */\n      0x00\n        /* \"@openzeppelin/contracts/utils/Strings.sol\":2008:2013  value */\n      dup5\n        /* \"@openzeppelin/contracts/utils/Strings.sol\":2008:2018  value == 0 */\n      eq\n        /* \"@openzeppelin/contracts/utils/Strings.sol\":2000:2055  require(value == 0, \"Strings: hex length insufficient\") */\n      tag_302\n      jumpi\n      mload(0x40)\n      0x08c379a000000000000000000000000000000000000000000000000000000000\n      dup2\n      mstore\n      0x04\n      add\n      tag_303\n      swap1\n      tag_304\n      jump\t// in\n    tag_303:\n      mload(0x40)\n      dup1\n      swap2\n      sub\n      swap1\n      revert\n    tag_302:\n        /* \"@openzeppelin/contracts/utils/Strings.sol\":2079:2085  buffer */\n      dup1\n        /* \"@openzeppelin/contracts/utils/Strings.sol\":2065:2086  return string(buffer) */\n      swap2\n      pop\n      pop\n        /* \"@openzeppelin/contracts/utils/Strings.sol\":1652:2093  function toHexString(uint256 value, uint256 length) internal pure returns (string memory) {... */\n      swap3\n      swap2\n      pop\n      pop\n      jump\t// out\n        /* \"#utility.yul\":7:146   */\n    tag_306:\n        /* \"#utility.yul\":53:58   */\n      0x00\n        /* \"#utility.yul\":91:97   */\n      dup2\n        /* \"#utility.yul\":78:98   */\n      calldataload\n        /* \"#utility.yul\":69:98   */\n      swap1\n      pop\n        /* \"#utility.yul\":107:140   */\n      tag_308\n        /* \"#utility.yul\":134:139   */\n      dup2\n        /* \"#utility.yul\":107:140   */\n      tag_309\n      jump\t// in\n    tag_308:\n        /* \"#utility.yul\":7:146   */\n      swap3\n      swap2\n      pop\n      pop\n      jump\t// out\n        /* \"#utility.yul\":152:291   */\n    tag_310:\n        /* \"#utility.yul\":198:203   */\n      0x00\n        /* \"#utility.yul\":236:242   */\n      dup2\n        /* \"#utility.yul\":223:243   */\n      calldataload\n        /* \"#utility.yul\":214:243   */\n      swap1\n      pop\n        /* \"#utility.yul\":252:285   */\n      tag_312\n        /* \"#utility.yul\":279:284   */\n      dup2\n        /* \"#utility.yul\":252:285   */\n      tag_313\n      jump\t// in\n    tag_312:\n        /* \"#utility.yul\":152:291   */\n      swap3\n      swap2\n      pop\n      pop\n      jump\t// out\n        /* \"#utility.yul\":297:434   */\n    tag_314:\n        /* \"#utility.yul\":342:347   */\n      0x00\n        /* \"#utility.yul\":380:386   */\n      dup2\n        /* \"#utility.yul\":367:387   */\n      calldataload\n        /* \"#utility.yul\":358:387   */\n      swap1\n      pop\n        /* \"#utility.yul\":396:428   */\n      tag_316\n        /* \"#utility.yul\":422:427   */\n      dup2\n        /* \"#utility.yul\":396:428   */\n      tag_317\n      jump\t// in\n    tag_316:\n        /* \"#utility.yul\":297:434   */\n      swap3\n      swap2\n      pop\n      pop\n      jump\t// out\n        /* \"#utility.yul\":440:579   */\n    tag_318:\n        /* \"#utility.yul\":486:491   */\n      0x00\n        /* \"#utility.yul\":524:530   */\n      dup2\n        /* \"#utility.yul\":511:531   */\n      calldataload\n        /* \"#utility.yul\":502:531   */\n      swap1\n      pop\n        /* \"#utility.yul\":540:573   */\n      tag_320\n        /* \"#utility.yul\":567:572   */\n      dup2\n        /* \"#utility.yul\":540:573   */\n      tag_321\n      jump\t// in\n    tag_320:\n        /* \"#utility.yul\":440:579   */\n      swap3\n      swap2\n      pop\n      pop\n      jump\t// out\n        /* \"#utility.yul\":585:914   */\n    tag_80:\n        /* \"#utility.yul\":644:650   */\n      0x00\n        /* \"#utility.yul\":693:695   */\n      0x20\n        /* \"#utility.yul\":681:690   */\n      dup3\n        /* \"#utility.yul\":672:679   */\n      dup5\n        /* \"#utility.yul\":668:691   */\n      sub\n        /* \"#utility.yul\":664:696   */\n      slt\n        /* \"#utility.yul\":661:780   */\n      iszero\n      tag_323\n      jumpi\n        /* \"#utility.yul\":699:778   */\n      tag_324\n      tag_325\n      jump\t// in\n    tag_324:\n        /* \"#utility.yul\":661:780   */\n    tag_323:\n        /* \"#utility.yul\":819:820   */\n      0x00\n        /* \"#utility.yul\":844:897   */\n      tag_326\n        /* \"#utility.yul\":889:896   */\n      dup5\n        /* \"#utility.yul\":880:886   */\n      dup3\n        /* \"#utility.yul\":869:878   */\n      dup6\n        /* \"#utility.yul\":865:887   */\n      add\n        /* \"#utility.yul\":844:897   */\n      tag_306\n      jump\t// in\n    tag_326:\n        /* \"#utility.yul\":834:897   */\n      swap2\n      pop\n        /* \"#utility.yul\":790:907   */\n      pop\n        /* \"#utility.yul\":585:914   */\n      swap3\n      swap2\n      pop\n      pop\n      jump\t// out\n        /* \"#utility.yul\":920:1394   */\n    tag_108:\n        /* \"#utility.yul\":988:994   */\n      0x00\n        /* \"#utility.yul\":996:1002   */\n      dup1\n        /* \"#utility.yul\":1045:1047   */\n      0x40\n        /* \"#utility.yul\":1033:1042   */\n      dup4\n        /* \"#utility.yul\":1024:1031   */\n      dup6\n        /* \"#utility.yul\":1020:1043   */\n      sub\n        /* \"#utility.yul\":1016:1048   */\n      slt\n        /* \"#utility.yul\":1013:1132   */\n      iszero\n      tag_328\n      jumpi\n        /* \"#utility.yul\":1051:1130   */\n      tag_329\n      tag_325\n      jump\t// in\n    tag_329:\n        /* \"#utility.yul\":1013:1132   */\n    tag_328:\n        /* \"#utility.yul\":1171:1172   */\n      0x00\n        /* \"#utility.yul\":1196:1249   */\n      tag_330\n        /* \"#utility.yul\":1241:1248   */\n      dup6\n        /* \"#utility.yul\":1232:1238   */\n      dup3\n        /* \"#utility.yul\":1221:1230   */\n      dup7\n        /* \"#utility.yul\":1217:1239   */\n      add\n        /* \"#utility.yul\":1196:1249   */\n      tag_306\n      jump\t// in\n    tag_330:\n        /* \"#utility.yul\":1186:1249   */\n      swap3\n      pop\n        /* \"#utility.yul\":1142:1259   */\n      pop\n        /* \"#utility.yul\":1298:1300   */\n      0x20\n        /* \"#utility.yul\":1324:1377   */\n      tag_331\n        /* \"#utility.yul\":1369:1376   */\n      dup6\n        /* \"#utility.yul\":1360:1366   */\n      dup3\n        /* \"#utility.yul\":1349:1358   */\n      dup7\n        /* \"#utility.yul\":1345:1367   */\n      add\n        /* \"#utility.yul\":1324:1377   */\n      tag_306\n      jump\t// in\n    tag_331:\n        /* \"#utility.yul\":1314:1377   */\n      swap2\n      pop\n        /* \"#utility.yul\":1269:1387   */\n      pop\n        /* \"#utility.yul\":920:1394   */\n      swap3\n      pop\n      swap3\n      swap1\n      pop\n      jump\t// out\n        /* \"#utility.yul\":1400:2019   */\n    tag_49:\n        /* \"#utility.yul\":1477:1483   */\n      0x00\n        /* \"#utility.yul\":1485:1491   */\n      dup1\n        /* \"#utility.yul\":1493:1499   */\n      0x00\n        /* \"#utility.yul\":1542:1544   */\n      0x60\n        /* \"#utility.yul\":1530:1539   */\n      dup5\n        /* \"#utility.yul\":1521:1528   */\n      dup7\n        /* \"#utility.yul\":1517:1540   */\n      sub\n        /* \"#utility.yul\":1513:1545   */\n      slt\n        /* \"#utility.yul\":1510:1629   */\n      iszero\n      tag_333\n      jumpi\n        /* \"#utility.yul\":1548:1627   */\n      tag_334\n      tag_325\n      jump\t// in\n    tag_334:\n        /* \"#utility.yul\":1510:1629   */\n    tag_333:\n        /* \"#utility.yul\":1668:1669   */\n      0x00\n        /* \"#utility.yul\":1693:1746   */\n      tag_335\n        /* \"#utility.yul\":1738:1745   */\n      dup7\n        /* \"#utility.yul\":1729:1735   */\n      dup3\n        /* \"#utility.yul\":1718:1727   */\n      dup8\n        /* \"#utility.yul\":1714:1736   */\n      add\n        /* \"#utility.yul\":1693:1746   */\n      tag_306\n      jump\t// in\n    tag_335:\n        /* \"#utility.yul\":1683:1746   */\n      swap4\n      pop\n        /* \"#utility.yul\":1639:1756   */\n      pop\n        /* \"#utility.yul\":1795:1797   */\n      0x20\n        /* \"#utility.yul\":1821:1874   */\n      tag_336\n        /* \"#utility.yul\":1866:1873   */\n      dup7\n        /* \"#utility.yul\":1857:1863   */\n      dup3\n        /* \"#utility.yul\":1846:1855   */\n      dup8\n        /* \"#utility.yul\":1842:1864   */\n      add\n        /* \"#utility.yul\":1821:1874   */\n      tag_306\n      jump\t// in\n    tag_336:\n        /* \"#utility.yul\":1811:1874   */\n      swap3\n      pop\n        /* \"#utility.yul\":1766:1884   */\n      pop\n        /* \"#utility.yul\":1923:1925   */\n      0x40\n        /* \"#utility.yul\":1949:2002   */\n      tag_337\n        /* \"#utility.yul\":1994:2001   */\n      dup7\n        /* \"#utility.yul\":1985:1991   */\n      dup3\n        /* \"#utility.yul\":1974:1983   */\n      dup8\n        /* \"#utility.yul\":1970:1992   */\n      add\n        /* \"#utility.yul\":1949:2002   */\n      tag_318\n      jump\t// in\n    tag_337:\n        /* \"#utility.yul\":1939:2002   */\n      swap2\n      pop\n        /* \"#utility.yul\":1894:2012   */\n      pop\n        /* \"#utility.yul\":1400:2019   */\n      swap3\n      pop\n      swap3\n      pop\n      swap3\n      jump\t// out\n        /* \"#utility.yul\":2025:2499   */\n    tag_40:\n        /* \"#utility.yul\":2093:2099   */\n      0x00\n        /* \"#utility.yul\":2101:2107   */\n      dup1\n        /* \"#utility.yul\":2150:2152   */\n      0x40\n        /* \"#utility.yul\":2138:2147   */\n      dup4\n        /* \"#utility.yul\":2129:2136   */\n      dup6\n        /* \"#utility.yul\":2125:2148   */\n      sub\n        /* \"#utility.yul\":2121:2153   */\n      slt\n        /* \"#utility.yul\":2118:2237   */\n      iszero\n      tag_339\n      jumpi\n        /* \"#utility.yul\":2156:2235   */\n      tag_340\n      tag_325\n      jump\t// in\n    tag_340:\n        /* \"#utility.yul\":2118:2237   */\n    tag_339:\n        /* \"#utility.yul\":2276:2277   */\n      0x00\n        /* \"#utility.yul\":2301:2354   */\n      tag_341\n        /* \"#utility.yul\":2346:2353   */\n      dup6\n        /* \"#utility.yul\":2337:2343   */\n      dup3\n        /* \"#utility.yul\":2326:2335   */\n      dup7\n        /* \"#utility.yul\":2322:2344   */\n      add\n        /* \"#utility.yul\":2301:2354   */\n      tag_306\n      jump\t// in\n    tag_341:\n        /* \"#utility.yul\":2291:2354   */\n      swap3\n      pop\n        /* \"#utility.yul\":2247:2364   */\n      pop\n        /* \"#utility.yul\":2403:2405   */\n      0x20\n        /* \"#utility.yul\":2429:2482   */\n      tag_342\n        /* \"#utility.yul\":2474:2481   */\n      dup6\n        /* \"#utility.yul\":2465:2471   */\n      dup3\n        /* \"#utility.yul\":2454:2463   */\n      dup7\n        /* \"#utility.yul\":2450:2472   */\n      add\n        /* \"#utility.yul\":2429:2482   */\n      tag_318\n      jump\t// in\n    tag_342:\n        /* \"#utility.yul\":2419:2482   */\n      swap2\n      pop\n        /* \"#utility.yul\":2374:2492   */\n      pop\n        /* \"#utility.yul\":2025:2499   */\n      swap3\n      pop\n      swap3\n      swap1\n      pop\n      jump\t// out\n        /* \"#utility.yul\":2505:2834   */\n    tag_54:\n        /* \"#utility.yul\":2564:2570   */\n      0x00\n        /* \"#utility.yul\":2613:2615   */\n      0x20\n        /* \"#utility.yul\":2601:2610   */\n      dup3\n        /* \"#utility.yul\":2592:2599   */\n      dup5\n        /* \"#utility.yul\":2588:2611   */\n      sub\n        /* \"#utility.yul\":2584:2616   */\n      slt\n        /* \"#utility.yul\":2581:2700   */\n      iszero\n      tag_344\n      jumpi\n        /* \"#utility.yul\":2619:2698   */\n      tag_345\n      tag_325\n      jump\t// in\n    tag_345:\n        /* \"#utility.yul\":2581:2700   */\n    tag_344:\n        /* \"#utility.yul\":2739:2740   */\n      0x00\n        /* \"#utility.yul\":2764:2817   */\n      tag_346\n        /* \"#utility.yul\":2809:2816   */\n      dup5\n        /* \"#utility.yul\":2800:2806   */\n      dup3\n        /* \"#utility.yul\":2789:2798   */\n      dup6\n        /* \"#utility.yul\":2785:2807   */\n      add\n        /* \"#utility.yul\":2764:2817   */\n      tag_310\n      jump\t// in\n    tag_346:\n        /* \"#utility.yul\":2754:2817   */\n      swap2\n      pop\n        /* \"#utility.yul\":2710:2827   */\n      pop\n        /* \"#utility.yul\":2505:2834   */\n      swap3\n      swap2\n      pop\n      pop\n      jump\t// out\n        /* \"#utility.yul\":2840:3314   */\n    tag_60:\n        /* \"#utility.yul\":2908:2914   */\n      0x00\n        /* \"#utility.yul\":2916:2922   */\n      dup1\n        /* \"#utility.yul\":2965:2967   */\n      0x40\n        /* \"#utility.yul\":2953:2962   */\n      dup4\n        /* \"#utility.yul\":2944:2951   */\n      dup6\n        /* \"#utility.yul\":2940:2963   */\n      sub\n        /* \"#utility.yul\":2936:2968   */\n      slt\n        /* \"#utility.yul\":2933:3052   */\n      iszero\n      tag_348\n      jumpi\n        /* \"#utility.yul\":2971:3050   */\n      tag_349\n      tag_325\n      jump\t// in\n    tag_349:\n        /* \"#utility.yul\":2933:3052   */\n    tag_348:\n        /* \"#utility.yul\":3091:3092   */\n      0x00\n        /* \"#utility.yul\":3116:3169   */\n      tag_350\n        /* \"#utility.yul\":3161:3168   */\n      dup6\n        /* \"#utility.yul\":3152:3158   */\n      dup3\n        /* \"#utility.yul\":3141:3150   */\n      dup7\n        /* \"#utility.yul\":3137:3159   */\n      add\n        /* \"#utility.yul\":3116:3169   */\n      tag_310\n      jump\t// in\n    tag_350:\n        /* \"#utility.yul\":3106:3169   */\n      swap3\n      pop\n        /* \"#utility.yul\":3062:3179   */\n      pop\n        /* \"#utility.yul\":3218:3220   */\n      0x20\n        /* \"#utility.yul\":3244:3297   */\n      tag_351\n        /* \"#utility.yul\":3289:3296   */\n      dup6\n        /* \"#utility.yul\":3280:3286   */\n      dup3\n        /* \"#utility.yul\":3269:3278   */\n      dup7\n        /* \"#utility.yul\":3265:3287   */\n      add\n        /* \"#utility.yul\":3244:3297   */\n      tag_306\n      jump\t// in\n    tag_351:\n        /* \"#utility.yul\":3234:3297   */\n      swap2\n      pop\n        /* \"#utility.yul\":3189:3307   */\n      pop\n        /* \"#utility.yul\":2840:3314   */\n      swap3\n      pop\n      swap3\n      swap1\n      pop\n      jump\t// out\n        /* \"#utility.yul\":3320:3647   */\n    tag_30:\n        /* \"#utility.yul\":3378:3384   */\n      0x00\n        /* \"#utility.yul\":3427:3429   */\n      0x20\n        /* \"#utility.yul\":3415:3424   */\n      dup3\n        /* \"#utility.yul\":3406:3413   */\n      dup5\n        /* \"#utility.yul\":3402:3425   */\n      sub\n        /* \"#utility.yul\":3398:3430   */\n      slt\n        /* \"#utility.yul\":3395:3514   */\n      iszero\n      tag_353\n      jumpi\n        /* \"#utility.yul\":3433:3512   */\n      tag_354\n      tag_325\n      jump\t// in\n    tag_354:\n        /* \"#utility.yul\":3395:3514   */\n    tag_353:\n        /* \"#utility.yul\":3553:3554   */\n      0x00\n        /* \"#utility.yul\":3578:3630   */\n      tag_355\n        /* \"#utility.yul\":3622:3629   */\n      dup5\n        /* \"#utility.yul\":3613:3619   */\n      dup3\n        /* \"#utility.yul\":3602:3611   */\n      dup6\n        /* \"#utility.yul\":3598:3620   */\n      add\n        /* \"#utility.yul\":3578:3630   */\n      tag_314\n      jump\t// in\n    tag_355:\n        /* \"#utility.yul\":3568:3630   */\n      swap2\n      pop\n        /* \"#utility.yul\":3524:3640   */\n      pop\n        /* \"#utility.yul\":3320:3647   */\n      swap3\n      swap2\n      pop\n      pop\n      jump\t// out\n        /* \"#utility.yul\":3653:3771   */\n    tag_356:\n        /* \"#utility.yul\":3740:3764   */\n      tag_358\n        /* \"#utility.yul\":3758:3763   */\n      dup2\n        /* \"#utility.yul\":3740:3764   */\n      tag_359\n      jump\t// in\n    tag_358:\n        /* \"#utility.yul\":3735:3738   */\n      dup3\n        /* \"#utility.yul\":3728:3765   */\n      mstore\n        /* \"#utility.yul\":3653:3771   */\n      pop\n      pop\n      jump\t// out\n        /* \"#utility.yul\":3777:3886   */\n    tag_360:\n        /* \"#utility.yul\":3858:3879   */\n      tag_362\n        /* \"#utility.yul\":3873:3878   */\n      dup2\n        /* \"#utility.yul\":3858:3879   */\n      tag_363\n      jump\t// in\n    tag_362:\n        /* \"#utility.yul\":3853:3856   */\n      dup3\n        /* \"#utility.yul\":3846:3880   */\n      mstore\n        /* \"#utility.yul\":3777:3886   */\n      pop\n      pop\n      jump\t// out\n        /* \"#utility.yul\":3892:4010   */\n    tag_364:\n        /* \"#utility.yul\":3979:4003   */\n      tag_366\n        /* \"#utility.yul\":3997:4002   */\n      dup2\n        /* \"#utility.yul\":3979:4003   */\n      tag_367\n      jump\t// in\n    tag_366:\n        /* \"#utility.yul\":3974:3977   */\n      dup3\n        /* \"#utility.yul\":3967:4004   */\n      mstore\n        /* \"#utility.yul\":3892:4010   */\n      pop\n      pop\n      jump\t// out\n        /* \"#utility.yul\":4016:4380   */\n    tag_368:\n        /* \"#utility.yul\":4104:4107   */\n      0x00\n        /* \"#utility.yul\":4132:4171   */\n      tag_370\n        /* \"#utility.yul\":4165:4170   */\n      dup3\n        /* \"#utility.yul\":4132:4171   */\n      tag_371\n      jump\t// in\n    tag_370:\n        /* \"#utility.yul\":4187:4258   */\n      tag_372\n        /* \"#utility.yul\":4251:4257   */\n      dup2\n        /* \"#utility.yul\":4246:4249   */\n      dup6\n        /* \"#utility.yul\":4187:4258   */\n      tag_373\n      jump\t// in\n    tag_372:\n        /* \"#utility.yul\":4180:4258   */\n      swap4\n      pop\n        /* \"#utility.yul\":4267:4319   */\n      tag_374\n        /* \"#utility.yul\":4312:4318   */\n      dup2\n        /* \"#utility.yul\":4307:4310   */\n      dup6\n        /* \"#utility.yul\":4300:4304   */\n      0x20\n        /* \"#utility.yul\":4293:4298   */\n      dup7\n        /* \"#utility.yul\":4289:4305   */\n      add\n        /* \"#utility.yul\":4267:4319   */\n      tag_375\n      jump\t// in\n    tag_374:\n        /* \"#utility.yul\":4344:4373   */\n      tag_376\n        /* \"#utility.yul\":4366:4372   */\n      dup2\n        /* \"#utility.yul\":4344:4373   */\n      tag_377\n      jump\t// in\n    tag_376:\n        /* \"#utility.yul\":4339:4342   */\n      dup5\n        /* \"#utility.yul\":4335:4374   */\n      add\n        /* \"#utility.yul\":4328:4374   */\n      swap2\n      pop\n        /* \"#utility.yul\":4108:4380   */\n      pop\n        /* \"#utility.yul\":4016:4380   */\n      swap3\n      swap2\n      pop\n      pop\n      jump\t// out\n        /* \"#utility.yul\":4386:4763   */\n    tag_378:\n        /* \"#utility.yul\":4492:4495   */\n      0x00\n        /* \"#utility.yul\":4520:4559   */\n      tag_380\n        /* \"#utility.yul\":4553:4558   */\n      dup3\n        /* \"#utility.yul\":4520:4559   */\n      tag_371\n      jump\t// in\n    tag_380:\n        /* \"#utility.yul\":4575:4664   */\n      tag_381\n        /* \"#utility.yul\":4657:4663   */\n      dup2\n        /* \"#utility.yul\":4652:4655   */\n      dup6\n        /* \"#utility.yul\":4575:4664   */\n      tag_382\n      jump\t// in\n    tag_381:\n        /* \"#utility.yul\":4568:4664   */\n      swap4\n      pop\n        /* \"#utility.yul\":4673:4725   */\n      tag_383\n        /* \"#utility.yul\":4718:4724   */\n      dup2\n        /* \"#utility.yul\":4713:4716   */\n      dup6\n        /* \"#utility.yul\":4706:4710   */\n      0x20\n        /* \"#utility.yul\":4699:4704   */\n      dup7\n        /* \"#utility.yul\":4695:4711   */\n      add\n        /* \"#utility.yul\":4673:4725   */\n      tag_375\n      jump\t// in\n    tag_383:\n        /* \"#utility.yul\":4750:4756   */\n      dup1\n        /* \"#utility.yul\":4745:4748   */\n      dup5\n        /* \"#utility.yul\":4741:4757   */\n      add\n        /* \"#utility.yul\":4734:4757   */\n      swap2\n      pop\n        /* \"#utility.yul\":4496:4763   */\n      pop\n        /* \"#utility.yul\":4386:4763   */\n      swap3\n      swap2\n      pop\n      pop\n      jump\t// out\n        /* \"#utility.yul\":4769:5135   */\n    tag_384:\n        /* \"#utility.yul\":4911:4914   */\n      0x00\n        /* \"#utility.yul\":4932:4999   */\n      tag_386\n        /* \"#utility.yul\":4996:4998   */\n      0x20\n        /* \"#utility.yul\":4991:4994   */\n      dup4\n        /* \"#utility.yul\":4932:4999   */\n      tag_373\n      jump\t// in\n    tag_386:\n        /* \"#utility.yul\":4925:4999   */\n      swap2\n      pop\n        /* \"#utility.yul\":5008:5101   */\n      tag_387\n        /* \"#utility.yul\":5097:5100   */\n      dup3\n        /* \"#utility.yul\":5008:5101   */\n      tag_388\n      jump\t// in\n    tag_387:\n        /* \"#utility.yul\":5126:5128   */\n      0x20\n        /* \"#utility.yul\":5121:5124   */\n      dup3\n        /* \"#utility.yul\":5117:5129   */\n      add\n        /* \"#utility.yul\":5110:5129   */\n      swap1\n      pop\n        /* \"#utility.yul\":4769:5135   */\n      swap2\n      swap1\n      pop\n      jump\t// out\n        /* \"#utility.yul\":5141:5507   */\n    tag_389:\n        /* \"#utility.yul\":5283:5286   */\n      0x00\n        /* \"#utility.yul\":5304:5371   */\n      tag_391\n        /* \"#utility.yul\":5368:5370   */\n      0x23\n        /* \"#utility.yul\":5363:5366   */\n      dup4\n        /* \"#utility.yul\":5304:5371   */\n      tag_373\n      jump\t// in\n    tag_391:\n        /* \"#utility.yul\":5297:5371   */\n      swap2\n      pop\n        /* \"#utility.yul\":5380:5473   */\n      tag_392\n        /* \"#utility.yul\":5469:5472   */\n      dup3\n        /* \"#utility.yul\":5380:5473   */\n      tag_393\n      jump\t// in\n    tag_392:\n        /* \"#utility.yul\":5498:5500   */\n      0x40\n        /* \"#utility.yul\":5493:5496   */\n      dup3\n        /* \"#utility.yul\":5489:5501   */\n      add\n        /* \"#utility.yul\":5482:5501   */\n      swap1\n      pop\n        /* \"#utility.yul\":5141:5507   */\n      swap2\n      swap1\n      pop\n      jump\t// out\n        /* \"#utility.yul\":5513:5879   */\n    tag_394:\n        /* \"#utility.yul\":5655:5658   */\n      0x00\n        /* \"#utility.yul\":5676:5743   */\n      tag_396\n        /* \"#utility.yul\":5740:5742   */\n      0x14\n        /* \"#utility.yul\":5735:5738   */\n      dup4\n        /* \"#utility.yul\":5676:5743   */\n      tag_373\n      jump\t// in\n    tag_396:\n        /* \"#utility.yul\":5669:5743   */\n      swap2\n      pop\n        /* \"#utility.yul\":5752:5845   */\n      tag_397\n        /* \"#utility.yul\":5841:5844   */\n      dup3\n        /* \"#utility.yul\":5752:5845   */\n      tag_398\n      jump\t// in\n    tag_397:\n        /* \"#utility.yul\":5870:5872   */\n      0x20\n        /* \"#utility.yul\":5865:5868   */\n      dup3\n        /* \"#utility.yul\":5861:5873   */\n      add\n        /* \"#utility.yul\":5854:5873   */\n      swap1\n      pop\n        /* \"#utility.yul\":5513:5879   */\n      swap2\n      swap1\n      pop\n      jump\t// out\n        /* \"#utility.yul\":5885:6251   */\n    tag_399:\n        /* \"#utility.yul\":6027:6030   */\n      0x00\n        /* \"#utility.yul\":6048:6115   */\n      tag_401\n        /* \"#utility.yul\":6112:6114   */\n      0x22\n        /* \"#utility.yul\":6107:6110   */\n      dup4\n        /* \"#utility.yul\":6048:6115   */\n      tag_373\n      jump\t// in\n    tag_401:\n        /* \"#utility.yul\":6041:6115   */\n      swap2\n      pop\n        /* \"#utility.yul\":6124:6217   */\n      tag_402\n        /* \"#utility.yul\":6213:6216   */\n      dup3\n        /* \"#utility.yul\":6124:6217   */\n      tag_403\n      jump\t// in\n    tag_402:\n        /* \"#utility.yul\":6242:6244   */\n      0x40\n        /* \"#utility.yul\":6237:6240   */\n      dup3\n        /* \"#utility.yul\":6233:6245   */\n      add\n        /* \"#utility.yul\":6226:6245   */\n      swap1\n      pop\n        /* \"#utility.yul\":5885:6251   */\n      swap2\n      swap1\n      pop\n      jump\t// out\n        /* \"#utility.yul\":6257:6623   */\n    tag_404:\n        /* \"#utility.yul\":6399:6402   */\n      0x00\n        /* \"#utility.yul\":6420:6487   */\n      tag_406\n        /* \"#utility.yul\":6484:6486   */\n      0x1d\n        /* \"#utility.yul\":6479:6482   */\n      dup4\n        /* \"#utility.yul\":6420:6487   */\n      tag_373\n      jump\t// in\n    tag_406:\n        /* \"#utility.yul\":6413:6487   */\n      swap2\n      pop\n        /* \"#utility.yul\":6496:6589   */\n      tag_407\n        /* \"#utility.yul\":6585:6588   */\n      dup3\n        /* \"#utility.yul\":6496:6589   */\n      tag_408\n      jump\t// in\n    tag_407:\n        /* \"#utility.yul\":6614:6616   */\n      0x20\n        /* \"#utility.yul\":6609:6612   */\n      dup3\n        /* \"#utility.yul\":6605:6617   */\n      add\n        /* \"#utility.yul\":6598:6617   */\n      swap1\n      pop\n        /* \"#utility.yul\":6257:6623   */\n      swap2\n      swap1\n      pop\n      jump\t// out\n        /* \"#utility.yul\":6629:6995   */\n    tag_409:\n        /* \"#utility.yul\":6771:6774   */\n      0x00\n        /* \"#utility.yul\":6792:6859   */\n      tag_411\n        /* \"#utility.yul\":6856:6858   */\n      0x26\n        /* \"#utility.yul\":6851:6854   */\n      dup4\n        /* \"#utility.yul\":6792:6859   */\n      tag_373\n      jump\t// in\n    tag_411:\n        /* \"#utility.yul\":6785:6859   */\n      swap2\n      pop\n        /* \"#utility.yul\":6868:6961   */\n      tag_412\n        /* \"#utility.yul\":6957:6960   */\n      dup3\n        /* \"#utility.yul\":6868:6961   */\n      tag_413\n      jump\t// in\n    tag_412:\n        /* \"#utility.yul\":6986:6988   */\n      0x40\n        /* \"#utility.yul\":6981:6984   */\n      dup3\n        /* \"#utility.yul\":6977:6989   */\n      add\n        /* \"#utility.yul\":6970:6989   */\n      swap1\n      pop\n        /* \"#utility.yul\":6629:6995   */\n      swap2\n      swap1\n      pop\n      jump\t// out\n        /* \"#utility.yul\":7001:7367   */\n    tag_414:\n        /* \"#utility.yul\":7143:7146   */\n      0x00\n        /* \"#utility.yul\":7164:7231   */\n      tag_416\n        /* \"#utility.yul\":7228:7230   */\n      0x10\n        /* \"#utility.yul\":7223:7226   */\n      dup4\n        /* \"#utility.yul\":7164:7231   */\n      tag_373\n      jump\t// in\n    tag_416:\n        /* \"#utility.yul\":7157:7231   */\n      swap2\n      pop\n        /* \"#utility.yul\":7240:7333   */\n      tag_417\n        /* \"#utility.yul\":7329:7332   */\n      dup3\n        /* \"#utility.yul\":7240:7333   */\n      tag_418\n      jump\t// in\n    tag_417:\n        /* \"#utility.yul\":7358:7360   */\n      0x20\n        /* \"#utility.yul\":7353:7356   */\n      dup3\n        /* \"#utility.yul\":7349:7361   */\n      add\n        /* \"#utility.yul\":7342:7361   */\n      swap1\n      pop\n        /* \"#utility.yul\":7001:7367   */\n      swap2\n      swap1\n      pop\n      jump\t// out\n        /* \"#utility.yul\":7373:7739   */\n    tag_419:\n        /* \"#utility.yul\":7515:7518   */\n      0x00\n        /* \"#utility.yul\":7536:7603   */\n      tag_421\n        /* \"#utility.yul\":7600:7602   */\n      0x25\n        /* \"#utility.yul\":7595:7598   */\n      dup4\n        /* \"#utility.yul\":7536:7603   */\n      tag_373\n      jump\t// in\n    tag_421:\n        /* \"#utility.yul\":7529:7603   */\n      swap2\n      pop\n        /* \"#utility.yul\":7612:7705   */\n      tag_422\n        /* \"#utility.yul\":7701:7704   */\n      dup3\n        /* \"#utility.yul\":7612:7705   */\n      tag_423\n      jump\t// in\n    tag_422:\n        /* \"#utility.yul\":7730:7732   */\n      0x40\n        /* \"#utility.yul\":7725:7728   */\n      dup3\n        /* \"#utility.yul\":7721:7733   */\n      add\n        /* \"#utility.yul\":7714:7733   */\n      swap1\n      pop\n        /* \"#utility.yul\":7373:7739   */\n      swap2\n      swap1\n      pop\n      jump\t// out\n        /* \"#utility.yul\":7745:8111   */\n    tag_424:\n        /* \"#utility.yul\":7887:7890   */\n      0x00\n        /* \"#utility.yul\":7908:7975   */\n      tag_426\n        /* \"#utility.yul\":7972:7974   */\n      0x24\n        /* \"#utility.yul\":7967:7970   */\n      dup4\n        /* \"#utility.yul\":7908:7975   */\n      tag_373\n      jump\t// in\n    tag_426:\n        /* \"#utility.yul\":7901:7975   */\n      swap2\n      pop\n        /* \"#utility.yul\":7984:8077   */\n      tag_427\n        /* \"#utility.yul\":8073:8076   */\n      dup3\n        /* \"#utility.yul\":7984:8077   */\n      tag_428\n      jump\t// in\n    tag_427:\n        /* \"#utility.yul\":8102:8104   */\n      0x40\n        /* \"#utility.yul\":8097:8100   */\n      dup3\n        /* \"#utility.yul\":8093:8105   */\n      add\n        /* \"#utility.yul\":8086:8105   */\n      swap1\n      pop\n        /* \"#utility.yul\":7745:8111   */\n      swap2\n      swap1\n      pop\n      jump\t// out\n        /* \"#utility.yul\":8117:8519   */\n    tag_429:\n        /* \"#utility.yul\":8277:8280   */\n      0x00\n        /* \"#utility.yul\":8298:8383   */\n      tag_431\n        /* \"#utility.yul\":8380:8382   */\n      0x17\n        /* \"#utility.yul\":8375:8378   */\n      dup4\n        /* \"#utility.yul\":8298:8383   */\n      tag_382\n      jump\t// in\n    tag_431:\n        /* \"#utility.yul\":8291:8383   */\n      swap2\n      pop\n        /* \"#utility.yul\":8392:8485   */\n      tag_432\n        /* \"#utility.yul\":8481:8484   */\n      dup3\n        /* \"#utility.yul\":8392:8485   */\n      tag_433\n      jump\t// in\n    tag_432:\n        /* \"#utility.yul\":8510:8512   */\n      0x17\n        /* \"#utility.yul\":8505:8508   */\n      dup3\n        /* \"#utility.yul\":8501:8513   */\n      add\n        /* \"#utility.yul\":8494:8513   */\n      swap1\n      pop\n        /* \"#utility.yul\":8117:8519   */\n      swap2\n      swap1\n      pop\n      jump\t// out\n        /* \"#utility.yul\":8525:8891   */\n    tag_434:\n        /* \"#utility.yul\":8667:8670   */\n      0x00\n        /* \"#utility.yul\":8688:8755   */\n      tag_436\n        /* \"#utility.yul\":8752:8754   */\n      0x25\n        /* \"#utility.yul\":8747:8750   */\n      dup4\n        /* \"#utility.yul\":8688:8755   */\n      tag_373\n      jump\t// in\n    tag_436:\n        /* \"#utility.yul\":8681:8755   */\n      swap2\n      pop\n        /* \"#utility.yul\":8764:8857   */\n      tag_437\n        /* \"#utility.yul\":8853:8856   */\n      dup3\n        /* \"#utility.yul\":8764:8857   */\n      tag_438\n      jump\t// in\n    tag_437:\n        /* \"#utility.yul\":8882:8884   */\n      0x40\n        /* \"#utility.yul\":8877:8880   */\n      dup3\n        /* \"#utility.yul\":8873:8885   */\n      add\n        /* \"#utility.yul\":8866:8885   */\n      swap1\n      pop\n        /* \"#utility.yul\":8525:8891   */\n      swap2\n      swap1\n      pop\n      jump\t// out\n        /* \"#utility.yul\":8897:9299   */\n    tag_439:\n        /* \"#utility.yul\":9057:9060   */\n      0x00\n        /* \"#utility.yul\":9078:9163   */\n      tag_441\n        /* \"#utility.yul\":9160:9162   */\n      0x11\n        /* \"#utility.yul\":9155:9158   */\n      dup4\n        /* \"#utility.yul\":9078:9163   */\n      tag_382\n      jump\t// in\n    tag_441:\n        /* \"#utility.yul\":9071:9163   */\n      swap2\n      pop\n        /* \"#utility.yul\":9172:9265   */\n      tag_442\n        /* \"#utility.yul\":9261:9264   */\n      dup3\n        /* \"#utility.yul\":9172:9265   */\n      tag_443\n      jump\t// in\n    tag_442:\n        /* \"#utility.yul\":9290:9292   */\n      0x11\n        /* \"#utility.yul\":9285:9288   */\n      dup3\n        /* \"#utility.yul\":9281:9293   */\n      add\n        /* \"#utility.yul\":9274:9293   */\n      swap1\n      pop\n        /* \"#utility.yul\":8897:9299   */\n      swap2\n      swap1\n      pop\n      jump\t// out\n        /* \"#utility.yul\":9305:9671   */\n    tag_444:\n        /* \"#utility.yul\":9447:9450   */\n      0x00\n        /* \"#utility.yul\":9468:9535   */\n      tag_446\n        /* \"#utility.yul\":9532:9534   */\n      0x2f\n        /* \"#utility.yul\":9527:9530   */\n      dup4\n        /* \"#utility.yul\":9468:9535   */\n      tag_373\n      jump\t// in\n    tag_446:\n        /* \"#utility.yul\":9461:9535   */\n      swap2\n      pop\n        /* \"#utility.yul\":9544:9637   */\n      tag_447\n        /* \"#utility.yul\":9633:9636   */\n      dup3\n        /* \"#utility.yul\":9544:9637   */\n      tag_448\n      jump\t// in\n    tag_447:\n        /* \"#utility.yul\":9662:9664   */\n      0x40\n        /* \"#utility.yul\":9657:9660   */\n      dup3\n        /* \"#utility.yul\":9653:9665   */\n      add\n        /* \"#utility.yul\":9646:9665   */\n      swap1\n      pop\n        /* \"#utility.yul\":9305:9671   */\n      swap2\n      swap1\n      pop\n      jump\t// out\n        /* \"#utility.yul\":9677:9795   */\n    tag_449:\n        /* \"#utility.yul\":9764:9788   */\n      tag_451\n        /* \"#utility.yul\":9782:9787   */\n      dup2\n        /* \"#utility.yul\":9764:9788   */\n      tag_452\n      jump\t// in\n    tag_451:\n        /* \"#utility.yul\":9759:9762   */\n      dup3\n        /* \"#utility.yul\":9752:9789   */\n      mstore\n        /* \"#utility.yul\":9677:9795   */\n      pop\n      pop\n      jump\t// out\n        /* \"#utility.yul\":9801:9913   */\n    tag_453:\n        /* \"#utility.yul\":9884:9906   */\n      tag_455\n        /* \"#utility.yul\":9900:9905   */\n      dup2\n        /* \"#utility.yul\":9884:9906   */\n      tag_456\n      jump\t// in\n    tag_455:\n        /* \"#utility.yul\":9879:9882   */\n      dup3\n        /* \"#utility.yul\":9872:9907   */\n      mstore\n        /* \"#utility.yul\":9801:9913   */\n      pop\n      pop\n      jump\t// out\n        /* \"#utility.yul\":9919:10886   */\n    tag_266:\n        /* \"#utility.yul\":10301:10304   */\n      0x00\n        /* \"#utility.yul\":10323:10471   */\n      tag_458\n        /* \"#utility.yul\":10467:10470   */\n      dup3\n        /* \"#utility.yul\":10323:10471   */\n      tag_429\n      jump\t// in\n    tag_458:\n        /* \"#utility.yul\":10316:10471   */\n      swap2\n      pop\n        /* \"#utility.yul\":10488:10583   */\n      tag_459\n        /* \"#utility.yul\":10579:10582   */\n      dup3\n        /* \"#utility.yul\":10570:10576   */\n      dup6\n        /* \"#utility.yul\":10488:10583   */\n      tag_378\n      jump\t// in\n    tag_459:\n        /* \"#utility.yul\":10481:10583   */\n      swap2\n      pop\n        /* \"#utility.yul\":10600:10748   */\n      tag_460\n        /* \"#utility.yul\":10744:10747   */\n      dup3\n        /* \"#utility.yul\":10600:10748   */\n      tag_439\n      jump\t// in\n    tag_460:\n        /* \"#utility.yul\":10593:10748   */\n      swap2\n      pop\n        /* \"#utility.yul\":10765:10860   */\n      tag_461\n        /* \"#utility.yul\":10856:10859   */\n      dup3\n        /* \"#utility.yul\":10847:10853   */\n      dup5\n        /* \"#utility.yul\":10765:10860   */\n      tag_378\n      jump\t// in\n    tag_461:\n        /* \"#utility.yul\":10758:10860   */\n      swap2\n      pop\n        /* \"#utility.yul\":10877:10880   */\n      dup2\n        /* \"#utility.yul\":10870:10880   */\n      swap1\n      pop\n        /* \"#utility.yul\":9919:10886   */\n      swap4\n      swap3\n      pop\n      pop\n      pop\n      jump\t// out\n        /* \"#utility.yul\":10892:11114   */\n    tag_247:\n        /* \"#utility.yul\":10985:10989   */\n      0x00\n        /* \"#utility.yul\":11023:11025   */\n      0x20\n        /* \"#utility.yul\":11012:11021   */\n      dup3\n        /* \"#utility.yul\":11008:11026   */\n      add\n        /* \"#utility.yul\":11000:11026   */\n      swap1\n      pop\n        /* \"#utility.yul\":11036:11107   */\n      tag_463\n        /* \"#utility.yul\":11104:11105   */\n      0x00\n        /* \"#utility.yul\":11093:11102   */\n      dup4\n        /* \"#utility.yul\":11089:11106   */\n      add\n        /* \"#utility.yul\":11080:11086   */\n      dup5\n        /* \"#utility.yul\":11036:11107   */\n      tag_356\n      jump\t// in\n    tag_463:\n        /* \"#utility.yul\":10892:11114   */\n      swap3\n      swap2\n      pop\n      pop\n      jump\t// out\n        /* \"#utility.yul\":11120:11330   */\n    tag_33:\n        /* \"#utility.yul\":11207:11211   */\n      0x00\n        /* \"#utility.yul\":11245:11247   */\n      0x20\n        /* \"#utility.yul\":11234:11243   */\n      dup3\n        /* \"#utility.yul\":11230:11248   */\n      add\n        /* \"#utility.yul\":11222:11248   */\n      swap1\n      pop\n        /* \"#utility.yul\":11258:11323   */\n      tag_465\n        /* \"#utility.yul\":11320:11321   */\n      0x00\n        /* \"#utility.yul\":11309:11318   */\n      dup4\n        /* \"#utility.yul\":11305:11322   */\n      add\n        /* \"#utility.yul\":11296:11302   */\n      dup5\n        /* \"#utility.yul\":11258:11323   */\n      tag_360\n      jump\t// in\n    tag_465:\n        /* \"#utility.yul\":11120:11330   */\n      swap3\n      swap2\n      pop\n      pop\n      jump\t// out\n        /* \"#utility.yul\":11336:11558   */\n    tag_57:\n        /* \"#utility.yul\":11429:11433   */\n      0x00\n        /* \"#utility.yul\":11467:11469   */\n      0x20\n        /* \"#utility.yul\":11456:11465   */\n      dup3\n        /* \"#utility.yul\":11452:11470   */\n      add\n        /* \"#utility.yul\":11444:11470   */\n      swap1\n      pop\n        /* \"#utility.yul\":11480:11551   */\n      tag_467\n        /* \"#utility.yul\":11548:11549   */\n      0x00\n        /* \"#utility.yul\":11537:11546   */\n      dup4\n        /* \"#utility.yul\":11533:11550   */\n      add\n        /* \"#utility.yul\":11524:11530   */\n      dup5\n        /* \"#utility.yul\":11480:11551   */\n      tag_364\n      jump\t// in\n    tag_467:\n        /* \"#utility.yul\":11336:11558   */\n      swap3\n      swap2\n      pop\n      pop\n      jump\t// out\n        /* \"#utility.yul\":11564:11877   */\n    tag_37:\n        /* \"#utility.yul\":11677:11681   */\n      0x00\n        /* \"#utility.yul\":11715:11717   */\n      0x20\n        /* \"#utility.yul\":11704:11713   */\n      dup3\n        /* \"#utility.yul\":11700:11718   */\n      add\n        /* \"#utility.yul\":11692:11718   */\n      swap1\n      pop\n        /* \"#utility.yul\":11764:11773   */\n      dup2\n        /* \"#utility.yul\":11758:11762   */\n      dup2\n        /* \"#utility.yul\":11754:11774   */\n      sub\n        /* \"#utility.yul\":11750:11751   */\n      0x00\n        /* \"#utility.yul\":11739:11748   */\n      dup4\n        /* \"#utility.yul\":11735:11752   */\n      add\n        /* \"#utility.yul\":11728:11775   */\n      mstore\n        /* \"#utility.yul\":11792:11870   */\n      tag_469\n        /* \"#utility.yul\":11865:11869   */\n      dup2\n        /* \"#utility.yul\":11856:11862   */\n      dup5\n        /* \"#utility.yul\":11792:11870   */\n      tag_368\n      jump\t// in\n    tag_469:\n        /* \"#utility.yul\":11784:11870   */\n      swap1\n      pop\n        /* \"#utility.yul\":11564:11877   */\n      swap3\n      swap2\n      pop\n      pop\n      jump\t// out\n        /* \"#utility.yul\":11883:12302   */\n    tag_304:\n        /* \"#utility.yul\":12049:12053   */\n      0x00\n        /* \"#utility.yul\":12087:12089   */\n      0x20\n        /* \"#utility.yul\":12076:12085   */\n      dup3\n        /* \"#utility.yul\":12072:12090   */\n      add\n        /* \"#utility.yul\":12064:12090   */\n      swap1\n      pop\n        /* \"#utility.yul\":12136:12145   */\n      dup2\n        /* \"#utility.yul\":12130:12134   */\n      dup2\n        /* \"#utility.yul\":12126:12146   */\n      sub\n        /* \"#utility.yul\":12122:12123   */\n      0x00\n        /* \"#utility.yul\":12111:12120   */\n      dup4\n        /* \"#utility.yul\":12107:12124   */\n      add\n        /* \"#utility.yul\":12100:12147   */\n      mstore\n        /* \"#utility.yul\":12164:12295   */\n      tag_471\n        /* \"#utility.yul\":12290:12294   */\n      dup2\n        /* \"#utility.yul\":12164:12295   */\n      tag_384\n      jump\t// in\n    tag_471:\n        /* \"#utility.yul\":12156:12295   */\n      swap1\n      pop\n        /* \"#utility.yul\":11883:12302   */\n      swap2\n      swap1\n      pop\n      jump\t// out\n        /* \"#utility.yul\":12308:12727   */\n    tag_219:\n        /* \"#utility.yul\":12474:12478   */\n      0x00\n        /* \"#utility.yul\":12512:12514   */\n      0x20\n        /* \"#utility.yul\":12501:12510   */\n      dup3\n        /* \"#utility.yul\":12497:12515   */\n      add\n        /* \"#utility.yul\":12489:12515   */\n      swap1\n      pop\n        /* \"#utility.yul\":12561:12570   */\n      dup2\n        /* \"#utility.yul\":12555:12559   */\n      dup2\n        /* \"#utility.yul\":12551:12571   */\n      sub\n        /* \"#utility.yul\":12547:12548   */\n      0x00\n        /* \"#utility.yul\":12536:12545   */\n      dup4\n        /* \"#utility.yul\":12532:12549   */\n      add\n        /* \"#utility.yul\":12525:12572   */\n      mstore\n        /* \"#utility.yul\":12589:12720   */\n      tag_473\n        /* \"#utility.yul\":12715:12719   */\n      dup2\n        /* \"#utility.yul\":12589:12720   */\n      tag_389\n      jump\t// in\n    tag_473:\n        /* \"#utility.yul\":12581:12720   */\n      swap1\n      pop\n        /* \"#utility.yul\":12308:12727   */\n      swap2\n      swap1\n      pop\n      jump\t// out\n        /* \"#utility.yul\":12733:13152   */\n    tag_272:\n        /* \"#utility.yul\":12899:12903   */\n      0x00\n        /* \"#utility.yul\":12937:12939   */\n      0x20\n        /* \"#utility.yul\":12926:12935   */\n      dup3\n        /* \"#utility.yul\":12922:12940   */\n      add\n        /* \"#utility.yul\":12914:12940   */\n      swap1\n      pop\n        /* \"#utility.yul\":12986:12995   */\n      dup2\n        /* \"#utility.yul\":12980:12984   */\n      dup2\n        /* \"#utility.yul\":12976:12996   */\n      sub\n        /* \"#utility.yul\":12972:12973   */\n      0x00\n        /* \"#utility.yul\":12961:12970   */\n      dup4\n        /* \"#utility.yul\":12957:12974   */\n      add\n        /* \"#utility.yul\":12950:12997   */\n      mstore\n        /* \"#utility.yul\":13014:13145   */\n      tag_475\n        /* \"#utility.yul\":13140:13144   */\n      dup2\n        /* \"#utility.yul\":13014:13145   */\n      tag_394\n      jump\t// in\n    tag_475:\n        /* \"#utility.yul\":13006:13145   */\n      swap1\n      pop\n        /* \"#utility.yul\":12733:13152   */\n      swap2\n      swap1\n      pop\n      jump\t// out\n        /* \"#utility.yul\":13158:13577   */\n    tag_204:\n        /* \"#utility.yul\":13324:13328   */\n      0x00\n        /* \"#utility.yul\":13362:13364   */\n      0x20\n        /* \"#utility.yul\":13351:13360   */\n      dup3\n        /* \"#utility.yul\":13347:13365   */\n      add\n        /* \"#utility.yul\":13339:13365   */\n      swap1\n      pop\n        /* \"#utility.yul\":13411:13420   */\n      dup2\n        /* \"#utility.yul\":13405:13409   */\n      dup2\n        /* \"#utility.yul\":13401:13421   */\n      sub\n        /* \"#utility.yul\":13397:13398   */\n      0x00\n        /* \"#utility.yul\":13386:13395   */\n      dup4\n        /* \"#utility.yul\":13382:13399   */\n      add\n        /* \"#utility.yul\":13375:13422   */\n      mstore\n        /* \"#utility.yul\":13439:13570   */\n      tag_477\n        /* \"#utility.yul\":13565:13569   */\n      dup2\n        /* \"#utility.yul\":13439:13570   */\n      tag_399\n      jump\t// in\n    tag_477:\n        /* \"#utility.yul\":13431:13570   */\n      swap1\n      pop\n        /* \"#utility.yul\":13158:13577   */\n      swap2\n      swap1\n      pop\n      jump\t// out\n        /* \"#utility.yul\":13583:14002   */\n    tag_211:\n        /* \"#utility.yul\":13749:13753   */\n      0x00\n        /* \"#utility.yul\":13787:13789   */\n      0x20\n        /* \"#utility.yul\":13776:13785   */\n      dup3\n        /* \"#utility.yul\":13772:13790   */\n      add\n        /* \"#utility.yul\":13764:13790   */\n      swap1\n      pop\n        /* \"#utility.yul\":13836:13845   */\n      dup2\n        /* \"#utility.yul\":13830:13834   */\n      dup2\n        /* \"#utility.yul\":13826:13846   */\n      sub\n        /* \"#utility.yul\":13822:13823   */\n      0x00\n        /* \"#utility.yul\":13811:13820   */\n      dup4\n        /* \"#utility.yul\":13807:13824   */\n      add\n        /* \"#utility.yul\":13800:13847   */\n      mstore\n        /* \"#utility.yul\":13864:13995   */\n      tag_479\n        /* \"#utility.yul\":13990:13994   */\n      dup2\n        /* \"#utility.yul\":13864:13995   */\n      tag_404\n      jump\t// in\n    tag_479:\n        /* \"#utility.yul\":13856:13995   */\n      swap1\n      pop\n        /* \"#utility.yul\":13583:14002   */\n      swap2\n      swap1\n      pop\n      jump\t// out\n        /* \"#utility.yul\":14008:14427   */\n    tag_224:\n        /* \"#utility.yul\":14174:14178   */\n      0x00\n        /* \"#utility.yul\":14212:14214   */\n      0x20\n        /* \"#utility.yul\":14201:14210   */\n      dup3\n        /* \"#utility.yul\":14197:14215   */\n      add\n        /* \"#utility.yul\":14189:14215   */\n      swap1\n      pop\n        /* \"#utility.yul\":14261:14270   */\n      dup2\n        /* \"#utility.yul\":14255:14259   */\n      dup2\n        /* \"#utility.yul\":14251:14271   */\n      sub\n        /* \"#utility.yul\":14247:14248   */\n      0x00\n        /* \"#utility.yul\":14236:14245   */\n      dup4\n        /* \"#utility.yul\":14232:14249   */\n      add\n        /* \"#utility.yul\":14225:14272   */\n      mstore\n        /* \"#utility.yul\":14289:14420   */\n      tag_481\n        /* \"#utility.yul\":14415:14419   */\n      dup2\n        /* \"#utility.yul\":14289:14420   */\n      tag_409\n      jump\t// in\n    tag_481:\n        /* \"#utility.yul\":14281:14420   */\n      swap1\n      pop\n        /* \"#utility.yul\":14008:14427   */\n      swap2\n      swap1\n      pop\n      jump\t// out\n        /* \"#utility.yul\":14433:14852   */\n    tag_277:\n        /* \"#utility.yul\":14599:14603   */\n      0x00\n        /* \"#utility.yul\":14637:14639   */\n      0x20\n        /* \"#utility.yul\":14626:14635   */\n      dup3\n        /* \"#utility.yul\":14622:14640   */\n      add\n        /* \"#utility.yul\":14614:14640   */\n      swap1\n      pop\n        /* \"#utility.yul\":14686:14695   */\n      dup2\n        /* \"#utility.yul\":14680:14684   */\n      dup2\n        /* \"#utility.yul\":14676:14696   */\n      sub\n        /* \"#utility.yul\":14672:14673   */\n      0x00\n        /* \"#utility.yul\":14661:14670   */\n      dup4\n        /* \"#utility.yul\":14657:14674   */\n      add\n        /* \"#utility.yul\":14650:14697   */\n      mstore\n        /* \"#utility.yul\":14714:14845   */\n      tag_483\n        /* \"#utility.yul\":14840:14844   */\n      dup2\n        /* \"#utility.yul\":14714:14845   */\n      tag_414\n      jump\t// in\n    tag_483:\n        /* \"#utility.yul\":14706:14845   */\n      swap1\n      pop\n        /* \"#utility.yul\":14433:14852   */\n      swap2\n      swap1\n      pop\n      jump\t// out\n        /* \"#utility.yul\":14858:15277   */\n    tag_216:\n        /* \"#utility.yul\":15024:15028   */\n      0x00\n        /* \"#utility.yul\":15062:15064   */\n      0x20\n        /* \"#utility.yul\":15051:15060   */\n      dup3\n        /* \"#utility.yul\":15047:15065   */\n      add\n        /* \"#utility.yul\":15039:15065   */\n      swap1\n      pop\n        /* \"#utility.yul\":15111:15120   */\n      dup2\n        /* \"#utility.yul\":15105:15109   */\n      dup2\n        /* \"#utility.yul\":15101:15121   */\n      sub\n        /* \"#utility.yul\":15097:15098   */\n      0x00\n        /* \"#utility.yul\":15086:15095   */\n      dup4\n        /* \"#utility.yul\":15082:15099   */\n      add\n        /* \"#utility.yul\":15075:15122   */\n      mstore\n        /* \"#utility.yul\":15139:15270   */\n      tag_485\n        /* \"#utility.yul\":15265:15269   */\n      dup2\n        /* \"#utility.yul\":15139:15270   */\n      tag_419\n      jump\t// in\n    tag_485:\n        /* \"#utility.yul\":15131:15270   */\n      swap1\n      pop\n        /* \"#utility.yul\":14858:15277   */\n      swap2\n      swap1\n      pop\n      jump\t// out\n        /* \"#utility.yul\":15283:15702   */\n    tag_201:\n        /* \"#utility.yul\":15449:15453   */\n      0x00\n        /* \"#utility.yul\":15487:15489   */\n      0x20\n        /* \"#utility.yul\":15476:15485   */\n      dup3\n        /* \"#utility.yul\":15472:15490   */\n      add\n        /* \"#utility.yul\":15464:15490   */\n      swap1\n      pop\n        /* \"#utility.yul\":15536:15545   */\n      dup2\n        /* \"#utility.yul\":15530:15534   */\n      dup2\n        /* \"#utility.yul\":15526:15546   */\n      sub\n        /* \"#utility.yul\":15522:15523   */\n      0x00\n        /* \"#utility.yul\":15511:15520   */\n      dup4\n        /* \"#utility.yul\":15507:15524   */\n      add\n        /* \"#utility.yul\":15500:15547   */\n      mstore\n        /* \"#utility.yul\":15564:15695   */\n      tag_487\n        /* \"#utility.yul\":15690:15694   */\n      dup2\n        /* \"#utility.yul\":15564:15695   */\n      tag_424\n      jump\t// in\n    tag_487:\n        /* \"#utility.yul\":15556:15695   */\n      swap1\n      pop\n        /* \"#utility.yul\":15283:15702   */\n      swap2\n      swap1\n      pop\n      jump\t// out\n        /* \"#utility.yul\":15708:16127   */\n    tag_184:\n        /* \"#utility.yul\":15874:15878   */\n      0x00\n        /* \"#utility.yul\":15912:15914   */\n      0x20\n        /* \"#utility.yul\":15901:15910   */\n      dup3\n        /* \"#utility.yul\":15897:15915   */\n      add\n        /* \"#utility.yul\":15889:15915   */\n      swap1\n      pop\n        /* \"#utility.yul\":15961:15970   */\n      dup2\n        /* \"#utility.yul\":15955:15959   */\n      dup2\n        /* \"#utility.yul\":15951:15971   */\n      sub\n        /* \"#utility.yul\":15947:15948   */\n      0x00\n        /* \"#utility.yul\":15936:15945   */\n      dup4\n        /* \"#utility.yul\":15932:15949   */\n      add\n        /* \"#utility.yul\":15925:15972   */\n      mstore\n        /* \"#utility.yul\":15989:16120   */\n      tag_489\n        /* \"#utility.yul\":16115:16119   */\n      dup2\n        /* \"#utility.yul\":15989:16120   */\n      tag_434\n      jump\t// in\n    tag_489:\n        /* \"#utility.yul\":15981:16120   */\n      swap1\n      pop\n        /* \"#utility.yul\":15708:16127   */\n      swap2\n      swap1\n      pop\n      jump\t// out\n        /* \"#utility.yul\":16133:16552   */\n    tag_151:\n        /* \"#utility.yul\":16299:16303   */\n      0x00\n        /* \"#utility.yul\":16337:16339   */\n      0x20\n        /* \"#utility.yul\":16326:16335   */\n      dup3\n        /* \"#utility.yul\":16322:16340   */\n      add\n        /* \"#utility.yul\":16314:16340   */\n      swap1\n      pop\n        /* \"#utility.yul\":16386:16395   */\n      dup2\n        /* \"#utility.yul\":16380:16384   */\n      dup2\n        /* \"#utility.yul\":16376:16396   */\n      sub\n        /* \"#utility.yul\":16372:16373   */\n      0x00\n        /* \"#utility.yul\":16361:16370   */\n      dup4\n        /* \"#utility.yul\":16357:16374   */\n      add\n        /* \"#utility.yul\":16350:16397   */\n      mstore\n        /* \"#utility.yul\":16414:16545   */\n      tag_491\n        /* \"#utility.yul\":16540:16544   */\n      dup2\n        /* \"#utility.yul\":16414:16545   */\n      tag_444\n      jump\t// in\n    tag_491:\n        /* \"#utility.yul\":16406:16545   */\n      swap1\n      pop\n        /* \"#utility.yul\":16133:16552   */\n      swap2\n      swap1\n      pop\n      jump\t// out\n        /* \"#utility.yul\":16558:16780   */\n    tag_46:\n        /* \"#utility.yul\":16651:16655   */\n      0x00\n        /* \"#utility.yul\":16689:16691   */\n      0x20\n        /* \"#utility.yul\":16678:16687   */\n      dup3\n        /* \"#utility.yul\":16674:16692   */\n      add\n        /* \"#utility.yul\":16666:16692   */\n      swap1\n      pop\n        /* \"#utility.yul\":16702:16773   */\n      tag_493\n        /* \"#utility.yul\":16770:16771   */\n      0x00\n        /* \"#utility.yul\":16759:16768   */\n      dup4\n        /* \"#utility.yul\":16755:16772   */\n      add\n        /* \"#utility.yul\":16746:16752   */\n      dup5\n        /* \"#utility.yul\":16702:16773   */\n      tag_449\n      jump\t// in\n    tag_493:\n        /* \"#utility.yul\":16558:16780   */\n      swap3\n      swap2\n      pop\n      pop\n      jump\t// out\n        /* \"#utility.yul\":16786:17000   */\n    tag_65:\n        /* \"#utility.yul\":16875:16879   */\n      0x00\n        /* \"#utility.yul\":16913:16915   */\n      0x20\n        /* \"#utility.yul\":16902:16911   */\n      dup3\n        /* \"#utility.yul\":16898:16916   */\n      add\n        /* \"#utility.yul\":16890:16916   */\n      swap1\n      pop\n        /* \"#utility.yul\":16926:16993   */\n      tag_495\n        /* \"#utility.yul\":16990:16991   */\n      0x00\n        /* \"#utility.yul\":16979:16988   */\n      dup4\n        /* \"#utility.yul\":16975:16992   */\n      add\n        /* \"#utility.yul\":16966:16972   */\n      dup5\n        /* \"#utility.yul\":16926:16993   */\n      tag_453\n      jump\t// in\n    tag_495:\n        /* \"#utility.yul\":16786:17000   */\n      swap3\n      swap2\n      pop\n      pop\n      jump\t// out\n        /* \"#utility.yul\":17087:17186   */\n    tag_371:\n        /* \"#utility.yul\":17139:17145   */\n      0x00\n        /* \"#utility.yul\":17173:17178   */\n      dup2\n        /* \"#utility.yul\":17167:17179   */\n      mload\n        /* \"#utility.yul\":17157:17179   */\n      swap1\n      pop\n        /* \"#utility.yul\":17087:17186   */\n      swap2\n      swap1\n      pop\n      jump\t// out\n        /* \"#utility.yul\":17192:17361   */\n    tag_373:\n        /* \"#utility.yul\":17276:17287   */\n      0x00\n        /* \"#utility.yul\":17310:17316   */\n      dup3\n        /* \"#utility.yul\":17305:17308   */\n      dup3\n        /* \"#utility.yul\":17298:17317   */\n      mstore\n        /* \"#utility.yul\":17350:17354   */\n      0x20\n        /* \"#utility.yul\":17345:17348   */\n      dup3\n        /* \"#utility.yul\":17341:17355   */\n      add\n        /* \"#utility.yul\":17326:17355   */\n      swap1\n      pop\n        /* \"#utility.yul\":17192:17361   */\n      swap3\n      swap2\n      pop\n      pop\n      jump\t// out\n        /* \"#utility.yul\":17367:17515   */\n    tag_382:\n        /* \"#utility.yul\":17469:17480   */\n      0x00\n        /* \"#utility.yul\":17506:17509   */\n      dup2\n        /* \"#utility.yul\":17491:17509   */\n      swap1\n      pop\n        /* \"#utility.yul\":17367:17515   */\n      swap3\n      swap2\n      pop\n      pop\n      jump\t// out\n        /* \"#utility.yul\":17521:17826   */\n    tag_159:\n        /* \"#utility.yul\":17561:17564   */\n      0x00\n        /* \"#utility.yul\":17580:17600   */\n      tag_502\n        /* \"#utility.yul\":17598:17599   */\n      dup3\n        /* \"#utility.yul\":17580:17600   */\n      tag_452\n      jump\t// in\n    tag_502:\n        /* \"#utility.yul\":17575:17600   */\n      swap2\n      pop\n        /* \"#utility.yul\":17614:17634   */\n      tag_503\n        /* \"#utility.yul\":17632:17633   */\n      dup4\n        /* \"#utility.yul\":17614:17634   */\n      tag_452\n      jump\t// in\n    tag_503:\n        /* \"#utility.yul\":17609:17634   */\n      swap3\n      pop\n        /* \"#utility.yul\":17768:17769   */\n      dup3\n        /* \"#utility.yul\":17700:17766   */\n      0xffffffffffffffffffffffffffffffffffffffffffffffffffffffffffffffff\n        /* \"#utility.yul\":17696:17770   */\n      sub\n        /* \"#utility.yul\":17693:17694   */\n      dup3\n        /* \"#utility.yul\":17690:17771   */\n      gt\n        /* \"#utility.yul\":17687:17794   */\n      iszero\n      tag_504\n      jumpi\n        /* \"#utility.yul\":17774:17792   */\n      tag_505\n      tag_506\n      jump\t// in\n    tag_505:\n        /* \"#utility.yul\":17687:17794   */\n    tag_504:\n        /* \"#utility.yul\":17818:17819   */\n      dup3\n        /* \"#utility.yul\":17815:17816   */\n      dup3\n        /* \"#utility.yul\":17811:17820   */\n      add\n        /* \"#utility.yul\":17804:17820   */\n      swap1\n      pop\n        /* \"#utility.yul\":17521:17826   */\n      swap3\n      swap2\n      pop\n      pop\n      jump\t// out\n        /* \"#utility.yul\":17832:18180   */\n    tag_280:\n        /* \"#utility.yul\":17872:17879   */\n      0x00\n        /* \"#utility.yul\":17895:17915   */\n      tag_508\n        /* \"#utility.yul\":17913:17914   */\n      dup3\n        /* \"#utility.yul\":17895:17915   */\n      tag_452\n      jump\t// in\n    tag_508:\n        /* \"#utility.yul\":17890:17915   */\n      swap2\n      pop\n        /* \"#utility.yul\":17929:17949   */\n      tag_509\n        /* \"#utility.yul\":17947:17948   */\n      dup4\n        /* \"#utility.yul\":17929:17949   */\n      tag_452\n      jump\t// in\n    tag_509:\n        /* \"#utility.yul\":17924:17949   */\n      swap3\n      pop\n        /* \"#utility.yul\":18117:18118   */\n      dup2\n        /* \"#utility.yul\":18049:18115   */\n      0xffffffffffffffffffffffffffffffffffffffffffffffffffffffffffffffff\n        /* \"#utility.yul\":18045:18119   */\n      div\n        /* \"#utility.yul\":18042:18043   */\n      dup4\n        /* \"#utility.yul\":18039:18120   */\n      gt\n        /* \"#utility.yul\":18034:18035   */\n      dup3\n        /* \"#utility.yul\":18027:18036   */\n      iszero\n        /* \"#utility.yul\":18020:18037   */\n      iszero\n        /* \"#utility.yul\":18016:18121   */\n      and\n        /* \"#utility.yul\":18013:18144   */\n      iszero\n      tag_510\n      jumpi\n        /* \"#utility.yul\":18124:18142   */\n      tag_511\n      tag_506\n      jump\t// in\n    tag_511:\n        /* \"#utility.yul\":18013:18144   */\n    tag_510:\n        /* \"#utility.yul\":18172:18173   */\n      dup3\n        /* \"#utility.yul\":18169:18170   */\n      dup3\n        /* \"#utility.yul\":18165:18174   */\n      mul\n        /* \"#utility.yul\":18154:18174   */\n      swap1\n      pop\n        /* \"#utility.yul\":17832:18180   */\n      swap3\n      swap2\n      pop\n      pop\n      jump\t// out\n        /* \"#utility.yul\":18186:18282   */\n    tag_359:\n        /* \"#utility.yul\":18223:18230   */\n      0x00\n        /* \"#utility.yul\":18252:18276   */\n      tag_513\n        /* \"#utility.yul\":18270:18275   */\n      dup3\n        /* \"#utility.yul\":18252:18276   */\n      tag_514\n      jump\t// in\n    tag_513:\n        /* \"#utility.yul\":18241:18276   */\n      swap1\n      pop\n        /* \"#utility.yul\":18186:18282   */\n      swap2\n      swap1\n      pop\n      jump\t// out\n        /* \"#utility.yul\":18288:18378   */\n    tag_363:\n        /* \"#utility.yul\":18322:18329   */\n      0x00\n        /* \"#utility.yul\":18365:18370   */\n      dup2\n        /* \"#utility.yul\":18358:18371   */\n      iszero\n        /* \"#utility.yul\":18351:18372   */\n      iszero\n        /* \"#utility.yul\":18340:18372   */\n      swap1\n      pop\n        /* \"#utility.yul\":18288:18378   */\n      swap2\n      swap1\n      pop\n      jump\t// out\n        /* \"#utility.yul\":18384:18461   */\n    tag_367:\n        /* \"#utility.yul\":18421:18428   */\n      0x00\n        /* \"#utility.yul\":18450:18455   */\n      dup2\n        /* \"#utility.yul\":18439:18455   */\n      swap1\n      pop\n        /* \"#utility.yul\":18384:18461   */\n      swap2\n      swap1\n      pop\n      jump\t// out\n        /* \"#utility.yul\":18467:18616   */\n    tag_517:\n        /* \"#utility.yul\":18503:18510   */\n      0x00\n        /* \"#utility.yul\":18543:18609   */\n      0xffffffff00000000000000000000000000000000000000000000000000000000\n        /* \"#utility.yul\":18536:18541   */\n      dup3\n        /* \"#utility.yul\":18532:18610   */\n      and\n        /* \"#utility.yul\":18521:18610   */\n      swap1\n      pop\n        /* \"#utility.yul\":18467:18616   */\n      swap2\n      swap1\n      pop\n      jump\t// out\n        /* \"#utility.yul\":18622:18748   */\n    tag_514:\n        /* \"#utility.yul\":18659:18666   */\n      0x00\n        /* \"#utility.yul\":18699:18741   */\n      0xffffffffffffffffffffffffffffffffffffffff\n        /* \"#utility.yul\":18692:18697   */\n      dup3\n        /* \"#utility.yul\":18688:18742   */\n      and\n        /* \"#utility.yul\":18677:18742   */\n      swap1\n      pop\n        /* \"#utility.yul\":18622:18748   */\n      swap2\n      swap1\n      pop\n      jump\t// out\n        /* \"#utility.yul\":18754:18831   */\n    tag_452:\n        /* \"#utility.yul\":18791:18798   */\n      0x00\n        /* \"#utility.yul\":18820:18825   */\n      dup2\n        /* \"#utility.yul\":18809:18825   */\n      swap1\n      pop\n        /* \"#utility.yul\":18754:18831   */\n      swap2\n      swap1\n      pop\n      jump\t// out\n        /* \"#utility.yul\":18837:18923   */\n    tag_456:\n        /* \"#utility.yul\":18872:18879   */\n      0x00\n        /* \"#utility.yul\":18912:18916   */\n      0xff\n        /* \"#utility.yul\":18905:18910   */\n      dup3\n        /* \"#utility.yul\":18901:18917   */\n      and\n        /* \"#utility.yul\":18890:18917   */\n      swap1\n      pop\n        /* \"#utility.yul\":18837:18923   */\n      swap2\n      swap1\n      pop\n      jump\t// out\n        /* \"#utility.yul\":18929:19236   */\n    tag_375:\n        /* \"#utility.yul\":18997:18998   */\n      0x00\n        /* \"#utility.yul\":19007:19120   */\n    tag_523:\n        /* \"#utility.yul\":19021:19027   */\n      dup4\n        /* \"#utility.yul\":19018:19019   */\n      dup2\n        /* \"#utility.yul\":19015:19028   */\n      lt\n        /* \"#utility.yul\":19007:19120   */\n      iszero\n      tag_525\n      jumpi\n        /* \"#utility.yul\":19106:19107   */\n      dup1\n        /* \"#utility.yul\":19101:19104   */\n      dup3\n        /* \"#utility.yul\":19097:19108   */\n      add\n        /* \"#utility.yul\":19091:19109   */\n      mload\n        /* \"#utility.yul\":19087:19088   */\n      dup2\n        /* \"#utility.yul\":19082:19085   */\n      dup5\n        /* \"#utility.yul\":19078:19089   */\n      add\n        /* \"#utility.yul\":19071:19110   */\n      mstore\n        /* \"#utility.yul\":19043:19045   */\n      0x20\n        /* \"#utility.yul\":19040:19041   */\n      dup2\n        /* \"#utility.yul\":19036:19046   */\n      add\n        /* \"#utility.yul\":19031:19046   */\n      swap1\n      pop\n        /* \"#utility.yul\":19007:19120   */\n      jump(tag_523)\n    tag_525:\n        /* \"#utility.yul\":19138:19144   */\n      dup4\n        /* \"#utility.yul\":19135:19136   */\n      dup2\n        /* \"#utility.yul\":19132:19145   */\n      gt\n        /* \"#utility.yul\":19129:19230   */\n      iszero\n      tag_526\n      jumpi\n        /* \"#utility.yul\":19218:19219   */\n      0x00\n        /* \"#utility.yul\":19209:19215   */\n      dup5\n        /* \"#utility.yul\":19204:19207   */\n      dup5\n        /* \"#utility.yul\":19200:19216   */\n      add\n        /* \"#utility.yul\":19193:19220   */\n      mstore\n        /* \"#utility.yul\":19129:19230   */\n    tag_526:\n        /* \"#utility.yul\":18978:19236   */\n      pop\n        /* \"#utility.yul\":18929:19236   */\n      pop\n      pop\n      pop\n      jump\t// out\n        /* \"#utility.yul\":19242:19413   */\n    tag_301:\n        /* \"#utility.yul\":19281:19284   */\n      0x00\n        /* \"#utility.yul\":19304:19328   */\n      tag_528\n        /* \"#utility.yul\":19322:19327   */\n      dup3\n        /* \"#utility.yul\":19304:19328   */\n      tag_452\n      jump\t// in\n    tag_528:\n        /* \"#utility.yul\":19295:19328   */\n      swap2\n      pop\n        /* \"#utility.yul\":19350:19354   */\n      0x00\n        /* \"#utility.yul\":19343:19348   */\n      dup3\n        /* \"#utility.yul\":19340:19355   */\n      eq\n        /* \"#utility.yul\":19337:19378   */\n      iszero\n      tag_529\n      jumpi\n        /* \"#utility.yul\":19358:19376   */\n      tag_530\n      tag_506\n      jump\t// in\n    tag_530:\n        /* \"#utility.yul\":19337:19378   */\n    tag_529:\n        /* \"#utility.yul\":19405:19406   */\n      0x01\n        /* \"#utility.yul\":19398:19403   */\n      dup3\n        /* \"#utility.yul\":19394:19407   */\n      sub\n        /* \"#utility.yul\":19387:19407   */\n      swap1\n      pop\n        /* \"#utility.yul\":19242:19413   */\n      swap2\n      swap1\n      pop\n      jump\t// out\n        /* \"#utility.yul\":19419:19739   */\n    tag_121:\n        /* \"#utility.yul\":19463:19469   */\n      0x00\n        /* \"#utility.yul\":19500:19501   */\n      0x02\n        /* \"#utility.yul\":19494:19498   */\n      dup3\n        /* \"#utility.yul\":19490:19502   */\n      div\n        /* \"#utility.yul\":19480:19502   */\n      swap1\n      pop\n        /* \"#utility.yul\":19547:19548   */\n      0x01\n        /* \"#utility.yul\":19541:19545   */\n      dup3\n        /* \"#utility.yul\":19537:19549   */\n      and\n        /* \"#utility.yul\":19568:19586   */\n      dup1\n        /* \"#utility.yul\":19558:19639   */\n      tag_532\n      jumpi\n        /* \"#utility.yul\":19624:19628   */\n      0x7f\n        /* \"#utility.yul\":19616:19622   */\n      dup3\n        /* \"#utility.yul\":19612:19629   */\n      and\n        /* \"#utility.yul\":19602:19629   */\n      swap2\n      pop\n        /* \"#utility.yul\":19558:19639   */\n    tag_532:\n        /* \"#utility.yul\":19686:19688   */\n      0x20\n        /* \"#utility.yul\":19678:19684   */\n      dup3\n        /* \"#utility.yul\":19675:19689   */\n      lt\n        /* \"#utility.yul\":19655:19673   */\n      dup2\n        /* \"#utility.yul\":19652:19690   */\n      eq\n        /* \"#utility.yul\":19649:19733   */\n      iszero\n      tag_533\n      jumpi\n        /* \"#utility.yul\":19705:19723   */\n      tag_534\n      tag_535\n      jump\t// in\n    tag_534:\n        /* \"#utility.yul\":19649:19733   */\n    tag_533:\n        /* \"#utility.yul\":19470:19739   */\n      pop\n        /* \"#utility.yul\":19419:19739   */\n      swap2\n      swap1\n      pop\n      jump\t// out\n        /* \"#utility.yul\":19745:19925   */\n    tag_506:\n        /* \"#utility.yul\":19793:19870   */\n      0x4e487b7100000000000000000000000000000000000000000000000000000000\n        /* \"#utility.yul\":19790:19791   */\n      0x00\n        /* \"#utility.yul\":19783:19871   */\n      mstore\n        /* \"#utility.yul\":19890:19894   */\n      0x11\n        /* \"#utility.yul\":19887:19888   */\n      0x04\n        /* \"#utility.yul\":19880:19895   */\n      mstore\n        /* \"#utility.yul\":19914:19918   */\n      0x24\n        /* \"#utility.yul\":19911:19912   */\n      0x00\n        /* \"#utility.yul\":19904:19919   */\n      revert\n        /* \"#utility.yul\":19931:20111   */\n    tag_535:\n        /* \"#utility.yul\":19979:20056   */\n      0x4e487b7100000000000000000000000000000000000000000000000000000000\n        /* \"#utility.yul\":19976:19977   */\n      0x00\n        /* \"#utility.yul\":19969:20057   */\n      mstore\n        /* \"#utility.yul\":20076:20080   */\n      0x22\n        /* \"#utility.yul\":20073:20074   */\n      0x04\n        /* \"#utility.yul\":20066:20081   */\n      mstore\n        /* \"#utility.yul\":20100:20104   */\n      0x24\n        /* \"#utility.yul\":20097:20098   */\n      0x00\n        /* \"#utility.yul\":20090:20105   */\n      revert\n        /* \"#utility.yul\":20117:20297   */\n    tag_288:\n        /* \"#utility.yul\":20165:20242   */\n      0x4e487b7100000000000000000000000000000000000000000000000000000000\n        /* \"#utility.yul\":20162:20163   */\n      0x00\n        /* \"#utility.yul\":20155:20243   */\n      mstore\n        /* \"#utility.yul\":20262:20266   */\n      0x32\n        /* \"#utility.yul\":20259:20260   */\n      0x04\n        /* \"#utility.yul\":20252:20267   */\n      mstore\n        /* \"#utility.yul\":20286:20290   */\n      0x24\n        /* \"#utility.yul\":20283:20284   */\n      0x00\n        /* \"#utility.yul\":20276:20291   */\n      revert\n        /* \"#utility.yul\":20303:20483   */\n    tag_284:\n        /* \"#utility.yul\":20351:20428   */\n      0x4e487b7100000000000000000000000000000000000000000000000000000000\n        /* \"#utility.yul\":20348:20349   */\n      0x00\n        /* \"#utility.yul\":20341:20429   */\n      mstore\n        /* \"#utility.yul\":20448:20452   */\n      0x41\n        /* \"#utility.yul\":20445:20446   */\n      0x04\n        /* \"#utility.yul\":20438:20453   */\n      mstore\n        /* \"#utility.yul\":20472:20476   */\n      0x24\n        /* \"#utility.yul\":20469:20470   */\n      0x00\n        /* \"#utility.yul\":20462:20477   */\n      revert\n        /* \"#utility.yul\":20612:20729   */\n    tag_325:\n        /* \"#utility.yul\":20721:20722   */\n      0x00\n        /* \"#utility.yul\":20718:20719   */\n      dup1\n        /* \"#utility.yul\":20711:20723   */\n      revert\n        /* \"#utility.yul\":20735:20837   */\n    tag_377:\n        /* \"#utility.yul\":20776:20782   */\n      0x00\n        /* \"#utility.yul\":20827:20829   */\n      0x1f\n        /* \"#utility.yul\":20823:20830   */\n      not\n        /* \"#utility.yul\":20818:20820   */\n      0x1f\n        /* \"#utility.yul\":20811:20816   */\n      dup4\n        /* \"#utility.yul\":20807:20821   */\n      add\n        /* \"#utility.yul\":20803:20831   */\n      and\n        /* \"#utility.yul\":20793:20831   */\n      swap1\n      pop\n        /* \"#utility.yul\":20735:20837   */\n      swap2\n      swap1\n      pop\n      jump\t// out\n        /* \"#utility.yul\":20843:21025   */\n    tag_388:\n        /* \"#utility.yul\":20983:21017   */\n      0x537472696e67733a20686578206c656e67746820696e73756666696369656e74\n        /* \"#utility.yul\":20979:20980   */\n      0x00\n        /* \"#utility.yul\":20971:20977   */\n      dup3\n        /* \"#utility.yul\":20967:20981   */\n      add\n        /* \"#utility.yul\":20960:21018   */\n      mstore\n        /* \"#utility.yul\":20843:21025   */\n      pop\n      jump\t// out\n        /* \"#utility.yul\":21031:21253   */\n    tag_393:\n        /* \"#utility.yul\":21171:21205   */\n      0x45524332303a207472616e7366657220746f20746865207a65726f2061646472\n        /* \"#utility.yul\":21167:21168   */\n      0x00\n        /* \"#utility.yul\":21159:21165   */\n      dup3\n        /* \"#utility.yul\":21155:21169   */\n      add\n        /* \"#utility.yul\":21148:21206   */\n      mstore\n        /* \"#utility.yul\":21240:21245   */\n      0x6573730000000000000000000000000000000000000000000000000000000000\n        /* \"#utility.yul\":21235:21237   */\n      0x20\n        /* \"#utility.yul\":21227:21233   */\n      dup3\n        /* \"#utility.yul\":21223:21238   */\n      add\n        /* \"#utility.yul\":21216:21246   */\n      mstore\n        /* \"#utility.yul\":21031:21253   */\n      pop\n      jump\t// out\n        /* \"#utility.yul\":21259:21429   */\n    tag_398:\n        /* \"#utility.yul\":21399:21421   */\n      0x5061757361626c653a206e6f7420706175736564000000000000000000000000\n        /* \"#utility.yul\":21395:21396   */\n      0x00\n        /* \"#utility.yul\":21387:21393   */\n      dup3\n        /* \"#utility.yul\":21383:21397   */\n      add\n        /* \"#utility.yul\":21376:21422   */\n      mstore\n        /* \"#utility.yul\":21259:21429   */\n      pop\n      jump\t// out\n        /* \"#utility.yul\":21435:21656   */\n    tag_403:\n        /* \"#utility.yul\":21575:21609   */\n      0x45524332303a20617070726f766520746f20746865207a65726f206164647265\n        /* \"#utility.yul\":21571:21572   */\n      0x00\n        /* \"#utility.yul\":21563:21569   */\n      dup3\n        /* \"#utility.yul\":21559:21573   */\n      add\n        /* \"#utility.yul\":21552:21610   */\n      mstore\n        /* \"#utility.yul\":21644:21648   */\n      0x7373000000000000000000000000000000000000000000000000000000000000\n        /* \"#utility.yul\":21639:21641   */\n      0x20\n        /* \"#utility.yul\":21631:21637   */\n      dup3\n        /* \"#utility.yul\":21627:21642   */\n      add\n        /* \"#utility.yul\":21620:21649   */\n      mstore\n        /* \"#utility.yul\":21435:21656   */\n      pop\n      jump\t// out\n        /* \"#utility.yul\":21662:21841   */\n    tag_408:\n        /* \"#utility.yul\":21802:21833   */\n      0x45524332303a20696e73756666696369656e7420616c6c6f77616e6365000000\n        /* \"#utility.yul\":21798:21799   */\n      0x00\n        /* \"#utility.yul\":21790:21796   */\n      dup3\n        /* \"#utility.yul\":21786:21800   */\n      add\n        /* \"#utility.yul\":21779:21834   */\n      mstore\n        /* \"#utility.yul\":21662:21841   */\n      pop\n      jump\t// out\n        /* \"#utility.yul\":21847:22072   */\n    tag_413:\n        /* \"#utility.yul\":21987:22021   */\n      0x45524332303a207472616e7366657220616d6f756e7420657863656564732062\n        /* \"#utility.yul\":21983:21984   */\n      0x00\n        /* \"#utility.yul\":21975:21981   */\n      dup3\n        /* \"#utility.yul\":21971:21985   */\n      add\n        /* \"#utility.yul\":21964:22022   */\n      mstore\n        /* \"#utility.yul\":22056:22064   */\n      0x616c616e63650000000000000000000000000000000000000000000000000000\n        /* \"#utility.yul\":22051:22053   */\n      0x20\n        /* \"#utility.yul\":22043:22049   */\n      dup3\n        /* \"#utility.yul\":22039:22054   */\n      add\n        /* \"#utility.yul\":22032:22065   */\n      mstore\n        /* \"#utility.yul\":21847:22072   */\n      pop\n      jump\t// out\n        /* \"#utility.yul\":22078:22244   */\n    tag_418:\n        /* \"#utility.yul\":22218:22236   */\n      0x5061757361626c653a2070617573656400000000000000000000000000000000\n        /* \"#utility.yul\":22214:22215   */\n      0x00\n        /* \"#utility.yul\":22206:22212   */\n      dup3\n        /* \"#utility.yul\":22202:22216   */\n      add\n        /* \"#utility.yul\":22195:22237   */\n      mstore\n        /* \"#utility.yul\":22078:22244   */\n      pop\n      jump\t// out\n        /* \"#utility.yul\":22250:22474   */\n    tag_423:\n        /* \"#utility.yul\":22390:22424   */\n      0x45524332303a207472616e736665722066726f6d20746865207a65726f206164\n        /* \"#utility.yul\":22386:22387   */\n      0x00\n        /* \"#utility.yul\":22378:22384   */\n      dup3\n        /* \"#utility.yul\":22374:22388   */\n      add\n        /* \"#utility.yul\":22367:22425   */\n      mstore\n        /* \"#utility.yul\":22459:22466   */\n      0x6472657373000000000000000000000000000000000000000000000000000000\n        /* \"#utility.yul\":22454:22456   */\n      0x20\n        /* \"#utility.yul\":22446:22452   */\n      dup3\n        /* \"#utility.yul\":22442:22457   */\n      add\n        /* \"#utility.yul\":22435:22467   */\n      mstore\n        /* \"#utility.yul\":22250:22474   */\n      pop\n      jump\t// out\n        /* \"#utility.yul\":22480:22703   */\n    tag_428:\n        /* \"#utility.yul\":22620:22654   */\n      0x45524332303a20617070726f76652066726f6d20746865207a65726f20616464\n        /* \"#utility.yul\":22616:22617   */\n      0x00\n        /* \"#utility.yul\":22608:22614   */\n      dup3\n        /* \"#utility.yul\":22604:22618   */\n      add\n        /* \"#utility.yul\":22597:22655   */\n      mstore\n        /* \"#utility.yul\":22689:22695   */\n      0x7265737300000000000000000000000000000000000000000000000000000000\n        /* \"#utility.yul\":22684:22686   */\n      0x20\n        /* \"#utility.yul\":22676:22682   */\n      dup3\n        /* \"#utility.yul\":22672:22687   */\n      add\n        /* \"#utility.yul\":22665:22696   */\n      mstore\n        /* \"#utility.yul\":22480:22703   */\n      pop\n      jump\t// out\n        /* \"#utility.yul\":22709:22882   */\n    tag_433:\n        /* \"#utility.yul\":22849:22874   */\n      0x416363657373436f6e74726f6c3a206163636f756e7420000000000000000000\n        /* \"#utility.yul\":22845:22846   */\n      0x00\n        /* \"#utility.yul\":22837:22843   */\n      dup3\n        /* \"#utility.yul\":22833:22847   */\n      add\n        /* \"#utility.yul\":22826:22875   */\n      mstore\n        /* \"#utility.yul\":22709:22882   */\n      pop\n      jump\t// out\n        /* \"#utility.yul\":22888:23112   */\n    tag_438:\n        /* \"#utility.yul\":23028:23062   */\n      0x45524332303a2064656372656173656420616c6c6f77616e63652062656c6f77\n        /* \"#utility.yul\":23024:23025   */\n      0x00\n        /* \"#utility.yul\":23016:23022   */\n      dup3\n        /* \"#utility.yul\":23012:23026   */\n      add\n        /* \"#utility.yul\":23005:23063   */\n      mstore\n        /* \"#utility.yul\":23097:23104   */\n      0x207a65726f000000000000000000000000000000000000000000000000000000\n        /* \"#utility.yul\":23092:23094   */\n      0x20\n        /* \"#utility.yul\":23084:23090   */\n      dup3\n        /* \"#utility.yul\":23080:23095   */\n      add\n        /* \"#utility.yul\":23073:23105   */\n      mstore\n        /* \"#utility.yul\":22888:23112   */\n      pop\n      jump\t// out\n        /* \"#utility.yul\":23118:23285   */\n    tag_443:\n        /* \"#utility.yul\":23258:23277   */\n      0x206973206d697373696e6720726f6c6520000000000000000000000000000000\n        /* \"#utility.yul\":23254:23255   */\n      0x00\n        /* \"#utility.yul\":23246:23252   */\n      dup3\n        /* \"#utility.yul\":23242:23256   */\n      add\n        /* \"#utility.yul\":23235:23278   */\n      mstore\n        /* \"#utility.yul\":23118:23285   */\n      pop\n      jump\t// out\n        /* \"#utility.yul\":23291:23525   */\n    tag_448:\n        /* \"#utility.yul\":23431:23465   */\n      0x416363657373436f6e74726f6c3a2063616e206f6e6c792072656e6f756e6365\n        /* \"#utility.yul\":23427:23428   */\n      0x00\n        /* \"#utility.yul\":23419:23425   */\n      dup3\n        /* \"#utility.yul\":23415:23429   */\n      add\n        /* \"#utility.yul\":23408:23466   */\n      mstore\n        /* \"#utility.yul\":23500:23517   */\n      0x20726f6c657320666f722073656c660000000000000000000000000000000000\n        /* \"#utility.yul\":23495:23497   */\n      0x20\n        /* \"#utility.yul\":23487:23493   */\n      dup3\n        /* \"#utility.yul\":23483:23498   */\n      add\n        /* \"#utility.yul\":23476:23518   */\n      mstore\n        /* \"#utility.yul\":23291:23525   */\n      pop\n      jump\t// out\n        /* \"#utility.yul\":23531:23653   */\n    tag_309:\n        /* \"#utility.yul\":23604:23628   */\n      tag_558\n        /* \"#utility.yul\":23622:23627   */\n      dup2\n        /* \"#utility.yul\":23604:23628   */\n      tag_359\n      jump\t// in\n    tag_558:\n        /* \"#utility.yul\":23597:23602   */\n      dup2\n        /* \"#utility.yul\":23594:23629   */\n      eq\n        /* \"#utility.yul\":23584:23647   */\n      tag_559\n      jumpi\n        /* \"#utility.yul\":23643:23644   */\n      0x00\n        /* \"#utility.yul\":23640:23641   */\n      dup1\n        /* \"#utility.yul\":23633:23645   */\n      revert\n        /* \"#utility.yul\":23584:23647   */\n    tag_559:\n        /* \"#utility.yul\":23531:23653   */\n      pop\n      jump\t// out\n        /* \"#utility.yul\":23659:23781   */\n    tag_313:\n        /* \"#utility.yul\":23732:23756   */\n      tag_561\n        /* \"#utility.yul\":23750:23755   */\n      dup2\n        /* \"#utility.yul\":23732:23756   */\n      tag_367\n      jump\t// in\n    tag_561:\n        /* \"#utility.yul\":23725:23730   */\n      dup2\n        /* \"#utility.yul\":23722:23757   */\n      eq\n        /* \"#utility.yul\":23712:23775   */\n      tag_562\n      jumpi\n        /* \"#utility.yul\":23771:23772   */\n      0x00\n        /* \"#utility.yul\":23768:23769   */\n      dup1\n        /* \"#utility.yul\":23761:23773   */\n      revert\n        /* \"#utility.yul\":23712:23775   */\n    tag_562:\n        /* \"#utility.yul\":23659:23781   */\n      pop\n      jump\t// out\n        /* \"#utility.yul\":23787:23907   */\n    tag_317:\n        /* \"#utility.yul\":23859:23882   */\n      tag_564\n        /* \"#utility.yul\":23876:23881   */\n      dup2\n        /* \"#utility.yul\":23859:23882   */\n      tag_517\n      jump\t// in\n    tag_564:\n        /* \"#utility.yul\":23852:23857   */\n      dup2\n        /* \"#utility.yul\":23849:23883   */\n      eq\n        /* \"#utility.yul\":23839:23901   */\n      tag_565\n      jumpi\n        /* \"#utility.yul\":23897:23898   */\n      0x00\n        /* \"#utility.yul\":23894:23895   */\n      dup1\n        /* \"#utility.yul\":23887:23899   */\n      revert\n        /* \"#utility.yul\":23839:23901   */\n    tag_565:\n        /* \"#utility.yul\":23787:23907   */\n      pop\n      jump\t// out\n        /* \"#utility.yul\":23913:24035   */\n    tag_321:\n        /* \"#utility.yul\":23986:24010   */\n      tag_567\n        /* \"#utility.yul\":24004:24009   */\n      dup2\n        /* \"#utility.yul\":23986:24010   */\n      tag_452\n      jump\t// in\n    tag_567:\n        /* \"#utility.yul\":23979:23984   */\n      dup2\n        /* \"#utility.yul\":23976:24011   */\n      eq\n        /* \"#utility.yul\":23966:24029   */\n      tag_568\n      jumpi\n        /* \"#utility.yul\":24025:24026   */\n      0x00\n        /* \"#utility.yul\":24022:24023   */\n      dup1\n        /* \"#utility.yul\":24015:24027   */\n      revert\n        /* \"#utility.yul\":23966:24029   */\n    tag_568:\n        /* \"#utility.yul\":23913:24035   */\n      pop\n      jump\t// out\n\n    auxdata: 0xa26469706673582212209a9fc743713266554facb5630005b08885345bdbddad8f0c2bad1678cad5f40864736f6c63430008070033\n}\n",
				"bytecode": {
					"linkReferences": {},
					"object": "60806040523480156200001157600080fd5b5060405162002d2d38038062002d2d8339818101604052810190620000379190620005d1565b6040518060400160405280601781526020017f57656233204f6e6c696e65204a7564676520546f6b656e0000000000000000008152506040518060400160405280600781526020017f574542334f4a54000000000000000000000000000000000000000000000000008152508160039080519060200190620000bb9291906200050a565b508060049080519060200190620000d49291906200050a565b5050506000600560006101000a81548160ff021916908315150217905550620001076000801b336200018060201b60201c565b620001397f65d7a28e3265b37a6474929f336521b332c1681b933f6cb9f3376673440d862a826200018060201b60201c565b62000179336200014e6200027260201b60201c565b600a6200015c91906200078c565b63773594006200016d9190620008c9565b6200027b60201b60201c565b5062000a87565b620001928282620003f460201b60201c565b6200026e5760016006600084815260200190815260200160002060000160008373ffffffffffffffffffffffffffffffffffffffff1673ffffffffffffffffffffffffffffffffffffffff16815260200190815260200160002060006101000a81548160ff021916908315150217905550620002136200045f60201b60201c565b73ffffffffffffffffffffffffffffffffffffffff168173ffffffffffffffffffffffffffffffffffffffff16837f2f8788117e7eff1d82e926ec794901d17c78024a50270940304540a733656f0d60405160405180910390a45b5050565b60006012905090565b600073ffffffffffffffffffffffffffffffffffffffff168273ffffffffffffffffffffffffffffffffffffffff161415620002ee576040517f08c379a0000000000000000000000000000000000000000000000000000000008152600401620002e59062000684565b60405180910390fd5b62000302600083836200046760201b60201c565b8060026000828254620003169190620006d4565b92505081905550806000808473ffffffffffffffffffffffffffffffffffffffff1673ffffffffffffffffffffffffffffffffffffffff16815260200190815260200160002060008282546200036d9190620006d4565b925050819055508173ffffffffffffffffffffffffffffffffffffffff16600073ffffffffffffffffffffffffffffffffffffffff167fddf252ad1be2c89b69c2b068fc378daa952ba7f163c4a11628f55a4df523b3ef83604051620003d49190620006a6565b60405180910390a3620003f0600083836200049460201b60201c565b5050565b60006006600084815260200190815260200160002060000160008373ffffffffffffffffffffffffffffffffffffffff1673ffffffffffffffffffffffffffffffffffffffff16815260200190815260200160002060009054906101000a900460ff16905092915050565b600033905090565b620004776200049960201b60201c565b6200048f838383620004ee60201b62000a001760201c565b505050565b505050565b620004a9620004f360201b60201c565b15620004ec576040517f08c379a0000000000000000000000000000000000000000000000000000000008152600401620004e39062000662565b60405180910390fd5b565b505050565b6000600560009054906101000a900460ff16905090565b828054620005189062000975565b90600052602060002090601f0160209004810192826200053c576000855562000588565b82601f106200055757805160ff191683800117855562000588565b8280016001018555821562000588579182015b82811115620005875782518255916020019190600101906200056a565b5b5090506200059791906200059b565b5090565b5b80821115620005b65760008160009055506001016200059c565b5090565b600081519050620005cb8162000a6d565b92915050565b600060208284031215620005ea57620005e962000a09565b5b6000620005fa84828501620005ba565b91505092915050565b600062000612601083620006c3565b91506200061f8262000a1b565b602082019050919050565b600062000639601f83620006c3565b9150620006468262000a44565b602082019050919050565b6200065c816200095e565b82525050565b600060208201905081810360008301526200067d8162000603565b9050919050565b600060208201905081810360008301526200069f816200062a565b9050919050565b6000602082019050620006bd600083018462000651565b92915050565b600082825260208201905092915050565b6000620006e1826200095e565b9150620006ee836200095e565b9250827fffffffffffffffffffffffffffffffffffffffffffffffffffffffffffffffff03821115620007265762000725620009ab565b5b828201905092915050565b6000808291508390505b600185111562000783578086048111156200075b576200075a620009ab565b5b60018516156200076b5780820291505b80810290506200077b8562000a0e565b94506200073b565b94509492505050565b600062000799826200095e565b9150620007a68362000968565b9250620007d57fffffffffffffffffffffffffffffffffffffffffffffffffffffffffffffffff8484620007dd565b905092915050565b600082620007ef5760019050620008c2565b81620007ff5760009050620008c2565b8160018114620008185760028114620008235762000859565b6001915050620008c2565b60ff841115620008385762000837620009ab565b5b8360020a915084821115620008525762000851620009ab565b5b50620008c2565b5060208310610133831016604e8410600b8410161715620008935782820a9050838111156200088d576200088c620009ab565b5b620008c2565b620008a2848484600162000731565b92509050818404811115620008bc57620008bb620009ab565b5b81810290505b9392505050565b6000620008d6826200095e565b9150620008e3836200095e565b9250817fffffffffffffffffffffffffffffffffffffffffffffffffffffffffffffffff04831182151516156200091f576200091e620009ab565b5b828202905092915050565b600062000937826200093e565b9050919050565b600073ffffffffffffffffffffffffffffffffffffffff82169050919050565b6000819050919050565b600060ff82169050919050565b600060028204905060018216806200098e57607f821691505b60208210811415620009a557620009a4620009da565b5b50919050565b7f4e487b7100000000000000000000000000000000000000000000000000000000600052601160045260246000fd5b7f4e487b7100000000000000000000000000000000000000000000000000000000600052602260045260246000fd5b600080fd5b60008160011c9050919050565b7f5061757361626c653a2070617573656400000000000000000000000000000000600082015250565b7f45524332303a206d696e7420746f20746865207a65726f206164647265737300600082015250565b62000a78816200092a565b811462000a8457600080fd5b50565b6122968062000a976000396000f3fe608060405234801561001057600080fd5b50600436106101425760003560e01c80635c975abb116100b8578063a217fddf1161007c578063a217fddf14610379578063a457c2d714610397578063a9059cbb146103c7578063d547741f146103f7578063dd62ed3e14610413578063e63ab1e91461044357610142565b80635c975abb146102d357806370a08231146102f15780638456cb591461032157806391d148541461032b57806395d89b411461035b57610142565b8063248a9ca31161010a578063248a9ca3146102135780632f2ff15d14610243578063313ce5671461025f57806336568abe1461027d57806339509351146102995780633f4ba83a146102c957610142565b806301ffc9a71461014757806306fdde0314610177578063095ea7b31461019557806318160ddd146101c557806323b872dd146101e3575b600080fd5b610161600480360381019061015c9190611736565b610461565b60405161016e9190611a34565b60405180910390f35b61017f6104db565b60405161018c9190611a6a565b60405180910390f35b6101af60048036038101906101aa9190611689565b61056d565b6040516101bc9190611a34565b60405180910390f35b6101cd610590565b6040516101da9190611bec565b60405180910390f35b6101fd60048036038101906101f89190611636565b61059a565b60405161020a9190611a34565b60405180910390f35b61022d600480360381019061022891906116c9565b6105c9565b60405161023a9190611a4f565b60405180910390f35b61025d600480360381019061025891906116f6565b6105e9565b005b61026761060a565b6040516102749190611c07565b60405180910390f35b610297600480360381019061029291906116f6565b610613565b005b6102b360048036038101906102ae9190611689565b610696565b6040516102c09190611a34565b60405180910390f35b6102d16106cd565b005b6102db610702565b6040516102e89190611a34565b60405180910390f35b61030b600480360381019061030691906115c9565b610719565b6040516103189190611bec565b60405180910390f35b610329610761565b005b610345600480360381019061034091906116f6565b610796565b6040516103529190611a34565b60405180910390f35b610363610801565b6040516103709190611a6a565b60405180910390f35b610381610893565b60405161038e9190611a4f565b60405180910390f35b6103b160048036038101906103ac9190611689565b61089a565b6040516103be9190611a34565b60405180910390f35b6103e160048036038101906103dc9190611689565b610911565b6040516103ee9190611a34565b60405180910390f35b610411600480360381019061040c91906116f6565b610934565b005b61042d600480360381019061042891906115f6565b610955565b60405161043a9190611bec565b60405180910390f35b61044b6109dc565b6040516104589190611a4f565b60405180910390f35b60007f7965db0b000000000000000000000000000000000000000000000000000000007bffffffffffffffffffffffffffffffffffffffffffffffffffffffff1916827bffffffffffffffffffffffffffffffffffffffffffffffffffffffff191614806104d457506104d382610a05565b5b9050919050565b6060600380546104ea90611de1565b80601f016020809104026020016040519081016040528092919081815260200182805461051690611de1565b80156105635780601f1061053857610100808354040283529160200191610563565b820191906000526020600020905b81548152906001019060200180831161054657829003601f168201915b5050505050905090565b600080610578610a6f565b9050610585818585610a77565b600191505092915050565b6000600254905090565b6000806105a5610a6f565b90506105b2858285610c42565b6105bd858585610cce565b60019150509392505050565b600060066000838152602001908152602001600020600101549050919050565b6105f2826105c9565b6105fb81610f4f565b6106058383610f63565b505050565b60006012905090565b61061b610a6f565b73ffffffffffffffffffffffffffffffffffffffff168173ffffffffffffffffffffffffffffffffffffffff1614610688576040517f08c379a000000000000000000000000000000000000000000000000000000000815260040161067f90611bcc565b60405180910390fd5b6106928282611044565b5050565b6000806106a1610a6f565b90506106c28185856106b38589610955565b6106bd9190611c49565b610a77565b600191505092915050565b7f65d7a28e3265b37a6474929f336521b332c1681b933f6cb9f3376673440d862a6106f781610f4f565b6106ff611126565b50565b6000600560009054906101000a900460ff16905090565b60008060008373ffffffffffffffffffffffffffffffffffffffff1673ffffffffffffffffffffffffffffffffffffffff168152602001908152602001600020549050919050565b7f65d7a28e3265b37a6474929f336521b332c1681b933f6cb9f3376673440d862a61078b81610f4f565b610793611189565b50565b60006006600084815260200190815260200160002060000160008373ffffffffffffffffffffffffffffffffffffffff1673ffffffffffffffffffffffffffffffffffffffff16815260200190815260200160002060009054906101000a900460ff16905092915050565b60606004805461081090611de1565b80601f016020809104026020016040519081016040528092919081815260200182805461083c90611de1565b80156108895780601f1061085e57610100808354040283529160200191610889565b820191906000526020600020905b81548152906001019060200180831161086c57829003601f168201915b5050505050905090565b6000801b81565b6000806108a5610a6f565b905060006108b38286610955565b9050838110156108f8576040517f08c379a00000000000000000000000000000000000000000000000000000000081526004016108ef90611bac565b60405180910390fd5b6109058286868403610a77565b60019250505092915050565b60008061091c610a6f565b9050610929818585610cce565b600191505092915050565b61093d826105c9565b61094681610f4f565b6109508383611044565b505050565b6000600160008473ffffffffffffffffffffffffffffffffffffffff1673ffffffffffffffffffffffffffffffffffffffff16815260200190815260200160002060008373ffffffffffffffffffffffffffffffffffffffff1673ffffffffffffffffffffffffffffffffffffffff16815260200190815260200160002054905092915050565b7f65d7a28e3265b37a6474929f336521b332c1681b933f6cb9f3376673440d862a81565b505050565b60007f01ffc9a7000000000000000000000000000000000000000000000000000000007bffffffffffffffffffffffffffffffffffffffffffffffffffffffff1916827bffffffffffffffffffffffffffffffffffffffffffffffffffffffff1916149050919050565b600033905090565b600073ffffffffffffffffffffffffffffffffffffffff168373ffffffffffffffffffffffffffffffffffffffff161415610ae7576040517f08c379a0000000000000000000000000000000000000000000000000000000008152600401610ade90611b8c565b60405180910390fd5b600073ffffffffffffffffffffffffffffffffffffffff168273ffffffffffffffffffffffffffffffffffffffff161415610b57576040517f08c379a0000000000000000000000000000000000000000000000000000000008152600401610b4e90611aec565b60405180910390fd5b80600160008573ffffffffffffffffffffffffffffffffffffffff1673ffffffffffffffffffffffffffffffffffffffff16815260200190815260200160002060008473ffffffffffffffffffffffffffffffffffffffff1673ffffffffffffffffffffffffffffffffffffffff168152602001908152602001600020819055508173ffffffffffffffffffffffffffffffffffffffff168373ffffffffffffffffffffffffffffffffffffffff167f8c5be1e5ebec7d5bd14f71427d1e84f3dd0314c0f7b2291e5b200ac8c7c3b92583604051610c359190611bec565b60405180910390a3505050565b6000610c4e8484610955565b90507fffffffffffffffffffffffffffffffffffffffffffffffffffffffffffffffff8114610cc85781811015610cba576040517f08c379a0000000000000000000000000000000000000000000000000000000008152600401610cb190611b0c565b60405180910390fd5b610cc78484848403610a77565b5b50505050565b600073ffffffffffffffffffffffffffffffffffffffff168373ffffffffffffffffffffffffffffffffffffffff161415610d3e576040517f08c379a0000000000000000000000000000000000000000000000000000000008152600401610d3590611b6c565b60405180910390fd5b600073ffffffffffffffffffffffffffffffffffffffff168273ffffffffffffffffffffffffffffffffffffffff161415610dae576040517f08c379a0000000000000000000000000000000000000000000000000000000008152600401610da590611aac565b60405180910390fd5b610db98383836111ec565b60008060008573ffffffffffffffffffffffffffffffffffffffff1673ffffffffffffffffffffffffffffffffffffffff16815260200190815260200160002054905081811015610e3f576040517f08c379a0000000000000000000000000000000000000000000000000000000008152600401610e3690611b2c565b60405180910390fd5b8181036000808673ffffffffffffffffffffffffffffffffffffffff1673ffffffffffffffffffffffffffffffffffffffff16815260200190815260200160002081905550816000808573ffffffffffffffffffffffffffffffffffffffff1673ffffffffffffffffffffffffffffffffffffffff1681526020019081526020016000206000828254610ed29190611c49565b925050819055508273ffffffffffffffffffffffffffffffffffffffff168473ffffffffffffffffffffffffffffffffffffffff167fddf252ad1be2c89b69c2b068fc378daa952ba7f163c4a11628f55a4df523b3ef84604051610f369190611bec565b60405180910390a3610f49848484611204565b50505050565b610f6081610f5b610a6f565b611209565b50565b610f6d8282610796565b6110405760016006600084815260200190815260200160002060000160008373ffffffffffffffffffffffffffffffffffffffff1673ffffffffffffffffffffffffffffffffffffffff16815260200190815260200160002060006101000a81548160ff021916908315150217905550610fe5610a6f565b73ffffffffffffffffffffffffffffffffffffffff168173ffffffffffffffffffffffffffffffffffffffff16837f2f8788117e7eff1d82e926ec794901d17c78024a50270940304540a733656f0d60405160405180910390a45b5050565b61104e8282610796565b156111225760006006600084815260200190815260200160002060000160008373ffffffffffffffffffffffffffffffffffffffff1673ffffffffffffffffffffffffffffffffffffffff16815260200190815260200160002060006101000a81548160ff0219169083151502179055506110c7610a6f565b73ffffffffffffffffffffffffffffffffffffffff168173ffffffffffffffffffffffffffffffffffffffff16837ff6391f5c32d9c69d2a47ea670b442974b53935d1edc7fd64eb21e047a839171b60405160405180910390a45b5050565b61112e6112a6565b6000600560006101000a81548160ff0219169083151502179055507f5db9ee0a495bf2e6ff9c91a7834c1ba4fdd244a5e8aa4e537bd38aeae4b073aa611172610a6f565b60405161117f9190611a19565b60405180910390a1565b6111916112ef565b6001600560006101000a81548160ff0219169083151502179055507f62e78cea01bee320cd4e420270b5ea74000d11b0c9f74754ebdbfc544b05a2586111d5610a6f565b6040516111e29190611a19565b60405180910390a1565b6111f46112ef565b6111ff838383610a00565b505050565b505050565b6112138282610796565b6112a2576112388173ffffffffffffffffffffffffffffffffffffffff166014611339565b6112468360001c6020611339565b6040516020016112579291906119df565b6040516020818303038152906040526040517f08c379a00000000000000000000000000000000000000000000000000000000081526004016112999190611a6a565b60405180910390fd5b5050565b6112ae610702565b6112ed576040517f08c379a00000000000000000000000000000000000000000000000000000000081526004016112e490611acc565b60405180910390fd5b565b6112f7610702565b15611337576040517f08c379a000000000000000000000000000000000000000000000000000000000815260040161132e90611b4c565b60405180910390fd5b565b60606000600283600261134c9190611c9f565b6113569190611c49565b67ffffffffffffffff81111561136f5761136e611ea0565b5b6040519080825280601f01601f1916602001820160405280156113a15781602001600182028036833780820191505090505b5090507f3000000000000000000000000000000000000000000000000000000000000000816000815181106113d9576113d8611e71565b5b60200101907effffffffffffffffffffffffffffffffffffffffffffffffffffffffffffff1916908160001a9053507f78000000000000000000000000000000000000000000000000000000000000008160018151811061143d5761143c611e71565b5b60200101907effffffffffffffffffffffffffffffffffffffffffffffffffffffffffffff1916908160001a9053506000600184600261147d9190611c9f565b6114879190611c49565b90505b6001811115611527577f3031323334353637383961626364656600000000000000000000000000000000600f8616601081106114c9576114c8611e71565b5b1a60f81b8282815181106114e0576114df611e71565b5b60200101907effffffffffffffffffffffffffffffffffffffffffffffffffffffffffffff1916908160001a905350600485901c94508061152090611db7565b905061148a565b506000841461156b576040517f08c379a000000000000000000000000000000000000000000000000000000000815260040161156290611a8c565b60405180910390fd5b8091505092915050565b60008135905061158481612204565b92915050565b6000813590506115998161221b565b92915050565b6000813590506115ae81612232565b92915050565b6000813590506115c381612249565b92915050565b6000602082840312156115df576115de611ecf565b5b60006115ed84828501611575565b91505092915050565b6000806040838503121561160d5761160c611ecf565b5b600061161b85828601611575565b925050602061162c85828601611575565b9150509250929050565b60008060006060848603121561164f5761164e611ecf565b5b600061165d86828701611575565b935050602061166e86828701611575565b925050604061167f868287016115b4565b9150509250925092565b600080604083850312156116a05761169f611ecf565b5b60006116ae85828601611575565b92505060206116bf858286016115b4565b9150509250929050565b6000602082840312156116df576116de611ecf565b5b60006116ed8482850161158a565b91505092915050565b6000806040838503121561170d5761170c611ecf565b5b600061171b8582860161158a565b925050602061172c85828601611575565b9150509250929050565b60006020828403121561174c5761174b611ecf565b5b600061175a8482850161159f565b91505092915050565b61176c81611cf9565b82525050565b61177b81611d0b565b82525050565b61178a81611d17565b82525050565b600061179b82611c22565b6117a58185611c2d565b93506117b5818560208601611d84565b6117be81611ed4565b840191505092915050565b60006117d482611c22565b6117de8185611c3e565b93506117ee818560208601611d84565b80840191505092915050565b6000611807602083611c2d565b915061181282611ee5565b602082019050919050565b600061182a602383611c2d565b915061183582611f0e565b604082019050919050565b600061184d601483611c2d565b915061185882611f5d565b602082019050919050565b6000611870602283611c2d565b915061187b82611f86565b604082019050919050565b6000611893601d83611c2d565b915061189e82611fd5565b602082019050919050565b60006118b6602683611c2d565b91506118c182611ffe565b604082019050919050565b60006118d9601083611c2d565b91506118e48261204d565b602082019050919050565b60006118fc602583611c2d565b915061190782612076565b604082019050919050565b600061191f602483611c2d565b915061192a826120c5565b604082019050919050565b6000611942601783611c3e565b915061194d82612114565b601782019050919050565b6000611965602583611c2d565b91506119708261213d565b604082019050919050565b6000611988601183611c3e565b91506119938261218c565b601182019050919050565b60006119ab602f83611c2d565b91506119b6826121b5565b604082019050919050565b6119ca81611d6d565b82525050565b6119d981611d77565b82525050565b60006119ea82611935565b91506119f682856117c9565b9150611a018261197b565b9150611a0d82846117c9565b91508190509392505050565b6000602082019050611a2e6000830184611763565b92915050565b6000602082019050611a496000830184611772565b92915050565b6000602082019050611a646000830184611781565b92915050565b60006020820190508181036000830152611a848184611790565b905092915050565b60006020820190508181036000830152611aa5816117fa565b9050919050565b60006020820190508181036000830152611ac58161181d565b9050919050565b60006020820190508181036000830152611ae581611840565b9050919050565b60006020820190508181036000830152611b0581611863565b9050919050565b60006020820190508181036000830152611b2581611886565b9050919050565b60006020820190508181036000830152611b45816118a9565b9050919050565b60006020820190508181036000830152611b65816118cc565b9050919050565b60006020820190508181036000830152611b85816118ef565b9050919050565b60006020820190508181036000830152611ba581611912565b9050919050565b60006020820190508181036000830152611bc581611958565b9050919050565b60006020820190508181036000830152611be58161199e565b9050919050565b6000602082019050611c0160008301846119c1565b92915050565b6000602082019050611c1c60008301846119d0565b92915050565b600081519050919050565b600082825260208201905092915050565b600081905092915050565b6000611c5482611d6d565b9150611c5f83611d6d565b9250827fffffffffffffffffffffffffffffffffffffffffffffffffffffffffffffffff03821115611c9457611c93611e13565b5b828201905092915050565b6000611caa82611d6d565b9150611cb583611d6d565b9250817fffffffffffffffffffffffffffffffffffffffffffffffffffffffffffffffff0483118215151615611cee57611ced611e13565b5b828202905092915050565b6000611d0482611d4d565b9050919050565b60008115159050919050565b6000819050919050565b60007fffffffff0000000000000000000000000000000000000000000000000000000082169050919050565b600073ffffffffffffffffffffffffffffffffffffffff82169050919050565b6000819050919050565b600060ff82169050919050565b60005b83811015611da2578082015181840152602081019050611d87565b83811115611db1576000848401525b50505050565b6000611dc282611d6d565b91506000821415611dd657611dd5611e13565b5b600182039050919050565b60006002820490506001821680611df957607f821691505b60208210811415611e0d57611e0c611e42565b5b50919050565b7f4e487b7100000000000000000000000000000000000000000000000000000000600052601160045260246000fd5b7f4e487b7100000000000000000000000000000000000000000000000000000000600052602260045260246000fd5b7f4e487b7100000000000000000000000000000000000000000000000000000000600052603260045260246000fd5b7f4e487b7100000000000000000000000000000000000000000000000000000000600052604160045260246000fd5b600080fd5b6000601f19601f8301169050919050565b7f537472696e67733a20686578206c656e67746820696e73756666696369656e74600082015250565b7f45524332303a207472616e7366657220746f20746865207a65726f206164647260008201527f6573730000000000000000000000000000000000000000000000000000000000602082015250565b7f5061757361626c653a206e6f7420706175736564000000000000000000000000600082015250565b7f45524332303a20617070726f766520746f20746865207a65726f20616464726560008201527f7373000000000000000000000000000000000000000000000000000000000000602082015250565b7f45524332303a20696e73756666696369656e7420616c6c6f77616e6365000000600082015250565b7f45524332303a207472616e7366657220616d6f756e742065786365656473206260008201527f616c616e63650000000000000000000000000000000000000000000000000000602082015250565b7f5061757361626c653a2070617573656400000000000000000000000000000000600082015250565b7f45524332303a207472616e736665722066726f6d20746865207a65726f20616460008201527f6472657373000000000000000000000000000000000000000000000000000000602082015250565b7f45524332303a20617070726f76652066726f6d20746865207a65726f2061646460008201527f7265737300000000000000000000000000000000000000000000000000000000602082015250565b7f416363657373436f6e74726f6c3a206163636f756e7420000000000000000000600082015250565b7f45524332303a2064656372656173656420616c6c6f77616e63652062656c6f7760008201527f207a65726f000000000000000000000000000000000000000000000000000000602082015250565b7f206973206d697373696e6720726f6c6520000000000000000000000000000000600082015250565b7f416363657373436f6e74726f6c3a2063616e206f6e6c792072656e6f756e636560008201527f20726f6c657320666f722073656c660000000000000000000000000000000000602082015250565b61220d81611cf9565b811461221857600080fd5b50565b61222481611d17565b811461222f57600080fd5b50565b61223b81611d21565b811461224657600080fd5b50565b61225281611d6d565b811461225d57600080fd5b5056fea26469706673582212209a9fc743713266554facb5630005b08885345bdbddad8f0c2bad1678cad5f40864736f6c63430008070033",
					"opcodes": "PUSH1 0x80 PUSH1 0x40 MSTORE CALLVALUE DUP1 ISZERO PUSH3 0x11 JUMPI PUSH1 0x0 DUP1 REVERT JUMPDEST POP PUSH1 0x40 MLOAD PUSH3 0x2D2D CODESIZE SUB DUP1 PUSH3 0x2D2D DUP4 CODECOPY DUP2 DUP2 ADD PUSH1 0x40 MSTORE DUP2 ADD SWAP1 PUSH3 0x37 SWAP2 SWAP1 PUSH3 0x5D1 JUMP JUMPDEST PUSH1 0x40 MLOAD DUP1 PUSH1 0x40 ADD PUSH1 0x40 MSTORE DUP1 PUSH1 0x17 DUP2 MSTORE PUSH1 0x20 ADD PUSH32 0x57656233204F6E6C696E65204A7564676520546F6B656E000000000000000000 DUP2 MSTORE POP PUSH1 0x40 MLOAD DUP1 PUSH1 0x40 ADD PUSH1 0x40 MSTORE DUP1 PUSH1 0x7 DUP2 MSTORE PUSH1 0x20 ADD PUSH32 0x574542334F4A5400000000000000000000000000000000000000000000000000 DUP2 MSTORE POP DUP2 PUSH1 0x3 SWAP1 DUP1 MLOAD SWAP1 PUSH1 0x20 ADD SWAP1 PUSH3 0xBB SWAP3 SWAP2 SWAP1 PUSH3 0x50A JUMP JUMPDEST POP DUP1 PUSH1 0x4 SWAP1 DUP1 MLOAD SWAP1 PUSH1 0x20 ADD SWAP1 PUSH3 0xD4 SWAP3 SWAP2 SWAP1 PUSH3 0x50A JUMP JUMPDEST POP POP POP PUSH1 0x0 PUSH1 0x5 PUSH1 0x0 PUSH2 0x100 EXP DUP2 SLOAD DUP2 PUSH1 0xFF MUL NOT AND SWAP1 DUP4 ISZERO ISZERO MUL OR SWAP1 SSTORE POP PUSH3 0x107 PUSH1 0x0 DUP1 SHL CALLER PUSH3 0x180 PUSH1 0x20 SHL PUSH1 0x20 SHR JUMP JUMPDEST PUSH3 0x139 PUSH32 0x65D7A28E3265B37A6474929F336521B332C1681B933F6CB9F3376673440D862A DUP3 PUSH3 0x180 PUSH1 0x20 SHL PUSH1 0x20 SHR JUMP JUMPDEST PUSH3 0x179 CALLER PUSH3 0x14E PUSH3 0x272 PUSH1 0x20 SHL PUSH1 0x20 SHR JUMP JUMPDEST PUSH1 0xA PUSH3 0x15C SWAP2 SWAP1 PUSH3 0x78C JUMP JUMPDEST PUSH4 0x77359400 PUSH3 0x16D SWAP2 SWAP1 PUSH3 0x8C9 JUMP JUMPDEST PUSH3 0x27B PUSH1 0x20 SHL PUSH1 0x20 SHR JUMP JUMPDEST POP PUSH3 0xA87 JUMP JUMPDEST PUSH3 0x192 DUP3 DUP3 PUSH3 0x3F4 PUSH1 0x20 SHL PUSH1 0x20 SHR JUMP JUMPDEST PUSH3 0x26E JUMPI PUSH1 0x1 PUSH1 0x6 PUSH1 0x0 DUP5 DUP2 MSTORE PUSH1 0x20 ADD SWAP1 DUP2 MSTORE PUSH1 0x20 ADD PUSH1 0x0 KECCAK256 PUSH1 0x0 ADD PUSH1 0x0 DUP4 PUSH20 0xFFFFFFFFFFFFFFFFFFFFFFFFFFFFFFFFFFFFFFFF AND PUSH20 0xFFFFFFFFFFFFFFFFFFFFFFFFFFFFFFFFFFFFFFFF AND DUP2 MSTORE PUSH1 0x20 ADD SWAP1 DUP2 MSTORE PUSH1 0x20 ADD PUSH1 0x0 KECCAK256 PUSH1 0x0 PUSH2 0x100 EXP DUP2 SLOAD DUP2 PUSH1 0xFF MUL NOT AND SWAP1 DUP4 ISZERO ISZERO MUL OR SWAP1 SSTORE POP PUSH3 0x213 PUSH3 0x45F PUSH1 0x20 SHL PUSH1 0x20 SHR JUMP JUMPDEST PUSH20 0xFFFFFFFFFFFFFFFFFFFFFFFFFFFFFFFFFFFFFFFF AND DUP2 PUSH20 0xFFFFFFFFFFFFFFFFFFFFFFFFFFFFFFFFFFFFFFFF AND DUP4 PUSH32 0x2F8788117E7EFF1D82E926EC794901D17C78024A50270940304540A733656F0D PUSH1 0x40 MLOAD PUSH1 0x40 MLOAD DUP1 SWAP2 SUB SWAP1 LOG4 JUMPDEST POP POP JUMP JUMPDEST PUSH1 0x0 PUSH1 0x12 SWAP1 POP SWAP1 JUMP JUMPDEST PUSH1 0x0 PUSH20 0xFFFFFFFFFFFFFFFFFFFFFFFFFFFFFFFFFFFFFFFF AND DUP3 PUSH20 0xFFFFFFFFFFFFFFFFFFFFFFFFFFFFFFFFFFFFFFFF AND EQ ISZERO PUSH3 0x2EE JUMPI PUSH1 0x40 MLOAD PUSH32 0x8C379A000000000000000000000000000000000000000000000000000000000 DUP2 MSTORE PUSH1 0x4 ADD PUSH3 0x2E5 SWAP1 PUSH3 0x684 JUMP JUMPDEST PUSH1 0x40 MLOAD DUP1 SWAP2 SUB SWAP1 REVERT JUMPDEST PUSH3 0x302 PUSH1 0x0 DUP4 DUP4 PUSH3 0x467 PUSH1 0x20 SHL PUSH1 0x20 SHR JUMP JUMPDEST DUP1 PUSH1 0x2 PUSH1 0x0 DUP3 DUP3 SLOAD PUSH3 0x316 SWAP2 SWAP1 PUSH3 0x6D4 JUMP JUMPDEST SWAP3 POP POP DUP2 SWAP1 SSTORE POP DUP1 PUSH1 0x0 DUP1 DUP5 PUSH20 0xFFFFFFFFFFFFFFFFFFFFFFFFFFFFFFFFFFFFFFFF AND PUSH20 0xFFFFFFFFFFFFFFFFFFFFFFFFFFFFFFFFFFFFFFFF AND DUP2 MSTORE PUSH1 0x20 ADD SWAP1 DUP2 MSTORE PUSH1 0x20 ADD PUSH1 0x0 KECCAK256 PUSH1 0x0 DUP3 DUP3 SLOAD PUSH3 0x36D SWAP2 SWAP1 PUSH3 0x6D4 JUMP JUMPDEST SWAP3 POP POP DUP2 SWAP1 SSTORE POP DUP2 PUSH20 0xFFFFFFFFFFFFFFFFFFFFFFFFFFFFFFFFFFFFFFFF AND PUSH1 0x0 PUSH20 0xFFFFFFFFFFFFFFFFFFFFFFFFFFFFFFFFFFFFFFFF AND PUSH32 0xDDF252AD1BE2C89B69C2B068FC378DAA952BA7F163C4A11628F55A4DF523B3EF DUP4 PUSH1 0x40 MLOAD PUSH3 0x3D4 SWAP2 SWAP1 PUSH3 0x6A6 JUMP JUMPDEST PUSH1 0x40 MLOAD DUP1 SWAP2 SUB SWAP1 LOG3 PUSH3 0x3F0 PUSH1 0x0 DUP4 DUP4 PUSH3 0x494 PUSH1 0x20 SHL PUSH1 0x20 SHR JUMP JUMPDEST POP POP JUMP JUMPDEST PUSH1 0x0 PUSH1 0x6 PUSH1 0x0 DUP5 DUP2 MSTORE PUSH1 0x20 ADD SWAP1 DUP2 MSTORE PUSH1 0x20 ADD PUSH1 0x0 KECCAK256 PUSH1 0x0 ADD PUSH1 0x0 DUP4 PUSH20 0xFFFFFFFFFFFFFFFFFFFFFFFFFFFFFFFFFFFFFFFF AND PUSH20 0xFFFFFFFFFFFFFFFFFFFFFFFFFFFFFFFFFFFFFFFF AND DUP2 MSTORE PUSH1 0x20 ADD SWAP1 DUP2 MSTORE PUSH1 0x20 ADD PUSH1 0x0 KECCAK256 PUSH1 0x0 SWAP1 SLOAD SWAP1 PUSH2 0x100 EXP SWAP1 DIV PUSH1 0xFF AND SWAP1 POP SWAP3 SWAP2 POP POP JUMP JUMPDEST PUSH1 0x0 CALLER SWAP1 POP SWAP1 JUMP JUMPDEST PUSH3 0x477 PUSH3 0x499 PUSH1 0x20 SHL PUSH1 0x20 SHR JUMP JUMPDEST PUSH3 0x48F DUP4 DUP4 DUP4 PUSH3 0x4EE PUSH1 0x20 SHL PUSH3 0xA00 OR PUSH1 0x20 SHR JUMP JUMPDEST POP POP POP JUMP JUMPDEST POP POP POP JUMP JUMPDEST PUSH3 0x4A9 PUSH3 0x4F3 PUSH1 0x20 SHL PUSH1 0x20 SHR JUMP JUMPDEST ISZERO PUSH3 0x4EC JUMPI PUSH1 0x40 MLOAD PUSH32 0x8C379A000000000000000000000000000000000000000000000000000000000 DUP2 MSTORE PUSH1 0x4 ADD PUSH3 0x4E3 SWAP1 PUSH3 0x662 JUMP JUMPDEST PUSH1 0x40 MLOAD DUP1 SWAP2 SUB SWAP1 REVERT JUMPDEST JUMP JUMPDEST POP POP POP JUMP JUMPDEST PUSH1 0x0 PUSH1 0x5 PUSH1 0x0 SWAP1 SLOAD SWAP1 PUSH2 0x100 EXP SWAP1 DIV PUSH1 0xFF AND SWAP1 POP SWAP1 JUMP JUMPDEST DUP3 DUP1 SLOAD PUSH3 0x518 SWAP1 PUSH3 0x975 JUMP JUMPDEST SWAP1 PUSH1 0x0 MSTORE PUSH1 0x20 PUSH1 0x0 KECCAK256 SWAP1 PUSH1 0x1F ADD PUSH1 0x20 SWAP1 DIV DUP2 ADD SWAP3 DUP3 PUSH3 0x53C JUMPI PUSH1 0x0 DUP6 SSTORE PUSH3 0x588 JUMP JUMPDEST DUP3 PUSH1 0x1F LT PUSH3 0x557 JUMPI DUP1 MLOAD PUSH1 0xFF NOT AND DUP4 DUP1 ADD OR DUP6 SSTORE PUSH3 0x588 JUMP JUMPDEST DUP3 DUP1 ADD PUSH1 0x1 ADD DUP6 SSTORE DUP3 ISZERO PUSH3 0x588 JUMPI SWAP2 DUP3 ADD JUMPDEST DUP3 DUP2 GT ISZERO PUSH3 0x587 JUMPI DUP3 MLOAD DUP3 SSTORE SWAP2 PUSH1 0x20 ADD SWAP2 SWAP1 PUSH1 0x1 ADD SWAP1 PUSH3 0x56A JUMP JUMPDEST JUMPDEST POP SWAP1 POP PUSH3 0x597 SWAP2 SWAP1 PUSH3 0x59B JUMP JUMPDEST POP SWAP1 JUMP JUMPDEST JUMPDEST DUP1 DUP3 GT ISZERO PUSH3 0x5B6 JUMPI PUSH1 0x0 DUP2 PUSH1 0x0 SWAP1 SSTORE POP PUSH1 0x1 ADD PUSH3 0x59C JUMP JUMPDEST POP SWAP1 JUMP JUMPDEST PUSH1 0x0 DUP2 MLOAD SWAP1 POP PUSH3 0x5CB DUP2 PUSH3 0xA6D JUMP JUMPDEST SWAP3 SWAP2 POP POP JUMP JUMPDEST PUSH1 0x0 PUSH1 0x20 DUP3 DUP5 SUB SLT ISZERO PUSH3 0x5EA JUMPI PUSH3 0x5E9 PUSH3 0xA09 JUMP JUMPDEST JUMPDEST PUSH1 0x0 PUSH3 0x5FA DUP5 DUP3 DUP6 ADD PUSH3 0x5BA JUMP JUMPDEST SWAP2 POP POP SWAP3 SWAP2 POP POP JUMP JUMPDEST PUSH1 0x0 PUSH3 0x612 PUSH1 0x10 DUP4 PUSH3 0x6C3 JUMP JUMPDEST SWAP2 POP PUSH3 0x61F DUP3 PUSH3 0xA1B JUMP JUMPDEST PUSH1 0x20 DUP3 ADD SWAP1 POP SWAP2 SWAP1 POP JUMP JUMPDEST PUSH1 0x0 PUSH3 0x639 PUSH1 0x1F DUP4 PUSH3 0x6C3 JUMP JUMPDEST SWAP2 POP PUSH3 0x646 DUP3 PUSH3 0xA44 JUMP JUMPDEST PUSH1 0x20 DUP3 ADD SWAP1 POP SWAP2 SWAP1 POP JUMP JUMPDEST PUSH3 0x65C DUP2 PUSH3 0x95E JUMP JUMPDEST DUP3 MSTORE POP POP JUMP JUMPDEST PUSH1 0x0 PUSH1 0x20 DUP3 ADD SWAP1 POP DUP2 DUP2 SUB PUSH1 0x0 DUP4 ADD MSTORE PUSH3 0x67D DUP2 PUSH3 0x603 JUMP JUMPDEST SWAP1 POP SWAP2 SWAP1 POP JUMP JUMPDEST PUSH1 0x0 PUSH1 0x20 DUP3 ADD SWAP1 POP DUP2 DUP2 SUB PUSH1 0x0 DUP4 ADD MSTORE PUSH3 0x69F DUP2 PUSH3 0x62A JUMP JUMPDEST SWAP1 POP SWAP2 SWAP1 POP JUMP JUMPDEST PUSH1 0x0 PUSH1 0x20 DUP3 ADD SWAP1 POP PUSH3 0x6BD PUSH1 0x0 DUP4 ADD DUP5 PUSH3 0x651 JUMP JUMPDEST SWAP3 SWAP2 POP POP JUMP JUMPDEST PUSH1 0x0 DUP3 DUP3 MSTORE PUSH1 0x20 DUP3 ADD SWAP1 POP SWAP3 SWAP2 POP POP JUMP JUMPDEST PUSH1 0x0 PUSH3 0x6E1 DUP3 PUSH3 0x95E JUMP JUMPDEST SWAP2 POP PUSH3 0x6EE DUP4 PUSH3 0x95E JUMP JUMPDEST SWAP3 POP DUP3 PUSH32 0xFFFFFFFFFFFFFFFFFFFFFFFFFFFFFFFFFFFFFFFFFFFFFFFFFFFFFFFFFFFFFFFF SUB DUP3 GT ISZERO PUSH3 0x726 JUMPI PUSH3 0x725 PUSH3 0x9AB JUMP JUMPDEST JUMPDEST DUP3 DUP3 ADD SWAP1 POP SWAP3 SWAP2 POP POP JUMP JUMPDEST PUSH1 0x0 DUP1 DUP3 SWAP2 POP DUP4 SWAP1 POP JUMPDEST PUSH1 0x1 DUP6 GT ISZERO PUSH3 0x783 JUMPI DUP1 DUP7 DIV DUP2 GT ISZERO PUSH3 0x75B JUMPI PUSH3 0x75A PUSH3 0x9AB JUMP JUMPDEST JUMPDEST PUSH1 0x1 DUP6 AND ISZERO PUSH3 0x76B JUMPI DUP1 DUP3 MUL SWAP2 POP JUMPDEST DUP1 DUP2 MUL SWAP1 POP PUSH3 0x77B DUP6 PUSH3 0xA0E JUMP JUMPDEST SWAP5 POP PUSH3 0x73B JUMP JUMPDEST SWAP5 POP SWAP5 SWAP3 POP POP POP JUMP JUMPDEST PUSH1 0x0 PUSH3 0x799 DUP3 PUSH3 0x95E JUMP JUMPDEST SWAP2 POP PUSH3 0x7A6 DUP4 PUSH3 0x968 JUMP JUMPDEST SWAP3 POP PUSH3 0x7D5 PUSH32 0xFFFFFFFFFFFFFFFFFFFFFFFFFFFFFFFFFFFFFFFFFFFFFFFFFFFFFFFFFFFFFFFF DUP5 DUP5 PUSH3 0x7DD JUMP JUMPDEST SWAP1 POP SWAP3 SWAP2 POP POP JUMP JUMPDEST PUSH1 0x0 DUP3 PUSH3 0x7EF JUMPI PUSH1 0x1 SWAP1 POP PUSH3 0x8C2 JUMP JUMPDEST DUP2 PUSH3 0x7FF JUMPI PUSH1 0x0 SWAP1 POP PUSH3 0x8C2 JUMP JUMPDEST DUP2 PUSH1 0x1 DUP2 EQ PUSH3 0x818 JUMPI PUSH1 0x2 DUP2 EQ PUSH3 0x823 JUMPI PUSH3 0x859 JUMP JUMPDEST PUSH1 0x1 SWAP2 POP POP PUSH3 0x8C2 JUMP JUMPDEST PUSH1 0xFF DUP5 GT ISZERO PUSH3 0x838 JUMPI PUSH3 0x837 PUSH3 0x9AB JUMP JUMPDEST JUMPDEST DUP4 PUSH1 0x2 EXP SWAP2 POP DUP5 DUP3 GT ISZERO PUSH3 0x852 JUMPI PUSH3 0x851 PUSH3 0x9AB JUMP JUMPDEST JUMPDEST POP PUSH3 0x8C2 JUMP JUMPDEST POP PUSH1 0x20 DUP4 LT PUSH2 0x133 DUP4 LT AND PUSH1 0x4E DUP5 LT PUSH1 0xB DUP5 LT AND OR ISZERO PUSH3 0x893 JUMPI DUP3 DUP3 EXP SWAP1 POP DUP4 DUP2 GT ISZERO PUSH3 0x88D JUMPI PUSH3 0x88C PUSH3 0x9AB JUMP JUMPDEST JUMPDEST PUSH3 0x8C2 JUMP JUMPDEST PUSH3 0x8A2 DUP5 DUP5 DUP5 PUSH1 0x1 PUSH3 0x731 JUMP JUMPDEST SWAP3 POP SWAP1 POP DUP2 DUP5 DIV DUP2 GT ISZERO PUSH3 0x8BC JUMPI PUSH3 0x8BB PUSH3 0x9AB JUMP JUMPDEST JUMPDEST DUP2 DUP2 MUL SWAP1 POP JUMPDEST SWAP4 SWAP3 POP POP POP JUMP JUMPDEST PUSH1 0x0 PUSH3 0x8D6 DUP3 PUSH3 0x95E JUMP JUMPDEST SWAP2 POP PUSH3 0x8E3 DUP4 PUSH3 0x95E JUMP JUMPDEST SWAP3 POP DUP2 PUSH32 0xFFFFFFFFFFFFFFFFFFFFFFFFFFFFFFFFFFFFFFFFFFFFFFFFFFFFFFFFFFFFFFFF DIV DUP4 GT DUP3 ISZERO ISZERO AND ISZERO PUSH3 0x91F JUMPI PUSH3 0x91E PUSH3 0x9AB JUMP JUMPDEST JUMPDEST DUP3 DUP3 MUL SWAP1 POP SWAP3 SWAP2 POP POP JUMP JUMPDEST PUSH1 0x0 PUSH3 0x937 DUP3 PUSH3 0x93E JUMP JUMPDEST SWAP1 POP SWAP2 SWAP1 POP JUMP JUMPDEST PUSH1 0x0 PUSH20 0xFFFFFFFFFFFFFFFFFFFFFFFFFFFFFFFFFFFFFFFF DUP3 AND SWAP1 POP SWAP2 SWAP1 POP JUMP JUMPDEST PUSH1 0x0 DUP2 SWAP1 POP SWAP2 SWAP1 POP JUMP JUMPDEST PUSH1 0x0 PUSH1 0xFF DUP3 AND SWAP1 POP SWAP2 SWAP1 POP JUMP JUMPDEST PUSH1 0x0 PUSH1 0x2 DUP3 DIV SWAP1 POP PUSH1 0x1 DUP3 AND DUP1 PUSH3 0x98E JUMPI PUSH1 0x7F DUP3 AND SWAP2 POP JUMPDEST PUSH1 0x20 DUP3 LT DUP2 EQ ISZERO PUSH3 0x9A5 JUMPI PUSH3 0x9A4 PUSH3 0x9DA JUMP JUMPDEST JUMPDEST POP SWAP2 SWAP1 POP JUMP JUMPDEST PUSH32 0x4E487B7100000000000000000000000000000000000000000000000000000000 PUSH1 0x0 MSTORE PUSH1 0x11 PUSH1 0x4 MSTORE PUSH1 0x24 PUSH1 0x0 REVERT JUMPDEST PUSH32 0x4E487B7100000000000000000000000000000000000000000000000000000000 PUSH1 0x0 MSTORE PUSH1 0x22 PUSH1 0x4 MSTORE PUSH1 0x24 PUSH1 0x0 REVERT JUMPDEST PUSH1 0x0 DUP1 REVERT JUMPDEST PUSH1 0x0 DUP2 PUSH1 0x1 SHR SWAP1 POP SWAP2 SWAP1 POP JUMP JUMPDEST PUSH32 0x5061757361626C653A2070617573656400000000000000000000000000000000 PUSH1 0x0 DUP3 ADD MSTORE POP JUMP JUMPDEST PUSH32 0x45524332303A206D696E7420746F20746865207A65726F206164647265737300 PUSH1 0x0 DUP3 ADD MSTORE POP JUMP JUMPDEST PUSH3 0xA78 DUP2 PUSH3 0x92A JUMP JUMPDEST DUP2 EQ PUSH3 0xA84 JUMPI PUSH1 0x0 DUP1 REVERT JUMPDEST POP JUMP JUMPDEST PUSH2 0x2296 DUP1 PUSH3 0xA97 PUSH1 0x0 CODECOPY PUSH1 0x0 RETURN INVALID PUSH1 0x80 PUSH1 0x40 MSTORE CALLVALUE DUP1 ISZERO PUSH2 0x10 JUMPI PUSH1 0x0 DUP1 REVERT JUMPDEST POP PUSH1 0x4 CALLDATASIZE LT PUSH2 0x142 JUMPI PUSH1 0x0 CALLDATALOAD PUSH1 0xE0 SHR DUP1 PUSH4 0x5C975ABB GT PUSH2 0xB8 JUMPI DUP1 PUSH4 0xA217FDDF GT PUSH2 0x7C JUMPI DUP1 PUSH4 0xA217FDDF EQ PUSH2 0x379 JUMPI DUP1 PUSH4 0xA457C2D7 EQ PUSH2 0x397 JUMPI DUP1 PUSH4 0xA9059CBB EQ PUSH2 0x3C7 JUMPI DUP1 PUSH4 0xD547741F EQ PUSH2 0x3F7 JUMPI DUP1 PUSH4 0xDD62ED3E EQ PUSH2 0x413 JUMPI DUP1 PUSH4 0xE63AB1E9 EQ PUSH2 0x443 JUMPI PUSH2 0x142 JUMP JUMPDEST DUP1 PUSH4 0x5C975ABB EQ PUSH2 0x2D3 JUMPI DUP1 PUSH4 0x70A08231 EQ PUSH2 0x2F1 JUMPI DUP1 PUSH4 0x8456CB59 EQ PUSH2 0x321 JUMPI DUP1 PUSH4 0x91D14854 EQ PUSH2 0x32B JUMPI DUP1 PUSH4 0x95D89B41 EQ PUSH2 0x35B JUMPI PUSH2 0x142 JUMP JUMPDEST DUP1 PUSH4 0x248A9CA3 GT PUSH2 0x10A JUMPI DUP1 PUSH4 0x248A9CA3 EQ PUSH2 0x213 JUMPI DUP1 PUSH4 0x2F2FF15D EQ PUSH2 0x243 JUMPI DUP1 PUSH4 0x313CE567 EQ PUSH2 0x25F JUMPI DUP1 PUSH4 0x36568ABE EQ PUSH2 0x27D JUMPI DUP1 PUSH4 0x39509351 EQ PUSH2 0x299 JUMPI DUP1 PUSH4 0x3F4BA83A EQ PUSH2 0x2C9 JUMPI PUSH2 0x142 JUMP JUMPDEST DUP1 PUSH4 0x1FFC9A7 EQ PUSH2 0x147 JUMPI DUP1 PUSH4 0x6FDDE03 EQ PUSH2 0x177 JUMPI DUP1 PUSH4 0x95EA7B3 EQ PUSH2 0x195 JUMPI DUP1 PUSH4 0x18160DDD EQ PUSH2 0x1C5 JUMPI DUP1 PUSH4 0x23B872DD EQ PUSH2 0x1E3 JUMPI JUMPDEST PUSH1 0x0 DUP1 REVERT JUMPDEST PUSH2 0x161 PUSH1 0x4 DUP1 CALLDATASIZE SUB DUP2 ADD SWAP1 PUSH2 0x15C SWAP2 SWAP1 PUSH2 0x1736 JUMP JUMPDEST PUSH2 0x461 JUMP JUMPDEST PUSH1 0x40 MLOAD PUSH2 0x16E SWAP2 SWAP1 PUSH2 0x1A34 JUMP JUMPDEST PUSH1 0x40 MLOAD DUP1 SWAP2 SUB SWAP1 RETURN JUMPDEST PUSH2 0x17F PUSH2 0x4DB JUMP JUMPDEST PUSH1 0x40 MLOAD PUSH2 0x18C SWAP2 SWAP1 PUSH2 0x1A6A JUMP JUMPDEST PUSH1 0x40 MLOAD DUP1 SWAP2 SUB SWAP1 RETURN JUMPDEST PUSH2 0x1AF PUSH1 0x4 DUP1 CALLDATASIZE SUB DUP2 ADD SWAP1 PUSH2 0x1AA SWAP2 SWAP1 PUSH2 0x1689 JUMP JUMPDEST PUSH2 0x56D JUMP JUMPDEST PUSH1 0x40 MLOAD PUSH2 0x1BC SWAP2 SWAP1 PUSH2 0x1A34 JUMP JUMPDEST PUSH1 0x40 MLOAD DUP1 SWAP2 SUB SWAP1 RETURN JUMPDEST PUSH2 0x1CD PUSH2 0x590 JUMP JUMPDEST PUSH1 0x40 MLOAD PUSH2 0x1DA SWAP2 SWAP1 PUSH2 0x1BEC JUMP JUMPDEST PUSH1 0x40 MLOAD DUP1 SWAP2 SUB SWAP1 RETURN JUMPDEST PUSH2 0x1FD PUSH1 0x4 DUP1 CALLDATASIZE SUB DUP2 ADD SWAP1 PUSH2 0x1F8 SWAP2 SWAP1 PUSH2 0x1636 JUMP JUMPDEST PUSH2 0x59A JUMP JUMPDEST PUSH1 0x40 MLOAD PUSH2 0x20A SWAP2 SWAP1 PUSH2 0x1A34 JUMP JUMPDEST PUSH1 0x40 MLOAD DUP1 SWAP2 SUB SWAP1 RETURN JUMPDEST PUSH2 0x22D PUSH1 0x4 DUP1 CALLDATASIZE SUB DUP2 ADD SWAP1 PUSH2 0x228 SWAP2 SWAP1 PUSH2 0x16C9 JUMP JUMPDEST PUSH2 0x5C9 JUMP JUMPDEST PUSH1 0x40 MLOAD PUSH2 0x23A SWAP2 SWAP1 PUSH2 0x1A4F JUMP JUMPDEST PUSH1 0x40 MLOAD DUP1 SWAP2 SUB SWAP1 RETURN JUMPDEST PUSH2 0x25D PUSH1 0x4 DUP1 CALLDATASIZE SUB DUP2 ADD SWAP1 PUSH2 0x258 SWAP2 SWAP1 PUSH2 0x16F6 JUMP JUMPDEST PUSH2 0x5E9 JUMP JUMPDEST STOP JUMPDEST PUSH2 0x267 PUSH2 0x60A JUMP JUMPDEST PUSH1 0x40 MLOAD PUSH2 0x274 SWAP2 SWAP1 PUSH2 0x1C07 JUMP JUMPDEST PUSH1 0x40 MLOAD DUP1 SWAP2 SUB SWAP1 RETURN JUMPDEST PUSH2 0x297 PUSH1 0x4 DUP1 CALLDATASIZE SUB DUP2 ADD SWAP1 PUSH2 0x292 SWAP2 SWAP1 PUSH2 0x16F6 JUMP JUMPDEST PUSH2 0x613 JUMP JUMPDEST STOP JUMPDEST PUSH2 0x2B3 PUSH1 0x4 DUP1 CALLDATASIZE SUB DUP2 ADD SWAP1 PUSH2 0x2AE SWAP2 SWAP1 PUSH2 0x1689 JUMP JUMPDEST PUSH2 0x696 JUMP JUMPDEST PUSH1 0x40 MLOAD PUSH2 0x2C0 SWAP2 SWAP1 PUSH2 0x1A34 JUMP JUMPDEST PUSH1 0x40 MLOAD DUP1 SWAP2 SUB SWAP1 RETURN JUMPDEST PUSH2 0x2D1 PUSH2 0x6CD JUMP JUMPDEST STOP JUMPDEST PUSH2 0x2DB PUSH2 0x702 JUMP JUMPDEST PUSH1 0x40 MLOAD PUSH2 0x2E8 SWAP2 SWAP1 PUSH2 0x1A34 JUMP JUMPDEST PUSH1 0x40 MLOAD DUP1 SWAP2 SUB SWAP1 RETURN JUMPDEST PUSH2 0x30B PUSH1 0x4 DUP1 CALLDATASIZE SUB DUP2 ADD SWAP1 PUSH2 0x306 SWAP2 SWAP1 PUSH2 0x15C9 JUMP JUMPDEST PUSH2 0x719 JUMP JUMPDEST PUSH1 0x40 MLOAD PUSH2 0x318 SWAP2 SWAP1 PUSH2 0x1BEC JUMP JUMPDEST PUSH1 0x40 MLOAD DUP1 SWAP2 SUB SWAP1 RETURN JUMPDEST PUSH2 0x329 PUSH2 0x761 JUMP JUMPDEST STOP JUMPDEST PUSH2 0x345 PUSH1 0x4 DUP1 CALLDATASIZE SUB DUP2 ADD SWAP1 PUSH2 0x340 SWAP2 SWAP1 PUSH2 0x16F6 JUMP JUMPDEST PUSH2 0x796 JUMP JUMPDEST PUSH1 0x40 MLOAD PUSH2 0x352 SWAP2 SWAP1 PUSH2 0x1A34 JUMP JUMPDEST PUSH1 0x40 MLOAD DUP1 SWAP2 SUB SWAP1 RETURN JUMPDEST PUSH2 0x363 PUSH2 0x801 JUMP JUMPDEST PUSH1 0x40 MLOAD PUSH2 0x370 SWAP2 SWAP1 PUSH2 0x1A6A JUMP JUMPDEST PUSH1 0x40 MLOAD DUP1 SWAP2 SUB SWAP1 RETURN JUMPDEST PUSH2 0x381 PUSH2 0x893 JUMP JUMPDEST PUSH1 0x40 MLOAD PUSH2 0x38E SWAP2 SWAP1 PUSH2 0x1A4F JUMP JUMPDEST PUSH1 0x40 MLOAD DUP1 SWAP2 SUB SWAP1 RETURN JUMPDEST PUSH2 0x3B1 PUSH1 0x4 DUP1 CALLDATASIZE SUB DUP2 ADD SWAP1 PUSH2 0x3AC SWAP2 SWAP1 PUSH2 0x1689 JUMP JUMPDEST PUSH2 0x89A JUMP JUMPDEST PUSH1 0x40 MLOAD PUSH2 0x3BE SWAP2 SWAP1 PUSH2 0x1A34 JUMP JUMPDEST PUSH1 0x40 MLOAD DUP1 SWAP2 SUB SWAP1 RETURN JUMPDEST PUSH2 0x3E1 PUSH1 0x4 DUP1 CALLDATASIZE SUB DUP2 ADD SWAP1 PUSH2 0x3DC SWAP2 SWAP1 PUSH2 0x1689 JUMP JUMPDEST PUSH2 0x911 JUMP JUMPDEST PUSH1 0x40 MLOAD PUSH2 0x3EE SWAP2 SWAP1 PUSH2 0x1A34 JUMP JUMPDEST PUSH1 0x40 MLOAD DUP1 SWAP2 SUB SWAP1 RETURN JUMPDEST PUSH2 0x411 PUSH1 0x4 DUP1 CALLDATASIZE SUB DUP2 ADD SWAP1 PUSH2 0x40C SWAP2 SWAP1 PUSH2 0x16F6 JUMP JUMPDEST PUSH2 0x934 JUMP JUMPDEST STOP JUMPDEST PUSH2 0x42D PUSH1 0x4 DUP1 CALLDATASIZE SUB DUP2 ADD SWAP1 PUSH2 0x428 SWAP2 SWAP1 PUSH2 0x15F6 JUMP JUMPDEST PUSH2 0x955 JUMP JUMPDEST PUSH1 0x40 MLOAD PUSH2 0x43A SWAP2 SWAP1 PUSH2 0x1BEC JUMP JUMPDEST PUSH1 0x40 MLOAD DUP1 SWAP2 SUB SWAP1 RETURN JUMPDEST PUSH2 0x44B PUSH2 0x9DC JUMP JUMPDEST PUSH1 0x40 MLOAD PUSH2 0x458 SWAP2 SWAP1 PUSH2 0x1A4F JUMP JUMPDEST PUSH1 0x40 MLOAD DUP1 SWAP2 SUB SWAP1 RETURN JUMPDEST PUSH1 0x0 PUSH32 0x7965DB0B00000000000000000000000000000000000000000000000000000000 PUSH28 0xFFFFFFFFFFFFFFFFFFFFFFFFFFFFFFFFFFFFFFFFFFFFFFFFFFFFFFFF NOT AND DUP3 PUSH28 0xFFFFFFFFFFFFFFFFFFFFFFFFFFFFFFFFFFFFFFFFFFFFFFFFFFFFFFFF NOT AND EQ DUP1 PUSH2 0x4D4 JUMPI POP PUSH2 0x4D3 DUP3 PUSH2 0xA05 JUMP JUMPDEST JUMPDEST SWAP1 POP SWAP2 SWAP1 POP JUMP JUMPDEST PUSH1 0x60 PUSH1 0x3 DUP1 SLOAD PUSH2 0x4EA SWAP1 PUSH2 0x1DE1 JUMP JUMPDEST DUP1 PUSH1 0x1F ADD PUSH1 0x20 DUP1 SWAP2 DIV MUL PUSH1 0x20 ADD PUSH1 0x40 MLOAD SWAP1 DUP2 ADD PUSH1 0x40 MSTORE DUP1 SWAP3 SWAP2 SWAP1 DUP2 DUP2 MSTORE PUSH1 0x20 ADD DUP3 DUP1 SLOAD PUSH2 0x516 SWAP1 PUSH2 0x1DE1 JUMP JUMPDEST DUP1 ISZERO PUSH2 0x563 JUMPI DUP1 PUSH1 0x1F LT PUSH2 0x538 JUMPI PUSH2 0x100 DUP1 DUP4 SLOAD DIV MUL DUP4 MSTORE SWAP2 PUSH1 0x20 ADD SWAP2 PUSH2 0x563 JUMP JUMPDEST DUP3 ADD SWAP2 SWAP1 PUSH1 0x0 MSTORE PUSH1 0x20 PUSH1 0x0 KECCAK256 SWAP1 JUMPDEST DUP2 SLOAD DUP2 MSTORE SWAP1 PUSH1 0x1 ADD SWAP1 PUSH1 0x20 ADD DUP1 DUP4 GT PUSH2 0x546 JUMPI DUP3 SWAP1 SUB PUSH1 0x1F AND DUP3 ADD SWAP2 JUMPDEST POP POP POP POP POP SWAP1 POP SWAP1 JUMP JUMPDEST PUSH1 0x0 DUP1 PUSH2 0x578 PUSH2 0xA6F JUMP JUMPDEST SWAP1 POP PUSH2 0x585 DUP2 DUP6 DUP6 PUSH2 0xA77 JUMP JUMPDEST PUSH1 0x1 SWAP2 POP POP SWAP3 SWAP2 POP POP JUMP JUMPDEST PUSH1 0x0 PUSH1 0x2 SLOAD SWAP1 POP SWAP1 JUMP JUMPDEST PUSH1 0x0 DUP1 PUSH2 0x5A5 PUSH2 0xA6F JUMP JUMPDEST SWAP1 POP PUSH2 0x5B2 DUP6 DUP3 DUP6 PUSH2 0xC42 JUMP JUMPDEST PUSH2 0x5BD DUP6 DUP6 DUP6 PUSH2 0xCCE JUMP JUMPDEST PUSH1 0x1 SWAP2 POP POP SWAP4 SWAP3 POP POP POP JUMP JUMPDEST PUSH1 0x0 PUSH1 0x6 PUSH1 0x0 DUP4 DUP2 MSTORE PUSH1 0x20 ADD SWAP1 DUP2 MSTORE PUSH1 0x20 ADD PUSH1 0x0 KECCAK256 PUSH1 0x1 ADD SLOAD SWAP1 POP SWAP2 SWAP1 POP JUMP JUMPDEST PUSH2 0x5F2 DUP3 PUSH2 0x5C9 JUMP JUMPDEST PUSH2 0x5FB DUP2 PUSH2 0xF4F JUMP JUMPDEST PUSH2 0x605 DUP4 DUP4 PUSH2 0xF63 JUMP JUMPDEST POP POP POP JUMP JUMPDEST PUSH1 0x0 PUSH1 0x12 SWAP1 POP SWAP1 JUMP JUMPDEST PUSH2 0x61B PUSH2 0xA6F JUMP JUMPDEST PUSH20 0xFFFFFFFFFFFFFFFFFFFFFFFFFFFFFFFFFFFFFFFF AND DUP2 PUSH20 0xFFFFFFFFFFFFFFFFFFFFFFFFFFFFFFFFFFFFFFFF AND EQ PUSH2 0x688 JUMPI PUSH1 0x40 MLOAD PUSH32 0x8C379A000000000000000000000000000000000000000000000000000000000 DUP2 MSTORE PUSH1 0x4 ADD PUSH2 0x67F SWAP1 PUSH2 0x1BCC JUMP JUMPDEST PUSH1 0x40 MLOAD DUP1 SWAP2 SUB SWAP1 REVERT JUMPDEST PUSH2 0x692 DUP3 DUP3 PUSH2 0x1044 JUMP JUMPDEST POP POP JUMP JUMPDEST PUSH1 0x0 DUP1 PUSH2 0x6A1 PUSH2 0xA6F JUMP JUMPDEST SWAP1 POP PUSH2 0x6C2 DUP2 DUP6 DUP6 PUSH2 0x6B3 DUP6 DUP10 PUSH2 0x955 JUMP JUMPDEST PUSH2 0x6BD SWAP2 SWAP1 PUSH2 0x1C49 JUMP JUMPDEST PUSH2 0xA77 JUMP JUMPDEST PUSH1 0x1 SWAP2 POP POP SWAP3 SWAP2 POP POP JUMP JUMPDEST PUSH32 0x65D7A28E3265B37A6474929F336521B332C1681B933F6CB9F3376673440D862A PUSH2 0x6F7 DUP2 PUSH2 0xF4F JUMP JUMPDEST PUSH2 0x6FF PUSH2 0x1126 JUMP JUMPDEST POP JUMP JUMPDEST PUSH1 0x0 PUSH1 0x5 PUSH1 0x0 SWAP1 SLOAD SWAP1 PUSH2 0x100 EXP SWAP1 DIV PUSH1 0xFF AND SWAP1 POP SWAP1 JUMP JUMPDEST PUSH1 0x0 DUP1 PUSH1 0x0 DUP4 PUSH20 0xFFFFFFFFFFFFFFFFFFFFFFFFFFFFFFFFFFFFFFFF AND PUSH20 0xFFFFFFFFFFFFFFFFFFFFFFFFFFFFFFFFFFFFFFFF AND DUP2 MSTORE PUSH1 0x20 ADD SWAP1 DUP2 MSTORE PUSH1 0x20 ADD PUSH1 0x0 KECCAK256 SLOAD SWAP1 POP SWAP2 SWAP1 POP JUMP JUMPDEST PUSH32 0x65D7A28E3265B37A6474929F336521B332C1681B933F6CB9F3376673440D862A PUSH2 0x78B DUP2 PUSH2 0xF4F JUMP JUMPDEST PUSH2 0x793 PUSH2 0x1189 JUMP JUMPDEST POP JUMP JUMPDEST PUSH1 0x0 PUSH1 0x6 PUSH1 0x0 DUP5 DUP2 MSTORE PUSH1 0x20 ADD SWAP1 DUP2 MSTORE PUSH1 0x20 ADD PUSH1 0x0 KECCAK256 PUSH1 0x0 ADD PUSH1 0x0 DUP4 PUSH20 0xFFFFFFFFFFFFFFFFFFFFFFFFFFFFFFFFFFFFFFFF AND PUSH20 0xFFFFFFFFFFFFFFFFFFFFFFFFFFFFFFFFFFFFFFFF AND DUP2 MSTORE PUSH1 0x20 ADD SWAP1 DUP2 MSTORE PUSH1 0x20 ADD PUSH1 0x0 KECCAK256 PUSH1 0x0 SWAP1 SLOAD SWAP1 PUSH2 0x100 EXP SWAP1 DIV PUSH1 0xFF AND SWAP1 POP SWAP3 SWAP2 POP POP JUMP JUMPDEST PUSH1 0x60 PUSH1 0x4 DUP1 SLOAD PUSH2 0x810 SWAP1 PUSH2 0x1DE1 JUMP JUMPDEST DUP1 PUSH1 0x1F ADD PUSH1 0x20 DUP1 SWAP2 DIV MUL PUSH1 0x20 ADD PUSH1 0x40 MLOAD SWAP1 DUP2 ADD PUSH1 0x40 MSTORE DUP1 SWAP3 SWAP2 SWAP1 DUP2 DUP2 MSTORE PUSH1 0x20 ADD DUP3 DUP1 SLOAD PUSH2 0x83C SWAP1 PUSH2 0x1DE1 JUMP JUMPDEST DUP1 ISZERO PUSH2 0x889 JUMPI DUP1 PUSH1 0x1F LT PUSH2 0x85E JUMPI PUSH2 0x100 DUP1 DUP4 SLOAD DIV MUL DUP4 MSTORE SWAP2 PUSH1 0x20 ADD SWAP2 PUSH2 0x889 JUMP JUMPDEST DUP3 ADD SWAP2 SWAP1 PUSH1 0x0 MSTORE PUSH1 0x20 PUSH1 0x0 KECCAK256 SWAP1 JUMPDEST DUP2 SLOAD DUP2 MSTORE SWAP1 PUSH1 0x1 ADD SWAP1 PUSH1 0x20 ADD DUP1 DUP4 GT PUSH2 0x86C JUMPI DUP3 SWAP1 SUB PUSH1 0x1F AND DUP3 ADD SWAP2 JUMPDEST POP POP POP POP POP SWAP1 POP SWAP1 JUMP JUMPDEST PUSH1 0x0 DUP1 SHL DUP2 JUMP JUMPDEST PUSH1 0x0 DUP1 PUSH2 0x8A5 PUSH2 0xA6F JUMP JUMPDEST SWAP1 POP PUSH1 0x0 PUSH2 0x8B3 DUP3 DUP7 PUSH2 0x955 JUMP JUMPDEST SWAP1 POP DUP4 DUP2 LT ISZERO PUSH2 0x8F8 JUMPI PUSH1 0x40 MLOAD PUSH32 0x8C379A000000000000000000000000000000000000000000000000000000000 DUP2 MSTORE PUSH1 0x4 ADD PUSH2 0x8EF SWAP1 PUSH2 0x1BAC JUMP JUMPDEST PUSH1 0x40 MLOAD DUP1 SWAP2 SUB SWAP1 REVERT JUMPDEST PUSH2 0x905 DUP3 DUP7 DUP7 DUP5 SUB PUSH2 0xA77 JUMP JUMPDEST PUSH1 0x1 SWAP3 POP POP POP SWAP3 SWAP2 POP POP JUMP JUMPDEST PUSH1 0x0 DUP1 PUSH2 0x91C PUSH2 0xA6F JUMP JUMPDEST SWAP1 POP PUSH2 0x929 DUP2 DUP6 DUP6 PUSH2 0xCCE JUMP JUMPDEST PUSH1 0x1 SWAP2 POP POP SWAP3 SWAP2 POP POP JUMP JUMPDEST PUSH2 0x93D DUP3 PUSH2 0x5C9 JUMP JUMPDEST PUSH2 0x946 DUP2 PUSH2 0xF4F JUMP JUMPDEST PUSH2 0x950 DUP4 DUP4 PUSH2 0x1044 JUMP JUMPDEST POP POP POP JUMP JUMPDEST PUSH1 0x0 PUSH1 0x1 PUSH1 0x0 DUP5 PUSH20 0xFFFFFFFFFFFFFFFFFFFFFFFFFFFFFFFFFFFFFFFF AND PUSH20 0xFFFFFFFFFFFFFFFFFFFFFFFFFFFFFFFFFFFFFFFF AND DUP2 MSTORE PUSH1 0x20 ADD SWAP1 DUP2 MSTORE PUSH1 0x20 ADD PUSH1 0x0 KECCAK256 PUSH1 0x0 DUP4 PUSH20 0xFFFFFFFFFFFFFFFFFFFFFFFFFFFFFFFFFFFFFFFF AND PUSH20 0xFFFFFFFFFFFFFFFFFFFFFFFFFFFFFFFFFFFFFFFF AND DUP2 MSTORE PUSH1 0x20 ADD SWAP1 DUP2 MSTORE PUSH1 0x20 ADD PUSH1 0x0 KECCAK256 SLOAD SWAP1 POP SWAP3 SWAP2 POP POP JUMP JUMPDEST PUSH32 0x65D7A28E3265B37A6474929F336521B332C1681B933F6CB9F3376673440D862A DUP2 JUMP JUMPDEST POP POP POP JUMP JUMPDEST PUSH1 0x0 PUSH32 0x1FFC9A700000000000000000000000000000000000000000000000000000000 PUSH28 0xFFFFFFFFFFFFFFFFFFFFFFFFFFFFFFFFFFFFFFFFFFFFFFFFFFFFFFFF NOT AND DUP3 PUSH28 0xFFFFFFFFFFFFFFFFFFFFFFFFFFFFFFFFFFFFFFFFFFFFFFFFFFFFFFFF NOT AND EQ SWAP1 POP SWAP2 SWAP1 POP JUMP JUMPDEST PUSH1 0x0 CALLER SWAP1 POP SWAP1 JUMP JUMPDEST PUSH1 0x0 PUSH20 0xFFFFFFFFFFFFFFFFFFFFFFFFFFFFFFFFFFFFFFFF AND DUP4 PUSH20 0xFFFFFFFFFFFFFFFFFFFFFFFFFFFFFFFFFFFFFFFF AND EQ ISZERO PUSH2 0xAE7 JUMPI PUSH1 0x40 MLOAD PUSH32 0x8C379A000000000000000000000000000000000000000000000000000000000 DUP2 MSTORE PUSH1 0x4 ADD PUSH2 0xADE SWAP1 PUSH2 0x1B8C JUMP JUMPDEST PUSH1 0x40 MLOAD DUP1 SWAP2 SUB SWAP1 REVERT JUMPDEST PUSH1 0x0 PUSH20 0xFFFFFFFFFFFFFFFFFFFFFFFFFFFFFFFFFFFFFFFF AND DUP3 PUSH20 0xFFFFFFFFFFFFFFFFFFFFFFFFFFFFFFFFFFFFFFFF AND EQ ISZERO PUSH2 0xB57 JUMPI PUSH1 0x40 MLOAD PUSH32 0x8C379A000000000000000000000000000000000000000000000000000000000 DUP2 MSTORE PUSH1 0x4 ADD PUSH2 0xB4E SWAP1 PUSH2 0x1AEC JUMP JUMPDEST PUSH1 0x40 MLOAD DUP1 SWAP2 SUB SWAP1 REVERT JUMPDEST DUP1 PUSH1 0x1 PUSH1 0x0 DUP6 PUSH20 0xFFFFFFFFFFFFFFFFFFFFFFFFFFFFFFFFFFFFFFFF AND PUSH20 0xFFFFFFFFFFFFFFFFFFFFFFFFFFFFFFFFFFFFFFFF AND DUP2 MSTORE PUSH1 0x20 ADD SWAP1 DUP2 MSTORE PUSH1 0x20 ADD PUSH1 0x0 KECCAK256 PUSH1 0x0 DUP5 PUSH20 0xFFFFFFFFFFFFFFFFFFFFFFFFFFFFFFFFFFFFFFFF AND PUSH20 0xFFFFFFFFFFFFFFFFFFFFFFFFFFFFFFFFFFFFFFFF AND DUP2 MSTORE PUSH1 0x20 ADD SWAP1 DUP2 MSTORE PUSH1 0x20 ADD PUSH1 0x0 KECCAK256 DUP2 SWAP1 SSTORE POP DUP2 PUSH20 0xFFFFFFFFFFFFFFFFFFFFFFFFFFFFFFFFFFFFFFFF AND DUP4 PUSH20 0xFFFFFFFFFFFFFFFFFFFFFFFFFFFFFFFFFFFFFFFF AND PUSH32 0x8C5BE1E5EBEC7D5BD14F71427D1E84F3DD0314C0F7B2291E5B200AC8C7C3B925 DUP4 PUSH1 0x40 MLOAD PUSH2 0xC35 SWAP2 SWAP1 PUSH2 0x1BEC JUMP JUMPDEST PUSH1 0x40 MLOAD DUP1 SWAP2 SUB SWAP1 LOG3 POP POP POP JUMP JUMPDEST PUSH1 0x0 PUSH2 0xC4E DUP5 DUP5 PUSH2 0x955 JUMP JUMPDEST SWAP1 POP PUSH32 0xFFFFFFFFFFFFFFFFFFFFFFFFFFFFFFFFFFFFFFFFFFFFFFFFFFFFFFFFFFFFFFFF DUP2 EQ PUSH2 0xCC8 JUMPI DUP2 DUP2 LT ISZERO PUSH2 0xCBA JUMPI PUSH1 0x40 MLOAD PUSH32 0x8C379A000000000000000000000000000000000000000000000000000000000 DUP2 MSTORE PUSH1 0x4 ADD PUSH2 0xCB1 SWAP1 PUSH2 0x1B0C JUMP JUMPDEST PUSH1 0x40 MLOAD DUP1 SWAP2 SUB SWAP1 REVERT JUMPDEST PUSH2 0xCC7 DUP5 DUP5 DUP5 DUP5 SUB PUSH2 0xA77 JUMP JUMPDEST JUMPDEST POP POP POP POP JUMP JUMPDEST PUSH1 0x0 PUSH20 0xFFFFFFFFFFFFFFFFFFFFFFFFFFFFFFFFFFFFFFFF AND DUP4 PUSH20 0xFFFFFFFFFFFFFFFFFFFFFFFFFFFFFFFFFFFFFFFF AND EQ ISZERO PUSH2 0xD3E JUMPI PUSH1 0x40 MLOAD PUSH32 0x8C379A000000000000000000000000000000000000000000000000000000000 DUP2 MSTORE PUSH1 0x4 ADD PUSH2 0xD35 SWAP1 PUSH2 0x1B6C JUMP JUMPDEST PUSH1 0x40 MLOAD DUP1 SWAP2 SUB SWAP1 REVERT JUMPDEST PUSH1 0x0 PUSH20 0xFFFFFFFFFFFFFFFFFFFFFFFFFFFFFFFFFFFFFFFF AND DUP3 PUSH20 0xFFFFFFFFFFFFFFFFFFFFFFFFFFFFFFFFFFFFFFFF AND EQ ISZERO PUSH2 0xDAE JUMPI PUSH1 0x40 MLOAD PUSH32 0x8C379A000000000000000000000000000000000000000000000000000000000 DUP2 MSTORE PUSH1 0x4 ADD PUSH2 0xDA5 SWAP1 PUSH2 0x1AAC JUMP JUMPDEST PUSH1 0x40 MLOAD DUP1 SWAP2 SUB SWAP1 REVERT JUMPDEST PUSH2 0xDB9 DUP4 DUP4 DUP4 PUSH2 0x11EC JUMP JUMPDEST PUSH1 0x0 DUP1 PUSH1 0x0 DUP6 PUSH20 0xFFFFFFFFFFFFFFFFFFFFFFFFFFFFFFFFFFFFFFFF AND PUSH20 0xFFFFFFFFFFFFFFFFFFFFFFFFFFFFFFFFFFFFFFFF AND DUP2 MSTORE PUSH1 0x20 ADD SWAP1 DUP2 MSTORE PUSH1 0x20 ADD PUSH1 0x0 KECCAK256 SLOAD SWAP1 POP DUP2 DUP2 LT ISZERO PUSH2 0xE3F JUMPI PUSH1 0x40 MLOAD PUSH32 0x8C379A000000000000000000000000000000000000000000000000000000000 DUP2 MSTORE PUSH1 0x4 ADD PUSH2 0xE36 SWAP1 PUSH2 0x1B2C JUMP JUMPDEST PUSH1 0x40 MLOAD DUP1 SWAP2 SUB SWAP1 REVERT JUMPDEST DUP2 DUP2 SUB PUSH1 0x0 DUP1 DUP7 PUSH20 0xFFFFFFFFFFFFFFFFFFFFFFFFFFFFFFFFFFFFFFFF AND PUSH20 0xFFFFFFFFFFFFFFFFFFFFFFFFFFFFFFFFFFFFFFFF AND DUP2 MSTORE PUSH1 0x20 ADD SWAP1 DUP2 MSTORE PUSH1 0x20 ADD PUSH1 0x0 KECCAK256 DUP2 SWAP1 SSTORE POP DUP2 PUSH1 0x0 DUP1 DUP6 PUSH20 0xFFFFFFFFFFFFFFFFFFFFFFFFFFFFFFFFFFFFFFFF AND PUSH20 0xFFFFFFFFFFFFFFFFFFFFFFFFFFFFFFFFFFFFFFFF AND DUP2 MSTORE PUSH1 0x20 ADD SWAP1 DUP2 MSTORE PUSH1 0x20 ADD PUSH1 0x0 KECCAK256 PUSH1 0x0 DUP3 DUP3 SLOAD PUSH2 0xED2 SWAP2 SWAP1 PUSH2 0x1C49 JUMP JUMPDEST SWAP3 POP POP DUP2 SWAP1 SSTORE POP DUP3 PUSH20 0xFFFFFFFFFFFFFFFFFFFFFFFFFFFFFFFFFFFFFFFF AND DUP5 PUSH20 0xFFFFFFFFFFFFFFFFFFFFFFFFFFFFFFFFFFFFFFFF AND PUSH32 0xDDF252AD1BE2C89B69C2B068FC378DAA952BA7F163C4A11628F55A4DF523B3EF DUP5 PUSH1 0x40 MLOAD PUSH2 0xF36 SWAP2 SWAP1 PUSH2 0x1BEC JUMP JUMPDEST PUSH1 0x40 MLOAD DUP1 SWAP2 SUB SWAP1 LOG3 PUSH2 0xF49 DUP5 DUP5 DUP5 PUSH2 0x1204 JUMP JUMPDEST POP POP POP POP JUMP JUMPDEST PUSH2 0xF60 DUP2 PUSH2 0xF5B PUSH2 0xA6F JUMP JUMPDEST PUSH2 0x1209 JUMP JUMPDEST POP JUMP JUMPDEST PUSH2 0xF6D DUP3 DUP3 PUSH2 0x796 JUMP JUMPDEST PUSH2 0x1040 JUMPI PUSH1 0x1 PUSH1 0x6 PUSH1 0x0 DUP5 DUP2 MSTORE PUSH1 0x20 ADD SWAP1 DUP2 MSTORE PUSH1 0x20 ADD PUSH1 0x0 KECCAK256 PUSH1 0x0 ADD PUSH1 0x0 DUP4 PUSH20 0xFFFFFFFFFFFFFFFFFFFFFFFFFFFFFFFFFFFFFFFF AND PUSH20 0xFFFFFFFFFFFFFFFFFFFFFFFFFFFFFFFFFFFFFFFF AND DUP2 MSTORE PUSH1 0x20 ADD SWAP1 DUP2 MSTORE PUSH1 0x20 ADD PUSH1 0x0 KECCAK256 PUSH1 0x0 PUSH2 0x100 EXP DUP2 SLOAD DUP2 PUSH1 0xFF MUL NOT AND SWAP1 DUP4 ISZERO ISZERO MUL OR SWAP1 SSTORE POP PUSH2 0xFE5 PUSH2 0xA6F JUMP JUMPDEST PUSH20 0xFFFFFFFFFFFFFFFFFFFFFFFFFFFFFFFFFFFFFFFF AND DUP2 PUSH20 0xFFFFFFFFFFFFFFFFFFFFFFFFFFFFFFFFFFFFFFFF AND DUP4 PUSH32 0x2F8788117E7EFF1D82E926EC794901D17C78024A50270940304540A733656F0D PUSH1 0x40 MLOAD PUSH1 0x40 MLOAD DUP1 SWAP2 SUB SWAP1 LOG4 JUMPDEST POP POP JUMP JUMPDEST PUSH2 0x104E DUP3 DUP3 PUSH2 0x796 JUMP JUMPDEST ISZERO PUSH2 0x1122 JUMPI PUSH1 0x0 PUSH1 0x6 PUSH1 0x0 DUP5 DUP2 MSTORE PUSH1 0x20 ADD SWAP1 DUP2 MSTORE PUSH1 0x20 ADD PUSH1 0x0 KECCAK256 PUSH1 0x0 ADD PUSH1 0x0 DUP4 PUSH20 0xFFFFFFFFFFFFFFFFFFFFFFFFFFFFFFFFFFFFFFFF AND PUSH20 0xFFFFFFFFFFFFFFFFFFFFFFFFFFFFFFFFFFFFFFFF AND DUP2 MSTORE PUSH1 0x20 ADD SWAP1 DUP2 MSTORE PUSH1 0x20 ADD PUSH1 0x0 KECCAK256 PUSH1 0x0 PUSH2 0x100 EXP DUP2 SLOAD DUP2 PUSH1 0xFF MUL NOT AND SWAP1 DUP4 ISZERO ISZERO MUL OR SWAP1 SSTORE POP PUSH2 0x10C7 PUSH2 0xA6F JUMP JUMPDEST PUSH20 0xFFFFFFFFFFFFFFFFFFFFFFFFFFFFFFFFFFFFFFFF AND DUP2 PUSH20 0xFFFFFFFFFFFFFFFFFFFFFFFFFFFFFFFFFFFFFFFF AND DUP4 PUSH32 0xF6391F5C32D9C69D2A47EA670B442974B53935D1EDC7FD64EB21E047A839171B PUSH1 0x40 MLOAD PUSH1 0x40 MLOAD DUP1 SWAP2 SUB SWAP1 LOG4 JUMPDEST POP POP JUMP JUMPDEST PUSH2 0x112E PUSH2 0x12A6 JUMP JUMPDEST PUSH1 0x0 PUSH1 0x5 PUSH1 0x0 PUSH2 0x100 EXP DUP2 SLOAD DUP2 PUSH1 0xFF MUL NOT AND SWAP1 DUP4 ISZERO ISZERO MUL OR SWAP1 SSTORE POP PUSH32 0x5DB9EE0A495BF2E6FF9C91A7834C1BA4FDD244A5E8AA4E537BD38AEAE4B073AA PUSH2 0x1172 PUSH2 0xA6F JUMP JUMPDEST PUSH1 0x40 MLOAD PUSH2 0x117F SWAP2 SWAP1 PUSH2 0x1A19 JUMP JUMPDEST PUSH1 0x40 MLOAD DUP1 SWAP2 SUB SWAP1 LOG1 JUMP JUMPDEST PUSH2 0x1191 PUSH2 0x12EF JUMP JUMPDEST PUSH1 0x1 PUSH1 0x5 PUSH1 0x0 PUSH2 0x100 EXP DUP2 SLOAD DUP2 PUSH1 0xFF MUL NOT AND SWAP1 DUP4 ISZERO ISZERO MUL OR SWAP1 SSTORE POP PUSH32 0x62E78CEA01BEE320CD4E420270B5EA74000D11B0C9F74754EBDBFC544B05A258 PUSH2 0x11D5 PUSH2 0xA6F JUMP JUMPDEST PUSH1 0x40 MLOAD PUSH2 0x11E2 SWAP2 SWAP1 PUSH2 0x1A19 JUMP JUMPDEST PUSH1 0x40 MLOAD DUP1 SWAP2 SUB SWAP1 LOG1 JUMP JUMPDEST PUSH2 0x11F4 PUSH2 0x12EF JUMP JUMPDEST PUSH2 0x11FF DUP4 DUP4 DUP4 PUSH2 0xA00 JUMP JUMPDEST POP POP POP JUMP JUMPDEST POP POP POP JUMP JUMPDEST PUSH2 0x1213 DUP3 DUP3 PUSH2 0x796 JUMP JUMPDEST PUSH2 0x12A2 JUMPI PUSH2 0x1238 DUP2 PUSH20 0xFFFFFFFFFFFFFFFFFFFFFFFFFFFFFFFFFFFFFFFF AND PUSH1 0x14 PUSH2 0x1339 JUMP JUMPDEST PUSH2 0x1246 DUP4 PUSH1 0x0 SHR PUSH1 0x20 PUSH2 0x1339 JUMP JUMPDEST PUSH1 0x40 MLOAD PUSH1 0x20 ADD PUSH2 0x1257 SWAP3 SWAP2 SWAP1 PUSH2 0x19DF JUMP JUMPDEST PUSH1 0x40 MLOAD PUSH1 0x20 DUP2 DUP4 SUB SUB DUP2 MSTORE SWAP1 PUSH1 0x40 MSTORE PUSH1 0x40 MLOAD PUSH32 0x8C379A000000000000000000000000000000000000000000000000000000000 DUP2 MSTORE PUSH1 0x4 ADD PUSH2 0x1299 SWAP2 SWAP1 PUSH2 0x1A6A JUMP JUMPDEST PUSH1 0x40 MLOAD DUP1 SWAP2 SUB SWAP1 REVERT JUMPDEST POP POP JUMP JUMPDEST PUSH2 0x12AE PUSH2 0x702 JUMP JUMPDEST PUSH2 0x12ED JUMPI PUSH1 0x40 MLOAD PUSH32 0x8C379A000000000000000000000000000000000000000000000000000000000 DUP2 MSTORE PUSH1 0x4 ADD PUSH2 0x12E4 SWAP1 PUSH2 0x1ACC JUMP JUMPDEST PUSH1 0x40 MLOAD DUP1 SWAP2 SUB SWAP1 REVERT JUMPDEST JUMP JUMPDEST PUSH2 0x12F7 PUSH2 0x702 JUMP JUMPDEST ISZERO PUSH2 0x1337 JUMPI PUSH1 0x40 MLOAD PUSH32 0x8C379A000000000000000000000000000000000000000000000000000000000 DUP2 MSTORE PUSH1 0x4 ADD PUSH2 0x132E SWAP1 PUSH2 0x1B4C JUMP JUMPDEST PUSH1 0x40 MLOAD DUP1 SWAP2 SUB SWAP1 REVERT JUMPDEST JUMP JUMPDEST PUSH1 0x60 PUSH1 0x0 PUSH1 0x2 DUP4 PUSH1 0x2 PUSH2 0x134C SWAP2 SWAP1 PUSH2 0x1C9F JUMP JUMPDEST PUSH2 0x1356 SWAP2 SWAP1 PUSH2 0x1C49 JUMP JUMPDEST PUSH8 0xFFFFFFFFFFFFFFFF DUP2 GT ISZERO PUSH2 0x136F JUMPI PUSH2 0x136E PUSH2 0x1EA0 JUMP JUMPDEST JUMPDEST PUSH1 0x40 MLOAD SWAP1 DUP1 DUP3 MSTORE DUP1 PUSH1 0x1F ADD PUSH1 0x1F NOT AND PUSH1 0x20 ADD DUP3 ADD PUSH1 0x40 MSTORE DUP1 ISZERO PUSH2 0x13A1 JUMPI DUP2 PUSH1 0x20 ADD PUSH1 0x1 DUP3 MUL DUP1 CALLDATASIZE DUP4 CALLDATACOPY DUP1 DUP3 ADD SWAP2 POP POP SWAP1 POP JUMPDEST POP SWAP1 POP PUSH32 0x3000000000000000000000000000000000000000000000000000000000000000 DUP2 PUSH1 0x0 DUP2 MLOAD DUP2 LT PUSH2 0x13D9 JUMPI PUSH2 0x13D8 PUSH2 0x1E71 JUMP JUMPDEST JUMPDEST PUSH1 0x20 ADD ADD SWAP1 PUSH31 0xFFFFFFFFFFFFFFFFFFFFFFFFFFFFFFFFFFFFFFFFFFFFFFFFFFFFFFFFFFFFFF NOT AND SWAP1 DUP2 PUSH1 0x0 BYTE SWAP1 MSTORE8 POP PUSH32 0x7800000000000000000000000000000000000000000000000000000000000000 DUP2 PUSH1 0x1 DUP2 MLOAD DUP2 LT PUSH2 0x143D JUMPI PUSH2 0x143C PUSH2 0x1E71 JUMP JUMPDEST JUMPDEST PUSH1 0x20 ADD ADD SWAP1 PUSH31 0xFFFFFFFFFFFFFFFFFFFFFFFFFFFFFFFFFFFFFFFFFFFFFFFFFFFFFFFFFFFFFF NOT AND SWAP1 DUP2 PUSH1 0x0 BYTE SWAP1 MSTORE8 POP PUSH1 0x0 PUSH1 0x1 DUP5 PUSH1 0x2 PUSH2 0x147D SWAP2 SWAP1 PUSH2 0x1C9F JUMP JUMPDEST PUSH2 0x1487 SWAP2 SWAP1 PUSH2 0x1C49 JUMP JUMPDEST SWAP1 POP JUMPDEST PUSH1 0x1 DUP2 GT ISZERO PUSH2 0x1527 JUMPI PUSH32 0x3031323334353637383961626364656600000000000000000000000000000000 PUSH1 0xF DUP7 AND PUSH1 0x10 DUP2 LT PUSH2 0x14C9 JUMPI PUSH2 0x14C8 PUSH2 0x1E71 JUMP JUMPDEST JUMPDEST BYTE PUSH1 0xF8 SHL DUP3 DUP3 DUP2 MLOAD DUP2 LT PUSH2 0x14E0 JUMPI PUSH2 0x14DF PUSH2 0x1E71 JUMP JUMPDEST JUMPDEST PUSH1 0x20 ADD ADD SWAP1 PUSH31 0xFFFFFFFFFFFFFFFFFFFFFFFFFFFFFFFFFFFFFFFFFFFFFFFFFFFFFFFFFFFFFF NOT AND SWAP1 DUP2 PUSH1 0x0 BYTE SWAP1 MSTORE8 POP PUSH1 0x4 DUP6 SWAP1 SHR SWAP5 POP DUP1 PUSH2 0x1520 SWAP1 PUSH2 0x1DB7 JUMP JUMPDEST SWAP1 POP PUSH2 0x148A JUMP JUMPDEST POP PUSH1 0x0 DUP5 EQ PUSH2 0x156B JUMPI PUSH1 0x40 MLOAD PUSH32 0x8C379A000000000000000000000000000000000000000000000000000000000 DUP2 MSTORE PUSH1 0x4 ADD PUSH2 0x1562 SWAP1 PUSH2 0x1A8C JUMP JUMPDEST PUSH1 0x40 MLOAD DUP1 SWAP2 SUB SWAP1 REVERT JUMPDEST DUP1 SWAP2 POP POP SWAP3 SWAP2 POP POP JUMP JUMPDEST PUSH1 0x0 DUP2 CALLDATALOAD SWAP1 POP PUSH2 0x1584 DUP2 PUSH2 0x2204 JUMP JUMPDEST SWAP3 SWAP2 POP POP JUMP JUMPDEST PUSH1 0x0 DUP2 CALLDATALOAD SWAP1 POP PUSH2 0x1599 DUP2 PUSH2 0x221B JUMP JUMPDEST SWAP3 SWAP2 POP POP JUMP JUMPDEST PUSH1 0x0 DUP2 CALLDATALOAD SWAP1 POP PUSH2 0x15AE DUP2 PUSH2 0x2232 JUMP JUMPDEST SWAP3 SWAP2 POP POP JUMP JUMPDEST PUSH1 0x0 DUP2 CALLDATALOAD SWAP1 POP PUSH2 0x15C3 DUP2 PUSH2 0x2249 JUMP JUMPDEST SWAP3 SWAP2 POP POP JUMP JUMPDEST PUSH1 0x0 PUSH1 0x20 DUP3 DUP5 SUB SLT ISZERO PUSH2 0x15DF JUMPI PUSH2 0x15DE PUSH2 0x1ECF JUMP JUMPDEST JUMPDEST PUSH1 0x0 PUSH2 0x15ED DUP5 DUP3 DUP6 ADD PUSH2 0x1575 JUMP JUMPDEST SWAP2 POP POP SWAP3 SWAP2 POP POP JUMP JUMPDEST PUSH1 0x0 DUP1 PUSH1 0x40 DUP4 DUP6 SUB SLT ISZERO PUSH2 0x160D JUMPI PUSH2 0x160C PUSH2 0x1ECF JUMP JUMPDEST JUMPDEST PUSH1 0x0 PUSH2 0x161B DUP6 DUP3 DUP7 ADD PUSH2 0x1575 JUMP JUMPDEST SWAP3 POP POP PUSH1 0x20 PUSH2 0x162C DUP6 DUP3 DUP7 ADD PUSH2 0x1575 JUMP JUMPDEST SWAP2 POP POP SWAP3 POP SWAP3 SWAP1 POP JUMP JUMPDEST PUSH1 0x0 DUP1 PUSH1 0x0 PUSH1 0x60 DUP5 DUP7 SUB SLT ISZERO PUSH2 0x164F JUMPI PUSH2 0x164E PUSH2 0x1ECF JUMP JUMPDEST JUMPDEST PUSH1 0x0 PUSH2 0x165D DUP7 DUP3 DUP8 ADD PUSH2 0x1575 JUMP JUMPDEST SWAP4 POP POP PUSH1 0x20 PUSH2 0x166E DUP7 DUP3 DUP8 ADD PUSH2 0x1575 JUMP JUMPDEST SWAP3 POP POP PUSH1 0x40 PUSH2 0x167F DUP7 DUP3 DUP8 ADD PUSH2 0x15B4 JUMP JUMPDEST SWAP2 POP POP SWAP3 POP SWAP3 POP SWAP3 JUMP JUMPDEST PUSH1 0x0 DUP1 PUSH1 0x40 DUP4 DUP6 SUB SLT ISZERO PUSH2 0x16A0 JUMPI PUSH2 0x169F PUSH2 0x1ECF JUMP JUMPDEST JUMPDEST PUSH1 0x0 PUSH2 0x16AE DUP6 DUP3 DUP7 ADD PUSH2 0x1575 JUMP JUMPDEST SWAP3 POP POP PUSH1 0x20 PUSH2 0x16BF DUP6 DUP3 DUP7 ADD PUSH2 0x15B4 JUMP JUMPDEST SWAP2 POP POP SWAP3 POP SWAP3 SWAP1 POP JUMP JUMPDEST PUSH1 0x0 PUSH1 0x20 DUP3 DUP5 SUB SLT ISZERO PUSH2 0x16DF JUMPI PUSH2 0x16DE PUSH2 0x1ECF JUMP JUMPDEST JUMPDEST PUSH1 0x0 PUSH2 0x16ED DUP5 DUP3 DUP6 ADD PUSH2 0x158A JUMP JUMPDEST SWAP2 POP POP SWAP3 SWAP2 POP POP JUMP JUMPDEST PUSH1 0x0 DUP1 PUSH1 0x40 DUP4 DUP6 SUB SLT ISZERO PUSH2 0x170D JUMPI PUSH2 0x170C PUSH2 0x1ECF JUMP JUMPDEST JUMPDEST PUSH1 0x0 PUSH2 0x171B DUP6 DUP3 DUP7 ADD PUSH2 0x158A JUMP JUMPDEST SWAP3 POP POP PUSH1 0x20 PUSH2 0x172C DUP6 DUP3 DUP7 ADD PUSH2 0x1575 JUMP JUMPDEST SWAP2 POP POP SWAP3 POP SWAP3 SWAP1 POP JUMP JUMPDEST PUSH1 0x0 PUSH1 0x20 DUP3 DUP5 SUB SLT ISZERO PUSH2 0x174C JUMPI PUSH2 0x174B PUSH2 0x1ECF JUMP JUMPDEST JUMPDEST PUSH1 0x0 PUSH2 0x175A DUP5 DUP3 DUP6 ADD PUSH2 0x159F JUMP JUMPDEST SWAP2 POP POP SWAP3 SWAP2 POP POP JUMP JUMPDEST PUSH2 0x176C DUP2 PUSH2 0x1CF9 JUMP JUMPDEST DUP3 MSTORE POP POP JUMP JUMPDEST PUSH2 0x177B DUP2 PUSH2 0x1D0B JUMP JUMPDEST DUP3 MSTORE POP POP JUMP JUMPDEST PUSH2 0x178A DUP2 PUSH2 0x1D17 JUMP JUMPDEST DUP3 MSTORE POP POP JUMP JUMPDEST PUSH1 0x0 PUSH2 0x179B DUP3 PUSH2 0x1C22 JUMP JUMPDEST PUSH2 0x17A5 DUP2 DUP6 PUSH2 0x1C2D JUMP JUMPDEST SWAP4 POP PUSH2 0x17B5 DUP2 DUP6 PUSH1 0x20 DUP7 ADD PUSH2 0x1D84 JUMP JUMPDEST PUSH2 0x17BE DUP2 PUSH2 0x1ED4 JUMP JUMPDEST DUP5 ADD SWAP2 POP POP SWAP3 SWAP2 POP POP JUMP JUMPDEST PUSH1 0x0 PUSH2 0x17D4 DUP3 PUSH2 0x1C22 JUMP JUMPDEST PUSH2 0x17DE DUP2 DUP6 PUSH2 0x1C3E JUMP JUMPDEST SWAP4 POP PUSH2 0x17EE DUP2 DUP6 PUSH1 0x20 DUP7 ADD PUSH2 0x1D84 JUMP JUMPDEST DUP1 DUP5 ADD SWAP2 POP POP SWAP3 SWAP2 POP POP JUMP JUMPDEST PUSH1 0x0 PUSH2 0x1807 PUSH1 0x20 DUP4 PUSH2 0x1C2D JUMP JUMPDEST SWAP2 POP PUSH2 0x1812 DUP3 PUSH2 0x1EE5 JUMP JUMPDEST PUSH1 0x20 DUP3 ADD SWAP1 POP SWAP2 SWAP1 POP JUMP JUMPDEST PUSH1 0x0 PUSH2 0x182A PUSH1 0x23 DUP4 PUSH2 0x1C2D JUMP JUMPDEST SWAP2 POP PUSH2 0x1835 DUP3 PUSH2 0x1F0E JUMP JUMPDEST PUSH1 0x40 DUP3 ADD SWAP1 POP SWAP2 SWAP1 POP JUMP JUMPDEST PUSH1 0x0 PUSH2 0x184D PUSH1 0x14 DUP4 PUSH2 0x1C2D JUMP JUMPDEST SWAP2 POP PUSH2 0x1858 DUP3 PUSH2 0x1F5D JUMP JUMPDEST PUSH1 0x20 DUP3 ADD SWAP1 POP SWAP2 SWAP1 POP JUMP JUMPDEST PUSH1 0x0 PUSH2 0x1870 PUSH1 0x22 DUP4 PUSH2 0x1C2D JUMP JUMPDEST SWAP2 POP PUSH2 0x187B DUP3 PUSH2 0x1F86 JUMP JUMPDEST PUSH1 0x40 DUP3 ADD SWAP1 POP SWAP2 SWAP1 POP JUMP JUMPDEST PUSH1 0x0 PUSH2 0x1893 PUSH1 0x1D DUP4 PUSH2 0x1C2D JUMP JUMPDEST SWAP2 POP PUSH2 0x189E DUP3 PUSH2 0x1FD5 JUMP JUMPDEST PUSH1 0x20 DUP3 ADD SWAP1 POP SWAP2 SWAP1 POP JUMP JUMPDEST PUSH1 0x0 PUSH2 0x18B6 PUSH1 0x26 DUP4 PUSH2 0x1C2D JUMP JUMPDEST SWAP2 POP PUSH2 0x18C1 DUP3 PUSH2 0x1FFE JUMP JUMPDEST PUSH1 0x40 DUP3 ADD SWAP1 POP SWAP2 SWAP1 POP JUMP JUMPDEST PUSH1 0x0 PUSH2 0x18D9 PUSH1 0x10 DUP4 PUSH2 0x1C2D JUMP JUMPDEST SWAP2 POP PUSH2 0x18E4 DUP3 PUSH2 0x204D JUMP JUMPDEST PUSH1 0x20 DUP3 ADD SWAP1 POP SWAP2 SWAP1 POP JUMP JUMPDEST PUSH1 0x0 PUSH2 0x18FC PUSH1 0x25 DUP4 PUSH2 0x1C2D JUMP JUMPDEST SWAP2 POP PUSH2 0x1907 DUP3 PUSH2 0x2076 JUMP JUMPDEST PUSH1 0x40 DUP3 ADD SWAP1 POP SWAP2 SWAP1 POP JUMP JUMPDEST PUSH1 0x0 PUSH2 0x191F PUSH1 0x24 DUP4 PUSH2 0x1C2D JUMP JUMPDEST SWAP2 POP PUSH2 0x192A DUP3 PUSH2 0x20C5 JUMP JUMPDEST PUSH1 0x40 DUP3 ADD SWAP1 POP SWAP2 SWAP1 POP JUMP JUMPDEST PUSH1 0x0 PUSH2 0x1942 PUSH1 0x17 DUP4 PUSH2 0x1C3E JUMP JUMPDEST SWAP2 POP PUSH2 0x194D DUP3 PUSH2 0x2114 JUMP JUMPDEST PUSH1 0x17 DUP3 ADD SWAP1 POP SWAP2 SWAP1 POP JUMP JUMPDEST PUSH1 0x0 PUSH2 0x1965 PUSH1 0x25 DUP4 PUSH2 0x1C2D JUMP JUMPDEST SWAP2 POP PUSH2 0x1970 DUP3 PUSH2 0x213D JUMP JUMPDEST PUSH1 0x40 DUP3 ADD SWAP1 POP SWAP2 SWAP1 POP JUMP JUMPDEST PUSH1 0x0 PUSH2 0x1988 PUSH1 0x11 DUP4 PUSH2 0x1C3E JUMP JUMPDEST SWAP2 POP PUSH2 0x1993 DUP3 PUSH2 0x218C JUMP JUMPDEST PUSH1 0x11 DUP3 ADD SWAP1 POP SWAP2 SWAP1 POP JUMP JUMPDEST PUSH1 0x0 PUSH2 0x19AB PUSH1 0x2F DUP4 PUSH2 0x1C2D JUMP JUMPDEST SWAP2 POP PUSH2 0x19B6 DUP3 PUSH2 0x21B5 JUMP JUMPDEST PUSH1 0x40 DUP3 ADD SWAP1 POP SWAP2 SWAP1 POP JUMP JUMPDEST PUSH2 0x19CA DUP2 PUSH2 0x1D6D JUMP JUMPDEST DUP3 MSTORE POP POP JUMP JUMPDEST PUSH2 0x19D9 DUP2 PUSH2 0x1D77 JUMP JUMPDEST DUP3 MSTORE POP POP JUMP JUMPDEST PUSH1 0x0 PUSH2 0x19EA DUP3 PUSH2 0x1935 JUMP JUMPDEST SWAP2 POP PUSH2 0x19F6 DUP3 DUP6 PUSH2 0x17C9 JUMP JUMPDEST SWAP2 POP PUSH2 0x1A01 DUP3 PUSH2 0x197B JUMP JUMPDEST SWAP2 POP PUSH2 0x1A0D DUP3 DUP5 PUSH2 0x17C9 JUMP JUMPDEST SWAP2 POP DUP2 SWAP1 POP SWAP4 SWAP3 POP POP POP JUMP JUMPDEST PUSH1 0x0 PUSH1 0x20 DUP3 ADD SWAP1 POP PUSH2 0x1A2E PUSH1 0x0 DUP4 ADD DUP5 PUSH2 0x1763 JUMP JUMPDEST SWAP3 SWAP2 POP POP JUMP JUMPDEST PUSH1 0x0 PUSH1 0x20 DUP3 ADD SWAP1 POP PUSH2 0x1A49 PUSH1 0x0 DUP4 ADD DUP5 PUSH2 0x1772 JUMP JUMPDEST SWAP3 SWAP2 POP POP JUMP JUMPDEST PUSH1 0x0 PUSH1 0x20 DUP3 ADD SWAP1 POP PUSH2 0x1A64 PUSH1 0x0 DUP4 ADD DUP5 PUSH2 0x1781 JUMP JUMPDEST SWAP3 SWAP2 POP POP JUMP JUMPDEST PUSH1 0x0 PUSH1 0x20 DUP3 ADD SWAP1 POP DUP2 DUP2 SUB PUSH1 0x0 DUP4 ADD MSTORE PUSH2 0x1A84 DUP2 DUP5 PUSH2 0x1790 JUMP JUMPDEST SWAP1 POP SWAP3 SWAP2 POP POP JUMP JUMPDEST PUSH1 0x0 PUSH1 0x20 DUP3 ADD SWAP1 POP DUP2 DUP2 SUB PUSH1 0x0 DUP4 ADD MSTORE PUSH2 0x1AA5 DUP2 PUSH2 0x17FA JUMP JUMPDEST SWAP1 POP SWAP2 SWAP1 POP JUMP JUMPDEST PUSH1 0x0 PUSH1 0x20 DUP3 ADD SWAP1 POP DUP2 DUP2 SUB PUSH1 0x0 DUP4 ADD MSTORE PUSH2 0x1AC5 DUP2 PUSH2 0x181D JUMP JUMPDEST SWAP1 POP SWAP2 SWAP1 POP JUMP JUMPDEST PUSH1 0x0 PUSH1 0x20 DUP3 ADD SWAP1 POP DUP2 DUP2 SUB PUSH1 0x0 DUP4 ADD MSTORE PUSH2 0x1AE5 DUP2 PUSH2 0x1840 JUMP JUMPDEST SWAP1 POP SWAP2 SWAP1 POP JUMP JUMPDEST PUSH1 0x0 PUSH1 0x20 DUP3 ADD SWAP1 POP DUP2 DUP2 SUB PUSH1 0x0 DUP4 ADD MSTORE PUSH2 0x1B05 DUP2 PUSH2 0x1863 JUMP JUMPDEST SWAP1 POP SWAP2 SWAP1 POP JUMP JUMPDEST PUSH1 0x0 PUSH1 0x20 DUP3 ADD SWAP1 POP DUP2 DUP2 SUB PUSH1 0x0 DUP4 ADD MSTORE PUSH2 0x1B25 DUP2 PUSH2 0x1886 JUMP JUMPDEST SWAP1 POP SWAP2 SWAP1 POP JUMP JUMPDEST PUSH1 0x0 PUSH1 0x20 DUP3 ADD SWAP1 POP DUP2 DUP2 SUB PUSH1 0x0 DUP4 ADD MSTORE PUSH2 0x1B45 DUP2 PUSH2 0x18A9 JUMP JUMPDEST SWAP1 POP SWAP2 SWAP1 POP JUMP JUMPDEST PUSH1 0x0 PUSH1 0x20 DUP3 ADD SWAP1 POP DUP2 DUP2 SUB PUSH1 0x0 DUP4 ADD MSTORE PUSH2 0x1B65 DUP2 PUSH2 0x18CC JUMP JUMPDEST SWAP1 POP SWAP2 SWAP1 POP JUMP JUMPDEST PUSH1 0x0 PUSH1 0x20 DUP3 ADD SWAP1 POP DUP2 DUP2 SUB PUSH1 0x0 DUP4 ADD MSTORE PUSH2 0x1B85 DUP2 PUSH2 0x18EF JUMP JUMPDEST SWAP1 POP SWAP2 SWAP1 POP JUMP JUMPDEST PUSH1 0x0 PUSH1 0x20 DUP3 ADD SWAP1 POP DUP2 DUP2 SUB PUSH1 0x0 DUP4 ADD MSTORE PUSH2 0x1BA5 DUP2 PUSH2 0x1912 JUMP JUMPDEST SWAP1 POP SWAP2 SWAP1 POP JUMP JUMPDEST PUSH1 0x0 PUSH1 0x20 DUP3 ADD SWAP1 POP DUP2 DUP2 SUB PUSH1 0x0 DUP4 ADD MSTORE PUSH2 0x1BC5 DUP2 PUSH2 0x1958 JUMP JUMPDEST SWAP1 POP SWAP2 SWAP1 POP JUMP JUMPDEST PUSH1 0x0 PUSH1 0x20 DUP3 ADD SWAP1 POP DUP2 DUP2 SUB PUSH1 0x0 DUP4 ADD MSTORE PUSH2 0x1BE5 DUP2 PUSH2 0x199E JUMP JUMPDEST SWAP1 POP SWAP2 SWAP1 POP JUMP JUMPDEST PUSH1 0x0 PUSH1 0x20 DUP3 ADD SWAP1 POP PUSH2 0x1C01 PUSH1 0x0 DUP4 ADD DUP5 PUSH2 0x19C1 JUMP JUMPDEST SWAP3 SWAP2 POP POP JUMP JUMPDEST PUSH1 0x0 PUSH1 0x20 DUP3 ADD SWAP1 POP PUSH2 0x1C1C PUSH1 0x0 DUP4 ADD DUP5 PUSH2 0x19D0 JUMP JUMPDEST SWAP3 SWAP2 POP POP JUMP JUMPDEST PUSH1 0x0 DUP2 MLOAD SWAP1 POP SWAP2 SWAP1 POP JUMP JUMPDEST PUSH1 0x0 DUP3 DUP3 MSTORE PUSH1 0x20 DUP3 ADD SWAP1 POP SWAP3 SWAP2 POP POP JUMP JUMPDEST PUSH1 0x0 DUP2 SWAP1 POP SWAP3 SWAP2 POP POP JUMP JUMPDEST PUSH1 0x0 PUSH2 0x1C54 DUP3 PUSH2 0x1D6D JUMP JUMPDEST SWAP2 POP PUSH2 0x1C5F DUP4 PUSH2 0x1D6D JUMP JUMPDEST SWAP3 POP DUP3 PUSH32 0xFFFFFFFFFFFFFFFFFFFFFFFFFFFFFFFFFFFFFFFFFFFFFFFFFFFFFFFFFFFFFFFF SUB DUP3 GT ISZERO PUSH2 0x1C94 JUMPI PUSH2 0x1C93 PUSH2 0x1E13 JUMP JUMPDEST JUMPDEST DUP3 DUP3 ADD SWAP1 POP SWAP3 SWAP2 POP POP JUMP JUMPDEST PUSH1 0x0 PUSH2 0x1CAA DUP3 PUSH2 0x1D6D JUMP JUMPDEST SWAP2 POP PUSH2 0x1CB5 DUP4 PUSH2 0x1D6D JUMP JUMPDEST SWAP3 POP DUP2 PUSH32 0xFFFFFFFFFFFFFFFFFFFFFFFFFFFFFFFFFFFFFFFFFFFFFFFFFFFFFFFFFFFFFFFF DIV DUP4 GT DUP3 ISZERO ISZERO AND ISZERO PUSH2 0x1CEE JUMPI PUSH2 0x1CED PUSH2 0x1E13 JUMP JUMPDEST JUMPDEST DUP3 DUP3 MUL SWAP1 POP SWAP3 SWAP2 POP POP JUMP JUMPDEST PUSH1 0x0 PUSH2 0x1D04 DUP3 PUSH2 0x1D4D JUMP JUMPDEST SWAP1 POP SWAP2 SWAP1 POP JUMP JUMPDEST PUSH1 0x0 DUP2 ISZERO ISZERO SWAP1 POP SWAP2 SWAP1 POP JUMP JUMPDEST PUSH1 0x0 DUP2 SWAP1 POP SWAP2 SWAP1 POP JUMP JUMPDEST PUSH1 0x0 PUSH32 0xFFFFFFFF00000000000000000000000000000000000000000000000000000000 DUP3 AND SWAP1 POP SWAP2 SWAP1 POP JUMP JUMPDEST PUSH1 0x0 PUSH20 0xFFFFFFFFFFFFFFFFFFFFFFFFFFFFFFFFFFFFFFFF DUP3 AND SWAP1 POP SWAP2 SWAP1 POP JUMP JUMPDEST PUSH1 0x0 DUP2 SWAP1 POP SWAP2 SWAP1 POP JUMP JUMPDEST PUSH1 0x0 PUSH1 0xFF DUP3 AND SWAP1 POP SWAP2 SWAP1 POP JUMP JUMPDEST PUSH1 0x0 JUMPDEST DUP4 DUP2 LT ISZERO PUSH2 0x1DA2 JUMPI DUP1 DUP3 ADD MLOAD DUP2 DUP5 ADD MSTORE PUSH1 0x20 DUP2 ADD SWAP1 POP PUSH2 0x1D87 JUMP JUMPDEST DUP4 DUP2 GT ISZERO PUSH2 0x1DB1 JUMPI PUSH1 0x0 DUP5 DUP5 ADD MSTORE JUMPDEST POP POP POP POP JUMP JUMPDEST PUSH1 0x0 PUSH2 0x1DC2 DUP3 PUSH2 0x1D6D JUMP JUMPDEST SWAP2 POP PUSH1 0x0 DUP3 EQ ISZERO PUSH2 0x1DD6 JUMPI PUSH2 0x1DD5 PUSH2 0x1E13 JUMP JUMPDEST JUMPDEST PUSH1 0x1 DUP3 SUB SWAP1 POP SWAP2 SWAP1 POP JUMP JUMPDEST PUSH1 0x0 PUSH1 0x2 DUP3 DIV SWAP1 POP PUSH1 0x1 DUP3 AND DUP1 PUSH2 0x1DF9 JUMPI PUSH1 0x7F DUP3 AND SWAP2 POP JUMPDEST PUSH1 0x20 DUP3 LT DUP2 EQ ISZERO PUSH2 0x1E0D JUMPI PUSH2 0x1E0C PUSH2 0x1E42 JUMP JUMPDEST JUMPDEST POP SWAP2 SWAP1 POP JUMP JUMPDEST PUSH32 0x4E487B7100000000000000000000000000000000000000000000000000000000 PUSH1 0x0 MSTORE PUSH1 0x11 PUSH1 0x4 MSTORE PUSH1 0x24 PUSH1 0x0 REVERT JUMPDEST PUSH32 0x4E487B7100000000000000000000000000000000000000000000000000000000 PUSH1 0x0 MSTORE PUSH1 0x22 PUSH1 0x4 MSTORE PUSH1 0x24 PUSH1 0x0 REVERT JUMPDEST PUSH32 0x4E487B7100000000000000000000000000000000000000000000000000000000 PUSH1 0x0 MSTORE PUSH1 0x32 PUSH1 0x4 MSTORE PUSH1 0x24 PUSH1 0x0 REVERT JUMPDEST PUSH32 0x4E487B7100000000000000000000000000000000000000000000000000000000 PUSH1 0x0 MSTORE PUSH1 0x41 PUSH1 0x4 MSTORE PUSH1 0x24 PUSH1 0x0 REVERT JUMPDEST PUSH1 0x0 DUP1 REVERT JUMPDEST PUSH1 0x0 PUSH1 0x1F NOT PUSH1 0x1F DUP4 ADD AND SWAP1 POP SWAP2 SWAP1 POP JUMP JUMPDEST PUSH32 0x537472696E67733A20686578206C656E67746820696E73756666696369656E74 PUSH1 0x0 DUP3 ADD MSTORE POP JUMP JUMPDEST PUSH32 0x45524332303A207472616E7366657220746F20746865207A65726F2061646472 PUSH1 0x0 DUP3 ADD MSTORE PUSH32 0x6573730000000000000000000000000000000000000000000000000000000000 PUSH1 0x20 DUP3 ADD MSTORE POP JUMP JUMPDEST PUSH32 0x5061757361626C653A206E6F7420706175736564000000000000000000000000 PUSH1 0x0 DUP3 ADD MSTORE POP JUMP JUMPDEST PUSH32 0x45524332303A20617070726F766520746F20746865207A65726F206164647265 PUSH1 0x0 DUP3 ADD MSTORE PUSH32 0x7373000000000000000000000000000000000000000000000000000000000000 PUSH1 0x20 DUP3 ADD MSTORE POP JUMP JUMPDEST PUSH32 0x45524332303A20696E73756666696369656E7420616C6C6F77616E6365000000 PUSH1 0x0 DUP3 ADD MSTORE POP JUMP JUMPDEST PUSH32 0x45524332303A207472616E7366657220616D6F756E7420657863656564732062 PUSH1 0x0 DUP3 ADD MSTORE PUSH32 0x616C616E63650000000000000000000000000000000000000000000000000000 PUSH1 0x20 DUP3 ADD MSTORE POP JUMP JUMPDEST PUSH32 0x5061757361626C653A2070617573656400000000000000000000000000000000 PUSH1 0x0 DUP3 ADD MSTORE POP JUMP JUMPDEST PUSH32 0x45524332303A207472616E736665722066726F6D20746865207A65726F206164 PUSH1 0x0 DUP3 ADD MSTORE PUSH32 0x6472657373000000000000000000000000000000000000000000000000000000 PUSH1 0x20 DUP3 ADD MSTORE POP JUMP JUMPDEST PUSH32 0x45524332303A20617070726F76652066726F6D20746865207A65726F20616464 PUSH1 0x0 DUP3 ADD MSTORE PUSH32 0x7265737300000000000000000000000000000000000000000000000000000000 PUSH1 0x20 DUP3 ADD MSTORE POP JUMP JUMPDEST PUSH32 0x416363657373436F6E74726F6C3A206163636F756E7420000000000000000000 PUSH1 0x0 DUP3 ADD MSTORE POP JUMP JUMPDEST PUSH32 0x45524332303A2064656372656173656420616C6C6F77616E63652062656C6F77 PUSH1 0x0 DUP3 ADD MSTORE PUSH32 0x207A65726F000000000000000000000000000000000000000000000000000000 PUSH1 0x20 DUP3 ADD MSTORE POP JUMP JUMPDEST PUSH32 0x206973206D697373696E6720726F6C6520000000000000000000000000000000 PUSH1 0x0 DUP3 ADD MSTORE POP JUMP JUMPDEST PUSH32 0x416363657373436F6E74726F6C3A2063616E206F6E6C792072656E6F756E6365 PUSH1 0x0 DUP3 ADD MSTORE PUSH32 0x20726F6C657320666F722073656C660000000000000000000000000000000000 PUSH1 0x20 DUP3 ADD MSTORE POP JUMP JUMPDEST PUSH2 0x220D DUP2 PUSH2 0x1CF9 JUMP JUMPDEST DUP2 EQ PUSH2 0x2218 JUMPI PUSH1 0x0 DUP1 REVERT JUMPDEST POP JUMP JUMPDEST PUSH2 0x2224 DUP2 PUSH2 0x1D17 JUMP JUMPDEST DUP2 EQ PUSH2 0x222F JUMPI PUSH1 0x0 DUP1 REVERT JUMPDEST POP JUMP JUMPDEST PUSH2 0x223B DUP2 PUSH2 0x1D21 JUMP JUMPDEST DUP2 EQ PUSH2 0x2246 JUMPI PUSH1 0x0 DUP1 REVERT JUMPDEST POP JUMP JUMPDEST PUSH2 0x2252 DUP2 PUSH2 0x1D6D JUMP JUMPDEST DUP2 EQ PUSH2 0x225D JUMPI PUSH1 0x0 DUP1 REVERT JUMPDEST POP JUMP INVALID LOG2 PUSH5 0x6970667358 0x22 SLT KECCAK256 SWAP11 SWAP16 0xC7 NUMBER PUSH18 0x3266554FACB5630005B08885345BDBDDAD8F 0xC 0x2B 0xAD AND PUSH25 0xCAD5F40864736F6C6343000807003300000000000000000000 "
				},
				"gasEstimates": {
					"creation": {
						"codeDepositCost": "1770800",
						"executionCost": "infinite",
						"totalCost": "infinite"
					},
					"external": {
						"DEFAULT_ADMIN_ROLE()": "357",
						"PAUSER_ROLE()": "461",
						"allowance(address,address)": "infinite",
						"approve(address,uint256)": "infinite",
						"balanceOf(address)": "2886",
						"decimals()": "410",
						"decreaseAllowance(address,uint256)": "infinite",
						"getRoleAdmin(bytes32)": "infinite",
						"grantRole(bytes32,address)": "infinite",
						"hasRole(bytes32,address)": "3229",
						"increaseAllowance(address,uint256)": "infinite",
						"name()": "infinite",
						"pause()": "infinite",
						"paused()": "2502",
						"renounceRole(bytes32,address)": "infinite",
						"revokeRole(bytes32,address)": "infinite",
						"supportsInterface(bytes4)": "751",
						"symbol()": "infinite",
						"totalSupply()": "2527",
						"transfer(address,uint256)": "infinite",
						"transferFrom(address,address,uint256)": "infinite",
						"unpause()": "infinite"
					},
					"internal": {
						"_beforeTokenTransfer(address,address,uint256)": "infinite"
					}
				},
				"methodIdentifiers": {
					"DEFAULT_ADMIN_ROLE()": "a217fddf",
					"PAUSER_ROLE()": "e63ab1e9",
					"allowance(address,address)": "dd62ed3e",
					"approve(address,uint256)": "095ea7b3",
					"balanceOf(address)": "70a08231",
					"decimals()": "313ce567",
					"decreaseAllowance(address,uint256)": "a457c2d7",
					"getRoleAdmin(bytes32)": "248a9ca3",
					"grantRole(bytes32,address)": "2f2ff15d",
					"hasRole(bytes32,address)": "91d14854",
					"increaseAllowance(address,uint256)": "39509351",
					"name()": "06fdde03",
					"pause()": "8456cb59",
					"paused()": "5c975abb",
					"renounceRole(bytes32,address)": "36568abe",
					"revokeRole(bytes32,address)": "d547741f",
					"supportsInterface(bytes4)": "01ffc9a7",
					"symbol()": "95d89b41",
					"totalSupply()": "18160ddd",
					"transfer(address,uint256)": "a9059cbb",
					"transferFrom(address,address,uint256)": "23b872dd",
					"unpause()": "3f4ba83a"
				}
			},
			"storageLayout": {
				"storage": [
					{
						"astId": 516,
						"contract": "web3oj/erc-20/erc-20-pausable.sol:Web3OJTPausable",
						"label": "_balances",
						"offset": 0,
						"slot": "0",
						"type": "t_mapping(t_address,t_uint256)"
					},
					{
						"astId": 522,
						"contract": "web3oj/erc-20/erc-20-pausable.sol:Web3OJTPausable",
						"label": "_allowances",
						"offset": 0,
						"slot": "1",
						"type": "t_mapping(t_address,t_mapping(t_address,t_uint256))"
					},
					{
						"astId": 524,
						"contract": "web3oj/erc-20/erc-20-pausable.sol:Web3OJTPausable",
						"label": "_totalSupply",
						"offset": 0,
						"slot": "2",
						"type": "t_uint256"
					},
					{
						"astId": 526,
						"contract": "web3oj/erc-20/erc-20-pausable.sol:Web3OJTPausable",
						"label": "_name",
						"offset": 0,
						"slot": "3",
						"type": "t_string_storage"
					},
					{
						"astId": 528,
						"contract": "web3oj/erc-20/erc-20-pausable.sol:Web3OJTPausable",
						"label": "_symbol",
						"offset": 0,
						"slot": "4",
						"type": "t_string_storage"
					},
					{
						"astId": 410,
						"contract": "web3oj/erc-20/erc-20-pausable.sol:Web3OJTPausable",
						"label": "_paused",
						"offset": 0,
						"slot": "5",
						"type": "t_bool"
					},
					{
						"astId": 24,
						"contract": "web3oj/erc-20/erc-20-pausable.sol:Web3OJTPausable",
						"label": "_roles",
						"offset": 0,
						"slot": "6",
						"type": "t_mapping(t_bytes32,t_struct(RoleData)19_storage)"
					}
				],
				"types": {
					"t_address": {
						"encoding": "inplace",
						"label": "address",
						"numberOfBytes": "20"
					},
					"t_bool": {
						"encoding": "inplace",
						"label": "bool",
						"numberOfBytes": "1"
					},
					"t_bytes32": {
						"encoding": "inplace",
						"label": "bytes32",
						"numberOfBytes": "32"
					},
					"t_mapping(t_address,t_bool)": {
						"encoding": "mapping",
						"key": "t_address",
						"label": "mapping(address => bool)",
						"numberOfBytes": "32",
						"value": "t_bool"
					},
					"t_mapping(t_address,t_mapping(t_address,t_uint256))": {
						"encoding": "mapping",
						"key": "t_address",
						"label": "mapping(address => mapping(address => uint256))",
						"numberOfBytes": "32",
						"value": "t_mapping(t_address,t_uint256)"
					},
					"t_mapping(t_address,t_uint256)": {
						"encoding": "mapping",
						"key": "t_address",
						"label": "mapping(address => uint256)",
						"numberOfBytes": "32",
						"value": "t_uint256"
					},
					"t_mapping(t_bytes32,t_struct(RoleData)19_storage)": {
						"encoding": "mapping",
						"key": "t_bytes32",
						"label": "mapping(bytes32 => struct AccessControl.RoleData)",
						"numberOfBytes": "32",
						"value": "t_struct(RoleData)19_storage"
					},
					"t_string_storage": {
						"encoding": "bytes",
						"label": "string",
						"numberOfBytes": "32"
					},
					"t_struct(RoleData)19_storage": {
						"encoding": "inplace",
						"label": "struct AccessControl.RoleData",
						"members": [
							{
								"astId": 16,
								"contract": "web3oj/erc-20/erc-20-pausable.sol:Web3OJTPausable",
								"label": "members",
								"offset": 0,
								"slot": "0",
								"type": "t_mapping(t_address,t_bool)"
							},
							{
								"astId": 18,
								"contract": "web3oj/erc-20/erc-20-pausable.sol:Web3OJTPausable",
								"label": "adminRole",
								"offset": 0,
								"slot": "1",
								"type": "t_bytes32"
							}
						],
						"numberOfBytes": "64"
					},
					"t_uint256": {
						"encoding": "inplace",
						"label": "uint256",
						"numberOfBytes": "32"
					}
				}
			},
			"userdoc": {
				"kind": "user",
				"methods": {},
				"version": 1
			}
		}
	}
}