{
	"Chapter6/Ex6.01_indexed.sol": {
		"Ex6_1": {
			"abi": [
				{
					"anonymous": false,
					"inputs": [
						{
							"indexed": false,
							"internalType": "uint256",
							"name": "result",
							"type": "uint256"
						},
						{
							"indexed": true,
							"internalType": "string",
							"name": "name",
							"type": "string"
						}
					],
					"name": "MyFunction",
					"type": "event"
				},
				{
					"inputs": [
						{
							"internalType": "uint256",
							"name": "_a",
							"type": "uint256"
						},
						{
							"internalType": "uint256",
							"name": "_b",
							"type": "uint256"
						}
					],
					"name": "add",
					"outputs": [],
					"stateMutability": "nonpayable",
					"type": "function"
				},
				{
					"inputs": [
						{
							"internalType": "uint256",
							"name": "_a",
							"type": "uint256"
						},
						{
							"internalType": "uint256",
							"name": "_b",
							"type": "uint256"
						}
					],
					"name": "mul",
					"outputs": [],
					"stateMutability": "nonpayable",
					"type": "function"
				}
			],
			"devdoc": {
				"kind": "dev",
				"methods": {},
				"version": 1
			},
			"evm": {
				"assembly": "    /* \"Chapter6/Ex6.01_indexed.sol\":69:388  contract Ex6_1 {... */\n  mstore(0x40, 0x80)\n  callvalue\n  dup1\n  iszero\n  tag_1\n  jumpi\n  0x00\n  dup1\n  revert\ntag_1:\n  pop\n  dataSize(sub_0)\n  dup1\n  dataOffset(sub_0)\n  0x00\n  codecopy\n  0x00\n  return\nstop\n\nsub_0: assembly {\n        /* \"Chapter6/Ex6.01_indexed.sol\":69:388  contract Ex6_1 {... */\n      mstore(0x40, 0x80)\n      callvalue\n      dup1\n      iszero\n      tag_1\n      jumpi\n      0x00\n      dup1\n      revert\n    tag_1:\n      pop\n      jumpi(tag_2, lt(calldatasize, 0x04))\n      shr(0xe0, calldataload(0x00))\n      dup1\n      0x771602f7\n      eq\n      tag_3\n      jumpi\n      dup1\n      0xc8a4ac9c\n      eq\n      tag_4\n      jumpi\n    tag_2:\n      0x00\n      dup1\n      revert\n        /* \"Chapter6/Ex6.01_indexed.sol\":148:262  function add(uint _a, uint _b) public {... */\n    tag_3:\n      tag_5\n      0x04\n      dup1\n      calldatasize\n      sub\n      dup2\n      add\n      swap1\n      tag_6\n      swap2\n      swap1\n      tag_7\n      jump\t// in\n    tag_6:\n      tag_8\n      jump\t// in\n    tag_5:\n      stop\n        /* \"Chapter6/Ex6.01_indexed.sol\":272:386  function mul(uint _a, uint _b) public {... */\n    tag_4:\n      tag_9\n      0x04\n      dup1\n      calldatasize\n      sub\n      dup2\n      add\n      swap1\n      tag_10\n      swap2\n      swap1\n      tag_7\n      jump\t// in\n    tag_10:\n      tag_11\n      jump\t// in\n    tag_9:\n      stop\n        /* \"Chapter6/Ex6.01_indexed.sol\":148:262  function add(uint _a, uint _b) public {... */\n    tag_8:\n        /* \"Chapter6/Ex6.01_indexed.sol\":196:206  uint total */\n      0x00\n        /* \"Chapter6/Ex6.01_indexed.sol\":214:216  _b */\n      dup2\n        /* \"Chapter6/Ex6.01_indexed.sol\":209:211  _a */\n      dup4\n        /* \"Chapter6/Ex6.01_indexed.sol\":209:216  _a + _b */\n      tag_13\n      swap2\n      swap1\n      tag_14\n      jump\t// in\n    tag_13:\n        /* \"Chapter6/Ex6.01_indexed.sol\":196:216  uint total = _a + _b */\n      swap1\n      pop\n        /* \"Chapter6/Ex6.01_indexed.sol\":231:255  MyFunction(total, \"add\") */\n      mload(0x40)\n      tag_15\n      swap1\n      tag_16\n      jump\t// in\n    tag_15:\n      mload(0x40)\n      dup1\n      swap2\n      sub\n      swap1\n      keccak256\n      0xc782686e55700c1a67821f5be6d214bb892d74f7667202c2c1c4ac7f45d9a058\n        /* \"Chapter6/Ex6.01_indexed.sol\":242:247  total */\n      dup3\n        /* \"Chapter6/Ex6.01_indexed.sol\":231:255  MyFunction(total, \"add\") */\n      mload(0x40)\n      tag_17\n      swap2\n      swap1\n      tag_18\n      jump\t// in\n    tag_17:\n      mload(0x40)\n      dup1\n      swap2\n      sub\n      swap1\n      log2\n        /* \"Chapter6/Ex6.01_indexed.sol\":186:262  {... */\n      pop\n        /* \"Chapter6/Ex6.01_indexed.sol\":148:262  function add(uint _a, uint _b) public {... */\n      pop\n      pop\n      jump\t// out\n        /* \"Chapter6/Ex6.01_indexed.sol\":272:386  function mul(uint _a, uint _b) public {... */\n    tag_11:\n        /* \"Chapter6/Ex6.01_indexed.sol\":320:330  uint total */\n      0x00\n        /* \"Chapter6/Ex6.01_indexed.sol\":338:340  _b */\n      dup2\n        /* \"Chapter6/Ex6.01_indexed.sol\":333:335  _a */\n      dup4\n        /* \"Chapter6/Ex6.01_indexed.sol\":333:340  _a * _b */\n      tag_20\n      swap2\n      swap1\n      tag_21\n      jump\t// in\n    tag_20:\n        /* \"Chapter6/Ex6.01_indexed.sol\":320:340  uint total = _a * _b */\n      swap1\n      pop\n        /* \"Chapter6/Ex6.01_indexed.sol\":355:379  MyFunction(total, \"mul\") */\n      mload(0x40)\n      tag_22\n      swap1\n      tag_23\n      jump\t// in\n    tag_22:\n      mload(0x40)\n      dup1\n      swap2\n      sub\n      swap1\n      keccak256\n      0xc782686e55700c1a67821f5be6d214bb892d74f7667202c2c1c4ac7f45d9a058\n        /* \"Chapter6/Ex6.01_indexed.sol\":366:371  total */\n      dup3\n        /* \"Chapter6/Ex6.01_indexed.sol\":355:379  MyFunction(total, \"mul\") */\n      mload(0x40)\n      tag_24\n      swap2\n      swap1\n      tag_18\n      jump\t// in\n    tag_24:\n      mload(0x40)\n      dup1\n      swap2\n      sub\n      swap1\n      log2\n        /* \"Chapter6/Ex6.01_indexed.sol\":310:386  {... */\n      pop\n        /* \"Chapter6/Ex6.01_indexed.sol\":272:386  function mul(uint _a, uint _b) public {... */\n      pop\n      pop\n      jump\t// out\n        /* \"#utility.yul\":7:146   */\n    tag_26:\n        /* \"#utility.yul\":53:58   */\n      0x00\n        /* \"#utility.yul\":91:97   */\n      dup2\n        /* \"#utility.yul\":78:98   */\n      calldataload\n        /* \"#utility.yul\":69:98   */\n      swap1\n      pop\n        /* \"#utility.yul\":107:140   */\n      tag_28\n        /* \"#utility.yul\":134:139   */\n      dup2\n        /* \"#utility.yul\":107:140   */\n      tag_29\n      jump\t// in\n    tag_28:\n        /* \"#utility.yul\":7:146   */\n      swap3\n      swap2\n      pop\n      pop\n      jump\t// out\n        /* \"#utility.yul\":152:626   */\n    tag_7:\n        /* \"#utility.yul\":220:226   */\n      0x00\n        /* \"#utility.yul\":228:234   */\n      dup1\n        /* \"#utility.yul\":277:279   */\n      0x40\n        /* \"#utility.yul\":265:274   */\n      dup4\n        /* \"#utility.yul\":256:263   */\n      dup6\n        /* \"#utility.yul\":252:275   */\n      sub\n        /* \"#utility.yul\":248:280   */\n      slt\n        /* \"#utility.yul\":245:364   */\n      iszero\n      tag_31\n      jumpi\n        /* \"#utility.yul\":283:362   */\n      tag_32\n      tag_33\n      jump\t// in\n    tag_32:\n        /* \"#utility.yul\":245:364   */\n    tag_31:\n        /* \"#utility.yul\":403:404   */\n      0x00\n        /* \"#utility.yul\":428:481   */\n      tag_34\n        /* \"#utility.yul\":473:480   */\n      dup6\n        /* \"#utility.yul\":464:470   */\n      dup3\n        /* \"#utility.yul\":453:462   */\n      dup7\n        /* \"#utility.yul\":449:471   */\n      add\n        /* \"#utility.yul\":428:481   */\n      tag_26\n      jump\t// in\n    tag_34:\n        /* \"#utility.yul\":418:481   */\n      swap3\n      pop\n        /* \"#utility.yul\":374:491   */\n      pop\n        /* \"#utility.yul\":530:532   */\n      0x20\n        /* \"#utility.yul\":556:609   */\n      tag_35\n        /* \"#utility.yul\":601:608   */\n      dup6\n        /* \"#utility.yul\":592:598   */\n      dup3\n        /* \"#utility.yul\":581:590   */\n      dup7\n        /* \"#utility.yul\":577:599   */\n      add\n        /* \"#utility.yul\":556:609   */\n      tag_26\n      jump\t// in\n    tag_35:\n        /* \"#utility.yul\":546:609   */\n      swap2\n      pop\n        /* \"#utility.yul\":501:619   */\n      pop\n        /* \"#utility.yul\":152:626   */\n      swap3\n      pop\n      swap3\n      swap1\n      pop\n      jump\t// out\n        /* \"#utility.yul\":632:1032   */\n    tag_36:\n        /* \"#utility.yul\":792:795   */\n      0x00\n        /* \"#utility.yul\":813:897   */\n      tag_38\n        /* \"#utility.yul\":895:896   */\n      0x03\n        /* \"#utility.yul\":890:893   */\n      dup4\n        /* \"#utility.yul\":813:897   */\n      tag_39\n      jump\t// in\n    tag_38:\n        /* \"#utility.yul\":806:897   */\n      swap2\n      pop\n        /* \"#utility.yul\":906:999   */\n      tag_40\n        /* \"#utility.yul\":995:998   */\n      dup3\n        /* \"#utility.yul\":906:999   */\n      tag_41\n      jump\t// in\n    tag_40:\n        /* \"#utility.yul\":1024:1025   */\n      0x03\n        /* \"#utility.yul\":1019:1022   */\n      dup3\n        /* \"#utility.yul\":1015:1026   */\n      add\n        /* \"#utility.yul\":1008:1026   */\n      swap1\n      pop\n        /* \"#utility.yul\":632:1032   */\n      swap2\n      swap1\n      pop\n      jump\t// out\n        /* \"#utility.yul\":1038:1438   */\n    tag_42:\n        /* \"#utility.yul\":1198:1201   */\n      0x00\n        /* \"#utility.yul\":1219:1303   */\n      tag_44\n        /* \"#utility.yul\":1301:1302   */\n      0x03\n        /* \"#utility.yul\":1296:1299   */\n      dup4\n        /* \"#utility.yul\":1219:1303   */\n      tag_39\n      jump\t// in\n    tag_44:\n        /* \"#utility.yul\":1212:1303   */\n      swap2\n      pop\n        /* \"#utility.yul\":1312:1405   */\n      tag_45\n        /* \"#utility.yul\":1401:1404   */\n      dup3\n        /* \"#utility.yul\":1312:1405   */\n      tag_46\n      jump\t// in\n    tag_45:\n        /* \"#utility.yul\":1430:1431   */\n      0x03\n        /* \"#utility.yul\":1425:1428   */\n      dup3\n        /* \"#utility.yul\":1421:1432   */\n      add\n        /* \"#utility.yul\":1414:1432   */\n      swap1\n      pop\n        /* \"#utility.yul\":1038:1438   */\n      swap2\n      swap1\n      pop\n      jump\t// out\n        /* \"#utility.yul\":1444:1562   */\n    tag_47:\n        /* \"#utility.yul\":1531:1555   */\n      tag_49\n        /* \"#utility.yul\":1549:1554   */\n      dup2\n        /* \"#utility.yul\":1531:1555   */\n      tag_50\n      jump\t// in\n    tag_49:\n        /* \"#utility.yul\":1526:1529   */\n      dup3\n        /* \"#utility.yul\":1519:1556   */\n      mstore\n        /* \"#utility.yul\":1444:1562   */\n      pop\n      pop\n      jump\t// out\n        /* \"#utility.yul\":1568:1949   */\n    tag_23:\n        /* \"#utility.yul\":1753:1756   */\n      0x00\n        /* \"#utility.yul\":1775:1923   */\n      tag_52\n        /* \"#utility.yul\":1919:1922   */\n      dup3\n        /* \"#utility.yul\":1775:1923   */\n      tag_36\n      jump\t// in\n    tag_52:\n        /* \"#utility.yul\":1768:1923   */\n      swap2\n      pop\n        /* \"#utility.yul\":1940:1943   */\n      dup2\n        /* \"#utility.yul\":1933:1943   */\n      swap1\n      pop\n        /* \"#utility.yul\":1568:1949   */\n      swap2\n      swap1\n      pop\n      jump\t// out\n        /* \"#utility.yul\":1955:2336   */\n    tag_16:\n        /* \"#utility.yul\":2140:2143   */\n      0x00\n        /* \"#utility.yul\":2162:2310   */\n      tag_54\n        /* \"#utility.yul\":2306:2309   */\n      dup3\n        /* \"#utility.yul\":2162:2310   */\n      tag_42\n      jump\t// in\n    tag_54:\n        /* \"#utility.yul\":2155:2310   */\n      swap2\n      pop\n        /* \"#utility.yul\":2327:2330   */\n      dup2\n        /* \"#utility.yul\":2320:2330   */\n      swap1\n      pop\n        /* \"#utility.yul\":1955:2336   */\n      swap2\n      swap1\n      pop\n      jump\t// out\n        /* \"#utility.yul\":2342:2564   */\n    tag_18:\n        /* \"#utility.yul\":2435:2439   */\n      0x00\n        /* \"#utility.yul\":2473:2475   */\n      0x20\n        /* \"#utility.yul\":2462:2471   */\n      dup3\n        /* \"#utility.yul\":2458:2476   */\n      add\n        /* \"#utility.yul\":2450:2476   */\n      swap1\n      pop\n        /* \"#utility.yul\":2486:2557   */\n      tag_56\n        /* \"#utility.yul\":2554:2555   */\n      0x00\n        /* \"#utility.yul\":2543:2552   */\n      dup4\n        /* \"#utility.yul\":2539:2556   */\n      add\n        /* \"#utility.yul\":2530:2536   */\n      dup5\n        /* \"#utility.yul\":2486:2557   */\n      tag_47\n      jump\t// in\n    tag_56:\n        /* \"#utility.yul\":2342:2564   */\n      swap3\n      swap2\n      pop\n      pop\n      jump\t// out\n        /* \"#utility.yul\":2651:2799   */\n    tag_39:\n        /* \"#utility.yul\":2753:2764   */\n      0x00\n        /* \"#utility.yul\":2790:2793   */\n      dup2\n        /* \"#utility.yul\":2775:2793   */\n      swap1\n      pop\n        /* \"#utility.yul\":2651:2799   */\n      swap3\n      swap2\n      pop\n      pop\n      jump\t// out\n        /* \"#utility.yul\":2805:3110   */\n    tag_14:\n        /* \"#utility.yul\":2845:2848   */\n      0x00\n        /* \"#utility.yul\":2864:2884   */\n      tag_61\n        /* \"#utility.yul\":2882:2883   */\n      dup3\n        /* \"#utility.yul\":2864:2884   */\n      tag_50\n      jump\t// in\n    tag_61:\n        /* \"#utility.yul\":2859:2884   */\n      swap2\n      pop\n        /* \"#utility.yul\":2898:2918   */\n      tag_62\n        /* \"#utility.yul\":2916:2917   */\n      dup4\n        /* \"#utility.yul\":2898:2918   */\n      tag_50\n      jump\t// in\n    tag_62:\n        /* \"#utility.yul\":2893:2918   */\n      swap3\n      pop\n        /* \"#utility.yul\":3052:3053   */\n      dup3\n        /* \"#utility.yul\":2984:3050   */\n      0xffffffffffffffffffffffffffffffffffffffffffffffffffffffffffffffff\n        /* \"#utility.yul\":2980:3054   */\n      sub\n        /* \"#utility.yul\":2977:2978   */\n      dup3\n        /* \"#utility.yul\":2974:3055   */\n      gt\n        /* \"#utility.yul\":2971:3078   */\n      iszero\n      tag_63\n      jumpi\n        /* \"#utility.yul\":3058:3076   */\n      tag_64\n      tag_65\n      jump\t// in\n    tag_64:\n        /* \"#utility.yul\":2971:3078   */\n    tag_63:\n        /* \"#utility.yul\":3102:3103   */\n      dup3\n        /* \"#utility.yul\":3099:3100   */\n      dup3\n        /* \"#utility.yul\":3095:3104   */\n      add\n        /* \"#utility.yul\":3088:3104   */\n      swap1\n      pop\n        /* \"#utility.yul\":2805:3110   */\n      swap3\n      swap2\n      pop\n      pop\n      jump\t// out\n        /* \"#utility.yul\":3116:3464   */\n    tag_21:\n        /* \"#utility.yul\":3156:3163   */\n      0x00\n        /* \"#utility.yul\":3179:3199   */\n      tag_67\n        /* \"#utility.yul\":3197:3198   */\n      dup3\n        /* \"#utility.yul\":3179:3199   */\n      tag_50\n      jump\t// in\n    tag_67:\n        /* \"#utility.yul\":3174:3199   */\n      swap2\n      pop\n        /* \"#utility.yul\":3213:3233   */\n      tag_68\n        /* \"#utility.yul\":3231:3232   */\n      dup4\n        /* \"#utility.yul\":3213:3233   */\n      tag_50\n      jump\t// in\n    tag_68:\n        /* \"#utility.yul\":3208:3233   */\n      swap3\n      pop\n        /* \"#utility.yul\":3401:3402   */\n      dup2\n        /* \"#utility.yul\":3333:3399   */\n      0xffffffffffffffffffffffffffffffffffffffffffffffffffffffffffffffff\n        /* \"#utility.yul\":3329:3403   */\n      div\n        /* \"#utility.yul\":3326:3327   */\n      dup4\n        /* \"#utility.yul\":3323:3404   */\n      gt\n        /* \"#utility.yul\":3318:3319   */\n      dup3\n        /* \"#utility.yul\":3311:3320   */\n      iszero\n        /* \"#utility.yul\":3304:3321   */\n      iszero\n        /* \"#utility.yul\":3300:3405   */\n      and\n        /* \"#utility.yul\":3297:3428   */\n      iszero\n      tag_69\n      jumpi\n        /* \"#utility.yul\":3408:3426   */\n      tag_70\n      tag_65\n      jump\t// in\n    tag_70:\n        /* \"#utility.yul\":3297:3428   */\n    tag_69:\n        /* \"#utility.yul\":3456:3457   */\n      dup3\n        /* \"#utility.yul\":3453:3454   */\n      dup3\n        /* \"#utility.yul\":3449:3458   */\n      mul\n        /* \"#utility.yul\":3438:3458   */\n      swap1\n      pop\n        /* \"#utility.yul\":3116:3464   */\n      swap3\n      swap2\n      pop\n      pop\n      jump\t// out\n        /* \"#utility.yul\":3470:3547   */\n    tag_50:\n        /* \"#utility.yul\":3507:3514   */\n      0x00\n        /* \"#utility.yul\":3536:3541   */\n      dup2\n        /* \"#utility.yul\":3525:3541   */\n      swap1\n      pop\n        /* \"#utility.yul\":3470:3547   */\n      swap2\n      swap1\n      pop\n      jump\t// out\n        /* \"#utility.yul\":3553:3733   */\n    tag_65:\n        /* \"#utility.yul\":3601:3678   */\n      0x4e487b7100000000000000000000000000000000000000000000000000000000\n        /* \"#utility.yul\":3598:3599   */\n      0x00\n        /* \"#utility.yul\":3591:3679   */\n      mstore\n        /* \"#utility.yul\":3698:3702   */\n      0x11\n        /* \"#utility.yul\":3695:3696   */\n      0x04\n        /* \"#utility.yul\":3688:3703   */\n      mstore\n        /* \"#utility.yul\":3722:3726   */\n      0x24\n        /* \"#utility.yul\":3719:3720   */\n      0x00\n        /* \"#utility.yul\":3712:3727   */\n      revert\n        /* \"#utility.yul\":3862:3979   */\n    tag_33:\n        /* \"#utility.yul\":3971:3972   */\n      0x00\n        /* \"#utility.yul\":3968:3969   */\n      dup1\n        /* \"#utility.yul\":3961:3973   */\n      revert\n        /* \"#utility.yul\":3985:4138   */\n    tag_41:\n        /* \"#utility.yul\":4125:4130   */\n      0x6d756c0000000000000000000000000000000000000000000000000000000000\n        /* \"#utility.yul\":4121:4122   */\n      0x00\n        /* \"#utility.yul\":4113:4119   */\n      dup3\n        /* \"#utility.yul\":4109:4123   */\n      add\n        /* \"#utility.yul\":4102:4131   */\n      mstore\n        /* \"#utility.yul\":3985:4138   */\n      pop\n      jump\t// out\n        /* \"#utility.yul\":4144:4297   */\n    tag_46:\n        /* \"#utility.yul\":4284:4289   */\n      0x6164640000000000000000000000000000000000000000000000000000000000\n        /* \"#utility.yul\":4280:4281   */\n      0x00\n        /* \"#utility.yul\":4272:4278   */\n      dup3\n        /* \"#utility.yul\":4268:4282   */\n      add\n        /* \"#utility.yul\":4261:4290   */\n      mstore\n        /* \"#utility.yul\":4144:4297   */\n      pop\n      jump\t// out\n        /* \"#utility.yul\":4303:4425   */\n    tag_29:\n        /* \"#utility.yul\":4376:4400   */\n      tag_79\n        /* \"#utility.yul\":4394:4399   */\n      dup2\n        /* \"#utility.yul\":4376:4400   */\n      tag_50\n      jump\t// in\n    tag_79:\n        /* \"#utility.yul\":4369:4374   */\n      dup2\n        /* \"#utility.yul\":4366:4401   */\n      eq\n        /* \"#utility.yul\":4356:4419   */\n      tag_80\n      jumpi\n        /* \"#utility.yul\":4415:4416   */\n      0x00\n        /* \"#utility.yul\":4412:4413   */\n      dup1\n        /* \"#utility.yul\":4405:4417   */\n      revert\n        /* \"#utility.yul\":4356:4419   */\n    tag_80:\n        /* \"#utility.yul\":4303:4425   */\n      pop\n      jump\t// out\n\n    auxdata: 0xa2646970667358221220ba94fbd48461bf704a542e981a7908a9eecee481d95026d9ec064f5803ff25be64736f6c63430008070033\n}\n",
				"bytecode": {
					"linkReferences": {},
					"object": "608060405234801561001057600080fd5b506103ba806100206000396000f3fe608060405234801561001057600080fd5b50600436106100365760003560e01c8063771602f71461003b578063c8a4ac9c14610057575b600080fd5b61005560048036038101906100509190610148565b610073565b005b610071600480360381019061006c9190610148565b6100d3565b005b60008183610081919061022d565b905060405161008f906101f2565b60405180910390207fc782686e55700c1a67821f5be6d214bb892d74f7667202c2c1c4ac7f45d9a058826040516100c69190610207565b60405180910390a2505050565b600081836100e19190610283565b90506040516100ef906101dd565b60405180910390207fc782686e55700c1a67821f5be6d214bb892d74f7667202c2c1c4ac7f45d9a058826040516101269190610207565b60405180910390a2505050565b6000813590506101428161036d565b92915050565b6000806040838503121561015f5761015e610316565b5b600061016d85828601610133565b925050602061017e85828601610133565b9150509250929050565b6000610195600383610222565b91506101a08261031b565b600382019050919050565b60006101b8600383610222565b91506101c382610344565b600382019050919050565b6101d7816102dd565b82525050565b60006101e882610188565b9150819050919050565b60006101fd826101ab565b9150819050919050565b600060208201905061021c60008301846101ce565b92915050565b600081905092915050565b6000610238826102dd565b9150610243836102dd565b9250827fffffffffffffffffffffffffffffffffffffffffffffffffffffffffffffffff03821115610278576102776102e7565b5b828201905092915050565b600061028e826102dd565b9150610299836102dd565b9250817fffffffffffffffffffffffffffffffffffffffffffffffffffffffffffffffff04831182151516156102d2576102d16102e7565b5b828202905092915050565b6000819050919050565b7f4e487b7100000000000000000000000000000000000000000000000000000000600052601160045260246000fd5b600080fd5b7f6d756c0000000000000000000000000000000000000000000000000000000000600082015250565b7f6164640000000000000000000000000000000000000000000000000000000000600082015250565b610376816102dd565b811461038157600080fd5b5056fea2646970667358221220ba94fbd48461bf704a542e981a7908a9eecee481d95026d9ec064f5803ff25be64736f6c63430008070033",
					"opcodes": "PUSH1 0x80 PUSH1 0x40 MSTORE CALLVALUE DUP1 ISZERO PUSH2 0x10 JUMPI PUSH1 0x0 DUP1 REVERT JUMPDEST POP PUSH2 0x3BA DUP1 PUSH2 0x20 PUSH1 0x0 CODECOPY PUSH1 0x0 RETURN INVALID PUSH1 0x80 PUSH1 0x40 MSTORE CALLVALUE DUP1 ISZERO PUSH2 0x10 JUMPI PUSH1 0x0 DUP1 REVERT JUMPDEST POP PUSH1 0x4 CALLDATASIZE LT PUSH2 0x36 JUMPI PUSH1 0x0 CALLDATALOAD PUSH1 0xE0 SHR DUP1 PUSH4 0x771602F7 EQ PUSH2 0x3B JUMPI DUP1 PUSH4 0xC8A4AC9C EQ PUSH2 0x57 JUMPI JUMPDEST PUSH1 0x0 DUP1 REVERT JUMPDEST PUSH2 0x55 PUSH1 0x4 DUP1 CALLDATASIZE SUB DUP2 ADD SWAP1 PUSH2 0x50 SWAP2 SWAP1 PUSH2 0x148 JUMP JUMPDEST PUSH2 0x73 JUMP JUMPDEST STOP JUMPDEST PUSH2 0x71 PUSH1 0x4 DUP1 CALLDATASIZE SUB DUP2 ADD SWAP1 PUSH2 0x6C SWAP2 SWAP1 PUSH2 0x148 JUMP JUMPDEST PUSH2 0xD3 JUMP JUMPDEST STOP JUMPDEST PUSH1 0x0 DUP2 DUP4 PUSH2 0x81 SWAP2 SWAP1 PUSH2 0x22D JUMP JUMPDEST SWAP1 POP PUSH1 0x40 MLOAD PUSH2 0x8F SWAP1 PUSH2 0x1F2 JUMP JUMPDEST PUSH1 0x40 MLOAD DUP1 SWAP2 SUB SWAP1 KECCAK256 PUSH32 0xC782686E55700C1A67821F5BE6D214BB892D74F7667202C2C1C4AC7F45D9A058 DUP3 PUSH1 0x40 MLOAD PUSH2 0xC6 SWAP2 SWAP1 PUSH2 0x207 JUMP JUMPDEST PUSH1 0x40 MLOAD DUP1 SWAP2 SUB SWAP1 LOG2 POP POP POP JUMP JUMPDEST PUSH1 0x0 DUP2 DUP4 PUSH2 0xE1 SWAP2 SWAP1 PUSH2 0x283 JUMP JUMPDEST SWAP1 POP PUSH1 0x40 MLOAD PUSH2 0xEF SWAP1 PUSH2 0x1DD JUMP JUMPDEST PUSH1 0x40 MLOAD DUP1 SWAP2 SUB SWAP1 KECCAK256 PUSH32 0xC782686E55700C1A67821F5BE6D214BB892D74F7667202C2C1C4AC7F45D9A058 DUP3 PUSH1 0x40 MLOAD PUSH2 0x126 SWAP2 SWAP1 PUSH2 0x207 JUMP JUMPDEST PUSH1 0x40 MLOAD DUP1 SWAP2 SUB SWAP1 LOG2 POP POP POP JUMP JUMPDEST PUSH1 0x0 DUP2 CALLDATALOAD SWAP1 POP PUSH2 0x142 DUP2 PUSH2 0x36D JUMP JUMPDEST SWAP3 SWAP2 POP POP JUMP JUMPDEST PUSH1 0x0 DUP1 PUSH1 0x40 DUP4 DUP6 SUB SLT ISZERO PUSH2 0x15F JUMPI PUSH2 0x15E PUSH2 0x316 JUMP JUMPDEST JUMPDEST PUSH1 0x0 PUSH2 0x16D DUP6 DUP3 DUP7 ADD PUSH2 0x133 JUMP JUMPDEST SWAP3 POP POP PUSH1 0x20 PUSH2 0x17E DUP6 DUP3 DUP7 ADD PUSH2 0x133 JUMP JUMPDEST SWAP2 POP POP SWAP3 POP SWAP3 SWAP1 POP JUMP JUMPDEST PUSH1 0x0 PUSH2 0x195 PUSH1 0x3 DUP4 PUSH2 0x222 JUMP JUMPDEST SWAP2 POP PUSH2 0x1A0 DUP3 PUSH2 0x31B JUMP JUMPDEST PUSH1 0x3 DUP3 ADD SWAP1 POP SWAP2 SWAP1 POP JUMP JUMPDEST PUSH1 0x0 PUSH2 0x1B8 PUSH1 0x3 DUP4 PUSH2 0x222 JUMP JUMPDEST SWAP2 POP PUSH2 0x1C3 DUP3 PUSH2 0x344 JUMP JUMPDEST PUSH1 0x3 DUP3 ADD SWAP1 POP SWAP2 SWAP1 POP JUMP JUMPDEST PUSH2 0x1D7 DUP2 PUSH2 0x2DD JUMP JUMPDEST DUP3 MSTORE POP POP JUMP JUMPDEST PUSH1 0x0 PUSH2 0x1E8 DUP3 PUSH2 0x188 JUMP JUMPDEST SWAP2 POP DUP2 SWAP1 POP SWAP2 SWAP1 POP JUMP JUMPDEST PUSH1 0x0 PUSH2 0x1FD DUP3 PUSH2 0x1AB JUMP JUMPDEST SWAP2 POP DUP2 SWAP1 POP SWAP2 SWAP1 POP JUMP JUMPDEST PUSH1 0x0 PUSH1 0x20 DUP3 ADD SWAP1 POP PUSH2 0x21C PUSH1 0x0 DUP4 ADD DUP5 PUSH2 0x1CE JUMP JUMPDEST SWAP3 SWAP2 POP POP JUMP JUMPDEST PUSH1 0x0 DUP2 SWAP1 POP SWAP3 SWAP2 POP POP JUMP JUMPDEST PUSH1 0x0 PUSH2 0x238 DUP3 PUSH2 0x2DD JUMP JUMPDEST SWAP2 POP PUSH2 0x243 DUP4 PUSH2 0x2DD JUMP JUMPDEST SWAP3 POP DUP3 PUSH32 0xFFFFFFFFFFFFFFFFFFFFFFFFFFFFFFFFFFFFFFFFFFFFFFFFFFFFFFFFFFFFFFFF SUB DUP3 GT ISZERO PUSH2 0x278 JUMPI PUSH2 0x277 PUSH2 0x2E7 JUMP JUMPDEST JUMPDEST DUP3 DUP3 ADD SWAP1 POP SWAP3 SWAP2 POP POP JUMP JUMPDEST PUSH1 0x0 PUSH2 0x28E DUP3 PUSH2 0x2DD JUMP JUMPDEST SWAP2 POP PUSH2 0x299 DUP4 PUSH2 0x2DD JUMP JUMPDEST SWAP3 POP DUP2 PUSH32 0xFFFFFFFFFFFFFFFFFFFFFFFFFFFFFFFFFFFFFFFFFFFFFFFFFFFFFFFFFFFFFFFF DIV DUP4 GT DUP3 ISZERO ISZERO AND ISZERO PUSH2 0x2D2 JUMPI PUSH2 0x2D1 PUSH2 0x2E7 JUMP JUMPDEST JUMPDEST DUP3 DUP3 MUL SWAP1 POP SWAP3 SWAP2 POP POP JUMP JUMPDEST PUSH1 0x0 DUP2 SWAP1 POP SWAP2 SWAP1 POP JUMP JUMPDEST PUSH32 0x4E487B7100000000000000000000000000000000000000000000000000000000 PUSH1 0x0 MSTORE PUSH1 0x11 PUSH1 0x4 MSTORE PUSH1 0x24 PUSH1 0x0 REVERT JUMPDEST PUSH1 0x0 DUP1 REVERT JUMPDEST PUSH32 0x6D756C0000000000000000000000000000000000000000000000000000000000 PUSH1 0x0 DUP3 ADD MSTORE POP JUMP JUMPDEST PUSH32 0x6164640000000000000000000000000000000000000000000000000000000000 PUSH1 0x0 DUP3 ADD MSTORE POP JUMP JUMPDEST PUSH2 0x376 DUP2 PUSH2 0x2DD JUMP JUMPDEST DUP2 EQ PUSH2 0x381 JUMPI PUSH1 0x0 DUP1 REVERT JUMPDEST POP JUMP INVALID LOG2 PUSH5 0x6970667358 0x22 SLT KECCAK256 0xBA SWAP5 0xFB 0xD4 DUP5 PUSH2 0xBF70 0x4A SLOAD 0x2E SWAP9 BYTE PUSH26 0x8A9EECEE481D95026D9EC064F5803FF25BE64736F6C63430008 SMOD STOP CALLER "
				},
				"gasEstimates": {
					"creation": {
						"codeDepositCost": "190800",
						"executionCost": "232",
						"totalCost": "191032"
					},
					"external": {
						"add(uint256,uint256)": "infinite",
						"mul(uint256,uint256)": "infinite"
					}
				},
				"methodIdentifiers": {
					"add(uint256,uint256)": "771602f7",
					"mul(uint256,uint256)": "c8a4ac9c"
				}
			},
			"storageLayout": {
				"storage": [],
				"types": null
			},
			"userdoc": {
				"kind": "user",
				"methods": {},
				"version": 1
			}
		}
	}
}