{
	"Chapter6/Ex6.16.sol": {
		"Computer": {
			"abi": [
				{
					"inputs": [],
					"name": "boot",
					"outputs": [
						{
							"internalType": "uint256",
							"name": "",
							"type": "uint256"
						},
						{
							"internalType": "bool",
							"name": "",
							"type": "bool"
						}
					],
					"stateMutability": "nonpayable",
					"type": "function"
				}
			],
			"devdoc": {
				"kind": "dev",
				"methods": {},
				"version": 1
			},
			"evm": {
				"assembly": "    /* \"Chapter6/Ex6.16.sol\":590:898  contract Computer is System {... */\n  mstore(0x40, 0x80)\n  callvalue\n  dup1\n  iszero\n  tag_1\n  jumpi\n  0x00\n  dup1\n  revert\ntag_1:\n  pop\n  dataSize(sub_0)\n  dup1\n  dataOffset(sub_0)\n  0x00\n  codecopy\n  0x00\n  return\nstop\n\nsub_0: assembly {\n        /* \"Chapter6/Ex6.16.sol\":590:898  contract Computer is System {... */\n      mstore(0x40, 0x80)\n      callvalue\n      dup1\n      iszero\n      tag_1\n      jumpi\n      0x00\n      dup1\n      revert\n    tag_1:\n      pop\n      jumpi(tag_2, lt(calldatasize, 0x04))\n      shr(0xe0, calldataload(0x00))\n      dup1\n      0x54d44bf7\n      eq\n      tag_3\n      jumpi\n    tag_2:\n      0x00\n      dup1\n      revert\n        /* \"Chapter6/Ex6.16.sol\":454:587  function boot() public returns(uint, bool) {... */\n    tag_3:\n      tag_4\n      tag_5\n      jump\t// in\n    tag_4:\n      mload(0x40)\n      tag_6\n      swap3\n      swap2\n      swap1\n      tag_7\n      jump\t// in\n    tag_6:\n      mload(0x40)\n      dup1\n      swap2\n      sub\n      swap1\n      return\n    tag_5:\n        /* \"Chapter6/Ex6.16.sol\":485:489  uint */\n      0x00\n        /* \"Chapter6/Ex6.16.sol\":491:495  bool */\n      dup1\n        /* \"Chapter6/Ex6.16.sol\":507:521  versionCheck() */\n      tag_9\n        /* \"Chapter6/Ex6.16.sol\":507:519  versionCheck */\n      tag_10\n        /* \"Chapter6/Ex6.16.sol\":507:521  versionCheck() */\n      jump\t// in\n    tag_9:\n        /* \"Chapter6/Ex6.16.sol\":531:543  errorCheck() */\n      tag_11\n        /* \"Chapter6/Ex6.16.sol\":531:541  errorCheck */\n      tag_12\n        /* \"Chapter6/Ex6.16.sol\":531:543  errorCheck() */\n      jump\t// in\n    tag_11:\n        /* \"Chapter6/Ex6.16.sol\":561:568  version */\n      sload(0x00)\n        /* \"Chapter6/Ex6.16.sol\":570:579  errorPass */\n      0x01\n      0x00\n      swap1\n      sload\n      swap1\n      0x0100\n      exp\n      swap1\n      div\n      0xff\n      and\n        /* \"Chapter6/Ex6.16.sol\":553:580  return (version, errorPass) */\n      swap2\n      pop\n      swap2\n      pop\n        /* \"Chapter6/Ex6.16.sol\":454:587  function boot() public returns(uint, bool) {... */\n      swap1\n      swap2\n      jump\t// out\n        /* \"Chapter6/Ex6.16.sol\":743:814  function versionCheck () internal override {... */\n    tag_10:\n        /* \"Chapter6/Ex6.16.sol\":806:807  3 */\n      0x03\n        /* \"Chapter6/Ex6.16.sol\":796:803  version */\n      0x00\n        /* \"Chapter6/Ex6.16.sol\":796:807  version = 3 */\n      dup2\n      swap1\n      sstore\n      pop\n        /* \"Chapter6/Ex6.16.sol\":743:814  function versionCheck () internal override {... */\n      jump\t// out\n        /* \"Chapter6/Ex6.16.sol\":822:896  function errorCheck () internal override {... */\n    tag_12:\n        /* \"Chapter6/Ex6.16.sol\":885:889  true */\n      0x01\n        /* \"Chapter6/Ex6.16.sol\":873:882  errorPass */\n      dup1\n      0x00\n        /* \"Chapter6/Ex6.16.sol\":873:889  errorPass = true */\n      0x0100\n      exp\n      dup2\n      sload\n      dup2\n      0xff\n      mul\n      not\n      and\n      swap1\n      dup4\n      iszero\n      iszero\n      mul\n      or\n      swap1\n      sstore\n      pop\n        /* \"Chapter6/Ex6.16.sol\":822:896  function errorCheck () internal override {... */\n      jump\t// out\n        /* \"#utility.yul\":7:116   */\n    tag_16:\n        /* \"#utility.yul\":88:109   */\n      tag_18\n        /* \"#utility.yul\":103:108   */\n      dup2\n        /* \"#utility.yul\":88:109   */\n      tag_19\n      jump\t// in\n    tag_18:\n        /* \"#utility.yul\":83:86   */\n      dup3\n        /* \"#utility.yul\":76:110   */\n      mstore\n        /* \"#utility.yul\":7:116   */\n      pop\n      pop\n      jump\t// out\n        /* \"#utility.yul\":122:240   */\n    tag_20:\n        /* \"#utility.yul\":209:233   */\n      tag_22\n        /* \"#utility.yul\":227:232   */\n      dup2\n        /* \"#utility.yul\":209:233   */\n      tag_23\n      jump\t// in\n    tag_22:\n        /* \"#utility.yul\":204:207   */\n      dup3\n        /* \"#utility.yul\":197:234   */\n      mstore\n        /* \"#utility.yul\":122:240   */\n      pop\n      pop\n      jump\t// out\n        /* \"#utility.yul\":246:566   */\n    tag_7:\n        /* \"#utility.yul\":361:365   */\n      0x00\n        /* \"#utility.yul\":399:401   */\n      0x40\n        /* \"#utility.yul\":388:397   */\n      dup3\n        /* \"#utility.yul\":384:402   */\n      add\n        /* \"#utility.yul\":376:402   */\n      swap1\n      pop\n        /* \"#utility.yul\":412:483   */\n      tag_25\n        /* \"#utility.yul\":480:481   */\n      0x00\n        /* \"#utility.yul\":469:478   */\n      dup4\n        /* \"#utility.yul\":465:482   */\n      add\n        /* \"#utility.yul\":456:462   */\n      dup6\n        /* \"#utility.yul\":412:483   */\n      tag_20\n      jump\t// in\n    tag_25:\n        /* \"#utility.yul\":493:559   */\n      tag_26\n        /* \"#utility.yul\":555:557   */\n      0x20\n        /* \"#utility.yul\":544:553   */\n      dup4\n        /* \"#utility.yul\":540:558   */\n      add\n        /* \"#utility.yul\":531:537   */\n      dup5\n        /* \"#utility.yul\":493:559   */\n      tag_16\n      jump\t// in\n    tag_26:\n        /* \"#utility.yul\":246:566   */\n      swap4\n      swap3\n      pop\n      pop\n      pop\n      jump\t// out\n        /* \"#utility.yul\":572:662   */\n    tag_19:\n        /* \"#utility.yul\":606:613   */\n      0x00\n        /* \"#utility.yul\":649:654   */\n      dup2\n        /* \"#utility.yul\":642:655   */\n      iszero\n        /* \"#utility.yul\":635:656   */\n      iszero\n        /* \"#utility.yul\":624:656   */\n      swap1\n      pop\n        /* \"#utility.yul\":572:662   */\n      swap2\n      swap1\n      pop\n      jump\t// out\n        /* \"#utility.yul\":668:745   */\n    tag_23:\n        /* \"#utility.yul\":705:712   */\n      0x00\n        /* \"#utility.yul\":734:739   */\n      dup2\n        /* \"#utility.yul\":723:739   */\n      swap1\n      pop\n        /* \"#utility.yul\":668:745   */\n      swap2\n      swap1\n      pop\n      jump\t// out\n\n    auxdata: 0xa26469706673582212202de4c2b64edde4072bd6a8a4224b55e034436ab628ad2955aebf38b40487ac4b64736f6c63430008070033\n}\n",
				"bytecode": {
					"linkReferences": {},
					"object": "608060405234801561001057600080fd5b50610123806100206000396000f3fe6080604052348015600f57600080fd5b506004361060285760003560e01c806354d44bf714602d575b600080fd5b60336048565b604051603f92919060b2565b60405180910390f35b60008060516072565b6057607c565b600054600160009054906101000a900460ff16915091509091565b6003600081905550565b60018060006101000a81548160ff021916908315150217905550565b609f8160d7565b82525050565b60ac8160e3565b82525050565b600060408201905060c5600083018560a5565b60d060208301846098565b9392505050565b60008115159050919050565b600081905091905056fea26469706673582212202de4c2b64edde4072bd6a8a4224b55e034436ab628ad2955aebf38b40487ac4b64736f6c63430008070033",
					"opcodes": "PUSH1 0x80 PUSH1 0x40 MSTORE CALLVALUE DUP1 ISZERO PUSH2 0x10 JUMPI PUSH1 0x0 DUP1 REVERT JUMPDEST POP PUSH2 0x123 DUP1 PUSH2 0x20 PUSH1 0x0 CODECOPY PUSH1 0x0 RETURN INVALID PUSH1 0x80 PUSH1 0x40 MSTORE CALLVALUE DUP1 ISZERO PUSH1 0xF JUMPI PUSH1 0x0 DUP1 REVERT JUMPDEST POP PUSH1 0x4 CALLDATASIZE LT PUSH1 0x28 JUMPI PUSH1 0x0 CALLDATALOAD PUSH1 0xE0 SHR DUP1 PUSH4 0x54D44BF7 EQ PUSH1 0x2D JUMPI JUMPDEST PUSH1 0x0 DUP1 REVERT JUMPDEST PUSH1 0x33 PUSH1 0x48 JUMP JUMPDEST PUSH1 0x40 MLOAD PUSH1 0x3F SWAP3 SWAP2 SWAP1 PUSH1 0xB2 JUMP JUMPDEST PUSH1 0x40 MLOAD DUP1 SWAP2 SUB SWAP1 RETURN JUMPDEST PUSH1 0x0 DUP1 PUSH1 0x51 PUSH1 0x72 JUMP JUMPDEST PUSH1 0x57 PUSH1 0x7C JUMP JUMPDEST PUSH1 0x0 SLOAD PUSH1 0x1 PUSH1 0x0 SWAP1 SLOAD SWAP1 PUSH2 0x100 EXP SWAP1 DIV PUSH1 0xFF AND SWAP2 POP SWAP2 POP SWAP1 SWAP2 JUMP JUMPDEST PUSH1 0x3 PUSH1 0x0 DUP2 SWAP1 SSTORE POP JUMP JUMPDEST PUSH1 0x1 DUP1 PUSH1 0x0 PUSH2 0x100 EXP DUP2 SLOAD DUP2 PUSH1 0xFF MUL NOT AND SWAP1 DUP4 ISZERO ISZERO MUL OR SWAP1 SSTORE POP JUMP JUMPDEST PUSH1 0x9F DUP2 PUSH1 0xD7 JUMP JUMPDEST DUP3 MSTORE POP POP JUMP JUMPDEST PUSH1 0xAC DUP2 PUSH1 0xE3 JUMP JUMPDEST DUP3 MSTORE POP POP JUMP JUMPDEST PUSH1 0x0 PUSH1 0x40 DUP3 ADD SWAP1 POP PUSH1 0xC5 PUSH1 0x0 DUP4 ADD DUP6 PUSH1 0xA5 JUMP JUMPDEST PUSH1 0xD0 PUSH1 0x20 DUP4 ADD DUP5 PUSH1 0x98 JUMP JUMPDEST SWAP4 SWAP3 POP POP POP JUMP JUMPDEST PUSH1 0x0 DUP2 ISZERO ISZERO SWAP1 POP SWAP2 SWAP1 POP JUMP JUMPDEST PUSH1 0x0 DUP2 SWAP1 POP SWAP2 SWAP1 POP JUMP INVALID LOG2 PUSH5 0x6970667358 0x22 SLT KECCAK256 0x2D 0xE4 0xC2 0xB6 0x4E 0xDD 0xE4 SMOD 0x2B 0xD6 0xA8 LOG4 0x22 0x4B SSTORE 0xE0 CALLVALUE NUMBER PUSH11 0xB628AD2955AEBF38B40487 0xAC 0x4B PUSH5 0x736F6C6343 STOP ADDMOD SMOD STOP CALLER "
				},
				"gasEstimates": {
					"creation": {
						"codeDepositCost": "58200",
						"executionCost": "111",
						"totalCost": "58311"
					},
					"external": {
						"boot()": "51100"
					},
					"internal": {
						"errorCheck()": "24276",
						"versionCheck()": "22123"
					}
				},
				"methodIdentifiers": {
					"boot()": "54d44bf7"
				}
			},
			"storageLayout": {
				"storage": [
					{
						"astId": 3,
						"contract": "Chapter6/Ex6.16.sol:Computer",
						"label": "version",
						"offset": 0,
						"slot": "0",
						"type": "t_uint256"
					},
					{
						"astId": 5,
						"contract": "Chapter6/Ex6.16.sol:Computer",
						"label": "errorPass",
						"offset": 0,
						"slot": "1",
						"type": "t_bool"
					}
				],
				"types": {
					"t_bool": {
						"encoding": "inplace",
						"label": "bool",
						"numberOfBytes": "1"
					},
					"t_uint256": {
						"encoding": "inplace",
						"label": "uint256",
						"numberOfBytes": "32"
					}
				}
			},
			"userdoc": {
				"kind": "user",
				"methods": {},
				"version": 1
			}
		}
	}
}