{
	"Chapter6/Ex6.15.sol": {
		"ArtStudent": {
			"abi": [
				{
					"inputs": [
						{
							"internalType": "uint256",
							"name": "_schoolHours",
							"type": "uint256"
						}
					],
					"stateMutability": "nonpayable",
					"type": "constructor"
				},
				{
					"inputs": [],
					"name": "time",
					"outputs": [
						{
							"internalType": "uint256",
							"name": "",
							"type": "uint256"
						}
					],
					"stateMutability": "nonpayable",
					"type": "function"
				}
			],
			"devdoc": {
				"kind": "dev",
				"methods": {},
				"version": 1
			},
			"evm": {
				"assembly": "    /* \"Chapter6/Ex6.15.sol\":85:292  contract ArtStudent {... */\n  mstore(0x40, 0x80)\n    /* \"Chapter6/Ex6.15.sol\":142:215  constructor(uint _schoolHours){... */\n  callvalue\n  dup1\n  iszero\n  tag_1\n  jumpi\n  0x00\n  dup1\n  revert\ntag_1:\n  pop\n  mload(0x40)\n  sub(codesize, bytecodeSize)\n  dup1\n  bytecodeSize\n  dup4\n  codecopy\n  dup2\n  dup2\n  add\n  0x40\n  mstore\n  dup2\n  add\n  swap1\n  tag_2\n  swap2\n  swap1\n  tag_3\n  jump\t// in\ntag_2:\n    /* \"Chapter6/Ex6.15.sol\":196:208  _schoolHours */\n  dup1\n    /* \"Chapter6/Ex6.15.sol\":182:193  schoolHours */\n  0x00\n    /* \"Chapter6/Ex6.15.sol\":182:208  schoolHours = _schoolHours */\n  dup2\n  swap1\n  sstore\n  pop\n    /* \"Chapter6/Ex6.15.sol\":142:215  constructor(uint _schoolHours){... */\n  pop\n    /* \"Chapter6/Ex6.15.sol\":85:292  contract ArtStudent {... */\n  jump(tag_6)\n    /* \"#utility.yul\":7:150   */\ntag_8:\n    /* \"#utility.yul\":64:69   */\n  0x00\n    /* \"#utility.yul\":95:101   */\n  dup2\n    /* \"#utility.yul\":89:102   */\n  mload\n    /* \"#utility.yul\":80:102   */\n  swap1\n  pop\n    /* \"#utility.yul\":111:144   */\n  tag_10\n    /* \"#utility.yul\":138:143   */\n  dup2\n    /* \"#utility.yul\":111:144   */\n  tag_11\n  jump\t// in\ntag_10:\n    /* \"#utility.yul\":7:150   */\n  swap3\n  swap2\n  pop\n  pop\n  jump\t// out\n    /* \"#utility.yul\":156:507   */\ntag_3:\n    /* \"#utility.yul\":226:232   */\n  0x00\n    /* \"#utility.yul\":275:277   */\n  0x20\n    /* \"#utility.yul\":263:272   */\n  dup3\n    /* \"#utility.yul\":254:261   */\n  dup5\n    /* \"#utility.yul\":250:273   */\n  sub\n    /* \"#utility.yul\":246:278   */\n  slt\n    /* \"#utility.yul\":243:362   */\n  iszero\n  tag_13\n  jumpi\n    /* \"#utility.yul\":281:360   */\n  tag_14\n  tag_15\n  jump\t// in\ntag_14:\n    /* \"#utility.yul\":243:362   */\ntag_13:\n    /* \"#utility.yul\":401:402   */\n  0x00\n    /* \"#utility.yul\":426:490   */\n  tag_16\n    /* \"#utility.yul\":482:489   */\n  dup5\n    /* \"#utility.yul\":473:479   */\n  dup3\n    /* \"#utility.yul\":462:471   */\n  dup6\n    /* \"#utility.yul\":458:480   */\n  add\n    /* \"#utility.yul\":426:490   */\n  tag_8\n  jump\t// in\ntag_16:\n    /* \"#utility.yul\":416:490   */\n  swap2\n  pop\n    /* \"#utility.yul\":372:500   */\n  pop\n    /* \"#utility.yul\":156:507   */\n  swap3\n  swap2\n  pop\n  pop\n  jump\t// out\n    /* \"#utility.yul\":594:671   */\ntag_19:\n    /* \"#utility.yul\":631:638   */\n  0x00\n    /* \"#utility.yul\":660:665   */\n  dup2\n    /* \"#utility.yul\":649:665   */\n  swap1\n  pop\n    /* \"#utility.yul\":594:671   */\n  swap2\n  swap1\n  pop\n  jump\t// out\n    /* \"#utility.yul\":800:917   */\ntag_15:\n    /* \"#utility.yul\":909:910   */\n  0x00\n    /* \"#utility.yul\":906:907   */\n  dup1\n    /* \"#utility.yul\":899:911   */\n  revert\n    /* \"#utility.yul\":923:1045   */\ntag_11:\n    /* \"#utility.yul\":996:1020   */\n  tag_25\n    /* \"#utility.yul\":1014:1019   */\n  dup2\n    /* \"#utility.yul\":996:1020   */\n  tag_19\n  jump\t// in\ntag_25:\n    /* \"#utility.yul\":989:994   */\n  dup2\n    /* \"#utility.yul\":986:1021   */\n  eq\n    /* \"#utility.yul\":976:1039   */\n  tag_26\n  jumpi\n    /* \"#utility.yul\":1035:1036   */\n  0x00\n    /* \"#utility.yul\":1032:1033   */\n  dup1\n    /* \"#utility.yul\":1025:1037   */\n  revert\n    /* \"#utility.yul\":976:1039   */\ntag_26:\n    /* \"#utility.yul\":923:1045   */\n  pop\n  jump\t// out\n    /* \"Chapter6/Ex6.15.sol\":85:292  contract ArtStudent {... */\ntag_6:\n  dataSize(sub_0)\n  dup1\n  dataOffset(sub_0)\n  0x00\n  codecopy\n  0x00\n  return\nstop\n\nsub_0: assembly {\n        /* \"Chapter6/Ex6.15.sol\":85:292  contract ArtStudent {... */\n      mstore(0x40, 0x80)\n      callvalue\n      dup1\n      iszero\n      tag_1\n      jumpi\n      0x00\n      dup1\n      revert\n    tag_1:\n      pop\n      jumpi(tag_2, lt(calldatasize, 0x04))\n      shr(0xe0, calldataload(0x00))\n      dup1\n      0x16ada547\n      eq\n      tag_3\n      jumpi\n    tag_2:\n      0x00\n      dup1\n      revert\n        /* \"Chapter6/Ex6.15.sol\":220:290  function time() public virtual returns(uint) {... */\n    tag_3:\n      tag_4\n      tag_5\n      jump\t// in\n    tag_4:\n      mload(0x40)\n      tag_6\n      swap2\n      swap1\n      tag_7\n      jump\t// in\n    tag_6:\n      mload(0x40)\n      dup1\n      swap2\n      sub\n      swap1\n      return\n    tag_5:\n        /* \"Chapter6/Ex6.15.sol\":259:263  uint */\n      0x00\n        /* \"Chapter6/Ex6.15.sol\":282:283  5 */\n      0x05\n        /* \"Chapter6/Ex6.15.sol\":275:283  return 5 */\n      swap1\n      pop\n        /* \"Chapter6/Ex6.15.sol\":220:290  function time() public virtual returns(uint) {... */\n      swap1\n      jump\t// out\n        /* \"#utility.yul\":7:125   */\n    tag_10:\n        /* \"#utility.yul\":94:118   */\n      tag_12\n        /* \"#utility.yul\":112:117   */\n      dup2\n        /* \"#utility.yul\":94:118   */\n      tag_13\n      jump\t// in\n    tag_12:\n        /* \"#utility.yul\":89:92   */\n      dup3\n        /* \"#utility.yul\":82:119   */\n      mstore\n        /* \"#utility.yul\":7:125   */\n      pop\n      pop\n      jump\t// out\n        /* \"#utility.yul\":131:353   */\n    tag_7:\n        /* \"#utility.yul\":224:228   */\n      0x00\n        /* \"#utility.yul\":262:264   */\n      0x20\n        /* \"#utility.yul\":251:260   */\n      dup3\n        /* \"#utility.yul\":247:265   */\n      add\n        /* \"#utility.yul\":239:265   */\n      swap1\n      pop\n        /* \"#utility.yul\":275:346   */\n      tag_15\n        /* \"#utility.yul\":343:344   */\n      0x00\n        /* \"#utility.yul\":332:341   */\n      dup4\n        /* \"#utility.yul\":328:345   */\n      add\n        /* \"#utility.yul\":319:325   */\n      dup5\n        /* \"#utility.yul\":275:346   */\n      tag_10\n      jump\t// in\n    tag_15:\n        /* \"#utility.yul\":131:353   */\n      swap3\n      swap2\n      pop\n      pop\n      jump\t// out\n        /* \"#utility.yul\":359:436   */\n    tag_13:\n        /* \"#utility.yul\":396:403   */\n      0x00\n        /* \"#utility.yul\":425:430   */\n      dup2\n        /* \"#utility.yul\":414:430   */\n      swap1\n      pop\n        /* \"#utility.yul\":359:436   */\n      swap2\n      swap1\n      pop\n      jump\t// out\n\n    auxdata: 0xa264697066735822122046aa8547971f257b2f5d4f6bb466930c476de0d8a4645b34599490e4bdf114c364736f6c63430008070033\n}\n",
				"bytecode": {
					"linkReferences": {},
					"object": "608060405234801561001057600080fd5b5060405161016b38038061016b83398181016040528101906100329190610054565b80600081905550506100a7565b60008151905061004e81610090565b92915050565b60006020828403121561006a5761006961008b565b5b60006100788482850161003f565b91505092915050565b6000819050919050565b600080fd5b61009981610081565b81146100a457600080fd5b50565b60b6806100b56000396000f3fe6080604052348015600f57600080fd5b506004361060285760003560e01c806316ada54714602d575b600080fd5b60336047565b604051603e9190605d565b60405180910390f35b60006005905090565b6057816076565b82525050565b6000602082019050607060008301846050565b92915050565b600081905091905056fea264697066735822122046aa8547971f257b2f5d4f6bb466930c476de0d8a4645b34599490e4bdf114c364736f6c63430008070033",
					"opcodes": "PUSH1 0x80 PUSH1 0x40 MSTORE CALLVALUE DUP1 ISZERO PUSH2 0x10 JUMPI PUSH1 0x0 DUP1 REVERT JUMPDEST POP PUSH1 0x40 MLOAD PUSH2 0x16B CODESIZE SUB DUP1 PUSH2 0x16B DUP4 CODECOPY DUP2 DUP2 ADD PUSH1 0x40 MSTORE DUP2 ADD SWAP1 PUSH2 0x32 SWAP2 SWAP1 PUSH2 0x54 JUMP JUMPDEST DUP1 PUSH1 0x0 DUP2 SWAP1 SSTORE POP POP PUSH2 0xA7 JUMP JUMPDEST PUSH1 0x0 DUP2 MLOAD SWAP1 POP PUSH2 0x4E DUP2 PUSH2 0x90 JUMP JUMPDEST SWAP3 SWAP2 POP POP JUMP JUMPDEST PUSH1 0x0 PUSH1 0x20 DUP3 DUP5 SUB SLT ISZERO PUSH2 0x6A JUMPI PUSH2 0x69 PUSH2 0x8B JUMP JUMPDEST JUMPDEST PUSH1 0x0 PUSH2 0x78 DUP5 DUP3 DUP6 ADD PUSH2 0x3F JUMP JUMPDEST SWAP2 POP POP SWAP3 SWAP2 POP POP JUMP JUMPDEST PUSH1 0x0 DUP2 SWAP1 POP SWAP2 SWAP1 POP JUMP JUMPDEST PUSH1 0x0 DUP1 REVERT JUMPDEST PUSH2 0x99 DUP2 PUSH2 0x81 JUMP JUMPDEST DUP2 EQ PUSH2 0xA4 JUMPI PUSH1 0x0 DUP1 REVERT JUMPDEST POP JUMP JUMPDEST PUSH1 0xB6 DUP1 PUSH2 0xB5 PUSH1 0x0 CODECOPY PUSH1 0x0 RETURN INVALID PUSH1 0x80 PUSH1 0x40 MSTORE CALLVALUE DUP1 ISZERO PUSH1 0xF JUMPI PUSH1 0x0 DUP1 REVERT JUMPDEST POP PUSH1 0x4 CALLDATASIZE LT PUSH1 0x28 JUMPI PUSH1 0x0 CALLDATALOAD PUSH1 0xE0 SHR DUP1 PUSH4 0x16ADA547 EQ PUSH1 0x2D JUMPI JUMPDEST PUSH1 0x0 DUP1 REVERT JUMPDEST PUSH1 0x33 PUSH1 0x47 JUMP JUMPDEST PUSH1 0x40 MLOAD PUSH1 0x3E SWAP2 SWAP1 PUSH1 0x5D JUMP JUMPDEST PUSH1 0x40 MLOAD DUP1 SWAP2 SUB SWAP1 RETURN JUMPDEST PUSH1 0x0 PUSH1 0x5 SWAP1 POP SWAP1 JUMP JUMPDEST PUSH1 0x57 DUP2 PUSH1 0x76 JUMP JUMPDEST DUP3 MSTORE POP POP JUMP JUMPDEST PUSH1 0x0 PUSH1 0x20 DUP3 ADD SWAP1 POP PUSH1 0x70 PUSH1 0x0 DUP4 ADD DUP5 PUSH1 0x50 JUMP JUMPDEST SWAP3 SWAP2 POP POP JUMP JUMPDEST PUSH1 0x0 DUP2 SWAP1 POP SWAP2 SWAP1 POP JUMP INVALID LOG2 PUSH5 0x6970667358 0x22 SLT KECCAK256 CHAINID 0xAA DUP6 SELFBALANCE SWAP8 0x1F 0x25 PUSH28 0x2F5D4F6BB466930C476DE0D8A4645B34599490E4BDF114C364736F6C PUSH4 0x43000807 STOP CALLER "
				},
				"gasEstimates": {
					"creation": {
						"codeDepositCost": "36400",
						"executionCost": "infinite",
						"totalCost": "infinite"
					},
					"external": {
						"time()": "315"
					}
				},
				"methodIdentifiers": {
					"time()": "16ada547"
				}
			},
			"storageLayout": {
				"storage": [
					{
						"astId": 3,
						"contract": "Chapter6/Ex6.15.sol:ArtStudent",
						"label": "schoolHours",
						"offset": 0,
						"slot": "0",
						"type": "t_uint256"
					}
				],
				"types": {
					"t_uint256": {
						"encoding": "inplace",
						"label": "uint256",
						"numberOfBytes": "32"
					}
				}
			},
			"userdoc": {
				"kind": "user",
				"methods": {},
				"version": 1
			}
		}
	}
}