{
	"Chapter6/Ex6.11.sol": {
		"ArtStudent": {
			"abi": [
				{
					"inputs": [],
					"name": "showCourses",
					"outputs": [
						{
							"internalType": "string[]",
							"name": "",
							"type": "string[]"
						}
					],
					"stateMutability": "nonpayable",
					"type": "function"
				}
			],
			"devdoc": {
				"kind": "dev",
				"methods": {},
				"version": 1
			},
			"evm": {
				"assembly": "    /* \"Chapter6/Ex6.11.sol\":332:528  contract ArtStudent is Student {... */\n  mstore(0x40, 0x80)\n  callvalue\n  dup1\n  iszero\n  tag_1\n  jumpi\n  0x00\n  dup1\n  revert\ntag_1:\n  pop\n  dataSize(sub_0)\n  dup1\n  dataOffset(sub_0)\n  0x00\n  codecopy\n  0x00\n  return\nstop\n\nsub_0: assembly {\n        /* \"Chapter6/Ex6.11.sol\":332:528  contract ArtStudent is Student {... */\n      mstore(0x40, 0x80)\n      callvalue\n      dup1\n      iszero\n      tag_1\n      jumpi\n      0x00\n      dup1\n      revert\n    tag_1:\n      pop\n      jumpi(tag_2, lt(calldatasize, 0x04))\n      shr(0xe0, calldataload(0x00))\n      dup1\n      0x44a034cd\n      eq\n      tag_3\n      jumpi\n    tag_2:\n      0x00\n      dup1\n      revert\n        /* \"Chapter6/Ex6.11.sol\":373:526  function showCourses() public override returns(string[] memory) {... */\n    tag_3:\n      tag_4\n      tag_5\n      jump\t// in\n    tag_4:\n      mload(0x40)\n      tag_6\n      swap2\n      swap1\n      tag_7\n      jump\t// in\n    tag_6:\n      mload(0x40)\n      dup1\n      swap2\n      sub\n      swap1\n      return\n    tag_5:\n        /* \"Chapter6/Ex6.11.sol\":420:435  string[] memory */\n      0x60\n        /* \"Chapter6/Ex6.11.sol\":447:466  super.showCourses() */\n      tag_9\n        /* \"Chapter6/Ex6.11.sol\":447:464  super.showCourses */\n      tag_10\n        /* \"Chapter6/Ex6.11.sol\":447:466  super.showCourses() */\n      jump\t// in\n    tag_9:\n      pop\n        /* \"Chapter6/Ex6.11.sol\":476:483  courses */\n      0x00\n        /* \"Chapter6/Ex6.11.sol\":476:495  courses.push(\"Art\") */\n      dup1\n      0x01\n      dup2\n      sload\n      add\n      dup1\n      dup3\n      sstore\n      dup1\n      swap2\n      pop\n      pop\n      0x01\n      swap1\n      sub\n      swap1\n      0x00\n      mstore\n      keccak256(0x00, 0x20)\n      add\n      0x00\n      mload(0x40)\n      dup1\n      0x40\n      add\n      0x40\n      mstore\n      dup1\n      0x03\n      dup2\n      mstore\n      0x20\n      add\n      0x4172740000000000000000000000000000000000000000000000000000000000\n      dup2\n      mstore\n      pop\n      swap1\n      swap2\n      swap1\n      swap2\n      pop\n      swap1\n      dup1\n      mload\n      swap1\n      0x20\n      add\n      swap1\n      tag_12\n      swap3\n      swap2\n      swap1\n      tag_13\n      jump\t// in\n    tag_12:\n      pop\n        /* \"Chapter6/Ex6.11.sol\":512:519  courses */\n      0x00\n        /* \"Chapter6/Ex6.11.sol\":505:519  return courses */\n      dup1\n      sload\n      dup1\n      0x20\n      mul\n      0x20\n      add\n      mload(0x40)\n      swap1\n      dup2\n      add\n      0x40\n      mstore\n      dup1\n      swap3\n      swap2\n      swap1\n      dup2\n      dup2\n      mstore\n      0x20\n      add\n      0x00\n      swap1\n    tag_14:\n      dup3\n      dup3\n      lt\n      iszero\n      tag_15\n      jumpi\n      dup4\n      dup3\n      swap1\n      0x00\n      mstore\n      keccak256(0x00, 0x20)\n      add\n      dup1\n      sload\n      tag_17\n      swap1\n      tag_18\n      jump\t// in\n    tag_17:\n      dup1\n      0x1f\n      add\n      0x20\n      dup1\n      swap2\n      div\n      mul\n      0x20\n      add\n      mload(0x40)\n      swap1\n      dup2\n      add\n      0x40\n      mstore\n      dup1\n      swap3\n      swap2\n      swap1\n      dup2\n      dup2\n      mstore\n      0x20\n      add\n      dup3\n      dup1\n      sload\n      tag_19\n      swap1\n      tag_18\n      jump\t// in\n    tag_19:\n      dup1\n      iszero\n      tag_20\n      jumpi\n      dup1\n      0x1f\n      lt\n      tag_21\n      jumpi\n      0x0100\n      dup1\n      dup4\n      sload\n      div\n      mul\n      dup4\n      mstore\n      swap2\n      0x20\n      add\n      swap2\n      jump(tag_20)\n    tag_21:\n      dup3\n      add\n      swap2\n      swap1\n      0x00\n      mstore\n      keccak256(0x00, 0x20)\n      swap1\n    tag_22:\n      dup2\n      sload\n      dup2\n      mstore\n      swap1\n      0x01\n      add\n      swap1\n      0x20\n      add\n      dup1\n      dup4\n      gt\n      tag_22\n      jumpi\n      dup3\n      swap1\n      sub\n      0x1f\n      and\n      dup3\n      add\n      swap2\n    tag_20:\n      pop\n      pop\n      pop\n      pop\n      pop\n      dup2\n      mstore\n      0x20\n      add\n      swap1\n      0x01\n      add\n      swap1\n      jump(tag_14)\n    tag_15:\n      pop\n      pop\n      pop\n      pop\n      swap1\n      pop\n        /* \"Chapter6/Ex6.11.sol\":373:526  function showCourses() public override returns(string[] memory) {... */\n      swap1\n      jump\t// out\n        /* \"Chapter6/Ex6.11.sol\":143:328  function showCourses() public virtual returns(string[] memory) {... */\n    tag_10:\n        /* \"Chapter6/Ex6.11.sol\":189:204  string[] memory */\n      0x60\n        /* \"Chapter6/Ex6.11.sol\":243:250  courses */\n      0x00\n        /* \"Chapter6/Ex6.11.sol\":243:266  courses.push(\"English\") */\n      dup1\n      0x01\n      dup2\n      sload\n      add\n      dup1\n      dup3\n      sstore\n      dup1\n      swap2\n      pop\n      pop\n      0x01\n      swap1\n      sub\n      swap1\n      0x00\n      mstore\n      keccak256(0x00, 0x20)\n      add\n      0x00\n      mload(0x40)\n      dup1\n      0x40\n      add\n      0x40\n      mstore\n      dup1\n      0x07\n      dup2\n      mstore\n      0x20\n      add\n      0x456e676c69736800000000000000000000000000000000000000000000000000\n      dup2\n      mstore\n      pop\n      swap1\n      swap2\n      swap1\n      swap2\n      pop\n      swap1\n      dup1\n      mload\n      swap1\n      0x20\n      add\n      swap1\n      tag_25\n      swap3\n      swap2\n      swap1\n      tag_13\n      jump\t// in\n    tag_25:\n      pop\n        /* \"Chapter6/Ex6.11.sol\":276:283  courses */\n      0x00\n        /* \"Chapter6/Ex6.11.sol\":276:297  courses.push(\"Music\") */\n      dup1\n      0x01\n      dup2\n      sload\n      add\n      dup1\n      dup3\n      sstore\n      dup1\n      swap2\n      pop\n      pop\n      0x01\n      swap1\n      sub\n      swap1\n      0x00\n      mstore\n      keccak256(0x00, 0x20)\n      add\n      0x00\n      mload(0x40)\n      dup1\n      0x40\n      add\n      0x40\n      mstore\n      dup1\n      0x05\n      dup2\n      mstore\n      0x20\n      add\n      0x4d75736963000000000000000000000000000000000000000000000000000000\n      dup2\n      mstore\n      pop\n      swap1\n      swap2\n      swap1\n      swap2\n      pop\n      swap1\n      dup1\n      mload\n      swap1\n      0x20\n      add\n      swap1\n      tag_27\n      swap3\n      swap2\n      swap1\n      tag_13\n      jump\t// in\n    tag_27:\n      pop\n        /* \"Chapter6/Ex6.11.sol\":314:321  courses */\n      0x00\n        /* \"Chapter6/Ex6.11.sol\":307:321  return courses */\n      dup1\n      sload\n      dup1\n      0x20\n      mul\n      0x20\n      add\n      mload(0x40)\n      swap1\n      dup2\n      add\n      0x40\n      mstore\n      dup1\n      swap3\n      swap2\n      swap1\n      dup2\n      dup2\n      mstore\n      0x20\n      add\n      0x00\n      swap1\n    tag_28:\n      dup3\n      dup3\n      lt\n      iszero\n      tag_29\n      jumpi\n      dup4\n      dup3\n      swap1\n      0x00\n      mstore\n      keccak256(0x00, 0x20)\n      add\n      dup1\n      sload\n      tag_31\n      swap1\n      tag_18\n      jump\t// in\n    tag_31:\n      dup1\n      0x1f\n      add\n      0x20\n      dup1\n      swap2\n      div\n      mul\n      0x20\n      add\n      mload(0x40)\n      swap1\n      dup2\n      add\n      0x40\n      mstore\n      dup1\n      swap3\n      swap2\n      swap1\n      dup2\n      dup2\n      mstore\n      0x20\n      add\n      dup3\n      dup1\n      sload\n      tag_32\n      swap1\n      tag_18\n      jump\t// in\n    tag_32:\n      dup1\n      iszero\n      tag_33\n      jumpi\n      dup1\n      0x1f\n      lt\n      tag_34\n      jumpi\n      0x0100\n      dup1\n      dup4\n      sload\n      div\n      mul\n      dup4\n      mstore\n      swap2\n      0x20\n      add\n      swap2\n      jump(tag_33)\n    tag_34:\n      dup3\n      add\n      swap2\n      swap1\n      0x00\n      mstore\n      keccak256(0x00, 0x20)\n      swap1\n    tag_35:\n      dup2\n      sload\n      dup2\n      mstore\n      swap1\n      0x01\n      add\n      swap1\n      0x20\n      add\n      dup1\n      dup4\n      gt\n      tag_35\n      jumpi\n      dup3\n      swap1\n      sub\n      0x1f\n      and\n      dup3\n      add\n      swap2\n    tag_33:\n      pop\n      pop\n      pop\n      pop\n      pop\n      dup2\n      mstore\n      0x20\n      add\n      swap1\n      0x01\n      add\n      swap1\n      jump(tag_28)\n    tag_29:\n      pop\n      pop\n      pop\n      pop\n      swap1\n      pop\n        /* \"Chapter6/Ex6.11.sol\":143:328  function showCourses() public virtual returns(string[] memory) {... */\n      swap1\n      jump\t// out\n    tag_13:\n      dup3\n      dup1\n      sload\n      tag_36\n      swap1\n      tag_18\n      jump\t// in\n    tag_36:\n      swap1\n      0x00\n      mstore\n      keccak256(0x00, 0x20)\n      swap1\n      0x1f\n      add\n      0x20\n      swap1\n      div\n      dup2\n      add\n      swap3\n      dup3\n      tag_38\n      jumpi\n      0x00\n      dup6\n      sstore\n      jump(tag_37)\n    tag_38:\n      dup3\n      0x1f\n      lt\n      tag_39\n      jumpi\n      dup1\n      mload\n      not(0xff)\n      and\n      dup4\n      dup1\n      add\n      or\n      dup6\n      sstore\n      jump(tag_37)\n    tag_39:\n      dup3\n      dup1\n      add\n      0x01\n      add\n      dup6\n      sstore\n      dup3\n      iszero\n      tag_37\n      jumpi\n      swap2\n      dup3\n      add\n    tag_40:\n      dup3\n      dup2\n      gt\n      iszero\n      tag_41\n      jumpi\n      dup3\n      mload\n      dup3\n      sstore\n      swap2\n      0x20\n      add\n      swap2\n      swap1\n      0x01\n      add\n      swap1\n      jump(tag_40)\n    tag_41:\n    tag_37:\n      pop\n      swap1\n      pop\n      tag_42\n      swap2\n      swap1\n      tag_43\n      jump\t// in\n    tag_42:\n      pop\n      swap1\n      jump\t// out\n    tag_43:\n    tag_44:\n      dup1\n      dup3\n      gt\n      iszero\n      tag_45\n      jumpi\n      0x00\n      dup2\n      0x00\n      swap1\n      sstore\n      pop\n      0x01\n      add\n      jump(tag_44)\n    tag_45:\n      pop\n      swap1\n      jump\t// out\n        /* \"#utility.yul\":7:203   */\n    tag_47:\n        /* \"#utility.yul\":96:106   */\n      0x00\n        /* \"#utility.yul\":131:197   */\n      tag_49\n        /* \"#utility.yul\":193:196   */\n      dup4\n        /* \"#utility.yul\":185:191   */\n      dup4\n        /* \"#utility.yul\":131:197   */\n      tag_50\n      jump\t// in\n    tag_49:\n        /* \"#utility.yul\":117:197   */\n      swap1\n      pop\n        /* \"#utility.yul\":7:203   */\n      swap3\n      swap2\n      pop\n      pop\n      jump\t// out\n        /* \"#utility.yul\":237:1228   */\n    tag_51:\n        /* \"#utility.yul\":376:379   */\n      0x00\n        /* \"#utility.yul\":405:469   */\n      tag_53\n        /* \"#utility.yul\":463:468   */\n      dup3\n        /* \"#utility.yul\":405:469   */\n      tag_54\n      jump\t// in\n    tag_53:\n        /* \"#utility.yul\":485:581   */\n      tag_55\n        /* \"#utility.yul\":574:580   */\n      dup2\n        /* \"#utility.yul\":569:572   */\n      dup6\n        /* \"#utility.yul\":485:581   */\n      tag_56\n      jump\t// in\n    tag_55:\n        /* \"#utility.yul\":478:581   */\n      swap4\n      pop\n        /* \"#utility.yul\":607:610   */\n      dup4\n        /* \"#utility.yul\":652:656   */\n      0x20\n        /* \"#utility.yul\":644:650   */\n      dup3\n        /* \"#utility.yul\":640:657   */\n      mul\n        /* \"#utility.yul\":635:638   */\n      dup6\n        /* \"#utility.yul\":631:658   */\n      add\n        /* \"#utility.yul\":682:748   */\n      tag_57\n        /* \"#utility.yul\":742:747   */\n      dup6\n        /* \"#utility.yul\":682:748   */\n      tag_58\n      jump\t// in\n    tag_57:\n        /* \"#utility.yul\":771:778   */\n      dup1\n        /* \"#utility.yul\":802:803   */\n      0x00\n        /* \"#utility.yul\":787:1183   */\n    tag_59:\n        /* \"#utility.yul\":812:818   */\n      dup6\n        /* \"#utility.yul\":809:810   */\n      dup2\n        /* \"#utility.yul\":806:819   */\n      lt\n        /* \"#utility.yul\":787:1183   */\n      iszero\n      tag_61\n      jumpi\n        /* \"#utility.yul\":883:892   */\n      dup5\n        /* \"#utility.yul\":877:881   */\n      dup5\n        /* \"#utility.yul\":873:893   */\n      sub\n        /* \"#utility.yul\":868:871   */\n      dup10\n        /* \"#utility.yul\":861:894   */\n      mstore\n        /* \"#utility.yul\":934:940   */\n      dup2\n        /* \"#utility.yul\":928:941   */\n      mload\n        /* \"#utility.yul\":962:1046   */\n      tag_62\n        /* \"#utility.yul\":1041:1045   */\n      dup6\n        /* \"#utility.yul\":1026:1039   */\n      dup3\n        /* \"#utility.yul\":962:1046   */\n      tag_47\n      jump\t// in\n    tag_62:\n        /* \"#utility.yul\":954:1046   */\n      swap5\n      pop\n        /* \"#utility.yul\":1069:1139   */\n      tag_63\n        /* \"#utility.yul\":1132:1138   */\n      dup4\n        /* \"#utility.yul\":1069:1139   */\n      tag_64\n      jump\t// in\n    tag_63:\n        /* \"#utility.yul\":1059:1139   */\n      swap3\n      pop\n        /* \"#utility.yul\":1168:1172   */\n      0x20\n        /* \"#utility.yul\":1163:1166   */\n      dup11\n        /* \"#utility.yul\":1159:1173   */\n      add\n        /* \"#utility.yul\":1152:1173   */\n      swap10\n      pop\n        /* \"#utility.yul\":847:1183   */\n      pop\n        /* \"#utility.yul\":834:835   */\n      0x01\n        /* \"#utility.yul\":831:832   */\n      dup2\n        /* \"#utility.yul\":827:836   */\n      add\n        /* \"#utility.yul\":822:836   */\n      swap1\n      pop\n        /* \"#utility.yul\":787:1183   */\n      jump(tag_59)\n    tag_61:\n        /* \"#utility.yul\":791:805   */\n      pop\n        /* \"#utility.yul\":1199:1203   */\n      dup3\n        /* \"#utility.yul\":1192:1203   */\n      swap8\n      pop\n        /* \"#utility.yul\":1219:1222   */\n      dup8\n        /* \"#utility.yul\":1212:1222   */\n      swap6\n      pop\n        /* \"#utility.yul\":381:1228   */\n      pop\n      pop\n      pop\n      pop\n      pop\n        /* \"#utility.yul\":237:1228   */\n      swap3\n      swap2\n      pop\n      pop\n      jump\t// out\n        /* \"#utility.yul\":1234:1578   */\n    tag_50:\n        /* \"#utility.yul\":1312:1315   */\n      0x00\n        /* \"#utility.yul\":1340:1379   */\n      tag_66\n        /* \"#utility.yul\":1373:1378   */\n      dup3\n        /* \"#utility.yul\":1340:1379   */\n      tag_67\n      jump\t// in\n    tag_66:\n        /* \"#utility.yul\":1395:1456   */\n      tag_68\n        /* \"#utility.yul\":1449:1455   */\n      dup2\n        /* \"#utility.yul\":1444:1447   */\n      dup6\n        /* \"#utility.yul\":1395:1456   */\n      tag_69\n      jump\t// in\n    tag_68:\n        /* \"#utility.yul\":1388:1456   */\n      swap4\n      pop\n        /* \"#utility.yul\":1465:1517   */\n      tag_70\n        /* \"#utility.yul\":1510:1516   */\n      dup2\n        /* \"#utility.yul\":1505:1508   */\n      dup6\n        /* \"#utility.yul\":1498:1502   */\n      0x20\n        /* \"#utility.yul\":1491:1496   */\n      dup7\n        /* \"#utility.yul\":1487:1503   */\n      add\n        /* \"#utility.yul\":1465:1517   */\n      tag_71\n      jump\t// in\n    tag_70:\n        /* \"#utility.yul\":1542:1571   */\n      tag_72\n        /* \"#utility.yul\":1564:1570   */\n      dup2\n        /* \"#utility.yul\":1542:1571   */\n      tag_73\n      jump\t// in\n    tag_72:\n        /* \"#utility.yul\":1537:1540   */\n      dup5\n        /* \"#utility.yul\":1533:1572   */\n      add\n        /* \"#utility.yul\":1526:1572   */\n      swap2\n      pop\n        /* \"#utility.yul\":1316:1578   */\n      pop\n        /* \"#utility.yul\":1234:1578   */\n      swap3\n      swap2\n      pop\n      pop\n      jump\t// out\n        /* \"#utility.yul\":1584:1997   */\n    tag_7:\n        /* \"#utility.yul\":1747:1751   */\n      0x00\n        /* \"#utility.yul\":1785:1787   */\n      0x20\n        /* \"#utility.yul\":1774:1783   */\n      dup3\n        /* \"#utility.yul\":1770:1788   */\n      add\n        /* \"#utility.yul\":1762:1788   */\n      swap1\n      pop\n        /* \"#utility.yul\":1834:1843   */\n      dup2\n        /* \"#utility.yul\":1828:1832   */\n      dup2\n        /* \"#utility.yul\":1824:1844   */\n      sub\n        /* \"#utility.yul\":1820:1821   */\n      0x00\n        /* \"#utility.yul\":1809:1818   */\n      dup4\n        /* \"#utility.yul\":1805:1822   */\n      add\n        /* \"#utility.yul\":1798:1845   */\n      mstore\n        /* \"#utility.yul\":1862:1990   */\n      tag_75\n        /* \"#utility.yul\":1985:1989   */\n      dup2\n        /* \"#utility.yul\":1976:1982   */\n      dup5\n        /* \"#utility.yul\":1862:1990   */\n      tag_51\n      jump\t// in\n    tag_75:\n        /* \"#utility.yul\":1854:1990   */\n      swap1\n      pop\n        /* \"#utility.yul\":1584:1997   */\n      swap3\n      swap2\n      pop\n      pop\n      jump\t// out\n        /* \"#utility.yul\":2003:2145   */\n    tag_58:\n        /* \"#utility.yul\":2080:2084   */\n      0x00\n        /* \"#utility.yul\":2103:2106   */\n      dup2\n        /* \"#utility.yul\":2095:2106   */\n      swap1\n      pop\n        /* \"#utility.yul\":2133:2137   */\n      0x20\n        /* \"#utility.yul\":2128:2131   */\n      dup3\n        /* \"#utility.yul\":2124:2138   */\n      add\n        /* \"#utility.yul\":2116:2138   */\n      swap1\n      pop\n        /* \"#utility.yul\":2003:2145   */\n      swap2\n      swap1\n      pop\n      jump\t// out\n        /* \"#utility.yul\":2151:2275   */\n    tag_54:\n        /* \"#utility.yul\":2228:2234   */\n      0x00\n        /* \"#utility.yul\":2262:2267   */\n      dup2\n        /* \"#utility.yul\":2256:2268   */\n      mload\n        /* \"#utility.yul\":2246:2268   */\n      swap1\n      pop\n        /* \"#utility.yul\":2151:2275   */\n      swap2\n      swap1\n      pop\n      jump\t// out\n        /* \"#utility.yul\":2281:2380   */\n    tag_67:\n        /* \"#utility.yul\":2333:2339   */\n      0x00\n        /* \"#utility.yul\":2367:2372   */\n      dup2\n        /* \"#utility.yul\":2361:2373   */\n      mload\n        /* \"#utility.yul\":2351:2373   */\n      swap1\n      pop\n        /* \"#utility.yul\":2281:2380   */\n      swap2\n      swap1\n      pop\n      jump\t// out\n        /* \"#utility.yul\":2386:2509   */\n    tag_64:\n        /* \"#utility.yul\":2466:2470   */\n      0x00\n        /* \"#utility.yul\":2498:2502   */\n      0x20\n        /* \"#utility.yul\":2493:2496   */\n      dup3\n        /* \"#utility.yul\":2489:2503   */\n      add\n        /* \"#utility.yul\":2481:2503   */\n      swap1\n      pop\n        /* \"#utility.yul\":2386:2509   */\n      swap2\n      swap1\n      pop\n      jump\t// out\n        /* \"#utility.yul\":2515:2709   */\n    tag_56:\n        /* \"#utility.yul\":2624:2635   */\n      0x00\n        /* \"#utility.yul\":2658:2664   */\n      dup3\n        /* \"#utility.yul\":2653:2656   */\n      dup3\n        /* \"#utility.yul\":2646:2665   */\n      mstore\n        /* \"#utility.yul\":2698:2702   */\n      0x20\n        /* \"#utility.yul\":2693:2696   */\n      dup3\n        /* \"#utility.yul\":2689:2703   */\n      add\n        /* \"#utility.yul\":2674:2703   */\n      swap1\n      pop\n        /* \"#utility.yul\":2515:2709   */\n      swap3\n      swap2\n      pop\n      pop\n      jump\t// out\n        /* \"#utility.yul\":2715:2874   */\n    tag_69:\n        /* \"#utility.yul\":2789:2800   */\n      0x00\n        /* \"#utility.yul\":2823:2829   */\n      dup3\n        /* \"#utility.yul\":2818:2821   */\n      dup3\n        /* \"#utility.yul\":2811:2830   */\n      mstore\n        /* \"#utility.yul\":2863:2867   */\n      0x20\n        /* \"#utility.yul\":2858:2861   */\n      dup3\n        /* \"#utility.yul\":2854:2868   */\n      add\n        /* \"#utility.yul\":2839:2868   */\n      swap1\n      pop\n        /* \"#utility.yul\":2715:2874   */\n      swap3\n      swap2\n      pop\n      pop\n      jump\t// out\n        /* \"#utility.yul\":2880:3187   */\n    tag_71:\n        /* \"#utility.yul\":2948:2949   */\n      0x00\n        /* \"#utility.yul\":2958:3071   */\n    tag_83:\n        /* \"#utility.yul\":2972:2978   */\n      dup4\n        /* \"#utility.yul\":2969:2970   */\n      dup2\n        /* \"#utility.yul\":2966:2979   */\n      lt\n        /* \"#utility.yul\":2958:3071   */\n      iszero\n      tag_85\n      jumpi\n        /* \"#utility.yul\":3057:3058   */\n      dup1\n        /* \"#utility.yul\":3052:3055   */\n      dup3\n        /* \"#utility.yul\":3048:3059   */\n      add\n        /* \"#utility.yul\":3042:3060   */\n      mload\n        /* \"#utility.yul\":3038:3039   */\n      dup2\n        /* \"#utility.yul\":3033:3036   */\n      dup5\n        /* \"#utility.yul\":3029:3040   */\n      add\n        /* \"#utility.yul\":3022:3061   */\n      mstore\n        /* \"#utility.yul\":2994:2996   */\n      0x20\n        /* \"#utility.yul\":2991:2992   */\n      dup2\n        /* \"#utility.yul\":2987:2997   */\n      add\n        /* \"#utility.yul\":2982:2997   */\n      swap1\n      pop\n        /* \"#utility.yul\":2958:3071   */\n      jump(tag_83)\n    tag_85:\n        /* \"#utility.yul\":3089:3095   */\n      dup4\n        /* \"#utility.yul\":3086:3087   */\n      dup2\n        /* \"#utility.yul\":3083:3096   */\n      gt\n        /* \"#utility.yul\":3080:3181   */\n      iszero\n      tag_86\n      jumpi\n        /* \"#utility.yul\":3169:3170   */\n      0x00\n        /* \"#utility.yul\":3160:3166   */\n      dup5\n        /* \"#utility.yul\":3155:3158   */\n      dup5\n        /* \"#utility.yul\":3151:3167   */\n      add\n        /* \"#utility.yul\":3144:3171   */\n      mstore\n        /* \"#utility.yul\":3080:3181   */\n    tag_86:\n        /* \"#utility.yul\":2929:3187   */\n      pop\n        /* \"#utility.yul\":2880:3187   */\n      pop\n      pop\n      pop\n      jump\t// out\n        /* \"#utility.yul\":3193:3513   */\n    tag_18:\n        /* \"#utility.yul\":3237:3243   */\n      0x00\n        /* \"#utility.yul\":3274:3275   */\n      0x02\n        /* \"#utility.yul\":3268:3272   */\n      dup3\n        /* \"#utility.yul\":3264:3276   */\n      div\n        /* \"#utility.yul\":3254:3276   */\n      swap1\n      pop\n        /* \"#utility.yul\":3321:3322   */\n      0x01\n        /* \"#utility.yul\":3315:3319   */\n      dup3\n        /* \"#utility.yul\":3311:3323   */\n      and\n        /* \"#utility.yul\":3342:3360   */\n      dup1\n        /* \"#utility.yul\":3332:3413   */\n      tag_88\n      jumpi\n        /* \"#utility.yul\":3398:3402   */\n      0x7f\n        /* \"#utility.yul\":3390:3396   */\n      dup3\n        /* \"#utility.yul\":3386:3403   */\n      and\n        /* \"#utility.yul\":3376:3403   */\n      swap2\n      pop\n        /* \"#utility.yul\":3332:3413   */\n    tag_88:\n        /* \"#utility.yul\":3460:3462   */\n      0x20\n        /* \"#utility.yul\":3452:3458   */\n      dup3\n        /* \"#utility.yul\":3449:3463   */\n      lt\n        /* \"#utility.yul\":3429:3447   */\n      dup2\n        /* \"#utility.yul\":3426:3464   */\n      eq\n        /* \"#utility.yul\":3423:3507   */\n      iszero\n      tag_89\n      jumpi\n        /* \"#utility.yul\":3479:3497   */\n      tag_90\n      tag_91\n      jump\t// in\n    tag_90:\n        /* \"#utility.yul\":3423:3507   */\n    tag_89:\n        /* \"#utility.yul\":3244:3513   */\n      pop\n        /* \"#utility.yul\":3193:3513   */\n      swap2\n      swap1\n      pop\n      jump\t// out\n        /* \"#utility.yul\":3519:3699   */\n    tag_91:\n        /* \"#utility.yul\":3567:3644   */\n      0x4e487b7100000000000000000000000000000000000000000000000000000000\n        /* \"#utility.yul\":3564:3565   */\n      0x00\n        /* \"#utility.yul\":3557:3645   */\n      mstore\n        /* \"#utility.yul\":3664:3668   */\n      0x22\n        /* \"#utility.yul\":3661:3662   */\n      0x04\n        /* \"#utility.yul\":3654:3669   */\n      mstore\n        /* \"#utility.yul\":3688:3692   */\n      0x24\n        /* \"#utility.yul\":3685:3686   */\n      0x00\n        /* \"#utility.yul\":3678:3693   */\n      revert\n        /* \"#utility.yul\":3705:3807   */\n    tag_73:\n        /* \"#utility.yul\":3746:3752   */\n      0x00\n        /* \"#utility.yul\":3797:3799   */\n      0x1f\n        /* \"#utility.yul\":3793:3800   */\n      not\n        /* \"#utility.yul\":3788:3790   */\n      0x1f\n        /* \"#utility.yul\":3781:3786   */\n      dup4\n        /* \"#utility.yul\":3777:3791   */\n      add\n        /* \"#utility.yul\":3773:3801   */\n      and\n        /* \"#utility.yul\":3763:3801   */\n      swap1\n      pop\n        /* \"#utility.yul\":3705:3807   */\n      swap2\n      swap1\n      pop\n      jump\t// out\n\n    auxdata: 0xa264697066735822122086b0b07fffb21a9bbb9d36668d140b7833221a8986506feee2cd6e541a68c80964736f6c63430008070033\n}\n",
				"bytecode": {
					"linkReferences": {},
					"object": "608060405234801561001057600080fd5b5061060a806100206000396000f3fe608060405234801561001057600080fd5b506004361061002b5760003560e01c806344a034cd14610030575b600080fd5b61003861004e565b60405161004591906104b8565b60405180910390f35b606061005861019e565b50600080600181540180825580915050600190039060005260206000200160006040518060400160405280600381526020017f4172740000000000000000000000000000000000000000000000000000000000815250909190915090805190602001906100c6929190610353565b506000805480602002602001604051908101604052809291908181526020016000905b8282101561019557838290600052602060002001805461010890610562565b80601f016020809104026020016040519081016040528092919081815260200182805461013490610562565b80156101815780601f1061015657610100808354040283529160200191610181565b820191906000526020600020905b81548152906001019060200180831161016457829003601f168201915b5050505050815260200190600101906100e9565b50505050905090565b6060600080600181540180825580915050600190039060005260206000200160006040518060400160405280600781526020017f456e676c697368000000000000000000000000000000000000000000000000008152509091909150908051906020019061020d929190610353565b50600080600181540180825580915050600190039060005260206000200160006040518060400160405280600581526020017f4d757369630000000000000000000000000000000000000000000000000000008152509091909150908051906020019061027b929190610353565b506000805480602002602001604051908101604052809291908181526020016000905b8282101561034a5783829060005260206000200180546102bd90610562565b80601f01602080910402602001604051908101604052809291908181526020018280546102e990610562565b80156103365780601f1061030b57610100808354040283529160200191610336565b820191906000526020600020905b81548152906001019060200180831161031957829003601f168201915b50505050508152602001906001019061029e565b50505050905090565b82805461035f90610562565b90600052602060002090601f01602090048101928261038157600085556103c8565b82601f1061039a57805160ff19168380011785556103c8565b828001600101855582156103c8579182015b828111156103c75782518255916020019190600101906103ac565b5b5090506103d591906103d9565b5090565b5b808211156103f25760008160009055506001016103da565b5090565b6000610402838361047f565b905092915050565b6000610415826104ea565b61041f818561050d565b935083602082028501610431856104da565b8060005b8581101561046d578484038952815161044e85826103f6565b945061045983610500565b925060208a01995050600181019050610435565b50829750879550505050505092915050565b600061048a826104f5565b610494818561051e565b93506104a481856020860161052f565b6104ad816105c3565b840191505092915050565b600060208201905081810360008301526104d2818461040a565b905092915050565b6000819050602082019050919050565b600081519050919050565b600081519050919050565b6000602082019050919050565b600082825260208201905092915050565b600082825260208201905092915050565b60005b8381101561054d578082015181840152602081019050610532565b8381111561055c576000848401525b50505050565b6000600282049050600182168061057a57607f821691505b6020821081141561058e5761058d610594565b5b50919050565b7f4e487b7100000000000000000000000000000000000000000000000000000000600052602260045260246000fd5b6000601f19601f830116905091905056fea264697066735822122086b0b07fffb21a9bbb9d36668d140b7833221a8986506feee2cd6e541a68c80964736f6c63430008070033",
					"opcodes": "PUSH1 0x80 PUSH1 0x40 MSTORE CALLVALUE DUP1 ISZERO PUSH2 0x10 JUMPI PUSH1 0x0 DUP1 REVERT JUMPDEST POP PUSH2 0x60A DUP1 PUSH2 0x20 PUSH1 0x0 CODECOPY PUSH1 0x0 RETURN INVALID PUSH1 0x80 PUSH1 0x40 MSTORE CALLVALUE DUP1 ISZERO PUSH2 0x10 JUMPI PUSH1 0x0 DUP1 REVERT JUMPDEST POP PUSH1 0x4 CALLDATASIZE LT PUSH2 0x2B JUMPI PUSH1 0x0 CALLDATALOAD PUSH1 0xE0 SHR DUP1 PUSH4 0x44A034CD EQ PUSH2 0x30 JUMPI JUMPDEST PUSH1 0x0 DUP1 REVERT JUMPDEST PUSH2 0x38 PUSH2 0x4E JUMP JUMPDEST PUSH1 0x40 MLOAD PUSH2 0x45 SWAP2 SWAP1 PUSH2 0x4B8 JUMP JUMPDEST PUSH1 0x40 MLOAD DUP1 SWAP2 SUB SWAP1 RETURN JUMPDEST PUSH1 0x60 PUSH2 0x58 PUSH2 0x19E JUMP JUMPDEST POP PUSH1 0x0 DUP1 PUSH1 0x1 DUP2 SLOAD ADD DUP1 DUP3 SSTORE DUP1 SWAP2 POP POP PUSH1 0x1 SWAP1 SUB SWAP1 PUSH1 0x0 MSTORE PUSH1 0x20 PUSH1 0x0 KECCAK256 ADD PUSH1 0x0 PUSH1 0x40 MLOAD DUP1 PUSH1 0x40 ADD PUSH1 0x40 MSTORE DUP1 PUSH1 0x3 DUP2 MSTORE PUSH1 0x20 ADD PUSH32 0x4172740000000000000000000000000000000000000000000000000000000000 DUP2 MSTORE POP SWAP1 SWAP2 SWAP1 SWAP2 POP SWAP1 DUP1 MLOAD SWAP1 PUSH1 0x20 ADD SWAP1 PUSH2 0xC6 SWAP3 SWAP2 SWAP1 PUSH2 0x353 JUMP JUMPDEST POP PUSH1 0x0 DUP1 SLOAD DUP1 PUSH1 0x20 MUL PUSH1 0x20 ADD PUSH1 0x40 MLOAD SWAP1 DUP2 ADD PUSH1 0x40 MSTORE DUP1 SWAP3 SWAP2 SWAP1 DUP2 DUP2 MSTORE PUSH1 0x20 ADD PUSH1 0x0 SWAP1 JUMPDEST DUP3 DUP3 LT ISZERO PUSH2 0x195 JUMPI DUP4 DUP3 SWAP1 PUSH1 0x0 MSTORE PUSH1 0x20 PUSH1 0x0 KECCAK256 ADD DUP1 SLOAD PUSH2 0x108 SWAP1 PUSH2 0x562 JUMP JUMPDEST DUP1 PUSH1 0x1F ADD PUSH1 0x20 DUP1 SWAP2 DIV MUL PUSH1 0x20 ADD PUSH1 0x40 MLOAD SWAP1 DUP2 ADD PUSH1 0x40 MSTORE DUP1 SWAP3 SWAP2 SWAP1 DUP2 DUP2 MSTORE PUSH1 0x20 ADD DUP3 DUP1 SLOAD PUSH2 0x134 SWAP1 PUSH2 0x562 JUMP JUMPDEST DUP1 ISZERO PUSH2 0x181 JUMPI DUP1 PUSH1 0x1F LT PUSH2 0x156 JUMPI PUSH2 0x100 DUP1 DUP4 SLOAD DIV MUL DUP4 MSTORE SWAP2 PUSH1 0x20 ADD SWAP2 PUSH2 0x181 JUMP JUMPDEST DUP3 ADD SWAP2 SWAP1 PUSH1 0x0 MSTORE PUSH1 0x20 PUSH1 0x0 KECCAK256 SWAP1 JUMPDEST DUP2 SLOAD DUP2 MSTORE SWAP1 PUSH1 0x1 ADD SWAP1 PUSH1 0x20 ADD DUP1 DUP4 GT PUSH2 0x164 JUMPI DUP3 SWAP1 SUB PUSH1 0x1F AND DUP3 ADD SWAP2 JUMPDEST POP POP POP POP POP DUP2 MSTORE PUSH1 0x20 ADD SWAP1 PUSH1 0x1 ADD SWAP1 PUSH2 0xE9 JUMP JUMPDEST POP POP POP POP SWAP1 POP SWAP1 JUMP JUMPDEST PUSH1 0x60 PUSH1 0x0 DUP1 PUSH1 0x1 DUP2 SLOAD ADD DUP1 DUP3 SSTORE DUP1 SWAP2 POP POP PUSH1 0x1 SWAP1 SUB SWAP1 PUSH1 0x0 MSTORE PUSH1 0x20 PUSH1 0x0 KECCAK256 ADD PUSH1 0x0 PUSH1 0x40 MLOAD DUP1 PUSH1 0x40 ADD PUSH1 0x40 MSTORE DUP1 PUSH1 0x7 DUP2 MSTORE PUSH1 0x20 ADD PUSH32 0x456E676C69736800000000000000000000000000000000000000000000000000 DUP2 MSTORE POP SWAP1 SWAP2 SWAP1 SWAP2 POP SWAP1 DUP1 MLOAD SWAP1 PUSH1 0x20 ADD SWAP1 PUSH2 0x20D SWAP3 SWAP2 SWAP1 PUSH2 0x353 JUMP JUMPDEST POP PUSH1 0x0 DUP1 PUSH1 0x1 DUP2 SLOAD ADD DUP1 DUP3 SSTORE DUP1 SWAP2 POP POP PUSH1 0x1 SWAP1 SUB SWAP1 PUSH1 0x0 MSTORE PUSH1 0x20 PUSH1 0x0 KECCAK256 ADD PUSH1 0x0 PUSH1 0x40 MLOAD DUP1 PUSH1 0x40 ADD PUSH1 0x40 MSTORE DUP1 PUSH1 0x5 DUP2 MSTORE PUSH1 0x20 ADD PUSH32 0x4D75736963000000000000000000000000000000000000000000000000000000 DUP2 MSTORE POP SWAP1 SWAP2 SWAP1 SWAP2 POP SWAP1 DUP1 MLOAD SWAP1 PUSH1 0x20 ADD SWAP1 PUSH2 0x27B SWAP3 SWAP2 SWAP1 PUSH2 0x353 JUMP JUMPDEST POP PUSH1 0x0 DUP1 SLOAD DUP1 PUSH1 0x20 MUL PUSH1 0x20 ADD PUSH1 0x40 MLOAD SWAP1 DUP2 ADD PUSH1 0x40 MSTORE DUP1 SWAP3 SWAP2 SWAP1 DUP2 DUP2 MSTORE PUSH1 0x20 ADD PUSH1 0x0 SWAP1 JUMPDEST DUP3 DUP3 LT ISZERO PUSH2 0x34A JUMPI DUP4 DUP3 SWAP1 PUSH1 0x0 MSTORE PUSH1 0x20 PUSH1 0x0 KECCAK256 ADD DUP1 SLOAD PUSH2 0x2BD SWAP1 PUSH2 0x562 JUMP JUMPDEST DUP1 PUSH1 0x1F ADD PUSH1 0x20 DUP1 SWAP2 DIV MUL PUSH1 0x20 ADD PUSH1 0x40 MLOAD SWAP1 DUP2 ADD PUSH1 0x40 MSTORE DUP1 SWAP3 SWAP2 SWAP1 DUP2 DUP2 MSTORE PUSH1 0x20 ADD DUP3 DUP1 SLOAD PUSH2 0x2E9 SWAP1 PUSH2 0x562 JUMP JUMPDEST DUP1 ISZERO PUSH2 0x336 JUMPI DUP1 PUSH1 0x1F LT PUSH2 0x30B JUMPI PUSH2 0x100 DUP1 DUP4 SLOAD DIV MUL DUP4 MSTORE SWAP2 PUSH1 0x20 ADD SWAP2 PUSH2 0x336 JUMP JUMPDEST DUP3 ADD SWAP2 SWAP1 PUSH1 0x0 MSTORE PUSH1 0x20 PUSH1 0x0 KECCAK256 SWAP1 JUMPDEST DUP2 SLOAD DUP2 MSTORE SWAP1 PUSH1 0x1 ADD SWAP1 PUSH1 0x20 ADD DUP1 DUP4 GT PUSH2 0x319 JUMPI DUP3 SWAP1 SUB PUSH1 0x1F AND DUP3 ADD SWAP2 JUMPDEST POP POP POP POP POP DUP2 MSTORE PUSH1 0x20 ADD SWAP1 PUSH1 0x1 ADD SWAP1 PUSH2 0x29E JUMP JUMPDEST POP POP POP POP SWAP1 POP SWAP1 JUMP JUMPDEST DUP3 DUP1 SLOAD PUSH2 0x35F SWAP1 PUSH2 0x562 JUMP JUMPDEST SWAP1 PUSH1 0x0 MSTORE PUSH1 0x20 PUSH1 0x0 KECCAK256 SWAP1 PUSH1 0x1F ADD PUSH1 0x20 SWAP1 DIV DUP2 ADD SWAP3 DUP3 PUSH2 0x381 JUMPI PUSH1 0x0 DUP6 SSTORE PUSH2 0x3C8 JUMP JUMPDEST DUP3 PUSH1 0x1F LT PUSH2 0x39A JUMPI DUP1 MLOAD PUSH1 0xFF NOT AND DUP4 DUP1 ADD OR DUP6 SSTORE PUSH2 0x3C8 JUMP JUMPDEST DUP3 DUP1 ADD PUSH1 0x1 ADD DUP6 SSTORE DUP3 ISZERO PUSH2 0x3C8 JUMPI SWAP2 DUP3 ADD JUMPDEST DUP3 DUP2 GT ISZERO PUSH2 0x3C7 JUMPI DUP3 MLOAD DUP3 SSTORE SWAP2 PUSH1 0x20 ADD SWAP2 SWAP1 PUSH1 0x1 ADD SWAP1 PUSH2 0x3AC JUMP JUMPDEST JUMPDEST POP SWAP1 POP PUSH2 0x3D5 SWAP2 SWAP1 PUSH2 0x3D9 JUMP JUMPDEST POP SWAP1 JUMP JUMPDEST JUMPDEST DUP1 DUP3 GT ISZERO PUSH2 0x3F2 JUMPI PUSH1 0x0 DUP2 PUSH1 0x0 SWAP1 SSTORE POP PUSH1 0x1 ADD PUSH2 0x3DA JUMP JUMPDEST POP SWAP1 JUMP JUMPDEST PUSH1 0x0 PUSH2 0x402 DUP4 DUP4 PUSH2 0x47F JUMP JUMPDEST SWAP1 POP SWAP3 SWAP2 POP POP JUMP JUMPDEST PUSH1 0x0 PUSH2 0x415 DUP3 PUSH2 0x4EA JUMP JUMPDEST PUSH2 0x41F DUP2 DUP6 PUSH2 0x50D JUMP JUMPDEST SWAP4 POP DUP4 PUSH1 0x20 DUP3 MUL DUP6 ADD PUSH2 0x431 DUP6 PUSH2 0x4DA JUMP JUMPDEST DUP1 PUSH1 0x0 JUMPDEST DUP6 DUP2 LT ISZERO PUSH2 0x46D JUMPI DUP5 DUP5 SUB DUP10 MSTORE DUP2 MLOAD PUSH2 0x44E DUP6 DUP3 PUSH2 0x3F6 JUMP JUMPDEST SWAP5 POP PUSH2 0x459 DUP4 PUSH2 0x500 JUMP JUMPDEST SWAP3 POP PUSH1 0x20 DUP11 ADD SWAP10 POP POP PUSH1 0x1 DUP2 ADD SWAP1 POP PUSH2 0x435 JUMP JUMPDEST POP DUP3 SWAP8 POP DUP8 SWAP6 POP POP POP POP POP POP SWAP3 SWAP2 POP POP JUMP JUMPDEST PUSH1 0x0 PUSH2 0x48A DUP3 PUSH2 0x4F5 JUMP JUMPDEST PUSH2 0x494 DUP2 DUP6 PUSH2 0x51E JUMP JUMPDEST SWAP4 POP PUSH2 0x4A4 DUP2 DUP6 PUSH1 0x20 DUP7 ADD PUSH2 0x52F JUMP JUMPDEST PUSH2 0x4AD DUP2 PUSH2 0x5C3 JUMP JUMPDEST DUP5 ADD SWAP2 POP POP SWAP3 SWAP2 POP POP JUMP JUMPDEST PUSH1 0x0 PUSH1 0x20 DUP3 ADD SWAP1 POP DUP2 DUP2 SUB PUSH1 0x0 DUP4 ADD MSTORE PUSH2 0x4D2 DUP2 DUP5 PUSH2 0x40A JUMP JUMPDEST SWAP1 POP SWAP3 SWAP2 POP POP JUMP JUMPDEST PUSH1 0x0 DUP2 SWAP1 POP PUSH1 0x20 DUP3 ADD SWAP1 POP SWAP2 SWAP1 POP JUMP JUMPDEST PUSH1 0x0 DUP2 MLOAD SWAP1 POP SWAP2 SWAP1 POP JUMP JUMPDEST PUSH1 0x0 DUP2 MLOAD SWAP1 POP SWAP2 SWAP1 POP JUMP JUMPDEST PUSH1 0x0 PUSH1 0x20 DUP3 ADD SWAP1 POP SWAP2 SWAP1 POP JUMP JUMPDEST PUSH1 0x0 DUP3 DUP3 MSTORE PUSH1 0x20 DUP3 ADD SWAP1 POP SWAP3 SWAP2 POP POP JUMP JUMPDEST PUSH1 0x0 DUP3 DUP3 MSTORE PUSH1 0x20 DUP3 ADD SWAP1 POP SWAP3 SWAP2 POP POP JUMP JUMPDEST PUSH1 0x0 JUMPDEST DUP4 DUP2 LT ISZERO PUSH2 0x54D JUMPI DUP1 DUP3 ADD MLOAD DUP2 DUP5 ADD MSTORE PUSH1 0x20 DUP2 ADD SWAP1 POP PUSH2 0x532 JUMP JUMPDEST DUP4 DUP2 GT ISZERO PUSH2 0x55C JUMPI PUSH1 0x0 DUP5 DUP5 ADD MSTORE JUMPDEST POP POP POP POP JUMP JUMPDEST PUSH1 0x0 PUSH1 0x2 DUP3 DIV SWAP1 POP PUSH1 0x1 DUP3 AND DUP1 PUSH2 0x57A JUMPI PUSH1 0x7F DUP3 AND SWAP2 POP JUMPDEST PUSH1 0x20 DUP3 LT DUP2 EQ ISZERO PUSH2 0x58E JUMPI PUSH2 0x58D PUSH2 0x594 JUMP JUMPDEST JUMPDEST POP SWAP2 SWAP1 POP JUMP JUMPDEST PUSH32 0x4E487B7100000000000000000000000000000000000000000000000000000000 PUSH1 0x0 MSTORE PUSH1 0x22 PUSH1 0x4 MSTORE PUSH1 0x24 PUSH1 0x0 REVERT JUMPDEST PUSH1 0x0 PUSH1 0x1F NOT PUSH1 0x1F DUP4 ADD AND SWAP1 POP SWAP2 SWAP1 POP JUMP INVALID LOG2 PUSH5 0x6970667358 0x22 SLT KECCAK256 DUP7 0xB0 0xB0 PUSH32 0xFFB21A9BBB9D36668D140B7833221A8986506FEEE2CD6E541A68C80964736F6C PUSH4 0x43000807 STOP CALLER "
				},
				"gasEstimates": {
					"creation": {
						"codeDepositCost": "309200",
						"executionCost": "349",
						"totalCost": "309549"
					},
					"external": {
						"showCourses()": "infinite"
					}
				},
				"methodIdentifiers": {
					"showCourses()": "44a034cd"
				}
			},
			"storageLayout": {
				"storage": [
					{
						"astId": 4,
						"contract": "Chapter6/Ex6.11.sol:ArtStudent",
						"label": "courses",
						"offset": 0,
						"slot": "0",
						"type": "t_array(t_string_storage)dyn_storage"
					}
				],
				"types": {
					"t_array(t_string_storage)dyn_storage": {
						"base": "t_string_storage",
						"encoding": "dynamic_array",
						"label": "string[]",
						"numberOfBytes": "32"
					},
					"t_string_storage": {
						"encoding": "bytes",
						"label": "string",
						"numberOfBytes": "32"
					}
				}
			},
			"userdoc": {
				"kind": "user",
				"methods": {},
				"version": 1
			}
		}
	}
}