{
	"Chapter6/Ex6.04.sol": {
		"Computer": {
			"abi": [
				{
					"inputs": [],
					"stateMutability": "nonpayable",
					"type": "constructor"
				},
				{
					"inputs": [],
					"name": "getAllNames",
					"outputs": [
						{
							"internalType": "string",
							"name": "",
							"type": "string"
						},
						{
							"internalType": "string",
							"name": "",
							"type": "string"
						}
					],
					"stateMutability": "view",
					"type": "function"
				},
				{
					"inputs": [],
					"name": "monitor",
					"outputs": [
						{
							"internalType": "contract Monitor",
							"name": "",
							"type": "address"
						}
					],
					"stateMutability": "view",
					"type": "function"
				},
				{
					"inputs": [],
					"name": "start",
					"outputs": [
						{
							"internalType": "string",
							"name": "",
							"type": "string"
						},
						{
							"internalType": "string",
							"name": "",
							"type": "string"
						}
					],
					"stateMutability": "view",
					"type": "function"
				},
				{
					"inputs": [],
					"name": "systemUnit",
					"outputs": [
						{
							"internalType": "contract SystemUnit",
							"name": "",
							"type": "address"
						}
					],
					"stateMutability": "view",
					"type": "function"
				}
			],
			"devdoc": {
				"kind": "dev",
				"methods": {},
				"version": 1
			},
			"evm": {
				"assembly": "    /* \"Chapter6/Ex6.04.sol\":509:1020  contract Computer {... */\n  mstore(0x40, 0x80)\n    /* \"Chapter6/Ex6.04.sol\":621:746  constructor(){... */\n  callvalue\n  dup1\n  iszero\n  tag_1\n  jumpi\n  0x00\n  dup1\n  revert\ntag_1:\n  pop\n    /* \"Chapter6/Ex6.04.sol\":681:700  new Monitor(\"DW12\") */\n  mload(0x40)\n  tag_4\n  swap1\n  tag_5\n  jump\t// in\ntag_4:\n  tag_6\n  swap1\n  tag_7\n  jump\t// in\ntag_6:\n  mload(0x40)\n  dup1\n  swap2\n  sub\n  swap1\n  0x00\n  create\n  dup1\n  iszero\n  dup1\n  iszero\n  tag_8\n  jumpi\n  returndatasize\n  0x00\n  dup1\n  returndatacopy\n  revert(0x00, returndatasize)\ntag_8:\n  pop\n    /* \"Chapter6/Ex6.04.sol\":671:678  monitor */\n  0x00\n  dup1\n    /* \"Chapter6/Ex6.04.sol\":671:700  monitor = new Monitor(\"DW12\") */\n  0x0100\n  exp\n  dup2\n  sload\n  dup2\n  0xffffffffffffffffffffffffffffffffffffffff\n  mul\n  not\n  and\n  swap1\n  dup4\n  0xffffffffffffffffffffffffffffffffffffffff\n  and\n  mul\n  or\n  swap1\n  sstore\n  pop\n    /* \"Chapter6/Ex6.04.sol\":723:739  new SystemUnit() */\n  mload(0x40)\n  tag_9\n  swap1\n  tag_10\n  jump\t// in\ntag_9:\n  mload(0x40)\n  dup1\n  swap2\n  sub\n  swap1\n  0x00\n  create\n  dup1\n  iszero\n  dup1\n  iszero\n  tag_11\n  jumpi\n  returndatasize\n  0x00\n  dup1\n  returndatacopy\n  revert(0x00, returndatasize)\ntag_11:\n  pop\n    /* \"Chapter6/Ex6.04.sol\":710:720  systemUnit */\n  0x01\n  0x00\n    /* \"Chapter6/Ex6.04.sol\":710:739  systemUnit = new SystemUnit() */\n  0x0100\n  exp\n  dup2\n  sload\n  dup2\n  0xffffffffffffffffffffffffffffffffffffffff\n  mul\n  not\n  and\n  swap1\n  dup4\n  0xffffffffffffffffffffffffffffffffffffffff\n  and\n  mul\n  or\n  swap1\n  sstore\n  pop\n    /* \"Chapter6/Ex6.04.sol\":509:1020  contract Computer {... */\n  jump(tag_12)\ntag_5:\n  dataSize(sub_1)\n  dup1\n  dataOffset(sub_1)\n  dup4\n  codecopy\n  add\n  swap1\n  jump\t// out\ntag_10:\n  dataSize(sub_2)\n  dup1\n  dataOffset(sub_2)\n  dup4\n  codecopy\n  add\n  swap1\n  jump\t// out\n    /* \"#utility.yul\":7:372   */\ntag_14:\n    /* \"#utility.yul\":149:152   */\n  0x00\n    /* \"#utility.yul\":170:236   */\n  tag_16\n    /* \"#utility.yul\":234:235   */\n  0x04\n    /* \"#utility.yul\":229:232   */\n  dup4\n    /* \"#utility.yul\":170:236   */\n  tag_17\n  jump\t// in\ntag_16:\n    /* \"#utility.yul\":163:236   */\n  swap2\n  pop\n    /* \"#utility.yul\":245:338   */\n  tag_18\n    /* \"#utility.yul\":334:337   */\n  dup3\n    /* \"#utility.yul\":245:338   */\n  tag_19\n  jump\t// in\ntag_18:\n    /* \"#utility.yul\":363:365   */\n  0x20\n    /* \"#utility.yul\":358:361   */\n  dup3\n    /* \"#utility.yul\":354:366   */\n  add\n    /* \"#utility.yul\":347:366   */\n  swap1\n  pop\n    /* \"#utility.yul\":7:372   */\n  swap2\n  swap1\n  pop\n  jump\t// out\n    /* \"#utility.yul\":378:797   */\ntag_7:\n    /* \"#utility.yul\":544:548   */\n  0x00\n    /* \"#utility.yul\":582:584   */\n  0x20\n    /* \"#utility.yul\":571:580   */\n  dup3\n    /* \"#utility.yul\":567:585   */\n  add\n    /* \"#utility.yul\":559:585   */\n  swap1\n  pop\n    /* \"#utility.yul\":631:640   */\n  dup2\n    /* \"#utility.yul\":625:629   */\n  dup2\n    /* \"#utility.yul\":621:641   */\n  sub\n    /* \"#utility.yul\":617:618   */\n  0x00\n    /* \"#utility.yul\":606:615   */\n  dup4\n    /* \"#utility.yul\":602:619   */\n  add\n    /* \"#utility.yul\":595:642   */\n  mstore\n    /* \"#utility.yul\":659:790   */\n  tag_21\n    /* \"#utility.yul\":785:789   */\n  dup2\n    /* \"#utility.yul\":659:790   */\n  tag_14\n  jump\t// in\ntag_21:\n    /* \"#utility.yul\":651:790   */\n  swap1\n  pop\n    /* \"#utility.yul\":378:797   */\n  swap2\n  swap1\n  pop\n  jump\t// out\n    /* \"#utility.yul\":803:972   */\ntag_17:\n    /* \"#utility.yul\":887:898   */\n  0x00\n    /* \"#utility.yul\":921:927   */\n  dup3\n    /* \"#utility.yul\":916:919   */\n  dup3\n    /* \"#utility.yul\":909:928   */\n  mstore\n    /* \"#utility.yul\":961:965   */\n  0x20\n    /* \"#utility.yul\":956:959   */\n  dup3\n    /* \"#utility.yul\":952:966   */\n  add\n    /* \"#utility.yul\":937:966   */\n  swap1\n  pop\n    /* \"#utility.yul\":803:972   */\n  swap3\n  swap2\n  pop\n  pop\n  jump\t// out\n    /* \"#utility.yul\":978:1132   */\ntag_19:\n    /* \"#utility.yul\":1118:1124   */\n  0x4457313200000000000000000000000000000000000000000000000000000000\n    /* \"#utility.yul\":1114:1115   */\n  0x00\n    /* \"#utility.yul\":1106:1112   */\n  dup3\n    /* \"#utility.yul\":1102:1116   */\n  add\n    /* \"#utility.yul\":1095:1125   */\n  mstore\n    /* \"#utility.yul\":978:1132   */\n  pop\n  jump\t// out\n    /* \"Chapter6/Ex6.04.sol\":509:1020  contract Computer {... */\ntag_12:\n  dataSize(sub_0)\n  dup1\n  dataOffset(sub_0)\n  0x00\n  codecopy\n  0x00\n  return\nstop\n\nsub_0: assembly {\n        /* \"Chapter6/Ex6.04.sol\":509:1020  contract Computer {... */\n      mstore(0x40, 0x80)\n      callvalue\n      dup1\n      iszero\n      tag_1\n      jumpi\n      0x00\n      dup1\n      revert\n    tag_1:\n      pop\n      jumpi(tag_2, lt(calldatasize, 0x04))\n      shr(0xe0, calldataload(0x00))\n      dup1\n      0x3241992a\n      eq\n      tag_3\n      jumpi\n      dup1\n      0xbe9a6555\n      eq\n      tag_4\n      jumpi\n      dup1\n      0xfb825e5f\n      eq\n      tag_5\n      jumpi\n      dup1\n      0xfbeabdbb\n      eq\n      tag_6\n      jumpi\n    tag_2:\n      0x00\n      dup1\n      revert\n        /* \"Chapter6/Ex6.04.sol\":557:579  Monitor public monitor */\n    tag_3:\n      tag_7\n      tag_8\n      jump\t// in\n    tag_7:\n      mload(0x40)\n      tag_9\n      swap2\n      swap1\n      tag_10\n      jump\t// in\n    tag_9:\n      mload(0x40)\n      dup1\n      swap2\n      sub\n      swap1\n      return\n        /* \"Chapter6/Ex6.04.sol\":892:1018  function start() public view returns(string memory,string memory) {... */\n    tag_4:\n      tag_11\n      tag_12\n      jump\t// in\n    tag_11:\n      mload(0x40)\n      tag_13\n      swap3\n      swap2\n      swap1\n      tag_14\n      jump\t// in\n    tag_13:\n      mload(0x40)\n      dup1\n      swap2\n      sub\n      swap1\n      return\n        /* \"Chapter6/Ex6.04.sol\":752:882  function getAllNames() public view returns(string memory,string memory) {... */\n    tag_5:\n      tag_15\n      tag_16\n      jump\t// in\n    tag_15:\n      mload(0x40)\n      tag_17\n      swap3\n      swap2\n      swap1\n      tag_14\n      jump\t// in\n    tag_17:\n      mload(0x40)\n      dup1\n      swap2\n      sub\n      swap1\n      return\n        /* \"Chapter6/Ex6.04.sol\":585:613  SystemUnit public systemUnit */\n    tag_6:\n      tag_18\n      tag_19\n      jump\t// in\n    tag_18:\n      mload(0x40)\n      tag_20\n      swap2\n      swap1\n      tag_21\n      jump\t// in\n    tag_20:\n      mload(0x40)\n      dup1\n      swap2\n      sub\n      swap1\n      return\n        /* \"Chapter6/Ex6.04.sol\":557:579  Monitor public monitor */\n    tag_8:\n      0x00\n      dup1\n      sload\n      swap1\n      0x0100\n      exp\n      swap1\n      div\n      0xffffffffffffffffffffffffffffffffffffffff\n      and\n      dup2\n      jump\t// out\n        /* \"Chapter6/Ex6.04.sol\":892:1018  function start() public view returns(string memory,string memory) {... */\n    tag_12:\n        /* \"Chapter6/Ex6.04.sol\":929:942  string memory */\n      0x60\n        /* \"Chapter6/Ex6.04.sol\":943:956  string memory */\n      dup1\n        /* \"Chapter6/Ex6.04.sol\":975:982  monitor */\n      0x00\n      dup1\n      sload\n      swap1\n      0x0100\n      exp\n      swap1\n      div\n      0xffffffffffffffffffffffffffffffffffffffff\n      and\n        /* \"Chapter6/Ex6.04.sol\":975:987  monitor.show */\n      0xffffffffffffffffffffffffffffffffffffffff\n      and\n      0xcc80f6f3\n        /* \"Chapter6/Ex6.04.sol\":975:989  monitor.show() */\n      mload(0x40)\n      dup2\n      0xffffffff\n      and\n      0xe0\n      shl\n      dup2\n      mstore\n      0x04\n      add\n      0x00\n      mload(0x40)\n      dup1\n      dup4\n      sub\n      dup2\n      dup7\n      dup1\n      extcodesize\n      iszero\n      dup1\n      iszero\n      tag_23\n      jumpi\n      0x00\n      dup1\n      revert\n    tag_23:\n      pop\n      gas\n      staticcall\n      iszero\n      dup1\n      iszero\n      tag_25\n      jumpi\n      returndatasize\n      0x00\n      dup1\n      returndatacopy\n      revert(0x00, returndatasize)\n    tag_25:\n      pop\n      pop\n      pop\n      pop\n      mload(0x40)\n      returndatasize\n      0x00\n      dup3\n      returndatacopy\n      returndatasize\n      not(0x1f)\n      0x1f\n      dup3\n      add\n      and\n      dup3\n      add\n      dup1\n      0x40\n      mstore\n      pop\n      dup2\n      add\n      swap1\n      tag_26\n      swap2\n      swap1\n      tag_27\n      jump\t// in\n    tag_26:\n        /* \"Chapter6/Ex6.04.sol\":991:1001  systemUnit */\n      0x01\n      0x00\n      swap1\n      sload\n      swap1\n      0x0100\n      exp\n      swap1\n      div\n      0xffffffffffffffffffffffffffffffffffffffff\n      and\n        /* \"Chapter6/Ex6.04.sol\":991:1008  systemUnit.turnOn */\n      0xffffffffffffffffffffffffffffffffffffffff\n      and\n      0xba33ed7d\n        /* \"Chapter6/Ex6.04.sol\":991:1010  systemUnit.turnOn() */\n      mload(0x40)\n      dup2\n      0xffffffff\n      and\n      0xe0\n      shl\n      dup2\n      mstore\n      0x04\n      add\n      0x00\n      mload(0x40)\n      dup1\n      dup4\n      sub\n      dup2\n      dup7\n      dup1\n      extcodesize\n      iszero\n      dup1\n      iszero\n      tag_28\n      jumpi\n      0x00\n      dup1\n      revert\n    tag_28:\n      pop\n      gas\n      staticcall\n      iszero\n      dup1\n      iszero\n      tag_30\n      jumpi\n      returndatasize\n      0x00\n      dup1\n      returndatacopy\n      revert(0x00, returndatasize)\n    tag_30:\n      pop\n      pop\n      pop\n      pop\n      mload(0x40)\n      returndatasize\n      0x00\n      dup3\n      returndatacopy\n      returndatasize\n      not(0x1f)\n      0x1f\n      dup3\n      add\n      and\n      dup3\n      add\n      dup1\n      0x40\n      mstore\n      pop\n      dup2\n      add\n      swap1\n      tag_31\n      swap2\n      swap1\n      tag_27\n      jump\t// in\n    tag_31:\n        /* \"Chapter6/Ex6.04.sol\":968:1011  return(monitor.show(), systemUnit.turnOn()) */\n      swap2\n      pop\n      swap2\n      pop\n        /* \"Chapter6/Ex6.04.sol\":892:1018  function start() public view returns(string memory,string memory) {... */\n      swap1\n      swap2\n      jump\t// out\n        /* \"Chapter6/Ex6.04.sol\":752:882  function getAllNames() public view returns(string memory,string memory) {... */\n    tag_16:\n        /* \"Chapter6/Ex6.04.sol\":795:808  string memory */\n      0x60\n        /* \"Chapter6/Ex6.04.sol\":809:822  string memory */\n      dup1\n        /* \"Chapter6/Ex6.04.sol\":841:848  monitor */\n      0x00\n      dup1\n      sload\n      swap1\n      0x0100\n      exp\n      swap1\n      div\n      0xffffffffffffffffffffffffffffffffffffffff\n      and\n        /* \"Chapter6/Ex6.04.sol\":841:853  monitor.name */\n      0xffffffffffffffffffffffffffffffffffffffff\n      and\n      0x06fdde03\n        /* \"Chapter6/Ex6.04.sol\":841:855  monitor.name() */\n      mload(0x40)\n      dup2\n      0xffffffff\n      and\n      0xe0\n      shl\n      dup2\n      mstore\n      0x04\n      add\n      0x00\n      mload(0x40)\n      dup1\n      dup4\n      sub\n      dup2\n      dup7\n      dup1\n      extcodesize\n      iszero\n      dup1\n      iszero\n      tag_33\n      jumpi\n      0x00\n      dup1\n      revert\n    tag_33:\n      pop\n      gas\n      staticcall\n      iszero\n      dup1\n      iszero\n      tag_35\n      jumpi\n      returndatasize\n      0x00\n      dup1\n      returndatacopy\n      revert(0x00, returndatasize)\n    tag_35:\n      pop\n      pop\n      pop\n      pop\n      mload(0x40)\n      returndatasize\n      0x00\n      dup3\n      returndatacopy\n      returndatasize\n      not(0x1f)\n      0x1f\n      dup3\n      add\n      and\n      dup3\n      add\n      dup1\n      0x40\n      mstore\n      pop\n      dup2\n      add\n      swap1\n      tag_36\n      swap2\n      swap1\n      tag_27\n      jump\t// in\n    tag_36:\n        /* \"Chapter6/Ex6.04.sol\":857:867  systemUnit */\n      0x01\n      0x00\n      swap1\n      sload\n      swap1\n      0x0100\n      exp\n      swap1\n      div\n      0xffffffffffffffffffffffffffffffffffffffff\n      and\n        /* \"Chapter6/Ex6.04.sol\":857:872  systemUnit.name */\n      0xffffffffffffffffffffffffffffffffffffffff\n      and\n      0x06fdde03\n        /* \"Chapter6/Ex6.04.sol\":857:874  systemUnit.name() */\n      mload(0x40)\n      dup2\n      0xffffffff\n      and\n      0xe0\n      shl\n      dup2\n      mstore\n      0x04\n      add\n      0x00\n      mload(0x40)\n      dup1\n      dup4\n      sub\n      dup2\n      dup7\n      dup1\n      extcodesize\n      iszero\n      dup1\n      iszero\n      tag_37\n      jumpi\n      0x00\n      dup1\n      revert\n    tag_37:\n      pop\n      gas\n      staticcall\n      iszero\n      dup1\n      iszero\n      tag_39\n      jumpi\n      returndatasize\n      0x00\n      dup1\n      returndatacopy\n      revert(0x00, returndatasize)\n    tag_39:\n      pop\n      pop\n      pop\n      pop\n      mload(0x40)\n      returndatasize\n      0x00\n      dup3\n      returndatacopy\n      returndatasize\n      not(0x1f)\n      0x1f\n      dup3\n      add\n      and\n      dup3\n      add\n      dup1\n      0x40\n      mstore\n      pop\n      dup2\n      add\n      swap1\n      tag_40\n      swap2\n      swap1\n      tag_27\n      jump\t// in\n    tag_40:\n        /* \"Chapter6/Ex6.04.sol\":834:875  return(monitor.name(), systemUnit.name()) */\n      swap2\n      pop\n      swap2\n      pop\n        /* \"Chapter6/Ex6.04.sol\":752:882  function getAllNames() public view returns(string memory,string memory) {... */\n      swap1\n      swap2\n      jump\t// out\n        /* \"Chapter6/Ex6.04.sol\":585:613  SystemUnit public systemUnit */\n    tag_19:\n      0x01\n      0x00\n      swap1\n      sload\n      swap1\n      0x0100\n      exp\n      swap1\n      div\n      0xffffffffffffffffffffffffffffffffffffffff\n      and\n      dup2\n      jump\t// out\n        /* \"#utility.yul\":7:428   */\n    tag_42:\n        /* \"#utility.yul\":96:101   */\n      0x00\n        /* \"#utility.yul\":121:187   */\n      tag_44\n        /* \"#utility.yul\":137:186   */\n      tag_45\n        /* \"#utility.yul\":179:185   */\n      dup5\n        /* \"#utility.yul\":137:186   */\n      tag_46\n      jump\t// in\n    tag_45:\n        /* \"#utility.yul\":121:187   */\n      tag_47\n      jump\t// in\n    tag_44:\n        /* \"#utility.yul\":112:187   */\n      swap1\n      pop\n        /* \"#utility.yul\":210:216   */\n      dup3\n        /* \"#utility.yul\":203:208   */\n      dup2\n        /* \"#utility.yul\":196:217   */\n      mstore\n        /* \"#utility.yul\":248:252   */\n      0x20\n        /* \"#utility.yul\":241:246   */\n      dup2\n        /* \"#utility.yul\":237:253   */\n      add\n        /* \"#utility.yul\":286:289   */\n      dup5\n        /* \"#utility.yul\":277:283   */\n      dup5\n        /* \"#utility.yul\":272:275   */\n      dup5\n        /* \"#utility.yul\":268:284   */\n      add\n        /* \"#utility.yul\":265:290   */\n      gt\n        /* \"#utility.yul\":262:374   */\n      iszero\n      tag_48\n      jumpi\n        /* \"#utility.yul\":293:372   */\n      tag_49\n      tag_50\n      jump\t// in\n    tag_49:\n        /* \"#utility.yul\":262:374   */\n    tag_48:\n        /* \"#utility.yul\":383:422   */\n      tag_51\n        /* \"#utility.yul\":415:421   */\n      dup5\n        /* \"#utility.yul\":410:413   */\n      dup3\n        /* \"#utility.yul\":405:408   */\n      dup6\n        /* \"#utility.yul\":383:422   */\n      tag_52\n      jump\t// in\n    tag_51:\n        /* \"#utility.yul\":102:428   */\n      pop\n        /* \"#utility.yul\":7:428   */\n      swap4\n      swap3\n      pop\n      pop\n      pop\n      jump\t// out\n        /* \"#utility.yul\":448:803   */\n    tag_53:\n        /* \"#utility.yul\":515:520   */\n      0x00\n        /* \"#utility.yul\":564:567   */\n      dup3\n        /* \"#utility.yul\":557:561   */\n      0x1f\n        /* \"#utility.yul\":549:555   */\n      dup4\n        /* \"#utility.yul\":545:562   */\n      add\n        /* \"#utility.yul\":541:568   */\n      slt\n        /* \"#utility.yul\":531:653   */\n      tag_55\n      jumpi\n        /* \"#utility.yul\":572:651   */\n      tag_56\n      tag_57\n      jump\t// in\n    tag_56:\n        /* \"#utility.yul\":531:653   */\n    tag_55:\n        /* \"#utility.yul\":682:688   */\n      dup2\n        /* \"#utility.yul\":676:689   */\n      mload\n        /* \"#utility.yul\":707:797   */\n      tag_58\n        /* \"#utility.yul\":793:796   */\n      dup5\n        /* \"#utility.yul\":785:791   */\n      dup3\n        /* \"#utility.yul\":778:782   */\n      0x20\n        /* \"#utility.yul\":770:776   */\n      dup7\n        /* \"#utility.yul\":766:783   */\n      add\n        /* \"#utility.yul\":707:797   */\n      tag_42\n      jump\t// in\n    tag_58:\n        /* \"#utility.yul\":698:797   */\n      swap2\n      pop\n        /* \"#utility.yul\":521:803   */\n      pop\n        /* \"#utility.yul\":448:803   */\n      swap3\n      swap2\n      pop\n      pop\n      jump\t// out\n        /* \"#utility.yul\":809:1333   */\n    tag_27:\n        /* \"#utility.yul\":889:895   */\n      0x00\n        /* \"#utility.yul\":938:940   */\n      0x20\n        /* \"#utility.yul\":926:935   */\n      dup3\n        /* \"#utility.yul\":917:924   */\n      dup5\n        /* \"#utility.yul\":913:936   */\n      sub\n        /* \"#utility.yul\":909:941   */\n      slt\n        /* \"#utility.yul\":906:1025   */\n      iszero\n      tag_60\n      jumpi\n        /* \"#utility.yul\":944:1023   */\n      tag_61\n      tag_62\n      jump\t// in\n    tag_61:\n        /* \"#utility.yul\":906:1025   */\n    tag_60:\n        /* \"#utility.yul\":1085:1086   */\n      0x00\n        /* \"#utility.yul\":1074:1083   */\n      dup3\n        /* \"#utility.yul\":1070:1087   */\n      add\n        /* \"#utility.yul\":1064:1088   */\n      mload\n        /* \"#utility.yul\":1115:1133   */\n      0xffffffffffffffff\n        /* \"#utility.yul\":1107:1113   */\n      dup2\n        /* \"#utility.yul\":1104:1134   */\n      gt\n        /* \"#utility.yul\":1101:1218   */\n      iszero\n      tag_63\n      jumpi\n        /* \"#utility.yul\":1137:1216   */\n      tag_64\n      tag_65\n      jump\t// in\n    tag_64:\n        /* \"#utility.yul\":1101:1218   */\n    tag_63:\n        /* \"#utility.yul\":1242:1316   */\n      tag_66\n        /* \"#utility.yul\":1308:1315   */\n      dup5\n        /* \"#utility.yul\":1299:1305   */\n      dup3\n        /* \"#utility.yul\":1288:1297   */\n      dup6\n        /* \"#utility.yul\":1284:1306   */\n      add\n        /* \"#utility.yul\":1242:1316   */\n      tag_53\n      jump\t// in\n    tag_66:\n        /* \"#utility.yul\":1232:1316   */\n      swap2\n      pop\n        /* \"#utility.yul\":1035:1326   */\n      pop\n        /* \"#utility.yul\":809:1333   */\n      swap3\n      swap2\n      pop\n      pop\n      jump\t// out\n        /* \"#utility.yul\":1339:1498   */\n    tag_67:\n        /* \"#utility.yul\":1440:1491   */\n      tag_69\n        /* \"#utility.yul\":1485:1490   */\n      dup2\n        /* \"#utility.yul\":1440:1491   */\n      tag_70\n      jump\t// in\n    tag_69:\n        /* \"#utility.yul\":1435:1438   */\n      dup3\n        /* \"#utility.yul\":1428:1492   */\n      mstore\n        /* \"#utility.yul\":1339:1498   */\n      pop\n      pop\n      jump\t// out\n        /* \"#utility.yul\":1504:1669   */\n    tag_71:\n        /* \"#utility.yul\":1608:1662   */\n      tag_73\n        /* \"#utility.yul\":1656:1661   */\n      dup2\n        /* \"#utility.yul\":1608:1662   */\n      tag_74\n      jump\t// in\n    tag_73:\n        /* \"#utility.yul\":1603:1606   */\n      dup3\n        /* \"#utility.yul\":1596:1663   */\n      mstore\n        /* \"#utility.yul\":1504:1669   */\n      pop\n      pop\n      jump\t// out\n        /* \"#utility.yul\":1675:2039   */\n    tag_75:\n        /* \"#utility.yul\":1763:1766   */\n      0x00\n        /* \"#utility.yul\":1791:1830   */\n      tag_77\n        /* \"#utility.yul\":1824:1829   */\n      dup3\n        /* \"#utility.yul\":1791:1830   */\n      tag_78\n      jump\t// in\n    tag_77:\n        /* \"#utility.yul\":1846:1917   */\n      tag_79\n        /* \"#utility.yul\":1910:1916   */\n      dup2\n        /* \"#utility.yul\":1905:1908   */\n      dup6\n        /* \"#utility.yul\":1846:1917   */\n      tag_80\n      jump\t// in\n    tag_79:\n        /* \"#utility.yul\":1839:1917   */\n      swap4\n      pop\n        /* \"#utility.yul\":1926:1978   */\n      tag_81\n        /* \"#utility.yul\":1971:1977   */\n      dup2\n        /* \"#utility.yul\":1966:1969   */\n      dup6\n        /* \"#utility.yul\":1959:1963   */\n      0x20\n        /* \"#utility.yul\":1952:1957   */\n      dup7\n        /* \"#utility.yul\":1948:1964   */\n      add\n        /* \"#utility.yul\":1926:1978   */\n      tag_52\n      jump\t// in\n    tag_81:\n        /* \"#utility.yul\":2003:2032   */\n      tag_82\n        /* \"#utility.yul\":2025:2031   */\n      dup2\n        /* \"#utility.yul\":2003:2032   */\n      tag_83\n      jump\t// in\n    tag_82:\n        /* \"#utility.yul\":1998:2001   */\n      dup5\n        /* \"#utility.yul\":1994:2033   */\n      add\n        /* \"#utility.yul\":1987:2033   */\n      swap2\n      pop\n        /* \"#utility.yul\":1767:2039   */\n      pop\n        /* \"#utility.yul\":1675:2039   */\n      swap3\n      swap2\n      pop\n      pop\n      jump\t// out\n        /* \"#utility.yul\":2045:2295   */\n    tag_10:\n        /* \"#utility.yul\":2152:2156   */\n      0x00\n        /* \"#utility.yul\":2190:2192   */\n      0x20\n        /* \"#utility.yul\":2179:2188   */\n      dup3\n        /* \"#utility.yul\":2175:2193   */\n      add\n        /* \"#utility.yul\":2167:2193   */\n      swap1\n      pop\n        /* \"#utility.yul\":2203:2288   */\n      tag_85\n        /* \"#utility.yul\":2285:2286   */\n      0x00\n        /* \"#utility.yul\":2274:2283   */\n      dup4\n        /* \"#utility.yul\":2270:2287   */\n      add\n        /* \"#utility.yul\":2261:2267   */\n      dup5\n        /* \"#utility.yul\":2203:2288   */\n      tag_67\n      jump\t// in\n    tag_85:\n        /* \"#utility.yul\":2045:2295   */\n      swap3\n      swap2\n      pop\n      pop\n      jump\t// out\n        /* \"#utility.yul\":2301:2557   */\n    tag_21:\n        /* \"#utility.yul\":2411:2415   */\n      0x00\n        /* \"#utility.yul\":2449:2451   */\n      0x20\n        /* \"#utility.yul\":2438:2447   */\n      dup3\n        /* \"#utility.yul\":2434:2452   */\n      add\n        /* \"#utility.yul\":2426:2452   */\n      swap1\n      pop\n        /* \"#utility.yul\":2462:2550   */\n      tag_87\n        /* \"#utility.yul\":2547:2548   */\n      0x00\n        /* \"#utility.yul\":2536:2545   */\n      dup4\n        /* \"#utility.yul\":2532:2549   */\n      add\n        /* \"#utility.yul\":2523:2529   */\n      dup5\n        /* \"#utility.yul\":2462:2550   */\n      tag_71\n      jump\t// in\n    tag_87:\n        /* \"#utility.yul\":2301:2557   */\n      swap3\n      swap2\n      pop\n      pop\n      jump\t// out\n        /* \"#utility.yul\":2563:3077   */\n    tag_14:\n        /* \"#utility.yul\":2724:2728   */\n      0x00\n        /* \"#utility.yul\":2762:2764   */\n      0x40\n        /* \"#utility.yul\":2751:2760   */\n      dup3\n        /* \"#utility.yul\":2747:2765   */\n      add\n        /* \"#utility.yul\":2739:2765   */\n      swap1\n      pop\n        /* \"#utility.yul\":2811:2820   */\n      dup2\n        /* \"#utility.yul\":2805:2809   */\n      dup2\n        /* \"#utility.yul\":2801:2821   */\n      sub\n        /* \"#utility.yul\":2797:2798   */\n      0x00\n        /* \"#utility.yul\":2786:2795   */\n      dup4\n        /* \"#utility.yul\":2782:2799   */\n      add\n        /* \"#utility.yul\":2775:2822   */\n      mstore\n        /* \"#utility.yul\":2839:2917   */\n      tag_89\n        /* \"#utility.yul\":2912:2916   */\n      dup2\n        /* \"#utility.yul\":2903:2909   */\n      dup6\n        /* \"#utility.yul\":2839:2917   */\n      tag_75\n      jump\t// in\n    tag_89:\n        /* \"#utility.yul\":2831:2917   */\n      swap1\n      pop\n        /* \"#utility.yul\":2964:2973   */\n      dup2\n        /* \"#utility.yul\":2958:2962   */\n      dup2\n        /* \"#utility.yul\":2954:2974   */\n      sub\n        /* \"#utility.yul\":2949:2951   */\n      0x20\n        /* \"#utility.yul\":2938:2947   */\n      dup4\n        /* \"#utility.yul\":2934:2952   */\n      add\n        /* \"#utility.yul\":2927:2975   */\n      mstore\n        /* \"#utility.yul\":2992:3070   */\n      tag_90\n        /* \"#utility.yul\":3065:3069   */\n      dup2\n        /* \"#utility.yul\":3056:3062   */\n      dup5\n        /* \"#utility.yul\":2992:3070   */\n      tag_75\n      jump\t// in\n    tag_90:\n        /* \"#utility.yul\":2984:3070   */\n      swap1\n      pop\n        /* \"#utility.yul\":2563:3077   */\n      swap4\n      swap3\n      pop\n      pop\n      pop\n      jump\t// out\n        /* \"#utility.yul\":3083:3212   */\n    tag_47:\n        /* \"#utility.yul\":3117:3123   */\n      0x00\n        /* \"#utility.yul\":3144:3164   */\n      tag_92\n      tag_93\n      jump\t// in\n    tag_92:\n        /* \"#utility.yul\":3134:3164   */\n      swap1\n      pop\n        /* \"#utility.yul\":3173:3206   */\n      tag_94\n        /* \"#utility.yul\":3201:3205   */\n      dup3\n        /* \"#utility.yul\":3193:3199   */\n      dup3\n        /* \"#utility.yul\":3173:3206   */\n      tag_95\n      jump\t// in\n    tag_94:\n        /* \"#utility.yul\":3083:3212   */\n      swap2\n      swap1\n      pop\n      jump\t// out\n        /* \"#utility.yul\":3218:3293   */\n    tag_93:\n        /* \"#utility.yul\":3251:3257   */\n      0x00\n        /* \"#utility.yul\":3284:3286   */\n      0x40\n        /* \"#utility.yul\":3278:3287   */\n      mload\n        /* \"#utility.yul\":3268:3287   */\n      swap1\n      pop\n        /* \"#utility.yul\":3218:3293   */\n      swap1\n      jump\t// out\n        /* \"#utility.yul\":3299:3607   */\n    tag_46:\n        /* \"#utility.yul\":3361:3365   */\n      0x00\n        /* \"#utility.yul\":3451:3469   */\n      0xffffffffffffffff\n        /* \"#utility.yul\":3443:3449   */\n      dup3\n        /* \"#utility.yul\":3440:3470   */\n      gt\n        /* \"#utility.yul\":3437:3493   */\n      iszero\n      tag_98\n      jumpi\n        /* \"#utility.yul\":3473:3491   */\n      tag_99\n      tag_100\n      jump\t// in\n    tag_99:\n        /* \"#utility.yul\":3437:3493   */\n    tag_98:\n        /* \"#utility.yul\":3511:3540   */\n      tag_101\n        /* \"#utility.yul\":3533:3539   */\n      dup3\n        /* \"#utility.yul\":3511:3540   */\n      tag_83\n      jump\t// in\n    tag_101:\n        /* \"#utility.yul\":3503:3540   */\n      swap1\n      pop\n        /* \"#utility.yul\":3595:3599   */\n      0x20\n        /* \"#utility.yul\":3589:3593   */\n      dup2\n        /* \"#utility.yul\":3585:3600   */\n      add\n        /* \"#utility.yul\":3577:3600   */\n      swap1\n      pop\n        /* \"#utility.yul\":3299:3607   */\n      swap2\n      swap1\n      pop\n      jump\t// out\n        /* \"#utility.yul\":3613:3712   */\n    tag_78:\n        /* \"#utility.yul\":3665:3671   */\n      0x00\n        /* \"#utility.yul\":3699:3704   */\n      dup2\n        /* \"#utility.yul\":3693:3705   */\n      mload\n        /* \"#utility.yul\":3683:3705   */\n      swap1\n      pop\n        /* \"#utility.yul\":3613:3712   */\n      swap2\n      swap1\n      pop\n      jump\t// out\n        /* \"#utility.yul\":3718:3887   */\n    tag_80:\n        /* \"#utility.yul\":3802:3813   */\n      0x00\n        /* \"#utility.yul\":3836:3842   */\n      dup3\n        /* \"#utility.yul\":3831:3834   */\n      dup3\n        /* \"#utility.yul\":3824:3843   */\n      mstore\n        /* \"#utility.yul\":3876:3880   */\n      0x20\n        /* \"#utility.yul\":3871:3874   */\n      dup3\n        /* \"#utility.yul\":3867:3881   */\n      add\n        /* \"#utility.yul\":3852:3881   */\n      swap1\n      pop\n        /* \"#utility.yul\":3718:3887   */\n      swap3\n      swap2\n      pop\n      pop\n      jump\t// out\n        /* \"#utility.yul\":3893:4019   */\n    tag_104:\n        /* \"#utility.yul\":3930:3937   */\n      0x00\n        /* \"#utility.yul\":3970:4012   */\n      0xffffffffffffffffffffffffffffffffffffffff\n        /* \"#utility.yul\":3963:3968   */\n      dup3\n        /* \"#utility.yul\":3959:4013   */\n      and\n        /* \"#utility.yul\":3948:4013   */\n      swap1\n      pop\n        /* \"#utility.yul\":3893:4019   */\n      swap2\n      swap1\n      pop\n      jump\t// out\n        /* \"#utility.yul\":4025:4165   */\n    tag_70:\n        /* \"#utility.yul\":4089:4098   */\n      0x00\n        /* \"#utility.yul\":4122:4159   */\n      tag_107\n        /* \"#utility.yul\":4153:4158   */\n      dup3\n        /* \"#utility.yul\":4122:4159   */\n      tag_108\n      jump\t// in\n    tag_107:\n        /* \"#utility.yul\":4109:4159   */\n      swap1\n      pop\n        /* \"#utility.yul\":4025:4165   */\n      swap2\n      swap1\n      pop\n      jump\t// out\n        /* \"#utility.yul\":4171:4314   */\n    tag_74:\n        /* \"#utility.yul\":4238:4247   */\n      0x00\n        /* \"#utility.yul\":4271:4308   */\n      tag_110\n        /* \"#utility.yul\":4302:4307   */\n      dup3\n        /* \"#utility.yul\":4271:4308   */\n      tag_108\n      jump\t// in\n    tag_110:\n        /* \"#utility.yul\":4258:4308   */\n      swap1\n      pop\n        /* \"#utility.yul\":4171:4314   */\n      swap2\n      swap1\n      pop\n      jump\t// out\n        /* \"#utility.yul\":4320:4446   */\n    tag_108:\n        /* \"#utility.yul\":4370:4379   */\n      0x00\n        /* \"#utility.yul\":4403:4440   */\n      tag_112\n        /* \"#utility.yul\":4434:4439   */\n      dup3\n        /* \"#utility.yul\":4403:4440   */\n      tag_113\n      jump\t// in\n    tag_112:\n        /* \"#utility.yul\":4390:4440   */\n      swap1\n      pop\n        /* \"#utility.yul\":4320:4446   */\n      swap2\n      swap1\n      pop\n      jump\t// out\n        /* \"#utility.yul\":4452:4565   */\n    tag_113:\n        /* \"#utility.yul\":4502:4511   */\n      0x00\n        /* \"#utility.yul\":4535:4559   */\n      tag_115\n        /* \"#utility.yul\":4553:4558   */\n      dup3\n        /* \"#utility.yul\":4535:4559   */\n      tag_104\n      jump\t// in\n    tag_115:\n        /* \"#utility.yul\":4522:4559   */\n      swap1\n      pop\n        /* \"#utility.yul\":4452:4565   */\n      swap2\n      swap1\n      pop\n      jump\t// out\n        /* \"#utility.yul\":4571:4878   */\n    tag_52:\n        /* \"#utility.yul\":4639:4640   */\n      0x00\n        /* \"#utility.yul\":4649:4762   */\n    tag_117:\n        /* \"#utility.yul\":4663:4669   */\n      dup4\n        /* \"#utility.yul\":4660:4661   */\n      dup2\n        /* \"#utility.yul\":4657:4670   */\n      lt\n        /* \"#utility.yul\":4649:4762   */\n      iszero\n      tag_119\n      jumpi\n        /* \"#utility.yul\":4748:4749   */\n      dup1\n        /* \"#utility.yul\":4743:4746   */\n      dup3\n        /* \"#utility.yul\":4739:4750   */\n      add\n        /* \"#utility.yul\":4733:4751   */\n      mload\n        /* \"#utility.yul\":4729:4730   */\n      dup2\n        /* \"#utility.yul\":4724:4727   */\n      dup5\n        /* \"#utility.yul\":4720:4731   */\n      add\n        /* \"#utility.yul\":4713:4752   */\n      mstore\n        /* \"#utility.yul\":4685:4687   */\n      0x20\n        /* \"#utility.yul\":4682:4683   */\n      dup2\n        /* \"#utility.yul\":4678:4688   */\n      add\n        /* \"#utility.yul\":4673:4688   */\n      swap1\n      pop\n        /* \"#utility.yul\":4649:4762   */\n      jump(tag_117)\n    tag_119:\n        /* \"#utility.yul\":4780:4786   */\n      dup4\n        /* \"#utility.yul\":4777:4778   */\n      dup2\n        /* \"#utility.yul\":4774:4787   */\n      gt\n        /* \"#utility.yul\":4771:4872   */\n      iszero\n      tag_120\n      jumpi\n        /* \"#utility.yul\":4860:4861   */\n      0x00\n        /* \"#utility.yul\":4851:4857   */\n      dup5\n        /* \"#utility.yul\":4846:4849   */\n      dup5\n        /* \"#utility.yul\":4842:4858   */\n      add\n        /* \"#utility.yul\":4835:4862   */\n      mstore\n        /* \"#utility.yul\":4771:4872   */\n    tag_120:\n        /* \"#utility.yul\":4620:4878   */\n      pop\n        /* \"#utility.yul\":4571:4878   */\n      pop\n      pop\n      pop\n      jump\t// out\n        /* \"#utility.yul\":4884:5165   */\n    tag_95:\n        /* \"#utility.yul\":4967:4994   */\n      tag_122\n        /* \"#utility.yul\":4989:4993   */\n      dup3\n        /* \"#utility.yul\":4967:4994   */\n      tag_83\n      jump\t// in\n    tag_122:\n        /* \"#utility.yul\":4959:4965   */\n      dup2\n        /* \"#utility.yul\":4955:4995   */\n      add\n        /* \"#utility.yul\":5097:5103   */\n      dup2\n        /* \"#utility.yul\":5085:5095   */\n      dup2\n        /* \"#utility.yul\":5082:5104   */\n      lt\n        /* \"#utility.yul\":5061:5079   */\n      0xffffffffffffffff\n        /* \"#utility.yul\":5049:5059   */\n      dup3\n        /* \"#utility.yul\":5046:5080   */\n      gt\n        /* \"#utility.yul\":5043:5105   */\n      or\n        /* \"#utility.yul\":5040:5128   */\n      iszero\n      tag_123\n      jumpi\n        /* \"#utility.yul\":5108:5126   */\n      tag_124\n      tag_100\n      jump\t// in\n    tag_124:\n        /* \"#utility.yul\":5040:5128   */\n    tag_123:\n        /* \"#utility.yul\":5148:5158   */\n      dup1\n        /* \"#utility.yul\":5144:5146   */\n      0x40\n        /* \"#utility.yul\":5137:5159   */\n      mstore\n        /* \"#utility.yul\":4927:5165   */\n      pop\n        /* \"#utility.yul\":4884:5165   */\n      pop\n      pop\n      jump\t// out\n        /* \"#utility.yul\":5171:5351   */\n    tag_100:\n        /* \"#utility.yul\":5219:5296   */\n      0x4e487b7100000000000000000000000000000000000000000000000000000000\n        /* \"#utility.yul\":5216:5217   */\n      0x00\n        /* \"#utility.yul\":5209:5297   */\n      mstore\n        /* \"#utility.yul\":5316:5320   */\n      0x41\n        /* \"#utility.yul\":5313:5314   */\n      0x04\n        /* \"#utility.yul\":5306:5321   */\n      mstore\n        /* \"#utility.yul\":5340:5344   */\n      0x24\n        /* \"#utility.yul\":5337:5338   */\n      0x00\n        /* \"#utility.yul\":5330:5345   */\n      revert\n        /* \"#utility.yul\":5357:5474   */\n    tag_57:\n        /* \"#utility.yul\":5466:5467   */\n      0x00\n        /* \"#utility.yul\":5463:5464   */\n      dup1\n        /* \"#utility.yul\":5456:5468   */\n      revert\n        /* \"#utility.yul\":5480:5597   */\n    tag_50:\n        /* \"#utility.yul\":5589:5590   */\n      0x00\n        /* \"#utility.yul\":5586:5587   */\n      dup1\n        /* \"#utility.yul\":5579:5591   */\n      revert\n        /* \"#utility.yul\":5603:5720   */\n    tag_65:\n        /* \"#utility.yul\":5712:5713   */\n      0x00\n        /* \"#utility.yul\":5709:5710   */\n      dup1\n        /* \"#utility.yul\":5702:5714   */\n      revert\n        /* \"#utility.yul\":5726:5843   */\n    tag_62:\n        /* \"#utility.yul\":5835:5836   */\n      0x00\n        /* \"#utility.yul\":5832:5833   */\n      dup1\n        /* \"#utility.yul\":5825:5837   */\n      revert\n        /* \"#utility.yul\":5849:5951   */\n    tag_83:\n        /* \"#utility.yul\":5890:5896   */\n      0x00\n        /* \"#utility.yul\":5941:5943   */\n      0x1f\n        /* \"#utility.yul\":5937:5944   */\n      not\n        /* \"#utility.yul\":5932:5934   */\n      0x1f\n        /* \"#utility.yul\":5925:5930   */\n      dup4\n        /* \"#utility.yul\":5921:5935   */\n      add\n        /* \"#utility.yul\":5917:5945   */\n      and\n        /* \"#utility.yul\":5907:5945   */\n      swap1\n      pop\n        /* \"#utility.yul\":5849:5951   */\n      swap2\n      swap1\n      pop\n      jump\t// out\n\n    auxdata: 0xa2646970667358221220760a1f93fe6ad2260131a3f168c2e5d5866819a73aa41a06a6733d20cf0acc7364736f6c63430008070033\n}\n\nsub_1: assembly {\n        /* \"Chapter6/Ex6.04.sol\":165:360  contract Monitor {... */\n      mstore(0x40, 0x80)\n        /* \"Chapter6/Ex6.04.sol\":212:273  constructor(string memory _name){... */\n      callvalue\n      dup1\n      iszero\n      tag_1\n      jumpi\n      0x00\n      dup1\n      revert\n    tag_1:\n      pop\n      mload(0x40)\n      sub(codesize, bytecodeSize)\n      dup1\n      bytecodeSize\n      dup4\n      codecopy\n      dup2\n      dup2\n      add\n      0x40\n      mstore\n      dup2\n      add\n      swap1\n      tag_2\n      swap2\n      swap1\n      tag_3\n      jump\t// in\n    tag_2:\n        /* \"Chapter6/Ex6.04.sol\":261:266  _name */\n      dup1\n        /* \"Chapter6/Ex6.04.sol\":254:258  name */\n      0x00\n        /* \"Chapter6/Ex6.04.sol\":254:266  name = _name */\n      swap1\n      dup1\n      mload\n      swap1\n      0x20\n      add\n      swap1\n      tag_6\n      swap3\n      swap2\n      swap1\n      tag_7\n      jump\t// in\n    tag_6:\n      pop\n        /* \"Chapter6/Ex6.04.sol\":212:273  constructor(string memory _name){... */\n      pop\n        /* \"Chapter6/Ex6.04.sol\":165:360  contract Monitor {... */\n      jump(tag_8)\n    tag_7:\n      dup3\n      dup1\n      sload\n      tag_9\n      swap1\n      tag_10\n      jump\t// in\n    tag_9:\n      swap1\n      0x00\n      mstore\n      keccak256(0x00, 0x20)\n      swap1\n      0x1f\n      add\n      0x20\n      swap1\n      div\n      dup2\n      add\n      swap3\n      dup3\n      tag_12\n      jumpi\n      0x00\n      dup6\n      sstore\n      jump(tag_11)\n    tag_12:\n      dup3\n      0x1f\n      lt\n      tag_13\n      jumpi\n      dup1\n      mload\n      not(0xff)\n      and\n      dup4\n      dup1\n      add\n      or\n      dup6\n      sstore\n      jump(tag_11)\n    tag_13:\n      dup3\n      dup1\n      add\n      0x01\n      add\n      dup6\n      sstore\n      dup3\n      iszero\n      tag_11\n      jumpi\n      swap2\n      dup3\n      add\n    tag_14:\n      dup3\n      dup2\n      gt\n      iszero\n      tag_15\n      jumpi\n      dup3\n      mload\n      dup3\n      sstore\n      swap2\n      0x20\n      add\n      swap2\n      swap1\n      0x01\n      add\n      swap1\n      jump(tag_14)\n    tag_15:\n    tag_11:\n      pop\n      swap1\n      pop\n      tag_16\n      swap2\n      swap1\n      tag_17\n      jump\t// in\n    tag_16:\n      pop\n      swap1\n      jump\t// out\n    tag_17:\n    tag_18:\n      dup1\n      dup3\n      gt\n      iszero\n      tag_19\n      jumpi\n      0x00\n      dup2\n      0x00\n      swap1\n      sstore\n      pop\n      0x01\n      add\n      jump(tag_18)\n    tag_19:\n      pop\n      swap1\n      jump\t// out\n        /* \"#utility.yul\":7:428   */\n    tag_21:\n        /* \"#utility.yul\":96:101   */\n      0x00\n        /* \"#utility.yul\":121:187   */\n      tag_23\n        /* \"#utility.yul\":137:186   */\n      tag_24\n        /* \"#utility.yul\":179:185   */\n      dup5\n        /* \"#utility.yul\":137:186   */\n      tag_25\n      jump\t// in\n    tag_24:\n        /* \"#utility.yul\":121:187   */\n      tag_26\n      jump\t// in\n    tag_23:\n        /* \"#utility.yul\":112:187   */\n      swap1\n      pop\n        /* \"#utility.yul\":210:216   */\n      dup3\n        /* \"#utility.yul\":203:208   */\n      dup2\n        /* \"#utility.yul\":196:217   */\n      mstore\n        /* \"#utility.yul\":248:252   */\n      0x20\n        /* \"#utility.yul\":241:246   */\n      dup2\n        /* \"#utility.yul\":237:253   */\n      add\n        /* \"#utility.yul\":286:289   */\n      dup5\n        /* \"#utility.yul\":277:283   */\n      dup5\n        /* \"#utility.yul\":272:275   */\n      dup5\n        /* \"#utility.yul\":268:284   */\n      add\n        /* \"#utility.yul\":265:290   */\n      gt\n        /* \"#utility.yul\":262:374   */\n      iszero\n      tag_27\n      jumpi\n        /* \"#utility.yul\":293:372   */\n      tag_28\n      tag_29\n      jump\t// in\n    tag_28:\n        /* \"#utility.yul\":262:374   */\n    tag_27:\n        /* \"#utility.yul\":383:422   */\n      tag_30\n        /* \"#utility.yul\":415:421   */\n      dup5\n        /* \"#utility.yul\":410:413   */\n      dup3\n        /* \"#utility.yul\":405:408   */\n      dup6\n        /* \"#utility.yul\":383:422   */\n      tag_31\n      jump\t// in\n    tag_30:\n        /* \"#utility.yul\":102:428   */\n      pop\n        /* \"#utility.yul\":7:428   */\n      swap4\n      swap3\n      pop\n      pop\n      pop\n      jump\t// out\n        /* \"#utility.yul\":448:803   */\n    tag_32:\n        /* \"#utility.yul\":515:520   */\n      0x00\n        /* \"#utility.yul\":564:567   */\n      dup3\n        /* \"#utility.yul\":557:561   */\n      0x1f\n        /* \"#utility.yul\":549:555   */\n      dup4\n        /* \"#utility.yul\":545:562   */\n      add\n        /* \"#utility.yul\":541:568   */\n      slt\n        /* \"#utility.yul\":531:653   */\n      tag_34\n      jumpi\n        /* \"#utility.yul\":572:651   */\n      tag_35\n      tag_36\n      jump\t// in\n    tag_35:\n        /* \"#utility.yul\":531:653   */\n    tag_34:\n        /* \"#utility.yul\":682:688   */\n      dup2\n        /* \"#utility.yul\":676:689   */\n      mload\n        /* \"#utility.yul\":707:797   */\n      tag_37\n        /* \"#utility.yul\":793:796   */\n      dup5\n        /* \"#utility.yul\":785:791   */\n      dup3\n        /* \"#utility.yul\":778:782   */\n      0x20\n        /* \"#utility.yul\":770:776   */\n      dup7\n        /* \"#utility.yul\":766:783   */\n      add\n        /* \"#utility.yul\":707:797   */\n      tag_21\n      jump\t// in\n    tag_37:\n        /* \"#utility.yul\":698:797   */\n      swap2\n      pop\n        /* \"#utility.yul\":521:803   */\n      pop\n        /* \"#utility.yul\":448:803   */\n      swap3\n      swap2\n      pop\n      pop\n      jump\t// out\n        /* \"#utility.yul\":809:1333   */\n    tag_3:\n        /* \"#utility.yul\":889:895   */\n      0x00\n        /* \"#utility.yul\":938:940   */\n      0x20\n        /* \"#utility.yul\":926:935   */\n      dup3\n        /* \"#utility.yul\":917:924   */\n      dup5\n        /* \"#utility.yul\":913:936   */\n      sub\n        /* \"#utility.yul\":909:941   */\n      slt\n        /* \"#utility.yul\":906:1025   */\n      iszero\n      tag_39\n      jumpi\n        /* \"#utility.yul\":944:1023   */\n      tag_40\n      tag_41\n      jump\t// in\n    tag_40:\n        /* \"#utility.yul\":906:1025   */\n    tag_39:\n        /* \"#utility.yul\":1085:1086   */\n      0x00\n        /* \"#utility.yul\":1074:1083   */\n      dup3\n        /* \"#utility.yul\":1070:1087   */\n      add\n        /* \"#utility.yul\":1064:1088   */\n      mload\n        /* \"#utility.yul\":1115:1133   */\n      0xffffffffffffffff\n        /* \"#utility.yul\":1107:1113   */\n      dup2\n        /* \"#utility.yul\":1104:1134   */\n      gt\n        /* \"#utility.yul\":1101:1218   */\n      iszero\n      tag_42\n      jumpi\n        /* \"#utility.yul\":1137:1216   */\n      tag_43\n      tag_44\n      jump\t// in\n    tag_43:\n        /* \"#utility.yul\":1101:1218   */\n    tag_42:\n        /* \"#utility.yul\":1242:1316   */\n      tag_45\n        /* \"#utility.yul\":1308:1315   */\n      dup5\n        /* \"#utility.yul\":1299:1305   */\n      dup3\n        /* \"#utility.yul\":1288:1297   */\n      dup6\n        /* \"#utility.yul\":1284:1306   */\n      add\n        /* \"#utility.yul\":1242:1316   */\n      tag_32\n      jump\t// in\n    tag_45:\n        /* \"#utility.yul\":1232:1316   */\n      swap2\n      pop\n        /* \"#utility.yul\":1035:1326   */\n      pop\n        /* \"#utility.yul\":809:1333   */\n      swap3\n      swap2\n      pop\n      pop\n      jump\t// out\n        /* \"#utility.yul\":1339:1468   */\n    tag_26:\n        /* \"#utility.yul\":1373:1379   */\n      0x00\n        /* \"#utility.yul\":1400:1420   */\n      tag_47\n      tag_48\n      jump\t// in\n    tag_47:\n        /* \"#utility.yul\":1390:1420   */\n      swap1\n      pop\n        /* \"#utility.yul\":1429:1462   */\n      tag_49\n        /* \"#utility.yul\":1457:1461   */\n      dup3\n        /* \"#utility.yul\":1449:1455   */\n      dup3\n        /* \"#utility.yul\":1429:1462   */\n      tag_50\n      jump\t// in\n    tag_49:\n        /* \"#utility.yul\":1339:1468   */\n      swap2\n      swap1\n      pop\n      jump\t// out\n        /* \"#utility.yul\":1474:1549   */\n    tag_48:\n        /* \"#utility.yul\":1507:1513   */\n      0x00\n        /* \"#utility.yul\":1540:1542   */\n      0x40\n        /* \"#utility.yul\":1534:1543   */\n      mload\n        /* \"#utility.yul\":1524:1543   */\n      swap1\n      pop\n        /* \"#utility.yul\":1474:1549   */\n      swap1\n      jump\t// out\n        /* \"#utility.yul\":1555:1863   */\n    tag_25:\n        /* \"#utility.yul\":1617:1621   */\n      0x00\n        /* \"#utility.yul\":1707:1725   */\n      0xffffffffffffffff\n        /* \"#utility.yul\":1699:1705   */\n      dup3\n        /* \"#utility.yul\":1696:1726   */\n      gt\n        /* \"#utility.yul\":1693:1749   */\n      iszero\n      tag_53\n      jumpi\n        /* \"#utility.yul\":1729:1747   */\n      tag_54\n      tag_55\n      jump\t// in\n    tag_54:\n        /* \"#utility.yul\":1693:1749   */\n    tag_53:\n        /* \"#utility.yul\":1767:1796   */\n      tag_56\n        /* \"#utility.yul\":1789:1795   */\n      dup3\n        /* \"#utility.yul\":1767:1796   */\n      tag_57\n      jump\t// in\n    tag_56:\n        /* \"#utility.yul\":1759:1796   */\n      swap1\n      pop\n        /* \"#utility.yul\":1851:1855   */\n      0x20\n        /* \"#utility.yul\":1845:1849   */\n      dup2\n        /* \"#utility.yul\":1841:1856   */\n      add\n        /* \"#utility.yul\":1833:1856   */\n      swap1\n      pop\n        /* \"#utility.yul\":1555:1863   */\n      swap2\n      swap1\n      pop\n      jump\t// out\n        /* \"#utility.yul\":1869:2176   */\n    tag_31:\n        /* \"#utility.yul\":1937:1938   */\n      0x00\n        /* \"#utility.yul\":1947:2060   */\n    tag_59:\n        /* \"#utility.yul\":1961:1967   */\n      dup4\n        /* \"#utility.yul\":1958:1959   */\n      dup2\n        /* \"#utility.yul\":1955:1968   */\n      lt\n        /* \"#utility.yul\":1947:2060   */\n      iszero\n      tag_61\n      jumpi\n        /* \"#utility.yul\":2046:2047   */\n      dup1\n        /* \"#utility.yul\":2041:2044   */\n      dup3\n        /* \"#utility.yul\":2037:2048   */\n      add\n        /* \"#utility.yul\":2031:2049   */\n      mload\n        /* \"#utility.yul\":2027:2028   */\n      dup2\n        /* \"#utility.yul\":2022:2025   */\n      dup5\n        /* \"#utility.yul\":2018:2029   */\n      add\n        /* \"#utility.yul\":2011:2050   */\n      mstore\n        /* \"#utility.yul\":1983:1985   */\n      0x20\n        /* \"#utility.yul\":1980:1981   */\n      dup2\n        /* \"#utility.yul\":1976:1986   */\n      add\n        /* \"#utility.yul\":1971:1986   */\n      swap1\n      pop\n        /* \"#utility.yul\":1947:2060   */\n      jump(tag_59)\n    tag_61:\n        /* \"#utility.yul\":2078:2084   */\n      dup4\n        /* \"#utility.yul\":2075:2076   */\n      dup2\n        /* \"#utility.yul\":2072:2085   */\n      gt\n        /* \"#utility.yul\":2069:2170   */\n      iszero\n      tag_62\n      jumpi\n        /* \"#utility.yul\":2158:2159   */\n      0x00\n        /* \"#utility.yul\":2149:2155   */\n      dup5\n        /* \"#utility.yul\":2144:2147   */\n      dup5\n        /* \"#utility.yul\":2140:2156   */\n      add\n        /* \"#utility.yul\":2133:2160   */\n      mstore\n        /* \"#utility.yul\":2069:2170   */\n    tag_62:\n        /* \"#utility.yul\":1918:2176   */\n      pop\n        /* \"#utility.yul\":1869:2176   */\n      pop\n      pop\n      pop\n      jump\t// out\n        /* \"#utility.yul\":2182:2502   */\n    tag_10:\n        /* \"#utility.yul\":2226:2232   */\n      0x00\n        /* \"#utility.yul\":2263:2264   */\n      0x02\n        /* \"#utility.yul\":2257:2261   */\n      dup3\n        /* \"#utility.yul\":2253:2265   */\n      div\n        /* \"#utility.yul\":2243:2265   */\n      swap1\n      pop\n        /* \"#utility.yul\":2310:2311   */\n      0x01\n        /* \"#utility.yul\":2304:2308   */\n      dup3\n        /* \"#utility.yul\":2300:2312   */\n      and\n        /* \"#utility.yul\":2331:2349   */\n      dup1\n        /* \"#utility.yul\":2321:2402   */\n      tag_64\n      jumpi\n        /* \"#utility.yul\":2387:2391   */\n      0x7f\n        /* \"#utility.yul\":2379:2385   */\n      dup3\n        /* \"#utility.yul\":2375:2392   */\n      and\n        /* \"#utility.yul\":2365:2392   */\n      swap2\n      pop\n        /* \"#utility.yul\":2321:2402   */\n    tag_64:\n        /* \"#utility.yul\":2449:2451   */\n      0x20\n        /* \"#utility.yul\":2441:2447   */\n      dup3\n        /* \"#utility.yul\":2438:2452   */\n      lt\n        /* \"#utility.yul\":2418:2436   */\n      dup2\n        /* \"#utility.yul\":2415:2453   */\n      eq\n        /* \"#utility.yul\":2412:2496   */\n      iszero\n      tag_65\n      jumpi\n        /* \"#utility.yul\":2468:2486   */\n      tag_66\n      tag_67\n      jump\t// in\n    tag_66:\n        /* \"#utility.yul\":2412:2496   */\n    tag_65:\n        /* \"#utility.yul\":2233:2502   */\n      pop\n        /* \"#utility.yul\":2182:2502   */\n      swap2\n      swap1\n      pop\n      jump\t// out\n        /* \"#utility.yul\":2508:2789   */\n    tag_50:\n        /* \"#utility.yul\":2591:2618   */\n      tag_69\n        /* \"#utility.yul\":2613:2617   */\n      dup3\n        /* \"#utility.yul\":2591:2618   */\n      tag_57\n      jump\t// in\n    tag_69:\n        /* \"#utility.yul\":2583:2589   */\n      dup2\n        /* \"#utility.yul\":2579:2619   */\n      add\n        /* \"#utility.yul\":2721:2727   */\n      dup2\n        /* \"#utility.yul\":2709:2719   */\n      dup2\n        /* \"#utility.yul\":2706:2728   */\n      lt\n        /* \"#utility.yul\":2685:2703   */\n      0xffffffffffffffff\n        /* \"#utility.yul\":2673:2683   */\n      dup3\n        /* \"#utility.yul\":2670:2704   */\n      gt\n        /* \"#utility.yul\":2667:2729   */\n      or\n        /* \"#utility.yul\":2664:2752   */\n      iszero\n      tag_70\n      jumpi\n        /* \"#utility.yul\":2732:2750   */\n      tag_71\n      tag_55\n      jump\t// in\n    tag_71:\n        /* \"#utility.yul\":2664:2752   */\n    tag_70:\n        /* \"#utility.yul\":2772:2782   */\n      dup1\n        /* \"#utility.yul\":2768:2770   */\n      0x40\n        /* \"#utility.yul\":2761:2783   */\n      mstore\n        /* \"#utility.yul\":2551:2789   */\n      pop\n        /* \"#utility.yul\":2508:2789   */\n      pop\n      pop\n      jump\t// out\n        /* \"#utility.yul\":2795:2975   */\n    tag_67:\n        /* \"#utility.yul\":2843:2920   */\n      0x4e487b7100000000000000000000000000000000000000000000000000000000\n        /* \"#utility.yul\":2840:2841   */\n      0x00\n        /* \"#utility.yul\":2833:2921   */\n      mstore\n        /* \"#utility.yul\":2940:2944   */\n      0x22\n        /* \"#utility.yul\":2937:2938   */\n      0x04\n        /* \"#utility.yul\":2930:2945   */\n      mstore\n        /* \"#utility.yul\":2964:2968   */\n      0x24\n        /* \"#utility.yul\":2961:2962   */\n      0x00\n        /* \"#utility.yul\":2954:2969   */\n      revert\n        /* \"#utility.yul\":2981:3161   */\n    tag_55:\n        /* \"#utility.yul\":3029:3106   */\n      0x4e487b7100000000000000000000000000000000000000000000000000000000\n        /* \"#utility.yul\":3026:3027   */\n      0x00\n        /* \"#utility.yul\":3019:3107   */\n      mstore\n        /* \"#utility.yul\":3126:3130   */\n      0x41\n        /* \"#utility.yul\":3123:3124   */\n      0x04\n        /* \"#utility.yul\":3116:3131   */\n      mstore\n        /* \"#utility.yul\":3150:3154   */\n      0x24\n        /* \"#utility.yul\":3147:3148   */\n      0x00\n        /* \"#utility.yul\":3140:3155   */\n      revert\n        /* \"#utility.yul\":3167:3284   */\n    tag_36:\n        /* \"#utility.yul\":3276:3277   */\n      0x00\n        /* \"#utility.yul\":3273:3274   */\n      dup1\n        /* \"#utility.yul\":3266:3278   */\n      revert\n        /* \"#utility.yul\":3290:3407   */\n    tag_29:\n        /* \"#utility.yul\":3399:3400   */\n      0x00\n        /* \"#utility.yul\":3396:3397   */\n      dup1\n        /* \"#utility.yul\":3389:3401   */\n      revert\n        /* \"#utility.yul\":3413:3530   */\n    tag_44:\n        /* \"#utility.yul\":3522:3523   */\n      0x00\n        /* \"#utility.yul\":3519:3520   */\n      dup1\n        /* \"#utility.yul\":3512:3524   */\n      revert\n        /* \"#utility.yul\":3536:3653   */\n    tag_41:\n        /* \"#utility.yul\":3645:3646   */\n      0x00\n        /* \"#utility.yul\":3642:3643   */\n      dup1\n        /* \"#utility.yul\":3635:3647   */\n      revert\n        /* \"#utility.yul\":3659:3761   */\n    tag_57:\n        /* \"#utility.yul\":3700:3706   */\n      0x00\n        /* \"#utility.yul\":3751:3753   */\n      0x1f\n        /* \"#utility.yul\":3747:3754   */\n      not\n        /* \"#utility.yul\":3742:3744   */\n      0x1f\n        /* \"#utility.yul\":3735:3740   */\n      dup4\n        /* \"#utility.yul\":3731:3745   */\n      add\n        /* \"#utility.yul\":3727:3755   */\n      and\n        /* \"#utility.yul\":3717:3755   */\n      swap1\n      pop\n        /* \"#utility.yul\":3659:3761   */\n      swap2\n      swap1\n      pop\n      jump\t// out\n        /* \"Chapter6/Ex6.04.sol\":165:360  contract Monitor {... */\n    tag_8:\n      dataSize(sub_0)\n      dup1\n      dataOffset(sub_0)\n      0x00\n      codecopy\n      0x00\n      return\n    stop\n\n    sub_0: assembly {\n            /* \"Chapter6/Ex6.04.sol\":165:360  contract Monitor {... */\n          mstore(0x40, 0x80)\n          callvalue\n          dup1\n          iszero\n          tag_1\n          jumpi\n          0x00\n          dup1\n          revert\n        tag_1:\n          pop\n          jumpi(tag_2, lt(calldatasize, 0x04))\n          shr(0xe0, calldataload(0x00))\n          dup1\n          0x06fdde03\n          eq\n          tag_3\n          jumpi\n          dup1\n          0xcc80f6f3\n          eq\n          tag_4\n          jumpi\n        tag_2:\n          0x00\n          dup1\n          revert\n            /* \"Chapter6/Ex6.04.sol\":188:206  string public name */\n        tag_3:\n          tag_5\n          tag_6\n          jump\t// in\n        tag_5:\n          mload(0x40)\n          tag_7\n          swap2\n          swap1\n          tag_8\n          jump\t// in\n        tag_7:\n          mload(0x40)\n          dup1\n          swap2\n          sub\n          swap1\n          return\n            /* \"Chapter6/Ex6.04.sol\":278:358  function show() public pure returns(string memory){... */\n        tag_4:\n          tag_9\n          tag_10\n          jump\t// in\n        tag_9:\n          mload(0x40)\n          tag_11\n          swap2\n          swap1\n          tag_8\n          jump\t// in\n        tag_11:\n          mload(0x40)\n          dup1\n          swap2\n          sub\n          swap1\n          return\n            /* \"Chapter6/Ex6.04.sol\":188:206  string public name */\n        tag_6:\n          0x00\n          dup1\n          sload\n          tag_12\n          swap1\n          tag_13\n          jump\t// in\n        tag_12:\n          dup1\n          0x1f\n          add\n          0x20\n          dup1\n          swap2\n          div\n          mul\n          0x20\n          add\n          mload(0x40)\n          swap1\n          dup2\n          add\n          0x40\n          mstore\n          dup1\n          swap3\n          swap2\n          swap1\n          dup2\n          dup2\n          mstore\n          0x20\n          add\n          dup3\n          dup1\n          sload\n          tag_14\n          swap1\n          tag_13\n          jump\t// in\n        tag_14:\n          dup1\n          iszero\n          tag_15\n          jumpi\n          dup1\n          0x1f\n          lt\n          tag_16\n          jumpi\n          0x0100\n          dup1\n          dup4\n          sload\n          div\n          mul\n          dup4\n          mstore\n          swap2\n          0x20\n          add\n          swap2\n          jump(tag_15)\n        tag_16:\n          dup3\n          add\n          swap2\n          swap1\n          0x00\n          mstore\n          keccak256(0x00, 0x20)\n          swap1\n        tag_17:\n          dup2\n          sload\n          dup2\n          mstore\n          swap1\n          0x01\n          add\n          swap1\n          0x20\n          add\n          dup1\n          dup4\n          gt\n          tag_17\n          jumpi\n          dup3\n          swap1\n          sub\n          0x1f\n          and\n          dup3\n          add\n          swap2\n        tag_15:\n          pop\n          pop\n          pop\n          pop\n          pop\n          dup2\n          jump\t// out\n            /* \"Chapter6/Ex6.04.sol\":278:358  function show() public pure returns(string memory){... */\n        tag_10:\n            /* \"Chapter6/Ex6.04.sol\":314:327  string memory */\n          0x60\n            /* \"Chapter6/Ex6.04.sol\":338:351  return \"show\" */\n          mload(0x40)\n          dup1\n          0x40\n          add\n          0x40\n          mstore\n          dup1\n          0x04\n          dup2\n          mstore\n          0x20\n          add\n          0x73686f7700000000000000000000000000000000000000000000000000000000\n          dup2\n          mstore\n          pop\n          swap1\n          pop\n            /* \"Chapter6/Ex6.04.sol\":278:358  function show() public pure returns(string memory){... */\n          swap1\n          jump\t// out\n            /* \"#utility.yul\":7:371   */\n        tag_20:\n            /* \"#utility.yul\":95:98   */\n          0x00\n            /* \"#utility.yul\":123:162   */\n          tag_22\n            /* \"#utility.yul\":156:161   */\n          dup3\n            /* \"#utility.yul\":123:162   */\n          tag_23\n          jump\t// in\n        tag_22:\n            /* \"#utility.yul\":178:249   */\n          tag_24\n            /* \"#utility.yul\":242:248   */\n          dup2\n            /* \"#utility.yul\":237:240   */\n          dup6\n            /* \"#utility.yul\":178:249   */\n          tag_25\n          jump\t// in\n        tag_24:\n            /* \"#utility.yul\":171:249   */\n          swap4\n          pop\n            /* \"#utility.yul\":258:310   */\n          tag_26\n            /* \"#utility.yul\":303:309   */\n          dup2\n            /* \"#utility.yul\":298:301   */\n          dup6\n            /* \"#utility.yul\":291:295   */\n          0x20\n            /* \"#utility.yul\":284:289   */\n          dup7\n            /* \"#utility.yul\":280:296   */\n          add\n            /* \"#utility.yul\":258:310   */\n          tag_27\n          jump\t// in\n        tag_26:\n            /* \"#utility.yul\":335:364   */\n          tag_28\n            /* \"#utility.yul\":357:363   */\n          dup2\n            /* \"#utility.yul\":335:364   */\n          tag_29\n          jump\t// in\n        tag_28:\n            /* \"#utility.yul\":330:333   */\n          dup5\n            /* \"#utility.yul\":326:365   */\n          add\n            /* \"#utility.yul\":319:365   */\n          swap2\n          pop\n            /* \"#utility.yul\":99:371   */\n          pop\n            /* \"#utility.yul\":7:371   */\n          swap3\n          swap2\n          pop\n          pop\n          jump\t// out\n            /* \"#utility.yul\":377:690   */\n        tag_8:\n            /* \"#utility.yul\":490:494   */\n          0x00\n            /* \"#utility.yul\":528:530   */\n          0x20\n            /* \"#utility.yul\":517:526   */\n          dup3\n            /* \"#utility.yul\":513:531   */\n          add\n            /* \"#utility.yul\":505:531   */\n          swap1\n          pop\n            /* \"#utility.yul\":577:586   */\n          dup2\n            /* \"#utility.yul\":571:575   */\n          dup2\n            /* \"#utility.yul\":567:587   */\n          sub\n            /* \"#utility.yul\":563:564   */\n          0x00\n            /* \"#utility.yul\":552:561   */\n          dup4\n            /* \"#utility.yul\":548:565   */\n          add\n            /* \"#utility.yul\":541:588   */\n          mstore\n            /* \"#utility.yul\":605:683   */\n          tag_31\n            /* \"#utility.yul\":678:682   */\n          dup2\n            /* \"#utility.yul\":669:675   */\n          dup5\n            /* \"#utility.yul\":605:683   */\n          tag_20\n          jump\t// in\n        tag_31:\n            /* \"#utility.yul\":597:683   */\n          swap1\n          pop\n            /* \"#utility.yul\":377:690   */\n          swap3\n          swap2\n          pop\n          pop\n          jump\t// out\n            /* \"#utility.yul\":696:795   */\n        tag_23:\n            /* \"#utility.yul\":748:754   */\n          0x00\n            /* \"#utility.yul\":782:787   */\n          dup2\n            /* \"#utility.yul\":776:788   */\n          mload\n            /* \"#utility.yul\":766:788   */\n          swap1\n          pop\n            /* \"#utility.yul\":696:795   */\n          swap2\n          swap1\n          pop\n          jump\t// out\n            /* \"#utility.yul\":801:970   */\n        tag_25:\n            /* \"#utility.yul\":885:896   */\n          0x00\n            /* \"#utility.yul\":919:925   */\n          dup3\n            /* \"#utility.yul\":914:917   */\n          dup3\n            /* \"#utility.yul\":907:926   */\n          mstore\n            /* \"#utility.yul\":959:963   */\n          0x20\n            /* \"#utility.yul\":954:957   */\n          dup3\n            /* \"#utility.yul\":950:964   */\n          add\n            /* \"#utility.yul\":935:964   */\n          swap1\n          pop\n            /* \"#utility.yul\":801:970   */\n          swap3\n          swap2\n          pop\n          pop\n          jump\t// out\n            /* \"#utility.yul\":976:1283   */\n        tag_27:\n            /* \"#utility.yul\":1044:1045   */\n          0x00\n            /* \"#utility.yul\":1054:1167   */\n        tag_35:\n            /* \"#utility.yul\":1068:1074   */\n          dup4\n            /* \"#utility.yul\":1065:1066   */\n          dup2\n            /* \"#utility.yul\":1062:1075   */\n          lt\n            /* \"#utility.yul\":1054:1167   */\n          iszero\n          tag_37\n          jumpi\n            /* \"#utility.yul\":1153:1154   */\n          dup1\n            /* \"#utility.yul\":1148:1151   */\n          dup3\n            /* \"#utility.yul\":1144:1155   */\n          add\n            /* \"#utility.yul\":1138:1156   */\n          mload\n            /* \"#utility.yul\":1134:1135   */\n          dup2\n            /* \"#utility.yul\":1129:1132   */\n          dup5\n            /* \"#utility.yul\":1125:1136   */\n          add\n            /* \"#utility.yul\":1118:1157   */\n          mstore\n            /* \"#utility.yul\":1090:1092   */\n          0x20\n            /* \"#utility.yul\":1087:1088   */\n          dup2\n            /* \"#utility.yul\":1083:1093   */\n          add\n            /* \"#utility.yul\":1078:1093   */\n          swap1\n          pop\n            /* \"#utility.yul\":1054:1167   */\n          jump(tag_35)\n        tag_37:\n            /* \"#utility.yul\":1185:1191   */\n          dup4\n            /* \"#utility.yul\":1182:1183   */\n          dup2\n            /* \"#utility.yul\":1179:1192   */\n          gt\n            /* \"#utility.yul\":1176:1277   */\n          iszero\n          tag_38\n          jumpi\n            /* \"#utility.yul\":1265:1266   */\n          0x00\n            /* \"#utility.yul\":1256:1262   */\n          dup5\n            /* \"#utility.yul\":1251:1254   */\n          dup5\n            /* \"#utility.yul\":1247:1263   */\n          add\n            /* \"#utility.yul\":1240:1267   */\n          mstore\n            /* \"#utility.yul\":1176:1277   */\n        tag_38:\n            /* \"#utility.yul\":1025:1283   */\n          pop\n            /* \"#utility.yul\":976:1283   */\n          pop\n          pop\n          pop\n          jump\t// out\n            /* \"#utility.yul\":1289:1609   */\n        tag_13:\n            /* \"#utility.yul\":1333:1339   */\n          0x00\n            /* \"#utility.yul\":1370:1371   */\n          0x02\n            /* \"#utility.yul\":1364:1368   */\n          dup3\n            /* \"#utility.yul\":1360:1372   */\n          div\n            /* \"#utility.yul\":1350:1372   */\n          swap1\n          pop\n            /* \"#utility.yul\":1417:1418   */\n          0x01\n            /* \"#utility.yul\":1411:1415   */\n          dup3\n            /* \"#utility.yul\":1407:1419   */\n          and\n            /* \"#utility.yul\":1438:1456   */\n          dup1\n            /* \"#utility.yul\":1428:1509   */\n          tag_40\n          jumpi\n            /* \"#utility.yul\":1494:1498   */\n          0x7f\n            /* \"#utility.yul\":1486:1492   */\n          dup3\n            /* \"#utility.yul\":1482:1499   */\n          and\n            /* \"#utility.yul\":1472:1499   */\n          swap2\n          pop\n            /* \"#utility.yul\":1428:1509   */\n        tag_40:\n            /* \"#utility.yul\":1556:1558   */\n          0x20\n            /* \"#utility.yul\":1548:1554   */\n          dup3\n            /* \"#utility.yul\":1545:1559   */\n          lt\n            /* \"#utility.yul\":1525:1543   */\n          dup2\n            /* \"#utility.yul\":1522:1560   */\n          eq\n            /* \"#utility.yul\":1519:1603   */\n          iszero\n          tag_41\n          jumpi\n            /* \"#utility.yul\":1575:1593   */\n          tag_42\n          tag_43\n          jump\t// in\n        tag_42:\n            /* \"#utility.yul\":1519:1603   */\n        tag_41:\n            /* \"#utility.yul\":1340:1609   */\n          pop\n            /* \"#utility.yul\":1289:1609   */\n          swap2\n          swap1\n          pop\n          jump\t// out\n            /* \"#utility.yul\":1615:1795   */\n        tag_43:\n            /* \"#utility.yul\":1663:1740   */\n          0x4e487b7100000000000000000000000000000000000000000000000000000000\n            /* \"#utility.yul\":1660:1661   */\n          0x00\n            /* \"#utility.yul\":1653:1741   */\n          mstore\n            /* \"#utility.yul\":1760:1764   */\n          0x22\n            /* \"#utility.yul\":1757:1758   */\n          0x04\n            /* \"#utility.yul\":1750:1765   */\n          mstore\n            /* \"#utility.yul\":1784:1788   */\n          0x24\n            /* \"#utility.yul\":1781:1782   */\n          0x00\n            /* \"#utility.yul\":1774:1789   */\n          revert\n            /* \"#utility.yul\":1801:1903   */\n        tag_29:\n            /* \"#utility.yul\":1842:1848   */\n          0x00\n            /* \"#utility.yul\":1893:1895   */\n          0x1f\n            /* \"#utility.yul\":1889:1896   */\n          not\n            /* \"#utility.yul\":1884:1886   */\n          0x1f\n            /* \"#utility.yul\":1877:1882   */\n          dup4\n            /* \"#utility.yul\":1873:1887   */\n          add\n            /* \"#utility.yul\":1869:1897   */\n          and\n            /* \"#utility.yul\":1859:1897   */\n          swap1\n          pop\n            /* \"#utility.yul\":1801:1903   */\n          swap2\n          swap1\n          pop\n          jump\t// out\n\n        auxdata: 0xa2646970667358221220647a2b95908b1de4c3df7eeb48f4479e18e3d5d2455ba06649c97345968775cb64736f6c63430008070033\n    }\n}\n\nsub_2: assembly {\n        /* \"Chapter6/Ex6.04.sol\":362:507  contract SystemUnit {... */\n      mstore(0x40, 0x80)\n        /* \"Chapter6/Ex6.04.sol\":388:415  string public name = \"XG12\" */\n      mload(0x40)\n      dup1\n      0x40\n      add\n      0x40\n      mstore\n      dup1\n      0x04\n      dup2\n      mstore\n      0x20\n      add\n      0x5847313200000000000000000000000000000000000000000000000000000000\n      dup2\n      mstore\n      pop\n      0x00\n      swap1\n      dup1\n      mload\n      swap1\n      0x20\n      add\n      swap1\n      tag_1\n      swap3\n      swap2\n      swap1\n      tag_2\n      jump\t// in\n    tag_1:\n      pop\n        /* \"Chapter6/Ex6.04.sol\":362:507  contract SystemUnit {... */\n      callvalue\n      dup1\n      iszero\n      tag_3\n      jumpi\n      0x00\n      dup1\n      revert\n    tag_3:\n      pop\n      jump(tag_4)\n    tag_2:\n      dup3\n      dup1\n      sload\n      tag_5\n      swap1\n      tag_6\n      jump\t// in\n    tag_5:\n      swap1\n      0x00\n      mstore\n      keccak256(0x00, 0x20)\n      swap1\n      0x1f\n      add\n      0x20\n      swap1\n      div\n      dup2\n      add\n      swap3\n      dup3\n      tag_8\n      jumpi\n      0x00\n      dup6\n      sstore\n      jump(tag_7)\n    tag_8:\n      dup3\n      0x1f\n      lt\n      tag_9\n      jumpi\n      dup1\n      mload\n      not(0xff)\n      and\n      dup4\n      dup1\n      add\n      or\n      dup6\n      sstore\n      jump(tag_7)\n    tag_9:\n      dup3\n      dup1\n      add\n      0x01\n      add\n      dup6\n      sstore\n      dup3\n      iszero\n      tag_7\n      jumpi\n      swap2\n      dup3\n      add\n    tag_10:\n      dup3\n      dup2\n      gt\n      iszero\n      tag_11\n      jumpi\n      dup3\n      mload\n      dup3\n      sstore\n      swap2\n      0x20\n      add\n      swap2\n      swap1\n      0x01\n      add\n      swap1\n      jump(tag_10)\n    tag_11:\n    tag_7:\n      pop\n      swap1\n      pop\n      tag_12\n      swap2\n      swap1\n      tag_13\n      jump\t// in\n    tag_12:\n      pop\n      swap1\n      jump\t// out\n    tag_13:\n    tag_14:\n      dup1\n      dup3\n      gt\n      iszero\n      tag_15\n      jumpi\n      0x00\n      dup2\n      0x00\n      swap1\n      sstore\n      pop\n      0x01\n      add\n      jump(tag_14)\n    tag_15:\n      pop\n      swap1\n      jump\t// out\n        /* \"#utility.yul\":7:327   */\n    tag_6:\n        /* \"#utility.yul\":51:57   */\n      0x00\n        /* \"#utility.yul\":88:89   */\n      0x02\n        /* \"#utility.yul\":82:86   */\n      dup3\n        /* \"#utility.yul\":78:90   */\n      div\n        /* \"#utility.yul\":68:90   */\n      swap1\n      pop\n        /* \"#utility.yul\":135:136   */\n      0x01\n        /* \"#utility.yul\":129:133   */\n      dup3\n        /* \"#utility.yul\":125:137   */\n      and\n        /* \"#utility.yul\":156:174   */\n      dup1\n        /* \"#utility.yul\":146:227   */\n      tag_18\n      jumpi\n        /* \"#utility.yul\":212:216   */\n      0x7f\n        /* \"#utility.yul\":204:210   */\n      dup3\n        /* \"#utility.yul\":200:217   */\n      and\n        /* \"#utility.yul\":190:217   */\n      swap2\n      pop\n        /* \"#utility.yul\":146:227   */\n    tag_18:\n        /* \"#utility.yul\":274:276   */\n      0x20\n        /* \"#utility.yul\":266:272   */\n      dup3\n        /* \"#utility.yul\":263:277   */\n      lt\n        /* \"#utility.yul\":243:261   */\n      dup2\n        /* \"#utility.yul\":240:278   */\n      eq\n        /* \"#utility.yul\":237:321   */\n      iszero\n      tag_19\n      jumpi\n        /* \"#utility.yul\":293:311   */\n      tag_20\n      tag_21\n      jump\t// in\n    tag_20:\n        /* \"#utility.yul\":237:321   */\n    tag_19:\n        /* \"#utility.yul\":58:327   */\n      pop\n        /* \"#utility.yul\":7:327   */\n      swap2\n      swap1\n      pop\n      jump\t// out\n        /* \"#utility.yul\":333:513   */\n    tag_21:\n        /* \"#utility.yul\":381:458   */\n      0x4e487b7100000000000000000000000000000000000000000000000000000000\n        /* \"#utility.yul\":378:379   */\n      0x00\n        /* \"#utility.yul\":371:459   */\n      mstore\n        /* \"#utility.yul\":478:482   */\n      0x22\n        /* \"#utility.yul\":475:476   */\n      0x04\n        /* \"#utility.yul\":468:483   */\n      mstore\n        /* \"#utility.yul\":502:506   */\n      0x24\n        /* \"#utility.yul\":499:500   */\n      0x00\n        /* \"#utility.yul\":492:507   */\n      revert\n        /* \"Chapter6/Ex6.04.sol\":362:507  contract SystemUnit {... */\n    tag_4:\n      dataSize(sub_0)\n      dup1\n      dataOffset(sub_0)\n      0x00\n      codecopy\n      0x00\n      return\n    stop\n\n    sub_0: assembly {\n            /* \"Chapter6/Ex6.04.sol\":362:507  contract SystemUnit {... */\n          mstore(0x40, 0x80)\n          callvalue\n          dup1\n          iszero\n          tag_1\n          jumpi\n          0x00\n          dup1\n          revert\n        tag_1:\n          pop\n          jumpi(tag_2, lt(calldatasize, 0x04))\n          shr(0xe0, calldataload(0x00))\n          dup1\n          0x06fdde03\n          eq\n          tag_3\n          jumpi\n          dup1\n          0xba33ed7d\n          eq\n          tag_4\n          jumpi\n        tag_2:\n          0x00\n          dup1\n          revert\n            /* \"Chapter6/Ex6.04.sol\":388:415  string public name = \"XG12\" */\n        tag_3:\n          tag_5\n          tag_6\n          jump\t// in\n        tag_5:\n          mload(0x40)\n          tag_7\n          swap2\n          swap1\n          tag_8\n          jump\t// in\n        tag_7:\n          mload(0x40)\n          dup1\n          swap2\n          sub\n          swap1\n          return\n            /* \"Chapter6/Ex6.04.sol\":421:505  function turnOn() public pure returns(string memory){... */\n        tag_4:\n          tag_9\n          tag_10\n          jump\t// in\n        tag_9:\n          mload(0x40)\n          tag_11\n          swap2\n          swap1\n          tag_8\n          jump\t// in\n        tag_11:\n          mload(0x40)\n          dup1\n          swap2\n          sub\n          swap1\n          return\n            /* \"Chapter6/Ex6.04.sol\":388:415  string public name = \"XG12\" */\n        tag_6:\n          0x00\n          dup1\n          sload\n          tag_12\n          swap1\n          tag_13\n          jump\t// in\n        tag_12:\n          dup1\n          0x1f\n          add\n          0x20\n          dup1\n          swap2\n          div\n          mul\n          0x20\n          add\n          mload(0x40)\n          swap1\n          dup2\n          add\n          0x40\n          mstore\n          dup1\n          swap3\n          swap2\n          swap1\n          dup2\n          dup2\n          mstore\n          0x20\n          add\n          dup3\n          dup1\n          sload\n          tag_14\n          swap1\n          tag_13\n          jump\t// in\n        tag_14:\n          dup1\n          iszero\n          tag_15\n          jumpi\n          dup1\n          0x1f\n          lt\n          tag_16\n          jumpi\n          0x0100\n          dup1\n          dup4\n          sload\n          div\n          mul\n          dup4\n          mstore\n          swap2\n          0x20\n          add\n          swap2\n          jump(tag_15)\n        tag_16:\n          dup3\n          add\n          swap2\n          swap1\n          0x00\n          mstore\n          keccak256(0x00, 0x20)\n          swap1\n        tag_17:\n          dup2\n          sload\n          dup2\n          mstore\n          swap1\n          0x01\n          add\n          swap1\n          0x20\n          add\n          dup1\n          dup4\n          gt\n          tag_17\n          jumpi\n          dup3\n          swap1\n          sub\n          0x1f\n          and\n          dup3\n          add\n          swap2\n        tag_15:\n          pop\n          pop\n          pop\n          pop\n          pop\n          dup2\n          jump\t// out\n            /* \"Chapter6/Ex6.04.sol\":421:505  function turnOn() public pure returns(string memory){... */\n        tag_10:\n            /* \"Chapter6/Ex6.04.sol\":459:472  string memory */\n          0x60\n            /* \"Chapter6/Ex6.04.sol\":483:498  return \"turnOn\" */\n          mload(0x40)\n          dup1\n          0x40\n          add\n          0x40\n          mstore\n          dup1\n          0x06\n          dup2\n          mstore\n          0x20\n          add\n          0x7475726e4f6e0000000000000000000000000000000000000000000000000000\n          dup2\n          mstore\n          pop\n          swap1\n          pop\n            /* \"Chapter6/Ex6.04.sol\":421:505  function turnOn() public pure returns(string memory){... */\n          swap1\n          jump\t// out\n            /* \"#utility.yul\":7:371   */\n        tag_20:\n            /* \"#utility.yul\":95:98   */\n          0x00\n            /* \"#utility.yul\":123:162   */\n          tag_22\n            /* \"#utility.yul\":156:161   */\n          dup3\n            /* \"#utility.yul\":123:162   */\n          tag_23\n          jump\t// in\n        tag_22:\n            /* \"#utility.yul\":178:249   */\n          tag_24\n            /* \"#utility.yul\":242:248   */\n          dup2\n            /* \"#utility.yul\":237:240   */\n          dup6\n            /* \"#utility.yul\":178:249   */\n          tag_25\n          jump\t// in\n        tag_24:\n            /* \"#utility.yul\":171:249   */\n          swap4\n          pop\n            /* \"#utility.yul\":258:310   */\n          tag_26\n            /* \"#utility.yul\":303:309   */\n          dup2\n            /* \"#utility.yul\":298:301   */\n          dup6\n            /* \"#utility.yul\":291:295   */\n          0x20\n            /* \"#utility.yul\":284:289   */\n          dup7\n            /* \"#utility.yul\":280:296   */\n          add\n            /* \"#utility.yul\":258:310   */\n          tag_27\n          jump\t// in\n        tag_26:\n            /* \"#utility.yul\":335:364   */\n          tag_28\n            /* \"#utility.yul\":357:363   */\n          dup2\n            /* \"#utility.yul\":335:364   */\n          tag_29\n          jump\t// in\n        tag_28:\n            /* \"#utility.yul\":330:333   */\n          dup5\n            /* \"#utility.yul\":326:365   */\n          add\n            /* \"#utility.yul\":319:365   */\n          swap2\n          pop\n            /* \"#utility.yul\":99:371   */\n          pop\n            /* \"#utility.yul\":7:371   */\n          swap3\n          swap2\n          pop\n          pop\n          jump\t// out\n            /* \"#utility.yul\":377:690   */\n        tag_8:\n            /* \"#utility.yul\":490:494   */\n          0x00\n            /* \"#utility.yul\":528:530   */\n          0x20\n            /* \"#utility.yul\":517:526   */\n          dup3\n            /* \"#utility.yul\":513:531   */\n          add\n            /* \"#utility.yul\":505:531   */\n          swap1\n          pop\n            /* \"#utility.yul\":577:586   */\n          dup2\n            /* \"#utility.yul\":571:575   */\n          dup2\n            /* \"#utility.yul\":567:587   */\n          sub\n            /* \"#utility.yul\":563:564   */\n          0x00\n            /* \"#utility.yul\":552:561   */\n          dup4\n            /* \"#utility.yul\":548:565   */\n          add\n            /* \"#utility.yul\":541:588   */\n          mstore\n            /* \"#utility.yul\":605:683   */\n          tag_31\n            /* \"#utility.yul\":678:682   */\n          dup2\n            /* \"#utility.yul\":669:675   */\n          dup5\n            /* \"#utility.yul\":605:683   */\n          tag_20\n          jump\t// in\n        tag_31:\n            /* \"#utility.yul\":597:683   */\n          swap1\n          pop\n            /* \"#utility.yul\":377:690   */\n          swap3\n          swap2\n          pop\n          pop\n          jump\t// out\n            /* \"#utility.yul\":696:795   */\n        tag_23:\n            /* \"#utility.yul\":748:754   */\n          0x00\n            /* \"#utility.yul\":782:787   */\n          dup2\n            /* \"#utility.yul\":776:788   */\n          mload\n            /* \"#utility.yul\":766:788   */\n          swap1\n          pop\n            /* \"#utility.yul\":696:795   */\n          swap2\n          swap1\n          pop\n          jump\t// out\n            /* \"#utility.yul\":801:970   */\n        tag_25:\n            /* \"#utility.yul\":885:896   */\n          0x00\n            /* \"#utility.yul\":919:925   */\n          dup3\n            /* \"#utility.yul\":914:917   */\n          dup3\n            /* \"#utility.yul\":907:926   */\n          mstore\n            /* \"#utility.yul\":959:963   */\n          0x20\n            /* \"#utility.yul\":954:957   */\n          dup3\n            /* \"#utility.yul\":950:964   */\n          add\n            /* \"#utility.yul\":935:964   */\n          swap1\n          pop\n            /* \"#utility.yul\":801:970   */\n          swap3\n          swap2\n          pop\n          pop\n          jump\t// out\n            /* \"#utility.yul\":976:1283   */\n        tag_27:\n            /* \"#utility.yul\":1044:1045   */\n          0x00\n            /* \"#utility.yul\":1054:1167   */\n        tag_35:\n            /* \"#utility.yul\":1068:1074   */\n          dup4\n            /* \"#utility.yul\":1065:1066   */\n          dup2\n            /* \"#utility.yul\":1062:1075   */\n          lt\n            /* \"#utility.yul\":1054:1167   */\n          iszero\n          tag_37\n          jumpi\n            /* \"#utility.yul\":1153:1154   */\n          dup1\n            /* \"#utility.yul\":1148:1151   */\n          dup3\n            /* \"#utility.yul\":1144:1155   */\n          add\n            /* \"#utility.yul\":1138:1156   */\n          mload\n            /* \"#utility.yul\":1134:1135   */\n          dup2\n            /* \"#utility.yul\":1129:1132   */\n          dup5\n            /* \"#utility.yul\":1125:1136   */\n          add\n            /* \"#utility.yul\":1118:1157   */\n          mstore\n            /* \"#utility.yul\":1090:1092   */\n          0x20\n            /* \"#utility.yul\":1087:1088   */\n          dup2\n            /* \"#utility.yul\":1083:1093   */\n          add\n            /* \"#utility.yul\":1078:1093   */\n          swap1\n          pop\n            /* \"#utility.yul\":1054:1167   */\n          jump(tag_35)\n        tag_37:\n            /* \"#utility.yul\":1185:1191   */\n          dup4\n            /* \"#utility.yul\":1182:1183   */\n          dup2\n            /* \"#utility.yul\":1179:1192   */\n          gt\n            /* \"#utility.yul\":1176:1277   */\n          iszero\n          tag_38\n          jumpi\n            /* \"#utility.yul\":1265:1266   */\n          0x00\n            /* \"#utility.yul\":1256:1262   */\n          dup5\n            /* \"#utility.yul\":1251:1254   */\n          dup5\n            /* \"#utility.yul\":1247:1263   */\n          add\n            /* \"#utility.yul\":1240:1267   */\n          mstore\n            /* \"#utility.yul\":1176:1277   */\n        tag_38:\n            /* \"#utility.yul\":1025:1283   */\n          pop\n            /* \"#utility.yul\":976:1283   */\n          pop\n          pop\n          pop\n          jump\t// out\n            /* \"#utility.yul\":1289:1609   */\n        tag_13:\n            /* \"#utility.yul\":1333:1339   */\n          0x00\n            /* \"#utility.yul\":1370:1371   */\n          0x02\n            /* \"#utility.yul\":1364:1368   */\n          dup3\n            /* \"#utility.yul\":1360:1372   */\n          div\n            /* \"#utility.yul\":1350:1372   */\n          swap1\n          pop\n            /* \"#utility.yul\":1417:1418   */\n          0x01\n            /* \"#utility.yul\":1411:1415   */\n          dup3\n            /* \"#utility.yul\":1407:1419   */\n          and\n            /* \"#utility.yul\":1438:1456   */\n          dup1\n            /* \"#utility.yul\":1428:1509   */\n          tag_40\n          jumpi\n            /* \"#utility.yul\":1494:1498   */\n          0x7f\n            /* \"#utility.yul\":1486:1492   */\n          dup3\n            /* \"#utility.yul\":1482:1499   */\n          and\n            /* \"#utility.yul\":1472:1499   */\n          swap2\n          pop\n            /* \"#utility.yul\":1428:1509   */\n        tag_40:\n            /* \"#utility.yul\":1556:1558   */\n          0x20\n            /* \"#utility.yul\":1548:1554   */\n          dup3\n            /* \"#utility.yul\":1545:1559   */\n          lt\n            /* \"#utility.yul\":1525:1543   */\n          dup2\n            /* \"#utility.yul\":1522:1560   */\n          eq\n            /* \"#utility.yul\":1519:1603   */\n          iszero\n          tag_41\n          jumpi\n            /* \"#utility.yul\":1575:1593   */\n          tag_42\n          tag_43\n          jump\t// in\n        tag_42:\n            /* \"#utility.yul\":1519:1603   */\n        tag_41:\n            /* \"#utility.yul\":1340:1609   */\n          pop\n            /* \"#utility.yul\":1289:1609   */\n          swap2\n          swap1\n          pop\n          jump\t// out\n            /* \"#utility.yul\":1615:1795   */\n        tag_43:\n            /* \"#utility.yul\":1663:1740   */\n          0x4e487b7100000000000000000000000000000000000000000000000000000000\n            /* \"#utility.yul\":1660:1661   */\n          0x00\n            /* \"#utility.yul\":1653:1741   */\n          mstore\n            /* \"#utility.yul\":1760:1764   */\n          0x22\n            /* \"#utility.yul\":1757:1758   */\n          0x04\n            /* \"#utility.yul\":1750:1765   */\n          mstore\n            /* \"#utility.yul\":1784:1788   */\n          0x24\n            /* \"#utility.yul\":1781:1782   */\n          0x00\n            /* \"#utility.yul\":1774:1789   */\n          revert\n            /* \"#utility.yul\":1801:1903   */\n        tag_29:\n            /* \"#utility.yul\":1842:1848   */\n          0x00\n            /* \"#utility.yul\":1893:1895   */\n          0x1f\n            /* \"#utility.yul\":1889:1896   */\n          not\n            /* \"#utility.yul\":1884:1886   */\n          0x1f\n            /* \"#utility.yul\":1877:1882   */\n          dup4\n            /* \"#utility.yul\":1873:1887   */\n          add\n            /* \"#utility.yul\":1869:1897   */\n          and\n            /* \"#utility.yul\":1859:1897   */\n          swap1\n          pop\n            /* \"#utility.yul\":1801:1903   */\n          swap2\n          swap1\n          pop\n          jump\t// out\n\n        auxdata: 0xa264697066735822122088795a141dbb29b8cb0c8fe714e193868b03f3337e81569c0376d645bbc64f3664736f6c63430008070033\n    }\n}\n",
				"bytecode": {
					"linkReferences": {},
					"object": "608060405234801561001057600080fd5b5060405161001d906100f0565b6100269061012d565b604051809103906000f080158015610042573d6000803e3d6000fd5b506000806101000a81548173ffffffffffffffffffffffffffffffffffffffff021916908373ffffffffffffffffffffffffffffffffffffffff16021790555060405161008e906100fd565b604051809103906000f0801580156100aa573d6000803e3d6000fd5b50600160006101000a81548173ffffffffffffffffffffffffffffffffffffffff021916908373ffffffffffffffffffffffffffffffffffffffff160217905550610187565b6105bd8061089683390190565b61040980610e5383390190565b600061011760048361014d565b91506101228261015e565b602082019050919050565b600060208201905081810360008301526101468161010a565b9050919050565b600082825260208201905092915050565b7f4457313200000000000000000000000000000000000000000000000000000000600082015250565b610700806101966000396000f3fe608060405234801561001057600080fd5b506004361061004c5760003560e01c80633241992a14610051578063be9a65551461006f578063fb825e5f1461008e578063fbeabdbb146100ad575b600080fd5b6100596100cb565b60405161006691906104cb565b60405180910390f35b6100776100ef565b604051610085929190610501565b60405180910390f35b610096610242565b6040516100a4929190610501565b60405180910390f35b6100b5610395565b6040516100c291906104e6565b60405180910390f35b60008054906101000a900473ffffffffffffffffffffffffffffffffffffffff1681565b60608060008054906101000a900473ffffffffffffffffffffffffffffffffffffffff1673ffffffffffffffffffffffffffffffffffffffff1663cc80f6f36040518163ffffffff1660e01b815260040160006040518083038186803b15801561015857600080fd5b505afa15801561016c573d6000803e3d6000fd5b505050506040513d6000823e3d601f19601f82011682018060405250810190610195919061042b565b600160009054906101000a900473ffffffffffffffffffffffffffffffffffffffff1673ffffffffffffffffffffffffffffffffffffffff1663ba33ed7d6040518163ffffffff1660e01b815260040160006040518083038186803b1580156101fd57600080fd5b505afa158015610211573d6000803e3d6000fd5b505050506040513d6000823e3d601f19601f8201168201806040525081019061023a919061042b565b915091509091565b60608060008054906101000a900473ffffffffffffffffffffffffffffffffffffffff1673ffffffffffffffffffffffffffffffffffffffff166306fdde036040518163ffffffff1660e01b815260040160006040518083038186803b1580156102ab57600080fd5b505afa1580156102bf573d6000803e3d6000fd5b505050506040513d6000823e3d601f19601f820116820180604052508101906102e8919061042b565b600160009054906101000a900473ffffffffffffffffffffffffffffffffffffffff1673ffffffffffffffffffffffffffffffffffffffff166306fdde036040518163ffffffff1660e01b815260040160006040518083038186803b15801561035057600080fd5b505afa158015610364573d6000803e3d6000fd5b505050506040513d6000823e3d601f19601f8201168201806040525081019061038d919061042b565b915091509091565b600160009054906101000a900473ffffffffffffffffffffffffffffffffffffffff1681565b60006103ce6103c98461055d565b610538565b9050828152602081018484840111156103ea576103e96106aa565b5b6103f5848285610612565b509392505050565b600082601f830112610412576104116106a5565b5b81516104228482602086016103bb565b91505092915050565b600060208284031215610441576104406106b4565b5b600082015167ffffffffffffffff81111561045f5761045e6106af565b5b61046b848285016103fd565b91505092915050565b61047d816105ca565b82525050565b61048c816105dc565b82525050565b600061049d8261058e565b6104a78185610599565b93506104b7818560208601610612565b6104c0816106b9565b840191505092915050565b60006020820190506104e06000830184610474565b92915050565b60006020820190506104fb6000830184610483565b92915050565b6000604082019050818103600083015261051b8185610492565b9050818103602083015261052f8184610492565b90509392505050565b6000610542610553565b905061054e8282610645565b919050565b6000604051905090565b600067ffffffffffffffff82111561057857610577610676565b5b610581826106b9565b9050602081019050919050565b600081519050919050565b600082825260208201905092915050565b600073ffffffffffffffffffffffffffffffffffffffff82169050919050565b60006105d5826105ee565b9050919050565b60006105e7826105ee565b9050919050565b60006105f982610600565b9050919050565b600061060b826105aa565b9050919050565b60005b83811015610630578082015181840152602081019050610615565b8381111561063f576000848401525b50505050565b61064e826106b9565b810181811067ffffffffffffffff8211171561066d5761066c610676565b5b80604052505050565b7f4e487b7100000000000000000000000000000000000000000000000000000000600052604160045260246000fd5b600080fd5b600080fd5b600080fd5b600080fd5b6000601f19601f830116905091905056fea2646970667358221220760a1f93fe6ad2260131a3f168c2e5d5866819a73aa41a06a6733d20cf0acc7364736f6c63430008070033608060405234801561001057600080fd5b506040516105bd3803806105bd83398181016040528101906100329190610162565b806000908051906020019061004892919061004f565b505061031a565b82805461005b90610234565b90600052602060002090601f01602090048101928261007d57600085556100c4565b82601f1061009657805160ff19168380011785556100c4565b828001600101855582156100c4579182015b828111156100c35782518255916020019190600101906100a8565b5b5090506100d191906100d5565b5090565b5b808211156100ee5760008160009055506001016100d6565b5090565b6000610105610100846101d0565b6101ab565b905082815260208101848484011115610121576101206102fa565b5b61012c848285610201565b509392505050565b600082601f830112610149576101486102f5565b5b81516101598482602086016100f2565b91505092915050565b60006020828403121561017857610177610304565b5b600082015167ffffffffffffffff811115610196576101956102ff565b5b6101a284828501610134565b91505092915050565b60006101b56101c6565b90506101c18282610266565b919050565b6000604051905090565b600067ffffffffffffffff8211156101eb576101ea6102c6565b5b6101f482610309565b9050602081019050919050565b60005b8381101561021f578082015181840152602081019050610204565b8381111561022e576000848401525b50505050565b6000600282049050600182168061024c57607f821691505b602082108114156102605761025f610297565b5b50919050565b61026f82610309565b810181811067ffffffffffffffff8211171561028e5761028d6102c6565b5b80604052505050565b7f4e487b7100000000000000000000000000000000000000000000000000000000600052602260045260246000fd5b7f4e487b7100000000000000000000000000000000000000000000000000000000600052604160045260246000fd5b600080fd5b600080fd5b600080fd5b600080fd5b6000601f19601f8301169050919050565b610294806103296000396000f3fe608060405234801561001057600080fd5b50600436106100365760003560e01c806306fdde031461003b578063cc80f6f314610059575b600080fd5b610043610077565b604051610050919061017b565b60405180910390f35b610061610105565b60405161006e919061017b565b60405180910390f35b60008054610084906101ec565b80601f01602080910402602001604051908101604052809291908181526020018280546100b0906101ec565b80156100fd5780601f106100d2576101008083540402835291602001916100fd565b820191906000526020600020905b8154815290600101906020018083116100e057829003601f168201915b505050505081565b60606040518060400160405280600481526020017f73686f7700000000000000000000000000000000000000000000000000000000815250905090565b600061014d8261019d565b61015781856101a8565b93506101678185602086016101b9565b6101708161024d565b840191505092915050565b600060208201905081810360008301526101958184610142565b905092915050565b600081519050919050565b600082825260208201905092915050565b60005b838110156101d75780820151818401526020810190506101bc565b838111156101e6576000848401525b50505050565b6000600282049050600182168061020457607f821691505b602082108114156102185761021761021e565b5b50919050565b7f4e487b7100000000000000000000000000000000000000000000000000000000600052602260045260246000fd5b6000601f19601f830116905091905056fea2646970667358221220647a2b95908b1de4c3df7eeb48f4479e18e3d5d2455ba06649c97345968775cb64736f6c6343000807003360806040526040518060400160405280600481526020017f58473132000000000000000000000000000000000000000000000000000000008152506000908051906020019061004f929190610062565b5034801561005c57600080fd5b50610166565b82805461006e90610105565b90600052602060002090601f01602090048101928261009057600085556100d7565b82601f106100a957805160ff19168380011785556100d7565b828001600101855582156100d7579182015b828111156100d65782518255916020019190600101906100bb565b5b5090506100e491906100e8565b5090565b5b808211156101015760008160009055506001016100e9565b5090565b6000600282049050600182168061011d57607f821691505b6020821081141561013157610130610137565b5b50919050565b7f4e487b7100000000000000000000000000000000000000000000000000000000600052602260045260246000fd5b610294806101756000396000f3fe608060405234801561001057600080fd5b50600436106100365760003560e01c806306fdde031461003b578063ba33ed7d14610059575b600080fd5b610043610077565b604051610050919061017b565b60405180910390f35b610061610105565b60405161006e919061017b565b60405180910390f35b60008054610084906101ec565b80601f01602080910402602001604051908101604052809291908181526020018280546100b0906101ec565b80156100fd5780601f106100d2576101008083540402835291602001916100fd565b820191906000526020600020905b8154815290600101906020018083116100e057829003601f168201915b505050505081565b60606040518060400160405280600681526020017f7475726e4f6e0000000000000000000000000000000000000000000000000000815250905090565b600061014d8261019d565b61015781856101a8565b93506101678185602086016101b9565b6101708161024d565b840191505092915050565b600060208201905081810360008301526101958184610142565b905092915050565b600081519050919050565b600082825260208201905092915050565b60005b838110156101d75780820151818401526020810190506101bc565b838111156101e6576000848401525b50505050565b6000600282049050600182168061020457607f821691505b602082108114156102185761021761021e565b5b50919050565b7f4e487b7100000000000000000000000000000000000000000000000000000000600052602260045260246000fd5b6000601f19601f830116905091905056fea264697066735822122088795a141dbb29b8cb0c8fe714e193868b03f3337e81569c0376d645bbc64f3664736f6c63430008070033",
					"opcodes": "PUSH1 0x80 PUSH1 0x40 MSTORE CALLVALUE DUP1 ISZERO PUSH2 0x10 JUMPI PUSH1 0x0 DUP1 REVERT JUMPDEST POP PUSH1 0x40 MLOAD PUSH2 0x1D SWAP1 PUSH2 0xF0 JUMP JUMPDEST PUSH2 0x26 SWAP1 PUSH2 0x12D JUMP JUMPDEST PUSH1 0x40 MLOAD DUP1 SWAP2 SUB SWAP1 PUSH1 0x0 CREATE DUP1 ISZERO DUP1 ISZERO PUSH2 0x42 JUMPI RETURNDATASIZE PUSH1 0x0 DUP1 RETURNDATACOPY RETURNDATASIZE PUSH1 0x0 REVERT JUMPDEST POP PUSH1 0x0 DUP1 PUSH2 0x100 EXP DUP2 SLOAD DUP2 PUSH20 0xFFFFFFFFFFFFFFFFFFFFFFFFFFFFFFFFFFFFFFFF MUL NOT AND SWAP1 DUP4 PUSH20 0xFFFFFFFFFFFFFFFFFFFFFFFFFFFFFFFFFFFFFFFF AND MUL OR SWAP1 SSTORE POP PUSH1 0x40 MLOAD PUSH2 0x8E SWAP1 PUSH2 0xFD JUMP JUMPDEST PUSH1 0x40 MLOAD DUP1 SWAP2 SUB SWAP1 PUSH1 0x0 CREATE DUP1 ISZERO DUP1 ISZERO PUSH2 0xAA JUMPI RETURNDATASIZE PUSH1 0x0 DUP1 RETURNDATACOPY RETURNDATASIZE PUSH1 0x0 REVERT JUMPDEST POP PUSH1 0x1 PUSH1 0x0 PUSH2 0x100 EXP DUP2 SLOAD DUP2 PUSH20 0xFFFFFFFFFFFFFFFFFFFFFFFFFFFFFFFFFFFFFFFF MUL NOT AND SWAP1 DUP4 PUSH20 0xFFFFFFFFFFFFFFFFFFFFFFFFFFFFFFFFFFFFFFFF AND MUL OR SWAP1 SSTORE POP PUSH2 0x187 JUMP JUMPDEST PUSH2 0x5BD DUP1 PUSH2 0x896 DUP4 CODECOPY ADD SWAP1 JUMP JUMPDEST PUSH2 0x409 DUP1 PUSH2 0xE53 DUP4 CODECOPY ADD SWAP1 JUMP JUMPDEST PUSH1 0x0 PUSH2 0x117 PUSH1 0x4 DUP4 PUSH2 0x14D JUMP JUMPDEST SWAP2 POP PUSH2 0x122 DUP3 PUSH2 0x15E JUMP JUMPDEST PUSH1 0x20 DUP3 ADD SWAP1 POP SWAP2 SWAP1 POP JUMP JUMPDEST PUSH1 0x0 PUSH1 0x20 DUP3 ADD SWAP1 POP DUP2 DUP2 SUB PUSH1 0x0 DUP4 ADD MSTORE PUSH2 0x146 DUP2 PUSH2 0x10A JUMP JUMPDEST SWAP1 POP SWAP2 SWAP1 POP JUMP JUMPDEST PUSH1 0x0 DUP3 DUP3 MSTORE PUSH1 0x20 DUP3 ADD SWAP1 POP SWAP3 SWAP2 POP POP JUMP JUMPDEST PUSH32 0x4457313200000000000000000000000000000000000000000000000000000000 PUSH1 0x0 DUP3 ADD MSTORE POP JUMP JUMPDEST PUSH2 0x700 DUP1 PUSH2 0x196 PUSH1 0x0 CODECOPY PUSH1 0x0 RETURN INVALID PUSH1 0x80 PUSH1 0x40 MSTORE CALLVALUE DUP1 ISZERO PUSH2 0x10 JUMPI PUSH1 0x0 DUP1 REVERT JUMPDEST POP PUSH1 0x4 CALLDATASIZE LT PUSH2 0x4C JUMPI PUSH1 0x0 CALLDATALOAD PUSH1 0xE0 SHR DUP1 PUSH4 0x3241992A EQ PUSH2 0x51 JUMPI DUP1 PUSH4 0xBE9A6555 EQ PUSH2 0x6F JUMPI DUP1 PUSH4 0xFB825E5F EQ PUSH2 0x8E JUMPI DUP1 PUSH4 0xFBEABDBB EQ PUSH2 0xAD JUMPI JUMPDEST PUSH1 0x0 DUP1 REVERT JUMPDEST PUSH2 0x59 PUSH2 0xCB JUMP JUMPDEST PUSH1 0x40 MLOAD PUSH2 0x66 SWAP2 SWAP1 PUSH2 0x4CB JUMP JUMPDEST PUSH1 0x40 MLOAD DUP1 SWAP2 SUB SWAP1 RETURN JUMPDEST PUSH2 0x77 PUSH2 0xEF JUMP JUMPDEST PUSH1 0x40 MLOAD PUSH2 0x85 SWAP3 SWAP2 SWAP1 PUSH2 0x501 JUMP JUMPDEST PUSH1 0x40 MLOAD DUP1 SWAP2 SUB SWAP1 RETURN JUMPDEST PUSH2 0x96 PUSH2 0x242 JUMP JUMPDEST PUSH1 0x40 MLOAD PUSH2 0xA4 SWAP3 SWAP2 SWAP1 PUSH2 0x501 JUMP JUMPDEST PUSH1 0x40 MLOAD DUP1 SWAP2 SUB SWAP1 RETURN JUMPDEST PUSH2 0xB5 PUSH2 0x395 JUMP JUMPDEST PUSH1 0x40 MLOAD PUSH2 0xC2 SWAP2 SWAP1 PUSH2 0x4E6 JUMP JUMPDEST PUSH1 0x40 MLOAD DUP1 SWAP2 SUB SWAP1 RETURN JUMPDEST PUSH1 0x0 DUP1 SLOAD SWAP1 PUSH2 0x100 EXP SWAP1 DIV PUSH20 0xFFFFFFFFFFFFFFFFFFFFFFFFFFFFFFFFFFFFFFFF AND DUP2 JUMP JUMPDEST PUSH1 0x60 DUP1 PUSH1 0x0 DUP1 SLOAD SWAP1 PUSH2 0x100 EXP SWAP1 DIV PUSH20 0xFFFFFFFFFFFFFFFFFFFFFFFFFFFFFFFFFFFFFFFF AND PUSH20 0xFFFFFFFFFFFFFFFFFFFFFFFFFFFFFFFFFFFFFFFF AND PUSH4 0xCC80F6F3 PUSH1 0x40 MLOAD DUP2 PUSH4 0xFFFFFFFF AND PUSH1 0xE0 SHL DUP2 MSTORE PUSH1 0x4 ADD PUSH1 0x0 PUSH1 0x40 MLOAD DUP1 DUP4 SUB DUP2 DUP7 DUP1 EXTCODESIZE ISZERO DUP1 ISZERO PUSH2 0x158 JUMPI PUSH1 0x0 DUP1 REVERT JUMPDEST POP GAS STATICCALL ISZERO DUP1 ISZERO PUSH2 0x16C JUMPI RETURNDATASIZE PUSH1 0x0 DUP1 RETURNDATACOPY RETURNDATASIZE PUSH1 0x0 REVERT JUMPDEST POP POP POP POP PUSH1 0x40 MLOAD RETURNDATASIZE PUSH1 0x0 DUP3 RETURNDATACOPY RETURNDATASIZE PUSH1 0x1F NOT PUSH1 0x1F DUP3 ADD AND DUP3 ADD DUP1 PUSH1 0x40 MSTORE POP DUP2 ADD SWAP1 PUSH2 0x195 SWAP2 SWAP1 PUSH2 0x42B JUMP JUMPDEST PUSH1 0x1 PUSH1 0x0 SWAP1 SLOAD SWAP1 PUSH2 0x100 EXP SWAP1 DIV PUSH20 0xFFFFFFFFFFFFFFFFFFFFFFFFFFFFFFFFFFFFFFFF AND PUSH20 0xFFFFFFFFFFFFFFFFFFFFFFFFFFFFFFFFFFFFFFFF AND PUSH4 0xBA33ED7D PUSH1 0x40 MLOAD DUP2 PUSH4 0xFFFFFFFF AND PUSH1 0xE0 SHL DUP2 MSTORE PUSH1 0x4 ADD PUSH1 0x0 PUSH1 0x40 MLOAD DUP1 DUP4 SUB DUP2 DUP7 DUP1 EXTCODESIZE ISZERO DUP1 ISZERO PUSH2 0x1FD JUMPI PUSH1 0x0 DUP1 REVERT JUMPDEST POP GAS STATICCALL ISZERO DUP1 ISZERO PUSH2 0x211 JUMPI RETURNDATASIZE PUSH1 0x0 DUP1 RETURNDATACOPY RETURNDATASIZE PUSH1 0x0 REVERT JUMPDEST POP POP POP POP PUSH1 0x40 MLOAD RETURNDATASIZE PUSH1 0x0 DUP3 RETURNDATACOPY RETURNDATASIZE PUSH1 0x1F NOT PUSH1 0x1F DUP3 ADD AND DUP3 ADD DUP1 PUSH1 0x40 MSTORE POP DUP2 ADD SWAP1 PUSH2 0x23A SWAP2 SWAP1 PUSH2 0x42B JUMP JUMPDEST SWAP2 POP SWAP2 POP SWAP1 SWAP2 JUMP JUMPDEST PUSH1 0x60 DUP1 PUSH1 0x0 DUP1 SLOAD SWAP1 PUSH2 0x100 EXP SWAP1 DIV PUSH20 0xFFFFFFFFFFFFFFFFFFFFFFFFFFFFFFFFFFFFFFFF AND PUSH20 0xFFFFFFFFFFFFFFFFFFFFFFFFFFFFFFFFFFFFFFFF AND PUSH4 0x6FDDE03 PUSH1 0x40 MLOAD DUP2 PUSH4 0xFFFFFFFF AND PUSH1 0xE0 SHL DUP2 MSTORE PUSH1 0x4 ADD PUSH1 0x0 PUSH1 0x40 MLOAD DUP1 DUP4 SUB DUP2 DUP7 DUP1 EXTCODESIZE ISZERO DUP1 ISZERO PUSH2 0x2AB JUMPI PUSH1 0x0 DUP1 REVERT JUMPDEST POP GAS STATICCALL ISZERO DUP1 ISZERO PUSH2 0x2BF JUMPI RETURNDATASIZE PUSH1 0x0 DUP1 RETURNDATACOPY RETURNDATASIZE PUSH1 0x0 REVERT JUMPDEST POP POP POP POP PUSH1 0x40 MLOAD RETURNDATASIZE PUSH1 0x0 DUP3 RETURNDATACOPY RETURNDATASIZE PUSH1 0x1F NOT PUSH1 0x1F DUP3 ADD AND DUP3 ADD DUP1 PUSH1 0x40 MSTORE POP DUP2 ADD SWAP1 PUSH2 0x2E8 SWAP2 SWAP1 PUSH2 0x42B JUMP JUMPDEST PUSH1 0x1 PUSH1 0x0 SWAP1 SLOAD SWAP1 PUSH2 0x100 EXP SWAP1 DIV PUSH20 0xFFFFFFFFFFFFFFFFFFFFFFFFFFFFFFFFFFFFFFFF AND PUSH20 0xFFFFFFFFFFFFFFFFFFFFFFFFFFFFFFFFFFFFFFFF AND PUSH4 0x6FDDE03 PUSH1 0x40 MLOAD DUP2 PUSH4 0xFFFFFFFF AND PUSH1 0xE0 SHL DUP2 MSTORE PUSH1 0x4 ADD PUSH1 0x0 PUSH1 0x40 MLOAD DUP1 DUP4 SUB DUP2 DUP7 DUP1 EXTCODESIZE ISZERO DUP1 ISZERO PUSH2 0x350 JUMPI PUSH1 0x0 DUP1 REVERT JUMPDEST POP GAS STATICCALL ISZERO DUP1 ISZERO PUSH2 0x364 JUMPI RETURNDATASIZE PUSH1 0x0 DUP1 RETURNDATACOPY RETURNDATASIZE PUSH1 0x0 REVERT JUMPDEST POP POP POP POP PUSH1 0x40 MLOAD RETURNDATASIZE PUSH1 0x0 DUP3 RETURNDATACOPY RETURNDATASIZE PUSH1 0x1F NOT PUSH1 0x1F DUP3 ADD AND DUP3 ADD DUP1 PUSH1 0x40 MSTORE POP DUP2 ADD SWAP1 PUSH2 0x38D SWAP2 SWAP1 PUSH2 0x42B JUMP JUMPDEST SWAP2 POP SWAP2 POP SWAP1 SWAP2 JUMP JUMPDEST PUSH1 0x1 PUSH1 0x0 SWAP1 SLOAD SWAP1 PUSH2 0x100 EXP SWAP1 DIV PUSH20 0xFFFFFFFFFFFFFFFFFFFFFFFFFFFFFFFFFFFFFFFF AND DUP2 JUMP JUMPDEST PUSH1 0x0 PUSH2 0x3CE PUSH2 0x3C9 DUP5 PUSH2 0x55D JUMP JUMPDEST PUSH2 0x538 JUMP JUMPDEST SWAP1 POP DUP3 DUP2 MSTORE PUSH1 0x20 DUP2 ADD DUP5 DUP5 DUP5 ADD GT ISZERO PUSH2 0x3EA JUMPI PUSH2 0x3E9 PUSH2 0x6AA JUMP JUMPDEST JUMPDEST PUSH2 0x3F5 DUP5 DUP3 DUP6 PUSH2 0x612 JUMP JUMPDEST POP SWAP4 SWAP3 POP POP POP JUMP JUMPDEST PUSH1 0x0 DUP3 PUSH1 0x1F DUP4 ADD SLT PUSH2 0x412 JUMPI PUSH2 0x411 PUSH2 0x6A5 JUMP JUMPDEST JUMPDEST DUP2 MLOAD PUSH2 0x422 DUP5 DUP3 PUSH1 0x20 DUP7 ADD PUSH2 0x3BB JUMP JUMPDEST SWAP2 POP POP SWAP3 SWAP2 POP POP JUMP JUMPDEST PUSH1 0x0 PUSH1 0x20 DUP3 DUP5 SUB SLT ISZERO PUSH2 0x441 JUMPI PUSH2 0x440 PUSH2 0x6B4 JUMP JUMPDEST JUMPDEST PUSH1 0x0 DUP3 ADD MLOAD PUSH8 0xFFFFFFFFFFFFFFFF DUP2 GT ISZERO PUSH2 0x45F JUMPI PUSH2 0x45E PUSH2 0x6AF JUMP JUMPDEST JUMPDEST PUSH2 0x46B DUP5 DUP3 DUP6 ADD PUSH2 0x3FD JUMP JUMPDEST SWAP2 POP POP SWAP3 SWAP2 POP POP JUMP JUMPDEST PUSH2 0x47D DUP2 PUSH2 0x5CA JUMP JUMPDEST DUP3 MSTORE POP POP JUMP JUMPDEST PUSH2 0x48C DUP2 PUSH2 0x5DC JUMP JUMPDEST DUP3 MSTORE POP POP JUMP JUMPDEST PUSH1 0x0 PUSH2 0x49D DUP3 PUSH2 0x58E JUMP JUMPDEST PUSH2 0x4A7 DUP2 DUP6 PUSH2 0x599 JUMP JUMPDEST SWAP4 POP PUSH2 0x4B7 DUP2 DUP6 PUSH1 0x20 DUP7 ADD PUSH2 0x612 JUMP JUMPDEST PUSH2 0x4C0 DUP2 PUSH2 0x6B9 JUMP JUMPDEST DUP5 ADD SWAP2 POP POP SWAP3 SWAP2 POP POP JUMP JUMPDEST PUSH1 0x0 PUSH1 0x20 DUP3 ADD SWAP1 POP PUSH2 0x4E0 PUSH1 0x0 DUP4 ADD DUP5 PUSH2 0x474 JUMP JUMPDEST SWAP3 SWAP2 POP POP JUMP JUMPDEST PUSH1 0x0 PUSH1 0x20 DUP3 ADD SWAP1 POP PUSH2 0x4FB PUSH1 0x0 DUP4 ADD DUP5 PUSH2 0x483 JUMP JUMPDEST SWAP3 SWAP2 POP POP JUMP JUMPDEST PUSH1 0x0 PUSH1 0x40 DUP3 ADD SWAP1 POP DUP2 DUP2 SUB PUSH1 0x0 DUP4 ADD MSTORE PUSH2 0x51B DUP2 DUP6 PUSH2 0x492 JUMP JUMPDEST SWAP1 POP DUP2 DUP2 SUB PUSH1 0x20 DUP4 ADD MSTORE PUSH2 0x52F DUP2 DUP5 PUSH2 0x492 JUMP JUMPDEST SWAP1 POP SWAP4 SWAP3 POP POP POP JUMP JUMPDEST PUSH1 0x0 PUSH2 0x542 PUSH2 0x553 JUMP JUMPDEST SWAP1 POP PUSH2 0x54E DUP3 DUP3 PUSH2 0x645 JUMP JUMPDEST SWAP2 SWAP1 POP JUMP JUMPDEST PUSH1 0x0 PUSH1 0x40 MLOAD SWAP1 POP SWAP1 JUMP JUMPDEST PUSH1 0x0 PUSH8 0xFFFFFFFFFFFFFFFF DUP3 GT ISZERO PUSH2 0x578 JUMPI PUSH2 0x577 PUSH2 0x676 JUMP JUMPDEST JUMPDEST PUSH2 0x581 DUP3 PUSH2 0x6B9 JUMP JUMPDEST SWAP1 POP PUSH1 0x20 DUP2 ADD SWAP1 POP SWAP2 SWAP1 POP JUMP JUMPDEST PUSH1 0x0 DUP2 MLOAD SWAP1 POP SWAP2 SWAP1 POP JUMP JUMPDEST PUSH1 0x0 DUP3 DUP3 MSTORE PUSH1 0x20 DUP3 ADD SWAP1 POP SWAP3 SWAP2 POP POP JUMP JUMPDEST PUSH1 0x0 PUSH20 0xFFFFFFFFFFFFFFFFFFFFFFFFFFFFFFFFFFFFFFFF DUP3 AND SWAP1 POP SWAP2 SWAP1 POP JUMP JUMPDEST PUSH1 0x0 PUSH2 0x5D5 DUP3 PUSH2 0x5EE JUMP JUMPDEST SWAP1 POP SWAP2 SWAP1 POP JUMP JUMPDEST PUSH1 0x0 PUSH2 0x5E7 DUP3 PUSH2 0x5EE JUMP JUMPDEST SWAP1 POP SWAP2 SWAP1 POP JUMP JUMPDEST PUSH1 0x0 PUSH2 0x5F9 DUP3 PUSH2 0x600 JUMP JUMPDEST SWAP1 POP SWAP2 SWAP1 POP JUMP JUMPDEST PUSH1 0x0 PUSH2 0x60B DUP3 PUSH2 0x5AA JUMP JUMPDEST SWAP1 POP SWAP2 SWAP1 POP JUMP JUMPDEST PUSH1 0x0 JUMPDEST DUP4 DUP2 LT ISZERO PUSH2 0x630 JUMPI DUP1 DUP3 ADD MLOAD DUP2 DUP5 ADD MSTORE PUSH1 0x20 DUP2 ADD SWAP1 POP PUSH2 0x615 JUMP JUMPDEST DUP4 DUP2 GT ISZERO PUSH2 0x63F JUMPI PUSH1 0x0 DUP5 DUP5 ADD MSTORE JUMPDEST POP POP POP POP JUMP JUMPDEST PUSH2 0x64E DUP3 PUSH2 0x6B9 JUMP JUMPDEST DUP2 ADD DUP2 DUP2 LT PUSH8 0xFFFFFFFFFFFFFFFF DUP3 GT OR ISZERO PUSH2 0x66D JUMPI PUSH2 0x66C PUSH2 0x676 JUMP JUMPDEST JUMPDEST DUP1 PUSH1 0x40 MSTORE POP POP POP JUMP JUMPDEST PUSH32 0x4E487B7100000000000000000000000000000000000000000000000000000000 PUSH1 0x0 MSTORE PUSH1 0x41 PUSH1 0x4 MSTORE PUSH1 0x24 PUSH1 0x0 REVERT JUMPDEST PUSH1 0x0 DUP1 REVERT JUMPDEST PUSH1 0x0 DUP1 REVERT JUMPDEST PUSH1 0x0 DUP1 REVERT JUMPDEST PUSH1 0x0 DUP1 REVERT JUMPDEST PUSH1 0x0 PUSH1 0x1F NOT PUSH1 0x1F DUP4 ADD AND SWAP1 POP SWAP2 SWAP1 POP JUMP INVALID LOG2 PUSH5 0x6970667358 0x22 SLT KECCAK256 PUSH23 0xA1F93FE6AD2260131A3F168C2E5D5866819A73AA41A06 0xA6 PUSH20 0x3D20CF0ACC7364736F6C63430008070033608060 BLOCKHASH MSTORE CALLVALUE DUP1 ISZERO PUSH2 0x10 JUMPI PUSH1 0x0 DUP1 REVERT JUMPDEST POP PUSH1 0x40 MLOAD PUSH2 0x5BD CODESIZE SUB DUP1 PUSH2 0x5BD DUP4 CODECOPY DUP2 DUP2 ADD PUSH1 0x40 MSTORE DUP2 ADD SWAP1 PUSH2 0x32 SWAP2 SWAP1 PUSH2 0x162 JUMP JUMPDEST DUP1 PUSH1 0x0 SWAP1 DUP1 MLOAD SWAP1 PUSH1 0x20 ADD SWAP1 PUSH2 0x48 SWAP3 SWAP2 SWAP1 PUSH2 0x4F JUMP JUMPDEST POP POP PUSH2 0x31A JUMP JUMPDEST DUP3 DUP1 SLOAD PUSH2 0x5B SWAP1 PUSH2 0x234 JUMP JUMPDEST SWAP1 PUSH1 0x0 MSTORE PUSH1 0x20 PUSH1 0x0 KECCAK256 SWAP1 PUSH1 0x1F ADD PUSH1 0x20 SWAP1 DIV DUP2 ADD SWAP3 DUP3 PUSH2 0x7D JUMPI PUSH1 0x0 DUP6 SSTORE PUSH2 0xC4 JUMP JUMPDEST DUP3 PUSH1 0x1F LT PUSH2 0x96 JUMPI DUP1 MLOAD PUSH1 0xFF NOT AND DUP4 DUP1 ADD OR DUP6 SSTORE PUSH2 0xC4 JUMP JUMPDEST DUP3 DUP1 ADD PUSH1 0x1 ADD DUP6 SSTORE DUP3 ISZERO PUSH2 0xC4 JUMPI SWAP2 DUP3 ADD JUMPDEST DUP3 DUP2 GT ISZERO PUSH2 0xC3 JUMPI DUP3 MLOAD DUP3 SSTORE SWAP2 PUSH1 0x20 ADD SWAP2 SWAP1 PUSH1 0x1 ADD SWAP1 PUSH2 0xA8 JUMP JUMPDEST JUMPDEST POP SWAP1 POP PUSH2 0xD1 SWAP2 SWAP1 PUSH2 0xD5 JUMP JUMPDEST POP SWAP1 JUMP JUMPDEST JUMPDEST DUP1 DUP3 GT ISZERO PUSH2 0xEE JUMPI PUSH1 0x0 DUP2 PUSH1 0x0 SWAP1 SSTORE POP PUSH1 0x1 ADD PUSH2 0xD6 JUMP JUMPDEST POP SWAP1 JUMP JUMPDEST PUSH1 0x0 PUSH2 0x105 PUSH2 0x100 DUP5 PUSH2 0x1D0 JUMP JUMPDEST PUSH2 0x1AB JUMP JUMPDEST SWAP1 POP DUP3 DUP2 MSTORE PUSH1 0x20 DUP2 ADD DUP5 DUP5 DUP5 ADD GT ISZERO PUSH2 0x121 JUMPI PUSH2 0x120 PUSH2 0x2FA JUMP JUMPDEST JUMPDEST PUSH2 0x12C DUP5 DUP3 DUP6 PUSH2 0x201 JUMP JUMPDEST POP SWAP4 SWAP3 POP POP POP JUMP JUMPDEST PUSH1 0x0 DUP3 PUSH1 0x1F DUP4 ADD SLT PUSH2 0x149 JUMPI PUSH2 0x148 PUSH2 0x2F5 JUMP JUMPDEST JUMPDEST DUP2 MLOAD PUSH2 0x159 DUP5 DUP3 PUSH1 0x20 DUP7 ADD PUSH2 0xF2 JUMP JUMPDEST SWAP2 POP POP SWAP3 SWAP2 POP POP JUMP JUMPDEST PUSH1 0x0 PUSH1 0x20 DUP3 DUP5 SUB SLT ISZERO PUSH2 0x178 JUMPI PUSH2 0x177 PUSH2 0x304 JUMP JUMPDEST JUMPDEST PUSH1 0x0 DUP3 ADD MLOAD PUSH8 0xFFFFFFFFFFFFFFFF DUP2 GT ISZERO PUSH2 0x196 JUMPI PUSH2 0x195 PUSH2 0x2FF JUMP JUMPDEST JUMPDEST PUSH2 0x1A2 DUP5 DUP3 DUP6 ADD PUSH2 0x134 JUMP JUMPDEST SWAP2 POP POP SWAP3 SWAP2 POP POP JUMP JUMPDEST PUSH1 0x0 PUSH2 0x1B5 PUSH2 0x1C6 JUMP JUMPDEST SWAP1 POP PUSH2 0x1C1 DUP3 DUP3 PUSH2 0x266 JUMP JUMPDEST SWAP2 SWAP1 POP JUMP JUMPDEST PUSH1 0x0 PUSH1 0x40 MLOAD SWAP1 POP SWAP1 JUMP JUMPDEST PUSH1 0x0 PUSH8 0xFFFFFFFFFFFFFFFF DUP3 GT ISZERO PUSH2 0x1EB JUMPI PUSH2 0x1EA PUSH2 0x2C6 JUMP JUMPDEST JUMPDEST PUSH2 0x1F4 DUP3 PUSH2 0x309 JUMP JUMPDEST SWAP1 POP PUSH1 0x20 DUP2 ADD SWAP1 POP SWAP2 SWAP1 POP JUMP JUMPDEST PUSH1 0x0 JUMPDEST DUP4 DUP2 LT ISZERO PUSH2 0x21F JUMPI DUP1 DUP3 ADD MLOAD DUP2 DUP5 ADD MSTORE PUSH1 0x20 DUP2 ADD SWAP1 POP PUSH2 0x204 JUMP JUMPDEST DUP4 DUP2 GT ISZERO PUSH2 0x22E JUMPI PUSH1 0x0 DUP5 DUP5 ADD MSTORE JUMPDEST POP POP POP POP JUMP JUMPDEST PUSH1 0x0 PUSH1 0x2 DUP3 DIV SWAP1 POP PUSH1 0x1 DUP3 AND DUP1 PUSH2 0x24C JUMPI PUSH1 0x7F DUP3 AND SWAP2 POP JUMPDEST PUSH1 0x20 DUP3 LT DUP2 EQ ISZERO PUSH2 0x260 JUMPI PUSH2 0x25F PUSH2 0x297 JUMP JUMPDEST JUMPDEST POP SWAP2 SWAP1 POP JUMP JUMPDEST PUSH2 0x26F DUP3 PUSH2 0x309 JUMP JUMPDEST DUP2 ADD DUP2 DUP2 LT PUSH8 0xFFFFFFFFFFFFFFFF DUP3 GT OR ISZERO PUSH2 0x28E JUMPI PUSH2 0x28D PUSH2 0x2C6 JUMP JUMPDEST JUMPDEST DUP1 PUSH1 0x40 MSTORE POP POP POP JUMP JUMPDEST PUSH32 0x4E487B7100000000000000000000000000000000000000000000000000000000 PUSH1 0x0 MSTORE PUSH1 0x22 PUSH1 0x4 MSTORE PUSH1 0x24 PUSH1 0x0 REVERT JUMPDEST PUSH32 0x4E487B7100000000000000000000000000000000000000000000000000000000 PUSH1 0x0 MSTORE PUSH1 0x41 PUSH1 0x4 MSTORE PUSH1 0x24 PUSH1 0x0 REVERT JUMPDEST PUSH1 0x0 DUP1 REVERT JUMPDEST PUSH1 0x0 DUP1 REVERT JUMPDEST PUSH1 0x0 DUP1 REVERT JUMPDEST PUSH1 0x0 DUP1 REVERT JUMPDEST PUSH1 0x0 PUSH1 0x1F NOT PUSH1 0x1F DUP4 ADD AND SWAP1 POP SWAP2 SWAP1 POP JUMP JUMPDEST PUSH2 0x294 DUP1 PUSH2 0x329 PUSH1 0x0 CODECOPY PUSH1 0x0 RETURN INVALID PUSH1 0x80 PUSH1 0x40 MSTORE CALLVALUE DUP1 ISZERO PUSH2 0x10 JUMPI PUSH1 0x0 DUP1 REVERT JUMPDEST POP PUSH1 0x4 CALLDATASIZE LT PUSH2 0x36 JUMPI PUSH1 0x0 CALLDATALOAD PUSH1 0xE0 SHR DUP1 PUSH4 0x6FDDE03 EQ PUSH2 0x3B JUMPI DUP1 PUSH4 0xCC80F6F3 EQ PUSH2 0x59 JUMPI JUMPDEST PUSH1 0x0 DUP1 REVERT JUMPDEST PUSH2 0x43 PUSH2 0x77 JUMP JUMPDEST PUSH1 0x40 MLOAD PUSH2 0x50 SWAP2 SWAP1 PUSH2 0x17B JUMP JUMPDEST PUSH1 0x40 MLOAD DUP1 SWAP2 SUB SWAP1 RETURN JUMPDEST PUSH2 0x61 PUSH2 0x105 JUMP JUMPDEST PUSH1 0x40 MLOAD PUSH2 0x6E SWAP2 SWAP1 PUSH2 0x17B JUMP JUMPDEST PUSH1 0x40 MLOAD DUP1 SWAP2 SUB SWAP1 RETURN JUMPDEST PUSH1 0x0 DUP1 SLOAD PUSH2 0x84 SWAP1 PUSH2 0x1EC JUMP JUMPDEST DUP1 PUSH1 0x1F ADD PUSH1 0x20 DUP1 SWAP2 DIV MUL PUSH1 0x20 ADD PUSH1 0x40 MLOAD SWAP1 DUP2 ADD PUSH1 0x40 MSTORE DUP1 SWAP3 SWAP2 SWAP1 DUP2 DUP2 MSTORE PUSH1 0x20 ADD DUP3 DUP1 SLOAD PUSH2 0xB0 SWAP1 PUSH2 0x1EC JUMP JUMPDEST DUP1 ISZERO PUSH2 0xFD JUMPI DUP1 PUSH1 0x1F LT PUSH2 0xD2 JUMPI PUSH2 0x100 DUP1 DUP4 SLOAD DIV MUL DUP4 MSTORE SWAP2 PUSH1 0x20 ADD SWAP2 PUSH2 0xFD JUMP JUMPDEST DUP3 ADD SWAP2 SWAP1 PUSH1 0x0 MSTORE PUSH1 0x20 PUSH1 0x0 KECCAK256 SWAP1 JUMPDEST DUP2 SLOAD DUP2 MSTORE SWAP1 PUSH1 0x1 ADD SWAP1 PUSH1 0x20 ADD DUP1 DUP4 GT PUSH2 0xE0 JUMPI DUP3 SWAP1 SUB PUSH1 0x1F AND DUP3 ADD SWAP2 JUMPDEST POP POP POP POP POP DUP2 JUMP JUMPDEST PUSH1 0x60 PUSH1 0x40 MLOAD DUP1 PUSH1 0x40 ADD PUSH1 0x40 MSTORE DUP1 PUSH1 0x4 DUP2 MSTORE PUSH1 0x20 ADD PUSH32 0x73686F7700000000000000000000000000000000000000000000000000000000 DUP2 MSTORE POP SWAP1 POP SWAP1 JUMP JUMPDEST PUSH1 0x0 PUSH2 0x14D DUP3 PUSH2 0x19D JUMP JUMPDEST PUSH2 0x157 DUP2 DUP6 PUSH2 0x1A8 JUMP JUMPDEST SWAP4 POP PUSH2 0x167 DUP2 DUP6 PUSH1 0x20 DUP7 ADD PUSH2 0x1B9 JUMP JUMPDEST PUSH2 0x170 DUP2 PUSH2 0x24D JUMP JUMPDEST DUP5 ADD SWAP2 POP POP SWAP3 SWAP2 POP POP JUMP JUMPDEST PUSH1 0x0 PUSH1 0x20 DUP3 ADD SWAP1 POP DUP2 DUP2 SUB PUSH1 0x0 DUP4 ADD MSTORE PUSH2 0x195 DUP2 DUP5 PUSH2 0x142 JUMP JUMPDEST SWAP1 POP SWAP3 SWAP2 POP POP JUMP JUMPDEST PUSH1 0x0 DUP2 MLOAD SWAP1 POP SWAP2 SWAP1 POP JUMP JUMPDEST PUSH1 0x0 DUP3 DUP3 MSTORE PUSH1 0x20 DUP3 ADD SWAP1 POP SWAP3 SWAP2 POP POP JUMP JUMPDEST PUSH1 0x0 JUMPDEST DUP4 DUP2 LT ISZERO PUSH2 0x1D7 JUMPI DUP1 DUP3 ADD MLOAD DUP2 DUP5 ADD MSTORE PUSH1 0x20 DUP2 ADD SWAP1 POP PUSH2 0x1BC JUMP JUMPDEST DUP4 DUP2 GT ISZERO PUSH2 0x1E6 JUMPI PUSH1 0x0 DUP5 DUP5 ADD MSTORE JUMPDEST POP POP POP POP JUMP JUMPDEST PUSH1 0x0 PUSH1 0x2 DUP3 DIV SWAP1 POP PUSH1 0x1 DUP3 AND DUP1 PUSH2 0x204 JUMPI PUSH1 0x7F DUP3 AND SWAP2 POP JUMPDEST PUSH1 0x20 DUP3 LT DUP2 EQ ISZERO PUSH2 0x218 JUMPI PUSH2 0x217 PUSH2 0x21E JUMP JUMPDEST JUMPDEST POP SWAP2 SWAP1 POP JUMP JUMPDEST PUSH32 0x4E487B7100000000000000000000000000000000000000000000000000000000 PUSH1 0x0 MSTORE PUSH1 0x22 PUSH1 0x4 MSTORE PUSH1 0x24 PUSH1 0x0 REVERT JUMPDEST PUSH1 0x0 PUSH1 0x1F NOT PUSH1 0x1F DUP4 ADD AND SWAP1 POP SWAP2 SWAP1 POP JUMP INVALID LOG2 PUSH5 0x6970667358 0x22 SLT KECCAK256 PUSH5 0x7A2B95908B SAR 0xE4 0xC3 0xDF PUSH31 0xEB48F4479E18E3D5D2455BA06649C97345968775CB64736F6C634300080700 CALLER PUSH1 0x80 PUSH1 0x40 MSTORE PUSH1 0x40 MLOAD DUP1 PUSH1 0x40 ADD PUSH1 0x40 MSTORE DUP1 PUSH1 0x4 DUP2 MSTORE PUSH1 0x20 ADD PUSH32 0x5847313200000000000000000000000000000000000000000000000000000000 DUP2 MSTORE POP PUSH1 0x0 SWAP1 DUP1 MLOAD SWAP1 PUSH1 0x20 ADD SWAP1 PUSH2 0x4F SWAP3 SWAP2 SWAP1 PUSH2 0x62 JUMP JUMPDEST POP CALLVALUE DUP1 ISZERO PUSH2 0x5C JUMPI PUSH1 0x0 DUP1 REVERT JUMPDEST POP PUSH2 0x166 JUMP JUMPDEST DUP3 DUP1 SLOAD PUSH2 0x6E SWAP1 PUSH2 0x105 JUMP JUMPDEST SWAP1 PUSH1 0x0 MSTORE PUSH1 0x20 PUSH1 0x0 KECCAK256 SWAP1 PUSH1 0x1F ADD PUSH1 0x20 SWAP1 DIV DUP2 ADD SWAP3 DUP3 PUSH2 0x90 JUMPI PUSH1 0x0 DUP6 SSTORE PUSH2 0xD7 JUMP JUMPDEST DUP3 PUSH1 0x1F LT PUSH2 0xA9 JUMPI DUP1 MLOAD PUSH1 0xFF NOT AND DUP4 DUP1 ADD OR DUP6 SSTORE PUSH2 0xD7 JUMP JUMPDEST DUP3 DUP1 ADD PUSH1 0x1 ADD DUP6 SSTORE DUP3 ISZERO PUSH2 0xD7 JUMPI SWAP2 DUP3 ADD JUMPDEST DUP3 DUP2 GT ISZERO PUSH2 0xD6 JUMPI DUP3 MLOAD DUP3 SSTORE SWAP2 PUSH1 0x20 ADD SWAP2 SWAP1 PUSH1 0x1 ADD SWAP1 PUSH2 0xBB JUMP JUMPDEST JUMPDEST POP SWAP1 POP PUSH2 0xE4 SWAP2 SWAP1 PUSH2 0xE8 JUMP JUMPDEST POP SWAP1 JUMP JUMPDEST JUMPDEST DUP1 DUP3 GT ISZERO PUSH2 0x101 JUMPI PUSH1 0x0 DUP2 PUSH1 0x0 SWAP1 SSTORE POP PUSH1 0x1 ADD PUSH2 0xE9 JUMP JUMPDEST POP SWAP1 JUMP JUMPDEST PUSH1 0x0 PUSH1 0x2 DUP3 DIV SWAP1 POP PUSH1 0x1 DUP3 AND DUP1 PUSH2 0x11D JUMPI PUSH1 0x7F DUP3 AND SWAP2 POP JUMPDEST PUSH1 0x20 DUP3 LT DUP2 EQ ISZERO PUSH2 0x131 JUMPI PUSH2 0x130 PUSH2 0x137 JUMP JUMPDEST JUMPDEST POP SWAP2 SWAP1 POP JUMP JUMPDEST PUSH32 0x4E487B7100000000000000000000000000000000000000000000000000000000 PUSH1 0x0 MSTORE PUSH1 0x22 PUSH1 0x4 MSTORE PUSH1 0x24 PUSH1 0x0 REVERT JUMPDEST PUSH2 0x294 DUP1 PUSH2 0x175 PUSH1 0x0 CODECOPY PUSH1 0x0 RETURN INVALID PUSH1 0x80 PUSH1 0x40 MSTORE CALLVALUE DUP1 ISZERO PUSH2 0x10 JUMPI PUSH1 0x0 DUP1 REVERT JUMPDEST POP PUSH1 0x4 CALLDATASIZE LT PUSH2 0x36 JUMPI PUSH1 0x0 CALLDATALOAD PUSH1 0xE0 SHR DUP1 PUSH4 0x6FDDE03 EQ PUSH2 0x3B JUMPI DUP1 PUSH4 0xBA33ED7D EQ PUSH2 0x59 JUMPI JUMPDEST PUSH1 0x0 DUP1 REVERT JUMPDEST PUSH2 0x43 PUSH2 0x77 JUMP JUMPDEST PUSH1 0x40 MLOAD PUSH2 0x50 SWAP2 SWAP1 PUSH2 0x17B JUMP JUMPDEST PUSH1 0x40 MLOAD DUP1 SWAP2 SUB SWAP1 RETURN JUMPDEST PUSH2 0x61 PUSH2 0x105 JUMP JUMPDEST PUSH1 0x40 MLOAD PUSH2 0x6E SWAP2 SWAP1 PUSH2 0x17B JUMP JUMPDEST PUSH1 0x40 MLOAD DUP1 SWAP2 SUB SWAP1 RETURN JUMPDEST PUSH1 0x0 DUP1 SLOAD PUSH2 0x84 SWAP1 PUSH2 0x1EC JUMP JUMPDEST DUP1 PUSH1 0x1F ADD PUSH1 0x20 DUP1 SWAP2 DIV MUL PUSH1 0x20 ADD PUSH1 0x40 MLOAD SWAP1 DUP2 ADD PUSH1 0x40 MSTORE DUP1 SWAP3 SWAP2 SWAP1 DUP2 DUP2 MSTORE PUSH1 0x20 ADD DUP3 DUP1 SLOAD PUSH2 0xB0 SWAP1 PUSH2 0x1EC JUMP JUMPDEST DUP1 ISZERO PUSH2 0xFD JUMPI DUP1 PUSH1 0x1F LT PUSH2 0xD2 JUMPI PUSH2 0x100 DUP1 DUP4 SLOAD DIV MUL DUP4 MSTORE SWAP2 PUSH1 0x20 ADD SWAP2 PUSH2 0xFD JUMP JUMPDEST DUP3 ADD SWAP2 SWAP1 PUSH1 0x0 MSTORE PUSH1 0x20 PUSH1 0x0 KECCAK256 SWAP1 JUMPDEST DUP2 SLOAD DUP2 MSTORE SWAP1 PUSH1 0x1 ADD SWAP1 PUSH1 0x20 ADD DUP1 DUP4 GT PUSH2 0xE0 JUMPI DUP3 SWAP1 SUB PUSH1 0x1F AND DUP3 ADD SWAP2 JUMPDEST POP POP POP POP POP DUP2 JUMP JUMPDEST PUSH1 0x60 PUSH1 0x40 MLOAD DUP1 PUSH1 0x40 ADD PUSH1 0x40 MSTORE DUP1 PUSH1 0x6 DUP2 MSTORE PUSH1 0x20 ADD PUSH32 0x7475726E4F6E0000000000000000000000000000000000000000000000000000 DUP2 MSTORE POP SWAP1 POP SWAP1 JUMP JUMPDEST PUSH1 0x0 PUSH2 0x14D DUP3 PUSH2 0x19D JUMP JUMPDEST PUSH2 0x157 DUP2 DUP6 PUSH2 0x1A8 JUMP JUMPDEST SWAP4 POP PUSH2 0x167 DUP2 DUP6 PUSH1 0x20 DUP7 ADD PUSH2 0x1B9 JUMP JUMPDEST PUSH2 0x170 DUP2 PUSH2 0x24D JUMP JUMPDEST DUP5 ADD SWAP2 POP POP SWAP3 SWAP2 POP POP JUMP JUMPDEST PUSH1 0x0 PUSH1 0x20 DUP3 ADD SWAP1 POP DUP2 DUP2 SUB PUSH1 0x0 DUP4 ADD MSTORE PUSH2 0x195 DUP2 DUP5 PUSH2 0x142 JUMP JUMPDEST SWAP1 POP SWAP3 SWAP2 POP POP JUMP JUMPDEST PUSH1 0x0 DUP2 MLOAD SWAP1 POP SWAP2 SWAP1 POP JUMP JUMPDEST PUSH1 0x0 DUP3 DUP3 MSTORE PUSH1 0x20 DUP3 ADD SWAP1 POP SWAP3 SWAP2 POP POP JUMP JUMPDEST PUSH1 0x0 JUMPDEST DUP4 DUP2 LT ISZERO PUSH2 0x1D7 JUMPI DUP1 DUP3 ADD MLOAD DUP2 DUP5 ADD MSTORE PUSH1 0x20 DUP2 ADD SWAP1 POP PUSH2 0x1BC JUMP JUMPDEST DUP4 DUP2 GT ISZERO PUSH2 0x1E6 JUMPI PUSH1 0x0 DUP5 DUP5 ADD MSTORE JUMPDEST POP POP POP POP JUMP JUMPDEST PUSH1 0x0 PUSH1 0x2 DUP3 DIV SWAP1 POP PUSH1 0x1 DUP3 AND DUP1 PUSH2 0x204 JUMPI PUSH1 0x7F DUP3 AND SWAP2 POP JUMPDEST PUSH1 0x20 DUP3 LT DUP2 EQ ISZERO PUSH2 0x218 JUMPI PUSH2 0x217 PUSH2 0x21E JUMP JUMPDEST JUMPDEST POP SWAP2 SWAP1 POP JUMP JUMPDEST PUSH32 0x4E487B7100000000000000000000000000000000000000000000000000000000 PUSH1 0x0 MSTORE PUSH1 0x22 PUSH1 0x4 MSTORE PUSH1 0x24 PUSH1 0x0 REVERT JUMPDEST PUSH1 0x0 PUSH1 0x1F NOT PUSH1 0x1F DUP4 ADD AND SWAP1 POP SWAP2 SWAP1 POP JUMP INVALID LOG2 PUSH5 0x6970667358 0x22 SLT KECCAK256 DUP9 PUSH26 0x5A141DBB29B8CB0C8FE714E193868B03F3337E81569C0376D645 0xBB 0xC6 0x4F CALLDATASIZE PUSH5 0x736F6C6343 STOP ADDMOD SMOD STOP CALLER "
				},
				"gasEstimates": {
					"creation": {
						"codeDepositCost": "358400",
						"executionCost": "infinite",
						"totalCost": "infinite"
					},
					"external": {
						"getAllNames()": "infinite",
						"monitor()": "2575",
						"start()": "infinite",
						"systemUnit()": "2644"
					}
				},
				"methodIdentifiers": {
					"getAllNames()": "fb825e5f",
					"monitor()": "3241992a",
					"start()": "be9a6555",
					"systemUnit()": "fbeabdbb"
				}
			},
			"storageLayout": {
				"storage": [
					{
						"astId": 37,
						"contract": "Chapter6/Ex6.04.sol:Computer",
						"label": "monitor",
						"offset": 0,
						"slot": "0",
						"type": "t_contract(Monitor)22"
					},
					{
						"astId": 40,
						"contract": "Chapter6/Ex6.04.sol:Computer",
						"label": "systemUnit",
						"offset": 0,
						"slot": "1",
						"type": "t_contract(SystemUnit)34"
					}
				],
				"types": {
					"t_contract(Monitor)22": {
						"encoding": "inplace",
						"label": "contract Monitor",
						"numberOfBytes": "20"
					},
					"t_contract(SystemUnit)34": {
						"encoding": "inplace",
						"label": "contract SystemUnit",
						"numberOfBytes": "20"
					}
				}
			},
			"userdoc": {
				"kind": "user",
				"methods": {},
				"version": 1
			}
		}
	}
}