{
	"Chapter6/Ex6.11_other.sol": {
		"Mother": {
			"abi": [
				{
					"anonymous": false,
					"inputs": [
						{
							"indexed": false,
							"internalType": "string",
							"name": "name",
							"type": "string"
						}
					],
					"name": "MotherName",
					"type": "event"
				},
				{
					"inputs": [],
					"name": "who",
					"outputs": [],
					"stateMutability": "nonpayable",
					"type": "function"
				}
			],
			"devdoc": {
				"kind": "dev",
				"methods": {},
				"version": 1
			},
			"evm": {
				"assembly": "    /* \"Chapter6/Ex6.11_other.sol\":203:334  contract Mother {... */\n  mstore(0x40, 0x80)\n  callvalue\n  dup1\n  iszero\n  tag_1\n  jumpi\n  0x00\n  dup1\n  revert\ntag_1:\n  pop\n  dataSize(sub_0)\n  dup1\n  dataOffset(sub_0)\n  0x00\n  codecopy\n  0x00\n  return\nstop\n\nsub_0: assembly {\n        /* \"Chapter6/Ex6.11_other.sol\":203:334  contract Mother {... */\n      mstore(0x40, 0x80)\n      callvalue\n      dup1\n      iszero\n      tag_1\n      jumpi\n      0x00\n      dup1\n      revert\n    tag_1:\n      pop\n      jumpi(tag_2, lt(calldatasize, 0x04))\n      shr(0xe0, calldataload(0x00))\n      dup1\n      0xd6d21dfd\n      eq\n      tag_3\n      jumpi\n    tag_2:\n      0x00\n      dup1\n      revert\n        /* \"Chapter6/Ex6.11_other.sol\":260:332  function who() public virtual {... */\n    tag_3:\n      tag_4\n      tag_5\n      jump\t// in\n    tag_4:\n      stop\n    tag_5:\n        /* \"Chapter6/Ex6.11_other.sol\":305:325  MotherName(\"EryKim\") */\n      0x9084713d5e2561709d7197f0c1143d7e814a061dae5429ba219fd588fb389c38\n      mload(0x40)\n      tag_7\n      swap1\n      tag_8\n      jump\t// in\n    tag_7:\n      mload(0x40)\n      dup1\n      swap2\n      sub\n      swap1\n      log1\n        /* \"Chapter6/Ex6.11_other.sol\":260:332  function who() public virtual {... */\n      jump\t// out\n        /* \"#utility.yul\":7:372   */\n    tag_10:\n        /* \"#utility.yul\":149:152   */\n      0x00\n        /* \"#utility.yul\":170:236   */\n      tag_12\n        /* \"#utility.yul\":234:235   */\n      0x06\n        /* \"#utility.yul\":229:232   */\n      dup4\n        /* \"#utility.yul\":170:236   */\n      tag_13\n      jump\t// in\n    tag_12:\n        /* \"#utility.yul\":163:236   */\n      swap2\n      pop\n        /* \"#utility.yul\":245:338   */\n      tag_14\n        /* \"#utility.yul\":334:337   */\n      dup3\n        /* \"#utility.yul\":245:338   */\n      tag_15\n      jump\t// in\n    tag_14:\n        /* \"#utility.yul\":363:365   */\n      0x20\n        /* \"#utility.yul\":358:361   */\n      dup3\n        /* \"#utility.yul\":354:366   */\n      add\n        /* \"#utility.yul\":347:366   */\n      swap1\n      pop\n        /* \"#utility.yul\":7:372   */\n      swap2\n      swap1\n      pop\n      jump\t// out\n        /* \"#utility.yul\":378:797   */\n    tag_8:\n        /* \"#utility.yul\":544:548   */\n      0x00\n        /* \"#utility.yul\":582:584   */\n      0x20\n        /* \"#utility.yul\":571:580   */\n      dup3\n        /* \"#utility.yul\":567:585   */\n      add\n        /* \"#utility.yul\":559:585   */\n      swap1\n      pop\n        /* \"#utility.yul\":631:640   */\n      dup2\n        /* \"#utility.yul\":625:629   */\n      dup2\n        /* \"#utility.yul\":621:641   */\n      sub\n        /* \"#utility.yul\":617:618   */\n      0x00\n        /* \"#utility.yul\":606:615   */\n      dup4\n        /* \"#utility.yul\":602:619   */\n      add\n        /* \"#utility.yul\":595:642   */\n      mstore\n        /* \"#utility.yul\":659:790   */\n      tag_17\n        /* \"#utility.yul\":785:789   */\n      dup2\n        /* \"#utility.yul\":659:790   */\n      tag_10\n      jump\t// in\n    tag_17:\n        /* \"#utility.yul\":651:790   */\n      swap1\n      pop\n        /* \"#utility.yul\":378:797   */\n      swap2\n      swap1\n      pop\n      jump\t// out\n        /* \"#utility.yul\":803:972   */\n    tag_13:\n        /* \"#utility.yul\":887:898   */\n      0x00\n        /* \"#utility.yul\":921:927   */\n      dup3\n        /* \"#utility.yul\":916:919   */\n      dup3\n        /* \"#utility.yul\":909:928   */\n      mstore\n        /* \"#utility.yul\":961:965   */\n      0x20\n        /* \"#utility.yul\":956:959   */\n      dup3\n        /* \"#utility.yul\":952:966   */\n      add\n        /* \"#utility.yul\":937:966   */\n      swap1\n      pop\n        /* \"#utility.yul\":803:972   */\n      swap3\n      swap2\n      pop\n      pop\n      jump\t// out\n        /* \"#utility.yul\":978:1134   */\n    tag_15:\n        /* \"#utility.yul\":1118:1126   */\n      0x4572794b696d0000000000000000000000000000000000000000000000000000\n        /* \"#utility.yul\":1114:1115   */\n      0x00\n        /* \"#utility.yul\":1106:1112   */\n      dup3\n        /* \"#utility.yul\":1102:1116   */\n      add\n        /* \"#utility.yul\":1095:1127   */\n      mstore\n        /* \"#utility.yul\":978:1134   */\n      pop\n      jump\t// out\n\n    auxdata: 0xa2646970667358221220b385ce2ed78fd0204c8a9da551a45975a1e0d957fb69dbd6baa2ce3bb9a592ae64736f6c63430008070033\n}\n",
				"bytecode": {
					"linkReferences": {},
					"object": "608060405234801561001057600080fd5b50610117806100206000396000f3fe6080604052348015600f57600080fd5b506004361060285760003560e01c8063d6d21dfd14602d575b600080fd5b60336035565b005b7f9084713d5e2561709d7197f0c1143d7e814a061dae5429ba219fd588fb389c386040516060906089565b60405180910390a1565b6000607560068360a7565b9150607e8260b8565b602082019050919050565b6000602082019050818103600083015260a081606a565b9050919050565b600082825260208201905092915050565b7f4572794b696d000000000000000000000000000000000000000000000000000060008201525056fea2646970667358221220b385ce2ed78fd0204c8a9da551a45975a1e0d957fb69dbd6baa2ce3bb9a592ae64736f6c63430008070033",
					"opcodes": "PUSH1 0x80 PUSH1 0x40 MSTORE CALLVALUE DUP1 ISZERO PUSH2 0x10 JUMPI PUSH1 0x0 DUP1 REVERT JUMPDEST POP PUSH2 0x117 DUP1 PUSH2 0x20 PUSH1 0x0 CODECOPY PUSH1 0x0 RETURN INVALID PUSH1 0x80 PUSH1 0x40 MSTORE CALLVALUE DUP1 ISZERO PUSH1 0xF JUMPI PUSH1 0x0 DUP1 REVERT JUMPDEST POP PUSH1 0x4 CALLDATASIZE LT PUSH1 0x28 JUMPI PUSH1 0x0 CALLDATALOAD PUSH1 0xE0 SHR DUP1 PUSH4 0xD6D21DFD EQ PUSH1 0x2D JUMPI JUMPDEST PUSH1 0x0 DUP1 REVERT JUMPDEST PUSH1 0x33 PUSH1 0x35 JUMP JUMPDEST STOP JUMPDEST PUSH32 0x9084713D5E2561709D7197F0C1143D7E814A061DAE5429BA219FD588FB389C38 PUSH1 0x40 MLOAD PUSH1 0x60 SWAP1 PUSH1 0x89 JUMP JUMPDEST PUSH1 0x40 MLOAD DUP1 SWAP2 SUB SWAP1 LOG1 JUMP JUMPDEST PUSH1 0x0 PUSH1 0x75 PUSH1 0x6 DUP4 PUSH1 0xA7 JUMP JUMPDEST SWAP2 POP PUSH1 0x7E DUP3 PUSH1 0xB8 JUMP JUMPDEST PUSH1 0x20 DUP3 ADD SWAP1 POP SWAP2 SWAP1 POP JUMP JUMPDEST PUSH1 0x0 PUSH1 0x20 DUP3 ADD SWAP1 POP DUP2 DUP2 SUB PUSH1 0x0 DUP4 ADD MSTORE PUSH1 0xA0 DUP2 PUSH1 0x6A JUMP JUMPDEST SWAP1 POP SWAP2 SWAP1 POP JUMP JUMPDEST PUSH1 0x0 DUP3 DUP3 MSTORE PUSH1 0x20 DUP3 ADD SWAP1 POP SWAP3 SWAP2 POP POP JUMP JUMPDEST PUSH32 0x4572794B696D0000000000000000000000000000000000000000000000000000 PUSH1 0x0 DUP3 ADD MSTORE POP JUMP INVALID LOG2 PUSH5 0x6970667358 0x22 SLT KECCAK256 0xB3 DUP6 0xCE 0x2E 0xD7 DUP16 0xD0 KECCAK256 0x4C DUP11 SWAP14 0xA5 MLOAD LOG4 MSIZE PUSH22 0xA1E0D957FB69DBD6BAA2CE3BB9A592AE64736F6C6343 STOP ADDMOD SMOD STOP CALLER "
				},
				"gasEstimates": {
					"creation": {
						"codeDepositCost": "55800",
						"executionCost": "105",
						"totalCost": "55905"
					},
					"external": {
						"who()": "1924"
					}
				},
				"methodIdentifiers": {
					"who()": "d6d21dfd"
				}
			},
			"storageLayout": {
				"storage": [],
				"types": null
			},
			"userdoc": {
				"kind": "user",
				"methods": {},
				"version": 1
			}
		}
	}
}