{
	"Chapter6/Ex6.15.sol": {
		"Alice": {
			"abi": [
				{
					"inputs": [],
					"name": "time",
					"outputs": [
						{
							"internalType": "uint256",
							"name": "",
							"type": "uint256"
						}
					],
					"stateMutability": "nonpayable",
					"type": "function"
				}
			],
			"devdoc": {
				"kind": "dev",
				"methods": {},
				"version": 1
			},
			"evm": {
				"assembly": "    /* \"Chapter6/Ex6.15.sol\":525:684  contract Alice is ArtStudent(5), PartTimer(6) {... */\n  mstore(0x40, 0x80)\n  callvalue\n  dup1\n  iszero\n  tag_1\n  jumpi\n  0x00\n  dup1\n  revert\ntag_1:\n  pop\n    /* \"Chapter6/Ex6.15.sol\":568:569  6 */\n  0x06\n    /* \"Chapter6/Ex6.15.sol\":554:555  5 */\n  0x05\n    /* \"Chapter6/Ex6.15.sol\":205:217  _schoolHours */\n  dup1\n    /* \"Chapter6/Ex6.15.sol\":191:202  schoolHours */\n  0x00\n    /* \"Chapter6/Ex6.15.sol\":191:217  schoolHours = _schoolHours */\n  dup2\n  swap1\n  sstore\n  pop\n    /* \"Chapter6/Ex6.15.sol\":151:224  constructor(uint _schoolHours){... */\n  pop\n    /* \"Chapter6/Ex6.15.sol\":415:428  _workingHours */\n  dup1\n    /* \"Chapter6/Ex6.15.sol\":400:412  workingHours */\n  0x01\n    /* \"Chapter6/Ex6.15.sol\":400:428  workingHours = _workingHours */\n  dup2\n  swap1\n  sstore\n  pop\n    /* \"Chapter6/Ex6.15.sol\":359:435  constructor(uint _workingHours){... */\n  pop\n    /* \"Chapter6/Ex6.15.sol\":525:684  contract Alice is ArtStudent(5), PartTimer(6) {... */\n  dataSize(sub_0)\n  dup1\n  dataOffset(sub_0)\n  0x00\n  codecopy\n  0x00\n  return\nstop\n\nsub_0: assembly {\n        /* \"Chapter6/Ex6.15.sol\":525:684  contract Alice is ArtStudent(5), PartTimer(6) {... */\n      mstore(0x40, 0x80)\n      callvalue\n      dup1\n      iszero\n      tag_1\n      jumpi\n      0x00\n      dup1\n      revert\n    tag_1:\n      pop\n      jumpi(tag_2, lt(calldatasize, 0x04))\n      shr(0xe0, calldataload(0x00))\n      dup1\n      0x16ada547\n      eq\n      tag_3\n      jumpi\n    tag_2:\n      0x00\n      dup1\n      revert\n        /* \"Chapter6/Ex6.15.sol\":577:682  function time() public override(ArtStudent, PartTimer) returns(uint) {... */\n    tag_3:\n      tag_4\n      tag_5\n      jump\t// in\n    tag_4:\n      mload(0x40)\n      tag_6\n      swap2\n      swap1\n      tag_7\n      jump\t// in\n    tag_6:\n      mload(0x40)\n      dup1\n      swap2\n      sub\n      swap1\n      return\n    tag_5:\n        /* \"Chapter6/Ex6.15.sol\":640:644  uint */\n      0x00\n        /* \"Chapter6/Ex6.15.sol\":663:675  super.time() */\n      tag_9\n        /* \"Chapter6/Ex6.15.sol\":663:673  super.time */\n      tag_10\n        /* \"Chapter6/Ex6.15.sol\":663:675  super.time() */\n      jump\t// in\n    tag_9:\n        /* \"Chapter6/Ex6.15.sol\":656:675  return super.time() */\n      swap1\n      pop\n        /* \"Chapter6/Ex6.15.sol\":577:682  function time() public override(ArtStudent, PartTimer) returns(uint) {... */\n      swap1\n      jump\t// out\n        /* \"Chapter6/Ex6.15.sol\":440:521  function time() public virtual returns(uint) {... */\n    tag_10:\n        /* \"Chapter6/Ex6.15.sol\":479:483  uint */\n      0x00\n        /* \"Chapter6/Ex6.15.sol\":502:514  workingHours */\n      sload(0x01)\n        /* \"Chapter6/Ex6.15.sol\":495:514  return workingHours */\n      swap1\n      pop\n        /* \"Chapter6/Ex6.15.sol\":440:521  function time() public virtual returns(uint) {... */\n      swap1\n      jump\t// out\n        /* \"#utility.yul\":7:125   */\n    tag_13:\n        /* \"#utility.yul\":94:118   */\n      tag_15\n        /* \"#utility.yul\":112:117   */\n      dup2\n        /* \"#utility.yul\":94:118   */\n      tag_16\n      jump\t// in\n    tag_15:\n        /* \"#utility.yul\":89:92   */\n      dup3\n        /* \"#utility.yul\":82:119   */\n      mstore\n        /* \"#utility.yul\":7:125   */\n      pop\n      pop\n      jump\t// out\n        /* \"#utility.yul\":131:353   */\n    tag_7:\n        /* \"#utility.yul\":224:228   */\n      0x00\n        /* \"#utility.yul\":262:264   */\n      0x20\n        /* \"#utility.yul\":251:260   */\n      dup3\n        /* \"#utility.yul\":247:265   */\n      add\n        /* \"#utility.yul\":239:265   */\n      swap1\n      pop\n        /* \"#utility.yul\":275:346   */\n      tag_18\n        /* \"#utility.yul\":343:344   */\n      0x00\n        /* \"#utility.yul\":332:341   */\n      dup4\n        /* \"#utility.yul\":328:345   */\n      add\n        /* \"#utility.yul\":319:325   */\n      dup5\n        /* \"#utility.yul\":275:346   */\n      tag_13\n      jump\t// in\n    tag_18:\n        /* \"#utility.yul\":131:353   */\n      swap3\n      swap2\n      pop\n      pop\n      jump\t// out\n        /* \"#utility.yul\":359:436   */\n    tag_16:\n        /* \"#utility.yul\":396:403   */\n      0x00\n        /* \"#utility.yul\":425:430   */\n      dup2\n        /* \"#utility.yul\":414:430   */\n      swap1\n      pop\n        /* \"#utility.yul\":359:436   */\n      swap2\n      swap1\n      pop\n      jump\t// out\n\n    auxdata: 0xa2646970667358221220d450d728a3e09834ae0adddac91bab202a1ea667ba9a4b3e45d6cdf40e25dd2f64736f6c63430008070033\n}\n",
				"bytecode": {
					"linkReferences": {},
					"object": "608060405234801561001057600080fd5b50600660058060008190555050806001819055505060c4806100336000396000f3fe6080604052348015600f57600080fd5b506004361060285760003560e01c806316ada54714602d575b600080fd5b60336047565b604051603e9190606b565b60405180910390f35b6000604f6054565b905090565b6000600154905090565b6065816084565b82525050565b6000602082019050607e6000830184605e565b92915050565b600081905091905056fea2646970667358221220d450d728a3e09834ae0adddac91bab202a1ea667ba9a4b3e45d6cdf40e25dd2f64736f6c63430008070033",
					"opcodes": "PUSH1 0x80 PUSH1 0x40 MSTORE CALLVALUE DUP1 ISZERO PUSH2 0x10 JUMPI PUSH1 0x0 DUP1 REVERT JUMPDEST POP PUSH1 0x6 PUSH1 0x5 DUP1 PUSH1 0x0 DUP2 SWAP1 SSTORE POP POP DUP1 PUSH1 0x1 DUP2 SWAP1 SSTORE POP POP PUSH1 0xC4 DUP1 PUSH2 0x33 PUSH1 0x0 CODECOPY PUSH1 0x0 RETURN INVALID PUSH1 0x80 PUSH1 0x40 MSTORE CALLVALUE DUP1 ISZERO PUSH1 0xF JUMPI PUSH1 0x0 DUP1 REVERT JUMPDEST POP PUSH1 0x4 CALLDATASIZE LT PUSH1 0x28 JUMPI PUSH1 0x0 CALLDATALOAD PUSH1 0xE0 SHR DUP1 PUSH4 0x16ADA547 EQ PUSH1 0x2D JUMPI JUMPDEST PUSH1 0x0 DUP1 REVERT JUMPDEST PUSH1 0x33 PUSH1 0x47 JUMP JUMPDEST PUSH1 0x40 MLOAD PUSH1 0x3E SWAP2 SWAP1 PUSH1 0x6B JUMP JUMPDEST PUSH1 0x40 MLOAD DUP1 SWAP2 SUB SWAP1 RETURN JUMPDEST PUSH1 0x0 PUSH1 0x4F PUSH1 0x54 JUMP JUMPDEST SWAP1 POP SWAP1 JUMP JUMPDEST PUSH1 0x0 PUSH1 0x1 SLOAD SWAP1 POP SWAP1 JUMP JUMPDEST PUSH1 0x65 DUP2 PUSH1 0x84 JUMP JUMPDEST DUP3 MSTORE POP POP JUMP JUMPDEST PUSH1 0x0 PUSH1 0x20 DUP3 ADD SWAP1 POP PUSH1 0x7E PUSH1 0x0 DUP4 ADD DUP5 PUSH1 0x5E JUMP JUMPDEST SWAP3 SWAP2 POP POP JUMP JUMPDEST PUSH1 0x0 DUP2 SWAP1 POP SWAP2 SWAP1 POP JUMP INVALID LOG2 PUSH5 0x6970667358 0x22 SLT KECCAK256 0xD4 POP 0xD7 0x28 LOG3 0xE0 SWAP9 CALLVALUE 0xAE EXP 0xDD 0xDA 0xC9 SHL 0xAB KECCAK256 0x2A 0x1E 0xA6 PUSH8 0xBA9A4B3E45D6CDF4 0xE 0x25 0xDD 0x2F PUSH5 0x736F6C6343 STOP ADDMOD SMOD STOP CALLER "
				},
				"gasEstimates": {
					"creation": {
						"codeDepositCost": "39200",
						"executionCost": "44331",
						"totalCost": "83531"
					},
					"external": {
						"time()": "2450"
					}
				},
				"methodIdentifiers": {
					"time()": "16ada547"
				}
			},
			"storageLayout": {
				"storage": [
					{
						"astId": 3,
						"contract": "Chapter6/Ex6.15.sol:Alice",
						"label": "schoolHours",
						"offset": 0,
						"slot": "0",
						"type": "t_uint256"
					},
					{
						"astId": 24,
						"contract": "Chapter6/Ex6.15.sol:Alice",
						"label": "workingHours",
						"offset": 0,
						"slot": "1",
						"type": "t_uint256"
					}
				],
				"types": {
					"t_uint256": {
						"encoding": "inplace",
						"label": "uint256",
						"numberOfBytes": "32"
					}
				}
			},
			"userdoc": {
				"kind": "user",
				"methods": {},
				"version": 1
			}
		}
	}
}