{
	"Chapter6/Ex6.01.sol": {
		"Ex6_1": {
			"abi": [
				{
					"anonymous": false,
					"inputs": [
						{
							"indexed": false,
							"internalType": "uint256",
							"name": "result",
							"type": "uint256"
						},
						{
							"indexed": false,
							"internalType": "string",
							"name": "name",
							"type": "string"
						}
					],
					"name": "MyFunction",
					"type": "event"
				},
				{
					"inputs": [
						{
							"internalType": "uint256",
							"name": "_a",
							"type": "uint256"
						},
						{
							"internalType": "uint256",
							"name": "_b",
							"type": "uint256"
						}
					],
					"name": "add",
					"outputs": [],
					"stateMutability": "nonpayable",
					"type": "function"
				},
				{
					"inputs": [
						{
							"internalType": "uint256",
							"name": "_a",
							"type": "uint256"
						},
						{
							"internalType": "uint256",
							"name": "_b",
							"type": "uint256"
						}
					],
					"name": "mul",
					"outputs": [],
					"stateMutability": "nonpayable",
					"type": "function"
				}
			],
			"devdoc": {
				"kind": "dev",
				"methods": {},
				"version": 1
			},
			"evm": {
				"assembly": "    /* \"Chapter6/Ex6.01.sol\":69:755  contract Ex6_1 {... */\n  mstore(0x40, 0x80)\n  callvalue\n  dup1\n  iszero\n  tag_1\n  jumpi\n  0x00\n  dup1\n  revert\ntag_1:\n  pop\n  dataSize(sub_0)\n  dup1\n  dataOffset(sub_0)\n  0x00\n  codecopy\n  0x00\n  return\nstop\n\nsub_0: assembly {\n        /* \"Chapter6/Ex6.01.sol\":69:755  contract Ex6_1 {... */\n      mstore(0x40, 0x80)\n      callvalue\n      dup1\n      iszero\n      tag_1\n      jumpi\n      0x00\n      dup1\n      revert\n    tag_1:\n      pop\n      jumpi(tag_2, lt(calldatasize, 0x04))\n      shr(0xe0, calldataload(0x00))\n      dup1\n      0x771602f7\n      eq\n      tag_3\n      jumpi\n      dup1\n      0xc8a4ac9c\n      eq\n      tag_4\n      jumpi\n    tag_2:\n      0x00\n      dup1\n      revert\n        /* \"Chapter6/Ex6.01.sol\":259:446  function add(uint _a, uint _b) public {... */\n    tag_3:\n      tag_5\n      0x04\n      dup1\n      calldatasize\n      sub\n      dup2\n      add\n      swap1\n      tag_6\n      swap2\n      swap1\n      tag_7\n      jump\t// in\n    tag_6:\n      tag_8\n      jump\t// in\n    tag_5:\n      stop\n        /* \"Chapter6/Ex6.01.sol\":639:753  function mul(uint _a, uint _b) public {... */\n    tag_4:\n      tag_9\n      0x04\n      dup1\n      calldatasize\n      sub\n      dup2\n      add\n      swap1\n      tag_10\n      swap2\n      swap1\n      tag_7\n      jump\t// in\n    tag_10:\n      tag_11\n      jump\t// in\n    tag_9:\n      stop\n        /* \"Chapter6/Ex6.01.sol\":259:446  function add(uint _a, uint _b) public {... */\n    tag_8:\n        /* \"Chapter6/Ex6.01.sol\":307:317  uint total */\n      0x00\n        /* \"Chapter6/Ex6.01.sol\":325:327  _b */\n      dup2\n        /* \"Chapter6/Ex6.01.sol\":320:322  _a */\n      dup4\n        /* \"Chapter6/Ex6.01.sol\":320:327  _a + _b */\n      tag_13\n      swap2\n      swap1\n      tag_14\n      jump\t// in\n    tag_13:\n        /* \"Chapter6/Ex6.01.sol\":307:327  uint total = _a + _b */\n      swap1\n      pop\n        /* \"Chapter6/Ex6.01.sol\":415:439  MyFunction(total, \"add\") */\n      0xc782686e55700c1a67821f5be6d214bb892d74f7667202c2c1c4ac7f45d9a058\n        /* \"Chapter6/Ex6.01.sol\":426:431  total */\n      dup2\n        /* \"Chapter6/Ex6.01.sol\":415:439  MyFunction(total, \"add\") */\n      mload(0x40)\n      tag_15\n      swap2\n      swap1\n      tag_16\n      jump\t// in\n    tag_15:\n      mload(0x40)\n      dup1\n      swap2\n      sub\n      swap1\n      log1\n        /* \"Chapter6/Ex6.01.sol\":297:446  {... */\n      pop\n        /* \"Chapter6/Ex6.01.sol\":259:446  function add(uint _a, uint _b) public {... */\n      pop\n      pop\n      jump\t// out\n        /* \"Chapter6/Ex6.01.sol\":639:753  function mul(uint _a, uint _b) public {... */\n    tag_11:\n        /* \"Chapter6/Ex6.01.sol\":687:697  uint total */\n      0x00\n        /* \"Chapter6/Ex6.01.sol\":705:707  _b */\n      dup2\n        /* \"Chapter6/Ex6.01.sol\":700:702  _a */\n      dup4\n        /* \"Chapter6/Ex6.01.sol\":700:707  _a * _b */\n      tag_18\n      swap2\n      swap1\n      tag_19\n      jump\t// in\n    tag_18:\n        /* \"Chapter6/Ex6.01.sol\":687:707  uint total = _a * _b */\n      swap1\n      pop\n        /* \"Chapter6/Ex6.01.sol\":722:746  MyFunction(total, \"mul\") */\n      0xc782686e55700c1a67821f5be6d214bb892d74f7667202c2c1c4ac7f45d9a058\n        /* \"Chapter6/Ex6.01.sol\":733:738  total */\n      dup2\n        /* \"Chapter6/Ex6.01.sol\":722:746  MyFunction(total, \"mul\") */\n      mload(0x40)\n      tag_20\n      swap2\n      swap1\n      tag_21\n      jump\t// in\n    tag_20:\n      mload(0x40)\n      dup1\n      swap2\n      sub\n      swap1\n      log1\n        /* \"Chapter6/Ex6.01.sol\":677:753  {... */\n      pop\n        /* \"Chapter6/Ex6.01.sol\":639:753  function mul(uint _a, uint _b) public {... */\n      pop\n      pop\n      jump\t// out\n        /* \"#utility.yul\":7:146   */\n    tag_23:\n        /* \"#utility.yul\":53:58   */\n      0x00\n        /* \"#utility.yul\":91:97   */\n      dup2\n        /* \"#utility.yul\":78:98   */\n      calldataload\n        /* \"#utility.yul\":69:98   */\n      swap1\n      pop\n        /* \"#utility.yul\":107:140   */\n      tag_25\n        /* \"#utility.yul\":134:139   */\n      dup2\n        /* \"#utility.yul\":107:140   */\n      tag_26\n      jump\t// in\n    tag_25:\n        /* \"#utility.yul\":7:146   */\n      swap3\n      swap2\n      pop\n      pop\n      jump\t// out\n        /* \"#utility.yul\":152:626   */\n    tag_7:\n        /* \"#utility.yul\":220:226   */\n      0x00\n        /* \"#utility.yul\":228:234   */\n      dup1\n        /* \"#utility.yul\":277:279   */\n      0x40\n        /* \"#utility.yul\":265:274   */\n      dup4\n        /* \"#utility.yul\":256:263   */\n      dup6\n        /* \"#utility.yul\":252:275   */\n      sub\n        /* \"#utility.yul\":248:280   */\n      slt\n        /* \"#utility.yul\":245:364   */\n      iszero\n      tag_28\n      jumpi\n        /* \"#utility.yul\":283:362   */\n      tag_29\n      tag_30\n      jump\t// in\n    tag_29:\n        /* \"#utility.yul\":245:364   */\n    tag_28:\n        /* \"#utility.yul\":403:404   */\n      0x00\n        /* \"#utility.yul\":428:481   */\n      tag_31\n        /* \"#utility.yul\":473:480   */\n      dup6\n        /* \"#utility.yul\":464:470   */\n      dup3\n        /* \"#utility.yul\":453:462   */\n      dup7\n        /* \"#utility.yul\":449:471   */\n      add\n        /* \"#utility.yul\":428:481   */\n      tag_23\n      jump\t// in\n    tag_31:\n        /* \"#utility.yul\":418:481   */\n      swap3\n      pop\n        /* \"#utility.yul\":374:491   */\n      pop\n        /* \"#utility.yul\":530:532   */\n      0x20\n        /* \"#utility.yul\":556:609   */\n      tag_32\n        /* \"#utility.yul\":601:608   */\n      dup6\n        /* \"#utility.yul\":592:598   */\n      dup3\n        /* \"#utility.yul\":581:590   */\n      dup7\n        /* \"#utility.yul\":577:599   */\n      add\n        /* \"#utility.yul\":556:609   */\n      tag_23\n      jump\t// in\n    tag_32:\n        /* \"#utility.yul\":546:609   */\n      swap2\n      pop\n        /* \"#utility.yul\":501:619   */\n      pop\n        /* \"#utility.yul\":152:626   */\n      swap3\n      pop\n      swap3\n      swap1\n      pop\n      jump\t// out\n        /* \"#utility.yul\":632:997   */\n    tag_33:\n        /* \"#utility.yul\":774:777   */\n      0x00\n        /* \"#utility.yul\":795:861   */\n      tag_35\n        /* \"#utility.yul\":859:860   */\n      0x03\n        /* \"#utility.yul\":854:857   */\n      dup4\n        /* \"#utility.yul\":795:861   */\n      tag_36\n      jump\t// in\n    tag_35:\n        /* \"#utility.yul\":788:861   */\n      swap2\n      pop\n        /* \"#utility.yul\":870:963   */\n      tag_37\n        /* \"#utility.yul\":959:962   */\n      dup3\n        /* \"#utility.yul\":870:963   */\n      tag_38\n      jump\t// in\n    tag_37:\n        /* \"#utility.yul\":988:990   */\n      0x20\n        /* \"#utility.yul\":983:986   */\n      dup3\n        /* \"#utility.yul\":979:991   */\n      add\n        /* \"#utility.yul\":972:991   */\n      swap1\n      pop\n        /* \"#utility.yul\":632:997   */\n      swap2\n      swap1\n      pop\n      jump\t// out\n        /* \"#utility.yul\":1003:1368   */\n    tag_39:\n        /* \"#utility.yul\":1145:1148   */\n      0x00\n        /* \"#utility.yul\":1166:1232   */\n      tag_41\n        /* \"#utility.yul\":1230:1231   */\n      0x03\n        /* \"#utility.yul\":1225:1228   */\n      dup4\n        /* \"#utility.yul\":1166:1232   */\n      tag_36\n      jump\t// in\n    tag_41:\n        /* \"#utility.yul\":1159:1232   */\n      swap2\n      pop\n        /* \"#utility.yul\":1241:1334   */\n      tag_42\n        /* \"#utility.yul\":1330:1333   */\n      dup3\n        /* \"#utility.yul\":1241:1334   */\n      tag_43\n      jump\t// in\n    tag_42:\n        /* \"#utility.yul\":1359:1361   */\n      0x20\n        /* \"#utility.yul\":1354:1357   */\n      dup3\n        /* \"#utility.yul\":1350:1362   */\n      add\n        /* \"#utility.yul\":1343:1362   */\n      swap1\n      pop\n        /* \"#utility.yul\":1003:1368   */\n      swap2\n      swap1\n      pop\n      jump\t// out\n        /* \"#utility.yul\":1374:1492   */\n    tag_44:\n        /* \"#utility.yul\":1461:1485   */\n      tag_46\n        /* \"#utility.yul\":1479:1484   */\n      dup2\n        /* \"#utility.yul\":1461:1485   */\n      tag_47\n      jump\t// in\n    tag_46:\n        /* \"#utility.yul\":1456:1459   */\n      dup3\n        /* \"#utility.yul\":1449:1486   */\n      mstore\n        /* \"#utility.yul\":1374:1492   */\n      pop\n      pop\n      jump\t// out\n        /* \"#utility.yul\":1498:2027   */\n    tag_21:\n        /* \"#utility.yul\":1692:1696   */\n      0x00\n        /* \"#utility.yul\":1730:1732   */\n      0x40\n        /* \"#utility.yul\":1719:1728   */\n      dup3\n        /* \"#utility.yul\":1715:1733   */\n      add\n        /* \"#utility.yul\":1707:1733   */\n      swap1\n      pop\n        /* \"#utility.yul\":1743:1814   */\n      tag_49\n        /* \"#utility.yul\":1811:1812   */\n      0x00\n        /* \"#utility.yul\":1800:1809   */\n      dup4\n        /* \"#utility.yul\":1796:1813   */\n      add\n        /* \"#utility.yul\":1787:1793   */\n      dup5\n        /* \"#utility.yul\":1743:1814   */\n      tag_44\n      jump\t// in\n    tag_49:\n        /* \"#utility.yul\":1861:1870   */\n      dup2\n        /* \"#utility.yul\":1855:1859   */\n      dup2\n        /* \"#utility.yul\":1851:1871   */\n      sub\n        /* \"#utility.yul\":1846:1848   */\n      0x20\n        /* \"#utility.yul\":1835:1844   */\n      dup4\n        /* \"#utility.yul\":1831:1849   */\n      add\n        /* \"#utility.yul\":1824:1872   */\n      mstore\n        /* \"#utility.yul\":1889:2020   */\n      tag_50\n        /* \"#utility.yul\":2015:2019   */\n      dup2\n        /* \"#utility.yul\":1889:2020   */\n      tag_33\n      jump\t// in\n    tag_50:\n        /* \"#utility.yul\":1881:2020   */\n      swap1\n      pop\n        /* \"#utility.yul\":1498:2027   */\n      swap3\n      swap2\n      pop\n      pop\n      jump\t// out\n        /* \"#utility.yul\":2033:2562   */\n    tag_16:\n        /* \"#utility.yul\":2227:2231   */\n      0x00\n        /* \"#utility.yul\":2265:2267   */\n      0x40\n        /* \"#utility.yul\":2254:2263   */\n      dup3\n        /* \"#utility.yul\":2250:2268   */\n      add\n        /* \"#utility.yul\":2242:2268   */\n      swap1\n      pop\n        /* \"#utility.yul\":2278:2349   */\n      tag_52\n        /* \"#utility.yul\":2346:2347   */\n      0x00\n        /* \"#utility.yul\":2335:2344   */\n      dup4\n        /* \"#utility.yul\":2331:2348   */\n      add\n        /* \"#utility.yul\":2322:2328   */\n      dup5\n        /* \"#utility.yul\":2278:2349   */\n      tag_44\n      jump\t// in\n    tag_52:\n        /* \"#utility.yul\":2396:2405   */\n      dup2\n        /* \"#utility.yul\":2390:2394   */\n      dup2\n        /* \"#utility.yul\":2386:2406   */\n      sub\n        /* \"#utility.yul\":2381:2383   */\n      0x20\n        /* \"#utility.yul\":2370:2379   */\n      dup4\n        /* \"#utility.yul\":2366:2384   */\n      add\n        /* \"#utility.yul\":2359:2407   */\n      mstore\n        /* \"#utility.yul\":2424:2555   */\n      tag_53\n        /* \"#utility.yul\":2550:2554   */\n      dup2\n        /* \"#utility.yul\":2424:2555   */\n      tag_39\n      jump\t// in\n    tag_53:\n        /* \"#utility.yul\":2416:2555   */\n      swap1\n      pop\n        /* \"#utility.yul\":2033:2562   */\n      swap3\n      swap2\n      pop\n      pop\n      jump\t// out\n        /* \"#utility.yul\":2649:2818   */\n    tag_36:\n        /* \"#utility.yul\":2733:2744   */\n      0x00\n        /* \"#utility.yul\":2767:2773   */\n      dup3\n        /* \"#utility.yul\":2762:2765   */\n      dup3\n        /* \"#utility.yul\":2755:2774   */\n      mstore\n        /* \"#utility.yul\":2807:2811   */\n      0x20\n        /* \"#utility.yul\":2802:2805   */\n      dup3\n        /* \"#utility.yul\":2798:2812   */\n      add\n        /* \"#utility.yul\":2783:2812   */\n      swap1\n      pop\n        /* \"#utility.yul\":2649:2818   */\n      swap3\n      swap2\n      pop\n      pop\n      jump\t// out\n        /* \"#utility.yul\":2824:3129   */\n    tag_14:\n        /* \"#utility.yul\":2864:2867   */\n      0x00\n        /* \"#utility.yul\":2883:2903   */\n      tag_58\n        /* \"#utility.yul\":2901:2902   */\n      dup3\n        /* \"#utility.yul\":2883:2903   */\n      tag_47\n      jump\t// in\n    tag_58:\n        /* \"#utility.yul\":2878:2903   */\n      swap2\n      pop\n        /* \"#utility.yul\":2917:2937   */\n      tag_59\n        /* \"#utility.yul\":2935:2936   */\n      dup4\n        /* \"#utility.yul\":2917:2937   */\n      tag_47\n      jump\t// in\n    tag_59:\n        /* \"#utility.yul\":2912:2937   */\n      swap3\n      pop\n        /* \"#utility.yul\":3071:3072   */\n      dup3\n        /* \"#utility.yul\":3003:3069   */\n      0xffffffffffffffffffffffffffffffffffffffffffffffffffffffffffffffff\n        /* \"#utility.yul\":2999:3073   */\n      sub\n        /* \"#utility.yul\":2996:2997   */\n      dup3\n        /* \"#utility.yul\":2993:3074   */\n      gt\n        /* \"#utility.yul\":2990:3097   */\n      iszero\n      tag_60\n      jumpi\n        /* \"#utility.yul\":3077:3095   */\n      tag_61\n      tag_62\n      jump\t// in\n    tag_61:\n        /* \"#utility.yul\":2990:3097   */\n    tag_60:\n        /* \"#utility.yul\":3121:3122   */\n      dup3\n        /* \"#utility.yul\":3118:3119   */\n      dup3\n        /* \"#utility.yul\":3114:3123   */\n      add\n        /* \"#utility.yul\":3107:3123   */\n      swap1\n      pop\n        /* \"#utility.yul\":2824:3129   */\n      swap3\n      swap2\n      pop\n      pop\n      jump\t// out\n        /* \"#utility.yul\":3135:3483   */\n    tag_19:\n        /* \"#utility.yul\":3175:3182   */\n      0x00\n        /* \"#utility.yul\":3198:3218   */\n      tag_64\n        /* \"#utility.yul\":3216:3217   */\n      dup3\n        /* \"#utility.yul\":3198:3218   */\n      tag_47\n      jump\t// in\n    tag_64:\n        /* \"#utility.yul\":3193:3218   */\n      swap2\n      pop\n        /* \"#utility.yul\":3232:3252   */\n      tag_65\n        /* \"#utility.yul\":3250:3251   */\n      dup4\n        /* \"#utility.yul\":3232:3252   */\n      tag_47\n      jump\t// in\n    tag_65:\n        /* \"#utility.yul\":3227:3252   */\n      swap3\n      pop\n        /* \"#utility.yul\":3420:3421   */\n      dup2\n        /* \"#utility.yul\":3352:3418   */\n      0xffffffffffffffffffffffffffffffffffffffffffffffffffffffffffffffff\n        /* \"#utility.yul\":3348:3422   */\n      div\n        /* \"#utility.yul\":3345:3346   */\n      dup4\n        /* \"#utility.yul\":3342:3423   */\n      gt\n        /* \"#utility.yul\":3337:3338   */\n      dup3\n        /* \"#utility.yul\":3330:3339   */\n      iszero\n        /* \"#utility.yul\":3323:3340   */\n      iszero\n        /* \"#utility.yul\":3319:3424   */\n      and\n        /* \"#utility.yul\":3316:3447   */\n      iszero\n      tag_66\n      jumpi\n        /* \"#utility.yul\":3427:3445   */\n      tag_67\n      tag_62\n      jump\t// in\n    tag_67:\n        /* \"#utility.yul\":3316:3447   */\n    tag_66:\n        /* \"#utility.yul\":3475:3476   */\n      dup3\n        /* \"#utility.yul\":3472:3473   */\n      dup3\n        /* \"#utility.yul\":3468:3477   */\n      mul\n        /* \"#utility.yul\":3457:3477   */\n      swap1\n      pop\n        /* \"#utility.yul\":3135:3483   */\n      swap3\n      swap2\n      pop\n      pop\n      jump\t// out\n        /* \"#utility.yul\":3489:3566   */\n    tag_47:\n        /* \"#utility.yul\":3526:3533   */\n      0x00\n        /* \"#utility.yul\":3555:3560   */\n      dup2\n        /* \"#utility.yul\":3544:3560   */\n      swap1\n      pop\n        /* \"#utility.yul\":3489:3566   */\n      swap2\n      swap1\n      pop\n      jump\t// out\n        /* \"#utility.yul\":3572:3752   */\n    tag_62:\n        /* \"#utility.yul\":3620:3697   */\n      0x4e487b7100000000000000000000000000000000000000000000000000000000\n        /* \"#utility.yul\":3617:3618   */\n      0x00\n        /* \"#utility.yul\":3610:3698   */\n      mstore\n        /* \"#utility.yul\":3717:3721   */\n      0x11\n        /* \"#utility.yul\":3714:3715   */\n      0x04\n        /* \"#utility.yul\":3707:3722   */\n      mstore\n        /* \"#utility.yul\":3741:3745   */\n      0x24\n        /* \"#utility.yul\":3738:3739   */\n      0x00\n        /* \"#utility.yul\":3731:3746   */\n      revert\n        /* \"#utility.yul\":3881:3998   */\n    tag_30:\n        /* \"#utility.yul\":3990:3991   */\n      0x00\n        /* \"#utility.yul\":3987:3988   */\n      dup1\n        /* \"#utility.yul\":3980:3992   */\n      revert\n        /* \"#utility.yul\":4004:4157   */\n    tag_38:\n        /* \"#utility.yul\":4144:4149   */\n      0x6d756c0000000000000000000000000000000000000000000000000000000000\n        /* \"#utility.yul\":4140:4141   */\n      0x00\n        /* \"#utility.yul\":4132:4138   */\n      dup3\n        /* \"#utility.yul\":4128:4142   */\n      add\n        /* \"#utility.yul\":4121:4150   */\n      mstore\n        /* \"#utility.yul\":4004:4157   */\n      pop\n      jump\t// out\n        /* \"#utility.yul\":4163:4316   */\n    tag_43:\n        /* \"#utility.yul\":4303:4308   */\n      0x6164640000000000000000000000000000000000000000000000000000000000\n        /* \"#utility.yul\":4299:4300   */\n      0x00\n        /* \"#utility.yul\":4291:4297   */\n      dup3\n        /* \"#utility.yul\":4287:4301   */\n      add\n        /* \"#utility.yul\":4280:4309   */\n      mstore\n        /* \"#utility.yul\":4163:4316   */\n      pop\n      jump\t// out\n        /* \"#utility.yul\":4322:4444   */\n    tag_26:\n        /* \"#utility.yul\":4395:4419   */\n      tag_76\n        /* \"#utility.yul\":4413:4418   */\n      dup2\n        /* \"#utility.yul\":4395:4419   */\n      tag_47\n      jump\t// in\n    tag_76:\n        /* \"#utility.yul\":4388:4393   */\n      dup2\n        /* \"#utility.yul\":4385:4420   */\n      eq\n        /* \"#utility.yul\":4375:4438   */\n      tag_77\n      jumpi\n        /* \"#utility.yul\":4434:4435   */\n      0x00\n        /* \"#utility.yul\":4431:4432   */\n      dup1\n        /* \"#utility.yul\":4424:4436   */\n      revert\n        /* \"#utility.yul\":4375:4438   */\n    tag_77:\n        /* \"#utility.yul\":4322:4444   */\n      pop\n      jump\t// out\n\n    auxdata: 0xa26469706673582212208c7da2e9c1898b8bb1a11c1ca0f6d10aaad77f0d07885fc067da874555dda9f164736f6c63430008070033\n}\n",
				"bytecode": {
					"linkReferences": {},
					"object": "608060405234801561001057600080fd5b506103af806100206000396000f3fe608060405234801561001057600080fd5b50600436106100365760003560e01c8063771602f71461003b578063c8a4ac9c14610057575b600080fd5b61005560048036038101906100509190610120565b610073565b005b610071600480360381019061006c9190610120565b6100bf565b005b600081836100819190610222565b90507fc782686e55700c1a67821f5be6d214bb892d74f7667202c2c1c4ac7f45d9a058816040516100b291906101e3565b60405180910390a1505050565b600081836100cd9190610278565b90507fc782686e55700c1a67821f5be6d214bb892d74f7667202c2c1c4ac7f45d9a058816040516100fe91906101b5565b60405180910390a1505050565b60008135905061011a81610362565b92915050565b600080604083850312156101375761013661030b565b5b60006101458582860161010b565b92505060206101568582860161010b565b9150509250929050565b600061016d600383610211565b915061017882610310565b602082019050919050565b6000610190600383610211565b915061019b82610339565b602082019050919050565b6101af816102d2565b82525050565b60006040820190506101ca60008301846101a6565b81810360208301526101db81610160565b905092915050565b60006040820190506101f860008301846101a6565b818103602083015261020981610183565b905092915050565b600082825260208201905092915050565b600061022d826102d2565b9150610238836102d2565b9250827fffffffffffffffffffffffffffffffffffffffffffffffffffffffffffffffff0382111561026d5761026c6102dc565b5b828201905092915050565b6000610283826102d2565b915061028e836102d2565b9250817fffffffffffffffffffffffffffffffffffffffffffffffffffffffffffffffff04831182151516156102c7576102c66102dc565b5b828202905092915050565b6000819050919050565b7f4e487b7100000000000000000000000000000000000000000000000000000000600052601160045260246000fd5b600080fd5b7f6d756c0000000000000000000000000000000000000000000000000000000000600082015250565b7f6164640000000000000000000000000000000000000000000000000000000000600082015250565b61036b816102d2565b811461037657600080fd5b5056fea26469706673582212208c7da2e9c1898b8bb1a11c1ca0f6d10aaad77f0d07885fc067da874555dda9f164736f6c63430008070033",
					"opcodes": "PUSH1 0x80 PUSH1 0x40 MSTORE CALLVALUE DUP1 ISZERO PUSH2 0x10 JUMPI PUSH1 0x0 DUP1 REVERT JUMPDEST POP PUSH2 0x3AF DUP1 PUSH2 0x20 PUSH1 0x0 CODECOPY PUSH1 0x0 RETURN INVALID PUSH1 0x80 PUSH1 0x40 MSTORE CALLVALUE DUP1 ISZERO PUSH2 0x10 JUMPI PUSH1 0x0 DUP1 REVERT JUMPDEST POP PUSH1 0x4 CALLDATASIZE LT PUSH2 0x36 JUMPI PUSH1 0x0 CALLDATALOAD PUSH1 0xE0 SHR DUP1 PUSH4 0x771602F7 EQ PUSH2 0x3B JUMPI DUP1 PUSH4 0xC8A4AC9C EQ PUSH2 0x57 JUMPI JUMPDEST PUSH1 0x0 DUP1 REVERT JUMPDEST PUSH2 0x55 PUSH1 0x4 DUP1 CALLDATASIZE SUB DUP2 ADD SWAP1 PUSH2 0x50 SWAP2 SWAP1 PUSH2 0x120 JUMP JUMPDEST PUSH2 0x73 JUMP JUMPDEST STOP JUMPDEST PUSH2 0x71 PUSH1 0x4 DUP1 CALLDATASIZE SUB DUP2 ADD SWAP1 PUSH2 0x6C SWAP2 SWAP1 PUSH2 0x120 JUMP JUMPDEST PUSH2 0xBF JUMP JUMPDEST STOP JUMPDEST PUSH1 0x0 DUP2 DUP4 PUSH2 0x81 SWAP2 SWAP1 PUSH2 0x222 JUMP JUMPDEST SWAP1 POP PUSH32 0xC782686E55700C1A67821F5BE6D214BB892D74F7667202C2C1C4AC7F45D9A058 DUP2 PUSH1 0x40 MLOAD PUSH2 0xB2 SWAP2 SWAP1 PUSH2 0x1E3 JUMP JUMPDEST PUSH1 0x40 MLOAD DUP1 SWAP2 SUB SWAP1 LOG1 POP POP POP JUMP JUMPDEST PUSH1 0x0 DUP2 DUP4 PUSH2 0xCD SWAP2 SWAP1 PUSH2 0x278 JUMP JUMPDEST SWAP1 POP PUSH32 0xC782686E55700C1A67821F5BE6D214BB892D74F7667202C2C1C4AC7F45D9A058 DUP2 PUSH1 0x40 MLOAD PUSH2 0xFE SWAP2 SWAP1 PUSH2 0x1B5 JUMP JUMPDEST PUSH1 0x40 MLOAD DUP1 SWAP2 SUB SWAP1 LOG1 POP POP POP JUMP JUMPDEST PUSH1 0x0 DUP2 CALLDATALOAD SWAP1 POP PUSH2 0x11A DUP2 PUSH2 0x362 JUMP JUMPDEST SWAP3 SWAP2 POP POP JUMP JUMPDEST PUSH1 0x0 DUP1 PUSH1 0x40 DUP4 DUP6 SUB SLT ISZERO PUSH2 0x137 JUMPI PUSH2 0x136 PUSH2 0x30B JUMP JUMPDEST JUMPDEST PUSH1 0x0 PUSH2 0x145 DUP6 DUP3 DUP7 ADD PUSH2 0x10B JUMP JUMPDEST SWAP3 POP POP PUSH1 0x20 PUSH2 0x156 DUP6 DUP3 DUP7 ADD PUSH2 0x10B JUMP JUMPDEST SWAP2 POP POP SWAP3 POP SWAP3 SWAP1 POP JUMP JUMPDEST PUSH1 0x0 PUSH2 0x16D PUSH1 0x3 DUP4 PUSH2 0x211 JUMP JUMPDEST SWAP2 POP PUSH2 0x178 DUP3 PUSH2 0x310 JUMP JUMPDEST PUSH1 0x20 DUP3 ADD SWAP1 POP SWAP2 SWAP1 POP JUMP JUMPDEST PUSH1 0x0 PUSH2 0x190 PUSH1 0x3 DUP4 PUSH2 0x211 JUMP JUMPDEST SWAP2 POP PUSH2 0x19B DUP3 PUSH2 0x339 JUMP JUMPDEST PUSH1 0x20 DUP3 ADD SWAP1 POP SWAP2 SWAP1 POP JUMP JUMPDEST PUSH2 0x1AF DUP2 PUSH2 0x2D2 JUMP JUMPDEST DUP3 MSTORE POP POP JUMP JUMPDEST PUSH1 0x0 PUSH1 0x40 DUP3 ADD SWAP1 POP PUSH2 0x1CA PUSH1 0x0 DUP4 ADD DUP5 PUSH2 0x1A6 JUMP JUMPDEST DUP2 DUP2 SUB PUSH1 0x20 DUP4 ADD MSTORE PUSH2 0x1DB DUP2 PUSH2 0x160 JUMP JUMPDEST SWAP1 POP SWAP3 SWAP2 POP POP JUMP JUMPDEST PUSH1 0x0 PUSH1 0x40 DUP3 ADD SWAP1 POP PUSH2 0x1F8 PUSH1 0x0 DUP4 ADD DUP5 PUSH2 0x1A6 JUMP JUMPDEST DUP2 DUP2 SUB PUSH1 0x20 DUP4 ADD MSTORE PUSH2 0x209 DUP2 PUSH2 0x183 JUMP JUMPDEST SWAP1 POP SWAP3 SWAP2 POP POP JUMP JUMPDEST PUSH1 0x0 DUP3 DUP3 MSTORE PUSH1 0x20 DUP3 ADD SWAP1 POP SWAP3 SWAP2 POP POP JUMP JUMPDEST PUSH1 0x0 PUSH2 0x22D DUP3 PUSH2 0x2D2 JUMP JUMPDEST SWAP2 POP PUSH2 0x238 DUP4 PUSH2 0x2D2 JUMP JUMPDEST SWAP3 POP DUP3 PUSH32 0xFFFFFFFFFFFFFFFFFFFFFFFFFFFFFFFFFFFFFFFFFFFFFFFFFFFFFFFFFFFFFFFF SUB DUP3 GT ISZERO PUSH2 0x26D JUMPI PUSH2 0x26C PUSH2 0x2DC JUMP JUMPDEST JUMPDEST DUP3 DUP3 ADD SWAP1 POP SWAP3 SWAP2 POP POP JUMP JUMPDEST PUSH1 0x0 PUSH2 0x283 DUP3 PUSH2 0x2D2 JUMP JUMPDEST SWAP2 POP PUSH2 0x28E DUP4 PUSH2 0x2D2 JUMP JUMPDEST SWAP3 POP DUP2 PUSH32 0xFFFFFFFFFFFFFFFFFFFFFFFFFFFFFFFFFFFFFFFFFFFFFFFFFFFFFFFFFFFFFFFF DIV DUP4 GT DUP3 ISZERO ISZERO AND ISZERO PUSH2 0x2C7 JUMPI PUSH2 0x2C6 PUSH2 0x2DC JUMP JUMPDEST JUMPDEST DUP3 DUP3 MUL SWAP1 POP SWAP3 SWAP2 POP POP JUMP JUMPDEST PUSH1 0x0 DUP2 SWAP1 POP SWAP2 SWAP1 POP JUMP JUMPDEST PUSH32 0x4E487B7100000000000000000000000000000000000000000000000000000000 PUSH1 0x0 MSTORE PUSH1 0x11 PUSH1 0x4 MSTORE PUSH1 0x24 PUSH1 0x0 REVERT JUMPDEST PUSH1 0x0 DUP1 REVERT JUMPDEST PUSH32 0x6D756C0000000000000000000000000000000000000000000000000000000000 PUSH1 0x0 DUP3 ADD MSTORE POP JUMP JUMPDEST PUSH32 0x6164640000000000000000000000000000000000000000000000000000000000 PUSH1 0x0 DUP3 ADD MSTORE POP JUMP JUMPDEST PUSH2 0x36B DUP2 PUSH2 0x2D2 JUMP JUMPDEST DUP2 EQ PUSH2 0x376 JUMPI PUSH1 0x0 DUP1 REVERT JUMPDEST POP JUMP INVALID LOG2 PUSH5 0x6970667358 0x22 SLT KECCAK256 DUP13 PUSH30 0xA2E9C1898B8BB1A11C1CA0F6D10AAAD77F0D07885FC067DA874555DDA9F1 PUSH5 0x736F6C6343 STOP ADDMOD SMOD STOP CALLER "
				},
				"gasEstimates": {
					"creation": {
						"codeDepositCost": "188600",
						"executionCost": "232",
						"totalCost": "188832"
					},
					"external": {
						"add(uint256,uint256)": "infinite",
						"mul(uint256,uint256)": "infinite"
					}
				},
				"methodIdentifiers": {
					"add(uint256,uint256)": "771602f7",
					"mul(uint256,uint256)": "c8a4ac9c"
				}
			},
			"storageLayout": {
				"storage": [],
				"types": null
			},
			"userdoc": {
				"kind": "user",
				"methods": {},
				"version": 1
			}
		}
	}
}