{
	"Chapter6/Ex6.17.sol": {
		"Computer": {
			"abi": [
				{
					"inputs": [],
					"name": "boot",
					"outputs": [
						{
							"internalType": "uint256",
							"name": "",
							"type": "uint256"
						},
						{
							"internalType": "bool",
							"name": "",
							"type": "bool"
						}
					],
					"stateMutability": "pure",
					"type": "function"
				},
				{
					"inputs": [],
					"name": "errorCheck",
					"outputs": [
						{
							"internalType": "bool",
							"name": "",
							"type": "bool"
						}
					],
					"stateMutability": "pure",
					"type": "function"
				},
				{
					"inputs": [],
					"name": "versionCheck",
					"outputs": [
						{
							"internalType": "uint256",
							"name": "",
							"type": "uint256"
						}
					],
					"stateMutability": "pure",
					"type": "function"
				}
			],
			"devdoc": {
				"kind": "dev",
				"methods": {},
				"version": 1
			},
			"evm": {
				"assembly": "    /* \"Chapter6/Ex6.17.sol\":741:1067  contract Computer is System {... */\n  mstore(0x40, 0x80)\n  callvalue\n  dup1\n  iszero\n  tag_1\n  jumpi\n  0x00\n  dup1\n  revert\ntag_1:\n  pop\n  dataSize(sub_0)\n  dup1\n  dataOffset(sub_0)\n  0x00\n  codecopy\n  0x00\n  return\nstop\n\nsub_0: assembly {\n        /* \"Chapter6/Ex6.17.sol\":741:1067  contract Computer is System {... */\n      mstore(0x40, 0x80)\n      callvalue\n      dup1\n      iszero\n      tag_1\n      jumpi\n      0x00\n      dup1\n      revert\n    tag_1:\n      pop\n      jumpi(tag_2, lt(calldatasize, 0x04))\n      shr(0xe0, calldataload(0x00))\n      dup1\n      0x54d44bf7\n      eq\n      tag_3\n      jumpi\n      dup1\n      0x783c2501\n      eq\n      tag_4\n      jumpi\n      dup1\n      0xaddd133c\n      eq\n      tag_5\n      jumpi\n    tag_2:\n      0x00\n      dup1\n      revert\n        /* \"Chapter6/Ex6.17.sol\":954:1065  function boot () public pure override returns(uint, bool) {... */\n    tag_3:\n      tag_6\n      tag_7\n      jump\t// in\n    tag_6:\n      mload(0x40)\n      tag_8\n      swap3\n      swap2\n      swap1\n      tag_9\n      jump\t// in\n    tag_8:\n      mload(0x40)\n      dup1\n      swap2\n      sub\n      swap1\n      return\n        /* \"Chapter6/Ex6.17.sol\":775:859  function versionCheck() public pure override returns(uint) {... */\n    tag_4:\n      tag_10\n      tag_11\n      jump\t// in\n    tag_10:\n      mload(0x40)\n      tag_12\n      swap2\n      swap1\n      tag_13\n      jump\t// in\n    tag_12:\n      mload(0x40)\n      dup1\n      swap2\n      sub\n      swap1\n      return\n        /* \"Chapter6/Ex6.17.sol\":864:949  function errorCheck() public pure override returns(bool) {... */\n    tag_5:\n      tag_14\n      tag_15\n      jump\t// in\n    tag_14:\n      mload(0x40)\n      tag_16\n      swap2\n      swap1\n      tag_17\n      jump\t// in\n    tag_16:\n      mload(0x40)\n      dup1\n      swap2\n      sub\n      swap1\n      return\n        /* \"Chapter6/Ex6.17.sol\":954:1065  function boot () public pure override returns(uint, bool) {... */\n    tag_7:\n        /* \"Chapter6/Ex6.17.sol\":1000:1004  uint */\n      0x00\n        /* \"Chapter6/Ex6.17.sol\":1006:1010  bool */\n      dup1\n        /* \"Chapter6/Ex6.17.sol\":1030:1044  versionCheck() */\n      tag_19\n        /* \"Chapter6/Ex6.17.sol\":1030:1042  versionCheck */\n      tag_11\n        /* \"Chapter6/Ex6.17.sol\":1030:1044  versionCheck() */\n      jump\t// in\n    tag_19:\n        /* \"Chapter6/Ex6.17.sol\":1045:1057  errorCheck() */\n      tag_20\n        /* \"Chapter6/Ex6.17.sol\":1045:1055  errorCheck */\n      tag_15\n        /* \"Chapter6/Ex6.17.sol\":1045:1057  errorCheck() */\n      jump\t// in\n    tag_20:\n        /* \"Chapter6/Ex6.17.sol\":1022:1058  return (versionCheck(),errorCheck()) */\n      swap2\n      pop\n      swap2\n      pop\n        /* \"Chapter6/Ex6.17.sol\":954:1065  function boot () public pure override returns(uint, bool) {... */\n      swap1\n      swap2\n      jump\t// out\n        /* \"Chapter6/Ex6.17.sol\":775:859  function versionCheck() public pure override returns(uint) {... */\n    tag_11:\n        /* \"Chapter6/Ex6.17.sol\":828:832  uint */\n      0x00\n        /* \"Chapter6/Ex6.17.sol\":851:852  3 */\n      0x03\n        /* \"Chapter6/Ex6.17.sol\":844:852  return 3 */\n      swap1\n      pop\n        /* \"Chapter6/Ex6.17.sol\":775:859  function versionCheck() public pure override returns(uint) {... */\n      swap1\n      jump\t// out\n        /* \"Chapter6/Ex6.17.sol\":864:949  function errorCheck() public pure override returns(bool) {... */\n    tag_15:\n        /* \"Chapter6/Ex6.17.sol\":915:919  bool */\n      0x00\n        /* \"Chapter6/Ex6.17.sol\":938:942  true */\n      0x01\n        /* \"Chapter6/Ex6.17.sol\":931:942  return true */\n      swap1\n      pop\n        /* \"Chapter6/Ex6.17.sol\":864:949  function errorCheck() public pure override returns(bool) {... */\n      swap1\n      jump\t// out\n        /* \"#utility.yul\":7:116   */\n    tag_24:\n        /* \"#utility.yul\":88:109   */\n      tag_26\n        /* \"#utility.yul\":103:108   */\n      dup2\n        /* \"#utility.yul\":88:109   */\n      tag_27\n      jump\t// in\n    tag_26:\n        /* \"#utility.yul\":83:86   */\n      dup3\n        /* \"#utility.yul\":76:110   */\n      mstore\n        /* \"#utility.yul\":7:116   */\n      pop\n      pop\n      jump\t// out\n        /* \"#utility.yul\":122:240   */\n    tag_28:\n        /* \"#utility.yul\":209:233   */\n      tag_30\n        /* \"#utility.yul\":227:232   */\n      dup2\n        /* \"#utility.yul\":209:233   */\n      tag_31\n      jump\t// in\n    tag_30:\n        /* \"#utility.yul\":204:207   */\n      dup3\n        /* \"#utility.yul\":197:234   */\n      mstore\n        /* \"#utility.yul\":122:240   */\n      pop\n      pop\n      jump\t// out\n        /* \"#utility.yul\":246:456   */\n    tag_17:\n        /* \"#utility.yul\":333:337   */\n      0x00\n        /* \"#utility.yul\":371:373   */\n      0x20\n        /* \"#utility.yul\":360:369   */\n      dup3\n        /* \"#utility.yul\":356:374   */\n      add\n        /* \"#utility.yul\":348:374   */\n      swap1\n      pop\n        /* \"#utility.yul\":384:449   */\n      tag_33\n        /* \"#utility.yul\":446:447   */\n      0x00\n        /* \"#utility.yul\":435:444   */\n      dup4\n        /* \"#utility.yul\":431:448   */\n      add\n        /* \"#utility.yul\":422:428   */\n      dup5\n        /* \"#utility.yul\":384:449   */\n      tag_24\n      jump\t// in\n    tag_33:\n        /* \"#utility.yul\":246:456   */\n      swap3\n      swap2\n      pop\n      pop\n      jump\t// out\n        /* \"#utility.yul\":462:684   */\n    tag_13:\n        /* \"#utility.yul\":555:559   */\n      0x00\n        /* \"#utility.yul\":593:595   */\n      0x20\n        /* \"#utility.yul\":582:591   */\n      dup3\n        /* \"#utility.yul\":578:596   */\n      add\n        /* \"#utility.yul\":570:596   */\n      swap1\n      pop\n        /* \"#utility.yul\":606:677   */\n      tag_35\n        /* \"#utility.yul\":674:675   */\n      0x00\n        /* \"#utility.yul\":663:672   */\n      dup4\n        /* \"#utility.yul\":659:676   */\n      add\n        /* \"#utility.yul\":650:656   */\n      dup5\n        /* \"#utility.yul\":606:677   */\n      tag_28\n      jump\t// in\n    tag_35:\n        /* \"#utility.yul\":462:684   */\n      swap3\n      swap2\n      pop\n      pop\n      jump\t// out\n        /* \"#utility.yul\":690:1010   */\n    tag_9:\n        /* \"#utility.yul\":805:809   */\n      0x00\n        /* \"#utility.yul\":843:845   */\n      0x40\n        /* \"#utility.yul\":832:841   */\n      dup3\n        /* \"#utility.yul\":828:846   */\n      add\n        /* \"#utility.yul\":820:846   */\n      swap1\n      pop\n        /* \"#utility.yul\":856:927   */\n      tag_37\n        /* \"#utility.yul\":924:925   */\n      0x00\n        /* \"#utility.yul\":913:922   */\n      dup4\n        /* \"#utility.yul\":909:926   */\n      add\n        /* \"#utility.yul\":900:906   */\n      dup6\n        /* \"#utility.yul\":856:927   */\n      tag_28\n      jump\t// in\n    tag_37:\n        /* \"#utility.yul\":937:1003   */\n      tag_38\n        /* \"#utility.yul\":999:1001   */\n      0x20\n        /* \"#utility.yul\":988:997   */\n      dup4\n        /* \"#utility.yul\":984:1002   */\n      add\n        /* \"#utility.yul\":975:981   */\n      dup5\n        /* \"#utility.yul\":937:1003   */\n      tag_24\n      jump\t// in\n    tag_38:\n        /* \"#utility.yul\":690:1010   */\n      swap4\n      swap3\n      pop\n      pop\n      pop\n      jump\t// out\n        /* \"#utility.yul\":1016:1106   */\n    tag_27:\n        /* \"#utility.yul\":1050:1057   */\n      0x00\n        /* \"#utility.yul\":1093:1098   */\n      dup2\n        /* \"#utility.yul\":1086:1099   */\n      iszero\n        /* \"#utility.yul\":1079:1100   */\n      iszero\n        /* \"#utility.yul\":1068:1100   */\n      swap1\n      pop\n        /* \"#utility.yul\":1016:1106   */\n      swap2\n      swap1\n      pop\n      jump\t// out\n        /* \"#utility.yul\":1112:1189   */\n    tag_31:\n        /* \"#utility.yul\":1149:1156   */\n      0x00\n        /* \"#utility.yul\":1178:1183   */\n      dup2\n        /* \"#utility.yul\":1167:1183   */\n      swap1\n      pop\n        /* \"#utility.yul\":1112:1189   */\n      swap2\n      swap1\n      pop\n      jump\t// out\n\n    auxdata: 0xa2646970667358221220eac59429830471716deb0dd7b99267c0b8ee82174c29ea6f5f443f82c041322f64736f6c63430008070033\n}\n",
				"bytecode": {
					"linkReferences": {},
					"object": "608060405234801561001057600080fd5b50610197806100206000396000f3fe608060405234801561001057600080fd5b50600436106100415760003560e01c806354d44bf714610046578063783c250114610065578063addd133c14610083575b600080fd5b61004e6100a1565b60405161005c929190610122565b60405180910390f35b61006d6100bc565b60405161007a9190610107565b60405180910390f35b61008b6100c5565b60405161009891906100ec565b60405180910390f35b6000806100ac6100bc565b6100b46100c5565b915091509091565b60006003905090565b60006001905090565b6100d78161014b565b82525050565b6100e681610157565b82525050565b600060208201905061010160008301846100ce565b92915050565b600060208201905061011c60008301846100dd565b92915050565b600060408201905061013760008301856100dd565b61014460208301846100ce565b9392505050565b60008115159050919050565b600081905091905056fea2646970667358221220eac59429830471716deb0dd7b99267c0b8ee82174c29ea6f5f443f82c041322f64736f6c63430008070033",
					"opcodes": "PUSH1 0x80 PUSH1 0x40 MSTORE CALLVALUE DUP1 ISZERO PUSH2 0x10 JUMPI PUSH1 0x0 DUP1 REVERT JUMPDEST POP PUSH2 0x197 DUP1 PUSH2 0x20 PUSH1 0x0 CODECOPY PUSH1 0x0 RETURN INVALID PUSH1 0x80 PUSH1 0x40 MSTORE CALLVALUE DUP1 ISZERO PUSH2 0x10 JUMPI PUSH1 0x0 DUP1 REVERT JUMPDEST POP PUSH1 0x4 CALLDATASIZE LT PUSH2 0x41 JUMPI PUSH1 0x0 CALLDATALOAD PUSH1 0xE0 SHR DUP1 PUSH4 0x54D44BF7 EQ PUSH2 0x46 JUMPI DUP1 PUSH4 0x783C2501 EQ PUSH2 0x65 JUMPI DUP1 PUSH4 0xADDD133C EQ PUSH2 0x83 JUMPI JUMPDEST PUSH1 0x0 DUP1 REVERT JUMPDEST PUSH2 0x4E PUSH2 0xA1 JUMP JUMPDEST PUSH1 0x40 MLOAD PUSH2 0x5C SWAP3 SWAP2 SWAP1 PUSH2 0x122 JUMP JUMPDEST PUSH1 0x40 MLOAD DUP1 SWAP2 SUB SWAP1 RETURN JUMPDEST PUSH2 0x6D PUSH2 0xBC JUMP JUMPDEST PUSH1 0x40 MLOAD PUSH2 0x7A SWAP2 SWAP1 PUSH2 0x107 JUMP JUMPDEST PUSH1 0x40 MLOAD DUP1 SWAP2 SUB SWAP1 RETURN JUMPDEST PUSH2 0x8B PUSH2 0xC5 JUMP JUMPDEST PUSH1 0x40 MLOAD PUSH2 0x98 SWAP2 SWAP1 PUSH2 0xEC JUMP JUMPDEST PUSH1 0x40 MLOAD DUP1 SWAP2 SUB SWAP1 RETURN JUMPDEST PUSH1 0x0 DUP1 PUSH2 0xAC PUSH2 0xBC JUMP JUMPDEST PUSH2 0xB4 PUSH2 0xC5 JUMP JUMPDEST SWAP2 POP SWAP2 POP SWAP1 SWAP2 JUMP JUMPDEST PUSH1 0x0 PUSH1 0x3 SWAP1 POP SWAP1 JUMP JUMPDEST PUSH1 0x0 PUSH1 0x1 SWAP1 POP SWAP1 JUMP JUMPDEST PUSH2 0xD7 DUP2 PUSH2 0x14B JUMP JUMPDEST DUP3 MSTORE POP POP JUMP JUMPDEST PUSH2 0xE6 DUP2 PUSH2 0x157 JUMP JUMPDEST DUP3 MSTORE POP POP JUMP JUMPDEST PUSH1 0x0 PUSH1 0x20 DUP3 ADD SWAP1 POP PUSH2 0x101 PUSH1 0x0 DUP4 ADD DUP5 PUSH2 0xCE JUMP JUMPDEST SWAP3 SWAP2 POP POP JUMP JUMPDEST PUSH1 0x0 PUSH1 0x20 DUP3 ADD SWAP1 POP PUSH2 0x11C PUSH1 0x0 DUP4 ADD DUP5 PUSH2 0xDD JUMP JUMPDEST SWAP3 SWAP2 POP POP JUMP JUMPDEST PUSH1 0x0 PUSH1 0x40 DUP3 ADD SWAP1 POP PUSH2 0x137 PUSH1 0x0 DUP4 ADD DUP6 PUSH2 0xDD JUMP JUMPDEST PUSH2 0x144 PUSH1 0x20 DUP4 ADD DUP5 PUSH2 0xCE JUMP JUMPDEST SWAP4 SWAP3 POP POP POP JUMP JUMPDEST PUSH1 0x0 DUP2 ISZERO ISZERO SWAP1 POP SWAP2 SWAP1 POP JUMP JUMPDEST PUSH1 0x0 DUP2 SWAP1 POP SWAP2 SWAP1 POP JUMP INVALID LOG2 PUSH5 0x6970667358 0x22 SLT KECCAK256 0xEA 0xC5 SWAP5 0x29 DUP4 DIV PUSH18 0x716DEB0DD7B99267C0B8EE82174C29EA6F5F DIFFICULTY EXTCODEHASH DUP3 0xC0 COINBASE ORIGIN 0x2F PUSH5 0x736F6C6343 STOP ADDMOD SMOD STOP CALLER "
				},
				"gasEstimates": {
					"creation": {
						"codeDepositCost": "81400",
						"executionCost": "129",
						"totalCost": "81529"
					},
					"external": {
						"boot()": "505",
						"errorCheck()": "365",
						"versionCheck()": "337"
					}
				},
				"methodIdentifiers": {
					"boot()": "54d44bf7",
					"errorCheck()": "addd133c",
					"versionCheck()": "783c2501"
				}
			},
			"storageLayout": {
				"storage": [],
				"types": null
			},
			"userdoc": {
				"kind": "user",
				"methods": {},
				"version": 1
			}
		}
	}
}